{
	"solidity-study-demo/Fund.sol": {
		"WithdrawContract": {
			"abi": [
				{
					"inputs": [],
					"stateMutability": "payable",
					"type": "constructor"
				},
				{
					"inputs": [],
					"name": "becomeRichest",
					"outputs": [
						{
							"internalType": "bool",
							"name": "",
							"type": "bool"
						}
					],
					"stateMutability": "payable",
					"type": "function"
				},
				{
					"inputs": [],
					"name": "mostSent",
					"outputs": [
						{
							"internalType": "uint256",
							"name": "",
							"type": "uint256"
						}
					],
					"stateMutability": "view",
					"type": "function"
				},
				{
					"inputs": [],
					"name": "richest",
					"outputs": [
						{
							"internalType": "address",
							"name": "",
							"type": "address"
						}
					],
					"stateMutability": "view",
					"type": "function"
				},
				{
					"inputs": [],
					"name": "withdraw",
					"outputs": [],
					"stateMutability": "nonpayable",
					"type": "function"
				}
			],
			"devdoc": {
				"kind": "dev",
				"methods": {},
				"version": 1
			},
			"evm": {
				"assembly": "    /* \"solidity-study-demo/Fund.sol\":35:713  contract WithdrawContract {\r... */\n  mstore(0x40, 0x80)\n    /* \"solidity-study-demo/Fund.sol\":221:231  msg.sender */\n  caller\n    /* \"solidity-study-demo/Fund.sol\":211:218  richest */\n  0x00\n  dup1\n    /* \"solidity-study-demo/Fund.sol\":211:231  richest = msg.sender */\n  0x0100\n  exp\n  dup2\n  sload\n  dup2\n  0xffffffffffffffffffffffffffffffffffffffff\n  mul\n  not\n  and\n  swap1\n  dup4\n  0xffffffffffffffffffffffffffffffffffffffff\n  and\n  mul\n  or\n  swap1\n  sstore\n  pop\n    /* \"solidity-study-demo/Fund.sol\":253:262  msg.value */\n  callvalue\n    /* \"solidity-study-demo/Fund.sol\":242:250  mostSent */\n  0x01\n    /* \"solidity-study-demo/Fund.sol\":242:262  mostSent = msg.value */\n  dup2\n  swap1\n  sstore\n  pop\n    /* \"solidity-study-demo/Fund.sol\":35:713  contract WithdrawContract {\r... */\n  dataSize(sub_0)\n  dup1\n  dataOffset(sub_0)\n  0x00\n  codecopy\n  0x00\n  return\nstop\n\nsub_0: assembly {\n        /* \"solidity-study-demo/Fund.sol\":35:713  contract WithdrawContract {\r... */\n      mstore(0x40, 0x80)\n      jumpi(tag_1, lt(calldatasize, 0x04))\n      shr(0xe0, calldataload(0x00))\n      dup1\n      0x02e26c38\n      eq\n      tag_2\n      jumpi\n      dup1\n      0x3ccfd60b\n      eq\n      tag_3\n      jumpi\n      dup1\n      0x6886bf1c\n      eq\n      tag_4\n      jumpi\n      dup1\n      0x69934ee7\n      eq\n      tag_5\n      jumpi\n    tag_1:\n      0x00\n      dup1\n      revert\n        /* \"solidity-study-demo/Fund.sol\":68:90  address public richest */\n    tag_2:\n      callvalue\n      dup1\n      iszero\n      tag_6\n      jumpi\n      0x00\n      dup1\n      revert\n    tag_6:\n      pop\n      tag_7\n      tag_8\n      jump\t// in\n    tag_7:\n      mload(0x40)\n      tag_9\n      swap2\n      swap1\n      tag_10\n      jump\t// in\n    tag_9:\n      mload(0x40)\n      dup1\n      swap2\n      sub\n      swap1\n      return\n        /* \"solidity-study-demo/Fund.sol\":528:710  function withdraw() public {\r... */\n    tag_3:\n      callvalue\n      dup1\n      iszero\n      tag_11\n      jumpi\n      0x00\n      dup1\n      revert\n    tag_11:\n      pop\n      tag_12\n      tag_13\n      jump\t// in\n    tag_12:\n      stop\n        /* \"solidity-study-demo/Fund.sol\":97:117  uint public mostSent */\n    tag_4:\n      callvalue\n      dup1\n      iszero\n      tag_14\n      jumpi\n      0x00\n      dup1\n      revert\n    tag_14:\n      pop\n      tag_15\n      tag_16\n      jump\t// in\n    tag_15:\n      mload(0x40)\n      tag_17\n      swap2\n      swap1\n      tag_18\n      jump\t// in\n    tag_17:\n      mload(0x40)\n      dup1\n      swap2\n      sub\n      swap1\n      return\n        /* \"solidity-study-demo/Fund.sol\":278:520  function becomeRichest() public payable returns (bool) {\r... */\n    tag_5:\n      tag_19\n      tag_20\n      jump\t// in\n    tag_19:\n      mload(0x40)\n      tag_21\n      swap2\n      swap1\n      tag_22\n      jump\t// in\n    tag_21:\n      mload(0x40)\n      dup1\n      swap2\n      sub\n      swap1\n      return\n        /* \"solidity-study-demo/Fund.sol\":68:90  address public richest */\n    tag_8:\n      0x00\n      dup1\n      sload\n      swap1\n      0x0100\n      exp\n      swap1\n      div\n      0xffffffffffffffffffffffffffffffffffffffff\n      and\n      dup2\n      jump\t// out\n        /* \"solidity-study-demo/Fund.sol\":528:710  function withdraw() public {\r... */\n    tag_13:\n        /* \"solidity-study-demo/Fund.sol\":566:577  uint amount */\n      0x00\n        /* \"solidity-study-demo/Fund.sol\":580:598  pendingWithdrawals */\n      0x02\n        /* \"solidity-study-demo/Fund.sol\":580:610  pendingWithdrawals[msg.sender] */\n      0x00\n        /* \"solidity-study-demo/Fund.sol\":599:609  msg.sender */\n      caller\n        /* \"solidity-study-demo/Fund.sol\":580:610  pendingWithdrawals[msg.sender] */\n      0xffffffffffffffffffffffffffffffffffffffff\n      and\n      0xffffffffffffffffffffffffffffffffffffffff\n      and\n      dup2\n      mstore\n      0x20\n      add\n      swap1\n      dup2\n      mstore\n      0x20\n      add\n      0x00\n      keccak256\n      sload\n        /* \"solidity-study-demo/Fund.sol\":566:610  uint amount = pendingWithdrawals[msg.sender] */\n      swap1\n      pop\n        /* \"solidity-study-demo/Fund.sol\":654:655  0 */\n      0x00\n        /* \"solidity-study-demo/Fund.sol\":621:639  pendingWithdrawals */\n      0x02\n        /* \"solidity-study-demo/Fund.sol\":621:651  pendingWithdrawals[msg.sender] */\n      0x00\n        /* \"solidity-study-demo/Fund.sol\":640:650  msg.sender */\n      caller\n        /* \"solidity-study-demo/Fund.sol\":621:651  pendingWithdrawals[msg.sender] */\n      0xffffffffffffffffffffffffffffffffffffffff\n      and\n      0xffffffffffffffffffffffffffffffffffffffff\n      and\n      dup2\n      mstore\n      0x20\n      add\n      swap1\n      dup2\n      mstore\n      0x20\n      add\n      0x00\n      keccak256\n        /* \"solidity-study-demo/Fund.sol\":621:655  pendingWithdrawals[msg.sender] = 0 */\n      dup2\n      swap1\n      sstore\n      pop\n        /* \"solidity-study-demo/Fund.sol\":674:684  msg.sender */\n      caller\n        /* \"solidity-study-demo/Fund.sol\":666:694  payable(msg.sender).transfer */\n      0xffffffffffffffffffffffffffffffffffffffff\n      and\n        /* \"solidity-study-demo/Fund.sol\":666:702  payable(msg.sender).transfer(amount) */\n      0x08fc\n        /* \"solidity-study-demo/Fund.sol\":695:701  amount */\n      dup3\n        /* \"solidity-study-demo/Fund.sol\":666:702  payable(msg.sender).transfer(amount) */\n      swap1\n      dup2\n      iszero\n      mul\n      swap1\n      mload(0x40)\n      0x00\n      mload(0x40)\n      dup1\n      dup4\n      sub\n      dup2\n      dup6\n      dup9\n      dup9\n      call\n      swap4\n      pop\n      pop\n      pop\n      pop\n      iszero\n      dup1\n      iszero\n      tag_25\n      jumpi\n      returndatasize\n      0x00\n      dup1\n      returndatacopy\n      revert(0x00, returndatasize)\n    tag_25:\n      pop\n        /* \"solidity-study-demo/Fund.sol\":555:710  {\r... */\n      pop\n        /* \"solidity-study-demo/Fund.sol\":528:710  function withdraw() public {\r... */\n      jump\t// out\n        /* \"solidity-study-demo/Fund.sol\":97:117  uint public mostSent */\n    tag_16:\n      sload(0x01)\n      dup2\n      jump\t// out\n        /* \"solidity-study-demo/Fund.sol\":278:520  function becomeRichest() public payable returns (bool) {\r... */\n    tag_20:\n        /* \"solidity-study-demo/Fund.sol\":327:331  bool */\n      0x00\n        /* \"solidity-study-demo/Fund.sol\":364:372  mostSent */\n      sload(0x01)\n        /* \"solidity-study-demo/Fund.sol\":352:361  msg.value */\n      callvalue\n        /* \"solidity-study-demo/Fund.sol\":352:372  msg.value > mostSent */\n      gt\n        /* \"solidity-study-demo/Fund.sol\":344:399  require(msg.value > mostSent, \"Not enough money sent.\") */\n      tag_27\n      jumpi\n      mload(0x40)\n      0x08c379a000000000000000000000000000000000000000000000000000000000\n      dup2\n      mstore\n      0x04\n      add\n      tag_28\n      swap1\n      tag_29\n      jump\t// in\n    tag_28:\n      mload(0x40)\n      dup1\n      swap2\n      sub\n      swap1\n      revert\n    tag_27:\n        /* \"solidity-study-demo/Fund.sol\":441:450  msg.value */\n      callvalue\n        /* \"solidity-study-demo/Fund.sol\":410:428  pendingWithdrawals */\n      0x02\n        /* \"solidity-study-demo/Fund.sol\":410:437  pendingWithdrawals[richest] */\n      0x00\n        /* \"solidity-study-demo/Fund.sol\":429:436  richest */\n      dup1\n      0x00\n      swap1\n      sload\n      swap1\n      0x0100\n      exp\n      swap1\n      div\n      0xffffffffffffffffffffffffffffffffffffffff\n      and\n        /* \"solidity-study-demo/Fund.sol\":410:437  pendingWithdrawals[richest] */\n      0xffffffffffffffffffffffffffffffffffffffff\n      and\n      0xffffffffffffffffffffffffffffffffffffffff\n      and\n      dup2\n      mstore\n      0x20\n      add\n      swap1\n      dup2\n      mstore\n      0x20\n      add\n      0x00\n      keccak256\n      0x00\n        /* \"solidity-study-demo/Fund.sol\":410:450  pendingWithdrawals[richest] += msg.value */\n      dup3\n      dup3\n      sload\n      tag_30\n      swap2\n      swap1\n      tag_31\n      jump\t// in\n    tag_30:\n      swap3\n      pop\n      pop\n      dup2\n      swap1\n      sstore\n      pop\n        /* \"solidity-study-demo/Fund.sol\":471:481  msg.sender */\n      caller\n        /* \"solidity-study-demo/Fund.sol\":461:468  richest */\n      0x00\n      dup1\n        /* \"solidity-study-demo/Fund.sol\":461:481  richest = msg.sender */\n      0x0100\n      exp\n      dup2\n      sload\n      dup2\n      0xffffffffffffffffffffffffffffffffffffffff\n      mul\n      not\n      and\n      swap1\n      dup4\n      0xffffffffffffffffffffffffffffffffffffffff\n      and\n      mul\n      or\n      swap1\n      sstore\n      pop\n        /* \"solidity-study-demo/Fund.sol\":503:512  msg.value */\n      callvalue\n        /* \"solidity-study-demo/Fund.sol\":492:500  mostSent */\n      0x01\n        /* \"solidity-study-demo/Fund.sol\":492:512  mostSent = msg.value */\n      dup2\n      swap1\n      sstore\n      pop\n        /* \"solidity-study-demo/Fund.sol\":278:520  function becomeRichest() public payable returns (bool) {\r... */\n      swap1\n      jump\t// out\n        /* \"#utility.yul\":7:125   */\n    tag_33:\n        /* \"#utility.yul\":94:118   */\n      tag_35\n        /* \"#utility.yul\":112:117   */\n      dup2\n        /* \"#utility.yul\":94:118   */\n      tag_36\n      jump\t// in\n    tag_35:\n        /* \"#utility.yul\":89:92   */\n      dup3\n        /* \"#utility.yul\":82:119   */\n      mstore\n        /* \"#utility.yul\":7:125   */\n      pop\n      pop\n      jump\t// out\n        /* \"#utility.yul\":131:240   */\n    tag_37:\n        /* \"#utility.yul\":212:233   */\n      tag_39\n        /* \"#utility.yul\":227:232   */\n      dup2\n        /* \"#utility.yul\":212:233   */\n      tag_40\n      jump\t// in\n    tag_39:\n        /* \"#utility.yul\":207:210   */\n      dup3\n        /* \"#utility.yul\":200:234   */\n      mstore\n        /* \"#utility.yul\":131:240   */\n      pop\n      pop\n      jump\t// out\n        /* \"#utility.yul\":246:612   */\n    tag_41:\n        /* \"#utility.yul\":388:391   */\n      0x00\n        /* \"#utility.yul\":409:476   */\n      tag_43\n        /* \"#utility.yul\":473:475   */\n      0x16\n        /* \"#utility.yul\":468:471   */\n      dup4\n        /* \"#utility.yul\":409:476   */\n      tag_44\n      jump\t// in\n    tag_43:\n        /* \"#utility.yul\":402:476   */\n      swap2\n      pop\n        /* \"#utility.yul\":485:578   */\n      tag_45\n        /* \"#utility.yul\":574:577   */\n      dup3\n        /* \"#utility.yul\":485:578   */\n      tag_46\n      jump\t// in\n    tag_45:\n        /* \"#utility.yul\":603:605   */\n      0x20\n        /* \"#utility.yul\":598:601   */\n      dup3\n        /* \"#utility.yul\":594:606   */\n      add\n        /* \"#utility.yul\":587:606   */\n      swap1\n      pop\n        /* \"#utility.yul\":246:612   */\n      swap2\n      swap1\n      pop\n      jump\t// out\n        /* \"#utility.yul\":618:736   */\n    tag_47:\n        /* \"#utility.yul\":705:729   */\n      tag_49\n        /* \"#utility.yul\":723:728   */\n      dup2\n        /* \"#utility.yul\":705:729   */\n      tag_50\n      jump\t// in\n    tag_49:\n        /* \"#utility.yul\":700:703   */\n      dup3\n        /* \"#utility.yul\":693:730   */\n      mstore\n        /* \"#utility.yul\":618:736   */\n      pop\n      pop\n      jump\t// out\n        /* \"#utility.yul\":742:964   */\n    tag_10:\n        /* \"#utility.yul\":835:839   */\n      0x00\n        /* \"#utility.yul\":873:875   */\n      0x20\n        /* \"#utility.yul\":862:871   */\n      dup3\n        /* \"#utility.yul\":858:876   */\n      add\n        /* \"#utility.yul\":850:876   */\n      swap1\n      pop\n        /* \"#utility.yul\":886:957   */\n      tag_52\n        /* \"#utility.yul\":954:955   */\n      0x00\n        /* \"#utility.yul\":943:952   */\n      dup4\n        /* \"#utility.yul\":939:956   */\n      add\n        /* \"#utility.yul\":930:936   */\n      dup5\n        /* \"#utility.yul\":886:957   */\n      tag_33\n      jump\t// in\n    tag_52:\n        /* \"#utility.yul\":742:964   */\n      swap3\n      swap2\n      pop\n      pop\n      jump\t// out\n        /* \"#utility.yul\":970:1180   */\n    tag_22:\n        /* \"#utility.yul\":1057:1061   */\n      0x00\n        /* \"#utility.yul\":1095:1097   */\n      0x20\n        /* \"#utility.yul\":1084:1093   */\n      dup3\n        /* \"#utility.yul\":1080:1098   */\n      add\n        /* \"#utility.yul\":1072:1098   */\n      swap1\n      pop\n        /* \"#utility.yul\":1108:1173   */\n      tag_54\n        /* \"#utility.yul\":1170:1171   */\n      0x00\n        /* \"#utility.yul\":1159:1168   */\n      dup4\n        /* \"#utility.yul\":1155:1172   */\n      add\n        /* \"#utility.yul\":1146:1152   */\n      dup5\n        /* \"#utility.yul\":1108:1173   */\n      tag_37\n      jump\t// in\n    tag_54:\n        /* \"#utility.yul\":970:1180   */\n      swap3\n      swap2\n      pop\n      pop\n      jump\t// out\n        /* \"#utility.yul\":1186:1605   */\n    tag_29:\n        /* \"#utility.yul\":1352:1356   */\n      0x00\n        /* \"#utility.yul\":1390:1392   */\n      0x20\n        /* \"#utility.yul\":1379:1388   */\n      dup3\n        /* \"#utility.yul\":1375:1393   */\n      add\n        /* \"#utility.yul\":1367:1393   */\n      swap1\n      pop\n        /* \"#utility.yul\":1439:1448   */\n      dup2\n        /* \"#utility.yul\":1433:1437   */\n      dup2\n        /* \"#utility.yul\":1429:1449   */\n      sub\n        /* \"#utility.yul\":1425:1426   */\n      0x00\n        /* \"#utility.yul\":1414:1423   */\n      dup4\n        /* \"#utility.yul\":1410:1427   */\n      add\n        /* \"#utility.yul\":1403:1450   */\n      mstore\n        /* \"#utility.yul\":1467:1598   */\n      tag_56\n        /* \"#utility.yul\":1593:1597   */\n      dup2\n        /* \"#utility.yul\":1467:1598   */\n      tag_41\n      jump\t// in\n    tag_56:\n        /* \"#utility.yul\":1459:1598   */\n      swap1\n      pop\n        /* \"#utility.yul\":1186:1605   */\n      swap2\n      swap1\n      pop\n      jump\t// out\n        /* \"#utility.yul\":1611:1833   */\n    tag_18:\n        /* \"#utility.yul\":1704:1708   */\n      0x00\n        /* \"#utility.yul\":1742:1744   */\n      0x20\n        /* \"#utility.yul\":1731:1740   */\n      dup3\n        /* \"#utility.yul\":1727:1745   */\n      add\n        /* \"#utility.yul\":1719:1745   */\n      swap1\n      pop\n        /* \"#utility.yul\":1755:1826   */\n      tag_58\n        /* \"#utility.yul\":1823:1824   */\n      0x00\n        /* \"#utility.yul\":1812:1821   */\n      dup4\n        /* \"#utility.yul\":1808:1825   */\n      add\n        /* \"#utility.yul\":1799:1805   */\n      dup5\n        /* \"#utility.yul\":1755:1826   */\n      tag_47\n      jump\t// in\n    tag_58:\n        /* \"#utility.yul\":1611:1833   */\n      swap3\n      swap2\n      pop\n      pop\n      jump\t// out\n        /* \"#utility.yul\":1839:2008   */\n    tag_44:\n        /* \"#utility.yul\":1923:1934   */\n      0x00\n        /* \"#utility.yul\":1957:1963   */\n      dup3\n        /* \"#utility.yul\":1952:1955   */\n      dup3\n        /* \"#utility.yul\":1945:1964   */\n      mstore\n        /* \"#utility.yul\":1997:2001   */\n      0x20\n        /* \"#utility.yul\":1992:1995   */\n      dup3\n        /* \"#utility.yul\":1988:2002   */\n      add\n        /* \"#utility.yul\":1973:2002   */\n      swap1\n      pop\n        /* \"#utility.yul\":1839:2008   */\n      swap3\n      swap2\n      pop\n      pop\n      jump\t// out\n        /* \"#utility.yul\":2014:2319   */\n    tag_31:\n        /* \"#utility.yul\":2054:2057   */\n      0x00\n        /* \"#utility.yul\":2073:2093   */\n      tag_61\n        /* \"#utility.yul\":2091:2092   */\n      dup3\n        /* \"#utility.yul\":2073:2093   */\n      tag_50\n      jump\t// in\n    tag_61:\n        /* \"#utility.yul\":2068:2093   */\n      swap2\n      pop\n        /* \"#utility.yul\":2107:2127   */\n      tag_62\n        /* \"#utility.yul\":2125:2126   */\n      dup4\n        /* \"#utility.yul\":2107:2127   */\n      tag_50\n      jump\t// in\n    tag_62:\n        /* \"#utility.yul\":2102:2127   */\n      swap3\n      pop\n        /* \"#utility.yul\":2261:2262   */\n      dup3\n        /* \"#utility.yul\":2193:2259   */\n      0xffffffffffffffffffffffffffffffffffffffffffffffffffffffffffffffff\n        /* \"#utility.yul\":2189:2263   */\n      sub\n        /* \"#utility.yul\":2186:2187   */\n      dup3\n        /* \"#utility.yul\":2183:2264   */\n      gt\n        /* \"#utility.yul\":2180:2287   */\n      iszero\n      tag_63\n      jumpi\n        /* \"#utility.yul\":2267:2285   */\n      tag_64\n      tag_65\n      jump\t// in\n    tag_64:\n        /* \"#utility.yul\":2180:2287   */\n    tag_63:\n        /* \"#utility.yul\":2311:2312   */\n      dup3\n        /* \"#utility.yul\":2308:2309   */\n      dup3\n        /* \"#utility.yul\":2304:2313   */\n      add\n        /* \"#utility.yul\":2297:2313   */\n      swap1\n      pop\n        /* \"#utility.yul\":2014:2319   */\n      swap3\n      swap2\n      pop\n      pop\n      jump\t// out\n        /* \"#utility.yul\":2325:2421   */\n    tag_36:\n        /* \"#utility.yul\":2362:2369   */\n      0x00\n        /* \"#utility.yul\":2391:2415   */\n      tag_67\n        /* \"#utility.yul\":2409:2414   */\n      dup3\n        /* \"#utility.yul\":2391:2415   */\n      tag_68\n      jump\t// in\n    tag_67:\n        /* \"#utility.yul\":2380:2415   */\n      swap1\n      pop\n        /* \"#utility.yul\":2325:2421   */\n      swap2\n      swap1\n      pop\n      jump\t// out\n        /* \"#utility.yul\":2427:2517   */\n    tag_40:\n        /* \"#utility.yul\":2461:2468   */\n      0x00\n        /* \"#utility.yul\":2504:2509   */\n      dup2\n        /* \"#utility.yul\":2497:2510   */\n      iszero\n        /* \"#utility.yul\":2490:2511   */\n      iszero\n        /* \"#utility.yul\":2479:2511   */\n      swap1\n      pop\n        /* \"#utility.yul\":2427:2517   */\n      swap2\n      swap1\n      pop\n      jump\t// out\n        /* \"#utility.yul\":2523:2649   */\n    tag_68:\n        /* \"#utility.yul\":2560:2567   */\n      0x00\n        /* \"#utility.yul\":2600:2642   */\n      0xffffffffffffffffffffffffffffffffffffffff\n        /* \"#utility.yul\":2593:2598   */\n      dup3\n        /* \"#utility.yul\":2589:2643   */\n      and\n        /* \"#utility.yul\":2578:2643   */\n      swap1\n      pop\n        /* \"#utility.yul\":2523:2649   */\n      swap2\n      swap1\n      pop\n      jump\t// out\n        /* \"#utility.yul\":2655:2732   */\n    tag_50:\n        /* \"#utility.yul\":2692:2699   */\n      0x00\n        /* \"#utility.yul\":2721:2726   */\n      dup2\n        /* \"#utility.yul\":2710:2726   */\n      swap1\n      pop\n        /* \"#utility.yul\":2655:2732   */\n      swap2\n      swap1\n      pop\n      jump\t// out\n        /* \"#utility.yul\":2738:2918   */\n    tag_65:\n        /* \"#utility.yul\":2786:2863   */\n      0x4e487b7100000000000000000000000000000000000000000000000000000000\n        /* \"#utility.yul\":2783:2784   */\n      0x00\n        /* \"#utility.yul\":2776:2864   */\n      mstore\n        /* \"#utility.yul\":2883:2887   */\n      0x11\n        /* \"#utility.yul\":2880:2881   */\n      0x04\n        /* \"#utility.yul\":2873:2888   */\n      mstore\n        /* \"#utility.yul\":2907:2911   */\n      0x24\n        /* \"#utility.yul\":2904:2905   */\n      0x00\n        /* \"#utility.yul\":2897:2912   */\n      revert\n        /* \"#utility.yul\":2924:3096   */\n    tag_46:\n        /* \"#utility.yul\":3064:3088   */\n      0x4e6f7420656e6f756768206d6f6e65792073656e742e00000000000000000000\n        /* \"#utility.yul\":3060:3061   */\n      0x00\n        /* \"#utility.yul\":3052:3058   */\n      dup3\n        /* \"#utility.yul\":3048:3062   */\n      add\n        /* \"#utility.yul\":3041:3089   */\n      mstore\n        /* \"#utility.yul\":2924:3096   */\n      pop\n      jump\t// out\n\n    auxdata: 0xa26469706673582212205c37be98644bbc4fa27bb8de903d9cf74ad3d7df8b042243748fda85c8c289fd64736f6c63430008070033\n}\n",
				"bytecode": {
					"linkReferences": {},
					"object": "6080604052336000806101000a81548173ffffffffffffffffffffffffffffffffffffffff021916908373ffffffffffffffffffffffffffffffffffffffff160217905550346001819055506104d18061005a6000396000f3fe60806040526004361061003f5760003560e01c806302e26c38146100445780633ccfd60b1461006f5780636886bf1c1461008657806369934ee7146100b1575b600080fd5b34801561005057600080fd5b506100596100cf565b6040516100669190610323565b60405180910390f35b34801561007b57600080fd5b506100846100f3565b005b34801561009257600080fd5b5061009b6101c6565b6040516100a89190610379565b60405180910390f35b6100b96101cc565b6040516100c6919061033e565b60405180910390f35b60008054906101000a900473ffffffffffffffffffffffffffffffffffffffff1681565b6000600260003373ffffffffffffffffffffffffffffffffffffffff1673ffffffffffffffffffffffffffffffffffffffff1681526020019081526020016000205490506000600260003373ffffffffffffffffffffffffffffffffffffffff1673ffffffffffffffffffffffffffffffffffffffff168152602001908152602001600020819055503373ffffffffffffffffffffffffffffffffffffffff166108fc829081150290604051600060405180830381858888f193505050501580156101c2573d6000803e3d6000fd5b5050565b60015481565b60006001543411610212576040517f08c379a000000000000000000000000000000000000000000000000000000000815260040161020990610359565b60405180910390fd5b34600260008060009054906101000a900473ffffffffffffffffffffffffffffffffffffffff1673ffffffffffffffffffffffffffffffffffffffff1673ffffffffffffffffffffffffffffffffffffffff168152602001908152602001600020600082825461028291906103a5565b92505081905550336000806101000a81548173ffffffffffffffffffffffffffffffffffffffff021916908373ffffffffffffffffffffffffffffffffffffffff1602179055503460018190555090565b6102dc816103fb565b82525050565b6102eb8161040d565b82525050565b60006102fe601683610394565b915061030982610472565b602082019050919050565b61031d81610439565b82525050565b600060208201905061033860008301846102d3565b92915050565b600060208201905061035360008301846102e2565b92915050565b60006020820190508181036000830152610372816102f1565b9050919050565b600060208201905061038e6000830184610314565b92915050565b600082825260208201905092915050565b60006103b082610439565b91506103bb83610439565b9250827fffffffffffffffffffffffffffffffffffffffffffffffffffffffffffffffff038211156103f0576103ef610443565b5b828201905092915050565b600061040682610419565b9050919050565b60008115159050919050565b600073ffffffffffffffffffffffffffffffffffffffff82169050919050565b6000819050919050565b7f4e487b7100000000000000000000000000000000000000000000000000000000600052601160045260246000fd5b7f4e6f7420656e6f756768206d6f6e65792073656e742e0000000000000000000060008201525056fea26469706673582212205c37be98644bbc4fa27bb8de903d9cf74ad3d7df8b042243748fda85c8c289fd64736f6c63430008070033",
					"opcodes": "PUSH1 0x80 PUSH1 0x40 MSTORE CALLER PUSH1 0x0 DUP1 PUSH2 0x100 EXP DUP2 SLOAD DUP2 PUSH20 0xFFFFFFFFFFFFFFFFFFFFFFFFFFFFFFFFFFFFFFFF MUL NOT AND SWAP1 DUP4 PUSH20 0xFFFFFFFFFFFFFFFFFFFFFFFFFFFFFFFFFFFFFFFF AND MUL OR SWAP1 SSTORE POP CALLVALUE PUSH1 0x1 DUP2 SWAP1 SSTORE POP PUSH2 0x4D1 DUP1 PUSH2 0x5A PUSH1 0x0 CODECOPY PUSH1 0x0 RETURN INVALID PUSH1 0x80 PUSH1 0x40 MSTORE PUSH1 0x4 CALLDATASIZE LT PUSH2 0x3F JUMPI PUSH1 0x0 CALLDATALOAD PUSH1 0xE0 SHR DUP1 PUSH4 0x2E26C38 EQ PUSH2 0x44 JUMPI DUP1 PUSH4 0x3CCFD60B EQ PUSH2 0x6F JUMPI DUP1 PUSH4 0x6886BF1C EQ PUSH2 0x86 JUMPI DUP1 PUSH4 0x69934EE7 EQ PUSH2 0xB1 JUMPI JUMPDEST PUSH1 0x0 DUP1 REVERT JUMPDEST CALLVALUE DUP1 ISZERO PUSH2 0x50 JUMPI PUSH1 0x0 DUP1 REVERT JUMPDEST POP PUSH2 0x59 PUSH2 0xCF JUMP JUMPDEST PUSH1 0x40 MLOAD PUSH2 0x66 SWAP2 SWAP1 PUSH2 0x323 JUMP JUMPDEST PUSH1 0x40 MLOAD DUP1 SWAP2 SUB SWAP1 RETURN JUMPDEST CALLVALUE DUP1 ISZERO PUSH2 0x7B JUMPI PUSH1 0x0 DUP1 REVERT JUMPDEST POP PUSH2 0x84 PUSH2 0xF3 JUMP JUMPDEST STOP JUMPDEST CALLVALUE DUP1 ISZERO PUSH2 0x92 JUMPI PUSH1 0x0 DUP1 REVERT JUMPDEST POP PUSH2 0x9B PUSH2 0x1C6 JUMP JUMPDEST PUSH1 0x40 MLOAD PUSH2 0xA8 SWAP2 SWAP1 PUSH2 0x379 JUMP JUMPDEST PUSH1 0x40 MLOAD DUP1 SWAP2 SUB SWAP1 RETURN JUMPDEST PUSH2 0xB9 PUSH2 0x1CC JUMP JUMPDEST PUSH1 0x40 MLOAD PUSH2 0xC6 SWAP2 SWAP1 PUSH2 0x33E JUMP JUMPDEST PUSH1 0x40 MLOAD DUP1 SWAP2 SUB SWAP1 RETURN JUMPDEST PUSH1 0x0 DUP1 SLOAD SWAP1 PUSH2 0x100 EXP SWAP1 DIV PUSH20 0xFFFFFFFFFFFFFFFFFFFFFFFFFFFFFFFFFFFFFFFF AND DUP2 JUMP JUMPDEST PUSH1 0x0 PUSH1 0x2 PUSH1 0x0 CALLER PUSH20 0xFFFFFFFFFFFFFFFFFFFFFFFFFFFFFFFFFFFFFFFF AND PUSH20 0xFFFFFFFFFFFFFFFFFFFFFFFFFFFFFFFFFFFFFFFF AND DUP2 MSTORE PUSH1 0x20 ADD SWAP1 DUP2 MSTORE PUSH1 0x20 ADD PUSH1 0x0 KECCAK256 SLOAD SWAP1 POP PUSH1 0x0 PUSH1 0x2 PUSH1 0x0 CALLER PUSH20 0xFFFFFFFFFFFFFFFFFFFFFFFFFFFFFFFFFFFFFFFF AND PUSH20 0xFFFFFFFFFFFFFFFFFFFFFFFFFFFFFFFFFFFFFFFF AND DUP2 MSTORE PUSH1 0x20 ADD SWAP1 DUP2 MSTORE PUSH1 0x20 ADD PUSH1 0x0 KECCAK256 DUP2 SWAP1 SSTORE POP CALLER PUSH20 0xFFFFFFFFFFFFFFFFFFFFFFFFFFFFFFFFFFFFFFFF AND PUSH2 0x8FC DUP3 SWAP1 DUP2 ISZERO MUL SWAP1 PUSH1 0x40 MLOAD PUSH1 0x0 PUSH1 0x40 MLOAD DUP1 DUP4 SUB DUP2 DUP6 DUP9 DUP9 CALL SWAP4 POP POP POP POP ISZERO DUP1 ISZERO PUSH2 0x1C2 JUMPI RETURNDATASIZE PUSH1 0x0 DUP1 RETURNDATACOPY RETURNDATASIZE PUSH1 0x0 REVERT JUMPDEST POP POP JUMP JUMPDEST PUSH1 0x1 SLOAD DUP2 JUMP JUMPDEST PUSH1 0x0 PUSH1 0x1 SLOAD CALLVALUE GT PUSH2 0x212 JUMPI PUSH1 0x40 MLOAD PUSH32 0x8C379A000000000000000000000000000000000000000000000000000000000 DUP2 MSTORE PUSH1 0x4 ADD PUSH2 0x209 SWAP1 PUSH2 0x359 JUMP JUMPDEST PUSH1 0x40 MLOAD DUP1 SWAP2 SUB SWAP1 REVERT JUMPDEST CALLVALUE PUSH1 0x2 PUSH1 0x0 DUP1 PUSH1 0x0 SWAP1 SLOAD SWAP1 PUSH2 0x100 EXP SWAP1 DIV PUSH20 0xFFFFFFFFFFFFFFFFFFFFFFFFFFFFFFFFFFFFFFFF AND PUSH20 0xFFFFFFFFFFFFFFFFFFFFFFFFFFFFFFFFFFFFFFFF AND PUSH20 0xFFFFFFFFFFFFFFFFFFFFFFFFFFFFFFFFFFFFFFFF AND DUP2 MSTORE PUSH1 0x20 ADD SWAP1 DUP2 MSTORE PUSH1 0x20 ADD PUSH1 0x0 KECCAK256 PUSH1 0x0 DUP3 DUP3 SLOAD PUSH2 0x282 SWAP2 SWAP1 PUSH2 0x3A5 JUMP JUMPDEST SWAP3 POP POP DUP2 SWAP1 SSTORE POP CALLER PUSH1 0x0 DUP1 PUSH2 0x100 EXP DUP2 SLOAD DUP2 PUSH20 0xFFFFFFFFFFFFFFFFFFFFFFFFFFFFFFFFFFFFFFFF MUL NOT AND SWAP1 DUP4 PUSH20 0xFFFFFFFFFFFFFFFFFFFFFFFFFFFFFFFFFFFFFFFF AND MUL OR SWAP1 SSTORE POP CALLVALUE PUSH1 0x1 DUP2 SWAP1 SSTORE POP SWAP1 JUMP JUMPDEST PUSH2 0x2DC DUP2 PUSH2 0x3FB JUMP JUMPDEST DUP3 MSTORE POP POP JUMP JUMPDEST PUSH2 0x2EB DUP2 PUSH2 0x40D JUMP JUMPDEST DUP3 MSTORE POP POP JUMP JUMPDEST PUSH1 0x0 PUSH2 0x2FE PUSH1 0x16 DUP4 PUSH2 0x394 JUMP JUMPDEST SWAP2 POP PUSH2 0x309 DUP3 PUSH2 0x472 JUMP JUMPDEST PUSH1 0x20 DUP3 ADD SWAP1 POP SWAP2 SWAP1 POP JUMP JUMPDEST PUSH2 0x31D DUP2 PUSH2 0x439 JUMP JUMPDEST DUP3 MSTORE POP POP JUMP JUMPDEST PUSH1 0x0 PUSH1 0x20 DUP3 ADD SWAP1 POP PUSH2 0x338 PUSH1 0x0 DUP4 ADD DUP5 PUSH2 0x2D3 JUMP JUMPDEST SWAP3 SWAP2 POP POP JUMP JUMPDEST PUSH1 0x0 PUSH1 0x20 DUP3 ADD SWAP1 POP PUSH2 0x353 PUSH1 0x0 DUP4 ADD DUP5 PUSH2 0x2E2 JUMP JUMPDEST SWAP3 SWAP2 POP POP JUMP JUMPDEST PUSH1 0x0 PUSH1 0x20 DUP3 ADD SWAP1 POP DUP2 DUP2 SUB PUSH1 0x0 DUP4 ADD MSTORE PUSH2 0x372 DUP2 PUSH2 0x2F1 JUMP JUMPDEST SWAP1 POP SWAP2 SWAP1 POP JUMP JUMPDEST PUSH1 0x0 PUSH1 0x20 DUP3 ADD SWAP1 POP PUSH2 0x38E PUSH1 0x0 DUP4 ADD DUP5 PUSH2 0x314 JUMP JUMPDEST SWAP3 SWAP2 POP POP JUMP JUMPDEST PUSH1 0x0 DUP3 DUP3 MSTORE PUSH1 0x20 DUP3 ADD SWAP1 POP SWAP3 SWAP2 POP POP JUMP JUMPDEST PUSH1 0x0 PUSH2 0x3B0 DUP3 PUSH2 0x439 JUMP JUMPDEST SWAP2 POP PUSH2 0x3BB DUP4 PUSH2 0x439 JUMP JUMPDEST SWAP3 POP DUP3 PUSH32 0xFFFFFFFFFFFFFFFFFFFFFFFFFFFFFFFFFFFFFFFFFFFFFFFFFFFFFFFFFFFFFFFF SUB DUP3 GT ISZERO PUSH2 0x3F0 JUMPI PUSH2 0x3EF PUSH2 0x443 JUMP JUMPDEST JUMPDEST DUP3 DUP3 ADD SWAP1 POP SWAP3 SWAP2 POP POP JUMP JUMPDEST PUSH1 0x0 PUSH2 0x406 DUP3 PUSH2 0x419 JUMP JUMPDEST SWAP1 POP SWAP2 SWAP1 POP JUMP JUMPDEST PUSH1 0x0 DUP2 ISZERO ISZERO SWAP1 POP SWAP2 SWAP1 POP JUMP JUMPDEST PUSH1 0x0 PUSH20 0xFFFFFFFFFFFFFFFFFFFFFFFFFFFFFFFFFFFFFFFF DUP3 AND SWAP1 POP SWAP2 SWAP1 POP JUMP JUMPDEST PUSH1 0x0 DUP2 SWAP1 POP SWAP2 SWAP1 POP JUMP JUMPDEST PUSH32 0x4E487B7100000000000000000000000000000000000000000000000000000000 PUSH1 0x0 MSTORE PUSH1 0x11 PUSH1 0x4 MSTORE PUSH1 0x24 PUSH1 0x0 REVERT JUMPDEST PUSH32 0x4E6F7420656E6F756768206D6F6E65792073656E742E00000000000000000000 PUSH1 0x0 DUP3 ADD MSTORE POP JUMP INVALID LOG2 PUSH5 0x6970667358 0x22 SLT KECCAK256 0x5C CALLDATACOPY 0xBE SWAP9 PUSH5 0x4BBC4FA27B 0xB8 0xDE SWAP1 RETURNDATASIZE SWAP13 0xF7 0x4A 0xD3 0xD7 0xDF DUP12 DIV 0x22 NUMBER PUSH21 0x8FDA85C8C289FD64736F6C63430008070033000000 "
				},
				"gasEstimates": {
					"creation": {
						"codeDepositCost": "246600",
						"executionCost": "46642",
						"totalCost": "293242"
					},
					"external": {
						"becomeRichest()": "infinite",
						"mostSent()": "2451",
						"richest()": "2489",
						"withdraw()": "infinite"
					}
				},
				"methodIdentifiers": {
					"becomeRichest()": "69934ee7",
					"mostSent()": "6886bf1c",
					"richest()": "02e26c38",
					"withdraw()": "3ccfd60b"
				}
			},
			"storageLayout": {
				"storage": [
					{
						"astId": 3,
						"contract": "solidity-study-demo/Fund.sol:WithdrawContract",
						"label": "richest",
						"offset": 0,
						"slot": "0",
						"type": "t_address"
					},
					{
						"astId": 5,
						"contract": "solidity-study-demo/Fund.sol:WithdrawContract",
						"label": "mostSent",
						"offset": 0,
						"slot": "1",
						"type": "t_uint256"
					},
					{
						"astId": 9,
						"contract": "solidity-study-demo/Fund.sol:WithdrawContract",
						"label": "pendingWithdrawals",
						"offset": 0,
						"slot": "2",
						"type": "t_mapping(t_address,t_uint256)"
					}
				],
				"types": {
					"t_address": {
						"encoding": "inplace",
						"label": "address",
						"numberOfBytes": "20"
					},
					"t_mapping(t_address,t_uint256)": {
						"encoding": "mapping",
						"key": "t_address",
						"label": "mapping(address => uint256)",
						"numberOfBytes": "32",
						"value": "t_uint256"
					},
					"t_uint256": {
						"encoding": "inplace",
						"label": "uint256",
						"numberOfBytes": "32"
					}
				}
			},
			"userdoc": {
				"kind": "user",
				"methods": {},
				"version": 1
			}
		}
	}
}