{
	"data": {
		"bytecode": {
			"linkReferences": {},
			"object": "608060405234801561001057600080fd5b50610a84806100206000396000f3fe608060405234801561001057600080fd5b50600436106100365760003560e01c80639cf38f7c1461003b578063cf6c62ea14610057575b600080fd5b61005560048036038101906100509190610601565b610073565b005b610071600480360381019061006c9190610677565b6102c3565b005b6000735c69bee701ef814a2b6a3edd4b1652cb9cc5aa6f73ffffffffffffffffffffffffffffffffffffffff1663e6a4390584846040518363ffffffff1660e01b81526004016100c49291906106ed565b602060405180830381865afa1580156100e1573d6000803e3d6000fd5b505050506040513d601f19601f82011682018060405250810190610105919061072b565b905060008173ffffffffffffffffffffffffffffffffffffffff166370a08231306040518263ffffffff1660e01b81526004016101429190610758565b602060405180830381865afa15801561015f573d6000803e3d6000fd5b505050506040513d601f19601f820116820180604052508101906101839190610788565b90508173ffffffffffffffffffffffffffffffffffffffff1663095ea7b3737a250d5630b4cf539739df2c5dacb4c659f2488d836040518363ffffffff1660e01b81526004016101d49291906107c4565b6020604051808303816000875af11580156101f3573d6000803e3d6000fd5b505050506040513d601f19601f820116820180604052508101906102179190610825565b50600080737a250d5630b4cf539739df2c5dacb4c659f2488d73ffffffffffffffffffffffffffffffffffffffff1663baa2abde87878660018030426040518863ffffffff1660e01b81526004016102759796959493929190610897565b60408051808303816000875af1158015610293573d6000803e3d6000fd5b505050506040513d601f19601f820116820180604052508101906102b79190610906565b91509150505050505050565b8373ffffffffffffffffffffffffffffffffffffffff166323b872dd3330856040518463ffffffff1660e01b815260040161030093929190610946565b6020604051808303816000875af115801561031f573d6000803e3d6000fd5b505050506040513d601f19601f820116820180604052508101906103439190610825565b508273ffffffffffffffffffffffffffffffffffffffff166323b872dd3330846040518463ffffffff1660e01b815260040161038193929190610946565b6020604051808303816000875af11580156103a0573d6000803e3d6000fd5b505050506040513d601f19601f820116820180604052508101906103c49190610825565b508373ffffffffffffffffffffffffffffffffffffffff1663095ea7b3737a250d5630b4cf539739df2c5dacb4c659f2488d846040518363ffffffff1660e01b81526004016104149291906107c4565b6020604051808303816000875af1158015610433573d6000803e3d6000fd5b505050506040513d601f19601f820116820180604052508101906104579190610825565b508273ffffffffffffffffffffffffffffffffffffffff1663095ea7b3737a250d5630b4cf539739df2c5dacb4c659f2488d836040518363ffffffff1660e01b81526004016104a79291906107c4565b6020604051808303816000875af11580156104c6573d6000803e3d6000fd5b505050506040513d601f19601f820116820180604052508101906104ea9190610825565b506000806000737a250d5630b4cf539739df2c5dacb4c659f2488d73ffffffffffffffffffffffffffffffffffffffff1663e8e337008888888860018030426040518963ffffffff1660e01b815260040161054c98979695949392919061097d565b6060604051808303816000875af115801561056b573d6000803e3d6000fd5b505050506040513d601f19601f8201168201806040525081019061058f91906109fb565b92509250925050505050505050565b600080fd5b600073ffffffffffffffffffffffffffffffffffffffff82169050919050565b60006105ce826105a3565b9050919050565b6105de816105c3565b81146105e957600080fd5b50565b6000813590506105fb816105d5565b92915050565b600080604083850312156106185761061761059e565b5b6000610626858286016105ec565b9250506020610637858286016105ec565b9150509250929050565b6000819050919050565b61065481610641565b811461065f57600080fd5b50565b6000813590506106718161064b565b92915050565b600080600080608085870312156106915761069061059e565b5b600061069f878288016105ec565b94505060206106b0878288016105ec565b93505060406106c187828801610662565b92505060606106d287828801610662565b91505092959194509250565b6106e7816105c3565b82525050565b600060408201905061070260008301856106de565b61070f60208301846106de565b9392505050565b600081519050610725816105d5565b92915050565b6000602082840312156107415761074061059e565b5b600061074f84828501610716565b91505092915050565b600060208201905061076d60008301846106de565b92915050565b6000815190506107828161064b565b92915050565b60006020828403121561079e5761079d61059e565b5b60006107ac84828501610773565b91505092915050565b6107be81610641565b82525050565b60006040820190506107d960008301856106de565b6107e660208301846107b5565b9392505050565b60008115159050919050565b610802816107ed565b811461080d57600080fd5b50565b60008151905061081f816107f9565b92915050565b60006020828403121561083b5761083a61059e565b5b600061084984828501610810565b91505092915050565b6000819050919050565b6000819050919050565b600061088161087c61087784610852565b61085c565b610641565b9050919050565b61089181610866565b82525050565b600060e0820190506108ac600083018a6106de565b6108b960208301896106de565b6108c660408301886107b5565b6108d36060830187610888565b6108e06080830186610888565b6108ed60a08301856106de565b6108fa60c08301846107b5565b98975050505050505050565b6000806040838503121561091d5761091c61059e565b5b600061092b85828601610773565b925050602061093c85828601610773565b9150509250929050565b600060608201905061095b60008301866106de565b61096860208301856106de565b61097560408301846107b5565b949350505050565b600061010082019050610993600083018b6106de565b6109a0602083018a6106de565b6109ad60408301896107b5565b6109ba60608301886107b5565b6109c76080830187610888565b6109d460a0830186610888565b6109e160c08301856106de565b6109ee60e08301846107b5565b9998505050505050505050565b600080600060608486031215610a1457610a1361059e565b5b6000610a2286828701610773565b9350506020610a3386828701610773565b9250506040610a4486828701610773565b915050925092509256fea26469706673582212206ea666a731136dc8d9db378de97c4f01cc8a910e359f2ef5d785394ea16d6ee564736f6c634300080e0033",
			"opcodes": "PUSH1 0x80 PUSH1 0x40 MSTORE CALLVALUE DUP1 ISZERO PUSH2 0x10 JUMPI PUSH1 0x0 DUP1 REVERT JUMPDEST POP PUSH2 0xA84 DUP1 PUSH2 0x20 PUSH1 0x0 CODECOPY PUSH1 0x0 RETURN INVALID PUSH1 0x80 PUSH1 0x40 MSTORE CALLVALUE DUP1 ISZERO PUSH2 0x10 JUMPI PUSH1 0x0 DUP1 REVERT JUMPDEST POP PUSH1 0x4 CALLDATASIZE LT PUSH2 0x36 JUMPI PUSH1 0x0 CALLDATALOAD PUSH1 0xE0 SHR DUP1 PUSH4 0x9CF38F7C EQ PUSH2 0x3B JUMPI DUP1 PUSH4 0xCF6C62EA EQ PUSH2 0x57 JUMPI JUMPDEST PUSH1 0x0 DUP1 REVERT JUMPDEST PUSH2 0x55 PUSH1 0x4 DUP1 CALLDATASIZE SUB DUP2 ADD SWAP1 PUSH2 0x50 SWAP2 SWAP1 PUSH2 0x601 JUMP JUMPDEST PUSH2 0x73 JUMP JUMPDEST STOP JUMPDEST PUSH2 0x71 PUSH1 0x4 DUP1 CALLDATASIZE SUB DUP2 ADD SWAP1 PUSH2 0x6C SWAP2 SWAP1 PUSH2 0x677 JUMP JUMPDEST PUSH2 0x2C3 JUMP JUMPDEST STOP JUMPDEST PUSH1 0x0 PUSH20 0x5C69BEE701EF814A2B6A3EDD4B1652CB9CC5AA6F PUSH20 0xFFFFFFFFFFFFFFFFFFFFFFFFFFFFFFFFFFFFFFFF AND PUSH4 0xE6A43905 DUP5 DUP5 PUSH1 0x40 MLOAD DUP4 PUSH4 0xFFFFFFFF AND PUSH1 0xE0 SHL DUP2 MSTORE PUSH1 0x4 ADD PUSH2 0xC4 SWAP3 SWAP2 SWAP1 PUSH2 0x6ED JUMP JUMPDEST PUSH1 0x20 PUSH1 0x40 MLOAD DUP1 DUP4 SUB DUP2 DUP7 GAS STATICCALL ISZERO DUP1 ISZERO PUSH2 0xE1 JUMPI RETURNDATASIZE PUSH1 0x0 DUP1 RETURNDATACOPY RETURNDATASIZE PUSH1 0x0 REVERT JUMPDEST POP POP POP POP PUSH1 0x40 MLOAD RETURNDATASIZE PUSH1 0x1F NOT PUSH1 0x1F DUP3 ADD AND DUP3 ADD DUP1 PUSH1 0x40 MSTORE POP DUP2 ADD SWAP1 PUSH2 0x105 SWAP2 SWAP1 PUSH2 0x72B JUMP JUMPDEST SWAP1 POP PUSH1 0x0 DUP2 PUSH20 0xFFFFFFFFFFFFFFFFFFFFFFFFFFFFFFFFFFFFFFFF AND PUSH4 0x70A08231 ADDRESS PUSH1 0x40 MLOAD DUP3 PUSH4 0xFFFFFFFF AND PUSH1 0xE0 SHL DUP2 MSTORE PUSH1 0x4 ADD PUSH2 0x142 SWAP2 SWAP1 PUSH2 0x758 JUMP JUMPDEST PUSH1 0x20 PUSH1 0x40 MLOAD DUP1 DUP4 SUB DUP2 DUP7 GAS STATICCALL ISZERO DUP1 ISZERO PUSH2 0x15F JUMPI RETURNDATASIZE PUSH1 0x0 DUP1 RETURNDATACOPY RETURNDATASIZE PUSH1 0x0 REVERT JUMPDEST POP POP POP POP PUSH1 0x40 MLOAD RETURNDATASIZE PUSH1 0x1F NOT PUSH1 0x1F DUP3 ADD AND DUP3 ADD DUP1 PUSH1 0x40 MSTORE POP DUP2 ADD SWAP1 PUSH2 0x183 SWAP2 SWAP1 PUSH2 0x788 JUMP JUMPDEST SWAP1 POP DUP2 PUSH20 0xFFFFFFFFFFFFFFFFFFFFFFFFFFFFFFFFFFFFFFFF AND PUSH4 0x95EA7B3 PUSH20 0x7A250D5630B4CF539739DF2C5DACB4C659F2488D DUP4 PUSH1 0x40 MLOAD DUP4 PUSH4 0xFFFFFFFF AND PUSH1 0xE0 SHL DUP2 MSTORE PUSH1 0x4 ADD PUSH2 0x1D4 SWAP3 SWAP2 SWAP1 PUSH2 0x7C4 JUMP JUMPDEST PUSH1 0x20 PUSH1 0x40 MLOAD DUP1 DUP4 SUB DUP2 PUSH1 0x0 DUP8 GAS CALL ISZERO DUP1 ISZERO PUSH2 0x1F3 JUMPI RETURNDATASIZE PUSH1 0x0 DUP1 RETURNDATACOPY RETURNDATASIZE PUSH1 0x0 REVERT JUMPDEST POP POP POP POP PUSH1 0x40 MLOAD RETURNDATASIZE PUSH1 0x1F NOT PUSH1 0x1F DUP3 ADD AND DUP3 ADD DUP1 PUSH1 0x40 MSTORE POP DUP2 ADD SWAP1 PUSH2 0x217 SWAP2 SWAP1 PUSH2 0x825 JUMP JUMPDEST POP PUSH1 0x0 DUP1 PUSH20 0x7A250D5630B4CF539739DF2C5DACB4C659F2488D PUSH20 0xFFFFFFFFFFFFFFFFFFFFFFFFFFFFFFFFFFFFFFFF AND PUSH4 0xBAA2ABDE DUP8 DUP8 DUP7 PUSH1 0x1 DUP1 ADDRESS TIMESTAMP PUSH1 0x40 MLOAD DUP9 PUSH4 0xFFFFFFFF AND PUSH1 0xE0 SHL DUP2 MSTORE PUSH1 0x4 ADD PUSH2 0x275 SWAP8 SWAP7 SWAP6 SWAP5 SWAP4 SWAP3 SWAP2 SWAP1 PUSH2 0x897 JUMP JUMPDEST PUSH1 0x40 DUP1 MLOAD DUP1 DUP4 SUB DUP2 PUSH1 0x0 DUP8 GAS CALL ISZERO DUP1 ISZERO PUSH2 0x293 JUMPI RETURNDATASIZE PUSH1 0x0 DUP1 RETURNDATACOPY RETURNDATASIZE PUSH1 0x0 REVERT JUMPDEST POP POP POP POP PUSH1 0x40 MLOAD RETURNDATASIZE PUSH1 0x1F NOT PUSH1 0x1F DUP3 ADD AND DUP3 ADD DUP1 PUSH1 0x40 MSTORE POP DUP2 ADD SWAP1 PUSH2 0x2B7 SWAP2 SWAP1 PUSH2 0x906 JUMP JUMPDEST SWAP2 POP SWAP2 POP POP POP POP POP POP POP JUMP JUMPDEST DUP4 PUSH20 0xFFFFFFFFFFFFFFFFFFFFFFFFFFFFFFFFFFFFFFFF AND PUSH4 0x23B872DD CALLER ADDRESS DUP6 PUSH1 0x40 MLOAD DUP5 PUSH4 0xFFFFFFFF AND PUSH1 0xE0 SHL DUP2 MSTORE PUSH1 0x4 ADD PUSH2 0x300 SWAP4 SWAP3 SWAP2 SWAP1 PUSH2 0x946 JUMP JUMPDEST PUSH1 0x20 PUSH1 0x40 MLOAD DUP1 DUP4 SUB DUP2 PUSH1 0x0 DUP8 GAS CALL ISZERO DUP1 ISZERO PUSH2 0x31F JUMPI RETURNDATASIZE PUSH1 0x0 DUP1 RETURNDATACOPY RETURNDATASIZE PUSH1 0x0 REVERT JUMPDEST POP POP POP POP PUSH1 0x40 MLOAD RETURNDATASIZE PUSH1 0x1F NOT PUSH1 0x1F DUP3 ADD AND DUP3 ADD DUP1 PUSH1 0x40 MSTORE POP DUP2 ADD SWAP1 PUSH2 0x343 SWAP2 SWAP1 PUSH2 0x825 JUMP JUMPDEST POP DUP3 PUSH20 0xFFFFFFFFFFFFFFFFFFFFFFFFFFFFFFFFFFFFFFFF AND PUSH4 0x23B872DD CALLER ADDRESS DUP5 PUSH1 0x40 MLOAD DUP5 PUSH4 0xFFFFFFFF AND PUSH1 0xE0 SHL DUP2 MSTORE PUSH1 0x4 ADD PUSH2 0x381 SWAP4 SWAP3 SWAP2 SWAP1 PUSH2 0x946 JUMP JUMPDEST PUSH1 0x20 PUSH1 0x40 MLOAD DUP1 DUP4 SUB DUP2 PUSH1 0x0 DUP8 GAS CALL ISZERO DUP1 ISZERO PUSH2 0x3A0 JUMPI RETURNDATASIZE PUSH1 0x0 DUP1 RETURNDATACOPY RETURNDATASIZE PUSH1 0x0 REVERT JUMPDEST POP POP POP POP PUSH1 0x40 MLOAD RETURNDATASIZE PUSH1 0x1F NOT PUSH1 0x1F DUP3 ADD AND DUP3 ADD DUP1 PUSH1 0x40 MSTORE POP DUP2 ADD SWAP1 PUSH2 0x3C4 SWAP2 SWAP1 PUSH2 0x825 JUMP JUMPDEST POP DUP4 PUSH20 0xFFFFFFFFFFFFFFFFFFFFFFFFFFFFFFFFFFFFFFFF AND PUSH4 0x95EA7B3 PUSH20 0x7A250D5630B4CF539739DF2C5DACB4C659F2488D DUP5 PUSH1 0x40 MLOAD DUP4 PUSH4 0xFFFFFFFF AND PUSH1 0xE0 SHL DUP2 MSTORE PUSH1 0x4 ADD PUSH2 0x414 SWAP3 SWAP2 SWAP1 PUSH2 0x7C4 JUMP JUMPDEST PUSH1 0x20 PUSH1 0x40 MLOAD DUP1 DUP4 SUB DUP2 PUSH1 0x0 DUP8 GAS CALL ISZERO DUP1 ISZERO PUSH2 0x433 JUMPI RETURNDATASIZE PUSH1 0x0 DUP1 RETURNDATACOPY RETURNDATASIZE PUSH1 0x0 REVERT JUMPDEST POP POP POP POP PUSH1 0x40 MLOAD RETURNDATASIZE PUSH1 0x1F NOT PUSH1 0x1F DUP3 ADD AND DUP3 ADD DUP1 PUSH1 0x40 MSTORE POP DUP2 ADD SWAP1 PUSH2 0x457 SWAP2 SWAP1 PUSH2 0x825 JUMP JUMPDEST POP DUP3 PUSH20 0xFFFFFFFFFFFFFFFFFFFFFFFFFFFFFFFFFFFFFFFF AND PUSH4 0x95EA7B3 PUSH20 0x7A250D5630B4CF539739DF2C5DACB4C659F2488D DUP4 PUSH1 0x40 MLOAD DUP4 PUSH4 0xFFFFFFFF AND PUSH1 0xE0 SHL DUP2 MSTORE PUSH1 0x4 ADD PUSH2 0x4A7 SWAP3 SWAP2 SWAP1 PUSH2 0x7C4 JUMP JUMPDEST PUSH1 0x20 PUSH1 0x40 MLOAD DUP1 DUP4 SUB DUP2 PUSH1 0x0 DUP8 GAS CALL ISZERO DUP1 ISZERO PUSH2 0x4C6 JUMPI RETURNDATASIZE PUSH1 0x0 DUP1 RETURNDATACOPY RETURNDATASIZE PUSH1 0x0 REVERT JUMPDEST POP POP POP POP PUSH1 0x40 MLOAD RETURNDATASIZE PUSH1 0x1F NOT PUSH1 0x1F DUP3 ADD AND DUP3 ADD DUP1 PUSH1 0x40 MSTORE POP DUP2 ADD SWAP1 PUSH2 0x4EA SWAP2 SWAP1 PUSH2 0x825 JUMP JUMPDEST POP PUSH1 0x0 DUP1 PUSH1 0x0 PUSH20 0x7A250D5630B4CF539739DF2C5DACB4C659F2488D PUSH20 0xFFFFFFFFFFFFFFFFFFFFFFFFFFFFFFFFFFFFFFFF AND PUSH4 0xE8E33700 DUP9 DUP9 DUP9 DUP9 PUSH1 0x1 DUP1 ADDRESS TIMESTAMP PUSH1 0x40 MLOAD DUP10 PUSH4 0xFFFFFFFF AND PUSH1 0xE0 SHL DUP2 MSTORE PUSH1 0x4 ADD PUSH2 0x54C SWAP9 SWAP8 SWAP7 SWAP6 SWAP5 SWAP4 SWAP3 SWAP2 SWAP1 PUSH2 0x97D JUMP JUMPDEST PUSH1 0x60 PUSH1 0x40 MLOAD DUP1 DUP4 SUB DUP2 PUSH1 0x0 DUP8 GAS CALL ISZERO DUP1 ISZERO PUSH2 0x56B JUMPI RETURNDATASIZE PUSH1 0x0 DUP1 RETURNDATACOPY RETURNDATASIZE PUSH1 0x0 REVERT JUMPDEST POP POP POP POP PUSH1 0x40 MLOAD RETURNDATASIZE PUSH1 0x1F NOT PUSH1 0x1F DUP3 ADD AND DUP3 ADD DUP1 PUSH1 0x40 MSTORE POP DUP2 ADD SWAP1 PUSH2 0x58F SWAP2 SWAP1 PUSH2 0x9FB JUMP JUMPDEST SWAP3 POP SWAP3 POP SWAP3 POP POP POP POP POP POP POP POP JUMP JUMPDEST PUSH1 0x0 DUP1 REVERT JUMPDEST PUSH1 0x0 PUSH20 0xFFFFFFFFFFFFFFFFFFFFFFFFFFFFFFFFFFFFFFFF DUP3 AND SWAP1 POP SWAP2 SWAP1 POP JUMP JUMPDEST PUSH1 0x0 PUSH2 0x5CE DUP3 PUSH2 0x5A3 JUMP JUMPDEST SWAP1 POP SWAP2 SWAP1 POP JUMP JUMPDEST PUSH2 0x5DE DUP2 PUSH2 0x5C3 JUMP JUMPDEST DUP2 EQ PUSH2 0x5E9 JUMPI PUSH1 0x0 DUP1 REVERT JUMPDEST POP JUMP JUMPDEST PUSH1 0x0 DUP2 CALLDATALOAD SWAP1 POP PUSH2 0x5FB DUP2 PUSH2 0x5D5 JUMP JUMPDEST SWAP3 SWAP2 POP POP JUMP JUMPDEST PUSH1 0x0 DUP1 PUSH1 0x40 DUP4 DUP6 SUB SLT ISZERO PUSH2 0x618 JUMPI PUSH2 0x617 PUSH2 0x59E JUMP JUMPDEST JUMPDEST PUSH1 0x0 PUSH2 0x626 DUP6 DUP3 DUP7 ADD PUSH2 0x5EC JUMP JUMPDEST SWAP3 POP POP PUSH1 0x20 PUSH2 0x637 DUP6 DUP3 DUP7 ADD PUSH2 0x5EC JUMP JUMPDEST SWAP2 POP POP SWAP3 POP SWAP3 SWAP1 POP JUMP JUMPDEST PUSH1 0x0 DUP2 SWAP1 POP SWAP2 SWAP1 POP JUMP JUMPDEST PUSH2 0x654 DUP2 PUSH2 0x641 JUMP JUMPDEST DUP2 EQ PUSH2 0x65F JUMPI PUSH1 0x0 DUP1 REVERT JUMPDEST POP JUMP JUMPDEST PUSH1 0x0 DUP2 CALLDATALOAD SWAP1 POP PUSH2 0x671 DUP2 PUSH2 0x64B JUMP JUMPDEST SWAP3 SWAP2 POP POP JUMP JUMPDEST PUSH1 0x0 DUP1 PUSH1 0x0 DUP1 PUSH1 0x80 DUP6 DUP8 SUB SLT ISZERO PUSH2 0x691 JUMPI PUSH2 0x690 PUSH2 0x59E JUMP JUMPDEST JUMPDEST PUSH1 0x0 PUSH2 0x69F DUP8 DUP3 DUP9 ADD PUSH2 0x5EC JUMP JUMPDEST SWAP5 POP POP PUSH1 0x20 PUSH2 0x6B0 DUP8 DUP3 DUP9 ADD PUSH2 0x5EC JUMP JUMPDEST SWAP4 POP POP PUSH1 0x40 PUSH2 0x6C1 DUP8 DUP3 DUP9 ADD PUSH2 0x662 JUMP JUMPDEST SWAP3 POP POP PUSH1 0x60 PUSH2 0x6D2 DUP8 DUP3 DUP9 ADD PUSH2 0x662 JUMP JUMPDEST SWAP2 POP POP SWAP3 SWAP6 SWAP2 SWAP5 POP SWAP3 POP JUMP JUMPDEST PUSH2 0x6E7 DUP2 PUSH2 0x5C3 JUMP JUMPDEST DUP3 MSTORE POP POP JUMP JUMPDEST PUSH1 0x0 PUSH1 0x40 DUP3 ADD SWAP1 POP PUSH2 0x702 PUSH1 0x0 DUP4 ADD DUP6 PUSH2 0x6DE JUMP JUMPDEST PUSH2 0x70F PUSH1 0x20 DUP4 ADD DUP5 PUSH2 0x6DE JUMP JUMPDEST SWAP4 SWAP3 POP POP POP JUMP JUMPDEST PUSH1 0x0 DUP2 MLOAD SWAP1 POP PUSH2 0x725 DUP2 PUSH2 0x5D5 JUMP JUMPDEST SWAP3 SWAP2 POP POP JUMP JUMPDEST PUSH1 0x0 PUSH1 0x20 DUP3 DUP5 SUB SLT ISZERO PUSH2 0x741 JUMPI PUSH2 0x740 PUSH2 0x59E JUMP JUMPDEST JUMPDEST PUSH1 0x0 PUSH2 0x74F DUP5 DUP3 DUP6 ADD PUSH2 0x716 JUMP JUMPDEST SWAP2 POP POP SWAP3 SWAP2 POP POP JUMP JUMPDEST PUSH1 0x0 PUSH1 0x20 DUP3 ADD SWAP1 POP PUSH2 0x76D PUSH1 0x0 DUP4 ADD DUP5 PUSH2 0x6DE JUMP JUMPDEST SWAP3 SWAP2 POP POP JUMP JUMPDEST PUSH1 0x0 DUP2 MLOAD SWAP1 POP PUSH2 0x782 DUP2 PUSH2 0x64B JUMP JUMPDEST SWAP3 SWAP2 POP POP JUMP JUMPDEST PUSH1 0x0 PUSH1 0x20 DUP3 DUP5 SUB SLT ISZERO PUSH2 0x79E JUMPI PUSH2 0x79D PUSH2 0x59E JUMP JUMPDEST JUMPDEST PUSH1 0x0 PUSH2 0x7AC DUP5 DUP3 DUP6 ADD PUSH2 0x773 JUMP JUMPDEST SWAP2 POP POP SWAP3 SWAP2 POP POP JUMP JUMPDEST PUSH2 0x7BE DUP2 PUSH2 0x641 JUMP JUMPDEST DUP3 MSTORE POP POP JUMP JUMPDEST PUSH1 0x0 PUSH1 0x40 DUP3 ADD SWAP1 POP PUSH2 0x7D9 PUSH1 0x0 DUP4 ADD DUP6 PUSH2 0x6DE JUMP JUMPDEST PUSH2 0x7E6 PUSH1 0x20 DUP4 ADD DUP5 PUSH2 0x7B5 JUMP JUMPDEST SWAP4 SWAP3 POP POP POP JUMP JUMPDEST PUSH1 0x0 DUP2 ISZERO ISZERO SWAP1 POP SWAP2 SWAP1 POP JUMP JUMPDEST PUSH2 0x802 DUP2 PUSH2 0x7ED JUMP JUMPDEST DUP2 EQ PUSH2 0x80D JUMPI PUSH1 0x0 DUP1 REVERT JUMPDEST POP JUMP JUMPDEST PUSH1 0x0 DUP2 MLOAD SWAP1 POP PUSH2 0x81F DUP2 PUSH2 0x7F9 JUMP JUMPDEST SWAP3 SWAP2 POP POP JUMP JUMPDEST PUSH1 0x0 PUSH1 0x20 DUP3 DUP5 SUB SLT ISZERO PUSH2 0x83B JUMPI PUSH2 0x83A PUSH2 0x59E JUMP JUMPDEST JUMPDEST PUSH1 0x0 PUSH2 0x849 DUP5 DUP3 DUP6 ADD PUSH2 0x810 JUMP JUMPDEST SWAP2 POP POP SWAP3 SWAP2 POP POP JUMP JUMPDEST PUSH1 0x0 DUP2 SWAP1 POP SWAP2 SWAP1 POP JUMP JUMPDEST PUSH1 0x0 DUP2 SWAP1 POP SWAP2 SWAP1 POP JUMP JUMPDEST PUSH1 0x0 PUSH2 0x881 PUSH2 0x87C PUSH2 0x877 DUP5 PUSH2 0x852 JUMP JUMPDEST PUSH2 0x85C JUMP JUMPDEST PUSH2 0x641 JUMP JUMPDEST SWAP1 POP SWAP2 SWAP1 POP JUMP JUMPDEST PUSH2 0x891 DUP2 PUSH2 0x866 JUMP JUMPDEST DUP3 MSTORE POP POP JUMP JUMPDEST PUSH1 0x0 PUSH1 0xE0 DUP3 ADD SWAP1 POP PUSH2 0x8AC PUSH1 0x0 DUP4 ADD DUP11 PUSH2 0x6DE JUMP JUMPDEST PUSH2 0x8B9 PUSH1 0x20 DUP4 ADD DUP10 PUSH2 0x6DE JUMP JUMPDEST PUSH2 0x8C6 PUSH1 0x40 DUP4 ADD DUP9 PUSH2 0x7B5 JUMP JUMPDEST PUSH2 0x8D3 PUSH1 0x60 DUP4 ADD DUP8 PUSH2 0x888 JUMP JUMPDEST PUSH2 0x8E0 PUSH1 0x80 DUP4 ADD DUP7 PUSH2 0x888 JUMP JUMPDEST PUSH2 0x8ED PUSH1 0xA0 DUP4 ADD DUP6 PUSH2 0x6DE JUMP JUMPDEST PUSH2 0x8FA PUSH1 0xC0 DUP4 ADD DUP5 PUSH2 0x7B5 JUMP JUMPDEST SWAP9 SWAP8 POP POP POP POP POP POP POP POP JUMP JUMPDEST PUSH1 0x0 DUP1 PUSH1 0x40 DUP4 DUP6 SUB SLT ISZERO PUSH2 0x91D JUMPI PUSH2 0x91C PUSH2 0x59E JUMP JUMPDEST JUMPDEST PUSH1 0x0 PUSH2 0x92B DUP6 DUP3 DUP7 ADD PUSH2 0x773 JUMP JUMPDEST SWAP3 POP POP PUSH1 0x20 PUSH2 0x93C DUP6 DUP3 DUP7 ADD PUSH2 0x773 JUMP JUMPDEST SWAP2 POP POP SWAP3 POP SWAP3 SWAP1 POP JUMP JUMPDEST PUSH1 0x0 PUSH1 0x60 DUP3 ADD SWAP1 POP PUSH2 0x95B PUSH1 0x0 DUP4 ADD DUP7 PUSH2 0x6DE JUMP JUMPDEST PUSH2 0x968 PUSH1 0x20 DUP4 ADD DUP6 PUSH2 0x6DE JUMP JUMPDEST PUSH2 0x975 PUSH1 0x40 DUP4 ADD DUP5 PUSH2 0x7B5 JUMP JUMPDEST SWAP5 SWAP4 POP POP POP POP JUMP JUMPDEST PUSH1 0x0 PUSH2 0x100 DUP3 ADD SWAP1 POP PUSH2 0x993 PUSH1 0x0 DUP4 ADD DUP12 PUSH2 0x6DE JUMP JUMPDEST PUSH2 0x9A0 PUSH1 0x20 DUP4 ADD DUP11 PUSH2 0x6DE JUMP JUMPDEST PUSH2 0x9AD PUSH1 0x40 DUP4 ADD DUP10 PUSH2 0x7B5 JUMP JUMPDEST PUSH2 0x9BA PUSH1 0x60 DUP4 ADD DUP9 PUSH2 0x7B5 JUMP JUMPDEST PUSH2 0x9C7 PUSH1 0x80 DUP4 ADD DUP8 PUSH2 0x888 JUMP JUMPDEST PUSH2 0x9D4 PUSH1 0xA0 DUP4 ADD DUP7 PUSH2 0x888 JUMP JUMPDEST PUSH2 0x9E1 PUSH1 0xC0 DUP4 ADD DUP6 PUSH2 0x6DE JUMP JUMPDEST PUSH2 0x9EE PUSH1 0xE0 DUP4 ADD DUP5 PUSH2 0x7B5 JUMP JUMPDEST SWAP10 SWAP9 POP POP POP POP POP POP POP POP POP JUMP JUMPDEST PUSH1 0x0 DUP1 PUSH1 0x0 PUSH1 0x60 DUP5 DUP7 SUB SLT ISZERO PUSH2 0xA14 JUMPI PUSH2 0xA13 PUSH2 0x59E JUMP JUMPDEST JUMPDEST PUSH1 0x0 PUSH2 0xA22 DUP7 DUP3 DUP8 ADD PUSH2 0x773 JUMP JUMPDEST SWAP4 POP POP PUSH1 0x20 PUSH2 0xA33 DUP7 DUP3 DUP8 ADD PUSH2 0x773 JUMP JUMPDEST SWAP3 POP POP PUSH1 0x40 PUSH2 0xA44 DUP7 DUP3 DUP8 ADD PUSH2 0x773 JUMP JUMPDEST SWAP2 POP POP SWAP3 POP SWAP3 POP SWAP3 JUMP INVALID LOG2 PUSH5 0x6970667358 0x22 SLT KECCAK256 PUSH15 0xA666A731136DC8D9DB378DE97C4F01 0xCC DUP11 SWAP2 0xE CALLDATALOAD SWAP16 0x2E CREATE2 0xD7 DUP6 CODECOPY 0x4E LOG1 PUSH14 0x6EE564736F6C634300080E003300 "
		},
		"gasEstimates": {
			"creation": {
				"codeDepositCost": "538400",
				"executionCost": "575",
				"totalCost": "538975"
			},
			"external": {
				"addLiquidity(address,address,uint256,uint256)": "infinite",
				"removeLiquidity(address,address)": "infinite"
			}
		},
		"methodIdentifiers": {
			"addLiquidity(address,address,uint256,uint256)": "cf6c62ea",
			"removeLiquidity(address,address)": "9cf38f7c"
		}
	},
	"abi": [
		{
			"inputs": [
				{
					"internalType": "address",
					"name": "_tokenA",
					"type": "address"
				},
				{
					"internalType": "address",
					"name": "_tokenB",
					"type": "address"
				},
				{
					"internalType": "uint256",
					"name": "_amountA",
					"type": "uint256"
				},
				{
					"internalType": "uint256",
					"name": "_amountB",
					"type": "uint256"
				}
			],
			"name": "addLiquidity",
			"outputs": [],
			"stateMutability": "nonpayable",
			"type": "function"
		},
		{
			"inputs": [
				{
					"internalType": "address",
					"name": "_tokenA",
					"type": "address"
				},
				{
					"internalType": "address",
					"name": "_tokenB",
					"type": "address"
				}
			],
			"name": "removeLiquidity",
			"outputs": [],
			"stateMutability": "nonpayable",
			"type": "function"
		}
	]
}