{
	"solidity-study-demo/ForthPart/TestUniswap.sol": {
		"TestUniswap": {
			"abi": [
				{
					"inputs": [
						{
							"internalType": "address",
							"name": "_tokenIn",
							"type": "address"
						},
						{
							"internalType": "address",
							"name": "_tokenOut",
							"type": "address"
						},
						{
							"internalType": "uint256",
							"name": "_amountIn",
							"type": "uint256"
						},
						{
							"internalType": "uint256",
							"name": "_amountOutMin",
							"type": "uint256"
						},
						{
							"internalType": "address",
							"name": "_to",
							"type": "address"
						}
					],
					"name": "swap",
					"outputs": [],
					"stateMutability": "nonpayable",
					"type": "function"
				}
			],
			"devdoc": {
				"kind": "dev",
				"methods": {},
				"version": 1
			},
			"evm": {
				"assembly": "    /* \"solidity-study-demo/ForthPart/TestUniswap.sol\":28:1108  contract TestUniswap {... */\n  mstore(0x40, 0x80)\n  callvalue\n  dup1\n  iszero\n  tag_1\n  jumpi\n  0x00\n  dup1\n  revert\ntag_1:\n  pop\n  dataSize(sub_0)\n  dup1\n  dataOffset(sub_0)\n  0x00\n  codecopy\n  0x00\n  return\nstop\n\nsub_0: assembly {\n        /* \"solidity-study-demo/ForthPart/TestUniswap.sol\":28:1108  contract TestUniswap {... */\n      mstore(0x40, 0x80)\n      callvalue\n      dup1\n      iszero\n      tag_1\n      jumpi\n      0x00\n      dup1\n      revert\n    tag_1:\n      pop\n      jumpi(tag_2, lt(calldatasize, 0x04))\n      shr(0xe0, calldataload(0x00))\n      dup1\n      0xd5bcb9b5\n      eq\n      tag_3\n      jumpi\n    tag_2:\n      0x00\n      dup1\n      revert\n        /* \"solidity-study-demo/ForthPart/TestUniswap.sol\":242:1105  function swap(... */\n    tag_3:\n      tag_4\n      0x04\n      dup1\n      calldatasize\n      sub\n      dup2\n      add\n      swap1\n      tag_5\n      swap2\n      swap1\n      tag_6\n      jump\t// in\n    tag_5:\n      tag_7\n      jump\t// in\n    tag_4:\n      stop\n    tag_7:\n        /* \"solidity-study-demo/ForthPart/TestUniswap.sol\":421:429  _tokenIn */\n      dup5\n        /* \"solidity-study-demo/ForthPart/TestUniswap.sol\":414:443  IERC20(_tokenIn).transferFrom */\n      0xffffffffffffffffffffffffffffffffffffffff\n      and\n      0x23b872dd\n        /* \"solidity-study-demo/ForthPart/TestUniswap.sol\":444:454  msg.sender */\n      caller\n        /* \"solidity-study-demo/ForthPart/TestUniswap.sol\":464:468  this */\n      address\n        /* \"solidity-study-demo/ForthPart/TestUniswap.sol\":471:480  _amountIn */\n      dup7\n        /* \"solidity-study-demo/ForthPart/TestUniswap.sol\":414:481  IERC20(_tokenIn).transferFrom(msg.sender, address(this), _amountIn) */\n      mload(0x40)\n      dup5\n      0xffffffff\n      and\n      0xe0\n      shl\n      dup2\n      mstore\n      0x04\n      add\n      tag_9\n      swap4\n      swap3\n      swap2\n      swap1\n      tag_10\n      jump\t// in\n    tag_9:\n      0x20\n      mload(0x40)\n      dup1\n      dup4\n      sub\n      dup2\n      0x00\n      dup8\n      gas\n      call\n      iszero\n      dup1\n      iszero\n      tag_12\n      jumpi\n      returndatasize\n      0x00\n      dup1\n      returndatacopy\n      revert(0x00, returndatasize)\n    tag_12:\n      pop\n      pop\n      pop\n      pop\n      mload(0x40)\n      returndatasize\n      not(0x1f)\n      0x1f\n      dup3\n      add\n      and\n      dup3\n      add\n      dup1\n      0x40\n      mstore\n      pop\n      dup2\n      add\n      swap1\n      tag_13\n      swap2\n      swap1\n      tag_14\n      jump\t// in\n    tag_13:\n      pop\n        /* \"solidity-study-demo/ForthPart/TestUniswap.sol\":499:507  _tokenIn */\n      dup5\n        /* \"solidity-study-demo/ForthPart/TestUniswap.sol\":492:516  IERC20(_tokenIn).approve */\n      0xffffffffffffffffffffffffffffffffffffffff\n      and\n      0x095ea7b3\n        /* \"solidity-study-demo/ForthPart/TestUniswap.sol\":110:152  0x7a250d5630B4cF539739dF2C5dAcb4c659F2488D */\n      0x7a250d5630b4cf539739df2c5dacb4c659f2488d\n        /* \"solidity-study-demo/ForthPart/TestUniswap.sol\":536:545  _amountIn */\n      dup6\n        /* \"solidity-study-demo/ForthPart/TestUniswap.sol\":492:546  IERC20(_tokenIn).approve(UNISWAP_V2_ROUTER, _amountIn) */\n      mload(0x40)\n      dup4\n      0xffffffff\n      and\n      0xe0\n      shl\n      dup2\n      mstore\n      0x04\n      add\n      tag_15\n      swap3\n      swap2\n      swap1\n      tag_16\n      jump\t// in\n    tag_15:\n      0x20\n      mload(0x40)\n      dup1\n      dup4\n      sub\n      dup2\n      0x00\n      dup8\n      gas\n      call\n      iszero\n      dup1\n      iszero\n      tag_18\n      jumpi\n      returndatasize\n      0x00\n      dup1\n      returndatacopy\n      revert(0x00, returndatasize)\n    tag_18:\n      pop\n      pop\n      pop\n      pop\n      mload(0x40)\n      returndatasize\n      not(0x1f)\n      0x1f\n      dup3\n      add\n      and\n      dup3\n      add\n      dup1\n      0x40\n      mstore\n      pop\n      dup2\n      add\n      swap1\n      tag_19\n      swap2\n      swap1\n      tag_14\n      jump\t// in\n    tag_19:\n      pop\n        /* \"solidity-study-demo/ForthPart/TestUniswap.sol\":559:580  address[] memory path */\n      0x60\n        /* \"solidity-study-demo/ForthPart/TestUniswap.sol\":191:233  0xC02aaA39b223FE8D0A0e5C4F27eAD9083C756Cc2 */\n      0xc02aaa39b223fe8d0a0e5c4f27ead9083c756cc2\n        /* \"solidity-study-demo/ForthPart/TestUniswap.sol\":595:611  _tokenIn == WETH */\n      0xffffffffffffffffffffffffffffffffffffffff\n      and\n        /* \"solidity-study-demo/ForthPart/TestUniswap.sol\":595:603  _tokenIn */\n      dup7\n        /* \"solidity-study-demo/ForthPart/TestUniswap.sol\":595:611  _tokenIn == WETH */\n      0xffffffffffffffffffffffffffffffffffffffff\n      and\n      eq\n        /* \"solidity-study-demo/ForthPart/TestUniswap.sol\":595:632  _tokenIn == WETH || _tokenOut == WETH */\n      dup1\n      tag_20\n      jumpi\n      pop\n        /* \"solidity-study-demo/ForthPart/TestUniswap.sol\":191:233  0xC02aaA39b223FE8D0A0e5C4F27eAD9083C756Cc2 */\n      0xc02aaa39b223fe8d0a0e5c4f27ead9083c756cc2\n        /* \"solidity-study-demo/ForthPart/TestUniswap.sol\":615:632  _tokenOut == WETH */\n      0xffffffffffffffffffffffffffffffffffffffff\n      and\n        /* \"solidity-study-demo/ForthPart/TestUniswap.sol\":615:624  _tokenOut */\n      dup6\n        /* \"solidity-study-demo/ForthPart/TestUniswap.sol\":615:632  _tokenOut == WETH */\n      0xffffffffffffffffffffffffffffffffffffffff\n      and\n      eq\n        /* \"solidity-study-demo/ForthPart/TestUniswap.sol\":595:632  _tokenIn == WETH || _tokenOut == WETH */\n    tag_20:\n        /* \"solidity-study-demo/ForthPart/TestUniswap.sol\":591:898  if (_tokenIn == WETH || _tokenOut == WETH) {... */\n      iszero\n      tag_21\n      jumpi\n        /* \"solidity-study-demo/ForthPart/TestUniswap.sol\":670:671  2 */\n      0x02\n        /* \"solidity-study-demo/ForthPart/TestUniswap.sol\":656:672  new address[](2) */\n      0xffffffffffffffff\n      dup2\n      gt\n      iszero\n      tag_22\n      jumpi\n      tag_23\n      tag_24\n      jump\t// in\n    tag_23:\n    tag_22:\n      mload(0x40)\n      swap1\n      dup1\n      dup3\n      mstore\n      dup1\n      0x20\n      mul\n      0x20\n      add\n      dup3\n      add\n      0x40\n      mstore\n      dup1\n      iszero\n      tag_25\n      jumpi\n      dup2\n      0x20\n      add\n      0x20\n      dup3\n      mul\n      dup1\n      calldatasize\n      dup4\n      calldatacopy\n      dup1\n      dup3\n      add\n      swap2\n      pop\n      pop\n      swap1\n      pop\n    tag_25:\n      pop\n        /* \"solidity-study-demo/ForthPart/TestUniswap.sol\":649:672  path = new address[](2) */\n      swap1\n      pop\n        /* \"solidity-study-demo/ForthPart/TestUniswap.sol\":697:705  _tokenIn */\n      dup6\n        /* \"solidity-study-demo/ForthPart/TestUniswap.sol\":687:691  path */\n      dup2\n        /* \"solidity-study-demo/ForthPart/TestUniswap.sol\":692:693  0 */\n      0x00\n        /* \"solidity-study-demo/ForthPart/TestUniswap.sol\":687:694  path[0] */\n      dup2\n      mload\n      dup2\n      lt\n      tag_26\n      jumpi\n      tag_27\n      tag_28\n      jump\t// in\n    tag_27:\n    tag_26:\n      0x20\n      mul\n      0x20\n      add\n      add\n        /* \"solidity-study-demo/ForthPart/TestUniswap.sol\":687:705  path[0] = _tokenIn */\n      swap1\n      0xffffffffffffffffffffffffffffffffffffffff\n      and\n      swap1\n      dup2\n      0xffffffffffffffffffffffffffffffffffffffff\n      and\n      dup2\n      mstore\n      pop\n      pop\n        /* \"solidity-study-demo/ForthPart/TestUniswap.sol\":191:233  0xC02aaA39b223FE8D0A0e5C4F27eAD9083C756Cc2 */\n      0xc02aaa39b223fe8d0a0e5c4f27ead9083c756cc2\n        /* \"solidity-study-demo/ForthPart/TestUniswap.sol\":720:724  path */\n      dup2\n        /* \"solidity-study-demo/ForthPart/TestUniswap.sol\":725:726  1 */\n      0x01\n        /* \"solidity-study-demo/ForthPart/TestUniswap.sol\":720:727  path[1] */\n      dup2\n      mload\n      dup2\n      lt\n      tag_29\n      jumpi\n      tag_30\n      tag_28\n      jump\t// in\n    tag_30:\n    tag_29:\n      0x20\n      mul\n      0x20\n      add\n      add\n        /* \"solidity-study-demo/ForthPart/TestUniswap.sol\":720:734  path[1] = WETH */\n      swap1\n      0xffffffffffffffffffffffffffffffffffffffff\n      and\n      swap1\n      dup2\n      0xffffffffffffffffffffffffffffffffffffffff\n      and\n      dup2\n      mstore\n      pop\n      pop\n        /* \"solidity-study-demo/ForthPart/TestUniswap.sol\":591:898  if (_tokenIn == WETH || _tokenOut == WETH) {... */\n      jump(tag_31)\n    tag_21:\n        /* \"solidity-study-demo/ForthPart/TestUniswap.sol\":788:789  3 */\n      0x03\n        /* \"solidity-study-demo/ForthPart/TestUniswap.sol\":774:790  new address[](3) */\n      0xffffffffffffffff\n      dup2\n      gt\n      iszero\n      tag_32\n      jumpi\n      tag_33\n      tag_24\n      jump\t// in\n    tag_33:\n    tag_32:\n      mload(0x40)\n      swap1\n      dup1\n      dup3\n      mstore\n      dup1\n      0x20\n      mul\n      0x20\n      add\n      dup3\n      add\n      0x40\n      mstore\n      dup1\n      iszero\n      tag_34\n      jumpi\n      dup2\n      0x20\n      add\n      0x20\n      dup3\n      mul\n      dup1\n      calldatasize\n      dup4\n      calldatacopy\n      dup1\n      dup3\n      add\n      swap2\n      pop\n      pop\n      swap1\n      pop\n    tag_34:\n      pop\n        /* \"solidity-study-demo/ForthPart/TestUniswap.sol\":767:790  path = new address[](3) */\n      swap1\n      pop\n        /* \"solidity-study-demo/ForthPart/TestUniswap.sol\":815:823  _tokenIn */\n      dup6\n        /* \"solidity-study-demo/ForthPart/TestUniswap.sol\":805:809  path */\n      dup2\n        /* \"solidity-study-demo/ForthPart/TestUniswap.sol\":810:811  0 */\n      0x00\n        /* \"solidity-study-demo/ForthPart/TestUniswap.sol\":805:812  path[0] */\n      dup2\n      mload\n      dup2\n      lt\n      tag_35\n      jumpi\n      tag_36\n      tag_28\n      jump\t// in\n    tag_36:\n    tag_35:\n      0x20\n      mul\n      0x20\n      add\n      add\n        /* \"solidity-study-demo/ForthPart/TestUniswap.sol\":805:823  path[0] = _tokenIn */\n      swap1\n      0xffffffffffffffffffffffffffffffffffffffff\n      and\n      swap1\n      dup2\n      0xffffffffffffffffffffffffffffffffffffffff\n      and\n      dup2\n      mstore\n      pop\n      pop\n        /* \"solidity-study-demo/ForthPart/TestUniswap.sol\":191:233  0xC02aaA39b223FE8D0A0e5C4F27eAD9083C756Cc2 */\n      0xc02aaa39b223fe8d0a0e5c4f27ead9083c756cc2\n        /* \"solidity-study-demo/ForthPart/TestUniswap.sol\":838:842  path */\n      dup2\n        /* \"solidity-study-demo/ForthPart/TestUniswap.sol\":843:844  1 */\n      0x01\n        /* \"solidity-study-demo/ForthPart/TestUniswap.sol\":838:845  path[1] */\n      dup2\n      mload\n      dup2\n      lt\n      tag_37\n      jumpi\n      tag_38\n      tag_28\n      jump\t// in\n    tag_38:\n    tag_37:\n      0x20\n      mul\n      0x20\n      add\n      add\n        /* \"solidity-study-demo/ForthPart/TestUniswap.sol\":838:852  path[1] = WETH */\n      swap1\n      0xffffffffffffffffffffffffffffffffffffffff\n      and\n      swap1\n      dup2\n      0xffffffffffffffffffffffffffffffffffffffff\n      and\n      dup2\n      mstore\n      pop\n      pop\n        /* \"solidity-study-demo/ForthPart/TestUniswap.sol\":877:886  _tokenOut */\n      dup5\n        /* \"solidity-study-demo/ForthPart/TestUniswap.sol\":867:871  path */\n      dup2\n        /* \"solidity-study-demo/ForthPart/TestUniswap.sol\":872:873  2 */\n      0x02\n        /* \"solidity-study-demo/ForthPart/TestUniswap.sol\":867:874  path[2] */\n      dup2\n      mload\n      dup2\n      lt\n      tag_39\n      jumpi\n      tag_40\n      tag_28\n      jump\t// in\n    tag_40:\n    tag_39:\n      0x20\n      mul\n      0x20\n      add\n      add\n        /* \"solidity-study-demo/ForthPart/TestUniswap.sol\":867:886  path[2] = _tokenOut */\n      swap1\n      0xffffffffffffffffffffffffffffffffffffffff\n      and\n      swap1\n      dup2\n      0xffffffffffffffffffffffffffffffffffffffff\n      and\n      dup2\n      mstore\n      pop\n      pop\n        /* \"solidity-study-demo/ForthPart/TestUniswap.sol\":591:898  if (_tokenIn == WETH || _tokenOut == WETH) {... */\n    tag_31:\n        /* \"solidity-study-demo/ForthPart/TestUniswap.sol\":110:152  0x7a250d5630B4cF539739dF2C5dAcb4c659F2488D */\n      0x7a250d5630b4cf539739df2c5dacb4c659f2488d\n        /* \"solidity-study-demo/ForthPart/TestUniswap.sol\":908:967  IUniswapV2Router(UNISWAP_V2_ROUTER).swapExactTokenForTokens */\n      0xffffffffffffffffffffffffffffffffffffffff\n      and\n      0xdad4e246\n        /* \"solidity-study-demo/ForthPart/TestUniswap.sol\":982:991  _amountIn */\n      dup6\n        /* \"solidity-study-demo/ForthPart/TestUniswap.sol\":1006:1019  _amountOutMin */\n      dup6\n        /* \"solidity-study-demo/ForthPart/TestUniswap.sol\":1034:1038  path */\n      dup5\n        /* \"solidity-study-demo/ForthPart/TestUniswap.sol\":1053:1056  _to */\n      dup7\n        /* \"solidity-study-demo/ForthPart/TestUniswap.sol\":1071:1086  block.timestamp */\n      timestamp\n        /* \"solidity-study-demo/ForthPart/TestUniswap.sol\":908:1097  IUniswapV2Router(UNISWAP_V2_ROUTER).swapExactTokenForTokens(... */\n      mload(0x40)\n      dup7\n      0xffffffff\n      and\n      0xe0\n      shl\n      dup2\n      mstore\n      0x04\n      add\n      tag_41\n      swap6\n      swap5\n      swap4\n      swap3\n      swap2\n      swap1\n      tag_42\n      jump\t// in\n    tag_41:\n      0x00\n      mload(0x40)\n      dup1\n      dup4\n      sub\n      dup2\n      0x00\n      dup8\n      gas\n      call\n      iszero\n      dup1\n      iszero\n      tag_44\n      jumpi\n      returndatasize\n      0x00\n      dup1\n      returndatacopy\n      revert(0x00, returndatasize)\n    tag_44:\n      pop\n      pop\n      pop\n      pop\n      mload(0x40)\n      returndatasize\n      0x00\n      dup3\n      returndatacopy\n      returndatasize\n      not(0x1f)\n      0x1f\n      dup3\n      add\n      and\n      dup3\n      add\n      dup1\n      0x40\n      mstore\n      pop\n      dup2\n      add\n      swap1\n      tag_45\n      swap2\n      swap1\n      tag_46\n      jump\t// in\n    tag_45:\n      pop\n        /* \"solidity-study-demo/ForthPart/TestUniswap.sol\":403:1105  {... */\n      pop\n        /* \"solidity-study-demo/ForthPart/TestUniswap.sol\":242:1105  function swap(... */\n      pop\n      pop\n      pop\n      pop\n      pop\n      jump\t// out\n        /* \"#utility.yul\":7:82   */\n    tag_47:\n        /* \"#utility.yul\":40:46   */\n      0x00\n        /* \"#utility.yul\":73:75   */\n      0x40\n        /* \"#utility.yul\":67:76   */\n      mload\n        /* \"#utility.yul\":57:76   */\n      swap1\n      pop\n        /* \"#utility.yul\":7:82   */\n      swap1\n      jump\t// out\n        /* \"#utility.yul\":88:205   */\n    tag_48:\n        /* \"#utility.yul\":197:198   */\n      0x00\n        /* \"#utility.yul\":194:195   */\n      dup1\n        /* \"#utility.yul\":187:199   */\n      revert\n        /* \"#utility.yul\":211:328   */\n    tag_49:\n        /* \"#utility.yul\":320:321   */\n      0x00\n        /* \"#utility.yul\":317:318   */\n      dup1\n        /* \"#utility.yul\":310:322   */\n      revert\n        /* \"#utility.yul\":334:460   */\n    tag_50:\n        /* \"#utility.yul\":371:378   */\n      0x00\n        /* \"#utility.yul\":411:453   */\n      0xffffffffffffffffffffffffffffffffffffffff\n        /* \"#utility.yul\":404:409   */\n      dup3\n        /* \"#utility.yul\":400:454   */\n      and\n        /* \"#utility.yul\":389:454   */\n      swap1\n      pop\n        /* \"#utility.yul\":334:460   */\n      swap2\n      swap1\n      pop\n      jump\t// out\n        /* \"#utility.yul\":466:562   */\n    tag_51:\n        /* \"#utility.yul\":503:510   */\n      0x00\n        /* \"#utility.yul\":532:556   */\n      tag_84\n        /* \"#utility.yul\":550:555   */\n      dup3\n        /* \"#utility.yul\":532:556   */\n      tag_50\n      jump\t// in\n    tag_84:\n        /* \"#utility.yul\":521:556   */\n      swap1\n      pop\n        /* \"#utility.yul\":466:562   */\n      swap2\n      swap1\n      pop\n      jump\t// out\n        /* \"#utility.yul\":568:690   */\n    tag_52:\n        /* \"#utility.yul\":641:665   */\n      tag_86\n        /* \"#utility.yul\":659:664   */\n      dup2\n        /* \"#utility.yul\":641:665   */\n      tag_51\n      jump\t// in\n    tag_86:\n        /* \"#utility.yul\":634:639   */\n      dup2\n        /* \"#utility.yul\":631:666   */\n      eq\n        /* \"#utility.yul\":621:684   */\n      tag_87\n      jumpi\n        /* \"#utility.yul\":680:681   */\n      0x00\n        /* \"#utility.yul\":677:678   */\n      dup1\n        /* \"#utility.yul\":670:682   */\n      revert\n        /* \"#utility.yul\":621:684   */\n    tag_87:\n        /* \"#utility.yul\":568:690   */\n      pop\n      jump\t// out\n        /* \"#utility.yul\":696:835   */\n    tag_53:\n        /* \"#utility.yul\":742:747   */\n      0x00\n        /* \"#utility.yul\":780:786   */\n      dup2\n        /* \"#utility.yul\":767:787   */\n      calldataload\n        /* \"#utility.yul\":758:787   */\n      swap1\n      pop\n        /* \"#utility.yul\":796:829   */\n      tag_89\n        /* \"#utility.yul\":823:828   */\n      dup2\n        /* \"#utility.yul\":796:829   */\n      tag_52\n      jump\t// in\n    tag_89:\n        /* \"#utility.yul\":696:835   */\n      swap3\n      swap2\n      pop\n      pop\n      jump\t// out\n        /* \"#utility.yul\":841:918   */\n    tag_54:\n        /* \"#utility.yul\":878:885   */\n      0x00\n        /* \"#utility.yul\":907:912   */\n      dup2\n        /* \"#utility.yul\":896:912   */\n      swap1\n      pop\n        /* \"#utility.yul\":841:918   */\n      swap2\n      swap1\n      pop\n      jump\t// out\n        /* \"#utility.yul\":924:1046   */\n    tag_55:\n        /* \"#utility.yul\":997:1021   */\n      tag_92\n        /* \"#utility.yul\":1015:1020   */\n      dup2\n        /* \"#utility.yul\":997:1021   */\n      tag_54\n      jump\t// in\n    tag_92:\n        /* \"#utility.yul\":990:995   */\n      dup2\n        /* \"#utility.yul\":987:1022   */\n      eq\n        /* \"#utility.yul\":977:1040   */\n      tag_93\n      jumpi\n        /* \"#utility.yul\":1036:1037   */\n      0x00\n        /* \"#utility.yul\":1033:1034   */\n      dup1\n        /* \"#utility.yul\":1026:1038   */\n      revert\n        /* \"#utility.yul\":977:1040   */\n    tag_93:\n        /* \"#utility.yul\":924:1046   */\n      pop\n      jump\t// out\n        /* \"#utility.yul\":1052:1191   */\n    tag_56:\n        /* \"#utility.yul\":1098:1103   */\n      0x00\n        /* \"#utility.yul\":1136:1142   */\n      dup2\n        /* \"#utility.yul\":1123:1143   */\n      calldataload\n        /* \"#utility.yul\":1114:1143   */\n      swap1\n      pop\n        /* \"#utility.yul\":1152:1185   */\n      tag_95\n        /* \"#utility.yul\":1179:1184   */\n      dup2\n        /* \"#utility.yul\":1152:1185   */\n      tag_55\n      jump\t// in\n    tag_95:\n        /* \"#utility.yul\":1052:1191   */\n      swap3\n      swap2\n      pop\n      pop\n      jump\t// out\n        /* \"#utility.yul\":1197:2108   */\n    tag_6:\n        /* \"#utility.yul\":1292:1298   */\n      0x00\n        /* \"#utility.yul\":1300:1306   */\n      dup1\n        /* \"#utility.yul\":1308:1314   */\n      0x00\n        /* \"#utility.yul\":1316:1322   */\n      dup1\n        /* \"#utility.yul\":1324:1330   */\n      0x00\n        /* \"#utility.yul\":1373:1376   */\n      0xa0\n        /* \"#utility.yul\":1361:1370   */\n      dup7\n        /* \"#utility.yul\":1352:1359   */\n      dup9\n        /* \"#utility.yul\":1348:1371   */\n      sub\n        /* \"#utility.yul\":1344:1377   */\n      slt\n        /* \"#utility.yul\":1341:1461   */\n      iszero\n      tag_97\n      jumpi\n        /* \"#utility.yul\":1380:1459   */\n      tag_98\n      tag_48\n      jump\t// in\n    tag_98:\n        /* \"#utility.yul\":1341:1461   */\n    tag_97:\n        /* \"#utility.yul\":1500:1501   */\n      0x00\n        /* \"#utility.yul\":1525:1578   */\n      tag_99\n        /* \"#utility.yul\":1570:1577   */\n      dup9\n        /* \"#utility.yul\":1561:1567   */\n      dup3\n        /* \"#utility.yul\":1550:1559   */\n      dup10\n        /* \"#utility.yul\":1546:1568   */\n      add\n        /* \"#utility.yul\":1525:1578   */\n      tag_53\n      jump\t// in\n    tag_99:\n        /* \"#utility.yul\":1515:1578   */\n      swap6\n      pop\n        /* \"#utility.yul\":1471:1588   */\n      pop\n        /* \"#utility.yul\":1627:1629   */\n      0x20\n        /* \"#utility.yul\":1653:1706   */\n      tag_100\n        /* \"#utility.yul\":1698:1705   */\n      dup9\n        /* \"#utility.yul\":1689:1695   */\n      dup3\n        /* \"#utility.yul\":1678:1687   */\n      dup10\n        /* \"#utility.yul\":1674:1696   */\n      add\n        /* \"#utility.yul\":1653:1706   */\n      tag_53\n      jump\t// in\n    tag_100:\n        /* \"#utility.yul\":1643:1706   */\n      swap5\n      pop\n        /* \"#utility.yul\":1598:1716   */\n      pop\n        /* \"#utility.yul\":1755:1757   */\n      0x40\n        /* \"#utility.yul\":1781:1834   */\n      tag_101\n        /* \"#utility.yul\":1826:1833   */\n      dup9\n        /* \"#utility.yul\":1817:1823   */\n      dup3\n        /* \"#utility.yul\":1806:1815   */\n      dup10\n        /* \"#utility.yul\":1802:1824   */\n      add\n        /* \"#utility.yul\":1781:1834   */\n      tag_56\n      jump\t// in\n    tag_101:\n        /* \"#utility.yul\":1771:1834   */\n      swap4\n      pop\n        /* \"#utility.yul\":1726:1844   */\n      pop\n        /* \"#utility.yul\":1883:1885   */\n      0x60\n        /* \"#utility.yul\":1909:1962   */\n      tag_102\n        /* \"#utility.yul\":1954:1961   */\n      dup9\n        /* \"#utility.yul\":1945:1951   */\n      dup3\n        /* \"#utility.yul\":1934:1943   */\n      dup10\n        /* \"#utility.yul\":1930:1952   */\n      add\n        /* \"#utility.yul\":1909:1962   */\n      tag_56\n      jump\t// in\n    tag_102:\n        /* \"#utility.yul\":1899:1962   */\n      swap3\n      pop\n        /* \"#utility.yul\":1854:1972   */\n      pop\n        /* \"#utility.yul\":2011:2014   */\n      0x80\n        /* \"#utility.yul\":2038:2091   */\n      tag_103\n        /* \"#utility.yul\":2083:2090   */\n      dup9\n        /* \"#utility.yul\":2074:2080   */\n      dup3\n        /* \"#utility.yul\":2063:2072   */\n      dup10\n        /* \"#utility.yul\":2059:2081   */\n      add\n        /* \"#utility.yul\":2038:2091   */\n      tag_53\n      jump\t// in\n    tag_103:\n        /* \"#utility.yul\":2028:2091   */\n      swap2\n      pop\n        /* \"#utility.yul\":1982:2101   */\n      pop\n        /* \"#utility.yul\":1197:2108   */\n      swap3\n      swap6\n      pop\n      swap3\n      swap6\n      swap1\n      swap4\n      pop\n      jump\t// out\n        /* \"#utility.yul\":2114:2232   */\n    tag_57:\n        /* \"#utility.yul\":2201:2225   */\n      tag_105\n        /* \"#utility.yul\":2219:2224   */\n      dup2\n        /* \"#utility.yul\":2201:2225   */\n      tag_51\n      jump\t// in\n    tag_105:\n        /* \"#utility.yul\":2196:2199   */\n      dup3\n        /* \"#utility.yul\":2189:2226   */\n      mstore\n        /* \"#utility.yul\":2114:2232   */\n      pop\n      pop\n      jump\t// out\n        /* \"#utility.yul\":2238:2356   */\n    tag_58:\n        /* \"#utility.yul\":2325:2349   */\n      tag_107\n        /* \"#utility.yul\":2343:2348   */\n      dup2\n        /* \"#utility.yul\":2325:2349   */\n      tag_54\n      jump\t// in\n    tag_107:\n        /* \"#utility.yul\":2320:2323   */\n      dup3\n        /* \"#utility.yul\":2313:2350   */\n      mstore\n        /* \"#utility.yul\":2238:2356   */\n      pop\n      pop\n      jump\t// out\n        /* \"#utility.yul\":2362:2804   */\n    tag_10:\n        /* \"#utility.yul\":2511:2515   */\n      0x00\n        /* \"#utility.yul\":2549:2551   */\n      0x60\n        /* \"#utility.yul\":2538:2547   */\n      dup3\n        /* \"#utility.yul\":2534:2552   */\n      add\n        /* \"#utility.yul\":2526:2552   */\n      swap1\n      pop\n        /* \"#utility.yul\":2562:2633   */\n      tag_109\n        /* \"#utility.yul\":2630:2631   */\n      0x00\n        /* \"#utility.yul\":2619:2628   */\n      dup4\n        /* \"#utility.yul\":2615:2632   */\n      add\n        /* \"#utility.yul\":2606:2612   */\n      dup7\n        /* \"#utility.yul\":2562:2633   */\n      tag_57\n      jump\t// in\n    tag_109:\n        /* \"#utility.yul\":2643:2715   */\n      tag_110\n        /* \"#utility.yul\":2711:2713   */\n      0x20\n        /* \"#utility.yul\":2700:2709   */\n      dup4\n        /* \"#utility.yul\":2696:2714   */\n      add\n        /* \"#utility.yul\":2687:2693   */\n      dup6\n        /* \"#utility.yul\":2643:2715   */\n      tag_57\n      jump\t// in\n    tag_110:\n        /* \"#utility.yul\":2725:2797   */\n      tag_111\n        /* \"#utility.yul\":2793:2795   */\n      0x40\n        /* \"#utility.yul\":2782:2791   */\n      dup4\n        /* \"#utility.yul\":2778:2796   */\n      add\n        /* \"#utility.yul\":2769:2775   */\n      dup5\n        /* \"#utility.yul\":2725:2797   */\n      tag_58\n      jump\t// in\n    tag_111:\n        /* \"#utility.yul\":2362:2804   */\n      swap5\n      swap4\n      pop\n      pop\n      pop\n      pop\n      jump\t// out\n        /* \"#utility.yul\":2810:2900   */\n    tag_59:\n        /* \"#utility.yul\":2844:2851   */\n      0x00\n        /* \"#utility.yul\":2887:2892   */\n      dup2\n        /* \"#utility.yul\":2880:2893   */\n      iszero\n        /* \"#utility.yul\":2873:2894   */\n      iszero\n        /* \"#utility.yul\":2862:2894   */\n      swap1\n      pop\n        /* \"#utility.yul\":2810:2900   */\n      swap2\n      swap1\n      pop\n      jump\t// out\n        /* \"#utility.yul\":2906:3022   */\n    tag_60:\n        /* \"#utility.yul\":2976:2997   */\n      tag_114\n        /* \"#utility.yul\":2991:2996   */\n      dup2\n        /* \"#utility.yul\":2976:2997   */\n      tag_59\n      jump\t// in\n    tag_114:\n        /* \"#utility.yul\":2969:2974   */\n      dup2\n        /* \"#utility.yul\":2966:2998   */\n      eq\n        /* \"#utility.yul\":2956:3016   */\n      tag_115\n      jumpi\n        /* \"#utility.yul\":3012:3013   */\n      0x00\n        /* \"#utility.yul\":3009:3010   */\n      dup1\n        /* \"#utility.yul\":3002:3014   */\n      revert\n        /* \"#utility.yul\":2956:3016   */\n    tag_115:\n        /* \"#utility.yul\":2906:3022   */\n      pop\n      jump\t// out\n        /* \"#utility.yul\":3028:3165   */\n    tag_61:\n        /* \"#utility.yul\":3082:3087   */\n      0x00\n        /* \"#utility.yul\":3113:3119   */\n      dup2\n        /* \"#utility.yul\":3107:3120   */\n      mload\n        /* \"#utility.yul\":3098:3120   */\n      swap1\n      pop\n        /* \"#utility.yul\":3129:3159   */\n      tag_117\n        /* \"#utility.yul\":3153:3158   */\n      dup2\n        /* \"#utility.yul\":3129:3159   */\n      tag_60\n      jump\t// in\n    tag_117:\n        /* \"#utility.yul\":3028:3165   */\n      swap3\n      swap2\n      pop\n      pop\n      jump\t// out\n        /* \"#utility.yul\":3171:3516   */\n    tag_14:\n        /* \"#utility.yul\":3238:3244   */\n      0x00\n        /* \"#utility.yul\":3287:3289   */\n      0x20\n        /* \"#utility.yul\":3275:3284   */\n      dup3\n        /* \"#utility.yul\":3266:3273   */\n      dup5\n        /* \"#utility.yul\":3262:3285   */\n      sub\n        /* \"#utility.yul\":3258:3290   */\n      slt\n        /* \"#utility.yul\":3255:3374   */\n      iszero\n      tag_119\n      jumpi\n        /* \"#utility.yul\":3293:3372   */\n      tag_120\n      tag_48\n      jump\t// in\n    tag_120:\n        /* \"#utility.yul\":3255:3374   */\n    tag_119:\n        /* \"#utility.yul\":3413:3414   */\n      0x00\n        /* \"#utility.yul\":3438:3499   */\n      tag_121\n        /* \"#utility.yul\":3491:3498   */\n      dup5\n        /* \"#utility.yul\":3482:3488   */\n      dup3\n        /* \"#utility.yul\":3471:3480   */\n      dup6\n        /* \"#utility.yul\":3467:3489   */\n      add\n        /* \"#utility.yul\":3438:3499   */\n      tag_61\n      jump\t// in\n    tag_121:\n        /* \"#utility.yul\":3428:3499   */\n      swap2\n      pop\n        /* \"#utility.yul\":3384:3509   */\n      pop\n        /* \"#utility.yul\":3171:3516   */\n      swap3\n      swap2\n      pop\n      pop\n      jump\t// out\n        /* \"#utility.yul\":3522:3854   */\n    tag_16:\n        /* \"#utility.yul\":3643:3647   */\n      0x00\n        /* \"#utility.yul\":3681:3683   */\n      0x40\n        /* \"#utility.yul\":3670:3679   */\n      dup3\n        /* \"#utility.yul\":3666:3684   */\n      add\n        /* \"#utility.yul\":3658:3684   */\n      swap1\n      pop\n        /* \"#utility.yul\":3694:3765   */\n      tag_123\n        /* \"#utility.yul\":3762:3763   */\n      0x00\n        /* \"#utility.yul\":3751:3760   */\n      dup4\n        /* \"#utility.yul\":3747:3764   */\n      add\n        /* \"#utility.yul\":3738:3744   */\n      dup6\n        /* \"#utility.yul\":3694:3765   */\n      tag_57\n      jump\t// in\n    tag_123:\n        /* \"#utility.yul\":3775:3847   */\n      tag_124\n        /* \"#utility.yul\":3843:3845   */\n      0x20\n        /* \"#utility.yul\":3832:3841   */\n      dup4\n        /* \"#utility.yul\":3828:3846   */\n      add\n        /* \"#utility.yul\":3819:3825   */\n      dup5\n        /* \"#utility.yul\":3775:3847   */\n      tag_58\n      jump\t// in\n    tag_124:\n        /* \"#utility.yul\":3522:3854   */\n      swap4\n      swap3\n      pop\n      pop\n      pop\n      jump\t// out\n        /* \"#utility.yul\":3860:4040   */\n    tag_24:\n        /* \"#utility.yul\":3908:3985   */\n      0x4e487b7100000000000000000000000000000000000000000000000000000000\n        /* \"#utility.yul\":3905:3906   */\n      0x00\n        /* \"#utility.yul\":3898:3986   */\n      mstore\n        /* \"#utility.yul\":4005:4009   */\n      0x41\n        /* \"#utility.yul\":4002:4003   */\n      0x04\n        /* \"#utility.yul\":3995:4010   */\n      mstore\n        /* \"#utility.yul\":4029:4033   */\n      0x24\n        /* \"#utility.yul\":4026:4027   */\n      0x00\n        /* \"#utility.yul\":4019:4034   */\n      revert\n        /* \"#utility.yul\":4046:4226   */\n    tag_28:\n        /* \"#utility.yul\":4094:4171   */\n      0x4e487b7100000000000000000000000000000000000000000000000000000000\n        /* \"#utility.yul\":4091:4092   */\n      0x00\n        /* \"#utility.yul\":4084:4172   */\n      mstore\n        /* \"#utility.yul\":4191:4195   */\n      0x32\n        /* \"#utility.yul\":4188:4189   */\n      0x04\n        /* \"#utility.yul\":4181:4196   */\n      mstore\n        /* \"#utility.yul\":4215:4219   */\n      0x24\n        /* \"#utility.yul\":4212:4213   */\n      0x00\n        /* \"#utility.yul\":4205:4220   */\n      revert\n        /* \"#utility.yul\":4232:4346   */\n    tag_62:\n        /* \"#utility.yul\":4299:4305   */\n      0x00\n        /* \"#utility.yul\":4333:4338   */\n      dup2\n        /* \"#utility.yul\":4327:4339   */\n      mload\n        /* \"#utility.yul\":4317:4339   */\n      swap1\n      pop\n        /* \"#utility.yul\":4232:4346   */\n      swap2\n      swap1\n      pop\n      jump\t// out\n        /* \"#utility.yul\":4352:4536   */\n    tag_63:\n        /* \"#utility.yul\":4451:4462   */\n      0x00\n        /* \"#utility.yul\":4485:4491   */\n      dup3\n        /* \"#utility.yul\":4480:4483   */\n      dup3\n        /* \"#utility.yul\":4473:4492   */\n      mstore\n        /* \"#utility.yul\":4525:4529   */\n      0x20\n        /* \"#utility.yul\":4520:4523   */\n      dup3\n        /* \"#utility.yul\":4516:4530   */\n      add\n        /* \"#utility.yul\":4501:4530   */\n      swap1\n      pop\n        /* \"#utility.yul\":4352:4536   */\n      swap3\n      swap2\n      pop\n      pop\n      jump\t// out\n        /* \"#utility.yul\":4542:4674   */\n    tag_64:\n        /* \"#utility.yul\":4609:4613   */\n      0x00\n        /* \"#utility.yul\":4632:4635   */\n      dup2\n        /* \"#utility.yul\":4624:4635   */\n      swap1\n      pop\n        /* \"#utility.yul\":4662:4666   */\n      0x20\n        /* \"#utility.yul\":4657:4660   */\n      dup3\n        /* \"#utility.yul\":4653:4667   */\n      add\n        /* \"#utility.yul\":4645:4667   */\n      swap1\n      pop\n        /* \"#utility.yul\":4542:4674   */\n      swap2\n      swap1\n      pop\n      jump\t// out\n        /* \"#utility.yul\":4680:4788   */\n    tag_65:\n        /* \"#utility.yul\":4757:4781   */\n      tag_131\n        /* \"#utility.yul\":4775:4780   */\n      dup2\n        /* \"#utility.yul\":4757:4781   */\n      tag_51\n      jump\t// in\n    tag_131:\n        /* \"#utility.yul\":4752:4755   */\n      dup3\n        /* \"#utility.yul\":4745:4782   */\n      mstore\n        /* \"#utility.yul\":4680:4788   */\n      pop\n      pop\n      jump\t// out\n        /* \"#utility.yul\":4794:4973   */\n    tag_66:\n        /* \"#utility.yul\":4863:4873   */\n      0x00\n        /* \"#utility.yul\":4884:4930   */\n      tag_133\n        /* \"#utility.yul\":4926:4929   */\n      dup4\n        /* \"#utility.yul\":4918:4924   */\n      dup4\n        /* \"#utility.yul\":4884:4930   */\n      tag_65\n      jump\t// in\n    tag_133:\n        /* \"#utility.yul\":4962:4966   */\n      0x20\n        /* \"#utility.yul\":4957:4960   */\n      dup4\n        /* \"#utility.yul\":4953:4967   */\n      add\n        /* \"#utility.yul\":4939:4967   */\n      swap1\n      pop\n        /* \"#utility.yul\":4794:4973   */\n      swap3\n      swap2\n      pop\n      pop\n      jump\t// out\n        /* \"#utility.yul\":4979:5092   */\n    tag_67:\n        /* \"#utility.yul\":5049:5053   */\n      0x00\n        /* \"#utility.yul\":5081:5085   */\n      0x20\n        /* \"#utility.yul\":5076:5079   */\n      dup3\n        /* \"#utility.yul\":5072:5086   */\n      add\n        /* \"#utility.yul\":5064:5086   */\n      swap1\n      pop\n        /* \"#utility.yul\":4979:5092   */\n      swap2\n      swap1\n      pop\n      jump\t// out\n        /* \"#utility.yul\":5128:5860   */\n    tag_68:\n        /* \"#utility.yul\":5247:5250   */\n      0x00\n        /* \"#utility.yul\":5276:5330   */\n      tag_136\n        /* \"#utility.yul\":5324:5329   */\n      dup3\n        /* \"#utility.yul\":5276:5330   */\n      tag_62\n      jump\t// in\n    tag_136:\n        /* \"#utility.yul\":5346:5432   */\n      tag_137\n        /* \"#utility.yul\":5425:5431   */\n      dup2\n        /* \"#utility.yul\":5420:5423   */\n      dup6\n        /* \"#utility.yul\":5346:5432   */\n      tag_63\n      jump\t// in\n    tag_137:\n        /* \"#utility.yul\":5339:5432   */\n      swap4\n      pop\n        /* \"#utility.yul\":5456:5512   */\n      tag_138\n        /* \"#utility.yul\":5506:5511   */\n      dup4\n        /* \"#utility.yul\":5456:5512   */\n      tag_64\n      jump\t// in\n    tag_138:\n        /* \"#utility.yul\":5535:5542   */\n      dup1\n        /* \"#utility.yul\":5566:5567   */\n      0x00\n        /* \"#utility.yul\":5551:5835   */\n    tag_139:\n        /* \"#utility.yul\":5576:5582   */\n      dup4\n        /* \"#utility.yul\":5573:5574   */\n      dup2\n        /* \"#utility.yul\":5570:5583   */\n      lt\n        /* \"#utility.yul\":5551:5835   */\n      iszero\n      tag_141\n      jumpi\n        /* \"#utility.yul\":5652:5658   */\n      dup2\n        /* \"#utility.yul\":5646:5659   */\n      mload\n        /* \"#utility.yul\":5679:5742   */\n      tag_142\n        /* \"#utility.yul\":5738:5741   */\n      dup9\n        /* \"#utility.yul\":5723:5736   */\n      dup3\n        /* \"#utility.yul\":5679:5742   */\n      tag_66\n      jump\t// in\n    tag_142:\n        /* \"#utility.yul\":5672:5742   */\n      swap8\n      pop\n        /* \"#utility.yul\":5765:5825   */\n      tag_143\n        /* \"#utility.yul\":5818:5824   */\n      dup4\n        /* \"#utility.yul\":5765:5825   */\n      tag_67\n      jump\t// in\n    tag_143:\n        /* \"#utility.yul\":5755:5825   */\n      swap3\n      pop\n        /* \"#utility.yul\":5611:5835   */\n      pop\n        /* \"#utility.yul\":5598:5599   */\n      0x01\n        /* \"#utility.yul\":5595:5596   */\n      dup2\n        /* \"#utility.yul\":5591:5600   */\n      add\n        /* \"#utility.yul\":5586:5600   */\n      swap1\n      pop\n        /* \"#utility.yul\":5551:5835   */\n      jump(tag_139)\n    tag_141:\n        /* \"#utility.yul\":5555:5569   */\n      pop\n        /* \"#utility.yul\":5851:5854   */\n      dup6\n        /* \"#utility.yul\":5844:5854   */\n      swap4\n      pop\n        /* \"#utility.yul\":5252:5860   */\n      pop\n      pop\n      pop\n        /* \"#utility.yul\":5128:5860   */\n      swap3\n      swap2\n      pop\n      pop\n      jump\t// out\n        /* \"#utility.yul\":5866:6681   */\n    tag_42:\n        /* \"#utility.yul\":6121:6125   */\n      0x00\n        /* \"#utility.yul\":6159:6162   */\n      0xa0\n        /* \"#utility.yul\":6148:6157   */\n      dup3\n        /* \"#utility.yul\":6144:6163   */\n      add\n        /* \"#utility.yul\":6136:6163   */\n      swap1\n      pop\n        /* \"#utility.yul\":6173:6244   */\n      tag_145\n        /* \"#utility.yul\":6241:6242   */\n      0x00\n        /* \"#utility.yul\":6230:6239   */\n      dup4\n        /* \"#utility.yul\":6226:6243   */\n      add\n        /* \"#utility.yul\":6217:6223   */\n      dup9\n        /* \"#utility.yul\":6173:6244   */\n      tag_58\n      jump\t// in\n    tag_145:\n        /* \"#utility.yul\":6254:6326   */\n      tag_146\n        /* \"#utility.yul\":6322:6324   */\n      0x20\n        /* \"#utility.yul\":6311:6320   */\n      dup4\n        /* \"#utility.yul\":6307:6325   */\n      add\n        /* \"#utility.yul\":6298:6304   */\n      dup8\n        /* \"#utility.yul\":6254:6326   */\n      tag_58\n      jump\t// in\n    tag_146:\n        /* \"#utility.yul\":6373:6382   */\n      dup2\n        /* \"#utility.yul\":6367:6371   */\n      dup2\n        /* \"#utility.yul\":6363:6383   */\n      sub\n        /* \"#utility.yul\":6358:6360   */\n      0x40\n        /* \"#utility.yul\":6347:6356   */\n      dup4\n        /* \"#utility.yul\":6343:6361   */\n      add\n        /* \"#utility.yul\":6336:6384   */\n      mstore\n        /* \"#utility.yul\":6401:6509   */\n      tag_147\n        /* \"#utility.yul\":6504:6508   */\n      dup2\n        /* \"#utility.yul\":6495:6501   */\n      dup7\n        /* \"#utility.yul\":6401:6509   */\n      tag_68\n      jump\t// in\n    tag_147:\n        /* \"#utility.yul\":6393:6509   */\n      swap1\n      pop\n        /* \"#utility.yul\":6519:6591   */\n      tag_148\n        /* \"#utility.yul\":6587:6589   */\n      0x60\n        /* \"#utility.yul\":6576:6585   */\n      dup4\n        /* \"#utility.yul\":6572:6590   */\n      add\n        /* \"#utility.yul\":6563:6569   */\n      dup6\n        /* \"#utility.yul\":6519:6591   */\n      tag_57\n      jump\t// in\n    tag_148:\n        /* \"#utility.yul\":6601:6674   */\n      tag_149\n        /* \"#utility.yul\":6669:6672   */\n      0x80\n        /* \"#utility.yul\":6658:6667   */\n      dup4\n        /* \"#utility.yul\":6654:6673   */\n      add\n        /* \"#utility.yul\":6645:6651   */\n      dup5\n        /* \"#utility.yul\":6601:6674   */\n      tag_58\n      jump\t// in\n    tag_149:\n        /* \"#utility.yul\":5866:6681   */\n      swap7\n      swap6\n      pop\n      pop\n      pop\n      pop\n      pop\n      pop\n      jump\t// out\n        /* \"#utility.yul\":6687:6804   */\n    tag_69:\n        /* \"#utility.yul\":6796:6797   */\n      0x00\n        /* \"#utility.yul\":6793:6794   */\n      dup1\n        /* \"#utility.yul\":6786:6798   */\n      revert\n        /* \"#utility.yul\":6810:6912   */\n    tag_70:\n        /* \"#utility.yul\":6851:6857   */\n      0x00\n        /* \"#utility.yul\":6902:6904   */\n      0x1f\n        /* \"#utility.yul\":6898:6905   */\n      not\n        /* \"#utility.yul\":6893:6895   */\n      0x1f\n        /* \"#utility.yul\":6886:6891   */\n      dup4\n        /* \"#utility.yul\":6882:6896   */\n      add\n        /* \"#utility.yul\":6878:6906   */\n      and\n        /* \"#utility.yul\":6868:6906   */\n      swap1\n      pop\n        /* \"#utility.yul\":6810:6912   */\n      swap2\n      swap1\n      pop\n      jump\t// out\n        /* \"#utility.yul\":6918:7199   */\n    tag_71:\n        /* \"#utility.yul\":7001:7028   */\n      tag_153\n        /* \"#utility.yul\":7023:7027   */\n      dup3\n        /* \"#utility.yul\":7001:7028   */\n      tag_70\n      jump\t// in\n    tag_153:\n        /* \"#utility.yul\":6993:6999   */\n      dup2\n        /* \"#utility.yul\":6989:7029   */\n      add\n        /* \"#utility.yul\":7131:7137   */\n      dup2\n        /* \"#utility.yul\":7119:7129   */\n      dup2\n        /* \"#utility.yul\":7116:7138   */\n      lt\n        /* \"#utility.yul\":7095:7113   */\n      0xffffffffffffffff\n        /* \"#utility.yul\":7083:7093   */\n      dup3\n        /* \"#utility.yul\":7080:7114   */\n      gt\n        /* \"#utility.yul\":7077:7139   */\n      or\n        /* \"#utility.yul\":7074:7162   */\n      iszero\n      tag_154\n      jumpi\n        /* \"#utility.yul\":7142:7160   */\n      tag_155\n      tag_24\n      jump\t// in\n    tag_155:\n        /* \"#utility.yul\":7074:7162   */\n    tag_154:\n        /* \"#utility.yul\":7182:7192   */\n      dup1\n        /* \"#utility.yul\":7178:7180   */\n      0x40\n        /* \"#utility.yul\":7171:7193   */\n      mstore\n        /* \"#utility.yul\":6961:7199   */\n      pop\n        /* \"#utility.yul\":6918:7199   */\n      pop\n      pop\n      jump\t// out\n        /* \"#utility.yul\":7205:7334   */\n    tag_72:\n        /* \"#utility.yul\":7239:7245   */\n      0x00\n        /* \"#utility.yul\":7266:7286   */\n      tag_157\n      tag_47\n      jump\t// in\n    tag_157:\n        /* \"#utility.yul\":7256:7286   */\n      swap1\n      pop\n        /* \"#utility.yul\":7295:7328   */\n      tag_158\n        /* \"#utility.yul\":7323:7327   */\n      dup3\n        /* \"#utility.yul\":7315:7321   */\n      dup3\n        /* \"#utility.yul\":7295:7328   */\n      tag_71\n      jump\t// in\n    tag_158:\n        /* \"#utility.yul\":7205:7334   */\n      swap2\n      swap1\n      pop\n      jump\t// out\n        /* \"#utility.yul\":7340:7651   */\n    tag_73:\n        /* \"#utility.yul\":7417:7421   */\n      0x00\n        /* \"#utility.yul\":7507:7525   */\n      0xffffffffffffffff\n        /* \"#utility.yul\":7499:7505   */\n      dup3\n        /* \"#utility.yul\":7496:7526   */\n      gt\n        /* \"#utility.yul\":7493:7549   */\n      iszero\n      tag_160\n      jumpi\n        /* \"#utility.yul\":7529:7547   */\n      tag_161\n      tag_24\n      jump\t// in\n    tag_161:\n        /* \"#utility.yul\":7493:7549   */\n    tag_160:\n        /* \"#utility.yul\":7579:7583   */\n      0x20\n        /* \"#utility.yul\":7571:7577   */\n      dup3\n        /* \"#utility.yul\":7567:7584   */\n      mul\n        /* \"#utility.yul\":7559:7584   */\n      swap1\n      pop\n        /* \"#utility.yul\":7639:7643   */\n      0x20\n        /* \"#utility.yul\":7633:7637   */\n      dup2\n        /* \"#utility.yul\":7629:7644   */\n      add\n        /* \"#utility.yul\":7621:7644   */\n      swap1\n      pop\n        /* \"#utility.yul\":7340:7651   */\n      swap2\n      swap1\n      pop\n      jump\t// out\n        /* \"#utility.yul\":7657:7774   */\n    tag_74:\n        /* \"#utility.yul\":7766:7767   */\n      0x00\n        /* \"#utility.yul\":7763:7764   */\n      dup1\n        /* \"#utility.yul\":7756:7768   */\n      revert\n        /* \"#utility.yul\":7780:7923   */\n    tag_75:\n        /* \"#utility.yul\":7837:7842   */\n      0x00\n        /* \"#utility.yul\":7868:7874   */\n      dup2\n        /* \"#utility.yul\":7862:7875   */\n      mload\n        /* \"#utility.yul\":7853:7875   */\n      swap1\n      pop\n        /* \"#utility.yul\":7884:7917   */\n      tag_164\n        /* \"#utility.yul\":7911:7916   */\n      dup2\n        /* \"#utility.yul\":7884:7917   */\n      tag_55\n      jump\t// in\n    tag_164:\n        /* \"#utility.yul\":7780:7923   */\n      swap3\n      swap2\n      pop\n      pop\n      jump\t// out\n        /* \"#utility.yul\":7946:8678   */\n    tag_76:\n        /* \"#utility.yul\":8053:8058   */\n      0x00\n        /* \"#utility.yul\":8078:8159   */\n      tag_166\n        /* \"#utility.yul\":8094:8158   */\n      tag_167\n        /* \"#utility.yul\":8151:8157   */\n      dup5\n        /* \"#utility.yul\":8094:8158   */\n      tag_73\n      jump\t// in\n    tag_167:\n        /* \"#utility.yul\":8078:8159   */\n      tag_72\n      jump\t// in\n    tag_166:\n        /* \"#utility.yul\":8069:8159   */\n      swap1\n      pop\n        /* \"#utility.yul\":8179:8184   */\n      dup1\n        /* \"#utility.yul\":8208:8214   */\n      dup4\n        /* \"#utility.yul\":8201:8206   */\n      dup3\n        /* \"#utility.yul\":8194:8215   */\n      mstore\n        /* \"#utility.yul\":8242:8246   */\n      0x20\n        /* \"#utility.yul\":8235:8240   */\n      dup3\n        /* \"#utility.yul\":8231:8247   */\n      add\n        /* \"#utility.yul\":8224:8247   */\n      swap1\n      pop\n        /* \"#utility.yul\":8295:8299   */\n      0x20\n        /* \"#utility.yul\":8287:8293   */\n      dup5\n        /* \"#utility.yul\":8283:8300   */\n      mul\n        /* \"#utility.yul\":8275:8281   */\n      dup4\n        /* \"#utility.yul\":8271:8301   */\n      add\n        /* \"#utility.yul\":8324:8327   */\n      dup6\n        /* \"#utility.yul\":8316:8322   */\n      dup2\n        /* \"#utility.yul\":8313:8328   */\n      gt\n        /* \"#utility.yul\":8310:8432   */\n      iszero\n      tag_168\n      jumpi\n        /* \"#utility.yul\":8343:8422   */\n      tag_169\n      tag_74\n      jump\t// in\n    tag_169:\n        /* \"#utility.yul\":8310:8432   */\n    tag_168:\n        /* \"#utility.yul\":8458:8464   */\n      dup4\n        /* \"#utility.yul\":8441:8672   */\n    tag_170:\n        /* \"#utility.yul\":8475:8481   */\n      dup2\n        /* \"#utility.yul\":8470:8473   */\n      dup2\n        /* \"#utility.yul\":8467:8482   */\n      lt\n        /* \"#utility.yul\":8441:8672   */\n      iszero\n      tag_172\n      jumpi\n        /* \"#utility.yul\":8550:8553   */\n      dup1\n        /* \"#utility.yul\":8579:8627   */\n      tag_173\n        /* \"#utility.yul\":8623:8626   */\n      dup9\n        /* \"#utility.yul\":8611:8621   */\n      dup3\n        /* \"#utility.yul\":8579:8627   */\n      tag_75\n      jump\t// in\n    tag_173:\n        /* \"#utility.yul\":8574:8577   */\n      dup5\n        /* \"#utility.yul\":8567:8628   */\n      mstore\n        /* \"#utility.yul\":8657:8661   */\n      0x20\n        /* \"#utility.yul\":8652:8655   */\n      dup5\n        /* \"#utility.yul\":8648:8662   */\n      add\n        /* \"#utility.yul\":8641:8662   */\n      swap4\n      pop\n        /* \"#utility.yul\":8517:8672   */\n      pop\n        /* \"#utility.yul\":8501:8505   */\n      0x20\n        /* \"#utility.yul\":8496:8499   */\n      dup2\n        /* \"#utility.yul\":8492:8506   */\n      add\n        /* \"#utility.yul\":8485:8506   */\n      swap1\n      pop\n        /* \"#utility.yul\":8441:8672   */\n      jump(tag_170)\n    tag_172:\n        /* \"#utility.yul\":8445:8466   */\n      pop\n        /* \"#utility.yul\":8059:8678   */\n      pop\n      pop\n        /* \"#utility.yul\":7946:8678   */\n      swap4\n      swap3\n      pop\n      pop\n      pop\n      jump\t// out\n        /* \"#utility.yul\":8701:9086   */\n    tag_77:\n        /* \"#utility.yul\":8783:8788   */\n      0x00\n        /* \"#utility.yul\":8832:8835   */\n      dup3\n        /* \"#utility.yul\":8825:8829   */\n      0x1f\n        /* \"#utility.yul\":8817:8823   */\n      dup4\n        /* \"#utility.yul\":8813:8830   */\n      add\n        /* \"#utility.yul\":8809:8836   */\n      slt\n        /* \"#utility.yul\":8799:8921   */\n      tag_175\n      jumpi\n        /* \"#utility.yul\":8840:8919   */\n      tag_176\n      tag_69\n      jump\t// in\n    tag_176:\n        /* \"#utility.yul\":8799:8921   */\n    tag_175:\n        /* \"#utility.yul\":8950:8956   */\n      dup2\n        /* \"#utility.yul\":8944:8957   */\n      mload\n        /* \"#utility.yul\":8975:9080   */\n      tag_177\n        /* \"#utility.yul\":9076:9079   */\n      dup5\n        /* \"#utility.yul\":9068:9074   */\n      dup3\n        /* \"#utility.yul\":9061:9065   */\n      0x20\n        /* \"#utility.yul\":9053:9059   */\n      dup7\n        /* \"#utility.yul\":9049:9066   */\n      add\n        /* \"#utility.yul\":8975:9080   */\n      tag_76\n      jump\t// in\n    tag_177:\n        /* \"#utility.yul\":8966:9080   */\n      swap2\n      pop\n        /* \"#utility.yul\":8789:9086   */\n      pop\n        /* \"#utility.yul\":8701:9086   */\n      swap3\n      swap2\n      pop\n      pop\n      jump\t// out\n        /* \"#utility.yul\":9092:9646   */\n    tag_46:\n        /* \"#utility.yul\":9187:9193   */\n      0x00\n        /* \"#utility.yul\":9236:9238   */\n      0x20\n        /* \"#utility.yul\":9224:9233   */\n      dup3\n        /* \"#utility.yul\":9215:9222   */\n      dup5\n        /* \"#utility.yul\":9211:9234   */\n      sub\n        /* \"#utility.yul\":9207:9239   */\n      slt\n        /* \"#utility.yul\":9204:9323   */\n      iszero\n      tag_179\n      jumpi\n        /* \"#utility.yul\":9242:9321   */\n      tag_180\n      tag_48\n      jump\t// in\n    tag_180:\n        /* \"#utility.yul\":9204:9323   */\n    tag_179:\n        /* \"#utility.yul\":9383:9384   */\n      0x00\n        /* \"#utility.yul\":9372:9381   */\n      dup3\n        /* \"#utility.yul\":9368:9385   */\n      add\n        /* \"#utility.yul\":9362:9386   */\n      mload\n        /* \"#utility.yul\":9413:9431   */\n      0xffffffffffffffff\n        /* \"#utility.yul\":9405:9411   */\n      dup2\n        /* \"#utility.yul\":9402:9432   */\n      gt\n        /* \"#utility.yul\":9399:9516   */\n      iszero\n      tag_181\n      jumpi\n        /* \"#utility.yul\":9435:9514   */\n      tag_182\n      tag_49\n      jump\t// in\n    tag_182:\n        /* \"#utility.yul\":9399:9516   */\n    tag_181:\n        /* \"#utility.yul\":9540:9629   */\n      tag_183\n        /* \"#utility.yul\":9621:9628   */\n      dup5\n        /* \"#utility.yul\":9612:9618   */\n      dup3\n        /* \"#utility.yul\":9601:9610   */\n      dup6\n        /* \"#utility.yul\":9597:9619   */\n      add\n        /* \"#utility.yul\":9540:9629   */\n      tag_77\n      jump\t// in\n    tag_183:\n        /* \"#utility.yul\":9530:9629   */\n      swap2\n      pop\n        /* \"#utility.yul\":9333:9639   */\n      pop\n        /* \"#utility.yul\":9092:9646   */\n      swap3\n      swap2\n      pop\n      pop\n      jump\t// out\n\n    auxdata: 0xa2646970667358221220e331e8114d6531e732f8a1b0f9c74d34aff52f246c4f2d6f57dcb48c3abc112864736f6c634300080e0033\n}\n",
				"bytecode": {
					"linkReferences": {},
					"object": "608060405234801561001057600080fd5b50610a25806100206000396000f3fe608060405234801561001057600080fd5b506004361061002b5760003560e01c8063d5bcb9b514610030575b600080fd5b61004a60048036038101906100459190610593565b61004c565b005b8473ffffffffffffffffffffffffffffffffffffffff166323b872dd3330866040518463ffffffff1660e01b81526004016100899392919061062c565b6020604051808303816000875af11580156100a8573d6000803e3d6000fd5b505050506040513d601f19601f820116820180604052508101906100cc919061069b565b508473ffffffffffffffffffffffffffffffffffffffff1663095ea7b3737a250d5630b4cf539739df2c5dacb4c659f2488d856040518363ffffffff1660e01b815260040161011c9291906106c8565b6020604051808303816000875af115801561013b573d6000803e3d6000fd5b505050506040513d601f19601f8201168201806040525081019061015f919061069b565b50606073c02aaa39b223fe8d0a0e5c4f27ead9083c756cc273ffffffffffffffffffffffffffffffffffffffff168673ffffffffffffffffffffffffffffffffffffffff1614806101ef575073c02aaa39b223fe8d0a0e5c4f27ead9083c756cc273ffffffffffffffffffffffffffffffffffffffff168573ffffffffffffffffffffffffffffffffffffffff16145b156102f757600267ffffffffffffffff81111561020f5761020e6106f1565b5b60405190808252806020026020018201604052801561023d5781602001602082028036833780820191505090505b509050858160008151811061025557610254610720565b5b602002602001019073ffffffffffffffffffffffffffffffffffffffff16908173ffffffffffffffffffffffffffffffffffffffff168152505073c02aaa39b223fe8d0a0e5c4f27ead9083c756cc2816001815181106102b8576102b7610720565b5b602002602001019073ffffffffffffffffffffffffffffffffffffffff16908173ffffffffffffffffffffffffffffffffffffffff1681525050610445565b600367ffffffffffffffff811115610312576103116106f1565b5b6040519080825280602002602001820160405280156103405781602001602082028036833780820191505090505b509050858160008151811061035857610357610720565b5b602002602001019073ffffffffffffffffffffffffffffffffffffffff16908173ffffffffffffffffffffffffffffffffffffffff168152505073c02aaa39b223fe8d0a0e5c4f27ead9083c756cc2816001815181106103bb576103ba610720565b5b602002602001019073ffffffffffffffffffffffffffffffffffffffff16908173ffffffffffffffffffffffffffffffffffffffff1681525050848160028151811061040a57610409610720565b5b602002602001019073ffffffffffffffffffffffffffffffffffffffff16908173ffffffffffffffffffffffffffffffffffffffff16815250505b737a250d5630b4cf539739df2c5dacb4c659f2488d73ffffffffffffffffffffffffffffffffffffffff1663dad4e24685858486426040518663ffffffff1660e01b815260040161049a95949392919061080d565b6000604051808303816000875af11580156104b9573d6000803e3d6000fd5b505050506040513d6000823e3d601f19601f820116820180604052508101906104e291906109a6565b50505050505050565b6000604051905090565b600080fd5b600080fd5b600073ffffffffffffffffffffffffffffffffffffffff82169050919050565b600061052a826104ff565b9050919050565b61053a8161051f565b811461054557600080fd5b50565b60008135905061055781610531565b92915050565b6000819050919050565b6105708161055d565b811461057b57600080fd5b50565b60008135905061058d81610567565b92915050565b600080600080600060a086880312156105af576105ae6104f5565b5b60006105bd88828901610548565b95505060206105ce88828901610548565b94505060406105df8882890161057e565b93505060606105f08882890161057e565b925050608061060188828901610548565b9150509295509295909350565b6106178161051f565b82525050565b6106268161055d565b82525050565b6000606082019050610641600083018661060e565b61064e602083018561060e565b61065b604083018461061d565b949350505050565b60008115159050919050565b61067881610663565b811461068357600080fd5b50565b6000815190506106958161066f565b92915050565b6000602082840312156106b1576106b06104f5565b5b60006106bf84828501610686565b91505092915050565b60006040820190506106dd600083018561060e565b6106ea602083018461061d565b9392505050565b7f4e487b7100000000000000000000000000000000000000000000000000000000600052604160045260246000fd5b7f4e487b7100000000000000000000000000000000000000000000000000000000600052603260045260246000fd5b600081519050919050565b600082825260208201905092915050565b6000819050602082019050919050565b6107848161051f565b82525050565b6000610796838361077b565b60208301905092915050565b6000602082019050919050565b60006107ba8261074f565b6107c4818561075a565b93506107cf8361076b565b8060005b838110156108005781516107e7888261078a565b97506107f2836107a2565b9250506001810190506107d3565b5085935050505092915050565b600060a082019050610822600083018861061d565b61082f602083018761061d565b818103604083015261084181866107af565b9050610850606083018561060e565b61085d608083018461061d565b9695505050505050565b600080fd5b6000601f19601f8301169050919050565b6108868261086c565b810181811067ffffffffffffffff821117156108a5576108a46106f1565b5b80604052505050565b60006108b86104eb565b90506108c4828261087d565b919050565b600067ffffffffffffffff8211156108e4576108e36106f1565b5b602082029050602081019050919050565b600080fd5b60008151905061090981610567565b92915050565b600061092261091d846108c9565b6108ae565b90508083825260208201905060208402830185811115610945576109446108f5565b5b835b8181101561096e578061095a88826108fa565b845260208401935050602081019050610947565b5050509392505050565b600082601f83011261098d5761098c610867565b5b815161099d84826020860161090f565b91505092915050565b6000602082840312156109bc576109bb6104f5565b5b600082015167ffffffffffffffff8111156109da576109d96104fa565b5b6109e684828501610978565b9150509291505056fea2646970667358221220e331e8114d6531e732f8a1b0f9c74d34aff52f246c4f2d6f57dcb48c3abc112864736f6c634300080e0033",
					"opcodes": "PUSH1 0x80 PUSH1 0x40 MSTORE CALLVALUE DUP1 ISZERO PUSH2 0x10 JUMPI PUSH1 0x0 DUP1 REVERT JUMPDEST POP PUSH2 0xA25 DUP1 PUSH2 0x20 PUSH1 0x0 CODECOPY PUSH1 0x0 RETURN INVALID PUSH1 0x80 PUSH1 0x40 MSTORE CALLVALUE DUP1 ISZERO PUSH2 0x10 JUMPI PUSH1 0x0 DUP1 REVERT JUMPDEST POP PUSH1 0x4 CALLDATASIZE LT PUSH2 0x2B JUMPI PUSH1 0x0 CALLDATALOAD PUSH1 0xE0 SHR DUP1 PUSH4 0xD5BCB9B5 EQ PUSH2 0x30 JUMPI JUMPDEST PUSH1 0x0 DUP1 REVERT JUMPDEST PUSH2 0x4A PUSH1 0x4 DUP1 CALLDATASIZE SUB DUP2 ADD SWAP1 PUSH2 0x45 SWAP2 SWAP1 PUSH2 0x593 JUMP JUMPDEST PUSH2 0x4C JUMP JUMPDEST STOP JUMPDEST DUP5 PUSH20 0xFFFFFFFFFFFFFFFFFFFFFFFFFFFFFFFFFFFFFFFF AND PUSH4 0x23B872DD CALLER ADDRESS DUP7 PUSH1 0x40 MLOAD DUP5 PUSH4 0xFFFFFFFF AND PUSH1 0xE0 SHL DUP2 MSTORE PUSH1 0x4 ADD PUSH2 0x89 SWAP4 SWAP3 SWAP2 SWAP1 PUSH2 0x62C JUMP JUMPDEST PUSH1 0x20 PUSH1 0x40 MLOAD DUP1 DUP4 SUB DUP2 PUSH1 0x0 DUP8 GAS CALL ISZERO DUP1 ISZERO PUSH2 0xA8 JUMPI RETURNDATASIZE PUSH1 0x0 DUP1 RETURNDATACOPY RETURNDATASIZE PUSH1 0x0 REVERT JUMPDEST POP POP POP POP PUSH1 0x40 MLOAD RETURNDATASIZE PUSH1 0x1F NOT PUSH1 0x1F DUP3 ADD AND DUP3 ADD DUP1 PUSH1 0x40 MSTORE POP DUP2 ADD SWAP1 PUSH2 0xCC SWAP2 SWAP1 PUSH2 0x69B JUMP JUMPDEST POP DUP5 PUSH20 0xFFFFFFFFFFFFFFFFFFFFFFFFFFFFFFFFFFFFFFFF AND PUSH4 0x95EA7B3 PUSH20 0x7A250D5630B4CF539739DF2C5DACB4C659F2488D DUP6 PUSH1 0x40 MLOAD DUP4 PUSH4 0xFFFFFFFF AND PUSH1 0xE0 SHL DUP2 MSTORE PUSH1 0x4 ADD PUSH2 0x11C SWAP3 SWAP2 SWAP1 PUSH2 0x6C8 JUMP JUMPDEST PUSH1 0x20 PUSH1 0x40 MLOAD DUP1 DUP4 SUB DUP2 PUSH1 0x0 DUP8 GAS CALL ISZERO DUP1 ISZERO PUSH2 0x13B JUMPI RETURNDATASIZE PUSH1 0x0 DUP1 RETURNDATACOPY RETURNDATASIZE PUSH1 0x0 REVERT JUMPDEST POP POP POP POP PUSH1 0x40 MLOAD RETURNDATASIZE PUSH1 0x1F NOT PUSH1 0x1F DUP3 ADD AND DUP3 ADD DUP1 PUSH1 0x40 MSTORE POP DUP2 ADD SWAP1 PUSH2 0x15F SWAP2 SWAP1 PUSH2 0x69B JUMP JUMPDEST POP PUSH1 0x60 PUSH20 0xC02AAA39B223FE8D0A0E5C4F27EAD9083C756CC2 PUSH20 0xFFFFFFFFFFFFFFFFFFFFFFFFFFFFFFFFFFFFFFFF AND DUP7 PUSH20 0xFFFFFFFFFFFFFFFFFFFFFFFFFFFFFFFFFFFFFFFF AND EQ DUP1 PUSH2 0x1EF JUMPI POP PUSH20 0xC02AAA39B223FE8D0A0E5C4F27EAD9083C756CC2 PUSH20 0xFFFFFFFFFFFFFFFFFFFFFFFFFFFFFFFFFFFFFFFF AND DUP6 PUSH20 0xFFFFFFFFFFFFFFFFFFFFFFFFFFFFFFFFFFFFFFFF AND EQ JUMPDEST ISZERO PUSH2 0x2F7 JUMPI PUSH1 0x2 PUSH8 0xFFFFFFFFFFFFFFFF DUP2 GT ISZERO PUSH2 0x20F JUMPI PUSH2 0x20E PUSH2 0x6F1 JUMP JUMPDEST JUMPDEST PUSH1 0x40 MLOAD SWAP1 DUP1 DUP3 MSTORE DUP1 PUSH1 0x20 MUL PUSH1 0x20 ADD DUP3 ADD PUSH1 0x40 MSTORE DUP1 ISZERO PUSH2 0x23D JUMPI DUP2 PUSH1 0x20 ADD PUSH1 0x20 DUP3 MUL DUP1 CALLDATASIZE DUP4 CALLDATACOPY DUP1 DUP3 ADD SWAP2 POP POP SWAP1 POP JUMPDEST POP SWAP1 POP DUP6 DUP2 PUSH1 0x0 DUP2 MLOAD DUP2 LT PUSH2 0x255 JUMPI PUSH2 0x254 PUSH2 0x720 JUMP JUMPDEST JUMPDEST PUSH1 0x20 MUL PUSH1 0x20 ADD ADD SWAP1 PUSH20 0xFFFFFFFFFFFFFFFFFFFFFFFFFFFFFFFFFFFFFFFF AND SWAP1 DUP2 PUSH20 0xFFFFFFFFFFFFFFFFFFFFFFFFFFFFFFFFFFFFFFFF AND DUP2 MSTORE POP POP PUSH20 0xC02AAA39B223FE8D0A0E5C4F27EAD9083C756CC2 DUP2 PUSH1 0x1 DUP2 MLOAD DUP2 LT PUSH2 0x2B8 JUMPI PUSH2 0x2B7 PUSH2 0x720 JUMP JUMPDEST JUMPDEST PUSH1 0x20 MUL PUSH1 0x20 ADD ADD SWAP1 PUSH20 0xFFFFFFFFFFFFFFFFFFFFFFFFFFFFFFFFFFFFFFFF AND SWAP1 DUP2 PUSH20 0xFFFFFFFFFFFFFFFFFFFFFFFFFFFFFFFFFFFFFFFF AND DUP2 MSTORE POP POP PUSH2 0x445 JUMP JUMPDEST PUSH1 0x3 PUSH8 0xFFFFFFFFFFFFFFFF DUP2 GT ISZERO PUSH2 0x312 JUMPI PUSH2 0x311 PUSH2 0x6F1 JUMP JUMPDEST JUMPDEST PUSH1 0x40 MLOAD SWAP1 DUP1 DUP3 MSTORE DUP1 PUSH1 0x20 MUL PUSH1 0x20 ADD DUP3 ADD PUSH1 0x40 MSTORE DUP1 ISZERO PUSH2 0x340 JUMPI DUP2 PUSH1 0x20 ADD PUSH1 0x20 DUP3 MUL DUP1 CALLDATASIZE DUP4 CALLDATACOPY DUP1 DUP3 ADD SWAP2 POP POP SWAP1 POP JUMPDEST POP SWAP1 POP DUP6 DUP2 PUSH1 0x0 DUP2 MLOAD DUP2 LT PUSH2 0x358 JUMPI PUSH2 0x357 PUSH2 0x720 JUMP JUMPDEST JUMPDEST PUSH1 0x20 MUL PUSH1 0x20 ADD ADD SWAP1 PUSH20 0xFFFFFFFFFFFFFFFFFFFFFFFFFFFFFFFFFFFFFFFF AND SWAP1 DUP2 PUSH20 0xFFFFFFFFFFFFFFFFFFFFFFFFFFFFFFFFFFFFFFFF AND DUP2 MSTORE POP POP PUSH20 0xC02AAA39B223FE8D0A0E5C4F27EAD9083C756CC2 DUP2 PUSH1 0x1 DUP2 MLOAD DUP2 LT PUSH2 0x3BB JUMPI PUSH2 0x3BA PUSH2 0x720 JUMP JUMPDEST JUMPDEST PUSH1 0x20 MUL PUSH1 0x20 ADD ADD SWAP1 PUSH20 0xFFFFFFFFFFFFFFFFFFFFFFFFFFFFFFFFFFFFFFFF AND SWAP1 DUP2 PUSH20 0xFFFFFFFFFFFFFFFFFFFFFFFFFFFFFFFFFFFFFFFF AND DUP2 MSTORE POP POP DUP5 DUP2 PUSH1 0x2 DUP2 MLOAD DUP2 LT PUSH2 0x40A JUMPI PUSH2 0x409 PUSH2 0x720 JUMP JUMPDEST JUMPDEST PUSH1 0x20 MUL PUSH1 0x20 ADD ADD SWAP1 PUSH20 0xFFFFFFFFFFFFFFFFFFFFFFFFFFFFFFFFFFFFFFFF AND SWAP1 DUP2 PUSH20 0xFFFFFFFFFFFFFFFFFFFFFFFFFFFFFFFFFFFFFFFF AND DUP2 MSTORE POP POP JUMPDEST PUSH20 0x7A250D5630B4CF539739DF2C5DACB4C659F2488D PUSH20 0xFFFFFFFFFFFFFFFFFFFFFFFFFFFFFFFFFFFFFFFF AND PUSH4 0xDAD4E246 DUP6 DUP6 DUP5 DUP7 TIMESTAMP PUSH1 0x40 MLOAD DUP7 PUSH4 0xFFFFFFFF AND PUSH1 0xE0 SHL DUP2 MSTORE PUSH1 0x4 ADD PUSH2 0x49A SWAP6 SWAP5 SWAP4 SWAP3 SWAP2 SWAP1 PUSH2 0x80D JUMP JUMPDEST PUSH1 0x0 PUSH1 0x40 MLOAD DUP1 DUP4 SUB DUP2 PUSH1 0x0 DUP8 GAS CALL ISZERO DUP1 ISZERO PUSH2 0x4B9 JUMPI RETURNDATASIZE PUSH1 0x0 DUP1 RETURNDATACOPY RETURNDATASIZE PUSH1 0x0 REVERT JUMPDEST POP POP POP POP PUSH1 0x40 MLOAD RETURNDATASIZE PUSH1 0x0 DUP3 RETURNDATACOPY RETURNDATASIZE PUSH1 0x1F NOT PUSH1 0x1F DUP3 ADD AND DUP3 ADD DUP1 PUSH1 0x40 MSTORE POP DUP2 ADD SWAP1 PUSH2 0x4E2 SWAP2 SWAP1 PUSH2 0x9A6 JUMP JUMPDEST POP POP POP POP POP POP POP JUMP JUMPDEST PUSH1 0x0 PUSH1 0x40 MLOAD SWAP1 POP SWAP1 JUMP JUMPDEST PUSH1 0x0 DUP1 REVERT JUMPDEST PUSH1 0x0 DUP1 REVERT JUMPDEST PUSH1 0x0 PUSH20 0xFFFFFFFFFFFFFFFFFFFFFFFFFFFFFFFFFFFFFFFF DUP3 AND SWAP1 POP SWAP2 SWAP1 POP JUMP JUMPDEST PUSH1 0x0 PUSH2 0x52A DUP3 PUSH2 0x4FF JUMP JUMPDEST SWAP1 POP SWAP2 SWAP1 POP JUMP JUMPDEST PUSH2 0x53A DUP2 PUSH2 0x51F JUMP JUMPDEST DUP2 EQ PUSH2 0x545 JUMPI PUSH1 0x0 DUP1 REVERT JUMPDEST POP JUMP JUMPDEST PUSH1 0x0 DUP2 CALLDATALOAD SWAP1 POP PUSH2 0x557 DUP2 PUSH2 0x531 JUMP JUMPDEST SWAP3 SWAP2 POP POP JUMP JUMPDEST PUSH1 0x0 DUP2 SWAP1 POP SWAP2 SWAP1 POP JUMP JUMPDEST PUSH2 0x570 DUP2 PUSH2 0x55D JUMP JUMPDEST DUP2 EQ PUSH2 0x57B JUMPI PUSH1 0x0 DUP1 REVERT JUMPDEST POP JUMP JUMPDEST PUSH1 0x0 DUP2 CALLDATALOAD SWAP1 POP PUSH2 0x58D DUP2 PUSH2 0x567 JUMP JUMPDEST SWAP3 SWAP2 POP POP JUMP JUMPDEST PUSH1 0x0 DUP1 PUSH1 0x0 DUP1 PUSH1 0x0 PUSH1 0xA0 DUP7 DUP9 SUB SLT ISZERO PUSH2 0x5AF JUMPI PUSH2 0x5AE PUSH2 0x4F5 JUMP JUMPDEST JUMPDEST PUSH1 0x0 PUSH2 0x5BD DUP9 DUP3 DUP10 ADD PUSH2 0x548 JUMP JUMPDEST SWAP6 POP POP PUSH1 0x20 PUSH2 0x5CE DUP9 DUP3 DUP10 ADD PUSH2 0x548 JUMP JUMPDEST SWAP5 POP POP PUSH1 0x40 PUSH2 0x5DF DUP9 DUP3 DUP10 ADD PUSH2 0x57E JUMP JUMPDEST SWAP4 POP POP PUSH1 0x60 PUSH2 0x5F0 DUP9 DUP3 DUP10 ADD PUSH2 0x57E JUMP JUMPDEST SWAP3 POP POP PUSH1 0x80 PUSH2 0x601 DUP9 DUP3 DUP10 ADD PUSH2 0x548 JUMP JUMPDEST SWAP2 POP POP SWAP3 SWAP6 POP SWAP3 SWAP6 SWAP1 SWAP4 POP JUMP JUMPDEST PUSH2 0x617 DUP2 PUSH2 0x51F JUMP JUMPDEST DUP3 MSTORE POP POP JUMP JUMPDEST PUSH2 0x626 DUP2 PUSH2 0x55D JUMP JUMPDEST DUP3 MSTORE POP POP JUMP JUMPDEST PUSH1 0x0 PUSH1 0x60 DUP3 ADD SWAP1 POP PUSH2 0x641 PUSH1 0x0 DUP4 ADD DUP7 PUSH2 0x60E JUMP JUMPDEST PUSH2 0x64E PUSH1 0x20 DUP4 ADD DUP6 PUSH2 0x60E JUMP JUMPDEST PUSH2 0x65B PUSH1 0x40 DUP4 ADD DUP5 PUSH2 0x61D JUMP JUMPDEST SWAP5 SWAP4 POP POP POP POP JUMP JUMPDEST PUSH1 0x0 DUP2 ISZERO ISZERO SWAP1 POP SWAP2 SWAP1 POP JUMP JUMPDEST PUSH2 0x678 DUP2 PUSH2 0x663 JUMP JUMPDEST DUP2 EQ PUSH2 0x683 JUMPI PUSH1 0x0 DUP1 REVERT JUMPDEST POP JUMP JUMPDEST PUSH1 0x0 DUP2 MLOAD SWAP1 POP PUSH2 0x695 DUP2 PUSH2 0x66F JUMP JUMPDEST SWAP3 SWAP2 POP POP JUMP JUMPDEST PUSH1 0x0 PUSH1 0x20 DUP3 DUP5 SUB SLT ISZERO PUSH2 0x6B1 JUMPI PUSH2 0x6B0 PUSH2 0x4F5 JUMP JUMPDEST JUMPDEST PUSH1 0x0 PUSH2 0x6BF DUP5 DUP3 DUP6 ADD PUSH2 0x686 JUMP JUMPDEST SWAP2 POP POP SWAP3 SWAP2 POP POP JUMP JUMPDEST PUSH1 0x0 PUSH1 0x40 DUP3 ADD SWAP1 POP PUSH2 0x6DD PUSH1 0x0 DUP4 ADD DUP6 PUSH2 0x60E JUMP JUMPDEST PUSH2 0x6EA PUSH1 0x20 DUP4 ADD DUP5 PUSH2 0x61D JUMP JUMPDEST SWAP4 SWAP3 POP POP POP JUMP JUMPDEST PUSH32 0x4E487B7100000000000000000000000000000000000000000000000000000000 PUSH1 0x0 MSTORE PUSH1 0x41 PUSH1 0x4 MSTORE PUSH1 0x24 PUSH1 0x0 REVERT JUMPDEST PUSH32 0x4E487B7100000000000000000000000000000000000000000000000000000000 PUSH1 0x0 MSTORE PUSH1 0x32 PUSH1 0x4 MSTORE PUSH1 0x24 PUSH1 0x0 REVERT JUMPDEST PUSH1 0x0 DUP2 MLOAD SWAP1 POP SWAP2 SWAP1 POP JUMP JUMPDEST PUSH1 0x0 DUP3 DUP3 MSTORE PUSH1 0x20 DUP3 ADD SWAP1 POP SWAP3 SWAP2 POP POP JUMP JUMPDEST PUSH1 0x0 DUP2 SWAP1 POP PUSH1 0x20 DUP3 ADD SWAP1 POP SWAP2 SWAP1 POP JUMP JUMPDEST PUSH2 0x784 DUP2 PUSH2 0x51F JUMP JUMPDEST DUP3 MSTORE POP POP JUMP JUMPDEST PUSH1 0x0 PUSH2 0x796 DUP4 DUP4 PUSH2 0x77B JUMP JUMPDEST PUSH1 0x20 DUP4 ADD SWAP1 POP SWAP3 SWAP2 POP POP JUMP JUMPDEST PUSH1 0x0 PUSH1 0x20 DUP3 ADD SWAP1 POP SWAP2 SWAP1 POP JUMP JUMPDEST PUSH1 0x0 PUSH2 0x7BA DUP3 PUSH2 0x74F JUMP JUMPDEST PUSH2 0x7C4 DUP2 DUP6 PUSH2 0x75A JUMP JUMPDEST SWAP4 POP PUSH2 0x7CF DUP4 PUSH2 0x76B JUMP JUMPDEST DUP1 PUSH1 0x0 JUMPDEST DUP4 DUP2 LT ISZERO PUSH2 0x800 JUMPI DUP2 MLOAD PUSH2 0x7E7 DUP9 DUP3 PUSH2 0x78A JUMP JUMPDEST SWAP8 POP PUSH2 0x7F2 DUP4 PUSH2 0x7A2 JUMP JUMPDEST SWAP3 POP POP PUSH1 0x1 DUP2 ADD SWAP1 POP PUSH2 0x7D3 JUMP JUMPDEST POP DUP6 SWAP4 POP POP POP POP SWAP3 SWAP2 POP POP JUMP JUMPDEST PUSH1 0x0 PUSH1 0xA0 DUP3 ADD SWAP1 POP PUSH2 0x822 PUSH1 0x0 DUP4 ADD DUP9 PUSH2 0x61D JUMP JUMPDEST PUSH2 0x82F PUSH1 0x20 DUP4 ADD DUP8 PUSH2 0x61D JUMP JUMPDEST DUP2 DUP2 SUB PUSH1 0x40 DUP4 ADD MSTORE PUSH2 0x841 DUP2 DUP7 PUSH2 0x7AF JUMP JUMPDEST SWAP1 POP PUSH2 0x850 PUSH1 0x60 DUP4 ADD DUP6 PUSH2 0x60E JUMP JUMPDEST PUSH2 0x85D PUSH1 0x80 DUP4 ADD DUP5 PUSH2 0x61D JUMP JUMPDEST SWAP7 SWAP6 POP POP POP POP POP POP JUMP JUMPDEST PUSH1 0x0 DUP1 REVERT JUMPDEST PUSH1 0x0 PUSH1 0x1F NOT PUSH1 0x1F DUP4 ADD AND SWAP1 POP SWAP2 SWAP1 POP JUMP JUMPDEST PUSH2 0x886 DUP3 PUSH2 0x86C JUMP JUMPDEST DUP2 ADD DUP2 DUP2 LT PUSH8 0xFFFFFFFFFFFFFFFF DUP3 GT OR ISZERO PUSH2 0x8A5 JUMPI PUSH2 0x8A4 PUSH2 0x6F1 JUMP JUMPDEST JUMPDEST DUP1 PUSH1 0x40 MSTORE POP POP POP JUMP JUMPDEST PUSH1 0x0 PUSH2 0x8B8 PUSH2 0x4EB JUMP JUMPDEST SWAP1 POP PUSH2 0x8C4 DUP3 DUP3 PUSH2 0x87D JUMP JUMPDEST SWAP2 SWAP1 POP JUMP JUMPDEST PUSH1 0x0 PUSH8 0xFFFFFFFFFFFFFFFF DUP3 GT ISZERO PUSH2 0x8E4 JUMPI PUSH2 0x8E3 PUSH2 0x6F1 JUMP JUMPDEST JUMPDEST PUSH1 0x20 DUP3 MUL SWAP1 POP PUSH1 0x20 DUP2 ADD SWAP1 POP SWAP2 SWAP1 POP JUMP JUMPDEST PUSH1 0x0 DUP1 REVERT JUMPDEST PUSH1 0x0 DUP2 MLOAD SWAP1 POP PUSH2 0x909 DUP2 PUSH2 0x567 JUMP JUMPDEST SWAP3 SWAP2 POP POP JUMP JUMPDEST PUSH1 0x0 PUSH2 0x922 PUSH2 0x91D DUP5 PUSH2 0x8C9 JUMP JUMPDEST PUSH2 0x8AE JUMP JUMPDEST SWAP1 POP DUP1 DUP4 DUP3 MSTORE PUSH1 0x20 DUP3 ADD SWAP1 POP PUSH1 0x20 DUP5 MUL DUP4 ADD DUP6 DUP2 GT ISZERO PUSH2 0x945 JUMPI PUSH2 0x944 PUSH2 0x8F5 JUMP JUMPDEST JUMPDEST DUP4 JUMPDEST DUP2 DUP2 LT ISZERO PUSH2 0x96E JUMPI DUP1 PUSH2 0x95A DUP9 DUP3 PUSH2 0x8FA JUMP JUMPDEST DUP5 MSTORE PUSH1 0x20 DUP5 ADD SWAP4 POP POP PUSH1 0x20 DUP2 ADD SWAP1 POP PUSH2 0x947 JUMP JUMPDEST POP POP POP SWAP4 SWAP3 POP POP POP JUMP JUMPDEST PUSH1 0x0 DUP3 PUSH1 0x1F DUP4 ADD SLT PUSH2 0x98D JUMPI PUSH2 0x98C PUSH2 0x867 JUMP JUMPDEST JUMPDEST DUP2 MLOAD PUSH2 0x99D DUP5 DUP3 PUSH1 0x20 DUP7 ADD PUSH2 0x90F JUMP JUMPDEST SWAP2 POP POP SWAP3 SWAP2 POP POP JUMP JUMPDEST PUSH1 0x0 PUSH1 0x20 DUP3 DUP5 SUB SLT ISZERO PUSH2 0x9BC JUMPI PUSH2 0x9BB PUSH2 0x4F5 JUMP JUMPDEST JUMPDEST PUSH1 0x0 DUP3 ADD MLOAD PUSH8 0xFFFFFFFFFFFFFFFF DUP2 GT ISZERO PUSH2 0x9DA JUMPI PUSH2 0x9D9 PUSH2 0x4FA JUMP JUMPDEST JUMPDEST PUSH2 0x9E6 DUP5 DUP3 DUP6 ADD PUSH2 0x978 JUMP JUMPDEST SWAP2 POP POP SWAP3 SWAP2 POP POP JUMP INVALID LOG2 PUSH5 0x6970667358 0x22 SLT KECCAK256 0xE3 BALANCE 0xE8 GT 0x4D PUSH6 0x31E732F8A1B0 0xF9 0xC7 0x4D CALLVALUE 0xAF CREATE2 0x2F 0x24 PUSH13 0x4F2D6F57DCB48C3ABC11286473 PUSH16 0x6C634300080E00330000000000000000 "
				},
				"gasEstimates": {
					"creation": {
						"codeDepositCost": "519400",
						"executionCost": "556",
						"totalCost": "519956"
					},
					"external": {
						"swap(address,address,uint256,uint256,address)": "infinite"
					}
				},
				"methodIdentifiers": {
					"swap(address,address,uint256,uint256,address)": "d5bcb9b5"
				}
			},
			"storageLayout": {
				"storage": [],
				"types": null
			},
			"userdoc": {
				"kind": "user",
				"methods": {},
				"version": 1
			}
		}
	}
}