{
	"solidity-study-demo/thirdPart/Bank.sol": {
		"Logger": {
			"abi": [
				{
					"anonymous": false,
					"inputs": [
						{
							"indexed": false,
							"internalType": "address",
							"name": "caller",
							"type": "address"
						},
						{
							"indexed": false,
							"internalType": "uint256",
							"name": "amount",
							"type": "uint256"
						},
						{
							"indexed": false,
							"internalType": "string",
							"name": "action",
							"type": "string"
						}
					],
					"name": "Log",
					"type": "event"
				},
				{
					"inputs": [
						{
							"internalType": "address",
							"name": "_caller",
							"type": "address"
						},
						{
							"internalType": "uint256",
							"name": "_amount",
							"type": "uint256"
						},
						{
							"internalType": "string",
							"name": "_action",
							"type": "string"
						}
					],
					"name": "log",
					"outputs": [],
					"stateMutability": "nonpayable",
					"type": "function"
				}
			],
			"devdoc": {
				"kind": "dev",
				"methods": {},
				"version": 1
			},
			"evm": {
				"assembly": "    /* \"solidity-study-demo/thirdPart/Bank.sol\":682:930  contract Logger {... */\n  mstore(0x40, 0x80)\n  callvalue\n  dup1\n  iszero\n  tag_1\n  jumpi\n  0x00\n  dup1\n  revert\ntag_1:\n  pop\n  dataSize(sub_0)\n  dup1\n  dataOffset(sub_0)\n  0x00\n  codecopy\n  0x00\n  return\nstop\n\nsub_0: assembly {\n        /* \"solidity-study-demo/thirdPart/Bank.sol\":682:930  contract Logger {... */\n      mstore(0x40, 0x80)\n      callvalue\n      dup1\n      iszero\n      tag_1\n      jumpi\n      0x00\n      dup1\n      revert\n    tag_1:\n      pop\n      jumpi(tag_2, lt(calldatasize, 0x04))\n      shr(0xe0, calldataload(0x00))\n      dup1\n      0xa1f2e8aa\n      eq\n      tag_3\n      jumpi\n    tag_2:\n      0x00\n      dup1\n      revert\n        /* \"solidity-study-demo/thirdPart/Bank.sol\":765:927  function log(... */\n    tag_3:\n      tag_4\n      0x04\n      dup1\n      calldatasize\n      sub\n      dup2\n      add\n      swap1\n      tag_5\n      swap2\n      swap1\n      tag_6\n      jump\t// in\n    tag_5:\n      tag_7\n      jump\t// in\n    tag_4:\n      stop\n    tag_7:\n        /* \"solidity-study-demo/thirdPart/Bank.sol\":889:919  Log(_caller, _amount, _action) */\n      0x4e3358e5bdb38f499a83fbcd33d16343569f3b6fe53021022dede6364017b4a8\n        /* \"solidity-study-demo/thirdPart/Bank.sol\":893:900  _caller */\n      dup4\n        /* \"solidity-study-demo/thirdPart/Bank.sol\":902:909  _amount */\n      dup4\n        /* \"solidity-study-demo/thirdPart/Bank.sol\":911:918  _action */\n      dup4\n        /* \"solidity-study-demo/thirdPart/Bank.sol\":889:919  Log(_caller, _amount, _action) */\n      mload(0x40)\n      tag_9\n      swap4\n      swap3\n      swap2\n      swap1\n      tag_10\n      jump\t// in\n    tag_9:\n      mload(0x40)\n      dup1\n      swap2\n      sub\n      swap1\n      log1\n        /* \"solidity-study-demo/thirdPart/Bank.sol\":765:927  function log(... */\n      pop\n      pop\n      pop\n      jump\t// out\n        /* \"#utility.yul\":7:82   */\n    tag_11:\n        /* \"#utility.yul\":40:46   */\n      0x00\n        /* \"#utility.yul\":73:75   */\n      0x40\n        /* \"#utility.yul\":67:76   */\n      mload\n        /* \"#utility.yul\":57:76   */\n      swap1\n      pop\n        /* \"#utility.yul\":7:82   */\n      swap1\n      jump\t// out\n        /* \"#utility.yul\":88:205   */\n    tag_12:\n        /* \"#utility.yul\":197:198   */\n      0x00\n        /* \"#utility.yul\":194:195   */\n      dup1\n        /* \"#utility.yul\":187:199   */\n      revert\n        /* \"#utility.yul\":211:328   */\n    tag_13:\n        /* \"#utility.yul\":320:321   */\n      0x00\n        /* \"#utility.yul\":317:318   */\n      dup1\n        /* \"#utility.yul\":310:322   */\n      revert\n        /* \"#utility.yul\":334:460   */\n    tag_14:\n        /* \"#utility.yul\":371:378   */\n      0x00\n        /* \"#utility.yul\":411:453   */\n      0xffffffffffffffffffffffffffffffffffffffff\n        /* \"#utility.yul\":404:409   */\n      dup3\n        /* \"#utility.yul\":400:454   */\n      and\n        /* \"#utility.yul\":389:454   */\n      swap1\n      pop\n        /* \"#utility.yul\":334:460   */\n      swap2\n      swap1\n      pop\n      jump\t// out\n        /* \"#utility.yul\":466:562   */\n    tag_15:\n        /* \"#utility.yul\":503:510   */\n      0x00\n        /* \"#utility.yul\":532:556   */\n      tag_43\n        /* \"#utility.yul\":550:555   */\n      dup3\n        /* \"#utility.yul\":532:556   */\n      tag_14\n      jump\t// in\n    tag_43:\n        /* \"#utility.yul\":521:556   */\n      swap1\n      pop\n        /* \"#utility.yul\":466:562   */\n      swap2\n      swap1\n      pop\n      jump\t// out\n        /* \"#utility.yul\":568:690   */\n    tag_16:\n        /* \"#utility.yul\":641:665   */\n      tag_45\n        /* \"#utility.yul\":659:664   */\n      dup2\n        /* \"#utility.yul\":641:665   */\n      tag_15\n      jump\t// in\n    tag_45:\n        /* \"#utility.yul\":634:639   */\n      dup2\n        /* \"#utility.yul\":631:666   */\n      eq\n        /* \"#utility.yul\":621:684   */\n      tag_46\n      jumpi\n        /* \"#utility.yul\":680:681   */\n      0x00\n        /* \"#utility.yul\":677:678   */\n      dup1\n        /* \"#utility.yul\":670:682   */\n      revert\n        /* \"#utility.yul\":621:684   */\n    tag_46:\n        /* \"#utility.yul\":568:690   */\n      pop\n      jump\t// out\n        /* \"#utility.yul\":696:835   */\n    tag_17:\n        /* \"#utility.yul\":742:747   */\n      0x00\n        /* \"#utility.yul\":780:786   */\n      dup2\n        /* \"#utility.yul\":767:787   */\n      calldataload\n        /* \"#utility.yul\":758:787   */\n      swap1\n      pop\n        /* \"#utility.yul\":796:829   */\n      tag_48\n        /* \"#utility.yul\":823:828   */\n      dup2\n        /* \"#utility.yul\":796:829   */\n      tag_16\n      jump\t// in\n    tag_48:\n        /* \"#utility.yul\":696:835   */\n      swap3\n      swap2\n      pop\n      pop\n      jump\t// out\n        /* \"#utility.yul\":841:918   */\n    tag_18:\n        /* \"#utility.yul\":878:885   */\n      0x00\n        /* \"#utility.yul\":907:912   */\n      dup2\n        /* \"#utility.yul\":896:912   */\n      swap1\n      pop\n        /* \"#utility.yul\":841:918   */\n      swap2\n      swap1\n      pop\n      jump\t// out\n        /* \"#utility.yul\":924:1046   */\n    tag_19:\n        /* \"#utility.yul\":997:1021   */\n      tag_51\n        /* \"#utility.yul\":1015:1020   */\n      dup2\n        /* \"#utility.yul\":997:1021   */\n      tag_18\n      jump\t// in\n    tag_51:\n        /* \"#utility.yul\":990:995   */\n      dup2\n        /* \"#utility.yul\":987:1022   */\n      eq\n        /* \"#utility.yul\":977:1040   */\n      tag_52\n      jumpi\n        /* \"#utility.yul\":1036:1037   */\n      0x00\n        /* \"#utility.yul\":1033:1034   */\n      dup1\n        /* \"#utility.yul\":1026:1038   */\n      revert\n        /* \"#utility.yul\":977:1040   */\n    tag_52:\n        /* \"#utility.yul\":924:1046   */\n      pop\n      jump\t// out\n        /* \"#utility.yul\":1052:1191   */\n    tag_20:\n        /* \"#utility.yul\":1098:1103   */\n      0x00\n        /* \"#utility.yul\":1136:1142   */\n      dup2\n        /* \"#utility.yul\":1123:1143   */\n      calldataload\n        /* \"#utility.yul\":1114:1143   */\n      swap1\n      pop\n        /* \"#utility.yul\":1152:1185   */\n      tag_54\n        /* \"#utility.yul\":1179:1184   */\n      dup2\n        /* \"#utility.yul\":1152:1185   */\n      tag_19\n      jump\t// in\n    tag_54:\n        /* \"#utility.yul\":1052:1191   */\n      swap3\n      swap2\n      pop\n      pop\n      jump\t// out\n        /* \"#utility.yul\":1197:1314   */\n    tag_21:\n        /* \"#utility.yul\":1306:1307   */\n      0x00\n        /* \"#utility.yul\":1303:1304   */\n      dup1\n        /* \"#utility.yul\":1296:1308   */\n      revert\n        /* \"#utility.yul\":1320:1437   */\n    tag_22:\n        /* \"#utility.yul\":1429:1430   */\n      0x00\n        /* \"#utility.yul\":1426:1427   */\n      dup1\n        /* \"#utility.yul\":1419:1431   */\n      revert\n        /* \"#utility.yul\":1443:1545   */\n    tag_23:\n        /* \"#utility.yul\":1484:1490   */\n      0x00\n        /* \"#utility.yul\":1535:1537   */\n      0x1f\n        /* \"#utility.yul\":1531:1538   */\n      not\n        /* \"#utility.yul\":1526:1528   */\n      0x1f\n        /* \"#utility.yul\":1519:1524   */\n      dup4\n        /* \"#utility.yul\":1515:1529   */\n      add\n        /* \"#utility.yul\":1511:1539   */\n      and\n        /* \"#utility.yul\":1501:1539   */\n      swap1\n      pop\n        /* \"#utility.yul\":1443:1545   */\n      swap2\n      swap1\n      pop\n      jump\t// out\n        /* \"#utility.yul\":1551:1731   */\n    tag_24:\n        /* \"#utility.yul\":1599:1676   */\n      0x4e487b7100000000000000000000000000000000000000000000000000000000\n        /* \"#utility.yul\":1596:1597   */\n      0x00\n        /* \"#utility.yul\":1589:1677   */\n      mstore\n        /* \"#utility.yul\":1696:1700   */\n      0x41\n        /* \"#utility.yul\":1693:1694   */\n      0x04\n        /* \"#utility.yul\":1686:1701   */\n      mstore\n        /* \"#utility.yul\":1720:1724   */\n      0x24\n        /* \"#utility.yul\":1717:1718   */\n      0x00\n        /* \"#utility.yul\":1710:1725   */\n      revert\n        /* \"#utility.yul\":1737:2018   */\n    tag_25:\n        /* \"#utility.yul\":1820:1847   */\n      tag_60\n        /* \"#utility.yul\":1842:1846   */\n      dup3\n        /* \"#utility.yul\":1820:1847   */\n      tag_23\n      jump\t// in\n    tag_60:\n        /* \"#utility.yul\":1812:1818   */\n      dup2\n        /* \"#utility.yul\":1808:1848   */\n      add\n        /* \"#utility.yul\":1950:1956   */\n      dup2\n        /* \"#utility.yul\":1938:1948   */\n      dup2\n        /* \"#utility.yul\":1935:1957   */\n      lt\n        /* \"#utility.yul\":1914:1932   */\n      0xffffffffffffffff\n        /* \"#utility.yul\":1902:1912   */\n      dup3\n        /* \"#utility.yul\":1899:1933   */\n      gt\n        /* \"#utility.yul\":1896:1958   */\n      or\n        /* \"#utility.yul\":1893:1981   */\n      iszero\n      tag_61\n      jumpi\n        /* \"#utility.yul\":1961:1979   */\n      tag_62\n      tag_24\n      jump\t// in\n    tag_62:\n        /* \"#utility.yul\":1893:1981   */\n    tag_61:\n        /* \"#utility.yul\":2001:2011   */\n      dup1\n        /* \"#utility.yul\":1997:1999   */\n      0x40\n        /* \"#utility.yul\":1990:2012   */\n      mstore\n        /* \"#utility.yul\":1780:2018   */\n      pop\n        /* \"#utility.yul\":1737:2018   */\n      pop\n      pop\n      jump\t// out\n        /* \"#utility.yul\":2024:2153   */\n    tag_26:\n        /* \"#utility.yul\":2058:2064   */\n      0x00\n        /* \"#utility.yul\":2085:2105   */\n      tag_64\n      tag_11\n      jump\t// in\n    tag_64:\n        /* \"#utility.yul\":2075:2105   */\n      swap1\n      pop\n        /* \"#utility.yul\":2114:2147   */\n      tag_65\n        /* \"#utility.yul\":2142:2146   */\n      dup3\n        /* \"#utility.yul\":2134:2140   */\n      dup3\n        /* \"#utility.yul\":2114:2147   */\n      tag_25\n      jump\t// in\n    tag_65:\n        /* \"#utility.yul\":2024:2153   */\n      swap2\n      swap1\n      pop\n      jump\t// out\n        /* \"#utility.yul\":2159:2467   */\n    tag_27:\n        /* \"#utility.yul\":2221:2225   */\n      0x00\n        /* \"#utility.yul\":2311:2329   */\n      0xffffffffffffffff\n        /* \"#utility.yul\":2303:2309   */\n      dup3\n        /* \"#utility.yul\":2300:2330   */\n      gt\n        /* \"#utility.yul\":2297:2353   */\n      iszero\n      tag_67\n      jumpi\n        /* \"#utility.yul\":2333:2351   */\n      tag_68\n      tag_24\n      jump\t// in\n    tag_68:\n        /* \"#utility.yul\":2297:2353   */\n    tag_67:\n        /* \"#utility.yul\":2371:2400   */\n      tag_69\n        /* \"#utility.yul\":2393:2399   */\n      dup3\n        /* \"#utility.yul\":2371:2400   */\n      tag_23\n      jump\t// in\n    tag_69:\n        /* \"#utility.yul\":2363:2400   */\n      swap1\n      pop\n        /* \"#utility.yul\":2455:2459   */\n      0x20\n        /* \"#utility.yul\":2449:2453   */\n      dup2\n        /* \"#utility.yul\":2445:2460   */\n      add\n        /* \"#utility.yul\":2437:2460   */\n      swap1\n      pop\n        /* \"#utility.yul\":2159:2467   */\n      swap2\n      swap1\n      pop\n      jump\t// out\n        /* \"#utility.yul\":2473:2627   */\n    tag_28:\n        /* \"#utility.yul\":2557:2563   */\n      dup3\n        /* \"#utility.yul\":2552:2555   */\n      dup2\n        /* \"#utility.yul\":2547:2550   */\n      dup4\n        /* \"#utility.yul\":2534:2564   */\n      calldatacopy\n        /* \"#utility.yul\":2619:2620   */\n      0x00\n        /* \"#utility.yul\":2610:2616   */\n      dup4\n        /* \"#utility.yul\":2605:2608   */\n      dup4\n        /* \"#utility.yul\":2601:2617   */\n      add\n        /* \"#utility.yul\":2594:2621   */\n      mstore\n        /* \"#utility.yul\":2473:2627   */\n      pop\n      pop\n      pop\n      jump\t// out\n        /* \"#utility.yul\":2633:3045   */\n    tag_29:\n        /* \"#utility.yul\":2711:2716   */\n      0x00\n        /* \"#utility.yul\":2736:2802   */\n      tag_72\n        /* \"#utility.yul\":2752:2801   */\n      tag_73\n        /* \"#utility.yul\":2794:2800   */\n      dup5\n        /* \"#utility.yul\":2752:2801   */\n      tag_27\n      jump\t// in\n    tag_73:\n        /* \"#utility.yul\":2736:2802   */\n      tag_26\n      jump\t// in\n    tag_72:\n        /* \"#utility.yul\":2727:2802   */\n      swap1\n      pop\n        /* \"#utility.yul\":2825:2831   */\n      dup3\n        /* \"#utility.yul\":2818:2823   */\n      dup2\n        /* \"#utility.yul\":2811:2832   */\n      mstore\n        /* \"#utility.yul\":2863:2867   */\n      0x20\n        /* \"#utility.yul\":2856:2861   */\n      dup2\n        /* \"#utility.yul\":2852:2868   */\n      add\n        /* \"#utility.yul\":2901:2904   */\n      dup5\n        /* \"#utility.yul\":2892:2898   */\n      dup5\n        /* \"#utility.yul\":2887:2890   */\n      dup5\n        /* \"#utility.yul\":2883:2899   */\n      add\n        /* \"#utility.yul\":2880:2905   */\n      gt\n        /* \"#utility.yul\":2877:2989   */\n      iszero\n      tag_74\n      jumpi\n        /* \"#utility.yul\":2908:2987   */\n      tag_75\n      tag_22\n      jump\t// in\n    tag_75:\n        /* \"#utility.yul\":2877:2989   */\n    tag_74:\n        /* \"#utility.yul\":2998:3039   */\n      tag_76\n        /* \"#utility.yul\":3032:3038   */\n      dup5\n        /* \"#utility.yul\":3027:3030   */\n      dup3\n        /* \"#utility.yul\":3022:3025   */\n      dup6\n        /* \"#utility.yul\":2998:3039   */\n      tag_28\n      jump\t// in\n    tag_76:\n        /* \"#utility.yul\":2717:3045   */\n      pop\n        /* \"#utility.yul\":2633:3045   */\n      swap4\n      swap3\n      pop\n      pop\n      pop\n      jump\t// out\n        /* \"#utility.yul\":3065:3405   */\n    tag_30:\n        /* \"#utility.yul\":3121:3126   */\n      0x00\n        /* \"#utility.yul\":3170:3173   */\n      dup3\n        /* \"#utility.yul\":3163:3167   */\n      0x1f\n        /* \"#utility.yul\":3155:3161   */\n      dup4\n        /* \"#utility.yul\":3151:3168   */\n      add\n        /* \"#utility.yul\":3147:3174   */\n      slt\n        /* \"#utility.yul\":3137:3259   */\n      tag_78\n      jumpi\n        /* \"#utility.yul\":3178:3257   */\n      tag_79\n      tag_21\n      jump\t// in\n    tag_79:\n        /* \"#utility.yul\":3137:3259   */\n    tag_78:\n        /* \"#utility.yul\":3295:3301   */\n      dup2\n        /* \"#utility.yul\":3282:3302   */\n      calldataload\n        /* \"#utility.yul\":3320:3399   */\n      tag_80\n        /* \"#utility.yul\":3395:3398   */\n      dup5\n        /* \"#utility.yul\":3387:3393   */\n      dup3\n        /* \"#utility.yul\":3380:3384   */\n      0x20\n        /* \"#utility.yul\":3372:3378   */\n      dup7\n        /* \"#utility.yul\":3368:3385   */\n      add\n        /* \"#utility.yul\":3320:3399   */\n      tag_29\n      jump\t// in\n    tag_80:\n        /* \"#utility.yul\":3311:3399   */\n      swap2\n      pop\n        /* \"#utility.yul\":3127:3405   */\n      pop\n        /* \"#utility.yul\":3065:3405   */\n      swap3\n      swap2\n      pop\n      pop\n      jump\t// out\n        /* \"#utility.yul\":3411:4210   */\n    tag_6:\n        /* \"#utility.yul\":3498:3504   */\n      0x00\n        /* \"#utility.yul\":3506:3512   */\n      dup1\n        /* \"#utility.yul\":3514:3520   */\n      0x00\n        /* \"#utility.yul\":3563:3565   */\n      0x60\n        /* \"#utility.yul\":3551:3560   */\n      dup5\n        /* \"#utility.yul\":3542:3549   */\n      dup7\n        /* \"#utility.yul\":3538:3561   */\n      sub\n        /* \"#utility.yul\":3534:3566   */\n      slt\n        /* \"#utility.yul\":3531:3650   */\n      iszero\n      tag_82\n      jumpi\n        /* \"#utility.yul\":3569:3648   */\n      tag_83\n      tag_12\n      jump\t// in\n    tag_83:\n        /* \"#utility.yul\":3531:3650   */\n    tag_82:\n        /* \"#utility.yul\":3689:3690   */\n      0x00\n        /* \"#utility.yul\":3714:3767   */\n      tag_84\n        /* \"#utility.yul\":3759:3766   */\n      dup7\n        /* \"#utility.yul\":3750:3756   */\n      dup3\n        /* \"#utility.yul\":3739:3748   */\n      dup8\n        /* \"#utility.yul\":3735:3757   */\n      add\n        /* \"#utility.yul\":3714:3767   */\n      tag_17\n      jump\t// in\n    tag_84:\n        /* \"#utility.yul\":3704:3767   */\n      swap4\n      pop\n        /* \"#utility.yul\":3660:3777   */\n      pop\n        /* \"#utility.yul\":3816:3818   */\n      0x20\n        /* \"#utility.yul\":3842:3895   */\n      tag_85\n        /* \"#utility.yul\":3887:3894   */\n      dup7\n        /* \"#utility.yul\":3878:3884   */\n      dup3\n        /* \"#utility.yul\":3867:3876   */\n      dup8\n        /* \"#utility.yul\":3863:3885   */\n      add\n        /* \"#utility.yul\":3842:3895   */\n      tag_20\n      jump\t// in\n    tag_85:\n        /* \"#utility.yul\":3832:3895   */\n      swap3\n      pop\n        /* \"#utility.yul\":3787:3905   */\n      pop\n        /* \"#utility.yul\":3972:3974   */\n      0x40\n        /* \"#utility.yul\":3961:3970   */\n      dup5\n        /* \"#utility.yul\":3957:3975   */\n      add\n        /* \"#utility.yul\":3944:3976   */\n      calldataload\n        /* \"#utility.yul\":4003:4021   */\n      0xffffffffffffffff\n        /* \"#utility.yul\":3995:4001   */\n      dup2\n        /* \"#utility.yul\":3992:4022   */\n      gt\n        /* \"#utility.yul\":3989:4106   */\n      iszero\n      tag_86\n      jumpi\n        /* \"#utility.yul\":4025:4104   */\n      tag_87\n      tag_13\n      jump\t// in\n    tag_87:\n        /* \"#utility.yul\":3989:4106   */\n    tag_86:\n        /* \"#utility.yul\":4130:4193   */\n      tag_88\n        /* \"#utility.yul\":4185:4192   */\n      dup7\n        /* \"#utility.yul\":4176:4182   */\n      dup3\n        /* \"#utility.yul\":4165:4174   */\n      dup8\n        /* \"#utility.yul\":4161:4183   */\n      add\n        /* \"#utility.yul\":4130:4193   */\n      tag_30\n      jump\t// in\n    tag_88:\n        /* \"#utility.yul\":4120:4193   */\n      swap2\n      pop\n        /* \"#utility.yul\":3915:4203   */\n      pop\n        /* \"#utility.yul\":3411:4210   */\n      swap3\n      pop\n      swap3\n      pop\n      swap3\n      jump\t// out\n        /* \"#utility.yul\":4216:4334   */\n    tag_31:\n        /* \"#utility.yul\":4303:4327   */\n      tag_90\n        /* \"#utility.yul\":4321:4326   */\n      dup2\n        /* \"#utility.yul\":4303:4327   */\n      tag_15\n      jump\t// in\n    tag_90:\n        /* \"#utility.yul\":4298:4301   */\n      dup3\n        /* \"#utility.yul\":4291:4328   */\n      mstore\n        /* \"#utility.yul\":4216:4334   */\n      pop\n      pop\n      jump\t// out\n        /* \"#utility.yul\":4340:4458   */\n    tag_32:\n        /* \"#utility.yul\":4427:4451   */\n      tag_92\n        /* \"#utility.yul\":4445:4450   */\n      dup2\n        /* \"#utility.yul\":4427:4451   */\n      tag_18\n      jump\t// in\n    tag_92:\n        /* \"#utility.yul\":4422:4425   */\n      dup3\n        /* \"#utility.yul\":4415:4452   */\n      mstore\n        /* \"#utility.yul\":4340:4458   */\n      pop\n      pop\n      jump\t// out\n        /* \"#utility.yul\":4464:4563   */\n    tag_33:\n        /* \"#utility.yul\":4516:4522   */\n      0x00\n        /* \"#utility.yul\":4550:4555   */\n      dup2\n        /* \"#utility.yul\":4544:4556   */\n      mload\n        /* \"#utility.yul\":4534:4556   */\n      swap1\n      pop\n        /* \"#utility.yul\":4464:4563   */\n      swap2\n      swap1\n      pop\n      jump\t// out\n        /* \"#utility.yul\":4569:4738   */\n    tag_34:\n        /* \"#utility.yul\":4653:4664   */\n      0x00\n        /* \"#utility.yul\":4687:4693   */\n      dup3\n        /* \"#utility.yul\":4682:4685   */\n      dup3\n        /* \"#utility.yul\":4675:4694   */\n      mstore\n        /* \"#utility.yul\":4727:4731   */\n      0x20\n        /* \"#utility.yul\":4722:4725   */\n      dup3\n        /* \"#utility.yul\":4718:4732   */\n      add\n        /* \"#utility.yul\":4703:4732   */\n      swap1\n      pop\n        /* \"#utility.yul\":4569:4738   */\n      swap3\n      swap2\n      pop\n      pop\n      jump\t// out\n        /* \"#utility.yul\":4744:5051   */\n    tag_35:\n        /* \"#utility.yul\":4812:4813   */\n      0x00\n        /* \"#utility.yul\":4822:4935   */\n    tag_96:\n        /* \"#utility.yul\":4836:4842   */\n      dup4\n        /* \"#utility.yul\":4833:4834   */\n      dup2\n        /* \"#utility.yul\":4830:4843   */\n      lt\n        /* \"#utility.yul\":4822:4935   */\n      iszero\n      tag_98\n      jumpi\n        /* \"#utility.yul\":4921:4922   */\n      dup1\n        /* \"#utility.yul\":4916:4919   */\n      dup3\n        /* \"#utility.yul\":4912:4923   */\n      add\n        /* \"#utility.yul\":4906:4924   */\n      mload\n        /* \"#utility.yul\":4902:4903   */\n      dup2\n        /* \"#utility.yul\":4897:4900   */\n      dup5\n        /* \"#utility.yul\":4893:4904   */\n      add\n        /* \"#utility.yul\":4886:4925   */\n      mstore\n        /* \"#utility.yul\":4858:4860   */\n      0x20\n        /* \"#utility.yul\":4855:4856   */\n      dup2\n        /* \"#utility.yul\":4851:4861   */\n      add\n        /* \"#utility.yul\":4846:4861   */\n      swap1\n      pop\n        /* \"#utility.yul\":4822:4935   */\n      jump(tag_96)\n    tag_98:\n        /* \"#utility.yul\":4953:4959   */\n      dup4\n        /* \"#utility.yul\":4950:4951   */\n      dup2\n        /* \"#utility.yul\":4947:4960   */\n      gt\n        /* \"#utility.yul\":4944:5045   */\n      iszero\n      tag_99\n      jumpi\n        /* \"#utility.yul\":5033:5034   */\n      0x00\n        /* \"#utility.yul\":5024:5030   */\n      dup5\n        /* \"#utility.yul\":5019:5022   */\n      dup5\n        /* \"#utility.yul\":5015:5031   */\n      add\n        /* \"#utility.yul\":5008:5035   */\n      mstore\n        /* \"#utility.yul\":4944:5045   */\n    tag_99:\n        /* \"#utility.yul\":4793:5051   */\n      pop\n        /* \"#utility.yul\":4744:5051   */\n      pop\n      pop\n      pop\n      jump\t// out\n        /* \"#utility.yul\":5057:5421   */\n    tag_36:\n        /* \"#utility.yul\":5145:5148   */\n      0x00\n        /* \"#utility.yul\":5173:5212   */\n      tag_101\n        /* \"#utility.yul\":5206:5211   */\n      dup3\n        /* \"#utility.yul\":5173:5212   */\n      tag_33\n      jump\t// in\n    tag_101:\n        /* \"#utility.yul\":5228:5299   */\n      tag_102\n        /* \"#utility.yul\":5292:5298   */\n      dup2\n        /* \"#utility.yul\":5287:5290   */\n      dup6\n        /* \"#utility.yul\":5228:5299   */\n      tag_34\n      jump\t// in\n    tag_102:\n        /* \"#utility.yul\":5221:5299   */\n      swap4\n      pop\n        /* \"#utility.yul\":5308:5360   */\n      tag_103\n        /* \"#utility.yul\":5353:5359   */\n      dup2\n        /* \"#utility.yul\":5348:5351   */\n      dup6\n        /* \"#utility.yul\":5341:5345   */\n      0x20\n        /* \"#utility.yul\":5334:5339   */\n      dup7\n        /* \"#utility.yul\":5330:5346   */\n      add\n        /* \"#utility.yul\":5308:5360   */\n      tag_35\n      jump\t// in\n    tag_103:\n        /* \"#utility.yul\":5385:5414   */\n      tag_104\n        /* \"#utility.yul\":5407:5413   */\n      dup2\n        /* \"#utility.yul\":5385:5414   */\n      tag_23\n      jump\t// in\n    tag_104:\n        /* \"#utility.yul\":5380:5383   */\n      dup5\n        /* \"#utility.yul\":5376:5415   */\n      add\n        /* \"#utility.yul\":5369:5415   */\n      swap2\n      pop\n        /* \"#utility.yul\":5149:5421   */\n      pop\n        /* \"#utility.yul\":5057:5421   */\n      swap3\n      swap2\n      pop\n      pop\n      jump\t// out\n        /* \"#utility.yul\":5427:5960   */\n    tag_10:\n        /* \"#utility.yul\":5596:5600   */\n      0x00\n        /* \"#utility.yul\":5634:5636   */\n      0x60\n        /* \"#utility.yul\":5623:5632   */\n      dup3\n        /* \"#utility.yul\":5619:5637   */\n      add\n        /* \"#utility.yul\":5611:5637   */\n      swap1\n      pop\n        /* \"#utility.yul\":5647:5718   */\n      tag_106\n        /* \"#utility.yul\":5715:5716   */\n      0x00\n        /* \"#utility.yul\":5704:5713   */\n      dup4\n        /* \"#utility.yul\":5700:5717   */\n      add\n        /* \"#utility.yul\":5691:5697   */\n      dup7\n        /* \"#utility.yul\":5647:5718   */\n      tag_31\n      jump\t// in\n    tag_106:\n        /* \"#utility.yul\":5728:5800   */\n      tag_107\n        /* \"#utility.yul\":5796:5798   */\n      0x20\n        /* \"#utility.yul\":5785:5794   */\n      dup4\n        /* \"#utility.yul\":5781:5799   */\n      add\n        /* \"#utility.yul\":5772:5778   */\n      dup6\n        /* \"#utility.yul\":5728:5800   */\n      tag_32\n      jump\t// in\n    tag_107:\n        /* \"#utility.yul\":5847:5856   */\n      dup2\n        /* \"#utility.yul\":5841:5845   */\n      dup2\n        /* \"#utility.yul\":5837:5857   */\n      sub\n        /* \"#utility.yul\":5832:5834   */\n      0x40\n        /* \"#utility.yul\":5821:5830   */\n      dup4\n        /* \"#utility.yul\":5817:5835   */\n      add\n        /* \"#utility.yul\":5810:5858   */\n      mstore\n        /* \"#utility.yul\":5875:5953   */\n      tag_108\n        /* \"#utility.yul\":5948:5952   */\n      dup2\n        /* \"#utility.yul\":5939:5945   */\n      dup5\n        /* \"#utility.yul\":5875:5953   */\n      tag_36\n      jump\t// in\n    tag_108:\n        /* \"#utility.yul\":5867:5953   */\n      swap1\n      pop\n        /* \"#utility.yul\":5427:5960   */\n      swap5\n      swap4\n      pop\n      pop\n      pop\n      pop\n      jump\t// out\n\n    auxdata: 0xa2646970667358221220243f70b33d16d815ff7f81c9c384c751980045fdef661caac52df610530cc4f464736f6c634300080e0033\n}\n",
				"bytecode": {
					"linkReferences": {},
					"object": "608060405234801561001057600080fd5b50610403806100206000396000f3fe608060405234801561001057600080fd5b506004361061002b5760003560e01c8063a1f2e8aa14610030575b600080fd5b61004a6004803603810190610045919061027a565b61004c565b005b7f4e3358e5bdb38f499a83fbcd33d16343569f3b6fe53021022dede6364017b4a883838360405161007f9392919061038f565b60405180910390a1505050565b6000604051905090565b600080fd5b600080fd5b600073ffffffffffffffffffffffffffffffffffffffff82169050919050565b60006100cb826100a0565b9050919050565b6100db816100c0565b81146100e657600080fd5b50565b6000813590506100f8816100d2565b92915050565b6000819050919050565b610111816100fe565b811461011c57600080fd5b50565b60008135905061012e81610108565b92915050565b600080fd5b600080fd5b6000601f19601f8301169050919050565b7f4e487b7100000000000000000000000000000000000000000000000000000000600052604160045260246000fd5b6101878261013e565b810181811067ffffffffffffffff821117156101a6576101a561014f565b5b80604052505050565b60006101b961008c565b90506101c5828261017e565b919050565b600067ffffffffffffffff8211156101e5576101e461014f565b5b6101ee8261013e565b9050602081019050919050565b82818337600083830152505050565b600061021d610218846101ca565b6101af565b90508281526020810184848401111561023957610238610139565b5b6102448482856101fb565b509392505050565b600082601f83011261026157610260610134565b5b813561027184826020860161020a565b91505092915050565b60008060006060848603121561029357610292610096565b5b60006102a1868287016100e9565b93505060206102b28682870161011f565b925050604084013567ffffffffffffffff8111156102d3576102d261009b565b5b6102df8682870161024c565b9150509250925092565b6102f2816100c0565b82525050565b610301816100fe565b82525050565b600081519050919050565b600082825260208201905092915050565b60005b83811015610341578082015181840152602081019050610326565b83811115610350576000848401525b50505050565b600061036182610307565b61036b8185610312565b935061037b818560208601610323565b6103848161013e565b840191505092915050565b60006060820190506103a460008301866102e9565b6103b160208301856102f8565b81810360408301526103c38184610356565b905094935050505056fea2646970667358221220243f70b33d16d815ff7f81c9c384c751980045fdef661caac52df610530cc4f464736f6c634300080e0033",
					"opcodes": "PUSH1 0x80 PUSH1 0x40 MSTORE CALLVALUE DUP1 ISZERO PUSH2 0x10 JUMPI PUSH1 0x0 DUP1 REVERT JUMPDEST POP PUSH2 0x403 DUP1 PUSH2 0x20 PUSH1 0x0 CODECOPY PUSH1 0x0 RETURN INVALID PUSH1 0x80 PUSH1 0x40 MSTORE CALLVALUE DUP1 ISZERO PUSH2 0x10 JUMPI PUSH1 0x0 DUP1 REVERT JUMPDEST POP PUSH1 0x4 CALLDATASIZE LT PUSH2 0x2B JUMPI PUSH1 0x0 CALLDATALOAD PUSH1 0xE0 SHR DUP1 PUSH4 0xA1F2E8AA EQ PUSH2 0x30 JUMPI JUMPDEST PUSH1 0x0 DUP1 REVERT JUMPDEST PUSH2 0x4A PUSH1 0x4 DUP1 CALLDATASIZE SUB DUP2 ADD SWAP1 PUSH2 0x45 SWAP2 SWAP1 PUSH2 0x27A JUMP JUMPDEST PUSH2 0x4C JUMP JUMPDEST STOP JUMPDEST PUSH32 0x4E3358E5BDB38F499A83FBCD33D16343569F3B6FE53021022DEDE6364017B4A8 DUP4 DUP4 DUP4 PUSH1 0x40 MLOAD PUSH2 0x7F SWAP4 SWAP3 SWAP2 SWAP1 PUSH2 0x38F JUMP JUMPDEST PUSH1 0x40 MLOAD DUP1 SWAP2 SUB SWAP1 LOG1 POP POP POP JUMP JUMPDEST PUSH1 0x0 PUSH1 0x40 MLOAD SWAP1 POP SWAP1 JUMP JUMPDEST PUSH1 0x0 DUP1 REVERT JUMPDEST PUSH1 0x0 DUP1 REVERT JUMPDEST PUSH1 0x0 PUSH20 0xFFFFFFFFFFFFFFFFFFFFFFFFFFFFFFFFFFFFFFFF DUP3 AND SWAP1 POP SWAP2 SWAP1 POP JUMP JUMPDEST PUSH1 0x0 PUSH2 0xCB DUP3 PUSH2 0xA0 JUMP JUMPDEST SWAP1 POP SWAP2 SWAP1 POP JUMP JUMPDEST PUSH2 0xDB DUP2 PUSH2 0xC0 JUMP JUMPDEST DUP2 EQ PUSH2 0xE6 JUMPI PUSH1 0x0 DUP1 REVERT JUMPDEST POP JUMP JUMPDEST PUSH1 0x0 DUP2 CALLDATALOAD SWAP1 POP PUSH2 0xF8 DUP2 PUSH2 0xD2 JUMP JUMPDEST SWAP3 SWAP2 POP POP JUMP JUMPDEST PUSH1 0x0 DUP2 SWAP1 POP SWAP2 SWAP1 POP JUMP JUMPDEST PUSH2 0x111 DUP2 PUSH2 0xFE JUMP JUMPDEST DUP2 EQ PUSH2 0x11C JUMPI PUSH1 0x0 DUP1 REVERT JUMPDEST POP JUMP JUMPDEST PUSH1 0x0 DUP2 CALLDATALOAD SWAP1 POP PUSH2 0x12E DUP2 PUSH2 0x108 JUMP JUMPDEST SWAP3 SWAP2 POP POP JUMP JUMPDEST PUSH1 0x0 DUP1 REVERT JUMPDEST PUSH1 0x0 DUP1 REVERT JUMPDEST PUSH1 0x0 PUSH1 0x1F NOT PUSH1 0x1F DUP4 ADD AND SWAP1 POP SWAP2 SWAP1 POP JUMP JUMPDEST PUSH32 0x4E487B7100000000000000000000000000000000000000000000000000000000 PUSH1 0x0 MSTORE PUSH1 0x41 PUSH1 0x4 MSTORE PUSH1 0x24 PUSH1 0x0 REVERT JUMPDEST PUSH2 0x187 DUP3 PUSH2 0x13E JUMP JUMPDEST DUP2 ADD DUP2 DUP2 LT PUSH8 0xFFFFFFFFFFFFFFFF DUP3 GT OR ISZERO PUSH2 0x1A6 JUMPI PUSH2 0x1A5 PUSH2 0x14F JUMP JUMPDEST JUMPDEST DUP1 PUSH1 0x40 MSTORE POP POP POP JUMP JUMPDEST PUSH1 0x0 PUSH2 0x1B9 PUSH2 0x8C JUMP JUMPDEST SWAP1 POP PUSH2 0x1C5 DUP3 DUP3 PUSH2 0x17E JUMP JUMPDEST SWAP2 SWAP1 POP JUMP JUMPDEST PUSH1 0x0 PUSH8 0xFFFFFFFFFFFFFFFF DUP3 GT ISZERO PUSH2 0x1E5 JUMPI PUSH2 0x1E4 PUSH2 0x14F JUMP JUMPDEST JUMPDEST PUSH2 0x1EE DUP3 PUSH2 0x13E JUMP JUMPDEST SWAP1 POP PUSH1 0x20 DUP2 ADD SWAP1 POP SWAP2 SWAP1 POP JUMP JUMPDEST DUP3 DUP2 DUP4 CALLDATACOPY PUSH1 0x0 DUP4 DUP4 ADD MSTORE POP POP POP JUMP JUMPDEST PUSH1 0x0 PUSH2 0x21D PUSH2 0x218 DUP5 PUSH2 0x1CA JUMP JUMPDEST PUSH2 0x1AF JUMP JUMPDEST SWAP1 POP DUP3 DUP2 MSTORE PUSH1 0x20 DUP2 ADD DUP5 DUP5 DUP5 ADD GT ISZERO PUSH2 0x239 JUMPI PUSH2 0x238 PUSH2 0x139 JUMP JUMPDEST JUMPDEST PUSH2 0x244 DUP5 DUP3 DUP6 PUSH2 0x1FB JUMP JUMPDEST POP SWAP4 SWAP3 POP POP POP JUMP JUMPDEST PUSH1 0x0 DUP3 PUSH1 0x1F DUP4 ADD SLT PUSH2 0x261 JUMPI PUSH2 0x260 PUSH2 0x134 JUMP JUMPDEST JUMPDEST DUP2 CALLDATALOAD PUSH2 0x271 DUP5 DUP3 PUSH1 0x20 DUP7 ADD PUSH2 0x20A JUMP JUMPDEST SWAP2 POP POP SWAP3 SWAP2 POP POP JUMP JUMPDEST PUSH1 0x0 DUP1 PUSH1 0x0 PUSH1 0x60 DUP5 DUP7 SUB SLT ISZERO PUSH2 0x293 JUMPI PUSH2 0x292 PUSH2 0x96 JUMP JUMPDEST JUMPDEST PUSH1 0x0 PUSH2 0x2A1 DUP7 DUP3 DUP8 ADD PUSH2 0xE9 JUMP JUMPDEST SWAP4 POP POP PUSH1 0x20 PUSH2 0x2B2 DUP7 DUP3 DUP8 ADD PUSH2 0x11F JUMP JUMPDEST SWAP3 POP POP PUSH1 0x40 DUP5 ADD CALLDATALOAD PUSH8 0xFFFFFFFFFFFFFFFF DUP2 GT ISZERO PUSH2 0x2D3 JUMPI PUSH2 0x2D2 PUSH2 0x9B JUMP JUMPDEST JUMPDEST PUSH2 0x2DF DUP7 DUP3 DUP8 ADD PUSH2 0x24C JUMP JUMPDEST SWAP2 POP POP SWAP3 POP SWAP3 POP SWAP3 JUMP JUMPDEST PUSH2 0x2F2 DUP2 PUSH2 0xC0 JUMP JUMPDEST DUP3 MSTORE POP POP JUMP JUMPDEST PUSH2 0x301 DUP2 PUSH2 0xFE JUMP JUMPDEST DUP3 MSTORE POP POP JUMP JUMPDEST PUSH1 0x0 DUP2 MLOAD SWAP1 POP SWAP2 SWAP1 POP JUMP JUMPDEST PUSH1 0x0 DUP3 DUP3 MSTORE PUSH1 0x20 DUP3 ADD SWAP1 POP SWAP3 SWAP2 POP POP JUMP JUMPDEST PUSH1 0x0 JUMPDEST DUP4 DUP2 LT ISZERO PUSH2 0x341 JUMPI DUP1 DUP3 ADD MLOAD DUP2 DUP5 ADD MSTORE PUSH1 0x20 DUP2 ADD SWAP1 POP PUSH2 0x326 JUMP JUMPDEST DUP4 DUP2 GT ISZERO PUSH2 0x350 JUMPI PUSH1 0x0 DUP5 DUP5 ADD MSTORE JUMPDEST POP POP POP POP JUMP JUMPDEST PUSH1 0x0 PUSH2 0x361 DUP3 PUSH2 0x307 JUMP JUMPDEST PUSH2 0x36B DUP2 DUP6 PUSH2 0x312 JUMP JUMPDEST SWAP4 POP PUSH2 0x37B DUP2 DUP6 PUSH1 0x20 DUP7 ADD PUSH2 0x323 JUMP JUMPDEST PUSH2 0x384 DUP2 PUSH2 0x13E JUMP JUMPDEST DUP5 ADD SWAP2 POP POP SWAP3 SWAP2 POP POP JUMP JUMPDEST PUSH1 0x0 PUSH1 0x60 DUP3 ADD SWAP1 POP PUSH2 0x3A4 PUSH1 0x0 DUP4 ADD DUP7 PUSH2 0x2E9 JUMP JUMPDEST PUSH2 0x3B1 PUSH1 0x20 DUP4 ADD DUP6 PUSH2 0x2F8 JUMP JUMPDEST DUP2 DUP2 SUB PUSH1 0x40 DUP4 ADD MSTORE PUSH2 0x3C3 DUP2 DUP5 PUSH2 0x356 JUMP JUMPDEST SWAP1 POP SWAP5 SWAP4 POP POP POP POP JUMP INVALID LOG2 PUSH5 0x6970667358 0x22 SLT KECCAK256 0x24 EXTCODEHASH PUSH17 0xB33D16D815FF7F81C9C384C751980045FD 0xEF PUSH7 0x1CAAC52DF61053 0xC 0xC4 DELEGATECALL PUSH5 0x736F6C6343 STOP ADDMOD 0xE STOP CALLER "
				},
				"gasEstimates": {
					"creation": {
						"codeDepositCost": "205400",
						"executionCost": "251",
						"totalCost": "205651"
					},
					"external": {
						"log(address,uint256,string)": "infinite"
					}
				},
				"methodIdentifiers": {
					"log(address,uint256,string)": "a1f2e8aa"
				}
			},
			"storageLayout": {
				"storage": [],
				"types": null
			},
			"userdoc": {
				"kind": "user",
				"methods": {},
				"version": 1
			}
		}
	}
}