{
	"solidity-study-demo/thirdPart/Bank.sol": {
		"HoneyPot": {
			"abi": [
				{
					"inputs": [
						{
							"internalType": "string",
							"name": "_a",
							"type": "string"
						},
						{
							"internalType": "string",
							"name": "_b",
							"type": "string"
						}
					],
					"name": "equal",
					"outputs": [
						{
							"internalType": "bool",
							"name": "",
							"type": "bool"
						}
					],
					"stateMutability": "pure",
					"type": "function"
				},
				{
					"inputs": [
						{
							"internalType": "address",
							"name": "_caller",
							"type": "address"
						},
						{
							"internalType": "uint256",
							"name": "_amount",
							"type": "uint256"
						},
						{
							"internalType": "string",
							"name": "_action",
							"type": "string"
						}
					],
					"name": "log",
					"outputs": [],
					"stateMutability": "nonpayable",
					"type": "function"
				}
			],
			"devdoc": {
				"kind": "dev",
				"methods": {},
				"version": 1
			},
			"evm": {
				"assembly": "    /* \"solidity-study-demo/thirdPart/Bank.sol\":1415:1815  contract HoneyPot {... */\n  mstore(0x40, 0x80)\n  callvalue\n  dup1\n  iszero\n  tag_1\n  jumpi\n  0x00\n  dup1\n  revert\ntag_1:\n  pop\n  dataSize(sub_0)\n  dup1\n  dataOffset(sub_0)\n  0x00\n  codecopy\n  0x00\n  return\nstop\n\nsub_0: assembly {\n        /* \"solidity-study-demo/thirdPart/Bank.sol\":1415:1815  contract HoneyPot {... */\n      mstore(0x40, 0x80)\n      callvalue\n      dup1\n      iszero\n      tag_1\n      jumpi\n      0x00\n      dup1\n      revert\n    tag_1:\n      pop\n      jumpi(tag_2, lt(calldatasize, 0x04))\n      shr(0xe0, calldataload(0x00))\n      dup1\n      0x46bdca9a\n      eq\n      tag_3\n      jumpi\n      dup1\n      0xa1f2e8aa\n      eq\n      tag_4\n      jumpi\n    tag_2:\n      0x00\n      dup1\n      revert\n        /* \"solidity-study-demo/thirdPart/Bank.sol\":1654:1812  function equal(string memory _a, string memory _b) public pure returns (bool) {... */\n    tag_3:\n      tag_5\n      0x04\n      dup1\n      calldatasize\n      sub\n      dup2\n      add\n      swap1\n      tag_6\n      swap2\n      swap1\n      tag_7\n      jump\t// in\n    tag_6:\n      tag_8\n      jump\t// in\n    tag_5:\n      mload(0x40)\n      tag_9\n      swap2\n      swap1\n      tag_10\n      jump\t// in\n    tag_9:\n      mload(0x40)\n      dup1\n      swap2\n      sub\n      swap1\n      return\n        /* \"solidity-study-demo/thirdPart/Bank.sol\":1440:1646  function log(... */\n    tag_4:\n      tag_11\n      0x04\n      dup1\n      calldatasize\n      sub\n      dup2\n      add\n      swap1\n      tag_12\n      swap2\n      swap1\n      tag_13\n      jump\t// in\n    tag_12:\n      tag_14\n      jump\t// in\n    tag_11:\n      stop\n        /* \"solidity-study-demo/thirdPart/Bank.sol\":1654:1812  function equal(string memory _a, string memory _b) public pure returns (bool) {... */\n    tag_8:\n        /* \"solidity-study-demo/thirdPart/Bank.sol\":1726:1730  bool */\n      0x00\n        /* \"solidity-study-demo/thirdPart/Bank.sol\":1800:1802  _b */\n      dup2\n        /* \"solidity-study-demo/thirdPart/Bank.sol\":1789:1803  abi.encode(_b) */\n      add(0x20, mload(0x40))\n      tag_16\n      swap2\n      swap1\n      tag_17\n      jump\t// in\n    tag_16:\n      mload(0x40)\n      0x20\n      dup2\n      dup4\n      sub\n      sub\n      dup2\n      mstore\n      swap1\n      0x40\n      mstore\n        /* \"solidity-study-demo/thirdPart/Bank.sol\":1779:1804  keccak256(abi.encode(_b)) */\n      dup1\n      mload\n      swap1\n      0x20\n      add\n      keccak256\n        /* \"solidity-study-demo/thirdPart/Bank.sol\":1771:1773  _a */\n      dup4\n        /* \"solidity-study-demo/thirdPart/Bank.sol\":1760:1774  abi.encode(_a) */\n      add(0x20, mload(0x40))\n      tag_18\n      swap2\n      swap1\n      tag_17\n      jump\t// in\n    tag_18:\n      mload(0x40)\n      0x20\n      dup2\n      dup4\n      sub\n      sub\n      dup2\n      mstore\n      swap1\n      0x40\n      mstore\n        /* \"solidity-study-demo/thirdPart/Bank.sol\":1750:1775  keccak256(abi.encode(_a)) */\n      dup1\n      mload\n      swap1\n      0x20\n      add\n      keccak256\n        /* \"solidity-study-demo/thirdPart/Bank.sol\":1750:1804  keccak256(abi.encode(_a)) == keccak256(abi.encode(_b)) */\n      eq\n        /* \"solidity-study-demo/thirdPart/Bank.sol\":1743:1804  return keccak256(abi.encode(_a)) == keccak256(abi.encode(_b)) */\n      swap1\n      pop\n        /* \"solidity-study-demo/thirdPart/Bank.sol\":1654:1812  function equal(string memory _a, string memory _b) public pure returns (bool) {... */\n      swap3\n      swap2\n      pop\n      pop\n      jump\t// out\n        /* \"solidity-study-demo/thirdPart/Bank.sol\":1440:1646  function log(... */\n    tag_14:\n        /* \"solidity-study-demo/thirdPart/Bank.sol\":1563:1589  equal(_action, \"Withdraw\") */\n      tag_20\n        /* \"solidity-study-demo/thirdPart/Bank.sol\":1569:1576  _action */\n      dup2\n        /* \"solidity-study-demo/thirdPart/Bank.sol\":1563:1589  equal(_action, \"Withdraw\") */\n      mload(0x40)\n      dup1\n      0x40\n      add\n      0x40\n      mstore\n      dup1\n      0x08\n      dup2\n      mstore\n      0x20\n      add\n      0x5769746864726177000000000000000000000000000000000000000000000000\n      dup2\n      mstore\n      pop\n        /* \"solidity-study-demo/thirdPart/Bank.sol\":1563:1568  equal */\n      tag_8\n        /* \"solidity-study-demo/thirdPart/Bank.sol\":1563:1589  equal(_action, \"Withdraw\") */\n      jump\t// in\n    tag_20:\n        /* \"solidity-study-demo/thirdPart/Bank.sol\":1559:1639  if (equal(_action, \"Withdraw\")) {... */\n      iszero\n      tag_21\n      jumpi\n        /* \"solidity-study-demo/thirdPart/Bank.sol\":1606:1627  revert(\"It's a trap\") */\n      mload(0x40)\n      0x08c379a000000000000000000000000000000000000000000000000000000000\n      dup2\n      mstore\n      0x04\n      add\n      tag_22\n      swap1\n      tag_23\n      jump\t// in\n    tag_22:\n      mload(0x40)\n      dup1\n      swap2\n      sub\n      swap1\n      revert\n        /* \"solidity-study-demo/thirdPart/Bank.sol\":1559:1639  if (equal(_action, \"Withdraw\")) {... */\n    tag_21:\n        /* \"solidity-study-demo/thirdPart/Bank.sol\":1440:1646  function log(... */\n      pop\n      pop\n      pop\n      jump\t// out\n        /* \"#utility.yul\":7:82   */\n    tag_24:\n        /* \"#utility.yul\":40:46   */\n      0x00\n        /* \"#utility.yul\":73:75   */\n      0x40\n        /* \"#utility.yul\":67:76   */\n      mload\n        /* \"#utility.yul\":57:76   */\n      swap1\n      pop\n        /* \"#utility.yul\":7:82   */\n      swap1\n      jump\t// out\n        /* \"#utility.yul\":88:205   */\n    tag_25:\n        /* \"#utility.yul\":197:198   */\n      0x00\n        /* \"#utility.yul\":194:195   */\n      dup1\n        /* \"#utility.yul\":187:199   */\n      revert\n        /* \"#utility.yul\":211:328   */\n    tag_26:\n        /* \"#utility.yul\":320:321   */\n      0x00\n        /* \"#utility.yul\":317:318   */\n      dup1\n        /* \"#utility.yul\":310:322   */\n      revert\n        /* \"#utility.yul\":334:451   */\n    tag_27:\n        /* \"#utility.yul\":443:444   */\n      0x00\n        /* \"#utility.yul\":440:441   */\n      dup1\n        /* \"#utility.yul\":433:445   */\n      revert\n        /* \"#utility.yul\":457:574   */\n    tag_28:\n        /* \"#utility.yul\":566:567   */\n      0x00\n        /* \"#utility.yul\":563:564   */\n      dup1\n        /* \"#utility.yul\":556:568   */\n      revert\n        /* \"#utility.yul\":580:682   */\n    tag_29:\n        /* \"#utility.yul\":621:627   */\n      0x00\n        /* \"#utility.yul\":672:674   */\n      0x1f\n        /* \"#utility.yul\":668:675   */\n      not\n        /* \"#utility.yul\":663:665   */\n      0x1f\n        /* \"#utility.yul\":656:661   */\n      dup4\n        /* \"#utility.yul\":652:666   */\n      add\n        /* \"#utility.yul\":648:676   */\n      and\n        /* \"#utility.yul\":638:676   */\n      swap1\n      pop\n        /* \"#utility.yul\":580:682   */\n      swap2\n      swap1\n      pop\n      jump\t// out\n        /* \"#utility.yul\":688:868   */\n    tag_30:\n        /* \"#utility.yul\":736:813   */\n      0x4e487b7100000000000000000000000000000000000000000000000000000000\n        /* \"#utility.yul\":733:734   */\n      0x00\n        /* \"#utility.yul\":726:814   */\n      mstore\n        /* \"#utility.yul\":833:837   */\n      0x41\n        /* \"#utility.yul\":830:831   */\n      0x04\n        /* \"#utility.yul\":823:838   */\n      mstore\n        /* \"#utility.yul\":857:861   */\n      0x24\n        /* \"#utility.yul\":854:855   */\n      0x00\n        /* \"#utility.yul\":847:862   */\n      revert\n        /* \"#utility.yul\":874:1155   */\n    tag_31:\n        /* \"#utility.yul\":957:984   */\n      tag_61\n        /* \"#utility.yul\":979:983   */\n      dup3\n        /* \"#utility.yul\":957:984   */\n      tag_29\n      jump\t// in\n    tag_61:\n        /* \"#utility.yul\":949:955   */\n      dup2\n        /* \"#utility.yul\":945:985   */\n      add\n        /* \"#utility.yul\":1087:1093   */\n      dup2\n        /* \"#utility.yul\":1075:1085   */\n      dup2\n        /* \"#utility.yul\":1072:1094   */\n      lt\n        /* \"#utility.yul\":1051:1069   */\n      0xffffffffffffffff\n        /* \"#utility.yul\":1039:1049   */\n      dup3\n        /* \"#utility.yul\":1036:1070   */\n      gt\n        /* \"#utility.yul\":1033:1095   */\n      or\n        /* \"#utility.yul\":1030:1118   */\n      iszero\n      tag_62\n      jumpi\n        /* \"#utility.yul\":1098:1116   */\n      tag_63\n      tag_30\n      jump\t// in\n    tag_63:\n        /* \"#utility.yul\":1030:1118   */\n    tag_62:\n        /* \"#utility.yul\":1138:1148   */\n      dup1\n        /* \"#utility.yul\":1134:1136   */\n      0x40\n        /* \"#utility.yul\":1127:1149   */\n      mstore\n        /* \"#utility.yul\":917:1155   */\n      pop\n        /* \"#utility.yul\":874:1155   */\n      pop\n      pop\n      jump\t// out\n        /* \"#utility.yul\":1161:1290   */\n    tag_32:\n        /* \"#utility.yul\":1195:1201   */\n      0x00\n        /* \"#utility.yul\":1222:1242   */\n      tag_65\n      tag_24\n      jump\t// in\n    tag_65:\n        /* \"#utility.yul\":1212:1242   */\n      swap1\n      pop\n        /* \"#utility.yul\":1251:1284   */\n      tag_66\n        /* \"#utility.yul\":1279:1283   */\n      dup3\n        /* \"#utility.yul\":1271:1277   */\n      dup3\n        /* \"#utility.yul\":1251:1284   */\n      tag_31\n      jump\t// in\n    tag_66:\n        /* \"#utility.yul\":1161:1290   */\n      swap2\n      swap1\n      pop\n      jump\t// out\n        /* \"#utility.yul\":1296:1604   */\n    tag_33:\n        /* \"#utility.yul\":1358:1362   */\n      0x00\n        /* \"#utility.yul\":1448:1466   */\n      0xffffffffffffffff\n        /* \"#utility.yul\":1440:1446   */\n      dup3\n        /* \"#utility.yul\":1437:1467   */\n      gt\n        /* \"#utility.yul\":1434:1490   */\n      iszero\n      tag_68\n      jumpi\n        /* \"#utility.yul\":1470:1488   */\n      tag_69\n      tag_30\n      jump\t// in\n    tag_69:\n        /* \"#utility.yul\":1434:1490   */\n    tag_68:\n        /* \"#utility.yul\":1508:1537   */\n      tag_70\n        /* \"#utility.yul\":1530:1536   */\n      dup3\n        /* \"#utility.yul\":1508:1537   */\n      tag_29\n      jump\t// in\n    tag_70:\n        /* \"#utility.yul\":1500:1537   */\n      swap1\n      pop\n        /* \"#utility.yul\":1592:1596   */\n      0x20\n        /* \"#utility.yul\":1586:1590   */\n      dup2\n        /* \"#utility.yul\":1582:1597   */\n      add\n        /* \"#utility.yul\":1574:1597   */\n      swap1\n      pop\n        /* \"#utility.yul\":1296:1604   */\n      swap2\n      swap1\n      pop\n      jump\t// out\n        /* \"#utility.yul\":1610:1764   */\n    tag_34:\n        /* \"#utility.yul\":1694:1700   */\n      dup3\n        /* \"#utility.yul\":1689:1692   */\n      dup2\n        /* \"#utility.yul\":1684:1687   */\n      dup4\n        /* \"#utility.yul\":1671:1701   */\n      calldatacopy\n        /* \"#utility.yul\":1756:1757   */\n      0x00\n        /* \"#utility.yul\":1747:1753   */\n      dup4\n        /* \"#utility.yul\":1742:1745   */\n      dup4\n        /* \"#utility.yul\":1738:1754   */\n      add\n        /* \"#utility.yul\":1731:1758   */\n      mstore\n        /* \"#utility.yul\":1610:1764   */\n      pop\n      pop\n      pop\n      jump\t// out\n        /* \"#utility.yul\":1770:2182   */\n    tag_35:\n        /* \"#utility.yul\":1848:1853   */\n      0x00\n        /* \"#utility.yul\":1873:1939   */\n      tag_73\n        /* \"#utility.yul\":1889:1938   */\n      tag_74\n        /* \"#utility.yul\":1931:1937   */\n      dup5\n        /* \"#utility.yul\":1889:1938   */\n      tag_33\n      jump\t// in\n    tag_74:\n        /* \"#utility.yul\":1873:1939   */\n      tag_32\n      jump\t// in\n    tag_73:\n        /* \"#utility.yul\":1864:1939   */\n      swap1\n      pop\n        /* \"#utility.yul\":1962:1968   */\n      dup3\n        /* \"#utility.yul\":1955:1960   */\n      dup2\n        /* \"#utility.yul\":1948:1969   */\n      mstore\n        /* \"#utility.yul\":2000:2004   */\n      0x20\n        /* \"#utility.yul\":1993:1998   */\n      dup2\n        /* \"#utility.yul\":1989:2005   */\n      add\n        /* \"#utility.yul\":2038:2041   */\n      dup5\n        /* \"#utility.yul\":2029:2035   */\n      dup5\n        /* \"#utility.yul\":2024:2027   */\n      dup5\n        /* \"#utility.yul\":2020:2036   */\n      add\n        /* \"#utility.yul\":2017:2042   */\n      gt\n        /* \"#utility.yul\":2014:2126   */\n      iszero\n      tag_75\n      jumpi\n        /* \"#utility.yul\":2045:2124   */\n      tag_76\n      tag_28\n      jump\t// in\n    tag_76:\n        /* \"#utility.yul\":2014:2126   */\n    tag_75:\n        /* \"#utility.yul\":2135:2176   */\n      tag_77\n        /* \"#utility.yul\":2169:2175   */\n      dup5\n        /* \"#utility.yul\":2164:2167   */\n      dup3\n        /* \"#utility.yul\":2159:2162   */\n      dup6\n        /* \"#utility.yul\":2135:2176   */\n      tag_34\n      jump\t// in\n    tag_77:\n        /* \"#utility.yul\":1854:2182   */\n      pop\n        /* \"#utility.yul\":1770:2182   */\n      swap4\n      swap3\n      pop\n      pop\n      pop\n      jump\t// out\n        /* \"#utility.yul\":2202:2542   */\n    tag_36:\n        /* \"#utility.yul\":2258:2263   */\n      0x00\n        /* \"#utility.yul\":2307:2310   */\n      dup3\n        /* \"#utility.yul\":2300:2304   */\n      0x1f\n        /* \"#utility.yul\":2292:2298   */\n      dup4\n        /* \"#utility.yul\":2288:2305   */\n      add\n        /* \"#utility.yul\":2284:2311   */\n      slt\n        /* \"#utility.yul\":2274:2396   */\n      tag_79\n      jumpi\n        /* \"#utility.yul\":2315:2394   */\n      tag_80\n      tag_27\n      jump\t// in\n    tag_80:\n        /* \"#utility.yul\":2274:2396   */\n    tag_79:\n        /* \"#utility.yul\":2432:2438   */\n      dup2\n        /* \"#utility.yul\":2419:2439   */\n      calldataload\n        /* \"#utility.yul\":2457:2536   */\n      tag_81\n        /* \"#utility.yul\":2532:2535   */\n      dup5\n        /* \"#utility.yul\":2524:2530   */\n      dup3\n        /* \"#utility.yul\":2517:2521   */\n      0x20\n        /* \"#utility.yul\":2509:2515   */\n      dup7\n        /* \"#utility.yul\":2505:2522   */\n      add\n        /* \"#utility.yul\":2457:2536   */\n      tag_35\n      jump\t// in\n    tag_81:\n        /* \"#utility.yul\":2448:2536   */\n      swap2\n      pop\n        /* \"#utility.yul\":2264:2542   */\n      pop\n        /* \"#utility.yul\":2202:2542   */\n      swap3\n      swap2\n      pop\n      pop\n      jump\t// out\n        /* \"#utility.yul\":2548:3382   */\n    tag_7:\n        /* \"#utility.yul\":2636:2642   */\n      0x00\n        /* \"#utility.yul\":2644:2650   */\n      dup1\n        /* \"#utility.yul\":2693:2695   */\n      0x40\n        /* \"#utility.yul\":2681:2690   */\n      dup4\n        /* \"#utility.yul\":2672:2679   */\n      dup6\n        /* \"#utility.yul\":2668:2691   */\n      sub\n        /* \"#utility.yul\":2664:2696   */\n      slt\n        /* \"#utility.yul\":2661:2780   */\n      iszero\n      tag_83\n      jumpi\n        /* \"#utility.yul\":2699:2778   */\n      tag_84\n      tag_25\n      jump\t// in\n    tag_84:\n        /* \"#utility.yul\":2661:2780   */\n    tag_83:\n        /* \"#utility.yul\":2847:2848   */\n      0x00\n        /* \"#utility.yul\":2836:2845   */\n      dup4\n        /* \"#utility.yul\":2832:2849   */\n      add\n        /* \"#utility.yul\":2819:2850   */\n      calldataload\n        /* \"#utility.yul\":2877:2895   */\n      0xffffffffffffffff\n        /* \"#utility.yul\":2869:2875   */\n      dup2\n        /* \"#utility.yul\":2866:2896   */\n      gt\n        /* \"#utility.yul\":2863:2980   */\n      iszero\n      tag_85\n      jumpi\n        /* \"#utility.yul\":2899:2978   */\n      tag_86\n      tag_26\n      jump\t// in\n    tag_86:\n        /* \"#utility.yul\":2863:2980   */\n    tag_85:\n        /* \"#utility.yul\":3004:3067   */\n      tag_87\n        /* \"#utility.yul\":3059:3066   */\n      dup6\n        /* \"#utility.yul\":3050:3056   */\n      dup3\n        /* \"#utility.yul\":3039:3048   */\n      dup7\n        /* \"#utility.yul\":3035:3057   */\n      add\n        /* \"#utility.yul\":3004:3067   */\n      tag_36\n      jump\t// in\n    tag_87:\n        /* \"#utility.yul\":2994:3067   */\n      swap3\n      pop\n        /* \"#utility.yul\":2790:3077   */\n      pop\n        /* \"#utility.yul\":3144:3146   */\n      0x20\n        /* \"#utility.yul\":3133:3142   */\n      dup4\n        /* \"#utility.yul\":3129:3147   */\n      add\n        /* \"#utility.yul\":3116:3148   */\n      calldataload\n        /* \"#utility.yul\":3175:3193   */\n      0xffffffffffffffff\n        /* \"#utility.yul\":3167:3173   */\n      dup2\n        /* \"#utility.yul\":3164:3194   */\n      gt\n        /* \"#utility.yul\":3161:3278   */\n      iszero\n      tag_88\n      jumpi\n        /* \"#utility.yul\":3197:3276   */\n      tag_89\n      tag_26\n      jump\t// in\n    tag_89:\n        /* \"#utility.yul\":3161:3278   */\n    tag_88:\n        /* \"#utility.yul\":3302:3365   */\n      tag_90\n        /* \"#utility.yul\":3357:3364   */\n      dup6\n        /* \"#utility.yul\":3348:3354   */\n      dup3\n        /* \"#utility.yul\":3337:3346   */\n      dup7\n        /* \"#utility.yul\":3333:3355   */\n      add\n        /* \"#utility.yul\":3302:3365   */\n      tag_36\n      jump\t// in\n    tag_90:\n        /* \"#utility.yul\":3292:3365   */\n      swap2\n      pop\n        /* \"#utility.yul\":3087:3375   */\n      pop\n        /* \"#utility.yul\":2548:3382   */\n      swap3\n      pop\n      swap3\n      swap1\n      pop\n      jump\t// out\n        /* \"#utility.yul\":3388:3478   */\n    tag_37:\n        /* \"#utility.yul\":3422:3429   */\n      0x00\n        /* \"#utility.yul\":3465:3470   */\n      dup2\n        /* \"#utility.yul\":3458:3471   */\n      iszero\n        /* \"#utility.yul\":3451:3472   */\n      iszero\n        /* \"#utility.yul\":3440:3472   */\n      swap1\n      pop\n        /* \"#utility.yul\":3388:3478   */\n      swap2\n      swap1\n      pop\n      jump\t// out\n        /* \"#utility.yul\":3484:3593   */\n    tag_38:\n        /* \"#utility.yul\":3565:3586   */\n      tag_93\n        /* \"#utility.yul\":3580:3585   */\n      dup2\n        /* \"#utility.yul\":3565:3586   */\n      tag_37\n      jump\t// in\n    tag_93:\n        /* \"#utility.yul\":3560:3563   */\n      dup3\n        /* \"#utility.yul\":3553:3587   */\n      mstore\n        /* \"#utility.yul\":3484:3593   */\n      pop\n      pop\n      jump\t// out\n        /* \"#utility.yul\":3599:3809   */\n    tag_10:\n        /* \"#utility.yul\":3686:3690   */\n      0x00\n        /* \"#utility.yul\":3724:3726   */\n      0x20\n        /* \"#utility.yul\":3713:3722   */\n      dup3\n        /* \"#utility.yul\":3709:3727   */\n      add\n        /* \"#utility.yul\":3701:3727   */\n      swap1\n      pop\n        /* \"#utility.yul\":3737:3802   */\n      tag_95\n        /* \"#utility.yul\":3799:3800   */\n      0x00\n        /* \"#utility.yul\":3788:3797   */\n      dup4\n        /* \"#utility.yul\":3784:3801   */\n      add\n        /* \"#utility.yul\":3775:3781   */\n      dup5\n        /* \"#utility.yul\":3737:3802   */\n      tag_38\n      jump\t// in\n    tag_95:\n        /* \"#utility.yul\":3599:3809   */\n      swap3\n      swap2\n      pop\n      pop\n      jump\t// out\n        /* \"#utility.yul\":3815:3941   */\n    tag_39:\n        /* \"#utility.yul\":3852:3859   */\n      0x00\n        /* \"#utility.yul\":3892:3934   */\n      0xffffffffffffffffffffffffffffffffffffffff\n        /* \"#utility.yul\":3885:3890   */\n      dup3\n        /* \"#utility.yul\":3881:3935   */\n      and\n        /* \"#utility.yul\":3870:3935   */\n      swap1\n      pop\n        /* \"#utility.yul\":3815:3941   */\n      swap2\n      swap1\n      pop\n      jump\t// out\n        /* \"#utility.yul\":3947:4043   */\n    tag_40:\n        /* \"#utility.yul\":3984:3991   */\n      0x00\n        /* \"#utility.yul\":4013:4037   */\n      tag_98\n        /* \"#utility.yul\":4031:4036   */\n      dup3\n        /* \"#utility.yul\":4013:4037   */\n      tag_39\n      jump\t// in\n    tag_98:\n        /* \"#utility.yul\":4002:4037   */\n      swap1\n      pop\n        /* \"#utility.yul\":3947:4043   */\n      swap2\n      swap1\n      pop\n      jump\t// out\n        /* \"#utility.yul\":4049:4171   */\n    tag_41:\n        /* \"#utility.yul\":4122:4146   */\n      tag_100\n        /* \"#utility.yul\":4140:4145   */\n      dup2\n        /* \"#utility.yul\":4122:4146   */\n      tag_40\n      jump\t// in\n    tag_100:\n        /* \"#utility.yul\":4115:4120   */\n      dup2\n        /* \"#utility.yul\":4112:4147   */\n      eq\n        /* \"#utility.yul\":4102:4165   */\n      tag_101\n      jumpi\n        /* \"#utility.yul\":4161:4162   */\n      0x00\n        /* \"#utility.yul\":4158:4159   */\n      dup1\n        /* \"#utility.yul\":4151:4163   */\n      revert\n        /* \"#utility.yul\":4102:4165   */\n    tag_101:\n        /* \"#utility.yul\":4049:4171   */\n      pop\n      jump\t// out\n        /* \"#utility.yul\":4177:4316   */\n    tag_42:\n        /* \"#utility.yul\":4223:4228   */\n      0x00\n        /* \"#utility.yul\":4261:4267   */\n      dup2\n        /* \"#utility.yul\":4248:4268   */\n      calldataload\n        /* \"#utility.yul\":4239:4268   */\n      swap1\n      pop\n        /* \"#utility.yul\":4277:4310   */\n      tag_103\n        /* \"#utility.yul\":4304:4309   */\n      dup2\n        /* \"#utility.yul\":4277:4310   */\n      tag_41\n      jump\t// in\n    tag_103:\n        /* \"#utility.yul\":4177:4316   */\n      swap3\n      swap2\n      pop\n      pop\n      jump\t// out\n        /* \"#utility.yul\":4322:4399   */\n    tag_43:\n        /* \"#utility.yul\":4359:4366   */\n      0x00\n        /* \"#utility.yul\":4388:4393   */\n      dup2\n        /* \"#utility.yul\":4377:4393   */\n      swap1\n      pop\n        /* \"#utility.yul\":4322:4399   */\n      swap2\n      swap1\n      pop\n      jump\t// out\n        /* \"#utility.yul\":4405:4527   */\n    tag_44:\n        /* \"#utility.yul\":4478:4502   */\n      tag_106\n        /* \"#utility.yul\":4496:4501   */\n      dup2\n        /* \"#utility.yul\":4478:4502   */\n      tag_43\n      jump\t// in\n    tag_106:\n        /* \"#utility.yul\":4471:4476   */\n      dup2\n        /* \"#utility.yul\":4468:4503   */\n      eq\n        /* \"#utility.yul\":4458:4521   */\n      tag_107\n      jumpi\n        /* \"#utility.yul\":4517:4518   */\n      0x00\n        /* \"#utility.yul\":4514:4515   */\n      dup1\n        /* \"#utility.yul\":4507:4519   */\n      revert\n        /* \"#utility.yul\":4458:4521   */\n    tag_107:\n        /* \"#utility.yul\":4405:4527   */\n      pop\n      jump\t// out\n        /* \"#utility.yul\":4533:4672   */\n    tag_45:\n        /* \"#utility.yul\":4579:4584   */\n      0x00\n        /* \"#utility.yul\":4617:4623   */\n      dup2\n        /* \"#utility.yul\":4604:4624   */\n      calldataload\n        /* \"#utility.yul\":4595:4624   */\n      swap1\n      pop\n        /* \"#utility.yul\":4633:4666   */\n      tag_109\n        /* \"#utility.yul\":4660:4665   */\n      dup2\n        /* \"#utility.yul\":4633:4666   */\n      tag_44\n      jump\t// in\n    tag_109:\n        /* \"#utility.yul\":4533:4672   */\n      swap3\n      swap2\n      pop\n      pop\n      jump\t// out\n        /* \"#utility.yul\":4678:5477   */\n    tag_13:\n        /* \"#utility.yul\":4765:4771   */\n      0x00\n        /* \"#utility.yul\":4773:4779   */\n      dup1\n        /* \"#utility.yul\":4781:4787   */\n      0x00\n        /* \"#utility.yul\":4830:4832   */\n      0x60\n        /* \"#utility.yul\":4818:4827   */\n      dup5\n        /* \"#utility.yul\":4809:4816   */\n      dup7\n        /* \"#utility.yul\":4805:4828   */\n      sub\n        /* \"#utility.yul\":4801:4833   */\n      slt\n        /* \"#utility.yul\":4798:4917   */\n      iszero\n      tag_111\n      jumpi\n        /* \"#utility.yul\":4836:4915   */\n      tag_112\n      tag_25\n      jump\t// in\n    tag_112:\n        /* \"#utility.yul\":4798:4917   */\n    tag_111:\n        /* \"#utility.yul\":4956:4957   */\n      0x00\n        /* \"#utility.yul\":4981:5034   */\n      tag_113\n        /* \"#utility.yul\":5026:5033   */\n      dup7\n        /* \"#utility.yul\":5017:5023   */\n      dup3\n        /* \"#utility.yul\":5006:5015   */\n      dup8\n        /* \"#utility.yul\":5002:5024   */\n      add\n        /* \"#utility.yul\":4981:5034   */\n      tag_42\n      jump\t// in\n    tag_113:\n        /* \"#utility.yul\":4971:5034   */\n      swap4\n      pop\n        /* \"#utility.yul\":4927:5044   */\n      pop\n        /* \"#utility.yul\":5083:5085   */\n      0x20\n        /* \"#utility.yul\":5109:5162   */\n      tag_114\n        /* \"#utility.yul\":5154:5161   */\n      dup7\n        /* \"#utility.yul\":5145:5151   */\n      dup3\n        /* \"#utility.yul\":5134:5143   */\n      dup8\n        /* \"#utility.yul\":5130:5152   */\n      add\n        /* \"#utility.yul\":5109:5162   */\n      tag_45\n      jump\t// in\n    tag_114:\n        /* \"#utility.yul\":5099:5162   */\n      swap3\n      pop\n        /* \"#utility.yul\":5054:5172   */\n      pop\n        /* \"#utility.yul\":5239:5241   */\n      0x40\n        /* \"#utility.yul\":5228:5237   */\n      dup5\n        /* \"#utility.yul\":5224:5242   */\n      add\n        /* \"#utility.yul\":5211:5243   */\n      calldataload\n        /* \"#utility.yul\":5270:5288   */\n      0xffffffffffffffff\n        /* \"#utility.yul\":5262:5268   */\n      dup2\n        /* \"#utility.yul\":5259:5289   */\n      gt\n        /* \"#utility.yul\":5256:5373   */\n      iszero\n      tag_115\n      jumpi\n        /* \"#utility.yul\":5292:5371   */\n      tag_116\n      tag_26\n      jump\t// in\n    tag_116:\n        /* \"#utility.yul\":5256:5373   */\n    tag_115:\n        /* \"#utility.yul\":5397:5460   */\n      tag_117\n        /* \"#utility.yul\":5452:5459   */\n      dup7\n        /* \"#utility.yul\":5443:5449   */\n      dup3\n        /* \"#utility.yul\":5432:5441   */\n      dup8\n        /* \"#utility.yul\":5428:5450   */\n      add\n        /* \"#utility.yul\":5397:5460   */\n      tag_36\n      jump\t// in\n    tag_117:\n        /* \"#utility.yul\":5387:5460   */\n      swap2\n      pop\n        /* \"#utility.yul\":5182:5470   */\n      pop\n        /* \"#utility.yul\":4678:5477   */\n      swap3\n      pop\n      swap3\n      pop\n      swap3\n      jump\t// out\n        /* \"#utility.yul\":5483:5582   */\n    tag_46:\n        /* \"#utility.yul\":5535:5541   */\n      0x00\n        /* \"#utility.yul\":5569:5574   */\n      dup2\n        /* \"#utility.yul\":5563:5575   */\n      mload\n        /* \"#utility.yul\":5553:5575   */\n      swap1\n      pop\n        /* \"#utility.yul\":5483:5582   */\n      swap2\n      swap1\n      pop\n      jump\t// out\n        /* \"#utility.yul\":5588:5757   */\n    tag_47:\n        /* \"#utility.yul\":5672:5683   */\n      0x00\n        /* \"#utility.yul\":5706:5712   */\n      dup3\n        /* \"#utility.yul\":5701:5704   */\n      dup3\n        /* \"#utility.yul\":5694:5713   */\n      mstore\n        /* \"#utility.yul\":5746:5750   */\n      0x20\n        /* \"#utility.yul\":5741:5744   */\n      dup3\n        /* \"#utility.yul\":5737:5751   */\n      add\n        /* \"#utility.yul\":5722:5751   */\n      swap1\n      pop\n        /* \"#utility.yul\":5588:5757   */\n      swap3\n      swap2\n      pop\n      pop\n      jump\t// out\n        /* \"#utility.yul\":5763:6070   */\n    tag_48:\n        /* \"#utility.yul\":5831:5832   */\n      0x00\n        /* \"#utility.yul\":5841:5954   */\n    tag_121:\n        /* \"#utility.yul\":5855:5861   */\n      dup4\n        /* \"#utility.yul\":5852:5853   */\n      dup2\n        /* \"#utility.yul\":5849:5862   */\n      lt\n        /* \"#utility.yul\":5841:5954   */\n      iszero\n      tag_123\n      jumpi\n        /* \"#utility.yul\":5940:5941   */\n      dup1\n        /* \"#utility.yul\":5935:5938   */\n      dup3\n        /* \"#utility.yul\":5931:5942   */\n      add\n        /* \"#utility.yul\":5925:5943   */\n      mload\n        /* \"#utility.yul\":5921:5922   */\n      dup2\n        /* \"#utility.yul\":5916:5919   */\n      dup5\n        /* \"#utility.yul\":5912:5923   */\n      add\n        /* \"#utility.yul\":5905:5944   */\n      mstore\n        /* \"#utility.yul\":5877:5879   */\n      0x20\n        /* \"#utility.yul\":5874:5875   */\n      dup2\n        /* \"#utility.yul\":5870:5880   */\n      add\n        /* \"#utility.yul\":5865:5880   */\n      swap1\n      pop\n        /* \"#utility.yul\":5841:5954   */\n      jump(tag_121)\n    tag_123:\n        /* \"#utility.yul\":5972:5978   */\n      dup4\n        /* \"#utility.yul\":5969:5970   */\n      dup2\n        /* \"#utility.yul\":5966:5979   */\n      gt\n        /* \"#utility.yul\":5963:6064   */\n      iszero\n      tag_124\n      jumpi\n        /* \"#utility.yul\":6052:6053   */\n      0x00\n        /* \"#utility.yul\":6043:6049   */\n      dup5\n        /* \"#utility.yul\":6038:6041   */\n      dup5\n        /* \"#utility.yul\":6034:6050   */\n      add\n        /* \"#utility.yul\":6027:6054   */\n      mstore\n        /* \"#utility.yul\":5963:6064   */\n    tag_124:\n        /* \"#utility.yul\":5812:6070   */\n      pop\n        /* \"#utility.yul\":5763:6070   */\n      pop\n      pop\n      pop\n      jump\t// out\n        /* \"#utility.yul\":6076:6440   */\n    tag_49:\n        /* \"#utility.yul\":6164:6167   */\n      0x00\n        /* \"#utility.yul\":6192:6231   */\n      tag_126\n        /* \"#utility.yul\":6225:6230   */\n      dup3\n        /* \"#utility.yul\":6192:6231   */\n      tag_46\n      jump\t// in\n    tag_126:\n        /* \"#utility.yul\":6247:6318   */\n      tag_127\n        /* \"#utility.yul\":6311:6317   */\n      dup2\n        /* \"#utility.yul\":6306:6309   */\n      dup6\n        /* \"#utility.yul\":6247:6318   */\n      tag_47\n      jump\t// in\n    tag_127:\n        /* \"#utility.yul\":6240:6318   */\n      swap4\n      pop\n        /* \"#utility.yul\":6327:6379   */\n      tag_128\n        /* \"#utility.yul\":6372:6378   */\n      dup2\n        /* \"#utility.yul\":6367:6370   */\n      dup6\n        /* \"#utility.yul\":6360:6364   */\n      0x20\n        /* \"#utility.yul\":6353:6358   */\n      dup7\n        /* \"#utility.yul\":6349:6365   */\n      add\n        /* \"#utility.yul\":6327:6379   */\n      tag_48\n      jump\t// in\n    tag_128:\n        /* \"#utility.yul\":6404:6433   */\n      tag_129\n        /* \"#utility.yul\":6426:6432   */\n      dup2\n        /* \"#utility.yul\":6404:6433   */\n      tag_29\n      jump\t// in\n    tag_129:\n        /* \"#utility.yul\":6399:6402   */\n      dup5\n        /* \"#utility.yul\":6395:6434   */\n      add\n        /* \"#utility.yul\":6388:6434   */\n      swap2\n      pop\n        /* \"#utility.yul\":6168:6440   */\n      pop\n        /* \"#utility.yul\":6076:6440   */\n      swap3\n      swap2\n      pop\n      pop\n      jump\t// out\n        /* \"#utility.yul\":6446:6759   */\n    tag_17:\n        /* \"#utility.yul\":6559:6563   */\n      0x00\n        /* \"#utility.yul\":6597:6599   */\n      0x20\n        /* \"#utility.yul\":6586:6595   */\n      dup3\n        /* \"#utility.yul\":6582:6600   */\n      add\n        /* \"#utility.yul\":6574:6600   */\n      swap1\n      pop\n        /* \"#utility.yul\":6646:6655   */\n      dup2\n        /* \"#utility.yul\":6640:6644   */\n      dup2\n        /* \"#utility.yul\":6636:6656   */\n      sub\n        /* \"#utility.yul\":6632:6633   */\n      0x00\n        /* \"#utility.yul\":6621:6630   */\n      dup4\n        /* \"#utility.yul\":6617:6634   */\n      add\n        /* \"#utility.yul\":6610:6657   */\n      mstore\n        /* \"#utility.yul\":6674:6752   */\n      tag_131\n        /* \"#utility.yul\":6747:6751   */\n      dup2\n        /* \"#utility.yul\":6738:6744   */\n      dup5\n        /* \"#utility.yul\":6674:6752   */\n      tag_49\n      jump\t// in\n    tag_131:\n        /* \"#utility.yul\":6666:6752   */\n      swap1\n      pop\n        /* \"#utility.yul\":6446:6759   */\n      swap3\n      swap2\n      pop\n      pop\n      jump\t// out\n        /* \"#utility.yul\":6765:6926   */\n    tag_50:\n        /* \"#utility.yul\":6905:6918   */\n      0x4974277320612074726170000000000000000000000000000000000000000000\n        /* \"#utility.yul\":6901:6902   */\n      0x00\n        /* \"#utility.yul\":6893:6899   */\n      dup3\n        /* \"#utility.yul\":6889:6903   */\n      add\n        /* \"#utility.yul\":6882:6919   */\n      mstore\n        /* \"#utility.yul\":6765:6926   */\n      pop\n      jump\t// out\n        /* \"#utility.yul\":6932:7298   */\n    tag_51:\n        /* \"#utility.yul\":7074:7077   */\n      0x00\n        /* \"#utility.yul\":7095:7162   */\n      tag_134\n        /* \"#utility.yul\":7159:7161   */\n      0x0b\n        /* \"#utility.yul\":7154:7157   */\n      dup4\n        /* \"#utility.yul\":7095:7162   */\n      tag_47\n      jump\t// in\n    tag_134:\n        /* \"#utility.yul\":7088:7162   */\n      swap2\n      pop\n        /* \"#utility.yul\":7171:7264   */\n      tag_135\n        /* \"#utility.yul\":7260:7263   */\n      dup3\n        /* \"#utility.yul\":7171:7264   */\n      tag_50\n      jump\t// in\n    tag_135:\n        /* \"#utility.yul\":7289:7291   */\n      0x20\n        /* \"#utility.yul\":7284:7287   */\n      dup3\n        /* \"#utility.yul\":7280:7292   */\n      add\n        /* \"#utility.yul\":7273:7292   */\n      swap1\n      pop\n        /* \"#utility.yul\":6932:7298   */\n      swap2\n      swap1\n      pop\n      jump\t// out\n        /* \"#utility.yul\":7304:7723   */\n    tag_23:\n        /* \"#utility.yul\":7470:7474   */\n      0x00\n        /* \"#utility.yul\":7508:7510   */\n      0x20\n        /* \"#utility.yul\":7497:7506   */\n      dup3\n        /* \"#utility.yul\":7493:7511   */\n      add\n        /* \"#utility.yul\":7485:7511   */\n      swap1\n      pop\n        /* \"#utility.yul\":7557:7566   */\n      dup2\n        /* \"#utility.yul\":7551:7555   */\n      dup2\n        /* \"#utility.yul\":7547:7567   */\n      sub\n        /* \"#utility.yul\":7543:7544   */\n      0x00\n        /* \"#utility.yul\":7532:7541   */\n      dup4\n        /* \"#utility.yul\":7528:7545   */\n      add\n        /* \"#utility.yul\":7521:7568   */\n      mstore\n        /* \"#utility.yul\":7585:7716   */\n      tag_137\n        /* \"#utility.yul\":7711:7715   */\n      dup2\n        /* \"#utility.yul\":7585:7716   */\n      tag_51\n      jump\t// in\n    tag_137:\n        /* \"#utility.yul\":7577:7716   */\n      swap1\n      pop\n        /* \"#utility.yul\":7304:7723   */\n      swap2\n      swap1\n      pop\n      jump\t// out\n\n    auxdata: 0xa26469706673582212207182d63bd9ff8a7314228d97ff483ac2bc9c65ca7782635d9ee20ba0b56cc3c164736f6c634300080e0033\n}\n",
				"bytecode": {
					"linkReferences": {},
					"object": "608060405234801561001057600080fd5b506105bb806100206000396000f3fe608060405234801561001057600080fd5b50600436106100365760003560e01c806346bdca9a1461003b578063a1f2e8aa1461006b575b600080fd5b610055600480360381019061005091906102be565b610087565b6040516100629190610351565b60405180910390f35b61008560048036038101906100809190610400565b6100e0565b005b60008160405160200161009a91906104f7565b60405160208183030381529060405280519060200120836040516020016100c191906104f7565b6040516020818303038152906040528051906020012014905092915050565b61011f816040518060400160405280600881526020017f5769746864726177000000000000000000000000000000000000000000000000815250610087565b1561015f576040517f08c379a000000000000000000000000000000000000000000000000000000000815260040161015690610565565b60405180910390fd5b505050565b6000604051905090565b600080fd5b600080fd5b600080fd5b600080fd5b6000601f19601f8301169050919050565b7f4e487b7100000000000000000000000000000000000000000000000000000000600052604160045260246000fd5b6101cb82610182565b810181811067ffffffffffffffff821117156101ea576101e9610193565b5b80604052505050565b60006101fd610164565b905061020982826101c2565b919050565b600067ffffffffffffffff82111561022957610228610193565b5b61023282610182565b9050602081019050919050565b82818337600083830152505050565b600061026161025c8461020e565b6101f3565b90508281526020810184848401111561027d5761027c61017d565b5b61028884828561023f565b509392505050565b600082601f8301126102a5576102a4610178565b5b81356102b584826020860161024e565b91505092915050565b600080604083850312156102d5576102d461016e565b5b600083013567ffffffffffffffff8111156102f3576102f2610173565b5b6102ff85828601610290565b925050602083013567ffffffffffffffff8111156103205761031f610173565b5b61032c85828601610290565b9150509250929050565b60008115159050919050565b61034b81610336565b82525050565b60006020820190506103666000830184610342565b92915050565b600073ffffffffffffffffffffffffffffffffffffffff82169050919050565b60006103978261036c565b9050919050565b6103a78161038c565b81146103b257600080fd5b50565b6000813590506103c48161039e565b92915050565b6000819050919050565b6103dd816103ca565b81146103e857600080fd5b50565b6000813590506103fa816103d4565b92915050565b6000806000606084860312156104195761041861016e565b5b6000610427868287016103b5565b9350506020610438868287016103eb565b925050604084013567ffffffffffffffff81111561045957610458610173565b5b61046586828701610290565b9150509250925092565b600081519050919050565b600082825260208201905092915050565b60005b838110156104a957808201518184015260208101905061048e565b838111156104b8576000848401525b50505050565b60006104c98261046f565b6104d3818561047a565b93506104e381856020860161048b565b6104ec81610182565b840191505092915050565b6000602082019050818103600083015261051181846104be565b905092915050565b7f4974277320612074726170000000000000000000000000000000000000000000600082015250565b600061054f600b8361047a565b915061055a82610519565b602082019050919050565b6000602082019050818103600083015261057e81610542565b905091905056fea26469706673582212207182d63bd9ff8a7314228d97ff483ac2bc9c65ca7782635d9ee20ba0b56cc3c164736f6c634300080e0033",
					"opcodes": "PUSH1 0x80 PUSH1 0x40 MSTORE CALLVALUE DUP1 ISZERO PUSH2 0x10 JUMPI PUSH1 0x0 DUP1 REVERT JUMPDEST POP PUSH2 0x5BB DUP1 PUSH2 0x20 PUSH1 0x0 CODECOPY PUSH1 0x0 RETURN INVALID PUSH1 0x80 PUSH1 0x40 MSTORE CALLVALUE DUP1 ISZERO PUSH2 0x10 JUMPI PUSH1 0x0 DUP1 REVERT JUMPDEST POP PUSH1 0x4 CALLDATASIZE LT PUSH2 0x36 JUMPI PUSH1 0x0 CALLDATALOAD PUSH1 0xE0 SHR DUP1 PUSH4 0x46BDCA9A EQ PUSH2 0x3B JUMPI DUP1 PUSH4 0xA1F2E8AA EQ PUSH2 0x6B JUMPI JUMPDEST PUSH1 0x0 DUP1 REVERT JUMPDEST PUSH2 0x55 PUSH1 0x4 DUP1 CALLDATASIZE SUB DUP2 ADD SWAP1 PUSH2 0x50 SWAP2 SWAP1 PUSH2 0x2BE JUMP JUMPDEST PUSH2 0x87 JUMP JUMPDEST PUSH1 0x40 MLOAD PUSH2 0x62 SWAP2 SWAP1 PUSH2 0x351 JUMP JUMPDEST PUSH1 0x40 MLOAD DUP1 SWAP2 SUB SWAP1 RETURN JUMPDEST PUSH2 0x85 PUSH1 0x4 DUP1 CALLDATASIZE SUB DUP2 ADD SWAP1 PUSH2 0x80 SWAP2 SWAP1 PUSH2 0x400 JUMP JUMPDEST PUSH2 0xE0 JUMP JUMPDEST STOP JUMPDEST PUSH1 0x0 DUP2 PUSH1 0x40 MLOAD PUSH1 0x20 ADD PUSH2 0x9A SWAP2 SWAP1 PUSH2 0x4F7 JUMP JUMPDEST PUSH1 0x40 MLOAD PUSH1 0x20 DUP2 DUP4 SUB SUB DUP2 MSTORE SWAP1 PUSH1 0x40 MSTORE DUP1 MLOAD SWAP1 PUSH1 0x20 ADD KECCAK256 DUP4 PUSH1 0x40 MLOAD PUSH1 0x20 ADD PUSH2 0xC1 SWAP2 SWAP1 PUSH2 0x4F7 JUMP JUMPDEST PUSH1 0x40 MLOAD PUSH1 0x20 DUP2 DUP4 SUB SUB DUP2 MSTORE SWAP1 PUSH1 0x40 MSTORE DUP1 MLOAD SWAP1 PUSH1 0x20 ADD KECCAK256 EQ SWAP1 POP SWAP3 SWAP2 POP POP JUMP JUMPDEST PUSH2 0x11F DUP2 PUSH1 0x40 MLOAD DUP1 PUSH1 0x40 ADD PUSH1 0x40 MSTORE DUP1 PUSH1 0x8 DUP2 MSTORE PUSH1 0x20 ADD PUSH32 0x5769746864726177000000000000000000000000000000000000000000000000 DUP2 MSTORE POP PUSH2 0x87 JUMP JUMPDEST ISZERO PUSH2 0x15F JUMPI PUSH1 0x40 MLOAD PUSH32 0x8C379A000000000000000000000000000000000000000000000000000000000 DUP2 MSTORE PUSH1 0x4 ADD PUSH2 0x156 SWAP1 PUSH2 0x565 JUMP JUMPDEST PUSH1 0x40 MLOAD DUP1 SWAP2 SUB SWAP1 REVERT JUMPDEST POP POP POP JUMP JUMPDEST PUSH1 0x0 PUSH1 0x40 MLOAD SWAP1 POP SWAP1 JUMP JUMPDEST PUSH1 0x0 DUP1 REVERT JUMPDEST PUSH1 0x0 DUP1 REVERT JUMPDEST PUSH1 0x0 DUP1 REVERT JUMPDEST PUSH1 0x0 DUP1 REVERT JUMPDEST PUSH1 0x0 PUSH1 0x1F NOT PUSH1 0x1F DUP4 ADD AND SWAP1 POP SWAP2 SWAP1 POP JUMP JUMPDEST PUSH32 0x4E487B7100000000000000000000000000000000000000000000000000000000 PUSH1 0x0 MSTORE PUSH1 0x41 PUSH1 0x4 MSTORE PUSH1 0x24 PUSH1 0x0 REVERT JUMPDEST PUSH2 0x1CB DUP3 PUSH2 0x182 JUMP JUMPDEST DUP2 ADD DUP2 DUP2 LT PUSH8 0xFFFFFFFFFFFFFFFF DUP3 GT OR ISZERO PUSH2 0x1EA JUMPI PUSH2 0x1E9 PUSH2 0x193 JUMP JUMPDEST JUMPDEST DUP1 PUSH1 0x40 MSTORE POP POP POP JUMP JUMPDEST PUSH1 0x0 PUSH2 0x1FD PUSH2 0x164 JUMP JUMPDEST SWAP1 POP PUSH2 0x209 DUP3 DUP3 PUSH2 0x1C2 JUMP JUMPDEST SWAP2 SWAP1 POP JUMP JUMPDEST PUSH1 0x0 PUSH8 0xFFFFFFFFFFFFFFFF DUP3 GT ISZERO PUSH2 0x229 JUMPI PUSH2 0x228 PUSH2 0x193 JUMP JUMPDEST JUMPDEST PUSH2 0x232 DUP3 PUSH2 0x182 JUMP JUMPDEST SWAP1 POP PUSH1 0x20 DUP2 ADD SWAP1 POP SWAP2 SWAP1 POP JUMP JUMPDEST DUP3 DUP2 DUP4 CALLDATACOPY PUSH1 0x0 DUP4 DUP4 ADD MSTORE POP POP POP JUMP JUMPDEST PUSH1 0x0 PUSH2 0x261 PUSH2 0x25C DUP5 PUSH2 0x20E JUMP JUMPDEST PUSH2 0x1F3 JUMP JUMPDEST SWAP1 POP DUP3 DUP2 MSTORE PUSH1 0x20 DUP2 ADD DUP5 DUP5 DUP5 ADD GT ISZERO PUSH2 0x27D JUMPI PUSH2 0x27C PUSH2 0x17D JUMP JUMPDEST JUMPDEST PUSH2 0x288 DUP5 DUP3 DUP6 PUSH2 0x23F JUMP JUMPDEST POP SWAP4 SWAP3 POP POP POP JUMP JUMPDEST PUSH1 0x0 DUP3 PUSH1 0x1F DUP4 ADD SLT PUSH2 0x2A5 JUMPI PUSH2 0x2A4 PUSH2 0x178 JUMP JUMPDEST JUMPDEST DUP2 CALLDATALOAD PUSH2 0x2B5 DUP5 DUP3 PUSH1 0x20 DUP7 ADD PUSH2 0x24E JUMP JUMPDEST SWAP2 POP POP SWAP3 SWAP2 POP POP JUMP JUMPDEST PUSH1 0x0 DUP1 PUSH1 0x40 DUP4 DUP6 SUB SLT ISZERO PUSH2 0x2D5 JUMPI PUSH2 0x2D4 PUSH2 0x16E JUMP JUMPDEST JUMPDEST PUSH1 0x0 DUP4 ADD CALLDATALOAD PUSH8 0xFFFFFFFFFFFFFFFF DUP2 GT ISZERO PUSH2 0x2F3 JUMPI PUSH2 0x2F2 PUSH2 0x173 JUMP JUMPDEST JUMPDEST PUSH2 0x2FF DUP6 DUP3 DUP7 ADD PUSH2 0x290 JUMP JUMPDEST SWAP3 POP POP PUSH1 0x20 DUP4 ADD CALLDATALOAD PUSH8 0xFFFFFFFFFFFFFFFF DUP2 GT ISZERO PUSH2 0x320 JUMPI PUSH2 0x31F PUSH2 0x173 JUMP JUMPDEST JUMPDEST PUSH2 0x32C DUP6 DUP3 DUP7 ADD PUSH2 0x290 JUMP JUMPDEST SWAP2 POP POP SWAP3 POP SWAP3 SWAP1 POP JUMP JUMPDEST PUSH1 0x0 DUP2 ISZERO ISZERO SWAP1 POP SWAP2 SWAP1 POP JUMP JUMPDEST PUSH2 0x34B DUP2 PUSH2 0x336 JUMP JUMPDEST DUP3 MSTORE POP POP JUMP JUMPDEST PUSH1 0x0 PUSH1 0x20 DUP3 ADD SWAP1 POP PUSH2 0x366 PUSH1 0x0 DUP4 ADD DUP5 PUSH2 0x342 JUMP JUMPDEST SWAP3 SWAP2 POP POP JUMP JUMPDEST PUSH1 0x0 PUSH20 0xFFFFFFFFFFFFFFFFFFFFFFFFFFFFFFFFFFFFFFFF DUP3 AND SWAP1 POP SWAP2 SWAP1 POP JUMP JUMPDEST PUSH1 0x0 PUSH2 0x397 DUP3 PUSH2 0x36C JUMP JUMPDEST SWAP1 POP SWAP2 SWAP1 POP JUMP JUMPDEST PUSH2 0x3A7 DUP2 PUSH2 0x38C JUMP JUMPDEST DUP2 EQ PUSH2 0x3B2 JUMPI PUSH1 0x0 DUP1 REVERT JUMPDEST POP JUMP JUMPDEST PUSH1 0x0 DUP2 CALLDATALOAD SWAP1 POP PUSH2 0x3C4 DUP2 PUSH2 0x39E JUMP JUMPDEST SWAP3 SWAP2 POP POP JUMP JUMPDEST PUSH1 0x0 DUP2 SWAP1 POP SWAP2 SWAP1 POP JUMP JUMPDEST PUSH2 0x3DD DUP2 PUSH2 0x3CA JUMP JUMPDEST DUP2 EQ PUSH2 0x3E8 JUMPI PUSH1 0x0 DUP1 REVERT JUMPDEST POP JUMP JUMPDEST PUSH1 0x0 DUP2 CALLDATALOAD SWAP1 POP PUSH2 0x3FA DUP2 PUSH2 0x3D4 JUMP JUMPDEST SWAP3 SWAP2 POP POP JUMP JUMPDEST PUSH1 0x0 DUP1 PUSH1 0x0 PUSH1 0x60 DUP5 DUP7 SUB SLT ISZERO PUSH2 0x419 JUMPI PUSH2 0x418 PUSH2 0x16E JUMP JUMPDEST JUMPDEST PUSH1 0x0 PUSH2 0x427 DUP7 DUP3 DUP8 ADD PUSH2 0x3B5 JUMP JUMPDEST SWAP4 POP POP PUSH1 0x20 PUSH2 0x438 DUP7 DUP3 DUP8 ADD PUSH2 0x3EB JUMP JUMPDEST SWAP3 POP POP PUSH1 0x40 DUP5 ADD CALLDATALOAD PUSH8 0xFFFFFFFFFFFFFFFF DUP2 GT ISZERO PUSH2 0x459 JUMPI PUSH2 0x458 PUSH2 0x173 JUMP JUMPDEST JUMPDEST PUSH2 0x465 DUP7 DUP3 DUP8 ADD PUSH2 0x290 JUMP JUMPDEST SWAP2 POP POP SWAP3 POP SWAP3 POP SWAP3 JUMP JUMPDEST PUSH1 0x0 DUP2 MLOAD SWAP1 POP SWAP2 SWAP1 POP JUMP JUMPDEST PUSH1 0x0 DUP3 DUP3 MSTORE PUSH1 0x20 DUP3 ADD SWAP1 POP SWAP3 SWAP2 POP POP JUMP JUMPDEST PUSH1 0x0 JUMPDEST DUP4 DUP2 LT ISZERO PUSH2 0x4A9 JUMPI DUP1 DUP3 ADD MLOAD DUP2 DUP5 ADD MSTORE PUSH1 0x20 DUP2 ADD SWAP1 POP PUSH2 0x48E JUMP JUMPDEST DUP4 DUP2 GT ISZERO PUSH2 0x4B8 JUMPI PUSH1 0x0 DUP5 DUP5 ADD MSTORE JUMPDEST POP POP POP POP JUMP JUMPDEST PUSH1 0x0 PUSH2 0x4C9 DUP3 PUSH2 0x46F JUMP JUMPDEST PUSH2 0x4D3 DUP2 DUP6 PUSH2 0x47A JUMP JUMPDEST SWAP4 POP PUSH2 0x4E3 DUP2 DUP6 PUSH1 0x20 DUP7 ADD PUSH2 0x48B JUMP JUMPDEST PUSH2 0x4EC DUP2 PUSH2 0x182 JUMP JUMPDEST DUP5 ADD SWAP2 POP POP SWAP3 SWAP2 POP POP JUMP JUMPDEST PUSH1 0x0 PUSH1 0x20 DUP3 ADD SWAP1 POP DUP2 DUP2 SUB PUSH1 0x0 DUP4 ADD MSTORE PUSH2 0x511 DUP2 DUP5 PUSH2 0x4BE JUMP JUMPDEST SWAP1 POP SWAP3 SWAP2 POP POP JUMP JUMPDEST PUSH32 0x4974277320612074726170000000000000000000000000000000000000000000 PUSH1 0x0 DUP3 ADD MSTORE POP JUMP JUMPDEST PUSH1 0x0 PUSH2 0x54F PUSH1 0xB DUP4 PUSH2 0x47A JUMP JUMPDEST SWAP2 POP PUSH2 0x55A DUP3 PUSH2 0x519 JUMP JUMPDEST PUSH1 0x20 DUP3 ADD SWAP1 POP SWAP2 SWAP1 POP JUMP JUMPDEST PUSH1 0x0 PUSH1 0x20 DUP3 ADD SWAP1 POP DUP2 DUP2 SUB PUSH1 0x0 DUP4 ADD MSTORE PUSH2 0x57E DUP2 PUSH2 0x542 JUMP JUMPDEST SWAP1 POP SWAP2 SWAP1 POP JUMP INVALID LOG2 PUSH5 0x6970667358 0x22 SLT KECCAK256 PUSH18 0x82D63BD9FF8A7314228D97FF483AC2BC9C65 0xCA PUSH24 0x82635D9EE20BA0B56CC3C164736F6C634300080E00330000 "
				},
				"gasEstimates": {
					"creation": {
						"codeDepositCost": "293400",
						"executionCost": "331",
						"totalCost": "293731"
					},
					"external": {
						"equal(string,string)": "infinite",
						"log(address,uint256,string)": "infinite"
					}
				},
				"methodIdentifiers": {
					"equal(string,string)": "46bdca9a",
					"log(address,uint256,string)": "a1f2e8aa"
				}
			},
			"storageLayout": {
				"storage": [],
				"types": null
			},
			"userdoc": {
				"kind": "user",
				"methods": {},
				"version": 1
			}
		}
	}
}