{
	"solidity-study-demo/interview/ReduceTransactionPayload.sol": {
		"ReduceTransactionPayload": {
			"abi": [
				{
					"inputs": [
						{
							"internalType": "uint256",
							"name": "param1",
							"type": "uint256"
						},
						{
							"internalType": "uint256",
							"name": "param2",
							"type": "uint256"
						},
						{
							"internalType": "uint256",
							"name": "param3",
							"type": "uint256"
						},
						{
							"internalType": "address",
							"name": "param4",
							"type": "address"
						},
						{
							"internalType": "uint256",
							"name": "param5",
							"type": "uint256"
						},
						{
							"internalType": "uint256",
							"name": "param6",
							"type": "uint256"
						}
					],
					"name": "M",
					"outputs": [],
					"stateMutability": "nonpayable",
					"type": "function"
				}
			],
			"devdoc": {
				"kind": "dev",
				"methods": {},
				"version": 1
			},
			"evm": {
				"assembly": "    /* \"solidity-study-demo/interview/ReduceTransactionPayload.sol\":30:1032  contract ReduceTransactionPayload {... */\n  mstore(0x40, 0x80)\n  callvalue\n  dup1\n  iszero\n  tag_1\n  jumpi\n  0x00\n  dup1\n  revert\ntag_1:\n  pop\n  dataSize(sub_0)\n  dup1\n  dataOffset(sub_0)\n  0x00\n  codecopy\n  0x00\n  return\nstop\n\nsub_0: assembly {\n        /* \"solidity-study-demo/interview/ReduceTransactionPayload.sol\":30:1032  contract ReduceTransactionPayload {... */\n      mstore(0x40, 0x80)\n      callvalue\n      dup1\n      iszero\n      tag_1\n      jumpi\n      0x00\n      dup1\n      revert\n    tag_1:\n      pop\n      jumpi(tag_2, lt(calldatasize, 0x04))\n      shr(0xe0, calldataload(0x00))\n      dup1\n      0x47e69fa6\n      eq\n      tag_3\n      jumpi\n    tag_2:\n      0x00\n      dup1\n      revert\n        /* \"solidity-study-demo/interview/ReduceTransactionPayload.sol\":704:1018  function M(... */\n    tag_3:\n      tag_4\n      0x04\n      dup1\n      calldatasize\n      sub\n      dup2\n      add\n      swap1\n      tag_5\n      swap2\n      swap1\n      tag_6\n      jump\t// in\n    tag_5:\n      tag_7\n      jump\t// in\n    tag_4:\n      stop\n    tag_7:\n        /* \"solidity-study-demo/interview/ReduceTransactionPayload.sol\":899:905  param4 */\n      dup3\n        /* \"solidity-study-demo/interview/ReduceTransactionPayload.sol\":148:149  0 */\n      0x00\n        /* \"solidity-study-demo/interview/ReduceTransactionPayload.sol\":131:150  owner != address(0) */\n      0xffffffffffffffffffffffffffffffffffffffff\n      and\n        /* \"solidity-study-demo/interview/ReduceTransactionPayload.sol\":131:136  owner */\n      dup2\n        /* \"solidity-study-demo/interview/ReduceTransactionPayload.sol\":131:150  owner != address(0) */\n      0xffffffffffffffffffffffffffffffffffffffff\n      and\n      sub\n        /* \"solidity-study-demo/interview/ReduceTransactionPayload.sol\":123:172  require(owner != address(0), \"Not valid address\") */\n      tag_9\n      jumpi\n      mload(0x40)\n      0x08c379a000000000000000000000000000000000000000000000000000000000\n      dup2\n      mstore\n      0x04\n      add\n      tag_10\n      swap1\n      tag_11\n      jump\t// in\n    tag_10:\n      mload(0x40)\n      dup1\n      swap2\n      sub\n      swap1\n      revert\n    tag_9:\n        /* \"solidity-study-demo/interview/ReduceTransactionPayload.sol\":931:937  param1 */\n      dup7\n        /* \"solidity-study-demo/interview/ReduceTransactionPayload.sol\":939:945  param2 */\n      dup7\n        /* \"solidity-study-demo/interview/ReduceTransactionPayload.sol\":947:953  param5 */\n      dup5\n        /* \"solidity-study-demo/interview/ReduceTransactionPayload.sol\":331:336  10000 */\n      0x2710\n        /* \"solidity-study-demo/interview/ReduceTransactionPayload.sol\":322:328  param1 */\n      dup4\n        /* \"solidity-study-demo/interview/ReduceTransactionPayload.sol\":322:336  param1 < 10000 */\n      lt\n        /* \"solidity-study-demo/interview/ReduceTransactionPayload.sol\":314:362  require(param1 < 10000, \"Param1 greater than 1\") */\n      tag_13\n      jumpi\n      mload(0x40)\n      0x08c379a000000000000000000000000000000000000000000000000000000000\n      dup2\n      mstore\n      0x04\n      add\n      tag_14\n      swap1\n      tag_15\n      jump\t// in\n    tag_14:\n      mload(0x40)\n      dup1\n      swap2\n      sub\n      swap1\n      revert\n    tag_13:\n        /* \"solidity-study-demo/interview/ReduceTransactionPayload.sol\":390:395  10000 */\n      0x2710\n        /* \"solidity-study-demo/interview/ReduceTransactionPayload.sol\":381:387  param2 */\n      dup3\n        /* \"solidity-study-demo/interview/ReduceTransactionPayload.sol\":381:395  param2 < 10000 */\n      lt\n        /* \"solidity-study-demo/interview/ReduceTransactionPayload.sol\":373:421  require(param2 < 10000, \"Param2 greater than 1\") */\n      tag_16\n      jumpi\n      mload(0x40)\n      0x08c379a000000000000000000000000000000000000000000000000000000000\n      dup2\n      mstore\n      0x04\n      add\n      tag_17\n      swap1\n      tag_18\n      jump\t// in\n    tag_17:\n      mload(0x40)\n      dup1\n      swap2\n      sub\n      swap1\n      revert\n    tag_16:\n        /* \"solidity-study-demo/interview/ReduceTransactionPayload.sol\":449:454  10000 */\n      0x2710\n        /* \"solidity-study-demo/interview/ReduceTransactionPayload.sol\":440:446  param5 */\n      dup2\n        /* \"solidity-study-demo/interview/ReduceTransactionPayload.sol\":440:454  param5 < 10000 */\n      lt\n        /* \"solidity-study-demo/interview/ReduceTransactionPayload.sol\":432:480  require(param5 < 10000, \"param5 greater than 1\") */\n      tag_19\n      jumpi\n      mload(0x40)\n      0x08c379a000000000000000000000000000000000000000000000000000000000\n      dup2\n      mstore\n      0x04\n      add\n      tag_20\n      swap1\n      tag_21\n      jump\t// in\n    tag_20:\n      mload(0x40)\n      dup1\n      swap2\n      sub\n      swap1\n      revert\n    tag_19:\n        /* \"solidity-study-demo/interview/ReduceTransactionPayload.sol\":979:985  param3 */\n      dup8\n        /* \"solidity-study-demo/interview/ReduceTransactionPayload.sol\":987:993  param6 */\n      dup6\n        /* \"solidity-study-demo/interview/ReduceTransactionPayload.sol\":586:591  20000 */\n      0x4e20\n        /* \"solidity-study-demo/interview/ReduceTransactionPayload.sol\":577:583  param3 */\n      dup3\n        /* \"solidity-study-demo/interview/ReduceTransactionPayload.sol\":577:591  param3 < 20000 */\n      lt\n        /* \"solidity-study-demo/interview/ReduceTransactionPayload.sol\":569:617  require(param3 < 20000, \"Param3 greater than 2\") */\n      tag_23\n      jumpi\n      mload(0x40)\n      0x08c379a000000000000000000000000000000000000000000000000000000000\n      dup2\n      mstore\n      0x04\n      add\n      tag_24\n      swap1\n      tag_25\n      jump\t// in\n    tag_24:\n      mload(0x40)\n      dup1\n      swap2\n      sub\n      swap1\n      revert\n    tag_23:\n        /* \"solidity-study-demo/interview/ReduceTransactionPayload.sol\":645:650  20000 */\n      0x4e20\n        /* \"solidity-study-demo/interview/ReduceTransactionPayload.sol\":636:642  param6 */\n      dup2\n        /* \"solidity-study-demo/interview/ReduceTransactionPayload.sol\":636:650  param6 < 20000 */\n      lt\n        /* \"solidity-study-demo/interview/ReduceTransactionPayload.sol\":628:676  require(param6 < 20000, \"Param6 greater than 2\") */\n      tag_26\n      jumpi\n      mload(0x40)\n      0x08c379a000000000000000000000000000000000000000000000000000000000\n      dup2\n      mstore\n      0x04\n      add\n      tag_27\n      swap1\n      tag_28\n      jump\t// in\n    tag_27:\n      mload(0x40)\n      dup1\n      swap2\n      sub\n      swap1\n      revert\n    tag_26:\n        /* \"solidity-study-demo/interview/ReduceTransactionPayload.sol\":491:492  _ */\n      pop\n      pop\n        /* \"solidity-study-demo/interview/ReduceTransactionPayload.sol\":183:184  _ */\n      pop\n      pop\n      pop\n        /* \"solidity-study-demo/interview/ReduceTransactionPayload.sol\":704:1018  function M(... */\n      pop\n      pop\n      pop\n      pop\n      pop\n      pop\n      pop\n      jump\t// out\n        /* \"#utility.yul\":88:205   */\n    tag_31:\n        /* \"#utility.yul\":197:198   */\n      0x00\n        /* \"#utility.yul\":194:195   */\n      dup1\n        /* \"#utility.yul\":187:199   */\n      revert\n        /* \"#utility.yul\":334:411   */\n    tag_33:\n        /* \"#utility.yul\":371:378   */\n      0x00\n        /* \"#utility.yul\":400:405   */\n      dup2\n        /* \"#utility.yul\":389:405   */\n      swap1\n      pop\n        /* \"#utility.yul\":334:411   */\n      swap2\n      swap1\n      pop\n      jump\t// out\n        /* \"#utility.yul\":417:539   */\n    tag_34:\n        /* \"#utility.yul\":490:514   */\n      tag_59\n        /* \"#utility.yul\":508:513   */\n      dup2\n        /* \"#utility.yul\":490:514   */\n      tag_33\n      jump\t// in\n    tag_59:\n        /* \"#utility.yul\":483:488   */\n      dup2\n        /* \"#utility.yul\":480:515   */\n      eq\n        /* \"#utility.yul\":470:533   */\n      tag_60\n      jumpi\n        /* \"#utility.yul\":529:530   */\n      0x00\n        /* \"#utility.yul\":526:527   */\n      dup1\n        /* \"#utility.yul\":519:531   */\n      revert\n        /* \"#utility.yul\":470:533   */\n    tag_60:\n        /* \"#utility.yul\":417:539   */\n      pop\n      jump\t// out\n        /* \"#utility.yul\":545:684   */\n    tag_35:\n        /* \"#utility.yul\":591:596   */\n      0x00\n        /* \"#utility.yul\":629:635   */\n      dup2\n        /* \"#utility.yul\":616:636   */\n      calldataload\n        /* \"#utility.yul\":607:636   */\n      swap1\n      pop\n        /* \"#utility.yul\":645:678   */\n      tag_62\n        /* \"#utility.yul\":672:677   */\n      dup2\n        /* \"#utility.yul\":645:678   */\n      tag_34\n      jump\t// in\n    tag_62:\n        /* \"#utility.yul\":545:684   */\n      swap3\n      swap2\n      pop\n      pop\n      jump\t// out\n        /* \"#utility.yul\":690:816   */\n    tag_36:\n        /* \"#utility.yul\":727:734   */\n      0x00\n        /* \"#utility.yul\":767:809   */\n      0xffffffffffffffffffffffffffffffffffffffff\n        /* \"#utility.yul\":760:765   */\n      dup3\n        /* \"#utility.yul\":756:810   */\n      and\n        /* \"#utility.yul\":745:810   */\n      swap1\n      pop\n        /* \"#utility.yul\":690:816   */\n      swap2\n      swap1\n      pop\n      jump\t// out\n        /* \"#utility.yul\":822:918   */\n    tag_37:\n        /* \"#utility.yul\":859:866   */\n      0x00\n        /* \"#utility.yul\":888:912   */\n      tag_65\n        /* \"#utility.yul\":906:911   */\n      dup3\n        /* \"#utility.yul\":888:912   */\n      tag_36\n      jump\t// in\n    tag_65:\n        /* \"#utility.yul\":877:912   */\n      swap1\n      pop\n        /* \"#utility.yul\":822:918   */\n      swap2\n      swap1\n      pop\n      jump\t// out\n        /* \"#utility.yul\":924:1046   */\n    tag_38:\n        /* \"#utility.yul\":997:1021   */\n      tag_67\n        /* \"#utility.yul\":1015:1020   */\n      dup2\n        /* \"#utility.yul\":997:1021   */\n      tag_37\n      jump\t// in\n    tag_67:\n        /* \"#utility.yul\":990:995   */\n      dup2\n        /* \"#utility.yul\":987:1022   */\n      eq\n        /* \"#utility.yul\":977:1040   */\n      tag_68\n      jumpi\n        /* \"#utility.yul\":1036:1037   */\n      0x00\n        /* \"#utility.yul\":1033:1034   */\n      dup1\n        /* \"#utility.yul\":1026:1038   */\n      revert\n        /* \"#utility.yul\":977:1040   */\n    tag_68:\n        /* \"#utility.yul\":924:1046   */\n      pop\n      jump\t// out\n        /* \"#utility.yul\":1052:1191   */\n    tag_39:\n        /* \"#utility.yul\":1098:1103   */\n      0x00\n        /* \"#utility.yul\":1136:1142   */\n      dup2\n        /* \"#utility.yul\":1123:1143   */\n      calldataload\n        /* \"#utility.yul\":1114:1143   */\n      swap1\n      pop\n        /* \"#utility.yul\":1152:1185   */\n      tag_70\n        /* \"#utility.yul\":1179:1184   */\n      dup2\n        /* \"#utility.yul\":1152:1185   */\n      tag_38\n      jump\t// in\n    tag_70:\n        /* \"#utility.yul\":1052:1191   */\n      swap3\n      swap2\n      pop\n      pop\n      jump\t// out\n        /* \"#utility.yul\":1197:2254   */\n    tag_6:\n        /* \"#utility.yul\":1301:1307   */\n      0x00\n        /* \"#utility.yul\":1309:1315   */\n      dup1\n        /* \"#utility.yul\":1317:1323   */\n      0x00\n        /* \"#utility.yul\":1325:1331   */\n      dup1\n        /* \"#utility.yul\":1333:1339   */\n      0x00\n        /* \"#utility.yul\":1341:1347   */\n      dup1\n        /* \"#utility.yul\":1390:1393   */\n      0xc0\n        /* \"#utility.yul\":1378:1387   */\n      dup8\n        /* \"#utility.yul\":1369:1376   */\n      dup10\n        /* \"#utility.yul\":1365:1388   */\n      sub\n        /* \"#utility.yul\":1361:1394   */\n      slt\n        /* \"#utility.yul\":1358:1478   */\n      iszero\n      tag_72\n      jumpi\n        /* \"#utility.yul\":1397:1476   */\n      tag_73\n      tag_31\n      jump\t// in\n    tag_73:\n        /* \"#utility.yul\":1358:1478   */\n    tag_72:\n        /* \"#utility.yul\":1517:1518   */\n      0x00\n        /* \"#utility.yul\":1542:1595   */\n      tag_74\n        /* \"#utility.yul\":1587:1594   */\n      dup10\n        /* \"#utility.yul\":1578:1584   */\n      dup3\n        /* \"#utility.yul\":1567:1576   */\n      dup11\n        /* \"#utility.yul\":1563:1585   */\n      add\n        /* \"#utility.yul\":1542:1595   */\n      tag_35\n      jump\t// in\n    tag_74:\n        /* \"#utility.yul\":1532:1595   */\n      swap7\n      pop\n        /* \"#utility.yul\":1488:1605   */\n      pop\n        /* \"#utility.yul\":1644:1646   */\n      0x20\n        /* \"#utility.yul\":1670:1723   */\n      tag_75\n        /* \"#utility.yul\":1715:1722   */\n      dup10\n        /* \"#utility.yul\":1706:1712   */\n      dup3\n        /* \"#utility.yul\":1695:1704   */\n      dup11\n        /* \"#utility.yul\":1691:1713   */\n      add\n        /* \"#utility.yul\":1670:1723   */\n      tag_35\n      jump\t// in\n    tag_75:\n        /* \"#utility.yul\":1660:1723   */\n      swap6\n      pop\n        /* \"#utility.yul\":1615:1733   */\n      pop\n        /* \"#utility.yul\":1772:1774   */\n      0x40\n        /* \"#utility.yul\":1798:1851   */\n      tag_76\n        /* \"#utility.yul\":1843:1850   */\n      dup10\n        /* \"#utility.yul\":1834:1840   */\n      dup3\n        /* \"#utility.yul\":1823:1832   */\n      dup11\n        /* \"#utility.yul\":1819:1841   */\n      add\n        /* \"#utility.yul\":1798:1851   */\n      tag_35\n      jump\t// in\n    tag_76:\n        /* \"#utility.yul\":1788:1851   */\n      swap5\n      pop\n        /* \"#utility.yul\":1743:1861   */\n      pop\n        /* \"#utility.yul\":1900:1902   */\n      0x60\n        /* \"#utility.yul\":1926:1979   */\n      tag_77\n        /* \"#utility.yul\":1971:1978   */\n      dup10\n        /* \"#utility.yul\":1962:1968   */\n      dup3\n        /* \"#utility.yul\":1951:1960   */\n      dup11\n        /* \"#utility.yul\":1947:1969   */\n      add\n        /* \"#utility.yul\":1926:1979   */\n      tag_39\n      jump\t// in\n    tag_77:\n        /* \"#utility.yul\":1916:1979   */\n      swap4\n      pop\n        /* \"#utility.yul\":1871:1989   */\n      pop\n        /* \"#utility.yul\":2028:2031   */\n      0x80\n        /* \"#utility.yul\":2055:2108   */\n      tag_78\n        /* \"#utility.yul\":2100:2107   */\n      dup10\n        /* \"#utility.yul\":2091:2097   */\n      dup3\n        /* \"#utility.yul\":2080:2089   */\n      dup11\n        /* \"#utility.yul\":2076:2098   */\n      add\n        /* \"#utility.yul\":2055:2108   */\n      tag_35\n      jump\t// in\n    tag_78:\n        /* \"#utility.yul\":2045:2108   */\n      swap3\n      pop\n        /* \"#utility.yul\":1999:2118   */\n      pop\n        /* \"#utility.yul\":2157:2160   */\n      0xa0\n        /* \"#utility.yul\":2184:2237   */\n      tag_79\n        /* \"#utility.yul\":2229:2236   */\n      dup10\n        /* \"#utility.yul\":2220:2226   */\n      dup3\n        /* \"#utility.yul\":2209:2218   */\n      dup11\n        /* \"#utility.yul\":2205:2227   */\n      add\n        /* \"#utility.yul\":2184:2237   */\n      tag_35\n      jump\t// in\n    tag_79:\n        /* \"#utility.yul\":2174:2237   */\n      swap2\n      pop\n        /* \"#utility.yul\":2128:2247   */\n      pop\n        /* \"#utility.yul\":1197:2254   */\n      swap3\n      swap6\n      pop\n      swap3\n      swap6\n      pop\n      swap3\n      swap6\n      jump\t// out\n        /* \"#utility.yul\":2260:2429   */\n    tag_40:\n        /* \"#utility.yul\":2344:2355   */\n      0x00\n        /* \"#utility.yul\":2378:2384   */\n      dup3\n        /* \"#utility.yul\":2373:2376   */\n      dup3\n        /* \"#utility.yul\":2366:2385   */\n      mstore\n        /* \"#utility.yul\":2418:2422   */\n      0x20\n        /* \"#utility.yul\":2413:2416   */\n      dup3\n        /* \"#utility.yul\":2409:2423   */\n      add\n        /* \"#utility.yul\":2394:2423   */\n      swap1\n      pop\n        /* \"#utility.yul\":2260:2429   */\n      swap3\n      swap2\n      pop\n      pop\n      jump\t// out\n        /* \"#utility.yul\":2435:2602   */\n    tag_41:\n        /* \"#utility.yul\":2575:2594   */\n      0x4e6f742076616c69642061646472657373000000000000000000000000000000\n        /* \"#utility.yul\":2571:2572   */\n      0x00\n        /* \"#utility.yul\":2563:2569   */\n      dup3\n        /* \"#utility.yul\":2559:2573   */\n      add\n        /* \"#utility.yul\":2552:2595   */\n      mstore\n        /* \"#utility.yul\":2435:2602   */\n      pop\n      jump\t// out\n        /* \"#utility.yul\":2608:2974   */\n    tag_42:\n        /* \"#utility.yul\":2750:2753   */\n      0x00\n        /* \"#utility.yul\":2771:2838   */\n      tag_83\n        /* \"#utility.yul\":2835:2837   */\n      0x11\n        /* \"#utility.yul\":2830:2833   */\n      dup4\n        /* \"#utility.yul\":2771:2838   */\n      tag_40\n      jump\t// in\n    tag_83:\n        /* \"#utility.yul\":2764:2838   */\n      swap2\n      pop\n        /* \"#utility.yul\":2847:2940   */\n      tag_84\n        /* \"#utility.yul\":2936:2939   */\n      dup3\n        /* \"#utility.yul\":2847:2940   */\n      tag_41\n      jump\t// in\n    tag_84:\n        /* \"#utility.yul\":2965:2967   */\n      0x20\n        /* \"#utility.yul\":2960:2963   */\n      dup3\n        /* \"#utility.yul\":2956:2968   */\n      add\n        /* \"#utility.yul\":2949:2968   */\n      swap1\n      pop\n        /* \"#utility.yul\":2608:2974   */\n      swap2\n      swap1\n      pop\n      jump\t// out\n        /* \"#utility.yul\":2980:3399   */\n    tag_11:\n        /* \"#utility.yul\":3146:3150   */\n      0x00\n        /* \"#utility.yul\":3184:3186   */\n      0x20\n        /* \"#utility.yul\":3173:3182   */\n      dup3\n        /* \"#utility.yul\":3169:3187   */\n      add\n        /* \"#utility.yul\":3161:3187   */\n      swap1\n      pop\n        /* \"#utility.yul\":3233:3242   */\n      dup2\n        /* \"#utility.yul\":3227:3231   */\n      dup2\n        /* \"#utility.yul\":3223:3243   */\n      sub\n        /* \"#utility.yul\":3219:3220   */\n      0x00\n        /* \"#utility.yul\":3208:3217   */\n      dup4\n        /* \"#utility.yul\":3204:3221   */\n      add\n        /* \"#utility.yul\":3197:3244   */\n      mstore\n        /* \"#utility.yul\":3261:3392   */\n      tag_86\n        /* \"#utility.yul\":3387:3391   */\n      dup2\n        /* \"#utility.yul\":3261:3392   */\n      tag_42\n      jump\t// in\n    tag_86:\n        /* \"#utility.yul\":3253:3392   */\n      swap1\n      pop\n        /* \"#utility.yul\":2980:3399   */\n      swap2\n      swap1\n      pop\n      jump\t// out\n        /* \"#utility.yul\":3405:3576   */\n    tag_43:\n        /* \"#utility.yul\":3545:3568   */\n      0x506172616d312067726561746572207468616e20310000000000000000000000\n        /* \"#utility.yul\":3541:3542   */\n      0x00\n        /* \"#utility.yul\":3533:3539   */\n      dup3\n        /* \"#utility.yul\":3529:3543   */\n      add\n        /* \"#utility.yul\":3522:3569   */\n      mstore\n        /* \"#utility.yul\":3405:3576   */\n      pop\n      jump\t// out\n        /* \"#utility.yul\":3582:3948   */\n    tag_44:\n        /* \"#utility.yul\":3724:3727   */\n      0x00\n        /* \"#utility.yul\":3745:3812   */\n      tag_89\n        /* \"#utility.yul\":3809:3811   */\n      0x15\n        /* \"#utility.yul\":3804:3807   */\n      dup4\n        /* \"#utility.yul\":3745:3812   */\n      tag_40\n      jump\t// in\n    tag_89:\n        /* \"#utility.yul\":3738:3812   */\n      swap2\n      pop\n        /* \"#utility.yul\":3821:3914   */\n      tag_90\n        /* \"#utility.yul\":3910:3913   */\n      dup3\n        /* \"#utility.yul\":3821:3914   */\n      tag_43\n      jump\t// in\n    tag_90:\n        /* \"#utility.yul\":3939:3941   */\n      0x20\n        /* \"#utility.yul\":3934:3937   */\n      dup3\n        /* \"#utility.yul\":3930:3942   */\n      add\n        /* \"#utility.yul\":3923:3942   */\n      swap1\n      pop\n        /* \"#utility.yul\":3582:3948   */\n      swap2\n      swap1\n      pop\n      jump\t// out\n        /* \"#utility.yul\":3954:4373   */\n    tag_15:\n        /* \"#utility.yul\":4120:4124   */\n      0x00\n        /* \"#utility.yul\":4158:4160   */\n      0x20\n        /* \"#utility.yul\":4147:4156   */\n      dup3\n        /* \"#utility.yul\":4143:4161   */\n      add\n        /* \"#utility.yul\":4135:4161   */\n      swap1\n      pop\n        /* \"#utility.yul\":4207:4216   */\n      dup2\n        /* \"#utility.yul\":4201:4205   */\n      dup2\n        /* \"#utility.yul\":4197:4217   */\n      sub\n        /* \"#utility.yul\":4193:4194   */\n      0x00\n        /* \"#utility.yul\":4182:4191   */\n      dup4\n        /* \"#utility.yul\":4178:4195   */\n      add\n        /* \"#utility.yul\":4171:4218   */\n      mstore\n        /* \"#utility.yul\":4235:4366   */\n      tag_92\n        /* \"#utility.yul\":4361:4365   */\n      dup2\n        /* \"#utility.yul\":4235:4366   */\n      tag_44\n      jump\t// in\n    tag_92:\n        /* \"#utility.yul\":4227:4366   */\n      swap1\n      pop\n        /* \"#utility.yul\":3954:4373   */\n      swap2\n      swap1\n      pop\n      jump\t// out\n        /* \"#utility.yul\":4379:4550   */\n    tag_45:\n        /* \"#utility.yul\":4519:4542   */\n      0x506172616d322067726561746572207468616e20310000000000000000000000\n        /* \"#utility.yul\":4515:4516   */\n      0x00\n        /* \"#utility.yul\":4507:4513   */\n      dup3\n        /* \"#utility.yul\":4503:4517   */\n      add\n        /* \"#utility.yul\":4496:4543   */\n      mstore\n        /* \"#utility.yul\":4379:4550   */\n      pop\n      jump\t// out\n        /* \"#utility.yul\":4556:4922   */\n    tag_46:\n        /* \"#utility.yul\":4698:4701   */\n      0x00\n        /* \"#utility.yul\":4719:4786   */\n      tag_95\n        /* \"#utility.yul\":4783:4785   */\n      0x15\n        /* \"#utility.yul\":4778:4781   */\n      dup4\n        /* \"#utility.yul\":4719:4786   */\n      tag_40\n      jump\t// in\n    tag_95:\n        /* \"#utility.yul\":4712:4786   */\n      swap2\n      pop\n        /* \"#utility.yul\":4795:4888   */\n      tag_96\n        /* \"#utility.yul\":4884:4887   */\n      dup3\n        /* \"#utility.yul\":4795:4888   */\n      tag_45\n      jump\t// in\n    tag_96:\n        /* \"#utility.yul\":4913:4915   */\n      0x20\n        /* \"#utility.yul\":4908:4911   */\n      dup3\n        /* \"#utility.yul\":4904:4916   */\n      add\n        /* \"#utility.yul\":4897:4916   */\n      swap1\n      pop\n        /* \"#utility.yul\":4556:4922   */\n      swap2\n      swap1\n      pop\n      jump\t// out\n        /* \"#utility.yul\":4928:5347   */\n    tag_18:\n        /* \"#utility.yul\":5094:5098   */\n      0x00\n        /* \"#utility.yul\":5132:5134   */\n      0x20\n        /* \"#utility.yul\":5121:5130   */\n      dup3\n        /* \"#utility.yul\":5117:5135   */\n      add\n        /* \"#utility.yul\":5109:5135   */\n      swap1\n      pop\n        /* \"#utility.yul\":5181:5190   */\n      dup2\n        /* \"#utility.yul\":5175:5179   */\n      dup2\n        /* \"#utility.yul\":5171:5191   */\n      sub\n        /* \"#utility.yul\":5167:5168   */\n      0x00\n        /* \"#utility.yul\":5156:5165   */\n      dup4\n        /* \"#utility.yul\":5152:5169   */\n      add\n        /* \"#utility.yul\":5145:5192   */\n      mstore\n        /* \"#utility.yul\":5209:5340   */\n      tag_98\n        /* \"#utility.yul\":5335:5339   */\n      dup2\n        /* \"#utility.yul\":5209:5340   */\n      tag_46\n      jump\t// in\n    tag_98:\n        /* \"#utility.yul\":5201:5340   */\n      swap1\n      pop\n        /* \"#utility.yul\":4928:5347   */\n      swap2\n      swap1\n      pop\n      jump\t// out\n        /* \"#utility.yul\":5353:5524   */\n    tag_47:\n        /* \"#utility.yul\":5493:5516   */\n      0x706172616d352067726561746572207468616e20310000000000000000000000\n        /* \"#utility.yul\":5489:5490   */\n      0x00\n        /* \"#utility.yul\":5481:5487   */\n      dup3\n        /* \"#utility.yul\":5477:5491   */\n      add\n        /* \"#utility.yul\":5470:5517   */\n      mstore\n        /* \"#utility.yul\":5353:5524   */\n      pop\n      jump\t// out\n        /* \"#utility.yul\":5530:5896   */\n    tag_48:\n        /* \"#utility.yul\":5672:5675   */\n      0x00\n        /* \"#utility.yul\":5693:5760   */\n      tag_101\n        /* \"#utility.yul\":5757:5759   */\n      0x15\n        /* \"#utility.yul\":5752:5755   */\n      dup4\n        /* \"#utility.yul\":5693:5760   */\n      tag_40\n      jump\t// in\n    tag_101:\n        /* \"#utility.yul\":5686:5760   */\n      swap2\n      pop\n        /* \"#utility.yul\":5769:5862   */\n      tag_102\n        /* \"#utility.yul\":5858:5861   */\n      dup3\n        /* \"#utility.yul\":5769:5862   */\n      tag_47\n      jump\t// in\n    tag_102:\n        /* \"#utility.yul\":5887:5889   */\n      0x20\n        /* \"#utility.yul\":5882:5885   */\n      dup3\n        /* \"#utility.yul\":5878:5890   */\n      add\n        /* \"#utility.yul\":5871:5890   */\n      swap1\n      pop\n        /* \"#utility.yul\":5530:5896   */\n      swap2\n      swap1\n      pop\n      jump\t// out\n        /* \"#utility.yul\":5902:6321   */\n    tag_21:\n        /* \"#utility.yul\":6068:6072   */\n      0x00\n        /* \"#utility.yul\":6106:6108   */\n      0x20\n        /* \"#utility.yul\":6095:6104   */\n      dup3\n        /* \"#utility.yul\":6091:6109   */\n      add\n        /* \"#utility.yul\":6083:6109   */\n      swap1\n      pop\n        /* \"#utility.yul\":6155:6164   */\n      dup2\n        /* \"#utility.yul\":6149:6153   */\n      dup2\n        /* \"#utility.yul\":6145:6165   */\n      sub\n        /* \"#utility.yul\":6141:6142   */\n      0x00\n        /* \"#utility.yul\":6130:6139   */\n      dup4\n        /* \"#utility.yul\":6126:6143   */\n      add\n        /* \"#utility.yul\":6119:6166   */\n      mstore\n        /* \"#utility.yul\":6183:6314   */\n      tag_104\n        /* \"#utility.yul\":6309:6313   */\n      dup2\n        /* \"#utility.yul\":6183:6314   */\n      tag_48\n      jump\t// in\n    tag_104:\n        /* \"#utility.yul\":6175:6314   */\n      swap1\n      pop\n        /* \"#utility.yul\":5902:6321   */\n      swap2\n      swap1\n      pop\n      jump\t// out\n        /* \"#utility.yul\":6327:6498   */\n    tag_49:\n        /* \"#utility.yul\":6467:6490   */\n      0x506172616d332067726561746572207468616e20320000000000000000000000\n        /* \"#utility.yul\":6463:6464   */\n      0x00\n        /* \"#utility.yul\":6455:6461   */\n      dup3\n        /* \"#utility.yul\":6451:6465   */\n      add\n        /* \"#utility.yul\":6444:6491   */\n      mstore\n        /* \"#utility.yul\":6327:6498   */\n      pop\n      jump\t// out\n        /* \"#utility.yul\":6504:6870   */\n    tag_50:\n        /* \"#utility.yul\":6646:6649   */\n      0x00\n        /* \"#utility.yul\":6667:6734   */\n      tag_107\n        /* \"#utility.yul\":6731:6733   */\n      0x15\n        /* \"#utility.yul\":6726:6729   */\n      dup4\n        /* \"#utility.yul\":6667:6734   */\n      tag_40\n      jump\t// in\n    tag_107:\n        /* \"#utility.yul\":6660:6734   */\n      swap2\n      pop\n        /* \"#utility.yul\":6743:6836   */\n      tag_108\n        /* \"#utility.yul\":6832:6835   */\n      dup3\n        /* \"#utility.yul\":6743:6836   */\n      tag_49\n      jump\t// in\n    tag_108:\n        /* \"#utility.yul\":6861:6863   */\n      0x20\n        /* \"#utility.yul\":6856:6859   */\n      dup3\n        /* \"#utility.yul\":6852:6864   */\n      add\n        /* \"#utility.yul\":6845:6864   */\n      swap1\n      pop\n        /* \"#utility.yul\":6504:6870   */\n      swap2\n      swap1\n      pop\n      jump\t// out\n        /* \"#utility.yul\":6876:7295   */\n    tag_25:\n        /* \"#utility.yul\":7042:7046   */\n      0x00\n        /* \"#utility.yul\":7080:7082   */\n      0x20\n        /* \"#utility.yul\":7069:7078   */\n      dup3\n        /* \"#utility.yul\":7065:7083   */\n      add\n        /* \"#utility.yul\":7057:7083   */\n      swap1\n      pop\n        /* \"#utility.yul\":7129:7138   */\n      dup2\n        /* \"#utility.yul\":7123:7127   */\n      dup2\n        /* \"#utility.yul\":7119:7139   */\n      sub\n        /* \"#utility.yul\":7115:7116   */\n      0x00\n        /* \"#utility.yul\":7104:7113   */\n      dup4\n        /* \"#utility.yul\":7100:7117   */\n      add\n        /* \"#utility.yul\":7093:7140   */\n      mstore\n        /* \"#utility.yul\":7157:7288   */\n      tag_110\n        /* \"#utility.yul\":7283:7287   */\n      dup2\n        /* \"#utility.yul\":7157:7288   */\n      tag_50\n      jump\t// in\n    tag_110:\n        /* \"#utility.yul\":7149:7288   */\n      swap1\n      pop\n        /* \"#utility.yul\":6876:7295   */\n      swap2\n      swap1\n      pop\n      jump\t// out\n        /* \"#utility.yul\":7301:7472   */\n    tag_51:\n        /* \"#utility.yul\":7441:7464   */\n      0x506172616d362067726561746572207468616e20320000000000000000000000\n        /* \"#utility.yul\":7437:7438   */\n      0x00\n        /* \"#utility.yul\":7429:7435   */\n      dup3\n        /* \"#utility.yul\":7425:7439   */\n      add\n        /* \"#utility.yul\":7418:7465   */\n      mstore\n        /* \"#utility.yul\":7301:7472   */\n      pop\n      jump\t// out\n        /* \"#utility.yul\":7478:7844   */\n    tag_52:\n        /* \"#utility.yul\":7620:7623   */\n      0x00\n        /* \"#utility.yul\":7641:7708   */\n      tag_113\n        /* \"#utility.yul\":7705:7707   */\n      0x15\n        /* \"#utility.yul\":7700:7703   */\n      dup4\n        /* \"#utility.yul\":7641:7708   */\n      tag_40\n      jump\t// in\n    tag_113:\n        /* \"#utility.yul\":7634:7708   */\n      swap2\n      pop\n        /* \"#utility.yul\":7717:7810   */\n      tag_114\n        /* \"#utility.yul\":7806:7809   */\n      dup3\n        /* \"#utility.yul\":7717:7810   */\n      tag_51\n      jump\t// in\n    tag_114:\n        /* \"#utility.yul\":7835:7837   */\n      0x20\n        /* \"#utility.yul\":7830:7833   */\n      dup3\n        /* \"#utility.yul\":7826:7838   */\n      add\n        /* \"#utility.yul\":7819:7838   */\n      swap1\n      pop\n        /* \"#utility.yul\":7478:7844   */\n      swap2\n      swap1\n      pop\n      jump\t// out\n        /* \"#utility.yul\":7850:8269   */\n    tag_28:\n        /* \"#utility.yul\":8016:8020   */\n      0x00\n        /* \"#utility.yul\":8054:8056   */\n      0x20\n        /* \"#utility.yul\":8043:8052   */\n      dup3\n        /* \"#utility.yul\":8039:8057   */\n      add\n        /* \"#utility.yul\":8031:8057   */\n      swap1\n      pop\n        /* \"#utility.yul\":8103:8112   */\n      dup2\n        /* \"#utility.yul\":8097:8101   */\n      dup2\n        /* \"#utility.yul\":8093:8113   */\n      sub\n        /* \"#utility.yul\":8089:8090   */\n      0x00\n        /* \"#utility.yul\":8078:8087   */\n      dup4\n        /* \"#utility.yul\":8074:8091   */\n      add\n        /* \"#utility.yul\":8067:8114   */\n      mstore\n        /* \"#utility.yul\":8131:8262   */\n      tag_116\n        /* \"#utility.yul\":8257:8261   */\n      dup2\n        /* \"#utility.yul\":8131:8262   */\n      tag_52\n      jump\t// in\n    tag_116:\n        /* \"#utility.yul\":8123:8262   */\n      swap1\n      pop\n        /* \"#utility.yul\":7850:8269   */\n      swap2\n      swap1\n      pop\n      jump\t// out\n\n    auxdata: 0xa2646970667358221220d5626fd20b995629d94d6c30a95a9fe8fcab137a6798b742f5b3296ec75d558864736f6c634300080e0033\n}\n",
				"bytecode": {
					"linkReferences": {},
					"object": "608060405234801561001057600080fd5b50610618806100206000396000f3fe608060405234801561001057600080fd5b506004361061002b5760003560e01c806347e69fa614610030575b600080fd5b61004a600480360381019061004591906102bc565b61004c565b005b82600073ffffffffffffffffffffffffffffffffffffffff168173ffffffffffffffffffffffffffffffffffffffff16036100bc576040517f08c379a00000000000000000000000000000000000000000000000000000000081526004016100b3906103a6565b60405180910390fd5b8686846127108310610103576040517f08c379a00000000000000000000000000000000000000000000000000000000081526004016100fa90610412565b60405180910390fd5b6127108210610147576040517f08c379a000000000000000000000000000000000000000000000000000000000815260040161013e9061047e565b60405180910390fd5b612710811061018b576040517f08c379a0000000000000000000000000000000000000000000000000000000008152600401610182906104ea565b60405180910390fd5b8785614e2082106101d1576040517f08c379a00000000000000000000000000000000000000000000000000000000081526004016101c890610556565b60405180910390fd5b614e208110610215576040517f08c379a000000000000000000000000000000000000000000000000000000000815260040161020c906105c2565b60405180910390fd5b505050505050505050505050565b600080fd5b6000819050919050565b61023b81610228565b811461024657600080fd5b50565b60008135905061025881610232565b92915050565b600073ffffffffffffffffffffffffffffffffffffffff82169050919050565b60006102898261025e565b9050919050565b6102998161027e565b81146102a457600080fd5b50565b6000813590506102b681610290565b92915050565b60008060008060008060c087890312156102d9576102d8610223565b5b60006102e789828a01610249565b96505060206102f889828a01610249565b955050604061030989828a01610249565b945050606061031a89828a016102a7565b935050608061032b89828a01610249565b92505060a061033c89828a01610249565b9150509295509295509295565b600082825260208201905092915050565b7f4e6f742076616c69642061646472657373000000000000000000000000000000600082015250565b6000610390601183610349565b915061039b8261035a565b602082019050919050565b600060208201905081810360008301526103bf81610383565b9050919050565b7f506172616d312067726561746572207468616e20310000000000000000000000600082015250565b60006103fc601583610349565b9150610407826103c6565b602082019050919050565b6000602082019050818103600083015261042b816103ef565b9050919050565b7f506172616d322067726561746572207468616e20310000000000000000000000600082015250565b6000610468601583610349565b915061047382610432565b602082019050919050565b600060208201905081810360008301526104978161045b565b9050919050565b7f706172616d352067726561746572207468616e20310000000000000000000000600082015250565b60006104d4601583610349565b91506104df8261049e565b602082019050919050565b60006020820190508181036000830152610503816104c7565b9050919050565b7f506172616d332067726561746572207468616e20320000000000000000000000600082015250565b6000610540601583610349565b915061054b8261050a565b602082019050919050565b6000602082019050818103600083015261056f81610533565b9050919050565b7f506172616d362067726561746572207468616e20320000000000000000000000600082015250565b60006105ac601583610349565b91506105b782610576565b602082019050919050565b600060208201905081810360008301526105db8161059f565b905091905056fea2646970667358221220d5626fd20b995629d94d6c30a95a9fe8fcab137a6798b742f5b3296ec75d558864736f6c634300080e0033",
					"opcodes": "PUSH1 0x80 PUSH1 0x40 MSTORE CALLVALUE DUP1 ISZERO PUSH2 0x10 JUMPI PUSH1 0x0 DUP1 REVERT JUMPDEST POP PUSH2 0x618 DUP1 PUSH2 0x20 PUSH1 0x0 CODECOPY PUSH1 0x0 RETURN INVALID PUSH1 0x80 PUSH1 0x40 MSTORE CALLVALUE DUP1 ISZERO PUSH2 0x10 JUMPI PUSH1 0x0 DUP1 REVERT JUMPDEST POP PUSH1 0x4 CALLDATASIZE LT PUSH2 0x2B JUMPI PUSH1 0x0 CALLDATALOAD PUSH1 0xE0 SHR DUP1 PUSH4 0x47E69FA6 EQ PUSH2 0x30 JUMPI JUMPDEST PUSH1 0x0 DUP1 REVERT JUMPDEST PUSH2 0x4A PUSH1 0x4 DUP1 CALLDATASIZE SUB DUP2 ADD SWAP1 PUSH2 0x45 SWAP2 SWAP1 PUSH2 0x2BC JUMP JUMPDEST PUSH2 0x4C JUMP JUMPDEST STOP JUMPDEST DUP3 PUSH1 0x0 PUSH20 0xFFFFFFFFFFFFFFFFFFFFFFFFFFFFFFFFFFFFFFFF AND DUP2 PUSH20 0xFFFFFFFFFFFFFFFFFFFFFFFFFFFFFFFFFFFFFFFF AND SUB PUSH2 0xBC JUMPI PUSH1 0x40 MLOAD PUSH32 0x8C379A000000000000000000000000000000000000000000000000000000000 DUP2 MSTORE PUSH1 0x4 ADD PUSH2 0xB3 SWAP1 PUSH2 0x3A6 JUMP JUMPDEST PUSH1 0x40 MLOAD DUP1 SWAP2 SUB SWAP1 REVERT JUMPDEST DUP7 DUP7 DUP5 PUSH2 0x2710 DUP4 LT PUSH2 0x103 JUMPI PUSH1 0x40 MLOAD PUSH32 0x8C379A000000000000000000000000000000000000000000000000000000000 DUP2 MSTORE PUSH1 0x4 ADD PUSH2 0xFA SWAP1 PUSH2 0x412 JUMP JUMPDEST PUSH1 0x40 MLOAD DUP1 SWAP2 SUB SWAP1 REVERT JUMPDEST PUSH2 0x2710 DUP3 LT PUSH2 0x147 JUMPI PUSH1 0x40 MLOAD PUSH32 0x8C379A000000000000000000000000000000000000000000000000000000000 DUP2 MSTORE PUSH1 0x4 ADD PUSH2 0x13E SWAP1 PUSH2 0x47E JUMP JUMPDEST PUSH1 0x40 MLOAD DUP1 SWAP2 SUB SWAP1 REVERT JUMPDEST PUSH2 0x2710 DUP2 LT PUSH2 0x18B JUMPI PUSH1 0x40 MLOAD PUSH32 0x8C379A000000000000000000000000000000000000000000000000000000000 DUP2 MSTORE PUSH1 0x4 ADD PUSH2 0x182 SWAP1 PUSH2 0x4EA JUMP JUMPDEST PUSH1 0x40 MLOAD DUP1 SWAP2 SUB SWAP1 REVERT JUMPDEST DUP8 DUP6 PUSH2 0x4E20 DUP3 LT PUSH2 0x1D1 JUMPI PUSH1 0x40 MLOAD PUSH32 0x8C379A000000000000000000000000000000000000000000000000000000000 DUP2 MSTORE PUSH1 0x4 ADD PUSH2 0x1C8 SWAP1 PUSH2 0x556 JUMP JUMPDEST PUSH1 0x40 MLOAD DUP1 SWAP2 SUB SWAP1 REVERT JUMPDEST PUSH2 0x4E20 DUP2 LT PUSH2 0x215 JUMPI PUSH1 0x40 MLOAD PUSH32 0x8C379A000000000000000000000000000000000000000000000000000000000 DUP2 MSTORE PUSH1 0x4 ADD PUSH2 0x20C SWAP1 PUSH2 0x5C2 JUMP JUMPDEST PUSH1 0x40 MLOAD DUP1 SWAP2 SUB SWAP1 REVERT JUMPDEST POP POP POP POP POP POP POP POP POP POP POP POP JUMP JUMPDEST PUSH1 0x0 DUP1 REVERT JUMPDEST PUSH1 0x0 DUP2 SWAP1 POP SWAP2 SWAP1 POP JUMP JUMPDEST PUSH2 0x23B DUP2 PUSH2 0x228 JUMP JUMPDEST DUP2 EQ PUSH2 0x246 JUMPI PUSH1 0x0 DUP1 REVERT JUMPDEST POP JUMP JUMPDEST PUSH1 0x0 DUP2 CALLDATALOAD SWAP1 POP PUSH2 0x258 DUP2 PUSH2 0x232 JUMP JUMPDEST SWAP3 SWAP2 POP POP JUMP JUMPDEST PUSH1 0x0 PUSH20 0xFFFFFFFFFFFFFFFFFFFFFFFFFFFFFFFFFFFFFFFF DUP3 AND SWAP1 POP SWAP2 SWAP1 POP JUMP JUMPDEST PUSH1 0x0 PUSH2 0x289 DUP3 PUSH2 0x25E JUMP JUMPDEST SWAP1 POP SWAP2 SWAP1 POP JUMP JUMPDEST PUSH2 0x299 DUP2 PUSH2 0x27E JUMP JUMPDEST DUP2 EQ PUSH2 0x2A4 JUMPI PUSH1 0x0 DUP1 REVERT JUMPDEST POP JUMP JUMPDEST PUSH1 0x0 DUP2 CALLDATALOAD SWAP1 POP PUSH2 0x2B6 DUP2 PUSH2 0x290 JUMP JUMPDEST SWAP3 SWAP2 POP POP JUMP JUMPDEST PUSH1 0x0 DUP1 PUSH1 0x0 DUP1 PUSH1 0x0 DUP1 PUSH1 0xC0 DUP8 DUP10 SUB SLT ISZERO PUSH2 0x2D9 JUMPI PUSH2 0x2D8 PUSH2 0x223 JUMP JUMPDEST JUMPDEST PUSH1 0x0 PUSH2 0x2E7 DUP10 DUP3 DUP11 ADD PUSH2 0x249 JUMP JUMPDEST SWAP7 POP POP PUSH1 0x20 PUSH2 0x2F8 DUP10 DUP3 DUP11 ADD PUSH2 0x249 JUMP JUMPDEST SWAP6 POP POP PUSH1 0x40 PUSH2 0x309 DUP10 DUP3 DUP11 ADD PUSH2 0x249 JUMP JUMPDEST SWAP5 POP POP PUSH1 0x60 PUSH2 0x31A DUP10 DUP3 DUP11 ADD PUSH2 0x2A7 JUMP JUMPDEST SWAP4 POP POP PUSH1 0x80 PUSH2 0x32B DUP10 DUP3 DUP11 ADD PUSH2 0x249 JUMP JUMPDEST SWAP3 POP POP PUSH1 0xA0 PUSH2 0x33C DUP10 DUP3 DUP11 ADD PUSH2 0x249 JUMP JUMPDEST SWAP2 POP POP SWAP3 SWAP6 POP SWAP3 SWAP6 POP SWAP3 SWAP6 JUMP JUMPDEST PUSH1 0x0 DUP3 DUP3 MSTORE PUSH1 0x20 DUP3 ADD SWAP1 POP SWAP3 SWAP2 POP POP JUMP JUMPDEST PUSH32 0x4E6F742076616C69642061646472657373000000000000000000000000000000 PUSH1 0x0 DUP3 ADD MSTORE POP JUMP JUMPDEST PUSH1 0x0 PUSH2 0x390 PUSH1 0x11 DUP4 PUSH2 0x349 JUMP JUMPDEST SWAP2 POP PUSH2 0x39B DUP3 PUSH2 0x35A JUMP JUMPDEST PUSH1 0x20 DUP3 ADD SWAP1 POP SWAP2 SWAP1 POP JUMP JUMPDEST PUSH1 0x0 PUSH1 0x20 DUP3 ADD SWAP1 POP DUP2 DUP2 SUB PUSH1 0x0 DUP4 ADD MSTORE PUSH2 0x3BF DUP2 PUSH2 0x383 JUMP JUMPDEST SWAP1 POP SWAP2 SWAP1 POP JUMP JUMPDEST PUSH32 0x506172616D312067726561746572207468616E20310000000000000000000000 PUSH1 0x0 DUP3 ADD MSTORE POP JUMP JUMPDEST PUSH1 0x0 PUSH2 0x3FC PUSH1 0x15 DUP4 PUSH2 0x349 JUMP JUMPDEST SWAP2 POP PUSH2 0x407 DUP3 PUSH2 0x3C6 JUMP JUMPDEST PUSH1 0x20 DUP3 ADD SWAP1 POP SWAP2 SWAP1 POP JUMP JUMPDEST PUSH1 0x0 PUSH1 0x20 DUP3 ADD SWAP1 POP DUP2 DUP2 SUB PUSH1 0x0 DUP4 ADD MSTORE PUSH2 0x42B DUP2 PUSH2 0x3EF JUMP JUMPDEST SWAP1 POP SWAP2 SWAP1 POP JUMP JUMPDEST PUSH32 0x506172616D322067726561746572207468616E20310000000000000000000000 PUSH1 0x0 DUP3 ADD MSTORE POP JUMP JUMPDEST PUSH1 0x0 PUSH2 0x468 PUSH1 0x15 DUP4 PUSH2 0x349 JUMP JUMPDEST SWAP2 POP PUSH2 0x473 DUP3 PUSH2 0x432 JUMP JUMPDEST PUSH1 0x20 DUP3 ADD SWAP1 POP SWAP2 SWAP1 POP JUMP JUMPDEST PUSH1 0x0 PUSH1 0x20 DUP3 ADD SWAP1 POP DUP2 DUP2 SUB PUSH1 0x0 DUP4 ADD MSTORE PUSH2 0x497 DUP2 PUSH2 0x45B JUMP JUMPDEST SWAP1 POP SWAP2 SWAP1 POP JUMP JUMPDEST PUSH32 0x706172616D352067726561746572207468616E20310000000000000000000000 PUSH1 0x0 DUP3 ADD MSTORE POP JUMP JUMPDEST PUSH1 0x0 PUSH2 0x4D4 PUSH1 0x15 DUP4 PUSH2 0x349 JUMP JUMPDEST SWAP2 POP PUSH2 0x4DF DUP3 PUSH2 0x49E JUMP JUMPDEST PUSH1 0x20 DUP3 ADD SWAP1 POP SWAP2 SWAP1 POP JUMP JUMPDEST PUSH1 0x0 PUSH1 0x20 DUP3 ADD SWAP1 POP DUP2 DUP2 SUB PUSH1 0x0 DUP4 ADD MSTORE PUSH2 0x503 DUP2 PUSH2 0x4C7 JUMP JUMPDEST SWAP1 POP SWAP2 SWAP1 POP JUMP JUMPDEST PUSH32 0x506172616D332067726561746572207468616E20320000000000000000000000 PUSH1 0x0 DUP3 ADD MSTORE POP JUMP JUMPDEST PUSH1 0x0 PUSH2 0x540 PUSH1 0x15 DUP4 PUSH2 0x349 JUMP JUMPDEST SWAP2 POP PUSH2 0x54B DUP3 PUSH2 0x50A JUMP JUMPDEST PUSH1 0x20 DUP3 ADD SWAP1 POP SWAP2 SWAP1 POP JUMP JUMPDEST PUSH1 0x0 PUSH1 0x20 DUP3 ADD SWAP1 POP DUP2 DUP2 SUB PUSH1 0x0 DUP4 ADD MSTORE PUSH2 0x56F DUP2 PUSH2 0x533 JUMP JUMPDEST SWAP1 POP SWAP2 SWAP1 POP JUMP JUMPDEST PUSH32 0x506172616D362067726561746572207468616E20320000000000000000000000 PUSH1 0x0 DUP3 ADD MSTORE POP JUMP JUMPDEST PUSH1 0x0 PUSH2 0x5AC PUSH1 0x15 DUP4 PUSH2 0x349 JUMP JUMPDEST SWAP2 POP PUSH2 0x5B7 DUP3 PUSH2 0x576 JUMP JUMPDEST PUSH1 0x20 DUP3 ADD SWAP1 POP SWAP2 SWAP1 POP JUMP JUMPDEST PUSH1 0x0 PUSH1 0x20 DUP3 ADD SWAP1 POP DUP2 DUP2 SUB PUSH1 0x0 DUP4 ADD MSTORE PUSH2 0x5DB DUP2 PUSH2 0x59F JUMP JUMPDEST SWAP1 POP SWAP2 SWAP1 POP JUMP INVALID LOG2 PUSH5 0x6970667358 0x22 SLT KECCAK256 0xD5 PUSH3 0x6FD20B SWAP10 JUMP 0x29 0xD9 0x4D PUSH13 0x30A95A9FE8FCAB137A6798B742 CREATE2 0xB3 0x29 PUSH15 0xC75D558864736F6C634300080E0033 "
				},
				"gasEstimates": {
					"creation": {
						"codeDepositCost": "312000",
						"executionCost": "349",
						"totalCost": "312349"
					},
					"external": {
						"M(uint256,uint256,uint256,address,uint256,uint256)": "infinite"
					}
				},
				"methodIdentifiers": {
					"M(uint256,uint256,uint256,address,uint256,uint256)": "47e69fa6"
				}
			},
			"storageLayout": {
				"storage": [],
				"types": null
			},
			"userdoc": {
				"kind": "user",
				"methods": {},
				"version": 1
			}
		}
	}
}