{
	"data": {
		"bytecode": {
			"linkReferences": {},
			"object": "6080604052604051620023af380380620023af833981810160405281019062000029919062000632565b826200007a81600160028110620000455762000044620006a4565b5b602002015182600060028110620000615762000060620006a4565b5b60200201516200034460201b620007081790919060201c565b471015620000bf576040517f08c379a0000000000000000000000000000000000000000000000000000000008152600401620000b6906200075a565b60405180910390fd5b42831162000104576040517f08c379a0000000000000000000000000000000000000000000000000000000008152600401620000fb90620007cc565b60405180910390fd5b600082116200014a576040517f08c379a000000000000000000000000000000000000000000000000000000000815260040162000141906200083e565b60405180910390fd5b60005b60028110156200032a5760008682600281106200016f576200016e620006a4565b5b60200201519050600260008273ffffffffffffffffffffffffffffffffffffffff1673ffffffffffffffffffffffffffffffffffffffff16815260200190815260200160002060009054906101000a900460ff161562000206576040517f08c379a0000000000000000000000000000000000000000000000000000000008152600401620001fd90620008b0565b60405180910390fd5b80600083600281106200021e576200021d620006a4565b5b0160006101000a81548173ffffffffffffffffffffffffffffffffffffffff021916908373ffffffffffffffffffffffffffffffffffffffff1602179055506001600260008373ffffffffffffffffffffffffffffffffffffffff1673ffffffffffffffffffffffffffffffffffffffff16815260200190815260200160002060006101000a81548160ff021916908315150217905550858260028110620002cb57620002ca620006a4565b5b6020020151600360008373ffffffffffffffffffffffffffffffffffffffff1673ffffffffffffffffffffffffffffffffffffffff16815260200190815260200160002081905550508080620003219062000901565b9150506200014d565b5082600581905550816004819055505050505050620009ab565b600081836200035491906200094e565b905092915050565b6000604051905090565b600080fd5b600080fd5b6000601f19601f8301169050919050565b7f4e487b7100000000000000000000000000000000000000000000000000000000600052604160045260246000fd5b620003bb8262000370565b810181811067ffffffffffffffff82111715620003dd57620003dc62000381565b5b80604052505050565b6000620003f26200035c565b9050620004008282620003b0565b919050565b600067ffffffffffffffff82111562000423576200042262000381565b5b602082029050919050565b600080fd5b600073ffffffffffffffffffffffffffffffffffffffff82169050919050565b6000620004608262000433565b9050919050565b620004728162000453565b81146200047e57600080fd5b50565b600081519050620004928162000467565b92915050565b6000620004af620004a98462000405565b620003e6565b90508060208402830185811115620004cc57620004cb6200042e565b5b835b81811015620004f95780620004e4888262000481565b845260208401935050602081019050620004ce565b5050509392505050565b600082601f8301126200051b576200051a6200036b565b5b60026200052a84828562000498565b91505092915050565b600067ffffffffffffffff82111562000551576200055062000381565b5b602082029050919050565b6000819050919050565b62000571816200055c565b81146200057d57600080fd5b50565b600081519050620005918162000566565b92915050565b6000620005ae620005a88462000533565b620003e6565b90508060208402830185811115620005cb57620005ca6200042e565b5b835b81811015620005f85780620005e3888262000580565b845260208401935050602081019050620005cd565b5050509392505050565b600082601f8301126200061a57620006196200036b565b5b60026200062984828562000597565b91505092915050565b60008060008060c085870312156200064f576200064e62000366565b5b60006200065f8782880162000503565b9450506040620006728782880162000602565b9350506080620006858782880162000580565b92505060a0620006988782880162000580565b91505092959194509250565b7f4e487b7100000000000000000000000000000000000000000000000000000000600052603260045260246000fd5b600082825260208201905092915050565b7f62616c616e6365206f6620636f6e7472616374206d757374206265203e3d207460008201527f6f2074686520746f74616c2062616c616e6365206f6620757365727300000000602082015250565b600062000742603c83620006d3565b91506200074f82620006e4565b604082019050919050565b60006020820190508181036000830152620007758162000733565b9050919050565b7f45787069726174696f6e206d757374206265203e206e6f770000000000000000600082015250565b6000620007b4601883620006d3565b9150620007c1826200077c565b602082019050919050565b60006020820190508181036000830152620007e781620007a5565b9050919050565b7f4368616c6c656e6765207065696f64206d757374206265203e20300000000000600082015250565b600062000826601b83620006d3565b91506200083382620007ee565b602082019050919050565b60006020820190508181036000830152620008598162000817565b9050919050565b7f75736572206d75737420626520756e6971756500000000000000000000000000600082015250565b600062000898601383620006d3565b9150620008a58262000860565b602082019050919050565b60006020820190508181036000830152620008cb8162000889565b9050919050565b7f4e487b7100000000000000000000000000000000000000000000000000000000600052601160045260246000fd5b60006200090e826200055c565b91507fffffffffffffffffffffffffffffffffffffffffffffffffffffffffffffffff8203620009435762000942620008d2565b5b600182019050919050565b60006200095b826200055c565b915062000968836200055c565b9250827fffffffffffffffffffffffffffffffffffffffffffffffffffffffffffffffff03821115620009a0576200099f620008d2565b5b828201905092915050565b6119f480620009bb6000396000f3fe608060405234801561001057600080fd5b50600436106100885760003560e01c80638622a6891161005b5780638622a6891461014d578063a0ff49991461016b578063affed0e014610187578063f3f480d9146101a557610088565b806321e668681461008d57806327e235e3146100bd578063365b98b2146100ed5780634209fff11461011d575b600080fd5b6100a760048036038101906100a29190610f73565b6101c3565b6040516100b49190611025565b60405180910390f35b6100d760048036038101906100d29190611040565b6102ac565b6040516100e4919061107c565b60405180910390f35b61010760048036038101906101029190611097565b6102c4565b60405161011491906110e5565b60405180910390f35b61013760048036038101906101329190611040565b6102fa565b6040516101449190611025565b60405180910390f35b61015561031a565b604051610162919061107c565b60405180910390f35b61018560048036038101906101809190611100565b610320565b005b61018f6106fc565b60405161019c919061107c565b60405180910390f35b6101ad610702565b6040516101ba919061107c565b60405180910390f35b600080600090505b600281101561029d5760006102328883600281106101ec576101eb61116f565b5b6020020151610224898888604051602001610209939291906112b2565b6040516020818303038152906040528051906020012061071e565b61074e90919063ffffffff16565b73ffffffffffffffffffffffffffffffffffffffff1686836002811061025b5761025a61116f565b5b602002015173ffffffffffffffffffffffffffffffffffffffff1614905080610289576000925050506102a3565b5080806102959061131e565b9150506101cb565b50600190505b95945050505050565b60036020528060005260406000206000915090505481565b600081600281106102d457600080fd5b016000915054906101000a900473ffffffffffffffffffffffffffffffffffffffff1681565b60026020528060005260406000206000915054906101000a900460ff1681565b60055481565b600260003373ffffffffffffffffffffffffffffffffffffffff1673ffffffffffffffffffffffffffffffffffffffff16815260200190815260200160002060009054906101000a900460ff166103ac576040517f08c379a00000000000000000000000000000000000000000000000000000000081526004016103a3906113c3565b60405180910390fd5b8083836103b7610b2d565b60005b600281101561045657600081600281106103d7576103d661116f565b5b0160009054906101000a900473ffffffffffffffffffffffffffffffffffffffff1682826002811061040c5761040b61116f565b5b602002019073ffffffffffffffffffffffffffffffffffffffff16908173ffffffffffffffffffffffffffffffffffffffff1681525050808061044e9061131e565b9150506103ba565b5061046484308386866101c3565b6104a3576040517f08c379a000000000000000000000000000000000000000000000000000000000815260040161049a9061142f565b60405180910390fd5b866104e7816001600281106104bb576104ba61116f565b5b6020020151826000600281106104d4576104d361116f565b5b602002015161070890919063ffffffff16565b471015610529576040517f08c379a0000000000000000000000000000000000000000000000000000000008152600401610520906114c1565b60405180910390fd5b600554421061056d576040517f08c379a000000000000000000000000000000000000000000000000000000000815260040161056490611553565b60405180910390fd5b6000600360003373ffffffffffffffffffffffffffffffffffffffff1673ffffffffffffffffffffffffffffffffffffffff1681526020019081526020016000205490506000600360003373ffffffffffffffffffffffffffffffffffffffff1673ffffffffffffffffffffffffffffffffffffffff1681526020019081526020016000208190555060003373ffffffffffffffffffffffffffffffffffffffff168260405161061c906115a4565b60006040518083038185875af1925050503d8060008114610659576040519150601f19603f3d011682016040523d82523d6000602084013e61065e565b606091505b50509050806106a2576040517f08c379a000000000000000000000000000000000000000000000000000000000815260040161069990611605565b60405180910390fd5b3373ffffffffffffffffffffffffffffffffffffffff167f884edad9ce6fa2440d8a54cc123490eb96d2768479d49ff9c7366125a9424364836040516106e8919061107c565b60405180910390a250505050505050505050565b60065481565b60045481565b600081836107169190611625565b905092915050565b60008160405160200161073191906116fd565b604051602081830303815290604052805190602001209050919050565b600080600061075d8585610775565b9150915061076a816107f6565b819250505092915050565b60008060418351036107b65760008060006020860151925060408601519150606086015160001a90506107aa878285856109c2565b945094505050506107ef565b60408351036107e65760008060208501519150604085015190506107db868383610ace565b9350935050506107ef565b60006002915091505b9250929050565b6000600481111561080a57610809611723565b5b81600481111561081d5761081c611723565b5b03156109bf576001600481111561083757610836611723565b5b81600481111561084a57610849611723565b5b0361088a576040517f08c379a00000000000000000000000000000000000000000000000000000000081526004016108819061179e565b60405180910390fd5b6002600481111561089e5761089d611723565b5b8160048111156108b1576108b0611723565b5b036108f1576040517f08c379a00000000000000000000000000000000000000000000000000000000081526004016108e89061180a565b60405180910390fd5b6003600481111561090557610904611723565b5b81600481111561091857610917611723565b5b03610958576040517f08c379a000000000000000000000000000000000000000000000000000000000815260040161094f9061189c565b60405180910390fd5b60048081111561096b5761096a611723565b5b81600481111561097e5761097d611723565b5b036109be576040517f08c379a00000000000000000000000000000000000000000000000000000000081526004016109b59061192e565b60405180910390fd5b5b50565b6000807f7fffffffffffffffffffffffffffffff5d576e7357a4501ddfe92f46681b20a08360001c11156109fd576000600391509150610ac5565b601b8560ff1614158015610a155750601c8560ff1614155b15610a27576000600491509150610ac5565b600060018787878760405160008152602001604052604051610a4c9493929190611979565b6020604051602081039080840390855afa158015610a6e573d6000803e3d6000fd5b505050602060405103519050600073ffffffffffffffffffffffffffffffffffffffff168173ffffffffffffffffffffffffffffffffffffffff1603610abc57600060019250925050610ac5565b80600092509250505b94509492505050565b60008060007f7fffffffffffffffffffffffffffffffffffffffffffffffffffffffffffffff60001b841690506000601b60ff8660001c901c610b119190611625565b9050610b1f878288856109c2565b935093505050935093915050565b6040518060400160405280600290602082028036833780820191505090505090565b6000604051905090565b600080fd5b600080fd5b600080fd5b6000601f19601f8301169050919050565b7f4e487b7100000000000000000000000000000000000000000000000000000000600052604160045260246000fd5b610bb182610b68565b810181811067ffffffffffffffff82111715610bd057610bcf610b79565b5b80604052505050565b6000610be3610b4f565b9050610bef8282610ba8565b919050565b600067ffffffffffffffff821115610c0f57610c0e610b79565b5b602082029050919050565b600080fd5b600080fd5b600067ffffffffffffffff821115610c3f57610c3e610b79565b5b610c4882610b68565b9050602081019050919050565b82818337600083830152505050565b6000610c77610c7284610c24565b610bd9565b905082815260208101848484011115610c9357610c92610c1f565b5b610c9e848285610c55565b509392505050565b600082601f830112610cbb57610cba610b63565b5b8135610ccb848260208601610c64565b91505092915050565b6000610ce7610ce284610bf4565b610bd9565b90508060208402830185811115610d0157610d00610c1a565b5b835b81811015610d4857803567ffffffffffffffff811115610d2657610d25610b63565b5b808601610d338982610ca6565b85526020850194505050602081019050610d03565b5050509392505050565b600082601f830112610d6757610d66610b63565b5b6002610d74848285610cd4565b91505092915050565b600073ffffffffffffffffffffffffffffffffffffffff82169050919050565b6000610da882610d7d565b9050919050565b610db881610d9d565b8114610dc357600080fd5b50565b600081359050610dd581610daf565b92915050565b600067ffffffffffffffff821115610df657610df5610b79565b5b602082029050919050565b6000610e14610e0f84610ddb565b610bd9565b90508060208402830185811115610e2e57610e2d610c1a565b5b835b81811015610e575780610e438882610dc6565b845260208401935050602081019050610e30565b5050509392505050565b600082601f830112610e7657610e75610b63565b5b6002610e83848285610e01565b91505092915050565b600067ffffffffffffffff821115610ea757610ea6610b79565b5b602082029050919050565b6000819050919050565b610ec581610eb2565b8114610ed057600080fd5b50565b600081359050610ee281610ebc565b92915050565b6000610efb610ef684610e8c565b610bd9565b90508060208402830185811115610f1557610f14610c1a565b5b835b81811015610f3e5780610f2a8882610ed3565b845260208401935050602081019050610f17565b5050509392505050565b600082601f830112610f5d57610f5c610b63565b5b6002610f6a848285610ee8565b91505092915050565b600080600080600060e08688031215610f8f57610f8e610b59565b5b600086013567ffffffffffffffff811115610fad57610fac610b5e565b5b610fb988828901610d52565b9550506020610fca88828901610dc6565b9450506040610fdb88828901610e61565b9350506080610fec88828901610f48565b92505060c0610ffd88828901610ed3565b9150509295509295909350565b60008115159050919050565b61101f8161100a565b82525050565b600060208201905061103a6000830184611016565b92915050565b60006020828403121561105657611055610b59565b5b600061106484828501610dc6565b91505092915050565b61107681610eb2565b82525050565b6000602082019050611091600083018461106d565b92915050565b6000602082840312156110ad576110ac610b59565b5b60006110bb84828501610ed3565b91505092915050565b60006110cf82610d7d565b9050919050565b6110df816110c4565b82525050565b60006020820190506110fa60008301846110d6565b92915050565b60008060006080848603121561111957611118610b59565b5b600061112786828701610f48565b935050604061113886828701610ed3565b925050606084013567ffffffffffffffff81111561115957611158610b5e565b5b61116586828701610d52565b9150509250925092565b7f4e487b7100000000000000000000000000000000000000000000000000000000600052603260045260246000fd5b60008160601b9050919050565b60006111b68261119e565b9050919050565b60006111c8826111ab565b9050919050565b6111e06111db82610d9d565b6111bd565b82525050565b600060029050919050565b600081905092915050565b6000819050919050565b61120f81610eb2565b82525050565b60006112218383611206565b60208301905092915050565b6000602082019050919050565b611243816111e6565b61124d81846111f1565b9250611258826111fc565b8060005b838110156112895781516112708782611215565b965061127b8361122d565b92505060018101905061125c565b505050505050565b6000819050919050565b6112ac6112a782610eb2565b611291565b82525050565b60006112be82866111cf565b6014820191506112ce828561123a565b6040820191506112de828461129b565b602082019150819050949350505050565b7f4e487b7100000000000000000000000000000000000000000000000000000000600052601160045260246000fd5b600061132982610eb2565b91507fffffffffffffffffffffffffffffffffffffffffffffffffffffffffffffffff820361135b5761135a6112ef565b5b600182019050919050565b600082825260208201905092915050565b7f4e6f742075736572000000000000000000000000000000000000000000000000600082015250565b60006113ad600883611366565b91506113b882611377565b602082019050919050565b600060208201905081810360008301526113dc816113a0565b9050919050565b7f496e76616c6964207369676e6174757265000000000000000000000000000000600082015250565b6000611419601183611366565b9150611424826113e3565b602082019050919050565b600060208201905081810360008301526114488161140c565b9050919050565b7f62616c616e6365206f6620636f6e7472616374206d757374206265203e3d207460008201527f6f2074686520746f74616c2062616c616e6365206f6620757365727300000000602082015250565b60006114ab603c83611366565b91506114b68261144f565b604082019050919050565b600060208201905081810360008301526114da8161149e565b9050919050565b7f4368616c6c656e676520706572696f6420686173206e6f74206578706972656460008201527f2079657400000000000000000000000000000000000000000000000000000000602082015250565b600061153d602483611366565b9150611548826114e1565b604082019050919050565b6000602082019050818103600083015261156c81611530565b9050919050565b600081905092915050565b50565b600061158e600083611573565b91506115998261157e565b600082019050919050565b60006115af82611581565b9150819050919050565b7f4661696c656420746f2073656e64204574686572000000000000000000000000600082015250565b60006115ef601483611366565b91506115fa826115b9565b602082019050919050565b6000602082019050818103600083015261161e816115e2565b9050919050565b600061163082610eb2565b915061163b83610eb2565b9250827fffffffffffffffffffffffffffffffffffffffffffffffffffffffffffffffff038211156116705761166f6112ef565b5b828201905092915050565b600081905092915050565b7f19457468657265756d205369676e6564204d6573736167653a0a333200000000600082015250565b60006116bc601c8361167b565b91506116c782611686565b601c82019050919050565b6000819050919050565b6000819050919050565b6116f76116f2826116d2565b6116dc565b82525050565b6000611708826116af565b915061171482846116e6565b60208201915081905092915050565b7f4e487b7100000000000000000000000000000000000000000000000000000000600052602160045260246000fd5b7f45434453413a20696e76616c6964207369676e61747572650000000000000000600082015250565b6000611788601883611366565b915061179382611752565b602082019050919050565b600060208201905081810360008301526117b78161177b565b9050919050565b7f45434453413a20696e76616c6964207369676e6174757265206c656e67746800600082015250565b60006117f4601f83611366565b91506117ff826117be565b602082019050919050565b60006020820190508181036000830152611823816117e7565b9050919050565b7f45434453413a20696e76616c6964207369676e6174757265202773272076616c60008201527f7565000000000000000000000000000000000000000000000000000000000000602082015250565b6000611886602283611366565b91506118918261182a565b604082019050919050565b600060208201905081810360008301526118b581611879565b9050919050565b7f45434453413a20696e76616c6964207369676e6174757265202776272076616c60008201527f7565000000000000000000000000000000000000000000000000000000000000602082015250565b6000611918602283611366565b9150611923826118bc565b604082019050919050565b600060208201905081810360008301526119478161190b565b9050919050565b611957816116d2565b82525050565b600060ff82169050919050565b6119738161195d565b82525050565b600060808201905061198e600083018761194e565b61199b602083018661196a565b6119a8604083018561194e565b6119b5606083018461194e565b9594505050505056fea2646970667358221220425f2381d29add3d36e7378860b00dac48d553eaa9c0a8938393aab4b19b87ed64736f6c634300080e0033",
			"opcodes": "PUSH1 0x80 PUSH1 0x40 MSTORE PUSH1 0x40 MLOAD PUSH3 0x23AF CODESIZE SUB DUP1 PUSH3 0x23AF DUP4 CODECOPY DUP2 DUP2 ADD PUSH1 0x40 MSTORE DUP2 ADD SWAP1 PUSH3 0x29 SWAP2 SWAP1 PUSH3 0x632 JUMP JUMPDEST DUP3 PUSH3 0x7A DUP2 PUSH1 0x1 PUSH1 0x2 DUP2 LT PUSH3 0x45 JUMPI PUSH3 0x44 PUSH3 0x6A4 JUMP JUMPDEST JUMPDEST PUSH1 0x20 MUL ADD MLOAD DUP3 PUSH1 0x0 PUSH1 0x2 DUP2 LT PUSH3 0x61 JUMPI PUSH3 0x60 PUSH3 0x6A4 JUMP JUMPDEST JUMPDEST PUSH1 0x20 MUL ADD MLOAD PUSH3 0x344 PUSH1 0x20 SHL PUSH3 0x708 OR SWAP1 SWAP2 SWAP1 PUSH1 0x20 SHR JUMP JUMPDEST SELFBALANCE LT ISZERO PUSH3 0xBF JUMPI PUSH1 0x40 MLOAD PUSH32 0x8C379A000000000000000000000000000000000000000000000000000000000 DUP2 MSTORE PUSH1 0x4 ADD PUSH3 0xB6 SWAP1 PUSH3 0x75A JUMP JUMPDEST PUSH1 0x40 MLOAD DUP1 SWAP2 SUB SWAP1 REVERT JUMPDEST TIMESTAMP DUP4 GT PUSH3 0x104 JUMPI PUSH1 0x40 MLOAD PUSH32 0x8C379A000000000000000000000000000000000000000000000000000000000 DUP2 MSTORE PUSH1 0x4 ADD PUSH3 0xFB SWAP1 PUSH3 0x7CC JUMP JUMPDEST PUSH1 0x40 MLOAD DUP1 SWAP2 SUB SWAP1 REVERT JUMPDEST PUSH1 0x0 DUP3 GT PUSH3 0x14A JUMPI PUSH1 0x40 MLOAD PUSH32 0x8C379A000000000000000000000000000000000000000000000000000000000 DUP2 MSTORE PUSH1 0x4 ADD PUSH3 0x141 SWAP1 PUSH3 0x83E JUMP JUMPDEST PUSH1 0x40 MLOAD DUP1 SWAP2 SUB SWAP1 REVERT JUMPDEST PUSH1 0x0 JUMPDEST PUSH1 0x2 DUP2 LT ISZERO PUSH3 0x32A JUMPI PUSH1 0x0 DUP7 DUP3 PUSH1 0x2 DUP2 LT PUSH3 0x16F JUMPI PUSH3 0x16E PUSH3 0x6A4 JUMP JUMPDEST JUMPDEST PUSH1 0x20 MUL ADD MLOAD SWAP1 POP PUSH1 0x2 PUSH1 0x0 DUP3 PUSH20 0xFFFFFFFFFFFFFFFFFFFFFFFFFFFFFFFFFFFFFFFF AND PUSH20 0xFFFFFFFFFFFFFFFFFFFFFFFFFFFFFFFFFFFFFFFF AND DUP2 MSTORE PUSH1 0x20 ADD SWAP1 DUP2 MSTORE PUSH1 0x20 ADD PUSH1 0x0 KECCAK256 PUSH1 0x0 SWAP1 SLOAD SWAP1 PUSH2 0x100 EXP SWAP1 DIV PUSH1 0xFF AND ISZERO PUSH3 0x206 JUMPI PUSH1 0x40 MLOAD PUSH32 0x8C379A000000000000000000000000000000000000000000000000000000000 DUP2 MSTORE PUSH1 0x4 ADD PUSH3 0x1FD SWAP1 PUSH3 0x8B0 JUMP JUMPDEST PUSH1 0x40 MLOAD DUP1 SWAP2 SUB SWAP1 REVERT JUMPDEST DUP1 PUSH1 0x0 DUP4 PUSH1 0x2 DUP2 LT PUSH3 0x21E JUMPI PUSH3 0x21D PUSH3 0x6A4 JUMP JUMPDEST JUMPDEST ADD PUSH1 0x0 PUSH2 0x100 EXP DUP2 SLOAD DUP2 PUSH20 0xFFFFFFFFFFFFFFFFFFFFFFFFFFFFFFFFFFFFFFFF MUL NOT AND SWAP1 DUP4 PUSH20 0xFFFFFFFFFFFFFFFFFFFFFFFFFFFFFFFFFFFFFFFF AND MUL OR SWAP1 SSTORE POP PUSH1 0x1 PUSH1 0x2 PUSH1 0x0 DUP4 PUSH20 0xFFFFFFFFFFFFFFFFFFFFFFFFFFFFFFFFFFFFFFFF AND PUSH20 0xFFFFFFFFFFFFFFFFFFFFFFFFFFFFFFFFFFFFFFFF AND DUP2 MSTORE PUSH1 0x20 ADD SWAP1 DUP2 MSTORE PUSH1 0x20 ADD PUSH1 0x0 KECCAK256 PUSH1 0x0 PUSH2 0x100 EXP DUP2 SLOAD DUP2 PUSH1 0xFF MUL NOT AND SWAP1 DUP4 ISZERO ISZERO MUL OR SWAP1 SSTORE POP DUP6 DUP3 PUSH1 0x2 DUP2 LT PUSH3 0x2CB JUMPI PUSH3 0x2CA PUSH3 0x6A4 JUMP JUMPDEST JUMPDEST PUSH1 0x20 MUL ADD MLOAD PUSH1 0x3 PUSH1 0x0 DUP4 PUSH20 0xFFFFFFFFFFFFFFFFFFFFFFFFFFFFFFFFFFFFFFFF AND PUSH20 0xFFFFFFFFFFFFFFFFFFFFFFFFFFFFFFFFFFFFFFFF AND DUP2 MSTORE PUSH1 0x20 ADD SWAP1 DUP2 MSTORE PUSH1 0x20 ADD PUSH1 0x0 KECCAK256 DUP2 SWAP1 SSTORE POP POP DUP1 DUP1 PUSH3 0x321 SWAP1 PUSH3 0x901 JUMP JUMPDEST SWAP2 POP POP PUSH3 0x14D JUMP JUMPDEST POP DUP3 PUSH1 0x5 DUP2 SWAP1 SSTORE POP DUP2 PUSH1 0x4 DUP2 SWAP1 SSTORE POP POP POP POP POP POP PUSH3 0x9AB JUMP JUMPDEST PUSH1 0x0 DUP2 DUP4 PUSH3 0x354 SWAP2 SWAP1 PUSH3 0x94E JUMP JUMPDEST SWAP1 POP SWAP3 SWAP2 POP POP JUMP JUMPDEST PUSH1 0x0 PUSH1 0x40 MLOAD SWAP1 POP SWAP1 JUMP JUMPDEST PUSH1 0x0 DUP1 REVERT JUMPDEST PUSH1 0x0 DUP1 REVERT JUMPDEST PUSH1 0x0 PUSH1 0x1F NOT PUSH1 0x1F DUP4 ADD AND SWAP1 POP SWAP2 SWAP1 POP JUMP JUMPDEST PUSH32 0x4E487B7100000000000000000000000000000000000000000000000000000000 PUSH1 0x0 MSTORE PUSH1 0x41 PUSH1 0x4 MSTORE PUSH1 0x24 PUSH1 0x0 REVERT JUMPDEST PUSH3 0x3BB DUP3 PUSH3 0x370 JUMP JUMPDEST DUP2 ADD DUP2 DUP2 LT PUSH8 0xFFFFFFFFFFFFFFFF DUP3 GT OR ISZERO PUSH3 0x3DD JUMPI PUSH3 0x3DC PUSH3 0x381 JUMP JUMPDEST JUMPDEST DUP1 PUSH1 0x40 MSTORE POP POP POP JUMP JUMPDEST PUSH1 0x0 PUSH3 0x3F2 PUSH3 0x35C JUMP JUMPDEST SWAP1 POP PUSH3 0x400 DUP3 DUP3 PUSH3 0x3B0 JUMP JUMPDEST SWAP2 SWAP1 POP JUMP JUMPDEST PUSH1 0x0 PUSH8 0xFFFFFFFFFFFFFFFF DUP3 GT ISZERO PUSH3 0x423 JUMPI PUSH3 0x422 PUSH3 0x381 JUMP JUMPDEST JUMPDEST PUSH1 0x20 DUP3 MUL SWAP1 POP SWAP2 SWAP1 POP JUMP JUMPDEST PUSH1 0x0 DUP1 REVERT JUMPDEST PUSH1 0x0 PUSH20 0xFFFFFFFFFFFFFFFFFFFFFFFFFFFFFFFFFFFFFFFF DUP3 AND SWAP1 POP SWAP2 SWAP1 POP JUMP JUMPDEST PUSH1 0x0 PUSH3 0x460 DUP3 PUSH3 0x433 JUMP JUMPDEST SWAP1 POP SWAP2 SWAP1 POP JUMP JUMPDEST PUSH3 0x472 DUP2 PUSH3 0x453 JUMP JUMPDEST DUP2 EQ PUSH3 0x47E JUMPI PUSH1 0x0 DUP1 REVERT JUMPDEST POP JUMP JUMPDEST PUSH1 0x0 DUP2 MLOAD SWAP1 POP PUSH3 0x492 DUP2 PUSH3 0x467 JUMP JUMPDEST SWAP3 SWAP2 POP POP JUMP JUMPDEST PUSH1 0x0 PUSH3 0x4AF PUSH3 0x4A9 DUP5 PUSH3 0x405 JUMP JUMPDEST PUSH3 0x3E6 JUMP JUMPDEST SWAP1 POP DUP1 PUSH1 0x20 DUP5 MUL DUP4 ADD DUP6 DUP2 GT ISZERO PUSH3 0x4CC JUMPI PUSH3 0x4CB PUSH3 0x42E JUMP JUMPDEST JUMPDEST DUP4 JUMPDEST DUP2 DUP2 LT ISZERO PUSH3 0x4F9 JUMPI DUP1 PUSH3 0x4E4 DUP9 DUP3 PUSH3 0x481 JUMP JUMPDEST DUP5 MSTORE PUSH1 0x20 DUP5 ADD SWAP4 POP POP PUSH1 0x20 DUP2 ADD SWAP1 POP PUSH3 0x4CE JUMP JUMPDEST POP POP POP SWAP4 SWAP3 POP POP POP JUMP JUMPDEST PUSH1 0x0 DUP3 PUSH1 0x1F DUP4 ADD SLT PUSH3 0x51B JUMPI PUSH3 0x51A PUSH3 0x36B JUMP JUMPDEST JUMPDEST PUSH1 0x2 PUSH3 0x52A DUP5 DUP3 DUP6 PUSH3 0x498 JUMP JUMPDEST SWAP2 POP POP SWAP3 SWAP2 POP POP JUMP JUMPDEST PUSH1 0x0 PUSH8 0xFFFFFFFFFFFFFFFF DUP3 GT ISZERO PUSH3 0x551 JUMPI PUSH3 0x550 PUSH3 0x381 JUMP JUMPDEST JUMPDEST PUSH1 0x20 DUP3 MUL SWAP1 POP SWAP2 SWAP1 POP JUMP JUMPDEST PUSH1 0x0 DUP2 SWAP1 POP SWAP2 SWAP1 POP JUMP JUMPDEST PUSH3 0x571 DUP2 PUSH3 0x55C JUMP JUMPDEST DUP2 EQ PUSH3 0x57D JUMPI PUSH1 0x0 DUP1 REVERT JUMPDEST POP JUMP JUMPDEST PUSH1 0x0 DUP2 MLOAD SWAP1 POP PUSH3 0x591 DUP2 PUSH3 0x566 JUMP JUMPDEST SWAP3 SWAP2 POP POP JUMP JUMPDEST PUSH1 0x0 PUSH3 0x5AE PUSH3 0x5A8 DUP5 PUSH3 0x533 JUMP JUMPDEST PUSH3 0x3E6 JUMP JUMPDEST SWAP1 POP DUP1 PUSH1 0x20 DUP5 MUL DUP4 ADD DUP6 DUP2 GT ISZERO PUSH3 0x5CB JUMPI PUSH3 0x5CA PUSH3 0x42E JUMP JUMPDEST JUMPDEST DUP4 JUMPDEST DUP2 DUP2 LT ISZERO PUSH3 0x5F8 JUMPI DUP1 PUSH3 0x5E3 DUP9 DUP3 PUSH3 0x580 JUMP JUMPDEST DUP5 MSTORE PUSH1 0x20 DUP5 ADD SWAP4 POP POP PUSH1 0x20 DUP2 ADD SWAP1 POP PUSH3 0x5CD JUMP JUMPDEST POP POP POP SWAP4 SWAP3 POP POP POP JUMP JUMPDEST PUSH1 0x0 DUP3 PUSH1 0x1F DUP4 ADD SLT PUSH3 0x61A JUMPI PUSH3 0x619 PUSH3 0x36B JUMP JUMPDEST JUMPDEST PUSH1 0x2 PUSH3 0x629 DUP5 DUP3 DUP6 PUSH3 0x597 JUMP JUMPDEST SWAP2 POP POP SWAP3 SWAP2 POP POP JUMP JUMPDEST PUSH1 0x0 DUP1 PUSH1 0x0 DUP1 PUSH1 0xC0 DUP6 DUP8 SUB SLT ISZERO PUSH3 0x64F JUMPI PUSH3 0x64E PUSH3 0x366 JUMP JUMPDEST JUMPDEST PUSH1 0x0 PUSH3 0x65F DUP8 DUP3 DUP9 ADD PUSH3 0x503 JUMP JUMPDEST SWAP5 POP POP PUSH1 0x40 PUSH3 0x672 DUP8 DUP3 DUP9 ADD PUSH3 0x602 JUMP JUMPDEST SWAP4 POP POP PUSH1 0x80 PUSH3 0x685 DUP8 DUP3 DUP9 ADD PUSH3 0x580 JUMP JUMPDEST SWAP3 POP POP PUSH1 0xA0 PUSH3 0x698 DUP8 DUP3 DUP9 ADD PUSH3 0x580 JUMP JUMPDEST SWAP2 POP POP SWAP3 SWAP6 SWAP2 SWAP5 POP SWAP3 POP JUMP JUMPDEST PUSH32 0x4E487B7100000000000000000000000000000000000000000000000000000000 PUSH1 0x0 MSTORE PUSH1 0x32 PUSH1 0x4 MSTORE PUSH1 0x24 PUSH1 0x0 REVERT JUMPDEST PUSH1 0x0 DUP3 DUP3 MSTORE PUSH1 0x20 DUP3 ADD SWAP1 POP SWAP3 SWAP2 POP POP JUMP JUMPDEST PUSH32 0x62616C616E6365206F6620636F6E7472616374206D757374206265203E3D2074 PUSH1 0x0 DUP3 ADD MSTORE PUSH32 0x6F2074686520746F74616C2062616C616E6365206F6620757365727300000000 PUSH1 0x20 DUP3 ADD MSTORE POP JUMP JUMPDEST PUSH1 0x0 PUSH3 0x742 PUSH1 0x3C DUP4 PUSH3 0x6D3 JUMP JUMPDEST SWAP2 POP PUSH3 0x74F DUP3 PUSH3 0x6E4 JUMP JUMPDEST PUSH1 0x40 DUP3 ADD SWAP1 POP SWAP2 SWAP1 POP JUMP JUMPDEST PUSH1 0x0 PUSH1 0x20 DUP3 ADD SWAP1 POP DUP2 DUP2 SUB PUSH1 0x0 DUP4 ADD MSTORE PUSH3 0x775 DUP2 PUSH3 0x733 JUMP JUMPDEST SWAP1 POP SWAP2 SWAP1 POP JUMP JUMPDEST PUSH32 0x45787069726174696F6E206D757374206265203E206E6F770000000000000000 PUSH1 0x0 DUP3 ADD MSTORE POP JUMP JUMPDEST PUSH1 0x0 PUSH3 0x7B4 PUSH1 0x18 DUP4 PUSH3 0x6D3 JUMP JUMPDEST SWAP2 POP PUSH3 0x7C1 DUP3 PUSH3 0x77C JUMP JUMPDEST PUSH1 0x20 DUP3 ADD SWAP1 POP SWAP2 SWAP1 POP JUMP JUMPDEST PUSH1 0x0 PUSH1 0x20 DUP3 ADD SWAP1 POP DUP2 DUP2 SUB PUSH1 0x0 DUP4 ADD MSTORE PUSH3 0x7E7 DUP2 PUSH3 0x7A5 JUMP JUMPDEST SWAP1 POP SWAP2 SWAP1 POP JUMP JUMPDEST PUSH32 0x4368616C6C656E6765207065696F64206D757374206265203E20300000000000 PUSH1 0x0 DUP3 ADD MSTORE POP JUMP JUMPDEST PUSH1 0x0 PUSH3 0x826 PUSH1 0x1B DUP4 PUSH3 0x6D3 JUMP JUMPDEST SWAP2 POP PUSH3 0x833 DUP3 PUSH3 0x7EE JUMP JUMPDEST PUSH1 0x20 DUP3 ADD SWAP1 POP SWAP2 SWAP1 POP JUMP JUMPDEST PUSH1 0x0 PUSH1 0x20 DUP3 ADD SWAP1 POP DUP2 DUP2 SUB PUSH1 0x0 DUP4 ADD MSTORE PUSH3 0x859 DUP2 PUSH3 0x817 JUMP JUMPDEST SWAP1 POP SWAP2 SWAP1 POP JUMP JUMPDEST PUSH32 0x75736572206D75737420626520756E6971756500000000000000000000000000 PUSH1 0x0 DUP3 ADD MSTORE POP JUMP JUMPDEST PUSH1 0x0 PUSH3 0x898 PUSH1 0x13 DUP4 PUSH3 0x6D3 JUMP JUMPDEST SWAP2 POP PUSH3 0x8A5 DUP3 PUSH3 0x860 JUMP JUMPDEST PUSH1 0x20 DUP3 ADD SWAP1 POP SWAP2 SWAP1 POP JUMP JUMPDEST PUSH1 0x0 PUSH1 0x20 DUP3 ADD SWAP1 POP DUP2 DUP2 SUB PUSH1 0x0 DUP4 ADD MSTORE PUSH3 0x8CB DUP2 PUSH3 0x889 JUMP JUMPDEST SWAP1 POP SWAP2 SWAP1 POP JUMP JUMPDEST PUSH32 0x4E487B7100000000000000000000000000000000000000000000000000000000 PUSH1 0x0 MSTORE PUSH1 0x11 PUSH1 0x4 MSTORE PUSH1 0x24 PUSH1 0x0 REVERT JUMPDEST PUSH1 0x0 PUSH3 0x90E DUP3 PUSH3 0x55C JUMP JUMPDEST SWAP2 POP PUSH32 0xFFFFFFFFFFFFFFFFFFFFFFFFFFFFFFFFFFFFFFFFFFFFFFFFFFFFFFFFFFFFFFFF DUP3 SUB PUSH3 0x943 JUMPI PUSH3 0x942 PUSH3 0x8D2 JUMP JUMPDEST JUMPDEST PUSH1 0x1 DUP3 ADD SWAP1 POP SWAP2 SWAP1 POP JUMP JUMPDEST PUSH1 0x0 PUSH3 0x95B DUP3 PUSH3 0x55C JUMP JUMPDEST SWAP2 POP PUSH3 0x968 DUP4 PUSH3 0x55C JUMP JUMPDEST SWAP3 POP DUP3 PUSH32 0xFFFFFFFFFFFFFFFFFFFFFFFFFFFFFFFFFFFFFFFFFFFFFFFFFFFFFFFFFFFFFFFF SUB DUP3 GT ISZERO PUSH3 0x9A0 JUMPI PUSH3 0x99F PUSH3 0x8D2 JUMP JUMPDEST JUMPDEST DUP3 DUP3 ADD SWAP1 POP SWAP3 SWAP2 POP POP JUMP JUMPDEST PUSH2 0x19F4 DUP1 PUSH3 0x9BB PUSH1 0x0 CODECOPY PUSH1 0x0 RETURN INVALID PUSH1 0x80 PUSH1 0x40 MSTORE CALLVALUE DUP1 ISZERO PUSH2 0x10 JUMPI PUSH1 0x0 DUP1 REVERT JUMPDEST POP PUSH1 0x4 CALLDATASIZE LT PUSH2 0x88 JUMPI PUSH1 0x0 CALLDATALOAD PUSH1 0xE0 SHR DUP1 PUSH4 0x8622A689 GT PUSH2 0x5B JUMPI DUP1 PUSH4 0x8622A689 EQ PUSH2 0x14D JUMPI DUP1 PUSH4 0xA0FF4999 EQ PUSH2 0x16B JUMPI DUP1 PUSH4 0xAFFED0E0 EQ PUSH2 0x187 JUMPI DUP1 PUSH4 0xF3F480D9 EQ PUSH2 0x1A5 JUMPI PUSH2 0x88 JUMP JUMPDEST DUP1 PUSH4 0x21E66868 EQ PUSH2 0x8D JUMPI DUP1 PUSH4 0x27E235E3 EQ PUSH2 0xBD JUMPI DUP1 PUSH4 0x365B98B2 EQ PUSH2 0xED JUMPI DUP1 PUSH4 0x4209FFF1 EQ PUSH2 0x11D JUMPI JUMPDEST PUSH1 0x0 DUP1 REVERT JUMPDEST PUSH2 0xA7 PUSH1 0x4 DUP1 CALLDATASIZE SUB DUP2 ADD SWAP1 PUSH2 0xA2 SWAP2 SWAP1 PUSH2 0xF73 JUMP JUMPDEST PUSH2 0x1C3 JUMP JUMPDEST PUSH1 0x40 MLOAD PUSH2 0xB4 SWAP2 SWAP1 PUSH2 0x1025 JUMP JUMPDEST PUSH1 0x40 MLOAD DUP1 SWAP2 SUB SWAP1 RETURN JUMPDEST PUSH2 0xD7 PUSH1 0x4 DUP1 CALLDATASIZE SUB DUP2 ADD SWAP1 PUSH2 0xD2 SWAP2 SWAP1 PUSH2 0x1040 JUMP JUMPDEST PUSH2 0x2AC JUMP JUMPDEST PUSH1 0x40 MLOAD PUSH2 0xE4 SWAP2 SWAP1 PUSH2 0x107C JUMP JUMPDEST PUSH1 0x40 MLOAD DUP1 SWAP2 SUB SWAP1 RETURN JUMPDEST PUSH2 0x107 PUSH1 0x4 DUP1 CALLDATASIZE SUB DUP2 ADD SWAP1 PUSH2 0x102 SWAP2 SWAP1 PUSH2 0x1097 JUMP JUMPDEST PUSH2 0x2C4 JUMP JUMPDEST PUSH1 0x40 MLOAD PUSH2 0x114 SWAP2 SWAP1 PUSH2 0x10E5 JUMP JUMPDEST PUSH1 0x40 MLOAD DUP1 SWAP2 SUB SWAP1 RETURN JUMPDEST PUSH2 0x137 PUSH1 0x4 DUP1 CALLDATASIZE SUB DUP2 ADD SWAP1 PUSH2 0x132 SWAP2 SWAP1 PUSH2 0x1040 JUMP JUMPDEST PUSH2 0x2FA JUMP JUMPDEST PUSH1 0x40 MLOAD PUSH2 0x144 SWAP2 SWAP1 PUSH2 0x1025 JUMP JUMPDEST PUSH1 0x40 MLOAD DUP1 SWAP2 SUB SWAP1 RETURN JUMPDEST PUSH2 0x155 PUSH2 0x31A JUMP JUMPDEST PUSH1 0x40 MLOAD PUSH2 0x162 SWAP2 SWAP1 PUSH2 0x107C JUMP JUMPDEST PUSH1 0x40 MLOAD DUP1 SWAP2 SUB SWAP1 RETURN JUMPDEST PUSH2 0x185 PUSH1 0x4 DUP1 CALLDATASIZE SUB DUP2 ADD SWAP1 PUSH2 0x180 SWAP2 SWAP1 PUSH2 0x1100 JUMP JUMPDEST PUSH2 0x320 JUMP JUMPDEST STOP JUMPDEST PUSH2 0x18F PUSH2 0x6FC JUMP JUMPDEST PUSH1 0x40 MLOAD PUSH2 0x19C SWAP2 SWAP1 PUSH2 0x107C JUMP JUMPDEST PUSH1 0x40 MLOAD DUP1 SWAP2 SUB SWAP1 RETURN JUMPDEST PUSH2 0x1AD PUSH2 0x702 JUMP JUMPDEST PUSH1 0x40 MLOAD PUSH2 0x1BA SWAP2 SWAP1 PUSH2 0x107C JUMP JUMPDEST PUSH1 0x40 MLOAD DUP1 SWAP2 SUB SWAP1 RETURN JUMPDEST PUSH1 0x0 DUP1 PUSH1 0x0 SWAP1 POP JUMPDEST PUSH1 0x2 DUP2 LT ISZERO PUSH2 0x29D JUMPI PUSH1 0x0 PUSH2 0x232 DUP9 DUP4 PUSH1 0x2 DUP2 LT PUSH2 0x1EC JUMPI PUSH2 0x1EB PUSH2 0x116F JUMP JUMPDEST JUMPDEST PUSH1 0x20 MUL ADD MLOAD PUSH2 0x224 DUP10 DUP9 DUP9 PUSH1 0x40 MLOAD PUSH1 0x20 ADD PUSH2 0x209 SWAP4 SWAP3 SWAP2 SWAP1 PUSH2 0x12B2 JUMP JUMPDEST PUSH1 0x40 MLOAD PUSH1 0x20 DUP2 DUP4 SUB SUB DUP2 MSTORE SWAP1 PUSH1 0x40 MSTORE DUP1 MLOAD SWAP1 PUSH1 0x20 ADD KECCAK256 PUSH2 0x71E JUMP JUMPDEST PUSH2 0x74E SWAP1 SWAP2 SWAP1 PUSH4 0xFFFFFFFF AND JUMP JUMPDEST PUSH20 0xFFFFFFFFFFFFFFFFFFFFFFFFFFFFFFFFFFFFFFFF AND DUP7 DUP4 PUSH1 0x2 DUP2 LT PUSH2 0x25B JUMPI PUSH2 0x25A PUSH2 0x116F JUMP JUMPDEST JUMPDEST PUSH1 0x20 MUL ADD MLOAD PUSH20 0xFFFFFFFFFFFFFFFFFFFFFFFFFFFFFFFFFFFFFFFF AND EQ SWAP1 POP DUP1 PUSH2 0x289 JUMPI PUSH1 0x0 SWAP3 POP POP POP PUSH2 0x2A3 JUMP JUMPDEST POP DUP1 DUP1 PUSH2 0x295 SWAP1 PUSH2 0x131E JUMP JUMPDEST SWAP2 POP POP PUSH2 0x1CB JUMP JUMPDEST POP PUSH1 0x1 SWAP1 POP JUMPDEST SWAP6 SWAP5 POP POP POP POP POP JUMP JUMPDEST PUSH1 0x3 PUSH1 0x20 MSTORE DUP1 PUSH1 0x0 MSTORE PUSH1 0x40 PUSH1 0x0 KECCAK256 PUSH1 0x0 SWAP2 POP SWAP1 POP SLOAD DUP2 JUMP JUMPDEST PUSH1 0x0 DUP2 PUSH1 0x2 DUP2 LT PUSH2 0x2D4 JUMPI PUSH1 0x0 DUP1 REVERT JUMPDEST ADD PUSH1 0x0 SWAP2 POP SLOAD SWAP1 PUSH2 0x100 EXP SWAP1 DIV PUSH20 0xFFFFFFFFFFFFFFFFFFFFFFFFFFFFFFFFFFFFFFFF AND DUP2 JUMP JUMPDEST PUSH1 0x2 PUSH1 0x20 MSTORE DUP1 PUSH1 0x0 MSTORE PUSH1 0x40 PUSH1 0x0 KECCAK256 PUSH1 0x0 SWAP2 POP SLOAD SWAP1 PUSH2 0x100 EXP SWAP1 DIV PUSH1 0xFF AND DUP2 JUMP JUMPDEST PUSH1 0x5 SLOAD DUP2 JUMP JUMPDEST PUSH1 0x2 PUSH1 0x0 CALLER PUSH20 0xFFFFFFFFFFFFFFFFFFFFFFFFFFFFFFFFFFFFFFFF AND PUSH20 0xFFFFFFFFFFFFFFFFFFFFFFFFFFFFFFFFFFFFFFFF AND DUP2 MSTORE PUSH1 0x20 ADD SWAP1 DUP2 MSTORE PUSH1 0x20 ADD PUSH1 0x0 KECCAK256 PUSH1 0x0 SWAP1 SLOAD SWAP1 PUSH2 0x100 EXP SWAP1 DIV PUSH1 0xFF AND PUSH2 0x3AC JUMPI PUSH1 0x40 MLOAD PUSH32 0x8C379A000000000000000000000000000000000000000000000000000000000 DUP2 MSTORE PUSH1 0x4 ADD PUSH2 0x3A3 SWAP1 PUSH2 0x13C3 JUMP JUMPDEST PUSH1 0x40 MLOAD DUP1 SWAP2 SUB SWAP1 REVERT JUMPDEST DUP1 DUP4 DUP4 PUSH2 0x3B7 PUSH2 0xB2D JUMP JUMPDEST PUSH1 0x0 JUMPDEST PUSH1 0x2 DUP2 LT ISZERO PUSH2 0x456 JUMPI PUSH1 0x0 DUP2 PUSH1 0x2 DUP2 LT PUSH2 0x3D7 JUMPI PUSH2 0x3D6 PUSH2 0x116F JUMP JUMPDEST JUMPDEST ADD PUSH1 0x0 SWAP1 SLOAD SWAP1 PUSH2 0x100 EXP SWAP1 DIV PUSH20 0xFFFFFFFFFFFFFFFFFFFFFFFFFFFFFFFFFFFFFFFF AND DUP3 DUP3 PUSH1 0x2 DUP2 LT PUSH2 0x40C JUMPI PUSH2 0x40B PUSH2 0x116F JUMP JUMPDEST JUMPDEST PUSH1 0x20 MUL ADD SWAP1 PUSH20 0xFFFFFFFFFFFFFFFFFFFFFFFFFFFFFFFFFFFFFFFF AND SWAP1 DUP2 PUSH20 0xFFFFFFFFFFFFFFFFFFFFFFFFFFFFFFFFFFFFFFFF AND DUP2 MSTORE POP POP DUP1 DUP1 PUSH2 0x44E SWAP1 PUSH2 0x131E JUMP JUMPDEST SWAP2 POP POP PUSH2 0x3BA JUMP JUMPDEST POP PUSH2 0x464 DUP5 ADDRESS DUP4 DUP7 DUP7 PUSH2 0x1C3 JUMP JUMPDEST PUSH2 0x4A3 JUMPI PUSH1 0x40 MLOAD PUSH32 0x8C379A000000000000000000000000000000000000000000000000000000000 DUP2 MSTORE PUSH1 0x4 ADD PUSH2 0x49A SWAP1 PUSH2 0x142F JUMP JUMPDEST PUSH1 0x40 MLOAD DUP1 SWAP2 SUB SWAP1 REVERT JUMPDEST DUP7 PUSH2 0x4E7 DUP2 PUSH1 0x1 PUSH1 0x2 DUP2 LT PUSH2 0x4BB JUMPI PUSH2 0x4BA PUSH2 0x116F JUMP JUMPDEST JUMPDEST PUSH1 0x20 MUL ADD MLOAD DUP3 PUSH1 0x0 PUSH1 0x2 DUP2 LT PUSH2 0x4D4 JUMPI PUSH2 0x4D3 PUSH2 0x116F JUMP JUMPDEST JUMPDEST PUSH1 0x20 MUL ADD MLOAD PUSH2 0x708 SWAP1 SWAP2 SWAP1 PUSH4 0xFFFFFFFF AND JUMP JUMPDEST SELFBALANCE LT ISZERO PUSH2 0x529 JUMPI PUSH1 0x40 MLOAD PUSH32 0x8C379A000000000000000000000000000000000000000000000000000000000 DUP2 MSTORE PUSH1 0x4 ADD PUSH2 0x520 SWAP1 PUSH2 0x14C1 JUMP JUMPDEST PUSH1 0x40 MLOAD DUP1 SWAP2 SUB SWAP1 REVERT JUMPDEST PUSH1 0x5 SLOAD TIMESTAMP LT PUSH2 0x56D JUMPI PUSH1 0x40 MLOAD PUSH32 0x8C379A000000000000000000000000000000000000000000000000000000000 DUP2 MSTORE PUSH1 0x4 ADD PUSH2 0x564 SWAP1 PUSH2 0x1553 JUMP JUMPDEST PUSH1 0x40 MLOAD DUP1 SWAP2 SUB SWAP1 REVERT JUMPDEST PUSH1 0x0 PUSH1 0x3 PUSH1 0x0 CALLER PUSH20 0xFFFFFFFFFFFFFFFFFFFFFFFFFFFFFFFFFFFFFFFF AND PUSH20 0xFFFFFFFFFFFFFFFFFFFFFFFFFFFFFFFFFFFFFFFF AND DUP2 MSTORE PUSH1 0x20 ADD SWAP1 DUP2 MSTORE PUSH1 0x20 ADD PUSH1 0x0 KECCAK256 SLOAD SWAP1 POP PUSH1 0x0 PUSH1 0x3 PUSH1 0x0 CALLER PUSH20 0xFFFFFFFFFFFFFFFFFFFFFFFFFFFFFFFFFFFFFFFF AND PUSH20 0xFFFFFFFFFFFFFFFFFFFFFFFFFFFFFFFFFFFFFFFF AND DUP2 MSTORE PUSH1 0x20 ADD SWAP1 DUP2 MSTORE PUSH1 0x20 ADD PUSH1 0x0 KECCAK256 DUP2 SWAP1 SSTORE POP PUSH1 0x0 CALLER PUSH20 0xFFFFFFFFFFFFFFFFFFFFFFFFFFFFFFFFFFFFFFFF AND DUP3 PUSH1 0x40 MLOAD PUSH2 0x61C SWAP1 PUSH2 0x15A4 JUMP JUMPDEST PUSH1 0x0 PUSH1 0x40 MLOAD DUP1 DUP4 SUB DUP2 DUP6 DUP8 GAS CALL SWAP3 POP POP POP RETURNDATASIZE DUP1 PUSH1 0x0 DUP2 EQ PUSH2 0x659 JUMPI PUSH1 0x40 MLOAD SWAP2 POP PUSH1 0x1F NOT PUSH1 0x3F RETURNDATASIZE ADD AND DUP3 ADD PUSH1 0x40 MSTORE RETURNDATASIZE DUP3 MSTORE RETURNDATASIZE PUSH1 0x0 PUSH1 0x20 DUP5 ADD RETURNDATACOPY PUSH2 0x65E JUMP JUMPDEST PUSH1 0x60 SWAP2 POP JUMPDEST POP POP SWAP1 POP DUP1 PUSH2 0x6A2 JUMPI PUSH1 0x40 MLOAD PUSH32 0x8C379A000000000000000000000000000000000000000000000000000000000 DUP2 MSTORE PUSH1 0x4 ADD PUSH2 0x699 SWAP1 PUSH2 0x1605 JUMP JUMPDEST PUSH1 0x40 MLOAD DUP1 SWAP2 SUB SWAP1 REVERT JUMPDEST CALLER PUSH20 0xFFFFFFFFFFFFFFFFFFFFFFFFFFFFFFFFFFFFFFFF AND PUSH32 0x884EDAD9CE6FA2440D8A54CC123490EB96D2768479D49FF9C7366125A9424364 DUP4 PUSH1 0x40 MLOAD PUSH2 0x6E8 SWAP2 SWAP1 PUSH2 0x107C JUMP JUMPDEST PUSH1 0x40 MLOAD DUP1 SWAP2 SUB SWAP1 LOG2 POP POP POP POP POP POP POP POP POP POP JUMP JUMPDEST PUSH1 0x6 SLOAD DUP2 JUMP JUMPDEST PUSH1 0x4 SLOAD DUP2 JUMP JUMPDEST PUSH1 0x0 DUP2 DUP4 PUSH2 0x716 SWAP2 SWAP1 PUSH2 0x1625 JUMP JUMPDEST SWAP1 POP SWAP3 SWAP2 POP POP JUMP JUMPDEST PUSH1 0x0 DUP2 PUSH1 0x40 MLOAD PUSH1 0x20 ADD PUSH2 0x731 SWAP2 SWAP1 PUSH2 0x16FD JUMP JUMPDEST PUSH1 0x40 MLOAD PUSH1 0x20 DUP2 DUP4 SUB SUB DUP2 MSTORE SWAP1 PUSH1 0x40 MSTORE DUP1 MLOAD SWAP1 PUSH1 0x20 ADD KECCAK256 SWAP1 POP SWAP2 SWAP1 POP JUMP JUMPDEST PUSH1 0x0 DUP1 PUSH1 0x0 PUSH2 0x75D DUP6 DUP6 PUSH2 0x775 JUMP JUMPDEST SWAP2 POP SWAP2 POP PUSH2 0x76A DUP2 PUSH2 0x7F6 JUMP JUMPDEST DUP2 SWAP3 POP POP POP SWAP3 SWAP2 POP POP JUMP JUMPDEST PUSH1 0x0 DUP1 PUSH1 0x41 DUP4 MLOAD SUB PUSH2 0x7B6 JUMPI PUSH1 0x0 DUP1 PUSH1 0x0 PUSH1 0x20 DUP7 ADD MLOAD SWAP3 POP PUSH1 0x40 DUP7 ADD MLOAD SWAP2 POP PUSH1 0x60 DUP7 ADD MLOAD PUSH1 0x0 BYTE SWAP1 POP PUSH2 0x7AA DUP8 DUP3 DUP6 DUP6 PUSH2 0x9C2 JUMP JUMPDEST SWAP5 POP SWAP5 POP POP POP POP PUSH2 0x7EF JUMP JUMPDEST PUSH1 0x40 DUP4 MLOAD SUB PUSH2 0x7E6 JUMPI PUSH1 0x0 DUP1 PUSH1 0x20 DUP6 ADD MLOAD SWAP2 POP PUSH1 0x40 DUP6 ADD MLOAD SWAP1 POP PUSH2 0x7DB DUP7 DUP4 DUP4 PUSH2 0xACE JUMP JUMPDEST SWAP4 POP SWAP4 POP POP POP PUSH2 0x7EF JUMP JUMPDEST PUSH1 0x0 PUSH1 0x2 SWAP2 POP SWAP2 POP JUMPDEST SWAP3 POP SWAP3 SWAP1 POP JUMP JUMPDEST PUSH1 0x0 PUSH1 0x4 DUP2 GT ISZERO PUSH2 0x80A JUMPI PUSH2 0x809 PUSH2 0x1723 JUMP JUMPDEST JUMPDEST DUP2 PUSH1 0x4 DUP2 GT ISZERO PUSH2 0x81D JUMPI PUSH2 0x81C PUSH2 0x1723 JUMP JUMPDEST JUMPDEST SUB ISZERO PUSH2 0x9BF JUMPI PUSH1 0x1 PUSH1 0x4 DUP2 GT ISZERO PUSH2 0x837 JUMPI PUSH2 0x836 PUSH2 0x1723 JUMP JUMPDEST JUMPDEST DUP2 PUSH1 0x4 DUP2 GT ISZERO PUSH2 0x84A JUMPI PUSH2 0x849 PUSH2 0x1723 JUMP JUMPDEST JUMPDEST SUB PUSH2 0x88A JUMPI PUSH1 0x40 MLOAD PUSH32 0x8C379A000000000000000000000000000000000000000000000000000000000 DUP2 MSTORE PUSH1 0x4 ADD PUSH2 0x881 SWAP1 PUSH2 0x179E JUMP JUMPDEST PUSH1 0x40 MLOAD DUP1 SWAP2 SUB SWAP1 REVERT JUMPDEST PUSH1 0x2 PUSH1 0x4 DUP2 GT ISZERO PUSH2 0x89E JUMPI PUSH2 0x89D PUSH2 0x1723 JUMP JUMPDEST JUMPDEST DUP2 PUSH1 0x4 DUP2 GT ISZERO PUSH2 0x8B1 JUMPI PUSH2 0x8B0 PUSH2 0x1723 JUMP JUMPDEST JUMPDEST SUB PUSH2 0x8F1 JUMPI PUSH1 0x40 MLOAD PUSH32 0x8C379A000000000000000000000000000000000000000000000000000000000 DUP2 MSTORE PUSH1 0x4 ADD PUSH2 0x8E8 SWAP1 PUSH2 0x180A JUMP JUMPDEST PUSH1 0x40 MLOAD DUP1 SWAP2 SUB SWAP1 REVERT JUMPDEST PUSH1 0x3 PUSH1 0x4 DUP2 GT ISZERO PUSH2 0x905 JUMPI PUSH2 0x904 PUSH2 0x1723 JUMP JUMPDEST JUMPDEST DUP2 PUSH1 0x4 DUP2 GT ISZERO PUSH2 0x918 JUMPI PUSH2 0x917 PUSH2 0x1723 JUMP JUMPDEST JUMPDEST SUB PUSH2 0x958 JUMPI PUSH1 0x40 MLOAD PUSH32 0x8C379A000000000000000000000000000000000000000000000000000000000 DUP2 MSTORE PUSH1 0x4 ADD PUSH2 0x94F SWAP1 PUSH2 0x189C JUMP JUMPDEST PUSH1 0x40 MLOAD DUP1 SWAP2 SUB SWAP1 REVERT JUMPDEST PUSH1 0x4 DUP1 DUP2 GT ISZERO PUSH2 0x96B JUMPI PUSH2 0x96A PUSH2 0x1723 JUMP JUMPDEST JUMPDEST DUP2 PUSH1 0x4 DUP2 GT ISZERO PUSH2 0x97E JUMPI PUSH2 0x97D PUSH2 0x1723 JUMP JUMPDEST JUMPDEST SUB PUSH2 0x9BE JUMPI PUSH1 0x40 MLOAD PUSH32 0x8C379A000000000000000000000000000000000000000000000000000000000 DUP2 MSTORE PUSH1 0x4 ADD PUSH2 0x9B5 SWAP1 PUSH2 0x192E JUMP JUMPDEST PUSH1 0x40 MLOAD DUP1 SWAP2 SUB SWAP1 REVERT JUMPDEST JUMPDEST POP JUMP JUMPDEST PUSH1 0x0 DUP1 PUSH32 0x7FFFFFFFFFFFFFFFFFFFFFFFFFFFFFFF5D576E7357A4501DDFE92F46681B20A0 DUP4 PUSH1 0x0 SHR GT ISZERO PUSH2 0x9FD JUMPI PUSH1 0x0 PUSH1 0x3 SWAP2 POP SWAP2 POP PUSH2 0xAC5 JUMP JUMPDEST PUSH1 0x1B DUP6 PUSH1 0xFF AND EQ ISZERO DUP1 ISZERO PUSH2 0xA15 JUMPI POP PUSH1 0x1C DUP6 PUSH1 0xFF AND EQ ISZERO JUMPDEST ISZERO PUSH2 0xA27 JUMPI PUSH1 0x0 PUSH1 0x4 SWAP2 POP SWAP2 POP PUSH2 0xAC5 JUMP JUMPDEST PUSH1 0x0 PUSH1 0x1 DUP8 DUP8 DUP8 DUP8 PUSH1 0x40 MLOAD PUSH1 0x0 DUP2 MSTORE PUSH1 0x20 ADD PUSH1 0x40 MSTORE PUSH1 0x40 MLOAD PUSH2 0xA4C SWAP5 SWAP4 SWAP3 SWAP2 SWAP1 PUSH2 0x1979 JUMP JUMPDEST PUSH1 0x20 PUSH1 0x40 MLOAD PUSH1 0x20 DUP2 SUB SWAP1 DUP1 DUP5 SUB SWAP1 DUP6 GAS STATICCALL ISZERO DUP1 ISZERO PUSH2 0xA6E JUMPI RETURNDATASIZE PUSH1 0x0 DUP1 RETURNDATACOPY RETURNDATASIZE PUSH1 0x0 REVERT JUMPDEST POP POP POP PUSH1 0x20 PUSH1 0x40 MLOAD SUB MLOAD SWAP1 POP PUSH1 0x0 PUSH20 0xFFFFFFFFFFFFFFFFFFFFFFFFFFFFFFFFFFFFFFFF AND DUP2 PUSH20 0xFFFFFFFFFFFFFFFFFFFFFFFFFFFFFFFFFFFFFFFF AND SUB PUSH2 0xABC JUMPI PUSH1 0x0 PUSH1 0x1 SWAP3 POP SWAP3 POP POP PUSH2 0xAC5 JUMP JUMPDEST DUP1 PUSH1 0x0 SWAP3 POP SWAP3 POP POP JUMPDEST SWAP5 POP SWAP5 SWAP3 POP POP POP JUMP JUMPDEST PUSH1 0x0 DUP1 PUSH1 0x0 PUSH32 0x7FFFFFFFFFFFFFFFFFFFFFFFFFFFFFFFFFFFFFFFFFFFFFFFFFFFFFFFFFFFFFFF PUSH1 0x0 SHL DUP5 AND SWAP1 POP PUSH1 0x0 PUSH1 0x1B PUSH1 0xFF DUP7 PUSH1 0x0 SHR SWAP1 SHR PUSH2 0xB11 SWAP2 SWAP1 PUSH2 0x1625 JUMP JUMPDEST SWAP1 POP PUSH2 0xB1F DUP8 DUP3 DUP9 DUP6 PUSH2 0x9C2 JUMP JUMPDEST SWAP4 POP SWAP4 POP POP POP SWAP4 POP SWAP4 SWAP2 POP POP JUMP JUMPDEST PUSH1 0x40 MLOAD DUP1 PUSH1 0x40 ADD PUSH1 0x40 MSTORE DUP1 PUSH1 0x2 SWAP1 PUSH1 0x20 DUP3 MUL DUP1 CALLDATASIZE DUP4 CALLDATACOPY DUP1 DUP3 ADD SWAP2 POP POP SWAP1 POP POP SWAP1 JUMP JUMPDEST PUSH1 0x0 PUSH1 0x40 MLOAD SWAP1 POP SWAP1 JUMP JUMPDEST PUSH1 0x0 DUP1 REVERT JUMPDEST PUSH1 0x0 DUP1 REVERT JUMPDEST PUSH1 0x0 DUP1 REVERT JUMPDEST PUSH1 0x0 PUSH1 0x1F NOT PUSH1 0x1F DUP4 ADD AND SWAP1 POP SWAP2 SWAP1 POP JUMP JUMPDEST PUSH32 0x4E487B7100000000000000000000000000000000000000000000000000000000 PUSH1 0x0 MSTORE PUSH1 0x41 PUSH1 0x4 MSTORE PUSH1 0x24 PUSH1 0x0 REVERT JUMPDEST PUSH2 0xBB1 DUP3 PUSH2 0xB68 JUMP JUMPDEST DUP2 ADD DUP2 DUP2 LT PUSH8 0xFFFFFFFFFFFFFFFF DUP3 GT OR ISZERO PUSH2 0xBD0 JUMPI PUSH2 0xBCF PUSH2 0xB79 JUMP JUMPDEST JUMPDEST DUP1 PUSH1 0x40 MSTORE POP POP POP JUMP JUMPDEST PUSH1 0x0 PUSH2 0xBE3 PUSH2 0xB4F JUMP JUMPDEST SWAP1 POP PUSH2 0xBEF DUP3 DUP3 PUSH2 0xBA8 JUMP JUMPDEST SWAP2 SWAP1 POP JUMP JUMPDEST PUSH1 0x0 PUSH8 0xFFFFFFFFFFFFFFFF DUP3 GT ISZERO PUSH2 0xC0F JUMPI PUSH2 0xC0E PUSH2 0xB79 JUMP JUMPDEST JUMPDEST PUSH1 0x20 DUP3 MUL SWAP1 POP SWAP2 SWAP1 POP JUMP JUMPDEST PUSH1 0x0 DUP1 REVERT JUMPDEST PUSH1 0x0 DUP1 REVERT JUMPDEST PUSH1 0x0 PUSH8 0xFFFFFFFFFFFFFFFF DUP3 GT ISZERO PUSH2 0xC3F JUMPI PUSH2 0xC3E PUSH2 0xB79 JUMP JUMPDEST JUMPDEST PUSH2 0xC48 DUP3 PUSH2 0xB68 JUMP JUMPDEST SWAP1 POP PUSH1 0x20 DUP2 ADD SWAP1 POP SWAP2 SWAP1 POP JUMP JUMPDEST DUP3 DUP2 DUP4 CALLDATACOPY PUSH1 0x0 DUP4 DUP4 ADD MSTORE POP POP POP JUMP JUMPDEST PUSH1 0x0 PUSH2 0xC77 PUSH2 0xC72 DUP5 PUSH2 0xC24 JUMP JUMPDEST PUSH2 0xBD9 JUMP JUMPDEST SWAP1 POP DUP3 DUP2 MSTORE PUSH1 0x20 DUP2 ADD DUP5 DUP5 DUP5 ADD GT ISZERO PUSH2 0xC93 JUMPI PUSH2 0xC92 PUSH2 0xC1F JUMP JUMPDEST JUMPDEST PUSH2 0xC9E DUP5 DUP3 DUP6 PUSH2 0xC55 JUMP JUMPDEST POP SWAP4 SWAP3 POP POP POP JUMP JUMPDEST PUSH1 0x0 DUP3 PUSH1 0x1F DUP4 ADD SLT PUSH2 0xCBB JUMPI PUSH2 0xCBA PUSH2 0xB63 JUMP JUMPDEST JUMPDEST DUP2 CALLDATALOAD PUSH2 0xCCB DUP5 DUP3 PUSH1 0x20 DUP7 ADD PUSH2 0xC64 JUMP JUMPDEST SWAP2 POP POP SWAP3 SWAP2 POP POP JUMP JUMPDEST PUSH1 0x0 PUSH2 0xCE7 PUSH2 0xCE2 DUP5 PUSH2 0xBF4 JUMP JUMPDEST PUSH2 0xBD9 JUMP JUMPDEST SWAP1 POP DUP1 PUSH1 0x20 DUP5 MUL DUP4 ADD DUP6 DUP2 GT ISZERO PUSH2 0xD01 JUMPI PUSH2 0xD00 PUSH2 0xC1A JUMP JUMPDEST JUMPDEST DUP4 JUMPDEST DUP2 DUP2 LT ISZERO PUSH2 0xD48 JUMPI DUP1 CALLDATALOAD PUSH8 0xFFFFFFFFFFFFFFFF DUP2 GT ISZERO PUSH2 0xD26 JUMPI PUSH2 0xD25 PUSH2 0xB63 JUMP JUMPDEST JUMPDEST DUP1 DUP7 ADD PUSH2 0xD33 DUP10 DUP3 PUSH2 0xCA6 JUMP JUMPDEST DUP6 MSTORE PUSH1 0x20 DUP6 ADD SWAP5 POP POP POP PUSH1 0x20 DUP2 ADD SWAP1 POP PUSH2 0xD03 JUMP JUMPDEST POP POP POP SWAP4 SWAP3 POP POP POP JUMP JUMPDEST PUSH1 0x0 DUP3 PUSH1 0x1F DUP4 ADD SLT PUSH2 0xD67 JUMPI PUSH2 0xD66 PUSH2 0xB63 JUMP JUMPDEST JUMPDEST PUSH1 0x2 PUSH2 0xD74 DUP5 DUP3 DUP6 PUSH2 0xCD4 JUMP JUMPDEST SWAP2 POP POP SWAP3 SWAP2 POP POP JUMP JUMPDEST PUSH1 0x0 PUSH20 0xFFFFFFFFFFFFFFFFFFFFFFFFFFFFFFFFFFFFFFFF DUP3 AND SWAP1 POP SWAP2 SWAP1 POP JUMP JUMPDEST PUSH1 0x0 PUSH2 0xDA8 DUP3 PUSH2 0xD7D JUMP JUMPDEST SWAP1 POP SWAP2 SWAP1 POP JUMP JUMPDEST PUSH2 0xDB8 DUP2 PUSH2 0xD9D JUMP JUMPDEST DUP2 EQ PUSH2 0xDC3 JUMPI PUSH1 0x0 DUP1 REVERT JUMPDEST POP JUMP JUMPDEST PUSH1 0x0 DUP2 CALLDATALOAD SWAP1 POP PUSH2 0xDD5 DUP2 PUSH2 0xDAF JUMP JUMPDEST SWAP3 SWAP2 POP POP JUMP JUMPDEST PUSH1 0x0 PUSH8 0xFFFFFFFFFFFFFFFF DUP3 GT ISZERO PUSH2 0xDF6 JUMPI PUSH2 0xDF5 PUSH2 0xB79 JUMP JUMPDEST JUMPDEST PUSH1 0x20 DUP3 MUL SWAP1 POP SWAP2 SWAP1 POP JUMP JUMPDEST PUSH1 0x0 PUSH2 0xE14 PUSH2 0xE0F DUP5 PUSH2 0xDDB JUMP JUMPDEST PUSH2 0xBD9 JUMP JUMPDEST SWAP1 POP DUP1 PUSH1 0x20 DUP5 MUL DUP4 ADD DUP6 DUP2 GT ISZERO PUSH2 0xE2E JUMPI PUSH2 0xE2D PUSH2 0xC1A JUMP JUMPDEST JUMPDEST DUP4 JUMPDEST DUP2 DUP2 LT ISZERO PUSH2 0xE57 JUMPI DUP1 PUSH2 0xE43 DUP9 DUP3 PUSH2 0xDC6 JUMP JUMPDEST DUP5 MSTORE PUSH1 0x20 DUP5 ADD SWAP4 POP POP PUSH1 0x20 DUP2 ADD SWAP1 POP PUSH2 0xE30 JUMP JUMPDEST POP POP POP SWAP4 SWAP3 POP POP POP JUMP JUMPDEST PUSH1 0x0 DUP3 PUSH1 0x1F DUP4 ADD SLT PUSH2 0xE76 JUMPI PUSH2 0xE75 PUSH2 0xB63 JUMP JUMPDEST JUMPDEST PUSH1 0x2 PUSH2 0xE83 DUP5 DUP3 DUP6 PUSH2 0xE01 JUMP JUMPDEST SWAP2 POP POP SWAP3 SWAP2 POP POP JUMP JUMPDEST PUSH1 0x0 PUSH8 0xFFFFFFFFFFFFFFFF DUP3 GT ISZERO PUSH2 0xEA7 JUMPI PUSH2 0xEA6 PUSH2 0xB79 JUMP JUMPDEST JUMPDEST PUSH1 0x20 DUP3 MUL SWAP1 POP SWAP2 SWAP1 POP JUMP JUMPDEST PUSH1 0x0 DUP2 SWAP1 POP SWAP2 SWAP1 POP JUMP JUMPDEST PUSH2 0xEC5 DUP2 PUSH2 0xEB2 JUMP JUMPDEST DUP2 EQ PUSH2 0xED0 JUMPI PUSH1 0x0 DUP1 REVERT JUMPDEST POP JUMP JUMPDEST PUSH1 0x0 DUP2 CALLDATALOAD SWAP1 POP PUSH2 0xEE2 DUP2 PUSH2 0xEBC JUMP JUMPDEST SWAP3 SWAP2 POP POP JUMP JUMPDEST PUSH1 0x0 PUSH2 0xEFB PUSH2 0xEF6 DUP5 PUSH2 0xE8C JUMP JUMPDEST PUSH2 0xBD9 JUMP JUMPDEST SWAP1 POP DUP1 PUSH1 0x20 DUP5 MUL DUP4 ADD DUP6 DUP2 GT ISZERO PUSH2 0xF15 JUMPI PUSH2 0xF14 PUSH2 0xC1A JUMP JUMPDEST JUMPDEST DUP4 JUMPDEST DUP2 DUP2 LT ISZERO PUSH2 0xF3E JUMPI DUP1 PUSH2 0xF2A DUP9 DUP3 PUSH2 0xED3 JUMP JUMPDEST DUP5 MSTORE PUSH1 0x20 DUP5 ADD SWAP4 POP POP PUSH1 0x20 DUP2 ADD SWAP1 POP PUSH2 0xF17 JUMP JUMPDEST POP POP POP SWAP4 SWAP3 POP POP POP JUMP JUMPDEST PUSH1 0x0 DUP3 PUSH1 0x1F DUP4 ADD SLT PUSH2 0xF5D JUMPI PUSH2 0xF5C PUSH2 0xB63 JUMP JUMPDEST JUMPDEST PUSH1 0x2 PUSH2 0xF6A DUP5 DUP3 DUP6 PUSH2 0xEE8 JUMP JUMPDEST SWAP2 POP POP SWAP3 SWAP2 POP POP JUMP JUMPDEST PUSH1 0x0 DUP1 PUSH1 0x0 DUP1 PUSH1 0x0 PUSH1 0xE0 DUP7 DUP9 SUB SLT ISZERO PUSH2 0xF8F JUMPI PUSH2 0xF8E PUSH2 0xB59 JUMP JUMPDEST JUMPDEST PUSH1 0x0 DUP7 ADD CALLDATALOAD PUSH8 0xFFFFFFFFFFFFFFFF DUP2 GT ISZERO PUSH2 0xFAD JUMPI PUSH2 0xFAC PUSH2 0xB5E JUMP JUMPDEST JUMPDEST PUSH2 0xFB9 DUP9 DUP3 DUP10 ADD PUSH2 0xD52 JUMP JUMPDEST SWAP6 POP POP PUSH1 0x20 PUSH2 0xFCA DUP9 DUP3 DUP10 ADD PUSH2 0xDC6 JUMP JUMPDEST SWAP5 POP POP PUSH1 0x40 PUSH2 0xFDB DUP9 DUP3 DUP10 ADD PUSH2 0xE61 JUMP JUMPDEST SWAP4 POP POP PUSH1 0x80 PUSH2 0xFEC DUP9 DUP3 DUP10 ADD PUSH2 0xF48 JUMP JUMPDEST SWAP3 POP POP PUSH1 0xC0 PUSH2 0xFFD DUP9 DUP3 DUP10 ADD PUSH2 0xED3 JUMP JUMPDEST SWAP2 POP POP SWAP3 SWAP6 POP SWAP3 SWAP6 SWAP1 SWAP4 POP JUMP JUMPDEST PUSH1 0x0 DUP2 ISZERO ISZERO SWAP1 POP SWAP2 SWAP1 POP JUMP JUMPDEST PUSH2 0x101F DUP2 PUSH2 0x100A JUMP JUMPDEST DUP3 MSTORE POP POP JUMP JUMPDEST PUSH1 0x0 PUSH1 0x20 DUP3 ADD SWAP1 POP PUSH2 0x103A PUSH1 0x0 DUP4 ADD DUP5 PUSH2 0x1016 JUMP JUMPDEST SWAP3 SWAP2 POP POP JUMP JUMPDEST PUSH1 0x0 PUSH1 0x20 DUP3 DUP5 SUB SLT ISZERO PUSH2 0x1056 JUMPI PUSH2 0x1055 PUSH2 0xB59 JUMP JUMPDEST JUMPDEST PUSH1 0x0 PUSH2 0x1064 DUP5 DUP3 DUP6 ADD PUSH2 0xDC6 JUMP JUMPDEST SWAP2 POP POP SWAP3 SWAP2 POP POP JUMP JUMPDEST PUSH2 0x1076 DUP2 PUSH2 0xEB2 JUMP JUMPDEST DUP3 MSTORE POP POP JUMP JUMPDEST PUSH1 0x0 PUSH1 0x20 DUP3 ADD SWAP1 POP PUSH2 0x1091 PUSH1 0x0 DUP4 ADD DUP5 PUSH2 0x106D JUMP JUMPDEST SWAP3 SWAP2 POP POP JUMP JUMPDEST PUSH1 0x0 PUSH1 0x20 DUP3 DUP5 SUB SLT ISZERO PUSH2 0x10AD JUMPI PUSH2 0x10AC PUSH2 0xB59 JUMP JUMPDEST JUMPDEST PUSH1 0x0 PUSH2 0x10BB DUP5 DUP3 DUP6 ADD PUSH2 0xED3 JUMP JUMPDEST SWAP2 POP POP SWAP3 SWAP2 POP POP JUMP JUMPDEST PUSH1 0x0 PUSH2 0x10CF DUP3 PUSH2 0xD7D JUMP JUMPDEST SWAP1 POP SWAP2 SWAP1 POP JUMP JUMPDEST PUSH2 0x10DF DUP2 PUSH2 0x10C4 JUMP JUMPDEST DUP3 MSTORE POP POP JUMP JUMPDEST PUSH1 0x0 PUSH1 0x20 DUP3 ADD SWAP1 POP PUSH2 0x10FA PUSH1 0x0 DUP4 ADD DUP5 PUSH2 0x10D6 JUMP JUMPDEST SWAP3 SWAP2 POP POP JUMP JUMPDEST PUSH1 0x0 DUP1 PUSH1 0x0 PUSH1 0x80 DUP5 DUP7 SUB SLT ISZERO PUSH2 0x1119 JUMPI PUSH2 0x1118 PUSH2 0xB59 JUMP JUMPDEST JUMPDEST PUSH1 0x0 PUSH2 0x1127 DUP7 DUP3 DUP8 ADD PUSH2 0xF48 JUMP JUMPDEST SWAP4 POP POP PUSH1 0x40 PUSH2 0x1138 DUP7 DUP3 DUP8 ADD PUSH2 0xED3 JUMP JUMPDEST SWAP3 POP POP PUSH1 0x60 DUP5 ADD CALLDATALOAD PUSH8 0xFFFFFFFFFFFFFFFF DUP2 GT ISZERO PUSH2 0x1159 JUMPI PUSH2 0x1158 PUSH2 0xB5E JUMP JUMPDEST JUMPDEST PUSH2 0x1165 DUP7 DUP3 DUP8 ADD PUSH2 0xD52 JUMP JUMPDEST SWAP2 POP POP SWAP3 POP SWAP3 POP SWAP3 JUMP JUMPDEST PUSH32 0x4E487B7100000000000000000000000000000000000000000000000000000000 PUSH1 0x0 MSTORE PUSH1 0x32 PUSH1 0x4 MSTORE PUSH1 0x24 PUSH1 0x0 REVERT JUMPDEST PUSH1 0x0 DUP2 PUSH1 0x60 SHL SWAP1 POP SWAP2 SWAP1 POP JUMP JUMPDEST PUSH1 0x0 PUSH2 0x11B6 DUP3 PUSH2 0x119E JUMP JUMPDEST SWAP1 POP SWAP2 SWAP1 POP JUMP JUMPDEST PUSH1 0x0 PUSH2 0x11C8 DUP3 PUSH2 0x11AB JUMP JUMPDEST SWAP1 POP SWAP2 SWAP1 POP JUMP JUMPDEST PUSH2 0x11E0 PUSH2 0x11DB DUP3 PUSH2 0xD9D JUMP JUMPDEST PUSH2 0x11BD JUMP JUMPDEST DUP3 MSTORE POP POP JUMP JUMPDEST PUSH1 0x0 PUSH1 0x2 SWAP1 POP SWAP2 SWAP1 POP JUMP JUMPDEST PUSH1 0x0 DUP2 SWAP1 POP SWAP3 SWAP2 POP POP JUMP JUMPDEST PUSH1 0x0 DUP2 SWAP1 POP SWAP2 SWAP1 POP JUMP JUMPDEST PUSH2 0x120F DUP2 PUSH2 0xEB2 JUMP JUMPDEST DUP3 MSTORE POP POP JUMP JUMPDEST PUSH1 0x0 PUSH2 0x1221 DUP4 DUP4 PUSH2 0x1206 JUMP JUMPDEST PUSH1 0x20 DUP4 ADD SWAP1 POP SWAP3 SWAP2 POP POP JUMP JUMPDEST PUSH1 0x0 PUSH1 0x20 DUP3 ADD SWAP1 POP SWAP2 SWAP1 POP JUMP JUMPDEST PUSH2 0x1243 DUP2 PUSH2 0x11E6 JUMP JUMPDEST PUSH2 0x124D DUP2 DUP5 PUSH2 0x11F1 JUMP JUMPDEST SWAP3 POP PUSH2 0x1258 DUP3 PUSH2 0x11FC JUMP JUMPDEST DUP1 PUSH1 0x0 JUMPDEST DUP4 DUP2 LT ISZERO PUSH2 0x1289 JUMPI DUP2 MLOAD PUSH2 0x1270 DUP8 DUP3 PUSH2 0x1215 JUMP JUMPDEST SWAP7 POP PUSH2 0x127B DUP4 PUSH2 0x122D JUMP JUMPDEST SWAP3 POP POP PUSH1 0x1 DUP2 ADD SWAP1 POP PUSH2 0x125C JUMP JUMPDEST POP POP POP POP POP POP JUMP JUMPDEST PUSH1 0x0 DUP2 SWAP1 POP SWAP2 SWAP1 POP JUMP JUMPDEST PUSH2 0x12AC PUSH2 0x12A7 DUP3 PUSH2 0xEB2 JUMP JUMPDEST PUSH2 0x1291 JUMP JUMPDEST DUP3 MSTORE POP POP JUMP JUMPDEST PUSH1 0x0 PUSH2 0x12BE DUP3 DUP7 PUSH2 0x11CF JUMP JUMPDEST PUSH1 0x14 DUP3 ADD SWAP2 POP PUSH2 0x12CE DUP3 DUP6 PUSH2 0x123A JUMP JUMPDEST PUSH1 0x40 DUP3 ADD SWAP2 POP PUSH2 0x12DE DUP3 DUP5 PUSH2 0x129B JUMP JUMPDEST PUSH1 0x20 DUP3 ADD SWAP2 POP DUP2 SWAP1 POP SWAP5 SWAP4 POP POP POP POP JUMP JUMPDEST PUSH32 0x4E487B7100000000000000000000000000000000000000000000000000000000 PUSH1 0x0 MSTORE PUSH1 0x11 PUSH1 0x4 MSTORE PUSH1 0x24 PUSH1 0x0 REVERT JUMPDEST PUSH1 0x0 PUSH2 0x1329 DUP3 PUSH2 0xEB2 JUMP JUMPDEST SWAP2 POP PUSH32 0xFFFFFFFFFFFFFFFFFFFFFFFFFFFFFFFFFFFFFFFFFFFFFFFFFFFFFFFFFFFFFFFF DUP3 SUB PUSH2 0x135B JUMPI PUSH2 0x135A PUSH2 0x12EF JUMP JUMPDEST JUMPDEST PUSH1 0x1 DUP3 ADD SWAP1 POP SWAP2 SWAP1 POP JUMP JUMPDEST PUSH1 0x0 DUP3 DUP3 MSTORE PUSH1 0x20 DUP3 ADD SWAP1 POP SWAP3 SWAP2 POP POP JUMP JUMPDEST PUSH32 0x4E6F742075736572000000000000000000000000000000000000000000000000 PUSH1 0x0 DUP3 ADD MSTORE POP JUMP JUMPDEST PUSH1 0x0 PUSH2 0x13AD PUSH1 0x8 DUP4 PUSH2 0x1366 JUMP JUMPDEST SWAP2 POP PUSH2 0x13B8 DUP3 PUSH2 0x1377 JUMP JUMPDEST PUSH1 0x20 DUP3 ADD SWAP1 POP SWAP2 SWAP1 POP JUMP JUMPDEST PUSH1 0x0 PUSH1 0x20 DUP3 ADD SWAP1 POP DUP2 DUP2 SUB PUSH1 0x0 DUP4 ADD MSTORE PUSH2 0x13DC DUP2 PUSH2 0x13A0 JUMP JUMPDEST SWAP1 POP SWAP2 SWAP1 POP JUMP JUMPDEST PUSH32 0x496E76616C6964207369676E6174757265000000000000000000000000000000 PUSH1 0x0 DUP3 ADD MSTORE POP JUMP JUMPDEST PUSH1 0x0 PUSH2 0x1419 PUSH1 0x11 DUP4 PUSH2 0x1366 JUMP JUMPDEST SWAP2 POP PUSH2 0x1424 DUP3 PUSH2 0x13E3 JUMP JUMPDEST PUSH1 0x20 DUP3 ADD SWAP1 POP SWAP2 SWAP1 POP JUMP JUMPDEST PUSH1 0x0 PUSH1 0x20 DUP3 ADD SWAP1 POP DUP2 DUP2 SUB PUSH1 0x0 DUP4 ADD MSTORE PUSH2 0x1448 DUP2 PUSH2 0x140C JUMP JUMPDEST SWAP1 POP SWAP2 SWAP1 POP JUMP JUMPDEST PUSH32 0x62616C616E6365206F6620636F6E7472616374206D757374206265203E3D2074 PUSH1 0x0 DUP3 ADD MSTORE PUSH32 0x6F2074686520746F74616C2062616C616E6365206F6620757365727300000000 PUSH1 0x20 DUP3 ADD MSTORE POP JUMP JUMPDEST PUSH1 0x0 PUSH2 0x14AB PUSH1 0x3C DUP4 PUSH2 0x1366 JUMP JUMPDEST SWAP2 POP PUSH2 0x14B6 DUP3 PUSH2 0x144F JUMP JUMPDEST PUSH1 0x40 DUP3 ADD SWAP1 POP SWAP2 SWAP1 POP JUMP JUMPDEST PUSH1 0x0 PUSH1 0x20 DUP3 ADD SWAP1 POP DUP2 DUP2 SUB PUSH1 0x0 DUP4 ADD MSTORE PUSH2 0x14DA DUP2 PUSH2 0x149E JUMP JUMPDEST SWAP1 POP SWAP2 SWAP1 POP JUMP JUMPDEST PUSH32 0x4368616C6C656E676520706572696F6420686173206E6F742065787069726564 PUSH1 0x0 DUP3 ADD MSTORE PUSH32 0x2079657400000000000000000000000000000000000000000000000000000000 PUSH1 0x20 DUP3 ADD MSTORE POP JUMP JUMPDEST PUSH1 0x0 PUSH2 0x153D PUSH1 0x24 DUP4 PUSH2 0x1366 JUMP JUMPDEST SWAP2 POP PUSH2 0x1548 DUP3 PUSH2 0x14E1 JUMP JUMPDEST PUSH1 0x40 DUP3 ADD SWAP1 POP SWAP2 SWAP1 POP JUMP JUMPDEST PUSH1 0x0 PUSH1 0x20 DUP3 ADD SWAP1 POP DUP2 DUP2 SUB PUSH1 0x0 DUP4 ADD MSTORE PUSH2 0x156C DUP2 PUSH2 0x1530 JUMP JUMPDEST SWAP1 POP SWAP2 SWAP1 POP JUMP JUMPDEST PUSH1 0x0 DUP2 SWAP1 POP SWAP3 SWAP2 POP POP JUMP JUMPDEST POP JUMP JUMPDEST PUSH1 0x0 PUSH2 0x158E PUSH1 0x0 DUP4 PUSH2 0x1573 JUMP JUMPDEST SWAP2 POP PUSH2 0x1599 DUP3 PUSH2 0x157E JUMP JUMPDEST PUSH1 0x0 DUP3 ADD SWAP1 POP SWAP2 SWAP1 POP JUMP JUMPDEST PUSH1 0x0 PUSH2 0x15AF DUP3 PUSH2 0x1581 JUMP JUMPDEST SWAP2 POP DUP2 SWAP1 POP SWAP2 SWAP1 POP JUMP JUMPDEST PUSH32 0x4661696C656420746F2073656E64204574686572000000000000000000000000 PUSH1 0x0 DUP3 ADD MSTORE POP JUMP JUMPDEST PUSH1 0x0 PUSH2 0x15EF PUSH1 0x14 DUP4 PUSH2 0x1366 JUMP JUMPDEST SWAP2 POP PUSH2 0x15FA DUP3 PUSH2 0x15B9 JUMP JUMPDEST PUSH1 0x20 DUP3 ADD SWAP1 POP SWAP2 SWAP1 POP JUMP JUMPDEST PUSH1 0x0 PUSH1 0x20 DUP3 ADD SWAP1 POP DUP2 DUP2 SUB PUSH1 0x0 DUP4 ADD MSTORE PUSH2 0x161E DUP2 PUSH2 0x15E2 JUMP JUMPDEST SWAP1 POP SWAP2 SWAP1 POP JUMP JUMPDEST PUSH1 0x0 PUSH2 0x1630 DUP3 PUSH2 0xEB2 JUMP JUMPDEST SWAP2 POP PUSH2 0x163B DUP4 PUSH2 0xEB2 JUMP JUMPDEST SWAP3 POP DUP3 PUSH32 0xFFFFFFFFFFFFFFFFFFFFFFFFFFFFFFFFFFFFFFFFFFFFFFFFFFFFFFFFFFFFFFFF SUB DUP3 GT ISZERO PUSH2 0x1670 JUMPI PUSH2 0x166F PUSH2 0x12EF JUMP JUMPDEST JUMPDEST DUP3 DUP3 ADD SWAP1 POP SWAP3 SWAP2 POP POP JUMP JUMPDEST PUSH1 0x0 DUP2 SWAP1 POP SWAP3 SWAP2 POP POP JUMP JUMPDEST PUSH32 0x19457468657265756D205369676E6564204D6573736167653A0A333200000000 PUSH1 0x0 DUP3 ADD MSTORE POP JUMP JUMPDEST PUSH1 0x0 PUSH2 0x16BC PUSH1 0x1C DUP4 PUSH2 0x167B JUMP JUMPDEST SWAP2 POP PUSH2 0x16C7 DUP3 PUSH2 0x1686 JUMP JUMPDEST PUSH1 0x1C DUP3 ADD SWAP1 POP SWAP2 SWAP1 POP JUMP JUMPDEST PUSH1 0x0 DUP2 SWAP1 POP SWAP2 SWAP1 POP JUMP JUMPDEST PUSH1 0x0 DUP2 SWAP1 POP SWAP2 SWAP1 POP JUMP JUMPDEST PUSH2 0x16F7 PUSH2 0x16F2 DUP3 PUSH2 0x16D2 JUMP JUMPDEST PUSH2 0x16DC JUMP JUMPDEST DUP3 MSTORE POP POP JUMP JUMPDEST PUSH1 0x0 PUSH2 0x1708 DUP3 PUSH2 0x16AF JUMP JUMPDEST SWAP2 POP PUSH2 0x1714 DUP3 DUP5 PUSH2 0x16E6 JUMP JUMPDEST PUSH1 0x20 DUP3 ADD SWAP2 POP DUP2 SWAP1 POP SWAP3 SWAP2 POP POP JUMP JUMPDEST PUSH32 0x4E487B7100000000000000000000000000000000000000000000000000000000 PUSH1 0x0 MSTORE PUSH1 0x21 PUSH1 0x4 MSTORE PUSH1 0x24 PUSH1 0x0 REVERT JUMPDEST PUSH32 0x45434453413A20696E76616C6964207369676E61747572650000000000000000 PUSH1 0x0 DUP3 ADD MSTORE POP JUMP JUMPDEST PUSH1 0x0 PUSH2 0x1788 PUSH1 0x18 DUP4 PUSH2 0x1366 JUMP JUMPDEST SWAP2 POP PUSH2 0x1793 DUP3 PUSH2 0x1752 JUMP JUMPDEST PUSH1 0x20 DUP3 ADD SWAP1 POP SWAP2 SWAP1 POP JUMP JUMPDEST PUSH1 0x0 PUSH1 0x20 DUP3 ADD SWAP1 POP DUP2 DUP2 SUB PUSH1 0x0 DUP4 ADD MSTORE PUSH2 0x17B7 DUP2 PUSH2 0x177B JUMP JUMPDEST SWAP1 POP SWAP2 SWAP1 POP JUMP JUMPDEST PUSH32 0x45434453413A20696E76616C6964207369676E6174757265206C656E67746800 PUSH1 0x0 DUP3 ADD MSTORE POP JUMP JUMPDEST PUSH1 0x0 PUSH2 0x17F4 PUSH1 0x1F DUP4 PUSH2 0x1366 JUMP JUMPDEST SWAP2 POP PUSH2 0x17FF DUP3 PUSH2 0x17BE JUMP JUMPDEST PUSH1 0x20 DUP3 ADD SWAP1 POP SWAP2 SWAP1 POP JUMP JUMPDEST PUSH1 0x0 PUSH1 0x20 DUP3 ADD SWAP1 POP DUP2 DUP2 SUB PUSH1 0x0 DUP4 ADD MSTORE PUSH2 0x1823 DUP2 PUSH2 0x17E7 JUMP JUMPDEST SWAP1 POP SWAP2 SWAP1 POP JUMP JUMPDEST PUSH32 0x45434453413A20696E76616C6964207369676E6174757265202773272076616C PUSH1 0x0 DUP3 ADD MSTORE PUSH32 0x7565000000000000000000000000000000000000000000000000000000000000 PUSH1 0x20 DUP3 ADD MSTORE POP JUMP JUMPDEST PUSH1 0x0 PUSH2 0x1886 PUSH1 0x22 DUP4 PUSH2 0x1366 JUMP JUMPDEST SWAP2 POP PUSH2 0x1891 DUP3 PUSH2 0x182A JUMP JUMPDEST PUSH1 0x40 DUP3 ADD SWAP1 POP SWAP2 SWAP1 POP JUMP JUMPDEST PUSH1 0x0 PUSH1 0x20 DUP3 ADD SWAP1 POP DUP2 DUP2 SUB PUSH1 0x0 DUP4 ADD MSTORE PUSH2 0x18B5 DUP2 PUSH2 0x1879 JUMP JUMPDEST SWAP1 POP SWAP2 SWAP1 POP JUMP JUMPDEST PUSH32 0x45434453413A20696E76616C6964207369676E6174757265202776272076616C PUSH1 0x0 DUP3 ADD MSTORE PUSH32 0x7565000000000000000000000000000000000000000000000000000000000000 PUSH1 0x20 DUP3 ADD MSTORE POP JUMP JUMPDEST PUSH1 0x0 PUSH2 0x1918 PUSH1 0x22 DUP4 PUSH2 0x1366 JUMP JUMPDEST SWAP2 POP PUSH2 0x1923 DUP3 PUSH2 0x18BC JUMP JUMPDEST PUSH1 0x40 DUP3 ADD SWAP1 POP SWAP2 SWAP1 POP JUMP JUMPDEST PUSH1 0x0 PUSH1 0x20 DUP3 ADD SWAP1 POP DUP2 DUP2 SUB PUSH1 0x0 DUP4 ADD MSTORE PUSH2 0x1947 DUP2 PUSH2 0x190B JUMP JUMPDEST SWAP1 POP SWAP2 SWAP1 POP JUMP JUMPDEST PUSH2 0x1957 DUP2 PUSH2 0x16D2 JUMP JUMPDEST DUP3 MSTORE POP POP JUMP JUMPDEST PUSH1 0x0 PUSH1 0xFF DUP3 AND SWAP1 POP SWAP2 SWAP1 POP JUMP JUMPDEST PUSH2 0x1973 DUP2 PUSH2 0x195D JUMP JUMPDEST DUP3 MSTORE POP POP JUMP JUMPDEST PUSH1 0x0 PUSH1 0x80 DUP3 ADD SWAP1 POP PUSH2 0x198E PUSH1 0x0 DUP4 ADD DUP8 PUSH2 0x194E JUMP JUMPDEST PUSH2 0x199B PUSH1 0x20 DUP4 ADD DUP7 PUSH2 0x196A JUMP JUMPDEST PUSH2 0x19A8 PUSH1 0x40 DUP4 ADD DUP6 PUSH2 0x194E JUMP JUMPDEST PUSH2 0x19B5 PUSH1 0x60 DUP4 ADD DUP5 PUSH2 0x194E JUMP JUMPDEST SWAP6 SWAP5 POP POP POP POP POP JUMP INVALID LOG2 PUSH5 0x6970667358 0x22 SLT KECCAK256 TIMESTAMP 0x5F 0x23 DUP2 0xD2 SWAP11 0xDD RETURNDATASIZE CALLDATASIZE 0xE7 CALLDATACOPY DUP9 PUSH1 0xB0 0xD 0xAC BASEFEE 0xD5 MSTORE8 0xEA 0xA9 0xC0 0xA8 SWAP4 DUP4 SWAP4 0xAA 0xB4 0xB1 SWAP12 DUP8 0xED PUSH5 0x736F6C6343 STOP ADDMOD 0xE STOP CALLER "
		},
		"gasEstimates": {
			"creation": {
				"codeDepositCost": "1328800",
				"executionCost": "infinite",
				"totalCost": "infinite"
			},
			"external": {
				"balances(address)": "2837",
				"challengeExit(uint256[2],uint256,bytes[2])": "infinite",
				"challengePeriod()": "2495",
				"expiresAt()": "2429",
				"isUser(address)": "2912",
				"nonce()": "2473",
				"users(uint256)": "2850",
				"verify(bytes[2],address,address[2],uint256[2],uint256)": "infinite"
			}
		},
		"methodIdentifiers": {
			"balances(address)": "27e235e3",
			"challengeExit(uint256[2],uint256,bytes[2])": "a0ff4999",
			"challengePeriod()": "f3f480d9",
			"expiresAt()": "8622a689",
			"isUser(address)": "4209fff1",
			"nonce()": "affed0e0",
			"users(uint256)": "365b98b2",
			"verify(bytes[2],address,address[2],uint256[2],uint256)": "21e66868"
		}
	},
	"abi": [
		{
			"inputs": [
				{
					"internalType": "address payable[2]",
					"name": "_users",
					"type": "address[2]"
				},
				{
					"internalType": "uint256[2]",
					"name": "_balances",
					"type": "uint256[2]"
				},
				{
					"internalType": "uint256",
					"name": "_expiresAt",
					"type": "uint256"
				},
				{
					"internalType": "uint256",
					"name": "_challengePeriod",
					"type": "uint256"
				}
			],
			"stateMutability": "payable",
			"type": "constructor"
		},
		{
			"anonymous": false,
			"inputs": [
				{
					"indexed": true,
					"internalType": "address",
					"name": "sender",
					"type": "address"
				},
				{
					"indexed": false,
					"internalType": "uint256",
					"name": "nonce",
					"type": "uint256"
				}
			],
			"name": "ChallengeExit",
			"type": "event"
		},
		{
			"anonymous": false,
			"inputs": [
				{
					"indexed": true,
					"internalType": "address",
					"name": "to",
					"type": "address"
				},
				{
					"indexed": false,
					"internalType": "uint256",
					"name": "amount",
					"type": "uint256"
				}
			],
			"name": "Withdraw",
			"type": "event"
		},
		{
			"inputs": [
				{
					"internalType": "address",
					"name": "",
					"type": "address"
				}
			],
			"name": "balances",
			"outputs": [
				{
					"internalType": "uint256",
					"name": "",
					"type": "uint256"
				}
			],
			"stateMutability": "view",
			"type": "function"
		},
		{
			"inputs": [
				{
					"internalType": "uint256[2]",
					"name": "_balances",
					"type": "uint256[2]"
				},
				{
					"internalType": "uint256",
					"name": "_nonce",
					"type": "uint256"
				},
				{
					"internalType": "bytes[2]",
					"name": "_signatures",
					"type": "bytes[2]"
				}
			],
			"name": "challengeExit",
			"outputs": [],
			"stateMutability": "nonpayable",
			"type": "function"
		},
		{
			"inputs": [],
			"name": "challengePeriod",
			"outputs": [
				{
					"internalType": "uint256",
					"name": "",
					"type": "uint256"
				}
			],
			"stateMutability": "view",
			"type": "function"
		},
		{
			"inputs": [],
			"name": "expiresAt",
			"outputs": [
				{
					"internalType": "uint256",
					"name": "",
					"type": "uint256"
				}
			],
			"stateMutability": "view",
			"type": "function"
		},
		{
			"inputs": [
				{
					"internalType": "address",
					"name": "",
					"type": "address"
				}
			],
			"name": "isUser",
			"outputs": [
				{
					"internalType": "bool",
					"name": "",
					"type": "bool"
				}
			],
			"stateMutability": "view",
			"type": "function"
		},
		{
			"inputs": [],
			"name": "nonce",
			"outputs": [
				{
					"internalType": "uint256",
					"name": "",
					"type": "uint256"
				}
			],
			"stateMutability": "view",
			"type": "function"
		},
		{
			"inputs": [
				{
					"internalType": "uint256",
					"name": "",
					"type": "uint256"
				}
			],
			"name": "users",
			"outputs": [
				{
					"internalType": "address payable",
					"name": "",
					"type": "address"
				}
			],
			"stateMutability": "view",
			"type": "function"
		},
		{
			"inputs": [
				{
					"internalType": "bytes[2]",
					"name": "_signatures",
					"type": "bytes[2]"
				},
				{
					"internalType": "address",
					"name": "_contract",
					"type": "address"
				},
				{
					"internalType": "address[2]",
					"name": "_signers",
					"type": "address[2]"
				},
				{
					"internalType": "uint256[2]",
					"name": "_balances",
					"type": "uint256[2]"
				},
				{
					"internalType": "uint256",
					"name": "_nonce",
					"type": "uint256"
				}
			],
			"name": "verify",
			"outputs": [
				{
					"internalType": "bool",
					"name": "",
					"type": "bool"
				}
			],
			"stateMutability": "pure",
			"type": "function"
		}
	]
}