{
	"data": {
		"bytecode": {
			"linkReferences": {},
			"object": "60806040523480156200001157600080fd5b50600060405180608001604052806040518060400160405280600c81526020017f616c696365202d3e20626f62000000000000000000000000000000000000000081525081526020016040518060400160405280600b81526020017f626f62202d3e206461766500000000000000000000000000000000000000000081525081526020016040518060400160405280600e81526020017f6361726f6c202d3e20616c69636500000000000000000000000000000000000081525081526020016040518060400160405280600b81526020017f64617665202d3e20626f62000000000000000000000000000000000000000000815250815250905060005b60048110156200019957600082826004811062000130576200012f620002cb565b5b60200201516040516020016200014791906200037d565b60405160208183030381529060405280519060200120908060018154018082558091505060019003906000526020600020016000909190919091505580806200019090620003cf565b9150506200010e565b5060006004905060005b6000821115620002c25760005b600183620001bf91906200041c565b8110156200029a576000808284620001d8919062000457565b81548110620001ec57620001eb620002cb565b5b906000526020600020015460006001848662000209919062000457565b62000215919062000457565b81548110620002295762000228620002cb565b5b906000526020600020015460405160200162000247929190620004e3565b60405160208183030381529060405280519060200120908060018154018082558091505060019003906000526020600020016000909190919091505560028162000292919062000457565b9050620001b0565b508181620002a9919062000457565b9050600282620002ba919062000542565b9150620001a3565b5050506200057a565b7f4e487b7100000000000000000000000000000000000000000000000000000000600052603260045260246000fd5b600081519050919050565b600081905092915050565b60005b838110156200033057808201518184015260208101905062000313565b8381111562000340576000848401525b50505050565b60006200035382620002fa565b6200035f818562000305565b93506200037181856020860162000310565b80840191505092915050565b60006200038b828462000346565b915081905092915050565b7f4e487b7100000000000000000000000000000000000000000000000000000000600052601160045260246000fd5b6000819050919050565b6000620003dc82620003c5565b91507fffffffffffffffffffffffffffffffffffffffffffffffffffffffffffffffff820362000411576200041062000396565b5b600182019050919050565b60006200042982620003c5565b91506200043683620003c5565b9250828210156200044c576200044b62000396565b5b828203905092915050565b60006200046482620003c5565b91506200047183620003c5565b9250827fffffffffffffffffffffffffffffffffffffffffffffffffffffffffffffffff03821115620004a957620004a862000396565b5b828201905092915050565b6000819050919050565b6000819050919050565b620004dd620004d782620004b4565b620004be565b82525050565b6000620004f18285620004c8565b602082019150620005038284620004c8565b6020820191508190509392505050565b7f4e487b7100000000000000000000000000000000000000000000000000000000600052601260045260246000fd5b60006200054f82620003c5565b91506200055c83620003c5565b9250826200056f576200056e62000513565b5b828204905092915050565b6106c8806200058a6000396000f3fe608060405234801561001057600080fd5b50600436106100415760003560e01c806321fb335c14610046578063501895ae146100765780635ca1e165146100a6575b600080fd5b610060600480360381019061005b91906103ca565b6100c4565b60405161006d9190610468565b60405180910390f35b610090600480360381019061008b9190610483565b610197565b60405161009d91906104bf565b60405180910390f35b6100ae6101bb565b6040516100bb91906104bf565b60405180910390f35b60008083905060005b86518110156101885760008782815181106100eb576100ea6104da565b5b6020026020010151905060006002866101049190610538565b0361013957828160405160200161011c92919061058a565b604051602081830303815290604052805190602001209250610165565b808360405160200161014c92919061058a565b6040516020818303038152906040528051906020012092505b60028561017291906105e5565b945050808061018090610616565b9150506100cd565b50848114915050949350505050565b600081815481106101a757600080fd5b906000526020600020016000915090505481565b60008060016000805490506101d0919061065e565b815481106101e1576101e06104da565b5b9060005260206000200154905090565b6000604051905090565b600080fd5b600080fd5b600080fd5b6000601f19601f8301169050919050565b7f4e487b7100000000000000000000000000000000000000000000000000000000600052604160045260246000fd5b6102538261020a565b810181811067ffffffffffffffff821117156102725761027161021b565b5b80604052505050565b60006102856101f1565b9050610291828261024a565b919050565b600067ffffffffffffffff8211156102b1576102b061021b565b5b602082029050602081019050919050565b600080fd5b6000819050919050565b6102da816102c7565b81146102e557600080fd5b50565b6000813590506102f7816102d1565b92915050565b600061031061030b84610296565b61027b565b90508083825260208201905060208402830185811115610333576103326102c2565b5b835b8181101561035c578061034888826102e8565b845260208401935050602081019050610335565b5050509392505050565b600082601f83011261037b5761037a610205565b5b813561038b8482602086016102fd565b91505092915050565b6000819050919050565b6103a781610394565b81146103b257600080fd5b50565b6000813590506103c48161039e565b92915050565b600080600080608085870312156103e4576103e36101fb565b5b600085013567ffffffffffffffff81111561040257610401610200565b5b61040e87828801610366565b945050602061041f878288016102e8565b9350506040610430878288016102e8565b9250506060610441878288016103b5565b91505092959194509250565b60008115159050919050565b6104628161044d565b82525050565b600060208201905061047d6000830184610459565b92915050565b600060208284031215610499576104986101fb565b5b60006104a7848285016103b5565b91505092915050565b6104b9816102c7565b82525050565b60006020820190506104d460008301846104b0565b92915050565b7f4e487b7100000000000000000000000000000000000000000000000000000000600052603260045260246000fd5b7f4e487b7100000000000000000000000000000000000000000000000000000000600052601260045260246000fd5b600061054382610394565b915061054e83610394565b92508261055e5761055d610509565b5b828206905092915050565b6000819050919050565b61058461057f826102c7565b610569565b82525050565b60006105968285610573565b6020820191506105a68284610573565b6020820191508190509392505050565b7f4e487b7100000000000000000000000000000000000000000000000000000000600052601160045260246000fd5b60006105f082610394565b91506105fb83610394565b92508261060b5761060a610509565b5b828204905092915050565b600061062182610394565b91507fffffffffffffffffffffffffffffffffffffffffffffffffffffffffffffffff8203610653576106526105b6565b5b600182019050919050565b600061066982610394565b915061067483610394565b925082821015610687576106866105b6565b5b82820390509291505056fea2646970667358221220cf7c327db7330447c7c71e7929e6fa92147f8a5029a4853b06b719ed65d4dae964736f6c634300080e0033",
			"opcodes": "PUSH1 0x80 PUSH1 0x40 MSTORE CALLVALUE DUP1 ISZERO PUSH3 0x11 JUMPI PUSH1 0x0 DUP1 REVERT JUMPDEST POP PUSH1 0x0 PUSH1 0x40 MLOAD DUP1 PUSH1 0x80 ADD PUSH1 0x40 MSTORE DUP1 PUSH1 0x40 MLOAD DUP1 PUSH1 0x40 ADD PUSH1 0x40 MSTORE DUP1 PUSH1 0xC DUP2 MSTORE PUSH1 0x20 ADD PUSH32 0x616C696365202D3E20626F620000000000000000000000000000000000000000 DUP2 MSTORE POP DUP2 MSTORE PUSH1 0x20 ADD PUSH1 0x40 MLOAD DUP1 PUSH1 0x40 ADD PUSH1 0x40 MSTORE DUP1 PUSH1 0xB DUP2 MSTORE PUSH1 0x20 ADD PUSH32 0x626F62202D3E2064617665000000000000000000000000000000000000000000 DUP2 MSTORE POP DUP2 MSTORE PUSH1 0x20 ADD PUSH1 0x40 MLOAD DUP1 PUSH1 0x40 ADD PUSH1 0x40 MSTORE DUP1 PUSH1 0xE DUP2 MSTORE PUSH1 0x20 ADD PUSH32 0x6361726F6C202D3E20616C696365000000000000000000000000000000000000 DUP2 MSTORE POP DUP2 MSTORE PUSH1 0x20 ADD PUSH1 0x40 MLOAD DUP1 PUSH1 0x40 ADD PUSH1 0x40 MSTORE DUP1 PUSH1 0xB DUP2 MSTORE PUSH1 0x20 ADD PUSH32 0x64617665202D3E20626F62000000000000000000000000000000000000000000 DUP2 MSTORE POP DUP2 MSTORE POP SWAP1 POP PUSH1 0x0 JUMPDEST PUSH1 0x4 DUP2 LT ISZERO PUSH3 0x199 JUMPI PUSH1 0x0 DUP3 DUP3 PUSH1 0x4 DUP2 LT PUSH3 0x130 JUMPI PUSH3 0x12F PUSH3 0x2CB JUMP JUMPDEST JUMPDEST PUSH1 0x20 MUL ADD MLOAD PUSH1 0x40 MLOAD PUSH1 0x20 ADD PUSH3 0x147 SWAP2 SWAP1 PUSH3 0x37D JUMP JUMPDEST PUSH1 0x40 MLOAD PUSH1 0x20 DUP2 DUP4 SUB SUB DUP2 MSTORE SWAP1 PUSH1 0x40 MSTORE DUP1 MLOAD SWAP1 PUSH1 0x20 ADD KECCAK256 SWAP1 DUP1 PUSH1 0x1 DUP2 SLOAD ADD DUP1 DUP3 SSTORE DUP1 SWAP2 POP POP PUSH1 0x1 SWAP1 SUB SWAP1 PUSH1 0x0 MSTORE PUSH1 0x20 PUSH1 0x0 KECCAK256 ADD PUSH1 0x0 SWAP1 SWAP2 SWAP1 SWAP2 SWAP1 SWAP2 POP SSTORE DUP1 DUP1 PUSH3 0x190 SWAP1 PUSH3 0x3CF JUMP JUMPDEST SWAP2 POP POP PUSH3 0x10E JUMP JUMPDEST POP PUSH1 0x0 PUSH1 0x4 SWAP1 POP PUSH1 0x0 JUMPDEST PUSH1 0x0 DUP3 GT ISZERO PUSH3 0x2C2 JUMPI PUSH1 0x0 JUMPDEST PUSH1 0x1 DUP4 PUSH3 0x1BF SWAP2 SWAP1 PUSH3 0x41C JUMP JUMPDEST DUP2 LT ISZERO PUSH3 0x29A JUMPI PUSH1 0x0 DUP1 DUP3 DUP5 PUSH3 0x1D8 SWAP2 SWAP1 PUSH3 0x457 JUMP JUMPDEST DUP2 SLOAD DUP2 LT PUSH3 0x1EC JUMPI PUSH3 0x1EB PUSH3 0x2CB JUMP JUMPDEST JUMPDEST SWAP1 PUSH1 0x0 MSTORE PUSH1 0x20 PUSH1 0x0 KECCAK256 ADD SLOAD PUSH1 0x0 PUSH1 0x1 DUP5 DUP7 PUSH3 0x209 SWAP2 SWAP1 PUSH3 0x457 JUMP JUMPDEST PUSH3 0x215 SWAP2 SWAP1 PUSH3 0x457 JUMP JUMPDEST DUP2 SLOAD DUP2 LT PUSH3 0x229 JUMPI PUSH3 0x228 PUSH3 0x2CB JUMP JUMPDEST JUMPDEST SWAP1 PUSH1 0x0 MSTORE PUSH1 0x20 PUSH1 0x0 KECCAK256 ADD SLOAD PUSH1 0x40 MLOAD PUSH1 0x20 ADD PUSH3 0x247 SWAP3 SWAP2 SWAP1 PUSH3 0x4E3 JUMP JUMPDEST PUSH1 0x40 MLOAD PUSH1 0x20 DUP2 DUP4 SUB SUB DUP2 MSTORE SWAP1 PUSH1 0x40 MSTORE DUP1 MLOAD SWAP1 PUSH1 0x20 ADD KECCAK256 SWAP1 DUP1 PUSH1 0x1 DUP2 SLOAD ADD DUP1 DUP3 SSTORE DUP1 SWAP2 POP POP PUSH1 0x1 SWAP1 SUB SWAP1 PUSH1 0x0 MSTORE PUSH1 0x20 PUSH1 0x0 KECCAK256 ADD PUSH1 0x0 SWAP1 SWAP2 SWAP1 SWAP2 SWAP1 SWAP2 POP SSTORE PUSH1 0x2 DUP2 PUSH3 0x292 SWAP2 SWAP1 PUSH3 0x457 JUMP JUMPDEST SWAP1 POP PUSH3 0x1B0 JUMP JUMPDEST POP DUP2 DUP2 PUSH3 0x2A9 SWAP2 SWAP1 PUSH3 0x457 JUMP JUMPDEST SWAP1 POP PUSH1 0x2 DUP3 PUSH3 0x2BA SWAP2 SWAP1 PUSH3 0x542 JUMP JUMPDEST SWAP2 POP PUSH3 0x1A3 JUMP JUMPDEST POP POP POP PUSH3 0x57A JUMP JUMPDEST PUSH32 0x4E487B7100000000000000000000000000000000000000000000000000000000 PUSH1 0x0 MSTORE PUSH1 0x32 PUSH1 0x4 MSTORE PUSH1 0x24 PUSH1 0x0 REVERT JUMPDEST PUSH1 0x0 DUP2 MLOAD SWAP1 POP SWAP2 SWAP1 POP JUMP JUMPDEST PUSH1 0x0 DUP2 SWAP1 POP SWAP3 SWAP2 POP POP JUMP JUMPDEST PUSH1 0x0 JUMPDEST DUP4 DUP2 LT ISZERO PUSH3 0x330 JUMPI DUP1 DUP3 ADD MLOAD DUP2 DUP5 ADD MSTORE PUSH1 0x20 DUP2 ADD SWAP1 POP PUSH3 0x313 JUMP JUMPDEST DUP4 DUP2 GT ISZERO PUSH3 0x340 JUMPI PUSH1 0x0 DUP5 DUP5 ADD MSTORE JUMPDEST POP POP POP POP JUMP JUMPDEST PUSH1 0x0 PUSH3 0x353 DUP3 PUSH3 0x2FA JUMP JUMPDEST PUSH3 0x35F DUP2 DUP6 PUSH3 0x305 JUMP JUMPDEST SWAP4 POP PUSH3 0x371 DUP2 DUP6 PUSH1 0x20 DUP7 ADD PUSH3 0x310 JUMP JUMPDEST DUP1 DUP5 ADD SWAP2 POP POP SWAP3 SWAP2 POP POP JUMP JUMPDEST PUSH1 0x0 PUSH3 0x38B DUP3 DUP5 PUSH3 0x346 JUMP JUMPDEST SWAP2 POP DUP2 SWAP1 POP SWAP3 SWAP2 POP POP JUMP JUMPDEST PUSH32 0x4E487B7100000000000000000000000000000000000000000000000000000000 PUSH1 0x0 MSTORE PUSH1 0x11 PUSH1 0x4 MSTORE PUSH1 0x24 PUSH1 0x0 REVERT JUMPDEST PUSH1 0x0 DUP2 SWAP1 POP SWAP2 SWAP1 POP JUMP JUMPDEST PUSH1 0x0 PUSH3 0x3DC DUP3 PUSH3 0x3C5 JUMP JUMPDEST SWAP2 POP PUSH32 0xFFFFFFFFFFFFFFFFFFFFFFFFFFFFFFFFFFFFFFFFFFFFFFFFFFFFFFFFFFFFFFFF DUP3 SUB PUSH3 0x411 JUMPI PUSH3 0x410 PUSH3 0x396 JUMP JUMPDEST JUMPDEST PUSH1 0x1 DUP3 ADD SWAP1 POP SWAP2 SWAP1 POP JUMP JUMPDEST PUSH1 0x0 PUSH3 0x429 DUP3 PUSH3 0x3C5 JUMP JUMPDEST SWAP2 POP PUSH3 0x436 DUP4 PUSH3 0x3C5 JUMP JUMPDEST SWAP3 POP DUP3 DUP3 LT ISZERO PUSH3 0x44C JUMPI PUSH3 0x44B PUSH3 0x396 JUMP JUMPDEST JUMPDEST DUP3 DUP3 SUB SWAP1 POP SWAP3 SWAP2 POP POP JUMP JUMPDEST PUSH1 0x0 PUSH3 0x464 DUP3 PUSH3 0x3C5 JUMP JUMPDEST SWAP2 POP PUSH3 0x471 DUP4 PUSH3 0x3C5 JUMP JUMPDEST SWAP3 POP DUP3 PUSH32 0xFFFFFFFFFFFFFFFFFFFFFFFFFFFFFFFFFFFFFFFFFFFFFFFFFFFFFFFFFFFFFFFF SUB DUP3 GT ISZERO PUSH3 0x4A9 JUMPI PUSH3 0x4A8 PUSH3 0x396 JUMP JUMPDEST JUMPDEST DUP3 DUP3 ADD SWAP1 POP SWAP3 SWAP2 POP POP JUMP JUMPDEST PUSH1 0x0 DUP2 SWAP1 POP SWAP2 SWAP1 POP JUMP JUMPDEST PUSH1 0x0 DUP2 SWAP1 POP SWAP2 SWAP1 POP JUMP JUMPDEST PUSH3 0x4DD PUSH3 0x4D7 DUP3 PUSH3 0x4B4 JUMP JUMPDEST PUSH3 0x4BE JUMP JUMPDEST DUP3 MSTORE POP POP JUMP JUMPDEST PUSH1 0x0 PUSH3 0x4F1 DUP3 DUP6 PUSH3 0x4C8 JUMP JUMPDEST PUSH1 0x20 DUP3 ADD SWAP2 POP PUSH3 0x503 DUP3 DUP5 PUSH3 0x4C8 JUMP JUMPDEST PUSH1 0x20 DUP3 ADD SWAP2 POP DUP2 SWAP1 POP SWAP4 SWAP3 POP POP POP JUMP JUMPDEST PUSH32 0x4E487B7100000000000000000000000000000000000000000000000000000000 PUSH1 0x0 MSTORE PUSH1 0x12 PUSH1 0x4 MSTORE PUSH1 0x24 PUSH1 0x0 REVERT JUMPDEST PUSH1 0x0 PUSH3 0x54F DUP3 PUSH3 0x3C5 JUMP JUMPDEST SWAP2 POP PUSH3 0x55C DUP4 PUSH3 0x3C5 JUMP JUMPDEST SWAP3 POP DUP3 PUSH3 0x56F JUMPI PUSH3 0x56E PUSH3 0x513 JUMP JUMPDEST JUMPDEST DUP3 DUP3 DIV SWAP1 POP SWAP3 SWAP2 POP POP JUMP JUMPDEST PUSH2 0x6C8 DUP1 PUSH3 0x58A PUSH1 0x0 CODECOPY PUSH1 0x0 RETURN INVALID PUSH1 0x80 PUSH1 0x40 MSTORE CALLVALUE DUP1 ISZERO PUSH2 0x10 JUMPI PUSH1 0x0 DUP1 REVERT JUMPDEST POP PUSH1 0x4 CALLDATASIZE LT PUSH2 0x41 JUMPI PUSH1 0x0 CALLDATALOAD PUSH1 0xE0 SHR DUP1 PUSH4 0x21FB335C EQ PUSH2 0x46 JUMPI DUP1 PUSH4 0x501895AE EQ PUSH2 0x76 JUMPI DUP1 PUSH4 0x5CA1E165 EQ PUSH2 0xA6 JUMPI JUMPDEST PUSH1 0x0 DUP1 REVERT JUMPDEST PUSH2 0x60 PUSH1 0x4 DUP1 CALLDATASIZE SUB DUP2 ADD SWAP1 PUSH2 0x5B SWAP2 SWAP1 PUSH2 0x3CA JUMP JUMPDEST PUSH2 0xC4 JUMP JUMPDEST PUSH1 0x40 MLOAD PUSH2 0x6D SWAP2 SWAP1 PUSH2 0x468 JUMP JUMPDEST PUSH1 0x40 MLOAD DUP1 SWAP2 SUB SWAP1 RETURN JUMPDEST PUSH2 0x90 PUSH1 0x4 DUP1 CALLDATASIZE SUB DUP2 ADD SWAP1 PUSH2 0x8B SWAP2 SWAP1 PUSH2 0x483 JUMP JUMPDEST PUSH2 0x197 JUMP JUMPDEST PUSH1 0x40 MLOAD PUSH2 0x9D SWAP2 SWAP1 PUSH2 0x4BF JUMP JUMPDEST PUSH1 0x40 MLOAD DUP1 SWAP2 SUB SWAP1 RETURN JUMPDEST PUSH2 0xAE PUSH2 0x1BB JUMP JUMPDEST PUSH1 0x40 MLOAD PUSH2 0xBB SWAP2 SWAP1 PUSH2 0x4BF JUMP JUMPDEST PUSH1 0x40 MLOAD DUP1 SWAP2 SUB SWAP1 RETURN JUMPDEST PUSH1 0x0 DUP1 DUP4 SWAP1 POP PUSH1 0x0 JUMPDEST DUP7 MLOAD DUP2 LT ISZERO PUSH2 0x188 JUMPI PUSH1 0x0 DUP8 DUP3 DUP2 MLOAD DUP2 LT PUSH2 0xEB JUMPI PUSH2 0xEA PUSH2 0x4DA JUMP JUMPDEST JUMPDEST PUSH1 0x20 MUL PUSH1 0x20 ADD ADD MLOAD SWAP1 POP PUSH1 0x0 PUSH1 0x2 DUP7 PUSH2 0x104 SWAP2 SWAP1 PUSH2 0x538 JUMP JUMPDEST SUB PUSH2 0x139 JUMPI DUP3 DUP2 PUSH1 0x40 MLOAD PUSH1 0x20 ADD PUSH2 0x11C SWAP3 SWAP2 SWAP1 PUSH2 0x58A JUMP JUMPDEST PUSH1 0x40 MLOAD PUSH1 0x20 DUP2 DUP4 SUB SUB DUP2 MSTORE SWAP1 PUSH1 0x40 MSTORE DUP1 MLOAD SWAP1 PUSH1 0x20 ADD KECCAK256 SWAP3 POP PUSH2 0x165 JUMP JUMPDEST DUP1 DUP4 PUSH1 0x40 MLOAD PUSH1 0x20 ADD PUSH2 0x14C SWAP3 SWAP2 SWAP1 PUSH2 0x58A JUMP JUMPDEST PUSH1 0x40 MLOAD PUSH1 0x20 DUP2 DUP4 SUB SUB DUP2 MSTORE SWAP1 PUSH1 0x40 MSTORE DUP1 MLOAD SWAP1 PUSH1 0x20 ADD KECCAK256 SWAP3 POP JUMPDEST PUSH1 0x2 DUP6 PUSH2 0x172 SWAP2 SWAP1 PUSH2 0x5E5 JUMP JUMPDEST SWAP5 POP POP DUP1 DUP1 PUSH2 0x180 SWAP1 PUSH2 0x616 JUMP JUMPDEST SWAP2 POP POP PUSH2 0xCD JUMP JUMPDEST POP DUP5 DUP2 EQ SWAP2 POP POP SWAP5 SWAP4 POP POP POP POP JUMP JUMPDEST PUSH1 0x0 DUP2 DUP2 SLOAD DUP2 LT PUSH2 0x1A7 JUMPI PUSH1 0x0 DUP1 REVERT JUMPDEST SWAP1 PUSH1 0x0 MSTORE PUSH1 0x20 PUSH1 0x0 KECCAK256 ADD PUSH1 0x0 SWAP2 POP SWAP1 POP SLOAD DUP2 JUMP JUMPDEST PUSH1 0x0 DUP1 PUSH1 0x1 PUSH1 0x0 DUP1 SLOAD SWAP1 POP PUSH2 0x1D0 SWAP2 SWAP1 PUSH2 0x65E JUMP JUMPDEST DUP2 SLOAD DUP2 LT PUSH2 0x1E1 JUMPI PUSH2 0x1E0 PUSH2 0x4DA JUMP JUMPDEST JUMPDEST SWAP1 PUSH1 0x0 MSTORE PUSH1 0x20 PUSH1 0x0 KECCAK256 ADD SLOAD SWAP1 POP SWAP1 JUMP JUMPDEST PUSH1 0x0 PUSH1 0x40 MLOAD SWAP1 POP SWAP1 JUMP JUMPDEST PUSH1 0x0 DUP1 REVERT JUMPDEST PUSH1 0x0 DUP1 REVERT JUMPDEST PUSH1 0x0 DUP1 REVERT JUMPDEST PUSH1 0x0 PUSH1 0x1F NOT PUSH1 0x1F DUP4 ADD AND SWAP1 POP SWAP2 SWAP1 POP JUMP JUMPDEST PUSH32 0x4E487B7100000000000000000000000000000000000000000000000000000000 PUSH1 0x0 MSTORE PUSH1 0x41 PUSH1 0x4 MSTORE PUSH1 0x24 PUSH1 0x0 REVERT JUMPDEST PUSH2 0x253 DUP3 PUSH2 0x20A JUMP JUMPDEST DUP2 ADD DUP2 DUP2 LT PUSH8 0xFFFFFFFFFFFFFFFF DUP3 GT OR ISZERO PUSH2 0x272 JUMPI PUSH2 0x271 PUSH2 0x21B JUMP JUMPDEST JUMPDEST DUP1 PUSH1 0x40 MSTORE POP POP POP JUMP JUMPDEST PUSH1 0x0 PUSH2 0x285 PUSH2 0x1F1 JUMP JUMPDEST SWAP1 POP PUSH2 0x291 DUP3 DUP3 PUSH2 0x24A JUMP JUMPDEST SWAP2 SWAP1 POP JUMP JUMPDEST PUSH1 0x0 PUSH8 0xFFFFFFFFFFFFFFFF DUP3 GT ISZERO PUSH2 0x2B1 JUMPI PUSH2 0x2B0 PUSH2 0x21B JUMP JUMPDEST JUMPDEST PUSH1 0x20 DUP3 MUL SWAP1 POP PUSH1 0x20 DUP2 ADD SWAP1 POP SWAP2 SWAP1 POP JUMP JUMPDEST PUSH1 0x0 DUP1 REVERT JUMPDEST PUSH1 0x0 DUP2 SWAP1 POP SWAP2 SWAP1 POP JUMP JUMPDEST PUSH2 0x2DA DUP2 PUSH2 0x2C7 JUMP JUMPDEST DUP2 EQ PUSH2 0x2E5 JUMPI PUSH1 0x0 DUP1 REVERT JUMPDEST POP JUMP JUMPDEST PUSH1 0x0 DUP2 CALLDATALOAD SWAP1 POP PUSH2 0x2F7 DUP2 PUSH2 0x2D1 JUMP JUMPDEST SWAP3 SWAP2 POP POP JUMP JUMPDEST PUSH1 0x0 PUSH2 0x310 PUSH2 0x30B DUP5 PUSH2 0x296 JUMP JUMPDEST PUSH2 0x27B JUMP JUMPDEST SWAP1 POP DUP1 DUP4 DUP3 MSTORE PUSH1 0x20 DUP3 ADD SWAP1 POP PUSH1 0x20 DUP5 MUL DUP4 ADD DUP6 DUP2 GT ISZERO PUSH2 0x333 JUMPI PUSH2 0x332 PUSH2 0x2C2 JUMP JUMPDEST JUMPDEST DUP4 JUMPDEST DUP2 DUP2 LT ISZERO PUSH2 0x35C JUMPI DUP1 PUSH2 0x348 DUP9 DUP3 PUSH2 0x2E8 JUMP JUMPDEST DUP5 MSTORE PUSH1 0x20 DUP5 ADD SWAP4 POP POP PUSH1 0x20 DUP2 ADD SWAP1 POP PUSH2 0x335 JUMP JUMPDEST POP POP POP SWAP4 SWAP3 POP POP POP JUMP JUMPDEST PUSH1 0x0 DUP3 PUSH1 0x1F DUP4 ADD SLT PUSH2 0x37B JUMPI PUSH2 0x37A PUSH2 0x205 JUMP JUMPDEST JUMPDEST DUP2 CALLDATALOAD PUSH2 0x38B DUP5 DUP3 PUSH1 0x20 DUP7 ADD PUSH2 0x2FD JUMP JUMPDEST SWAP2 POP POP SWAP3 SWAP2 POP POP JUMP JUMPDEST PUSH1 0x0 DUP2 SWAP1 POP SWAP2 SWAP1 POP JUMP JUMPDEST PUSH2 0x3A7 DUP2 PUSH2 0x394 JUMP JUMPDEST DUP2 EQ PUSH2 0x3B2 JUMPI PUSH1 0x0 DUP1 REVERT JUMPDEST POP JUMP JUMPDEST PUSH1 0x0 DUP2 CALLDATALOAD SWAP1 POP PUSH2 0x3C4 DUP2 PUSH2 0x39E JUMP JUMPDEST SWAP3 SWAP2 POP POP JUMP JUMPDEST PUSH1 0x0 DUP1 PUSH1 0x0 DUP1 PUSH1 0x80 DUP6 DUP8 SUB SLT ISZERO PUSH2 0x3E4 JUMPI PUSH2 0x3E3 PUSH2 0x1FB JUMP JUMPDEST JUMPDEST PUSH1 0x0 DUP6 ADD CALLDATALOAD PUSH8 0xFFFFFFFFFFFFFFFF DUP2 GT ISZERO PUSH2 0x402 JUMPI PUSH2 0x401 PUSH2 0x200 JUMP JUMPDEST JUMPDEST PUSH2 0x40E DUP8 DUP3 DUP9 ADD PUSH2 0x366 JUMP JUMPDEST SWAP5 POP POP PUSH1 0x20 PUSH2 0x41F DUP8 DUP3 DUP9 ADD PUSH2 0x2E8 JUMP JUMPDEST SWAP4 POP POP PUSH1 0x40 PUSH2 0x430 DUP8 DUP3 DUP9 ADD PUSH2 0x2E8 JUMP JUMPDEST SWAP3 POP POP PUSH1 0x60 PUSH2 0x441 DUP8 DUP3 DUP9 ADD PUSH2 0x3B5 JUMP JUMPDEST SWAP2 POP POP SWAP3 SWAP6 SWAP2 SWAP5 POP SWAP3 POP JUMP JUMPDEST PUSH1 0x0 DUP2 ISZERO ISZERO SWAP1 POP SWAP2 SWAP1 POP JUMP JUMPDEST PUSH2 0x462 DUP2 PUSH2 0x44D JUMP JUMPDEST DUP3 MSTORE POP POP JUMP JUMPDEST PUSH1 0x0 PUSH1 0x20 DUP3 ADD SWAP1 POP PUSH2 0x47D PUSH1 0x0 DUP4 ADD DUP5 PUSH2 0x459 JUMP JUMPDEST SWAP3 SWAP2 POP POP JUMP JUMPDEST PUSH1 0x0 PUSH1 0x20 DUP3 DUP5 SUB SLT ISZERO PUSH2 0x499 JUMPI PUSH2 0x498 PUSH2 0x1FB JUMP JUMPDEST JUMPDEST PUSH1 0x0 PUSH2 0x4A7 DUP5 DUP3 DUP6 ADD PUSH2 0x3B5 JUMP JUMPDEST SWAP2 POP POP SWAP3 SWAP2 POP POP JUMP JUMPDEST PUSH2 0x4B9 DUP2 PUSH2 0x2C7 JUMP JUMPDEST DUP3 MSTORE POP POP JUMP JUMPDEST PUSH1 0x0 PUSH1 0x20 DUP3 ADD SWAP1 POP PUSH2 0x4D4 PUSH1 0x0 DUP4 ADD DUP5 PUSH2 0x4B0 JUMP JUMPDEST SWAP3 SWAP2 POP POP JUMP JUMPDEST PUSH32 0x4E487B7100000000000000000000000000000000000000000000000000000000 PUSH1 0x0 MSTORE PUSH1 0x32 PUSH1 0x4 MSTORE PUSH1 0x24 PUSH1 0x0 REVERT JUMPDEST PUSH32 0x4E487B7100000000000000000000000000000000000000000000000000000000 PUSH1 0x0 MSTORE PUSH1 0x12 PUSH1 0x4 MSTORE PUSH1 0x24 PUSH1 0x0 REVERT JUMPDEST PUSH1 0x0 PUSH2 0x543 DUP3 PUSH2 0x394 JUMP JUMPDEST SWAP2 POP PUSH2 0x54E DUP4 PUSH2 0x394 JUMP JUMPDEST SWAP3 POP DUP3 PUSH2 0x55E JUMPI PUSH2 0x55D PUSH2 0x509 JUMP JUMPDEST JUMPDEST DUP3 DUP3 MOD SWAP1 POP SWAP3 SWAP2 POP POP JUMP JUMPDEST PUSH1 0x0 DUP2 SWAP1 POP SWAP2 SWAP1 POP JUMP JUMPDEST PUSH2 0x584 PUSH2 0x57F DUP3 PUSH2 0x2C7 JUMP JUMPDEST PUSH2 0x569 JUMP JUMPDEST DUP3 MSTORE POP POP JUMP JUMPDEST PUSH1 0x0 PUSH2 0x596 DUP3 DUP6 PUSH2 0x573 JUMP JUMPDEST PUSH1 0x20 DUP3 ADD SWAP2 POP PUSH2 0x5A6 DUP3 DUP5 PUSH2 0x573 JUMP JUMPDEST PUSH1 0x20 DUP3 ADD SWAP2 POP DUP2 SWAP1 POP SWAP4 SWAP3 POP POP POP JUMP JUMPDEST PUSH32 0x4E487B7100000000000000000000000000000000000000000000000000000000 PUSH1 0x0 MSTORE PUSH1 0x11 PUSH1 0x4 MSTORE PUSH1 0x24 PUSH1 0x0 REVERT JUMPDEST PUSH1 0x0 PUSH2 0x5F0 DUP3 PUSH2 0x394 JUMP JUMPDEST SWAP2 POP PUSH2 0x5FB DUP4 PUSH2 0x394 JUMP JUMPDEST SWAP3 POP DUP3 PUSH2 0x60B JUMPI PUSH2 0x60A PUSH2 0x509 JUMP JUMPDEST JUMPDEST DUP3 DUP3 DIV SWAP1 POP SWAP3 SWAP2 POP POP JUMP JUMPDEST PUSH1 0x0 PUSH2 0x621 DUP3 PUSH2 0x394 JUMP JUMPDEST SWAP2 POP PUSH32 0xFFFFFFFFFFFFFFFFFFFFFFFFFFFFFFFFFFFFFFFFFFFFFFFFFFFFFFFFFFFFFFFF DUP3 SUB PUSH2 0x653 JUMPI PUSH2 0x652 PUSH2 0x5B6 JUMP JUMPDEST JUMPDEST PUSH1 0x1 DUP3 ADD SWAP1 POP SWAP2 SWAP1 POP JUMP JUMPDEST PUSH1 0x0 PUSH2 0x669 DUP3 PUSH2 0x394 JUMP JUMPDEST SWAP2 POP PUSH2 0x674 DUP4 PUSH2 0x394 JUMP JUMPDEST SWAP3 POP DUP3 DUP3 LT ISZERO PUSH2 0x687 JUMPI PUSH2 0x686 PUSH2 0x5B6 JUMP JUMPDEST JUMPDEST DUP3 DUP3 SUB SWAP1 POP SWAP3 SWAP2 POP POP JUMP INVALID LOG2 PUSH5 0x6970667358 0x22 SLT KECCAK256 0xCF PUSH29 0x327DB7330447C7C71E7929E6FA92147F8A5029A4853B06B719ED65D4DA 0xE9 PUSH5 0x736F6C6343 STOP ADDMOD 0xE STOP CALLER "
		},
		"gasEstimates": {
			"creation": {
				"codeDepositCost": "347200",
				"executionCost": "infinite",
				"totalCost": "infinite"
			},
			"external": {
				"getRoot()": "infinite",
				"hashes(uint256)": "4882",
				"verify(bytes32[],bytes32,bytes32,uint256)": "infinite"
			}
		},
		"methodIdentifiers": {
			"getRoot()": "5ca1e165",
			"hashes(uint256)": "501895ae",
			"verify(bytes32[],bytes32,bytes32,uint256)": "21fb335c"
		}
	},
	"abi": [
		{
			"inputs": [],
			"stateMutability": "nonpayable",
			"type": "constructor"
		},
		{
			"inputs": [],
			"name": "getRoot",
			"outputs": [
				{
					"internalType": "bytes32",
					"name": "",
					"type": "bytes32"
				}
			],
			"stateMutability": "view",
			"type": "function"
		},
		{
			"inputs": [
				{
					"internalType": "uint256",
					"name": "",
					"type": "uint256"
				}
			],
			"name": "hashes",
			"outputs": [
				{
					"internalType": "bytes32",
					"name": "",
					"type": "bytes32"
				}
			],
			"stateMutability": "view",
			"type": "function"
		},
		{
			"inputs": [
				{
					"internalType": "bytes32[]",
					"name": "proof",
					"type": "bytes32[]"
				},
				{
					"internalType": "bytes32",
					"name": "root",
					"type": "bytes32"
				},
				{
					"internalType": "bytes32",
					"name": "leaf",
					"type": "bytes32"
				},
				{
					"internalType": "uint256",
					"name": "index",
					"type": "uint256"
				}
			],
			"name": "verify",
			"outputs": [
				{
					"internalType": "bool",
					"name": "",
					"type": "bool"
				}
			],
			"stateMutability": "pure",
			"type": "function"
		}
	]
}