{
	"solidity-study-demo/firstPart/Counter.sol": {
		"Counter": {
			"abi": [
				{
					"inputs": [],
					"name": "count",
					"outputs": [
						{
							"internalType": "uint256",
							"name": "",
							"type": "uint256"
						}
					],
					"stateMutability": "view",
					"type": "function"
				},
				{
					"inputs": [],
					"name": "dec",
					"outputs": [],
					"stateMutability": "nonpayable",
					"type": "function"
				},
				{
					"inputs": [],
					"name": "get",
					"outputs": [
						{
							"internalType": "uint256",
							"name": "",
							"type": "uint256"
						}
					],
					"stateMutability": "view",
					"type": "function"
				},
				{
					"inputs": [],
					"name": "inc",
					"outputs": [],
					"stateMutability": "nonpayable",
					"type": "function"
				}
			],
			"devdoc": {
				"kind": "dev",
				"methods": {},
				"version": 1
			},
			"evm": {
				"assembly": "    /* \"solidity-study-demo/firstPart/Counter.sol\":28:272  contract Counter {... */\n  mstore(0x40, 0x80)\n  callvalue\n  dup1\n  iszero\n  tag_1\n  jumpi\n  0x00\n  dup1\n  revert\ntag_1:\n  pop\n  dataSize(sub_0)\n  dup1\n  dataOffset(sub_0)\n  0x00\n  codecopy\n  0x00\n  return\nstop\n\nsub_0: assembly {\n        /* \"solidity-study-demo/firstPart/Counter.sol\":28:272  contract Counter {... */\n      mstore(0x40, 0x80)\n      callvalue\n      dup1\n      iszero\n      tag_1\n      jumpi\n      0x00\n      dup1\n      revert\n    tag_1:\n      pop\n      jumpi(tag_2, lt(calldatasize, 0x04))\n      shr(0xe0, calldataload(0x00))\n      dup1\n      0x06661abd\n      eq\n      tag_3\n      jumpi\n      dup1\n      0x371303c0\n      eq\n      tag_4\n      jumpi\n      dup1\n      0x6d4ce63c\n      eq\n      tag_5\n      jumpi\n      dup1\n      0xb3bcfa82\n      eq\n      tag_6\n      jumpi\n    tag_2:\n      0x00\n      dup1\n      revert\n        /* \"solidity-study-demo/firstPart/Counter.sol\":52:69  uint public count */\n    tag_3:\n      tag_7\n      tag_8\n      jump\t// in\n    tag_7:\n      mload(0x40)\n      tag_9\n      swap2\n      swap1\n      tag_10\n      jump\t// in\n    tag_9:\n      mload(0x40)\n      dup1\n      swap2\n      sub\n      swap1\n      return\n        /* \"solidity-study-demo/firstPart/Counter.sol\":159:210  function inc() public {... */\n    tag_4:\n      tag_11\n      tag_12\n      jump\t// in\n    tag_11:\n      stop\n        /* \"solidity-study-demo/firstPart/Counter.sol\":78:151  function get() public view returns (uint) {... */\n    tag_5:\n      tag_13\n      tag_14\n      jump\t// in\n    tag_13:\n      mload(0x40)\n      tag_15\n      swap2\n      swap1\n      tag_10\n      jump\t// in\n    tag_15:\n      mload(0x40)\n      dup1\n      swap2\n      sub\n      swap1\n      return\n        /* \"solidity-study-demo/firstPart/Counter.sol\":218:269  function dec() public {... */\n    tag_6:\n      tag_16\n      tag_17\n      jump\t// in\n    tag_16:\n      stop\n        /* \"solidity-study-demo/firstPart/Counter.sol\":52:69  uint public count */\n    tag_8:\n      sload(0x00)\n      dup2\n      jump\t// out\n        /* \"solidity-study-demo/firstPart/Counter.sol\":159:210  function inc() public {... */\n    tag_12:\n        /* \"solidity-study-demo/firstPart/Counter.sol\":201:202  1 */\n      0x01\n        /* \"solidity-study-demo/firstPart/Counter.sol\":192:197  count */\n      0x00\n      dup1\n        /* \"solidity-study-demo/firstPart/Counter.sol\":192:202  count += 1 */\n      dup3\n      dup3\n      sload\n      tag_19\n      swap2\n      swap1\n      tag_20\n      jump\t// in\n    tag_19:\n      swap3\n      pop\n      pop\n      dup2\n      swap1\n      sstore\n      pop\n        /* \"solidity-study-demo/firstPart/Counter.sol\":159:210  function inc() public {... */\n      jump\t// out\n        /* \"solidity-study-demo/firstPart/Counter.sol\":78:151  function get() public view returns (uint) {... */\n    tag_14:\n        /* \"solidity-study-demo/firstPart/Counter.sol\":114:118  uint */\n      0x00\n        /* \"solidity-study-demo/firstPart/Counter.sol\":138:143  count */\n      dup1\n      sload\n        /* \"solidity-study-demo/firstPart/Counter.sol\":131:143  return count */\n      swap1\n      pop\n        /* \"solidity-study-demo/firstPart/Counter.sol\":78:151  function get() public view returns (uint) {... */\n      swap1\n      jump\t// out\n        /* \"solidity-study-demo/firstPart/Counter.sol\":218:269  function dec() public {... */\n    tag_17:\n        /* \"solidity-study-demo/firstPart/Counter.sol\":260:261  1 */\n      0x01\n        /* \"solidity-study-demo/firstPart/Counter.sol\":251:256  count */\n      0x00\n      dup1\n        /* \"solidity-study-demo/firstPart/Counter.sol\":251:261  count -= 1 */\n      dup3\n      dup3\n      sload\n      tag_23\n      swap2\n      swap1\n      tag_24\n      jump\t// in\n    tag_23:\n      swap3\n      pop\n      pop\n      dup2\n      swap1\n      sstore\n      pop\n        /* \"solidity-study-demo/firstPart/Counter.sol\":218:269  function dec() public {... */\n      jump\t// out\n        /* \"#utility.yul\":7:84   */\n    tag_25:\n        /* \"#utility.yul\":44:51   */\n      0x00\n        /* \"#utility.yul\":73:78   */\n      dup2\n        /* \"#utility.yul\":62:78   */\n      swap1\n      pop\n        /* \"#utility.yul\":7:84   */\n      swap2\n      swap1\n      pop\n      jump\t// out\n        /* \"#utility.yul\":90:208   */\n    tag_26:\n        /* \"#utility.yul\":177:201   */\n      tag_31\n        /* \"#utility.yul\":195:200   */\n      dup2\n        /* \"#utility.yul\":177:201   */\n      tag_25\n      jump\t// in\n    tag_31:\n        /* \"#utility.yul\":172:175   */\n      dup3\n        /* \"#utility.yul\":165:202   */\n      mstore\n        /* \"#utility.yul\":90:208   */\n      pop\n      pop\n      jump\t// out\n        /* \"#utility.yul\":214:436   */\n    tag_10:\n        /* \"#utility.yul\":307:311   */\n      0x00\n        /* \"#utility.yul\":345:347   */\n      0x20\n        /* \"#utility.yul\":334:343   */\n      dup3\n        /* \"#utility.yul\":330:348   */\n      add\n        /* \"#utility.yul\":322:348   */\n      swap1\n      pop\n        /* \"#utility.yul\":358:429   */\n      tag_33\n        /* \"#utility.yul\":426:427   */\n      0x00\n        /* \"#utility.yul\":415:424   */\n      dup4\n        /* \"#utility.yul\":411:428   */\n      add\n        /* \"#utility.yul\":402:408   */\n      dup5\n        /* \"#utility.yul\":358:429   */\n      tag_26\n      jump\t// in\n    tag_33:\n        /* \"#utility.yul\":214:436   */\n      swap3\n      swap2\n      pop\n      pop\n      jump\t// out\n        /* \"#utility.yul\":442:622   */\n    tag_27:\n        /* \"#utility.yul\":490:567   */\n      0x4e487b7100000000000000000000000000000000000000000000000000000000\n        /* \"#utility.yul\":487:488   */\n      0x00\n        /* \"#utility.yul\":480:568   */\n      mstore\n        /* \"#utility.yul\":587:591   */\n      0x11\n        /* \"#utility.yul\":584:585   */\n      0x04\n        /* \"#utility.yul\":577:592   */\n      mstore\n        /* \"#utility.yul\":611:615   */\n      0x24\n        /* \"#utility.yul\":608:609   */\n      0x00\n        /* \"#utility.yul\":601:616   */\n      revert\n        /* \"#utility.yul\":628:933   */\n    tag_20:\n        /* \"#utility.yul\":668:671   */\n      0x00\n        /* \"#utility.yul\":687:707   */\n      tag_36\n        /* \"#utility.yul\":705:706   */\n      dup3\n        /* \"#utility.yul\":687:707   */\n      tag_25\n      jump\t// in\n    tag_36:\n        /* \"#utility.yul\":682:707   */\n      swap2\n      pop\n        /* \"#utility.yul\":721:741   */\n      tag_37\n        /* \"#utility.yul\":739:740   */\n      dup4\n        /* \"#utility.yul\":721:741   */\n      tag_25\n      jump\t// in\n    tag_37:\n        /* \"#utility.yul\":716:741   */\n      swap3\n      pop\n        /* \"#utility.yul\":875:876   */\n      dup3\n        /* \"#utility.yul\":807:873   */\n      0xffffffffffffffffffffffffffffffffffffffffffffffffffffffffffffffff\n        /* \"#utility.yul\":803:877   */\n      sub\n        /* \"#utility.yul\":800:801   */\n      dup3\n        /* \"#utility.yul\":797:878   */\n      gt\n        /* \"#utility.yul\":794:901   */\n      iszero\n      tag_38\n      jumpi\n        /* \"#utility.yul\":881:899   */\n      tag_39\n      tag_27\n      jump\t// in\n    tag_39:\n        /* \"#utility.yul\":794:901   */\n    tag_38:\n        /* \"#utility.yul\":925:926   */\n      dup3\n        /* \"#utility.yul\":922:923   */\n      dup3\n        /* \"#utility.yul\":918:927   */\n      add\n        /* \"#utility.yul\":911:927   */\n      swap1\n      pop\n        /* \"#utility.yul\":628:933   */\n      swap3\n      swap2\n      pop\n      pop\n      jump\t// out\n        /* \"#utility.yul\":939:1130   */\n    tag_24:\n        /* \"#utility.yul\":979:983   */\n      0x00\n        /* \"#utility.yul\":999:1019   */\n      tag_41\n        /* \"#utility.yul\":1017:1018   */\n      dup3\n        /* \"#utility.yul\":999:1019   */\n      tag_25\n      jump\t// in\n    tag_41:\n        /* \"#utility.yul\":994:1019   */\n      swap2\n      pop\n        /* \"#utility.yul\":1033:1053   */\n      tag_42\n        /* \"#utility.yul\":1051:1052   */\n      dup4\n        /* \"#utility.yul\":1033:1053   */\n      tag_25\n      jump\t// in\n    tag_42:\n        /* \"#utility.yul\":1028:1053   */\n      swap3\n      pop\n        /* \"#utility.yul\":1072:1073   */\n      dup3\n        /* \"#utility.yul\":1069:1070   */\n      dup3\n        /* \"#utility.yul\":1066:1074   */\n      lt\n        /* \"#utility.yul\":1063:1097   */\n      iszero\n      tag_43\n      jumpi\n        /* \"#utility.yul\":1077:1095   */\n      tag_44\n      tag_27\n      jump\t// in\n    tag_44:\n        /* \"#utility.yul\":1063:1097   */\n    tag_43:\n        /* \"#utility.yul\":1122:1123   */\n      dup3\n        /* \"#utility.yul\":1119:1120   */\n      dup3\n        /* \"#utility.yul\":1115:1124   */\n      sub\n        /* \"#utility.yul\":1107:1124   */\n      swap1\n      pop\n        /* \"#utility.yul\":939:1130   */\n      swap3\n      swap2\n      pop\n      pop\n      jump\t// out\n\n    auxdata: 0xa264697066735822122083d576e6300ff96963030fb58ec5fba10d092e51221ae115fc40b7cb96a6485964736f6c634300080e0033\n}\n",
				"bytecode": {
					"linkReferences": {},
					"object": "608060405234801561001057600080fd5b50610209806100206000396000f3fe608060405234801561001057600080fd5b506004361061004c5760003560e01c806306661abd14610051578063371303c01461006f5780636d4ce63c14610079578063b3bcfa8214610097575b600080fd5b6100596100a1565b60405161006691906100ff565b60405180910390f35b6100776100a7565b005b6100816100c2565b60405161008e91906100ff565b60405180910390f35b61009f6100cb565b005b60005481565b60016000808282546100b99190610149565b92505081905550565b60008054905090565b60016000808282546100dd919061019f565b92505081905550565b6000819050919050565b6100f9816100e6565b82525050565b600060208201905061011460008301846100f0565b92915050565b7f4e487b7100000000000000000000000000000000000000000000000000000000600052601160045260246000fd5b6000610154826100e6565b915061015f836100e6565b9250827fffffffffffffffffffffffffffffffffffffffffffffffffffffffffffffffff038211156101945761019361011a565b5b828201905092915050565b60006101aa826100e6565b91506101b5836100e6565b9250828210156101c8576101c761011a565b5b82820390509291505056fea264697066735822122083d576e6300ff96963030fb58ec5fba10d092e51221ae115fc40b7cb96a6485964736f6c634300080e0033",
					"opcodes": "PUSH1 0x80 PUSH1 0x40 MSTORE CALLVALUE DUP1 ISZERO PUSH2 0x10 JUMPI PUSH1 0x0 DUP1 REVERT JUMPDEST POP PUSH2 0x209 DUP1 PUSH2 0x20 PUSH1 0x0 CODECOPY PUSH1 0x0 RETURN INVALID PUSH1 0x80 PUSH1 0x40 MSTORE CALLVALUE DUP1 ISZERO PUSH2 0x10 JUMPI PUSH1 0x0 DUP1 REVERT JUMPDEST POP PUSH1 0x4 CALLDATASIZE LT PUSH2 0x4C JUMPI PUSH1 0x0 CALLDATALOAD PUSH1 0xE0 SHR DUP1 PUSH4 0x6661ABD EQ PUSH2 0x51 JUMPI DUP1 PUSH4 0x371303C0 EQ PUSH2 0x6F JUMPI DUP1 PUSH4 0x6D4CE63C EQ PUSH2 0x79 JUMPI DUP1 PUSH4 0xB3BCFA82 EQ PUSH2 0x97 JUMPI JUMPDEST PUSH1 0x0 DUP1 REVERT JUMPDEST PUSH2 0x59 PUSH2 0xA1 JUMP JUMPDEST PUSH1 0x40 MLOAD PUSH2 0x66 SWAP2 SWAP1 PUSH2 0xFF JUMP JUMPDEST PUSH1 0x40 MLOAD DUP1 SWAP2 SUB SWAP1 RETURN JUMPDEST PUSH2 0x77 PUSH2 0xA7 JUMP JUMPDEST STOP JUMPDEST PUSH2 0x81 PUSH2 0xC2 JUMP JUMPDEST PUSH1 0x40 MLOAD PUSH2 0x8E SWAP2 SWAP1 PUSH2 0xFF JUMP JUMPDEST PUSH1 0x40 MLOAD DUP1 SWAP2 SUB SWAP1 RETURN JUMPDEST PUSH2 0x9F PUSH2 0xCB JUMP JUMPDEST STOP JUMPDEST PUSH1 0x0 SLOAD DUP2 JUMP JUMPDEST PUSH1 0x1 PUSH1 0x0 DUP1 DUP3 DUP3 SLOAD PUSH2 0xB9 SWAP2 SWAP1 PUSH2 0x149 JUMP JUMPDEST SWAP3 POP POP DUP2 SWAP1 SSTORE POP JUMP JUMPDEST PUSH1 0x0 DUP1 SLOAD SWAP1 POP SWAP1 JUMP JUMPDEST PUSH1 0x1 PUSH1 0x0 DUP1 DUP3 DUP3 SLOAD PUSH2 0xDD SWAP2 SWAP1 PUSH2 0x19F JUMP JUMPDEST SWAP3 POP POP DUP2 SWAP1 SSTORE POP JUMP JUMPDEST PUSH1 0x0 DUP2 SWAP1 POP SWAP2 SWAP1 POP JUMP JUMPDEST PUSH2 0xF9 DUP2 PUSH2 0xE6 JUMP JUMPDEST DUP3 MSTORE POP POP JUMP JUMPDEST PUSH1 0x0 PUSH1 0x20 DUP3 ADD SWAP1 POP PUSH2 0x114 PUSH1 0x0 DUP4 ADD DUP5 PUSH2 0xF0 JUMP JUMPDEST SWAP3 SWAP2 POP POP JUMP JUMPDEST PUSH32 0x4E487B7100000000000000000000000000000000000000000000000000000000 PUSH1 0x0 MSTORE PUSH1 0x11 PUSH1 0x4 MSTORE PUSH1 0x24 PUSH1 0x0 REVERT JUMPDEST PUSH1 0x0 PUSH2 0x154 DUP3 PUSH2 0xE6 JUMP JUMPDEST SWAP2 POP PUSH2 0x15F DUP4 PUSH2 0xE6 JUMP JUMPDEST SWAP3 POP DUP3 PUSH32 0xFFFFFFFFFFFFFFFFFFFFFFFFFFFFFFFFFFFFFFFFFFFFFFFFFFFFFFFFFFFFFFFF SUB DUP3 GT ISZERO PUSH2 0x194 JUMPI PUSH2 0x193 PUSH2 0x11A JUMP JUMPDEST JUMPDEST DUP3 DUP3 ADD SWAP1 POP SWAP3 SWAP2 POP POP JUMP JUMPDEST PUSH1 0x0 PUSH2 0x1AA DUP3 PUSH2 0xE6 JUMP JUMPDEST SWAP2 POP PUSH2 0x1B5 DUP4 PUSH2 0xE6 JUMP JUMPDEST SWAP3 POP DUP3 DUP3 LT ISZERO PUSH2 0x1C8 JUMPI PUSH2 0x1C7 PUSH2 0x11A JUMP JUMPDEST JUMPDEST DUP3 DUP3 SUB SWAP1 POP SWAP3 SWAP2 POP POP JUMP INVALID LOG2 PUSH5 0x6970667358 0x22 SLT KECCAK256 DUP4 0xD5 PUSH23 0xE6300FF96963030FB58EC5FBA10D092E51221AE115FC40 0xB7 0xCB SWAP7 0xA6 BASEFEE MSIZE PUSH5 0x736F6C6343 STOP ADDMOD 0xE STOP CALLER "
				},
				"gasEstimates": {
					"creation": {
						"codeDepositCost": "104200",
						"executionCost": "153",
						"totalCost": "104353"
					},
					"external": {
						"count()": "2407",
						"dec()": "infinite",
						"get()": "2459",
						"inc()": "infinite"
					}
				},
				"methodIdentifiers": {
					"count()": "06661abd",
					"dec()": "b3bcfa82",
					"get()": "6d4ce63c",
					"inc()": "371303c0"
				}
			},
			"storageLayout": {
				"storage": [
					{
						"astId": 3,
						"contract": "solidity-study-demo/firstPart/Counter.sol:Counter",
						"label": "count",
						"offset": 0,
						"slot": "0",
						"type": "t_uint256"
					}
				],
				"types": {
					"t_uint256": {
						"encoding": "inplace",
						"label": "uint256",
						"numberOfBytes": "32"
					}
				}
			},
			"userdoc": {
				"kind": "user",
				"methods": {},
				"version": 1
			}
		}
	}
}