{
	"solidity-study-demo/firstPart/Todos.sol": {
		"Todos": {
			"abi": [
				{
					"inputs": [
						{
							"internalType": "string",
							"name": "_text",
							"type": "string"
						}
					],
					"name": "create",
					"outputs": [],
					"stateMutability": "nonpayable",
					"type": "function"
				},
				{
					"inputs": [
						{
							"internalType": "uint256",
							"name": "_index",
							"type": "uint256"
						}
					],
					"name": "get",
					"outputs": [
						{
							"internalType": "string",
							"name": "text",
							"type": "string"
						},
						{
							"internalType": "bool",
							"name": "completed",
							"type": "bool"
						}
					],
					"stateMutability": "view",
					"type": "function"
				},
				{
					"inputs": [
						{
							"internalType": "uint256",
							"name": "",
							"type": "uint256"
						}
					],
					"name": "todos",
					"outputs": [
						{
							"internalType": "string",
							"name": "text",
							"type": "string"
						},
						{
							"internalType": "bool",
							"name": "completed",
							"type": "bool"
						}
					],
					"stateMutability": "view",
					"type": "function"
				},
				{
					"inputs": [
						{
							"internalType": "uint256",
							"name": "_index",
							"type": "uint256"
						}
					],
					"name": "toggleCompleted",
					"outputs": [],
					"stateMutability": "nonpayable",
					"type": "function"
				},
				{
					"inputs": [
						{
							"internalType": "uint256",
							"name": "_index",
							"type": "uint256"
						},
						{
							"internalType": "string",
							"name": "_text",
							"type": "string"
						}
					],
					"name": "updateText",
					"outputs": [],
					"stateMutability": "nonpayable",
					"type": "function"
				}
			],
			"devdoc": {
				"kind": "dev",
				"methods": {},
				"version": 1
			},
			"evm": {
				"assembly": "    /* \"solidity-study-demo/firstPart/Todos.sol\":28:853  contract Todos {... */\n  mstore(0x40, 0x80)\n  callvalue\n  dup1\n  iszero\n  tag_1\n  jumpi\n  0x00\n  dup1\n  revert\ntag_1:\n  pop\n  dataSize(sub_0)\n  dup1\n  dataOffset(sub_0)\n  0x00\n  codecopy\n  0x00\n  return\nstop\n\nsub_0: assembly {\n        /* \"solidity-study-demo/firstPart/Todos.sol\":28:853  contract Todos {... */\n      mstore(0x40, 0x80)\n      callvalue\n      dup1\n      iszero\n      tag_1\n      jumpi\n      0x00\n      dup1\n      revert\n    tag_1:\n      pop\n      jumpi(tag_2, lt(calldatasize, 0x04))\n      shr(0xe0, calldataload(0x00))\n      dup1\n      0x455f5024\n      eq\n      tag_3\n      jumpi\n      dup1\n      0x9507d39a\n      eq\n      tag_4\n      jumpi\n      dup1\n      0xb6a46b3b\n      eq\n      tag_5\n      jumpi\n      dup1\n      0xbc8bc2b4\n      eq\n      tag_6\n      jumpi\n      dup1\n      0xcd111614\n      eq\n      tag_7\n      jumpi\n    tag_2:\n      0x00\n      dup1\n      revert\n        /* \"solidity-study-demo/firstPart/Todos.sol\":710:850  function toggleCompleted(uint _index) public {... */\n    tag_3:\n      tag_8\n      0x04\n      dup1\n      calldatasize\n      sub\n      dup2\n      add\n      swap1\n      tag_9\n      swap2\n      swap1\n      tag_10\n      jump\t// in\n    tag_9:\n      tag_11\n      jump\t// in\n    tag_8:\n      stop\n        /* \"solidity-study-demo/firstPart/Todos.sol\":371:551  function get(uint _index) public view returns (string memory text, bool completed) {... */\n    tag_4:\n      tag_12\n      0x04\n      dup1\n      calldatasize\n      sub\n      dup2\n      add\n      swap1\n      tag_13\n      swap2\n      swap1\n      tag_10\n      jump\t// in\n    tag_13:\n      tag_14\n      jump\t// in\n    tag_12:\n      mload(0x40)\n      tag_15\n      swap3\n      swap2\n      swap1\n      tag_16\n      jump\t// in\n    tag_15:\n      mload(0x40)\n      dup1\n      swap2\n      sub\n      swap1\n      return\n        /* \"solidity-study-demo/firstPart/Todos.sol\":153:363  function create(string calldata _text) public {... */\n    tag_5:\n      tag_17\n      0x04\n      dup1\n      calldatasize\n      sub\n      dup2\n      add\n      swap1\n      tag_18\n      swap2\n      swap1\n      tag_19\n      jump\t// in\n    tag_18:\n      tag_20\n      jump\t// in\n    tag_17:\n      stop\n        /* \"solidity-study-demo/firstPart/Todos.sol\":125:144  Todo[] public todos */\n    tag_6:\n      tag_21\n      0x04\n      dup1\n      calldatasize\n      sub\n      dup2\n      add\n      swap1\n      tag_22\n      swap2\n      swap1\n      tag_10\n      jump\t// in\n    tag_22:\n      tag_23\n      jump\t// in\n    tag_21:\n      mload(0x40)\n      tag_24\n      swap3\n      swap2\n      swap1\n      tag_16\n      jump\t// in\n    tag_24:\n      mload(0x40)\n      dup1\n      swap2\n      sub\n      swap1\n      return\n        /* \"solidity-study-demo/firstPart/Todos.sol\":559:702  function updateText(uint _index, string calldata _text) public {... */\n    tag_7:\n      tag_25\n      0x04\n      dup1\n      calldatasize\n      sub\n      dup2\n      add\n      swap1\n      tag_26\n      swap2\n      swap1\n      tag_27\n      jump\t// in\n    tag_26:\n      tag_28\n      jump\t// in\n    tag_25:\n      stop\n        /* \"solidity-study-demo/firstPart/Todos.sol\":710:850  function toggleCompleted(uint _index) public {... */\n    tag_11:\n        /* \"solidity-study-demo/firstPart/Todos.sol\":766:783  Todo storage todo */\n      0x00\n        /* \"solidity-study-demo/firstPart/Todos.sol\":786:791  todos */\n      dup1\n        /* \"solidity-study-demo/firstPart/Todos.sol\":792:798  _index */\n      dup3\n        /* \"solidity-study-demo/firstPart/Todos.sol\":786:799  todos[_index] */\n      dup2\n      sload\n      dup2\n      lt\n      tag_30\n      jumpi\n      tag_31\n      tag_32\n      jump\t// in\n    tag_31:\n    tag_30:\n      swap1\n      0x00\n      mstore\n      keccak256(0x00, 0x20)\n      swap1\n      0x02\n      mul\n      add\n        /* \"solidity-study-demo/firstPart/Todos.sol\":766:799  Todo storage todo = todos[_index] */\n      swap1\n      pop\n        /* \"solidity-study-demo/firstPart/Todos.sol\":828:832  todo */\n      dup1\n        /* \"solidity-study-demo/firstPart/Todos.sol\":828:842  todo.completed */\n      0x01\n      add\n      0x00\n      swap1\n      sload\n      swap1\n      0x0100\n      exp\n      swap1\n      div\n      0xff\n      and\n        /* \"solidity-study-demo/firstPart/Todos.sol\":827:842  !todo.completed */\n      iszero\n        /* \"solidity-study-demo/firstPart/Todos.sol\":810:814  todo */\n      dup2\n        /* \"solidity-study-demo/firstPart/Todos.sol\":810:824  todo.completed */\n      0x01\n      add\n      0x00\n        /* \"solidity-study-demo/firstPart/Todos.sol\":810:842  todo.completed = !todo.completed */\n      0x0100\n      exp\n      dup2\n      sload\n      dup2\n      0xff\n      mul\n      not\n      and\n      swap1\n      dup4\n      iszero\n      iszero\n      mul\n      or\n      swap1\n      sstore\n      pop\n        /* \"solidity-study-demo/firstPart/Todos.sol\":755:850  {... */\n      pop\n        /* \"solidity-study-demo/firstPart/Todos.sol\":710:850  function toggleCompleted(uint _index) public {... */\n      pop\n      jump\t// out\n        /* \"solidity-study-demo/firstPart/Todos.sol\":371:551  function get(uint _index) public view returns (string memory text, bool completed) {... */\n    tag_14:\n        /* \"solidity-study-demo/firstPart/Todos.sol\":418:436  string memory text */\n      0x60\n        /* \"solidity-study-demo/firstPart/Todos.sol\":438:452  bool completed */\n      0x00\n        /* \"solidity-study-demo/firstPart/Todos.sol\":465:482  Todo storage todo */\n      dup1\n        /* \"solidity-study-demo/firstPart/Todos.sol\":485:490  todos */\n      0x00\n        /* \"solidity-study-demo/firstPart/Todos.sol\":491:497  _index */\n      dup5\n        /* \"solidity-study-demo/firstPart/Todos.sol\":485:498  todos[_index] */\n      dup2\n      sload\n      dup2\n      lt\n      tag_35\n      jumpi\n      tag_36\n      tag_32\n      jump\t// in\n    tag_36:\n    tag_35:\n      swap1\n      0x00\n      mstore\n      keccak256(0x00, 0x20)\n      swap1\n      0x02\n      mul\n      add\n        /* \"solidity-study-demo/firstPart/Todos.sol\":465:498  Todo storage todo = todos[_index] */\n      swap1\n      pop\n        /* \"solidity-study-demo/firstPart/Todos.sol\":517:521  todo */\n      dup1\n        /* \"solidity-study-demo/firstPart/Todos.sol\":517:526  todo.text */\n      0x00\n      add\n        /* \"solidity-study-demo/firstPart/Todos.sol\":528:532  todo */\n      dup2\n        /* \"solidity-study-demo/firstPart/Todos.sol\":528:542  todo.completed */\n      0x01\n      add\n      0x00\n      swap1\n      sload\n      swap1\n      0x0100\n      exp\n      swap1\n      div\n      0xff\n      and\n        /* \"solidity-study-demo/firstPart/Todos.sol\":509:543  return (todo.text, todo.completed) */\n      dup2\n      dup1\n      sload\n      tag_38\n      swap1\n      tag_39\n      jump\t// in\n    tag_38:\n      dup1\n      0x1f\n      add\n      0x20\n      dup1\n      swap2\n      div\n      mul\n      0x20\n      add\n      mload(0x40)\n      swap1\n      dup2\n      add\n      0x40\n      mstore\n      dup1\n      swap3\n      swap2\n      swap1\n      dup2\n      dup2\n      mstore\n      0x20\n      add\n      dup3\n      dup1\n      sload\n      tag_40\n      swap1\n      tag_39\n      jump\t// in\n    tag_40:\n      dup1\n      iszero\n      tag_41\n      jumpi\n      dup1\n      0x1f\n      lt\n      tag_42\n      jumpi\n      0x0100\n      dup1\n      dup4\n      sload\n      div\n      mul\n      dup4\n      mstore\n      swap2\n      0x20\n      add\n      swap2\n      jump(tag_41)\n    tag_42:\n      dup3\n      add\n      swap2\n      swap1\n      0x00\n      mstore\n      keccak256(0x00, 0x20)\n      swap1\n    tag_43:\n      dup2\n      sload\n      dup2\n      mstore\n      swap1\n      0x01\n      add\n      swap1\n      0x20\n      add\n      dup1\n      dup4\n      gt\n      tag_43\n      jumpi\n      dup3\n      swap1\n      sub\n      0x1f\n      and\n      dup3\n      add\n      swap2\n    tag_41:\n      pop\n      pop\n      pop\n      pop\n      pop\n      swap2\n      pop\n      swap3\n      pop\n      swap3\n      pop\n      pop\n        /* \"solidity-study-demo/firstPart/Todos.sol\":371:551  function get(uint _index) public view returns (string memory text, bool completed) {... */\n      swap2\n      pop\n      swap2\n      jump\t// out\n        /* \"solidity-study-demo/firstPart/Todos.sol\":153:363  function create(string calldata _text) public {... */\n    tag_20:\n        /* \"solidity-study-demo/firstPart/Todos.sol\":210:215  todos */\n      0x00\n        /* \"solidity-study-demo/firstPart/Todos.sol\":221:239  Todo(_text, false) */\n      mload(0x40)\n      dup1\n      0x40\n      add\n      0x40\n      mstore\n      dup1\n        /* \"solidity-study-demo/firstPart/Todos.sol\":226:231  _text */\n      dup5\n      dup5\n        /* \"solidity-study-demo/firstPart/Todos.sol\":221:239  Todo(_text, false) */\n      dup1\n      dup1\n      0x1f\n      add\n      0x20\n      dup1\n      swap2\n      div\n      mul\n      0x20\n      add\n      mload(0x40)\n      swap1\n      dup2\n      add\n      0x40\n      mstore\n      dup1\n      swap4\n      swap3\n      swap2\n      swap1\n      dup2\n      dup2\n      mstore\n      0x20\n      add\n      dup4\n      dup4\n      dup1\n      dup3\n      dup5\n      calldatacopy\n      0x00\n      dup2\n      dup5\n      add\n      mstore\n      not(0x1f)\n      0x1f\n      dup3\n      add\n      and\n      swap1\n      pop\n      dup1\n      dup4\n      add\n      swap3\n      pop\n      pop\n      pop\n      pop\n      pop\n      pop\n      pop\n      dup2\n      mstore\n      0x20\n      add\n        /* \"solidity-study-demo/firstPart/Todos.sol\":233:238  false */\n      0x00\n        /* \"solidity-study-demo/firstPart/Todos.sol\":221:239  Todo(_text, false) */\n      iszero\n      iszero\n      dup2\n      mstore\n      pop\n        /* \"solidity-study-demo/firstPart/Todos.sol\":210:240  todos.push(Todo(_text, false)) */\n      swap1\n      dup1\n      0x01\n      dup2\n      sload\n      add\n      dup1\n      dup3\n      sstore\n      dup1\n      swap2\n      pop\n      pop\n      0x01\n      swap1\n      sub\n      swap1\n      0x00\n      mstore\n      keccak256(0x00, 0x20)\n      swap1\n      0x02\n      mul\n      add\n      0x00\n      swap1\n      swap2\n      swap1\n      swap2\n      swap1\n      swap2\n      pop\n      0x00\n      dup3\n      add\n      mload\n      dup2\n      0x00\n      add\n      swap1\n      dup1\n      mload\n      swap1\n      0x20\n      add\n      swap1\n      tag_46\n      swap3\n      swap2\n      swap1\n      tag_47\n      jump\t// in\n    tag_46:\n      pop\n      0x20\n      dup3\n      add\n      mload\n      dup2\n      0x01\n      add\n      exp(0x0100, 0x00)\n      dup2\n      sload\n      dup2\n      0xff\n      mul\n      not\n      and\n      swap1\n      dup4\n      iszero\n      iszero\n      mul\n      or\n      swap1\n      sstore\n      pop\n      pop\n      pop\n        /* \"solidity-study-demo/firstPart/Todos.sol\":311:327  Todo memory todo */\n      tag_48\n      tag_49\n      jump\t// in\n    tag_48:\n        /* \"solidity-study-demo/firstPart/Todos.sol\":350:355  _text */\n      dup3\n      dup3\n        /* \"solidity-study-demo/firstPart/Todos.sol\":338:355  todo.text = _text */\n      dup1\n      dup1\n      0x1f\n      add\n      0x20\n      dup1\n      swap2\n      div\n      mul\n      0x20\n      add\n      mload(0x40)\n      swap1\n      dup2\n      add\n      0x40\n      mstore\n      dup1\n      swap4\n      swap3\n      swap2\n      swap1\n      dup2\n      dup2\n      mstore\n      0x20\n      add\n      dup4\n      dup4\n      dup1\n      dup3\n      dup5\n      calldatacopy\n      0x00\n      dup2\n      dup5\n      add\n      mstore\n      not(0x1f)\n      0x1f\n      dup3\n      add\n      and\n      swap1\n      pop\n      dup1\n      dup4\n      add\n      swap3\n      pop\n      pop\n      pop\n      pop\n      pop\n      pop\n      pop\n        /* \"solidity-study-demo/firstPart/Todos.sol\":338:342  todo */\n      dup2\n        /* \"solidity-study-demo/firstPart/Todos.sol\":338:347  todo.text */\n      0x00\n      add\n        /* \"solidity-study-demo/firstPart/Todos.sol\":338:355  todo.text = _text */\n      dup2\n      swap1\n      mstore\n      pop\n        /* \"solidity-study-demo/firstPart/Todos.sol\":199:363  {... */\n      pop\n        /* \"solidity-study-demo/firstPart/Todos.sol\":153:363  function create(string calldata _text) public {... */\n      pop\n      pop\n      jump\t// out\n        /* \"solidity-study-demo/firstPart/Todos.sol\":125:144  Todo[] public todos */\n    tag_23:\n      0x00\n      dup2\n      dup2\n      sload\n      dup2\n      lt\n      tag_50\n      jumpi\n      0x00\n      dup1\n      revert\n    tag_50:\n      swap1\n      0x00\n      mstore\n      keccak256(0x00, 0x20)\n      swap1\n      0x02\n      mul\n      add\n      0x00\n      swap2\n      pop\n      swap1\n      pop\n      dup1\n      0x00\n      add\n      dup1\n      sload\n      tag_52\n      swap1\n      tag_39\n      jump\t// in\n    tag_52:\n      dup1\n      0x1f\n      add\n      0x20\n      dup1\n      swap2\n      div\n      mul\n      0x20\n      add\n      mload(0x40)\n      swap1\n      dup2\n      add\n      0x40\n      mstore\n      dup1\n      swap3\n      swap2\n      swap1\n      dup2\n      dup2\n      mstore\n      0x20\n      add\n      dup3\n      dup1\n      sload\n      tag_53\n      swap1\n      tag_39\n      jump\t// in\n    tag_53:\n      dup1\n      iszero\n      tag_54\n      jumpi\n      dup1\n      0x1f\n      lt\n      tag_55\n      jumpi\n      0x0100\n      dup1\n      dup4\n      sload\n      div\n      mul\n      dup4\n      mstore\n      swap2\n      0x20\n      add\n      swap2\n      jump(tag_54)\n    tag_55:\n      dup3\n      add\n      swap2\n      swap1\n      0x00\n      mstore\n      keccak256(0x00, 0x20)\n      swap1\n    tag_56:\n      dup2\n      sload\n      dup2\n      mstore\n      swap1\n      0x01\n      add\n      swap1\n      0x20\n      add\n      dup1\n      dup4\n      gt\n      tag_56\n      jumpi\n      dup3\n      swap1\n      sub\n      0x1f\n      and\n      dup3\n      add\n      swap2\n    tag_54:\n      pop\n      pop\n      pop\n      pop\n      pop\n      swap1\n      dup1\n      0x01\n      add\n      0x00\n      swap1\n      sload\n      swap1\n      0x0100\n      exp\n      swap1\n      div\n      0xff\n      and\n      swap1\n      pop\n      dup3\n      jump\t// out\n        /* \"solidity-study-demo/firstPart/Todos.sol\":559:702  function updateText(uint _index, string calldata _text) public {... */\n    tag_28:\n        /* \"solidity-study-demo/firstPart/Todos.sol\":633:650  Todo storage todo */\n      0x00\n        /* \"solidity-study-demo/firstPart/Todos.sol\":653:658  todos */\n      dup1\n        /* \"solidity-study-demo/firstPart/Todos.sol\":659:665  _index */\n      dup5\n        /* \"solidity-study-demo/firstPart/Todos.sol\":653:666  todos[_index] */\n      dup2\n      sload\n      dup2\n      lt\n      tag_58\n      jumpi\n      tag_59\n      tag_32\n      jump\t// in\n    tag_59:\n    tag_58:\n      swap1\n      0x00\n      mstore\n      keccak256(0x00, 0x20)\n      swap1\n      0x02\n      mul\n      add\n        /* \"solidity-study-demo/firstPart/Todos.sol\":633:666  Todo storage todo = todos[_index] */\n      swap1\n      pop\n        /* \"solidity-study-demo/firstPart/Todos.sol\":689:694  _text */\n      dup3\n      dup3\n        /* \"solidity-study-demo/firstPart/Todos.sol\":677:681  todo */\n      dup3\n        /* \"solidity-study-demo/firstPart/Todos.sol\":677:686  todo.text */\n      0x00\n      add\n        /* \"solidity-study-demo/firstPart/Todos.sol\":677:694  todo.text = _text */\n      swap2\n      swap1\n      tag_61\n      swap3\n      swap2\n      swap1\n      tag_62\n      jump\t// in\n    tag_61:\n      pop\n        /* \"solidity-study-demo/firstPart/Todos.sol\":622:702  {... */\n      pop\n        /* \"solidity-study-demo/firstPart/Todos.sol\":559:702  function updateText(uint _index, string calldata _text) public {... */\n      pop\n      pop\n      pop\n      jump\t// out\n    tag_47:\n      dup3\n      dup1\n      sload\n      tag_63\n      swap1\n      tag_39\n      jump\t// in\n    tag_63:\n      swap1\n      0x00\n      mstore\n      keccak256(0x00, 0x20)\n      swap1\n      0x1f\n      add\n      0x20\n      swap1\n      div\n      dup2\n      add\n      swap3\n      dup3\n      tag_65\n      jumpi\n      0x00\n      dup6\n      sstore\n      jump(tag_64)\n    tag_65:\n      dup3\n      0x1f\n      lt\n      tag_66\n      jumpi\n      dup1\n      mload\n      not(0xff)\n      and\n      dup4\n      dup1\n      add\n      or\n      dup6\n      sstore\n      jump(tag_64)\n    tag_66:\n      dup3\n      dup1\n      add\n      0x01\n      add\n      dup6\n      sstore\n      dup3\n      iszero\n      tag_64\n      jumpi\n      swap2\n      dup3\n      add\n    tag_67:\n      dup3\n      dup2\n      gt\n      iszero\n      tag_68\n      jumpi\n      dup3\n      mload\n      dup3\n      sstore\n      swap2\n      0x20\n      add\n      swap2\n      swap1\n      0x01\n      add\n      swap1\n      jump(tag_67)\n    tag_68:\n    tag_64:\n      pop\n      swap1\n      pop\n      tag_69\n      swap2\n      swap1\n      tag_70\n      jump\t// in\n    tag_69:\n      pop\n      swap1\n      jump\t// out\n    tag_49:\n      mload(0x40)\n      dup1\n      0x40\n      add\n      0x40\n      mstore\n      dup1\n      0x60\n      dup2\n      mstore\n      0x20\n      add\n      iszero(iszero(0x00))\n      dup2\n      mstore\n      pop\n      swap1\n      jump\t// out\n    tag_62:\n      dup3\n      dup1\n      sload\n      tag_71\n      swap1\n      tag_39\n      jump\t// in\n    tag_71:\n      swap1\n      0x00\n      mstore\n      keccak256(0x00, 0x20)\n      swap1\n      0x1f\n      add\n      0x20\n      swap1\n      div\n      dup2\n      add\n      swap3\n      dup3\n      tag_73\n      jumpi\n      0x00\n      dup6\n      sstore\n      jump(tag_72)\n    tag_73:\n      dup3\n      0x1f\n      lt\n      tag_74\n      jumpi\n      dup1\n      calldataload\n      not(0xff)\n      and\n      dup4\n      dup1\n      add\n      or\n      dup6\n      sstore\n      jump(tag_72)\n    tag_74:\n      dup3\n      dup1\n      add\n      0x01\n      add\n      dup6\n      sstore\n      dup3\n      iszero\n      tag_72\n      jumpi\n      swap2\n      dup3\n      add\n    tag_75:\n      dup3\n      dup2\n      gt\n      iszero\n      tag_76\n      jumpi\n      dup3\n      calldataload\n      dup3\n      sstore\n      swap2\n      0x20\n      add\n      swap2\n      swap1\n      0x01\n      add\n      swap1\n      jump(tag_75)\n    tag_76:\n    tag_72:\n      pop\n      swap1\n      pop\n      tag_77\n      swap2\n      swap1\n      tag_70\n      jump\t// in\n    tag_77:\n      pop\n      swap1\n      jump\t// out\n    tag_70:\n    tag_78:\n      dup1\n      dup3\n      gt\n      iszero\n      tag_79\n      jumpi\n      0x00\n      dup2\n      0x00\n      swap1\n      sstore\n      pop\n      0x01\n      add\n      jump(tag_78)\n    tag_79:\n      pop\n      swap1\n      jump\t// out\n        /* \"#utility.yul\":88:205   */\n    tag_81:\n        /* \"#utility.yul\":197:198   */\n      0x00\n        /* \"#utility.yul\":194:195   */\n      dup1\n        /* \"#utility.yul\":187:199   */\n      revert\n        /* \"#utility.yul\":211:328   */\n    tag_82:\n        /* \"#utility.yul\":320:321   */\n      0x00\n        /* \"#utility.yul\":317:318   */\n      dup1\n        /* \"#utility.yul\":310:322   */\n      revert\n        /* \"#utility.yul\":334:411   */\n    tag_83:\n        /* \"#utility.yul\":371:378   */\n      0x00\n        /* \"#utility.yul\":400:405   */\n      dup2\n        /* \"#utility.yul\":389:405   */\n      swap1\n      pop\n        /* \"#utility.yul\":334:411   */\n      swap2\n      swap1\n      pop\n      jump\t// out\n        /* \"#utility.yul\":417:539   */\n    tag_84:\n        /* \"#utility.yul\":490:514   */\n      tag_104\n        /* \"#utility.yul\":508:513   */\n      dup2\n        /* \"#utility.yul\":490:514   */\n      tag_83\n      jump\t// in\n    tag_104:\n        /* \"#utility.yul\":483:488   */\n      dup2\n        /* \"#utility.yul\":480:515   */\n      eq\n        /* \"#utility.yul\":470:533   */\n      tag_105\n      jumpi\n        /* \"#utility.yul\":529:530   */\n      0x00\n        /* \"#utility.yul\":526:527   */\n      dup1\n        /* \"#utility.yul\":519:531   */\n      revert\n        /* \"#utility.yul\":470:533   */\n    tag_105:\n        /* \"#utility.yul\":417:539   */\n      pop\n      jump\t// out\n        /* \"#utility.yul\":545:684   */\n    tag_85:\n        /* \"#utility.yul\":591:596   */\n      0x00\n        /* \"#utility.yul\":629:635   */\n      dup2\n        /* \"#utility.yul\":616:636   */\n      calldataload\n        /* \"#utility.yul\":607:636   */\n      swap1\n      pop\n        /* \"#utility.yul\":645:678   */\n      tag_107\n        /* \"#utility.yul\":672:677   */\n      dup2\n        /* \"#utility.yul\":645:678   */\n      tag_84\n      jump\t// in\n    tag_107:\n        /* \"#utility.yul\":545:684   */\n      swap3\n      swap2\n      pop\n      pop\n      jump\t// out\n        /* \"#utility.yul\":690:1019   */\n    tag_10:\n        /* \"#utility.yul\":749:755   */\n      0x00\n        /* \"#utility.yul\":798:800   */\n      0x20\n        /* \"#utility.yul\":786:795   */\n      dup3\n        /* \"#utility.yul\":777:784   */\n      dup5\n        /* \"#utility.yul\":773:796   */\n      sub\n        /* \"#utility.yul\":769:801   */\n      slt\n        /* \"#utility.yul\":766:885   */\n      iszero\n      tag_109\n      jumpi\n        /* \"#utility.yul\":804:883   */\n      tag_110\n      tag_81\n      jump\t// in\n    tag_110:\n        /* \"#utility.yul\":766:885   */\n    tag_109:\n        /* \"#utility.yul\":924:925   */\n      0x00\n        /* \"#utility.yul\":949:1002   */\n      tag_111\n        /* \"#utility.yul\":994:1001   */\n      dup5\n        /* \"#utility.yul\":985:991   */\n      dup3\n        /* \"#utility.yul\":974:983   */\n      dup6\n        /* \"#utility.yul\":970:992   */\n      add\n        /* \"#utility.yul\":949:1002   */\n      tag_85\n      jump\t// in\n    tag_111:\n        /* \"#utility.yul\":939:1002   */\n      swap2\n      pop\n        /* \"#utility.yul\":895:1012   */\n      pop\n        /* \"#utility.yul\":690:1019   */\n      swap3\n      swap2\n      pop\n      pop\n      jump\t// out\n        /* \"#utility.yul\":1025:1124   */\n    tag_86:\n        /* \"#utility.yul\":1077:1083   */\n      0x00\n        /* \"#utility.yul\":1111:1116   */\n      dup2\n        /* \"#utility.yul\":1105:1117   */\n      mload\n        /* \"#utility.yul\":1095:1117   */\n      swap1\n      pop\n        /* \"#utility.yul\":1025:1124   */\n      swap2\n      swap1\n      pop\n      jump\t// out\n        /* \"#utility.yul\":1130:1299   */\n    tag_87:\n        /* \"#utility.yul\":1214:1225   */\n      0x00\n        /* \"#utility.yul\":1248:1254   */\n      dup3\n        /* \"#utility.yul\":1243:1246   */\n      dup3\n        /* \"#utility.yul\":1236:1255   */\n      mstore\n        /* \"#utility.yul\":1288:1292   */\n      0x20\n        /* \"#utility.yul\":1283:1286   */\n      dup3\n        /* \"#utility.yul\":1279:1293   */\n      add\n        /* \"#utility.yul\":1264:1293   */\n      swap1\n      pop\n        /* \"#utility.yul\":1130:1299   */\n      swap3\n      swap2\n      pop\n      pop\n      jump\t// out\n        /* \"#utility.yul\":1305:1612   */\n    tag_88:\n        /* \"#utility.yul\":1373:1374   */\n      0x00\n        /* \"#utility.yul\":1383:1496   */\n    tag_115:\n        /* \"#utility.yul\":1397:1403   */\n      dup4\n        /* \"#utility.yul\":1394:1395   */\n      dup2\n        /* \"#utility.yul\":1391:1404   */\n      lt\n        /* \"#utility.yul\":1383:1496   */\n      iszero\n      tag_117\n      jumpi\n        /* \"#utility.yul\":1482:1483   */\n      dup1\n        /* \"#utility.yul\":1477:1480   */\n      dup3\n        /* \"#utility.yul\":1473:1484   */\n      add\n        /* \"#utility.yul\":1467:1485   */\n      mload\n        /* \"#utility.yul\":1463:1464   */\n      dup2\n        /* \"#utility.yul\":1458:1461   */\n      dup5\n        /* \"#utility.yul\":1454:1465   */\n      add\n        /* \"#utility.yul\":1447:1486   */\n      mstore\n        /* \"#utility.yul\":1419:1421   */\n      0x20\n        /* \"#utility.yul\":1416:1417   */\n      dup2\n        /* \"#utility.yul\":1412:1422   */\n      add\n        /* \"#utility.yul\":1407:1422   */\n      swap1\n      pop\n        /* \"#utility.yul\":1383:1496   */\n      jump(tag_115)\n    tag_117:\n        /* \"#utility.yul\":1514:1520   */\n      dup4\n        /* \"#utility.yul\":1511:1512   */\n      dup2\n        /* \"#utility.yul\":1508:1521   */\n      gt\n        /* \"#utility.yul\":1505:1606   */\n      iszero\n      tag_118\n      jumpi\n        /* \"#utility.yul\":1594:1595   */\n      0x00\n        /* \"#utility.yul\":1585:1591   */\n      dup5\n        /* \"#utility.yul\":1580:1583   */\n      dup5\n        /* \"#utility.yul\":1576:1592   */\n      add\n        /* \"#utility.yul\":1569:1596   */\n      mstore\n        /* \"#utility.yul\":1505:1606   */\n    tag_118:\n        /* \"#utility.yul\":1354:1612   */\n      pop\n        /* \"#utility.yul\":1305:1612   */\n      pop\n      pop\n      pop\n      jump\t// out\n        /* \"#utility.yul\":1618:1720   */\n    tag_89:\n        /* \"#utility.yul\":1659:1665   */\n      0x00\n        /* \"#utility.yul\":1710:1712   */\n      0x1f\n        /* \"#utility.yul\":1706:1713   */\n      not\n        /* \"#utility.yul\":1701:1703   */\n      0x1f\n        /* \"#utility.yul\":1694:1699   */\n      dup4\n        /* \"#utility.yul\":1690:1704   */\n      add\n        /* \"#utility.yul\":1686:1714   */\n      and\n        /* \"#utility.yul\":1676:1714   */\n      swap1\n      pop\n        /* \"#utility.yul\":1618:1720   */\n      swap2\n      swap1\n      pop\n      jump\t// out\n        /* \"#utility.yul\":1726:2090   */\n    tag_90:\n        /* \"#utility.yul\":1814:1817   */\n      0x00\n        /* \"#utility.yul\":1842:1881   */\n      tag_121\n        /* \"#utility.yul\":1875:1880   */\n      dup3\n        /* \"#utility.yul\":1842:1881   */\n      tag_86\n      jump\t// in\n    tag_121:\n        /* \"#utility.yul\":1897:1968   */\n      tag_122\n        /* \"#utility.yul\":1961:1967   */\n      dup2\n        /* \"#utility.yul\":1956:1959   */\n      dup6\n        /* \"#utility.yul\":1897:1968   */\n      tag_87\n      jump\t// in\n    tag_122:\n        /* \"#utility.yul\":1890:1968   */\n      swap4\n      pop\n        /* \"#utility.yul\":1977:2029   */\n      tag_123\n        /* \"#utility.yul\":2022:2028   */\n      dup2\n        /* \"#utility.yul\":2017:2020   */\n      dup6\n        /* \"#utility.yul\":2010:2014   */\n      0x20\n        /* \"#utility.yul\":2003:2008   */\n      dup7\n        /* \"#utility.yul\":1999:2015   */\n      add\n        /* \"#utility.yul\":1977:2029   */\n      tag_88\n      jump\t// in\n    tag_123:\n        /* \"#utility.yul\":2054:2083   */\n      tag_124\n        /* \"#utility.yul\":2076:2082   */\n      dup2\n        /* \"#utility.yul\":2054:2083   */\n      tag_89\n      jump\t// in\n    tag_124:\n        /* \"#utility.yul\":2049:2052   */\n      dup5\n        /* \"#utility.yul\":2045:2084   */\n      add\n        /* \"#utility.yul\":2038:2084   */\n      swap2\n      pop\n        /* \"#utility.yul\":1818:2090   */\n      pop\n        /* \"#utility.yul\":1726:2090   */\n      swap3\n      swap2\n      pop\n      pop\n      jump\t// out\n        /* \"#utility.yul\":2096:2186   */\n    tag_91:\n        /* \"#utility.yul\":2130:2137   */\n      0x00\n        /* \"#utility.yul\":2173:2178   */\n      dup2\n        /* \"#utility.yul\":2166:2179   */\n      iszero\n        /* \"#utility.yul\":2159:2180   */\n      iszero\n        /* \"#utility.yul\":2148:2180   */\n      swap1\n      pop\n        /* \"#utility.yul\":2096:2186   */\n      swap2\n      swap1\n      pop\n      jump\t// out\n        /* \"#utility.yul\":2192:2301   */\n    tag_92:\n        /* \"#utility.yul\":2273:2294   */\n      tag_127\n        /* \"#utility.yul\":2288:2293   */\n      dup2\n        /* \"#utility.yul\":2273:2294   */\n      tag_91\n      jump\t// in\n    tag_127:\n        /* \"#utility.yul\":2268:2271   */\n      dup3\n        /* \"#utility.yul\":2261:2295   */\n      mstore\n        /* \"#utility.yul\":2192:2301   */\n      pop\n      pop\n      jump\t// out\n        /* \"#utility.yul\":2307:2718   */\n    tag_16:\n        /* \"#utility.yul\":2442:2446   */\n      0x00\n        /* \"#utility.yul\":2480:2482   */\n      0x40\n        /* \"#utility.yul\":2469:2478   */\n      dup3\n        /* \"#utility.yul\":2465:2483   */\n      add\n        /* \"#utility.yul\":2457:2483   */\n      swap1\n      pop\n        /* \"#utility.yul\":2529:2538   */\n      dup2\n        /* \"#utility.yul\":2523:2527   */\n      dup2\n        /* \"#utility.yul\":2519:2539   */\n      sub\n        /* \"#utility.yul\":2515:2516   */\n      0x00\n        /* \"#utility.yul\":2504:2513   */\n      dup4\n        /* \"#utility.yul\":2500:2517   */\n      add\n        /* \"#utility.yul\":2493:2540   */\n      mstore\n        /* \"#utility.yul\":2557:2635   */\n      tag_129\n        /* \"#utility.yul\":2630:2634   */\n      dup2\n        /* \"#utility.yul\":2621:2627   */\n      dup6\n        /* \"#utility.yul\":2557:2635   */\n      tag_90\n      jump\t// in\n    tag_129:\n        /* \"#utility.yul\":2549:2635   */\n      swap1\n      pop\n        /* \"#utility.yul\":2645:2711   */\n      tag_130\n        /* \"#utility.yul\":2707:2709   */\n      0x20\n        /* \"#utility.yul\":2696:2705   */\n      dup4\n        /* \"#utility.yul\":2692:2710   */\n      add\n        /* \"#utility.yul\":2683:2689   */\n      dup5\n        /* \"#utility.yul\":2645:2711   */\n      tag_92\n      jump\t// in\n    tag_130:\n        /* \"#utility.yul\":2307:2718   */\n      swap4\n      swap3\n      pop\n      pop\n      pop\n      jump\t// out\n        /* \"#utility.yul\":2724:2841   */\n    tag_93:\n        /* \"#utility.yul\":2833:2834   */\n      0x00\n        /* \"#utility.yul\":2830:2831   */\n      dup1\n        /* \"#utility.yul\":2823:2835   */\n      revert\n        /* \"#utility.yul\":2847:2964   */\n    tag_94:\n        /* \"#utility.yul\":2956:2957   */\n      0x00\n        /* \"#utility.yul\":2953:2954   */\n      dup1\n        /* \"#utility.yul\":2946:2958   */\n      revert\n        /* \"#utility.yul\":2970:3087   */\n    tag_95:\n        /* \"#utility.yul\":3079:3080   */\n      0x00\n        /* \"#utility.yul\":3076:3077   */\n      dup1\n        /* \"#utility.yul\":3069:3081   */\n      revert\n        /* \"#utility.yul\":3107:3660   */\n    tag_96:\n        /* \"#utility.yul\":3165:3173   */\n      0x00\n        /* \"#utility.yul\":3175:3181   */\n      dup1\n        /* \"#utility.yul\":3225:3228   */\n      dup4\n        /* \"#utility.yul\":3218:3222   */\n      0x1f\n        /* \"#utility.yul\":3210:3216   */\n      dup5\n        /* \"#utility.yul\":3206:3223   */\n      add\n        /* \"#utility.yul\":3202:3229   */\n      slt\n        /* \"#utility.yul\":3192:3314   */\n      tag_135\n      jumpi\n        /* \"#utility.yul\":3233:3312   */\n      tag_136\n      tag_93\n      jump\t// in\n    tag_136:\n        /* \"#utility.yul\":3192:3314   */\n    tag_135:\n        /* \"#utility.yul\":3346:3352   */\n      dup3\n        /* \"#utility.yul\":3333:3353   */\n      calldataload\n        /* \"#utility.yul\":3323:3353   */\n      swap1\n      pop\n        /* \"#utility.yul\":3376:3394   */\n      0xffffffffffffffff\n        /* \"#utility.yul\":3368:3374   */\n      dup2\n        /* \"#utility.yul\":3365:3395   */\n      gt\n        /* \"#utility.yul\":3362:3479   */\n      iszero\n      tag_137\n      jumpi\n        /* \"#utility.yul\":3398:3477   */\n      tag_138\n      tag_94\n      jump\t// in\n    tag_138:\n        /* \"#utility.yul\":3362:3479   */\n    tag_137:\n        /* \"#utility.yul\":3512:3516   */\n      0x20\n        /* \"#utility.yul\":3504:3510   */\n      dup4\n        /* \"#utility.yul\":3500:3517   */\n      add\n        /* \"#utility.yul\":3488:3517   */\n      swap2\n      pop\n        /* \"#utility.yul\":3566:3569   */\n      dup4\n        /* \"#utility.yul\":3558:3562   */\n      0x01\n        /* \"#utility.yul\":3550:3556   */\n      dup3\n        /* \"#utility.yul\":3546:3563   */\n      mul\n        /* \"#utility.yul\":3536:3544   */\n      dup4\n        /* \"#utility.yul\":3532:3564   */\n      add\n        /* \"#utility.yul\":3529:3570   */\n      gt\n        /* \"#utility.yul\":3526:3654   */\n      iszero\n      tag_139\n      jumpi\n        /* \"#utility.yul\":3573:3652   */\n      tag_140\n      tag_95\n      jump\t// in\n    tag_140:\n        /* \"#utility.yul\":3526:3654   */\n    tag_139:\n        /* \"#utility.yul\":3107:3660   */\n      swap3\n      pop\n      swap3\n      swap1\n      pop\n      jump\t// out\n        /* \"#utility.yul\":3666:4195   */\n    tag_19:\n        /* \"#utility.yul\":3737:3743   */\n      0x00\n        /* \"#utility.yul\":3745:3751   */\n      dup1\n        /* \"#utility.yul\":3794:3796   */\n      0x20\n        /* \"#utility.yul\":3782:3791   */\n      dup4\n        /* \"#utility.yul\":3773:3780   */\n      dup6\n        /* \"#utility.yul\":3769:3792   */\n      sub\n        /* \"#utility.yul\":3765:3797   */\n      slt\n        /* \"#utility.yul\":3762:3881   */\n      iszero\n      tag_142\n      jumpi\n        /* \"#utility.yul\":3800:3879   */\n      tag_143\n      tag_81\n      jump\t// in\n    tag_143:\n        /* \"#utility.yul\":3762:3881   */\n    tag_142:\n        /* \"#utility.yul\":3948:3949   */\n      0x00\n        /* \"#utility.yul\":3937:3946   */\n      dup4\n        /* \"#utility.yul\":3933:3950   */\n      add\n        /* \"#utility.yul\":3920:3951   */\n      calldataload\n        /* \"#utility.yul\":3978:3996   */\n      0xffffffffffffffff\n        /* \"#utility.yul\":3970:3976   */\n      dup2\n        /* \"#utility.yul\":3967:3997   */\n      gt\n        /* \"#utility.yul\":3964:4081   */\n      iszero\n      tag_144\n      jumpi\n        /* \"#utility.yul\":4000:4079   */\n      tag_145\n      tag_82\n      jump\t// in\n    tag_145:\n        /* \"#utility.yul\":3964:4081   */\n    tag_144:\n        /* \"#utility.yul\":4113:4178   */\n      tag_146\n        /* \"#utility.yul\":4170:4177   */\n      dup6\n        /* \"#utility.yul\":4161:4167   */\n      dup3\n        /* \"#utility.yul\":4150:4159   */\n      dup7\n        /* \"#utility.yul\":4146:4168   */\n      add\n        /* \"#utility.yul\":4113:4178   */\n      tag_96\n      jump\t// in\n    tag_146:\n        /* \"#utility.yul\":4095:4178   */\n      swap3\n      pop\n      swap3\n      pop\n        /* \"#utility.yul\":3891:4188   */\n      pop\n        /* \"#utility.yul\":3666:4195   */\n      swap3\n      pop\n      swap3\n      swap1\n      pop\n      jump\t// out\n        /* \"#utility.yul\":4201:4875   */\n    tag_27:\n        /* \"#utility.yul\":4281:4287   */\n      0x00\n        /* \"#utility.yul\":4289:4295   */\n      dup1\n        /* \"#utility.yul\":4297:4303   */\n      0x00\n        /* \"#utility.yul\":4346:4348   */\n      0x40\n        /* \"#utility.yul\":4334:4343   */\n      dup5\n        /* \"#utility.yul\":4325:4332   */\n      dup7\n        /* \"#utility.yul\":4321:4344   */\n      sub\n        /* \"#utility.yul\":4317:4349   */\n      slt\n        /* \"#utility.yul\":4314:4433   */\n      iszero\n      tag_148\n      jumpi\n        /* \"#utility.yul\":4352:4431   */\n      tag_149\n      tag_81\n      jump\t// in\n    tag_149:\n        /* \"#utility.yul\":4314:4433   */\n    tag_148:\n        /* \"#utility.yul\":4472:4473   */\n      0x00\n        /* \"#utility.yul\":4497:4550   */\n      tag_150\n        /* \"#utility.yul\":4542:4549   */\n      dup7\n        /* \"#utility.yul\":4533:4539   */\n      dup3\n        /* \"#utility.yul\":4522:4531   */\n      dup8\n        /* \"#utility.yul\":4518:4540   */\n      add\n        /* \"#utility.yul\":4497:4550   */\n      tag_85\n      jump\t// in\n    tag_150:\n        /* \"#utility.yul\":4487:4550   */\n      swap4\n      pop\n        /* \"#utility.yul\":4443:4560   */\n      pop\n        /* \"#utility.yul\":4627:4629   */\n      0x20\n        /* \"#utility.yul\":4616:4625   */\n      dup5\n        /* \"#utility.yul\":4612:4630   */\n      add\n        /* \"#utility.yul\":4599:4631   */\n      calldataload\n        /* \"#utility.yul\":4658:4676   */\n      0xffffffffffffffff\n        /* \"#utility.yul\":4650:4656   */\n      dup2\n        /* \"#utility.yul\":4647:4677   */\n      gt\n        /* \"#utility.yul\":4644:4761   */\n      iszero\n      tag_151\n      jumpi\n        /* \"#utility.yul\":4680:4759   */\n      tag_152\n      tag_82\n      jump\t// in\n    tag_152:\n        /* \"#utility.yul\":4644:4761   */\n    tag_151:\n        /* \"#utility.yul\":4793:4858   */\n      tag_153\n        /* \"#utility.yul\":4850:4857   */\n      dup7\n        /* \"#utility.yul\":4841:4847   */\n      dup3\n        /* \"#utility.yul\":4830:4839   */\n      dup8\n        /* \"#utility.yul\":4826:4848   */\n      add\n        /* \"#utility.yul\":4793:4858   */\n      tag_96\n      jump\t// in\n    tag_153:\n        /* \"#utility.yul\":4775:4858   */\n      swap3\n      pop\n      swap3\n      pop\n        /* \"#utility.yul\":4570:4868   */\n      pop\n        /* \"#utility.yul\":4201:4875   */\n      swap3\n      pop\n      swap3\n      pop\n      swap3\n      jump\t// out\n        /* \"#utility.yul\":4881:5061   */\n    tag_32:\n        /* \"#utility.yul\":4929:5006   */\n      0x4e487b7100000000000000000000000000000000000000000000000000000000\n        /* \"#utility.yul\":4926:4927   */\n      0x00\n        /* \"#utility.yul\":4919:5007   */\n      mstore\n        /* \"#utility.yul\":5026:5030   */\n      0x32\n        /* \"#utility.yul\":5023:5024   */\n      0x04\n        /* \"#utility.yul\":5016:5031   */\n      mstore\n        /* \"#utility.yul\":5050:5054   */\n      0x24\n        /* \"#utility.yul\":5047:5048   */\n      0x00\n        /* \"#utility.yul\":5040:5055   */\n      revert\n        /* \"#utility.yul\":5067:5247   */\n    tag_97:\n        /* \"#utility.yul\":5115:5192   */\n      0x4e487b7100000000000000000000000000000000000000000000000000000000\n        /* \"#utility.yul\":5112:5113   */\n      0x00\n        /* \"#utility.yul\":5105:5193   */\n      mstore\n        /* \"#utility.yul\":5212:5216   */\n      0x22\n        /* \"#utility.yul\":5209:5210   */\n      0x04\n        /* \"#utility.yul\":5202:5217   */\n      mstore\n        /* \"#utility.yul\":5236:5240   */\n      0x24\n        /* \"#utility.yul\":5233:5234   */\n      0x00\n        /* \"#utility.yul\":5226:5241   */\n      revert\n        /* \"#utility.yul\":5253:5573   */\n    tag_39:\n        /* \"#utility.yul\":5297:5303   */\n      0x00\n        /* \"#utility.yul\":5334:5335   */\n      0x02\n        /* \"#utility.yul\":5328:5332   */\n      dup3\n        /* \"#utility.yul\":5324:5336   */\n      div\n        /* \"#utility.yul\":5314:5336   */\n      swap1\n      pop\n        /* \"#utility.yul\":5381:5382   */\n      0x01\n        /* \"#utility.yul\":5375:5379   */\n      dup3\n        /* \"#utility.yul\":5371:5383   */\n      and\n        /* \"#utility.yul\":5402:5420   */\n      dup1\n        /* \"#utility.yul\":5392:5473   */\n      tag_157\n      jumpi\n        /* \"#utility.yul\":5458:5462   */\n      0x7f\n        /* \"#utility.yul\":5450:5456   */\n      dup3\n        /* \"#utility.yul\":5446:5463   */\n      and\n        /* \"#utility.yul\":5436:5463   */\n      swap2\n      pop\n        /* \"#utility.yul\":5392:5473   */\n    tag_157:\n        /* \"#utility.yul\":5520:5522   */\n      0x20\n        /* \"#utility.yul\":5512:5518   */\n      dup3\n        /* \"#utility.yul\":5509:5523   */\n      lt\n        /* \"#utility.yul\":5489:5507   */\n      dup2\n        /* \"#utility.yul\":5486:5524   */\n      sub\n        /* \"#utility.yul\":5483:5567   */\n      tag_158\n      jumpi\n        /* \"#utility.yul\":5539:5557   */\n      tag_159\n      tag_97\n      jump\t// in\n    tag_159:\n        /* \"#utility.yul\":5483:5567   */\n    tag_158:\n        /* \"#utility.yul\":5304:5573   */\n      pop\n        /* \"#utility.yul\":5253:5573   */\n      swap2\n      swap1\n      pop\n      jump\t// out\n\n    auxdata: 0xa264697066735822122019ea0f017edb7f8b6b18a07d608a59379df088af114563d9ec9dbc16bb862d4164736f6c634300080e0033\n}\n",
				"bytecode": {
					"linkReferences": {},
					"object": "608060405234801561001057600080fd5b506108d3806100206000396000f3fe608060405234801561001057600080fd5b50600436106100575760003560e01c8063455f50241461005c5780639507d39a14610078578063b6a46b3b146100a9578063bc8bc2b4146100c5578063cd111614146100f6575b600080fd5b610076600480360381019061007191906105eb565b610112565b005b610092600480360381019061008d91906105eb565b610169565b6040516100a09291906106cc565b60405180910390f35b6100c360048036038101906100be9190610761565b61023e565b005b6100df60048036038101906100da91906105eb565b61035e565b6040516100ed9291906106cc565b60405180910390f35b610110600480360381019061010b91906107ae565b610427565b005b60008082815481106101275761012661080e565b5b906000526020600020906002020190508060010160009054906101000a900460ff16158160010160006101000a81548160ff0219169083151502179055505050565b6060600080600084815481106101825761018161080e565b5b90600052602060002090600202019050806000018160010160009054906101000a900460ff168180546101b49061086c565b80601f01602080910402602001604051908101604052809291908181526020018280546101e09061086c565b801561022d5780601f106102025761010080835404028352916020019161022d565b820191906000526020600020905b81548152906001019060200180831161021057829003601f168201915b505050505091509250925050915091565b6000604051806040016040528084848080601f016020809104026020016040519081016040528093929190818152602001838380828437600081840152601f19601f82011690508083019250505050505050815260200160001515815250908060018154018082558091505060019003906000526020600020906002020160009091909190915060008201518160000190805190602001906102e1929190610466565b5060208201518160010160006101000a81548160ff021916908315150217905550505061030c6104ec565b82828080601f016020809104026020016040519081016040528093929190818152602001838380828437600081840152601f19601f820116905080830192505050505050508160000181905250505050565b6000818154811061036e57600080fd5b90600052602060002090600202016000915090508060000180546103919061086c565b80601f01602080910402602001604051908101604052809291908181526020018280546103bd9061086c565b801561040a5780601f106103df5761010080835404028352916020019161040a565b820191906000526020600020905b8154815290600101906020018083116103ed57829003601f168201915b5050505050908060010160009054906101000a900460ff16905082565b600080848154811061043c5761043b61080e565b5b90600052602060002090600202019050828282600001919061045f929190610508565b5050505050565b8280546104729061086c565b90600052602060002090601f01602090048101928261049457600085556104db565b82601f106104ad57805160ff19168380011785556104db565b828001600101855582156104db579182015b828111156104da5782518255916020019190600101906104bf565b5b5090506104e8919061058e565b5090565b6040518060400160405280606081526020016000151581525090565b8280546105149061086c565b90600052602060002090601f016020900481019282610536576000855561057d565b82601f1061054f57803560ff191683800117855561057d565b8280016001018555821561057d579182015b8281111561057c578235825591602001919060010190610561565b5b50905061058a919061058e565b5090565b5b808211156105a757600081600090555060010161058f565b5090565b600080fd5b600080fd5b6000819050919050565b6105c8816105b5565b81146105d357600080fd5b50565b6000813590506105e5816105bf565b92915050565b600060208284031215610601576106006105ab565b5b600061060f848285016105d6565b91505092915050565b600081519050919050565b600082825260208201905092915050565b60005b83811015610652578082015181840152602081019050610637565b83811115610661576000848401525b50505050565b6000601f19601f8301169050919050565b600061068382610618565b61068d8185610623565b935061069d818560208601610634565b6106a681610667565b840191505092915050565b60008115159050919050565b6106c6816106b1565b82525050565b600060408201905081810360008301526106e68185610678565b90506106f560208301846106bd565b9392505050565b600080fd5b600080fd5b600080fd5b60008083601f840112610721576107206106fc565b5b8235905067ffffffffffffffff81111561073e5761073d610701565b5b60208301915083600182028301111561075a57610759610706565b5b9250929050565b60008060208385031215610778576107776105ab565b5b600083013567ffffffffffffffff811115610796576107956105b0565b5b6107a28582860161070b565b92509250509250929050565b6000806000604084860312156107c7576107c66105ab565b5b60006107d5868287016105d6565b935050602084013567ffffffffffffffff8111156107f6576107f56105b0565b5b6108028682870161070b565b92509250509250925092565b7f4e487b7100000000000000000000000000000000000000000000000000000000600052603260045260246000fd5b7f4e487b7100000000000000000000000000000000000000000000000000000000600052602260045260246000fd5b6000600282049050600182168061088457607f821691505b6020821081036108975761089661083d565b5b5091905056fea264697066735822122019ea0f017edb7f8b6b18a07d608a59379df088af114563d9ec9dbc16bb862d4164736f6c634300080e0033",
					"opcodes": "PUSH1 0x80 PUSH1 0x40 MSTORE CALLVALUE DUP1 ISZERO PUSH2 0x10 JUMPI PUSH1 0x0 DUP1 REVERT JUMPDEST POP PUSH2 0x8D3 DUP1 PUSH2 0x20 PUSH1 0x0 CODECOPY PUSH1 0x0 RETURN INVALID PUSH1 0x80 PUSH1 0x40 MSTORE CALLVALUE DUP1 ISZERO PUSH2 0x10 JUMPI PUSH1 0x0 DUP1 REVERT JUMPDEST POP PUSH1 0x4 CALLDATASIZE LT PUSH2 0x57 JUMPI PUSH1 0x0 CALLDATALOAD PUSH1 0xE0 SHR DUP1 PUSH4 0x455F5024 EQ PUSH2 0x5C JUMPI DUP1 PUSH4 0x9507D39A EQ PUSH2 0x78 JUMPI DUP1 PUSH4 0xB6A46B3B EQ PUSH2 0xA9 JUMPI DUP1 PUSH4 0xBC8BC2B4 EQ PUSH2 0xC5 JUMPI DUP1 PUSH4 0xCD111614 EQ PUSH2 0xF6 JUMPI JUMPDEST PUSH1 0x0 DUP1 REVERT JUMPDEST PUSH2 0x76 PUSH1 0x4 DUP1 CALLDATASIZE SUB DUP2 ADD SWAP1 PUSH2 0x71 SWAP2 SWAP1 PUSH2 0x5EB JUMP JUMPDEST PUSH2 0x112 JUMP JUMPDEST STOP JUMPDEST PUSH2 0x92 PUSH1 0x4 DUP1 CALLDATASIZE SUB DUP2 ADD SWAP1 PUSH2 0x8D SWAP2 SWAP1 PUSH2 0x5EB JUMP JUMPDEST PUSH2 0x169 JUMP JUMPDEST PUSH1 0x40 MLOAD PUSH2 0xA0 SWAP3 SWAP2 SWAP1 PUSH2 0x6CC JUMP JUMPDEST PUSH1 0x40 MLOAD DUP1 SWAP2 SUB SWAP1 RETURN JUMPDEST PUSH2 0xC3 PUSH1 0x4 DUP1 CALLDATASIZE SUB DUP2 ADD SWAP1 PUSH2 0xBE SWAP2 SWAP1 PUSH2 0x761 JUMP JUMPDEST PUSH2 0x23E JUMP JUMPDEST STOP JUMPDEST PUSH2 0xDF PUSH1 0x4 DUP1 CALLDATASIZE SUB DUP2 ADD SWAP1 PUSH2 0xDA SWAP2 SWAP1 PUSH2 0x5EB JUMP JUMPDEST PUSH2 0x35E JUMP JUMPDEST PUSH1 0x40 MLOAD PUSH2 0xED SWAP3 SWAP2 SWAP1 PUSH2 0x6CC JUMP JUMPDEST PUSH1 0x40 MLOAD DUP1 SWAP2 SUB SWAP1 RETURN JUMPDEST PUSH2 0x110 PUSH1 0x4 DUP1 CALLDATASIZE SUB DUP2 ADD SWAP1 PUSH2 0x10B SWAP2 SWAP1 PUSH2 0x7AE JUMP JUMPDEST PUSH2 0x427 JUMP JUMPDEST STOP JUMPDEST PUSH1 0x0 DUP1 DUP3 DUP2 SLOAD DUP2 LT PUSH2 0x127 JUMPI PUSH2 0x126 PUSH2 0x80E JUMP JUMPDEST JUMPDEST SWAP1 PUSH1 0x0 MSTORE PUSH1 0x20 PUSH1 0x0 KECCAK256 SWAP1 PUSH1 0x2 MUL ADD SWAP1 POP DUP1 PUSH1 0x1 ADD PUSH1 0x0 SWAP1 SLOAD SWAP1 PUSH2 0x100 EXP SWAP1 DIV PUSH1 0xFF AND ISZERO DUP2 PUSH1 0x1 ADD PUSH1 0x0 PUSH2 0x100 EXP DUP2 SLOAD DUP2 PUSH1 0xFF MUL NOT AND SWAP1 DUP4 ISZERO ISZERO MUL OR SWAP1 SSTORE POP POP POP JUMP JUMPDEST PUSH1 0x60 PUSH1 0x0 DUP1 PUSH1 0x0 DUP5 DUP2 SLOAD DUP2 LT PUSH2 0x182 JUMPI PUSH2 0x181 PUSH2 0x80E JUMP JUMPDEST JUMPDEST SWAP1 PUSH1 0x0 MSTORE PUSH1 0x20 PUSH1 0x0 KECCAK256 SWAP1 PUSH1 0x2 MUL ADD SWAP1 POP DUP1 PUSH1 0x0 ADD DUP2 PUSH1 0x1 ADD PUSH1 0x0 SWAP1 SLOAD SWAP1 PUSH2 0x100 EXP SWAP1 DIV PUSH1 0xFF AND DUP2 DUP1 SLOAD PUSH2 0x1B4 SWAP1 PUSH2 0x86C JUMP JUMPDEST DUP1 PUSH1 0x1F ADD PUSH1 0x20 DUP1 SWAP2 DIV MUL PUSH1 0x20 ADD PUSH1 0x40 MLOAD SWAP1 DUP2 ADD PUSH1 0x40 MSTORE DUP1 SWAP3 SWAP2 SWAP1 DUP2 DUP2 MSTORE PUSH1 0x20 ADD DUP3 DUP1 SLOAD PUSH2 0x1E0 SWAP1 PUSH2 0x86C JUMP JUMPDEST DUP1 ISZERO PUSH2 0x22D JUMPI DUP1 PUSH1 0x1F LT PUSH2 0x202 JUMPI PUSH2 0x100 DUP1 DUP4 SLOAD DIV MUL DUP4 MSTORE SWAP2 PUSH1 0x20 ADD SWAP2 PUSH2 0x22D JUMP JUMPDEST DUP3 ADD SWAP2 SWAP1 PUSH1 0x0 MSTORE PUSH1 0x20 PUSH1 0x0 KECCAK256 SWAP1 JUMPDEST DUP2 SLOAD DUP2 MSTORE SWAP1 PUSH1 0x1 ADD SWAP1 PUSH1 0x20 ADD DUP1 DUP4 GT PUSH2 0x210 JUMPI DUP3 SWAP1 SUB PUSH1 0x1F AND DUP3 ADD SWAP2 JUMPDEST POP POP POP POP POP SWAP2 POP SWAP3 POP SWAP3 POP POP SWAP2 POP SWAP2 JUMP JUMPDEST PUSH1 0x0 PUSH1 0x40 MLOAD DUP1 PUSH1 0x40 ADD PUSH1 0x40 MSTORE DUP1 DUP5 DUP5 DUP1 DUP1 PUSH1 0x1F ADD PUSH1 0x20 DUP1 SWAP2 DIV MUL PUSH1 0x20 ADD PUSH1 0x40 MLOAD SWAP1 DUP2 ADD PUSH1 0x40 MSTORE DUP1 SWAP4 SWAP3 SWAP2 SWAP1 DUP2 DUP2 MSTORE PUSH1 0x20 ADD DUP4 DUP4 DUP1 DUP3 DUP5 CALLDATACOPY PUSH1 0x0 DUP2 DUP5 ADD MSTORE PUSH1 0x1F NOT PUSH1 0x1F DUP3 ADD AND SWAP1 POP DUP1 DUP4 ADD SWAP3 POP POP POP POP POP POP POP DUP2 MSTORE PUSH1 0x20 ADD PUSH1 0x0 ISZERO ISZERO DUP2 MSTORE POP SWAP1 DUP1 PUSH1 0x1 DUP2 SLOAD ADD DUP1 DUP3 SSTORE DUP1 SWAP2 POP POP PUSH1 0x1 SWAP1 SUB SWAP1 PUSH1 0x0 MSTORE PUSH1 0x20 PUSH1 0x0 KECCAK256 SWAP1 PUSH1 0x2 MUL ADD PUSH1 0x0 SWAP1 SWAP2 SWAP1 SWAP2 SWAP1 SWAP2 POP PUSH1 0x0 DUP3 ADD MLOAD DUP2 PUSH1 0x0 ADD SWAP1 DUP1 MLOAD SWAP1 PUSH1 0x20 ADD SWAP1 PUSH2 0x2E1 SWAP3 SWAP2 SWAP1 PUSH2 0x466 JUMP JUMPDEST POP PUSH1 0x20 DUP3 ADD MLOAD DUP2 PUSH1 0x1 ADD PUSH1 0x0 PUSH2 0x100 EXP DUP2 SLOAD DUP2 PUSH1 0xFF MUL NOT AND SWAP1 DUP4 ISZERO ISZERO MUL OR SWAP1 SSTORE POP POP POP PUSH2 0x30C PUSH2 0x4EC JUMP JUMPDEST DUP3 DUP3 DUP1 DUP1 PUSH1 0x1F ADD PUSH1 0x20 DUP1 SWAP2 DIV MUL PUSH1 0x20 ADD PUSH1 0x40 MLOAD SWAP1 DUP2 ADD PUSH1 0x40 MSTORE DUP1 SWAP4 SWAP3 SWAP2 SWAP1 DUP2 DUP2 MSTORE PUSH1 0x20 ADD DUP4 DUP4 DUP1 DUP3 DUP5 CALLDATACOPY PUSH1 0x0 DUP2 DUP5 ADD MSTORE PUSH1 0x1F NOT PUSH1 0x1F DUP3 ADD AND SWAP1 POP DUP1 DUP4 ADD SWAP3 POP POP POP POP POP POP POP DUP2 PUSH1 0x0 ADD DUP2 SWAP1 MSTORE POP POP POP POP JUMP JUMPDEST PUSH1 0x0 DUP2 DUP2 SLOAD DUP2 LT PUSH2 0x36E JUMPI PUSH1 0x0 DUP1 REVERT JUMPDEST SWAP1 PUSH1 0x0 MSTORE PUSH1 0x20 PUSH1 0x0 KECCAK256 SWAP1 PUSH1 0x2 MUL ADD PUSH1 0x0 SWAP2 POP SWAP1 POP DUP1 PUSH1 0x0 ADD DUP1 SLOAD PUSH2 0x391 SWAP1 PUSH2 0x86C JUMP JUMPDEST DUP1 PUSH1 0x1F ADD PUSH1 0x20 DUP1 SWAP2 DIV MUL PUSH1 0x20 ADD PUSH1 0x40 MLOAD SWAP1 DUP2 ADD PUSH1 0x40 MSTORE DUP1 SWAP3 SWAP2 SWAP1 DUP2 DUP2 MSTORE PUSH1 0x20 ADD DUP3 DUP1 SLOAD PUSH2 0x3BD SWAP1 PUSH2 0x86C JUMP JUMPDEST DUP1 ISZERO PUSH2 0x40A JUMPI DUP1 PUSH1 0x1F LT PUSH2 0x3DF JUMPI PUSH2 0x100 DUP1 DUP4 SLOAD DIV MUL DUP4 MSTORE SWAP2 PUSH1 0x20 ADD SWAP2 PUSH2 0x40A JUMP JUMPDEST DUP3 ADD SWAP2 SWAP1 PUSH1 0x0 MSTORE PUSH1 0x20 PUSH1 0x0 KECCAK256 SWAP1 JUMPDEST DUP2 SLOAD DUP2 MSTORE SWAP1 PUSH1 0x1 ADD SWAP1 PUSH1 0x20 ADD DUP1 DUP4 GT PUSH2 0x3ED JUMPI DUP3 SWAP1 SUB PUSH1 0x1F AND DUP3 ADD SWAP2 JUMPDEST POP POP POP POP POP SWAP1 DUP1 PUSH1 0x1 ADD PUSH1 0x0 SWAP1 SLOAD SWAP1 PUSH2 0x100 EXP SWAP1 DIV PUSH1 0xFF AND SWAP1 POP DUP3 JUMP JUMPDEST PUSH1 0x0 DUP1 DUP5 DUP2 SLOAD DUP2 LT PUSH2 0x43C JUMPI PUSH2 0x43B PUSH2 0x80E JUMP JUMPDEST JUMPDEST SWAP1 PUSH1 0x0 MSTORE PUSH1 0x20 PUSH1 0x0 KECCAK256 SWAP1 PUSH1 0x2 MUL ADD SWAP1 POP DUP3 DUP3 DUP3 PUSH1 0x0 ADD SWAP2 SWAP1 PUSH2 0x45F SWAP3 SWAP2 SWAP1 PUSH2 0x508 JUMP JUMPDEST POP POP POP POP POP JUMP JUMPDEST DUP3 DUP1 SLOAD PUSH2 0x472 SWAP1 PUSH2 0x86C JUMP JUMPDEST SWAP1 PUSH1 0x0 MSTORE PUSH1 0x20 PUSH1 0x0 KECCAK256 SWAP1 PUSH1 0x1F ADD PUSH1 0x20 SWAP1 DIV DUP2 ADD SWAP3 DUP3 PUSH2 0x494 JUMPI PUSH1 0x0 DUP6 SSTORE PUSH2 0x4DB JUMP JUMPDEST DUP3 PUSH1 0x1F LT PUSH2 0x4AD JUMPI DUP1 MLOAD PUSH1 0xFF NOT AND DUP4 DUP1 ADD OR DUP6 SSTORE PUSH2 0x4DB JUMP JUMPDEST DUP3 DUP1 ADD PUSH1 0x1 ADD DUP6 SSTORE DUP3 ISZERO PUSH2 0x4DB JUMPI SWAP2 DUP3 ADD JUMPDEST DUP3 DUP2 GT ISZERO PUSH2 0x4DA JUMPI DUP3 MLOAD DUP3 SSTORE SWAP2 PUSH1 0x20 ADD SWAP2 SWAP1 PUSH1 0x1 ADD SWAP1 PUSH2 0x4BF JUMP JUMPDEST JUMPDEST POP SWAP1 POP PUSH2 0x4E8 SWAP2 SWAP1 PUSH2 0x58E JUMP JUMPDEST POP SWAP1 JUMP JUMPDEST PUSH1 0x40 MLOAD DUP1 PUSH1 0x40 ADD PUSH1 0x40 MSTORE DUP1 PUSH1 0x60 DUP2 MSTORE PUSH1 0x20 ADD PUSH1 0x0 ISZERO ISZERO DUP2 MSTORE POP SWAP1 JUMP JUMPDEST DUP3 DUP1 SLOAD PUSH2 0x514 SWAP1 PUSH2 0x86C JUMP JUMPDEST SWAP1 PUSH1 0x0 MSTORE PUSH1 0x20 PUSH1 0x0 KECCAK256 SWAP1 PUSH1 0x1F ADD PUSH1 0x20 SWAP1 DIV DUP2 ADD SWAP3 DUP3 PUSH2 0x536 JUMPI PUSH1 0x0 DUP6 SSTORE PUSH2 0x57D JUMP JUMPDEST DUP3 PUSH1 0x1F LT PUSH2 0x54F JUMPI DUP1 CALLDATALOAD PUSH1 0xFF NOT AND DUP4 DUP1 ADD OR DUP6 SSTORE PUSH2 0x57D JUMP JUMPDEST DUP3 DUP1 ADD PUSH1 0x1 ADD DUP6 SSTORE DUP3 ISZERO PUSH2 0x57D JUMPI SWAP2 DUP3 ADD JUMPDEST DUP3 DUP2 GT ISZERO PUSH2 0x57C JUMPI DUP3 CALLDATALOAD DUP3 SSTORE SWAP2 PUSH1 0x20 ADD SWAP2 SWAP1 PUSH1 0x1 ADD SWAP1 PUSH2 0x561 JUMP JUMPDEST JUMPDEST POP SWAP1 POP PUSH2 0x58A SWAP2 SWAP1 PUSH2 0x58E JUMP JUMPDEST POP SWAP1 JUMP JUMPDEST JUMPDEST DUP1 DUP3 GT ISZERO PUSH2 0x5A7 JUMPI PUSH1 0x0 DUP2 PUSH1 0x0 SWAP1 SSTORE POP PUSH1 0x1 ADD PUSH2 0x58F JUMP JUMPDEST POP SWAP1 JUMP JUMPDEST PUSH1 0x0 DUP1 REVERT JUMPDEST PUSH1 0x0 DUP1 REVERT JUMPDEST PUSH1 0x0 DUP2 SWAP1 POP SWAP2 SWAP1 POP JUMP JUMPDEST PUSH2 0x5C8 DUP2 PUSH2 0x5B5 JUMP JUMPDEST DUP2 EQ PUSH2 0x5D3 JUMPI PUSH1 0x0 DUP1 REVERT JUMPDEST POP JUMP JUMPDEST PUSH1 0x0 DUP2 CALLDATALOAD SWAP1 POP PUSH2 0x5E5 DUP2 PUSH2 0x5BF JUMP JUMPDEST SWAP3 SWAP2 POP POP JUMP JUMPDEST PUSH1 0x0 PUSH1 0x20 DUP3 DUP5 SUB SLT ISZERO PUSH2 0x601 JUMPI PUSH2 0x600 PUSH2 0x5AB JUMP JUMPDEST JUMPDEST PUSH1 0x0 PUSH2 0x60F DUP5 DUP3 DUP6 ADD PUSH2 0x5D6 JUMP JUMPDEST SWAP2 POP POP SWAP3 SWAP2 POP POP JUMP JUMPDEST PUSH1 0x0 DUP2 MLOAD SWAP1 POP SWAP2 SWAP1 POP JUMP JUMPDEST PUSH1 0x0 DUP3 DUP3 MSTORE PUSH1 0x20 DUP3 ADD SWAP1 POP SWAP3 SWAP2 POP POP JUMP JUMPDEST PUSH1 0x0 JUMPDEST DUP4 DUP2 LT ISZERO PUSH2 0x652 JUMPI DUP1 DUP3 ADD MLOAD DUP2 DUP5 ADD MSTORE PUSH1 0x20 DUP2 ADD SWAP1 POP PUSH2 0x637 JUMP JUMPDEST DUP4 DUP2 GT ISZERO PUSH2 0x661 JUMPI PUSH1 0x0 DUP5 DUP5 ADD MSTORE JUMPDEST POP POP POP POP JUMP JUMPDEST PUSH1 0x0 PUSH1 0x1F NOT PUSH1 0x1F DUP4 ADD AND SWAP1 POP SWAP2 SWAP1 POP JUMP JUMPDEST PUSH1 0x0 PUSH2 0x683 DUP3 PUSH2 0x618 JUMP JUMPDEST PUSH2 0x68D DUP2 DUP6 PUSH2 0x623 JUMP JUMPDEST SWAP4 POP PUSH2 0x69D DUP2 DUP6 PUSH1 0x20 DUP7 ADD PUSH2 0x634 JUMP JUMPDEST PUSH2 0x6A6 DUP2 PUSH2 0x667 JUMP JUMPDEST DUP5 ADD SWAP2 POP POP SWAP3 SWAP2 POP POP JUMP JUMPDEST PUSH1 0x0 DUP2 ISZERO ISZERO SWAP1 POP SWAP2 SWAP1 POP JUMP JUMPDEST PUSH2 0x6C6 DUP2 PUSH2 0x6B1 JUMP JUMPDEST DUP3 MSTORE POP POP JUMP JUMPDEST PUSH1 0x0 PUSH1 0x40 DUP3 ADD SWAP1 POP DUP2 DUP2 SUB PUSH1 0x0 DUP4 ADD MSTORE PUSH2 0x6E6 DUP2 DUP6 PUSH2 0x678 JUMP JUMPDEST SWAP1 POP PUSH2 0x6F5 PUSH1 0x20 DUP4 ADD DUP5 PUSH2 0x6BD JUMP JUMPDEST SWAP4 SWAP3 POP POP POP JUMP JUMPDEST PUSH1 0x0 DUP1 REVERT JUMPDEST PUSH1 0x0 DUP1 REVERT JUMPDEST PUSH1 0x0 DUP1 REVERT JUMPDEST PUSH1 0x0 DUP1 DUP4 PUSH1 0x1F DUP5 ADD SLT PUSH2 0x721 JUMPI PUSH2 0x720 PUSH2 0x6FC JUMP JUMPDEST JUMPDEST DUP3 CALLDATALOAD SWAP1 POP PUSH8 0xFFFFFFFFFFFFFFFF DUP2 GT ISZERO PUSH2 0x73E JUMPI PUSH2 0x73D PUSH2 0x701 JUMP JUMPDEST JUMPDEST PUSH1 0x20 DUP4 ADD SWAP2 POP DUP4 PUSH1 0x1 DUP3 MUL DUP4 ADD GT ISZERO PUSH2 0x75A JUMPI PUSH2 0x759 PUSH2 0x706 JUMP JUMPDEST JUMPDEST SWAP3 POP SWAP3 SWAP1 POP JUMP JUMPDEST PUSH1 0x0 DUP1 PUSH1 0x20 DUP4 DUP6 SUB SLT ISZERO PUSH2 0x778 JUMPI PUSH2 0x777 PUSH2 0x5AB JUMP JUMPDEST JUMPDEST PUSH1 0x0 DUP4 ADD CALLDATALOAD PUSH8 0xFFFFFFFFFFFFFFFF DUP2 GT ISZERO PUSH2 0x796 JUMPI PUSH2 0x795 PUSH2 0x5B0 JUMP JUMPDEST JUMPDEST PUSH2 0x7A2 DUP6 DUP3 DUP7 ADD PUSH2 0x70B JUMP JUMPDEST SWAP3 POP SWAP3 POP POP SWAP3 POP SWAP3 SWAP1 POP JUMP JUMPDEST PUSH1 0x0 DUP1 PUSH1 0x0 PUSH1 0x40 DUP5 DUP7 SUB SLT ISZERO PUSH2 0x7C7 JUMPI PUSH2 0x7C6 PUSH2 0x5AB JUMP JUMPDEST JUMPDEST PUSH1 0x0 PUSH2 0x7D5 DUP7 DUP3 DUP8 ADD PUSH2 0x5D6 JUMP JUMPDEST SWAP4 POP POP PUSH1 0x20 DUP5 ADD CALLDATALOAD PUSH8 0xFFFFFFFFFFFFFFFF DUP2 GT ISZERO PUSH2 0x7F6 JUMPI PUSH2 0x7F5 PUSH2 0x5B0 JUMP JUMPDEST JUMPDEST PUSH2 0x802 DUP7 DUP3 DUP8 ADD PUSH2 0x70B JUMP JUMPDEST SWAP3 POP SWAP3 POP POP SWAP3 POP SWAP3 POP SWAP3 JUMP JUMPDEST PUSH32 0x4E487B7100000000000000000000000000000000000000000000000000000000 PUSH1 0x0 MSTORE PUSH1 0x32 PUSH1 0x4 MSTORE PUSH1 0x24 PUSH1 0x0 REVERT JUMPDEST PUSH32 0x4E487B7100000000000000000000000000000000000000000000000000000000 PUSH1 0x0 MSTORE PUSH1 0x22 PUSH1 0x4 MSTORE PUSH1 0x24 PUSH1 0x0 REVERT JUMPDEST PUSH1 0x0 PUSH1 0x2 DUP3 DIV SWAP1 POP PUSH1 0x1 DUP3 AND DUP1 PUSH2 0x884 JUMPI PUSH1 0x7F DUP3 AND SWAP2 POP JUMPDEST PUSH1 0x20 DUP3 LT DUP2 SUB PUSH2 0x897 JUMPI PUSH2 0x896 PUSH2 0x83D JUMP JUMPDEST JUMPDEST POP SWAP2 SWAP1 POP JUMP INVALID LOG2 PUSH5 0x6970667358 0x22 SLT KECCAK256 NOT 0xEA 0xF ADD PUSH31 0xDB7F8B6B18A07D608A59379DF088AF114563D9EC9DBC16BB862D4164736F6C PUSH4 0x4300080E STOP CALLER "
				},
				"gasEstimates": {
					"creation": {
						"codeDepositCost": "451800",
						"executionCost": "486",
						"totalCost": "452286"
					},
					"external": {
						"create(string)": "infinite",
						"get(uint256)": "infinite",
						"todos(uint256)": "infinite",
						"toggleCompleted(uint256)": "29006",
						"updateText(uint256,string)": "infinite"
					}
				},
				"methodIdentifiers": {
					"create(string)": "b6a46b3b",
					"get(uint256)": "9507d39a",
					"todos(uint256)": "bc8bc2b4",
					"toggleCompleted(uint256)": "455f5024",
					"updateText(uint256,string)": "cd111614"
				}
			},
			"storageLayout": {
				"storage": [
					{
						"astId": 10,
						"contract": "solidity-study-demo/firstPart/Todos.sol:Todos",
						"label": "todos",
						"offset": 0,
						"slot": "0",
						"type": "t_array(t_struct(Todo)6_storage)dyn_storage"
					}
				],
				"types": {
					"t_array(t_struct(Todo)6_storage)dyn_storage": {
						"base": "t_struct(Todo)6_storage",
						"encoding": "dynamic_array",
						"label": "struct Todos.Todo[]",
						"numberOfBytes": "32"
					},
					"t_bool": {
						"encoding": "inplace",
						"label": "bool",
						"numberOfBytes": "1"
					},
					"t_string_storage": {
						"encoding": "bytes",
						"label": "string",
						"numberOfBytes": "32"
					},
					"t_struct(Todo)6_storage": {
						"encoding": "inplace",
						"label": "struct Todos.Todo",
						"members": [
							{
								"astId": 3,
								"contract": "solidity-study-demo/firstPart/Todos.sol:Todos",
								"label": "text",
								"offset": 0,
								"slot": "0",
								"type": "t_string_storage"
							},
							{
								"astId": 5,
								"contract": "solidity-study-demo/firstPart/Todos.sol:Todos",
								"label": "completed",
								"offset": 0,
								"slot": "1",
								"type": "t_bool"
							}
						],
						"numberOfBytes": "64"
					}
				}
			},
			"userdoc": {
				"kind": "user",
				"methods": {},
				"version": 1
			}
		}
	}
}