{
	"solidity-study-demo/secondPart/CrowdFund.sol": {
		"CrowdFund": {
			"abi": [
				{
					"inputs": [
						{
							"internalType": "address",
							"name": "_token",
							"type": "address"
						}
					],
					"stateMutability": "nonpayable",
					"type": "constructor"
				},
				{
					"anonymous": false,
					"inputs": [
						{
							"indexed": false,
							"internalType": "uint256",
							"name": "id",
							"type": "uint256"
						}
					],
					"name": "Cancel",
					"type": "event"
				},
				{
					"anonymous": false,
					"inputs": [
						{
							"indexed": false,
							"internalType": "uint256",
							"name": "id",
							"type": "uint256"
						}
					],
					"name": "Claim",
					"type": "event"
				},
				{
					"anonymous": false,
					"inputs": [
						{
							"indexed": false,
							"internalType": "uint256",
							"name": "id",
							"type": "uint256"
						},
						{
							"indexed": true,
							"internalType": "address",
							"name": "creator",
							"type": "address"
						},
						{
							"indexed": false,
							"internalType": "uint256",
							"name": "goal",
							"type": "uint256"
						},
						{
							"indexed": false,
							"internalType": "uint32",
							"name": "startAt",
							"type": "uint32"
						},
						{
							"indexed": false,
							"internalType": "uint32",
							"name": "endAt",
							"type": "uint32"
						}
					],
					"name": "Launch",
					"type": "event"
				},
				{
					"anonymous": false,
					"inputs": [
						{
							"indexed": true,
							"internalType": "uint256",
							"name": "id",
							"type": "uint256"
						},
						{
							"indexed": true,
							"internalType": "address",
							"name": "caller",
							"type": "address"
						},
						{
							"indexed": false,
							"internalType": "uint256",
							"name": "amount",
							"type": "uint256"
						}
					],
					"name": "Pledge",
					"type": "event"
				},
				{
					"anonymous": false,
					"inputs": [
						{
							"indexed": false,
							"internalType": "uint256",
							"name": "id",
							"type": "uint256"
						},
						{
							"indexed": true,
							"internalType": "address",
							"name": "caller",
							"type": "address"
						},
						{
							"indexed": false,
							"internalType": "uint256",
							"name": "amount",
							"type": "uint256"
						}
					],
					"name": "Refund",
					"type": "event"
				},
				{
					"anonymous": false,
					"inputs": [
						{
							"indexed": true,
							"internalType": "uint256",
							"name": "id",
							"type": "uint256"
						},
						{
							"indexed": true,
							"internalType": "address",
							"name": "caller",
							"type": "address"
						},
						{
							"indexed": false,
							"internalType": "uint256",
							"name": "amount",
							"type": "uint256"
						}
					],
					"name": "Unpledge",
					"type": "event"
				},
				{
					"inputs": [
						{
							"internalType": "uint256",
							"name": "",
							"type": "uint256"
						}
					],
					"name": "campaigns",
					"outputs": [
						{
							"internalType": "address",
							"name": "creator",
							"type": "address"
						},
						{
							"internalType": "uint256",
							"name": "goal",
							"type": "uint256"
						},
						{
							"internalType": "uint256",
							"name": "pledged",
							"type": "uint256"
						},
						{
							"internalType": "uint32",
							"name": "startAt",
							"type": "uint32"
						},
						{
							"internalType": "uint32",
							"name": "endAt",
							"type": "uint32"
						},
						{
							"internalType": "bool",
							"name": "claimed",
							"type": "bool"
						}
					],
					"stateMutability": "view",
					"type": "function"
				},
				{
					"inputs": [
						{
							"internalType": "uint256",
							"name": "_id",
							"type": "uint256"
						}
					],
					"name": "cancel",
					"outputs": [],
					"stateMutability": "nonpayable",
					"type": "function"
				},
				{
					"inputs": [
						{
							"internalType": "uint256",
							"name": "_id",
							"type": "uint256"
						}
					],
					"name": "claim",
					"outputs": [],
					"stateMutability": "nonpayable",
					"type": "function"
				},
				{
					"inputs": [],
					"name": "count",
					"outputs": [
						{
							"internalType": "uint256",
							"name": "",
							"type": "uint256"
						}
					],
					"stateMutability": "view",
					"type": "function"
				},
				{
					"inputs": [
						{
							"internalType": "uint256",
							"name": "_goal",
							"type": "uint256"
						},
						{
							"internalType": "uint32",
							"name": "_startAt",
							"type": "uint32"
						},
						{
							"internalType": "uint32",
							"name": "_endAt",
							"type": "uint32"
						}
					],
					"name": "launch",
					"outputs": [],
					"stateMutability": "nonpayable",
					"type": "function"
				},
				{
					"inputs": [
						{
							"internalType": "uint256",
							"name": "",
							"type": "uint256"
						},
						{
							"internalType": "address",
							"name": "",
							"type": "address"
						}
					],
					"name": "pledagedAmount",
					"outputs": [
						{
							"internalType": "uint256",
							"name": "",
							"type": "uint256"
						}
					],
					"stateMutability": "view",
					"type": "function"
				},
				{
					"inputs": [
						{
							"internalType": "uint256",
							"name": "_id",
							"type": "uint256"
						},
						{
							"internalType": "uint256",
							"name": "_amount",
							"type": "uint256"
						}
					],
					"name": "pledge",
					"outputs": [],
					"stateMutability": "nonpayable",
					"type": "function"
				},
				{
					"inputs": [
						{
							"internalType": "uint256",
							"name": "_id",
							"type": "uint256"
						}
					],
					"name": "refund",
					"outputs": [],
					"stateMutability": "nonpayable",
					"type": "function"
				},
				{
					"inputs": [],
					"name": "token",
					"outputs": [
						{
							"internalType": "contract IERC20",
							"name": "",
							"type": "address"
						}
					],
					"stateMutability": "view",
					"type": "function"
				},
				{
					"inputs": [
						{
							"internalType": "uint256",
							"name": "_id",
							"type": "uint256"
						},
						{
							"internalType": "uint256",
							"name": "_amount",
							"type": "uint256"
						}
					],
					"name": "unpledge",
					"outputs": [],
					"stateMutability": "nonpayable",
					"type": "function"
				}
			],
			"devdoc": {
				"kind": "dev",
				"methods": {},
				"version": 1
			},
			"evm": {
				"assembly": "    /* \"solidity-study-demo/secondPart/CrowdFund.sol\":231:3760  contract CrowdFund {... */\n  mstore(0x40, 0xa0)\n    /* \"solidity-study-demo/secondPart/CrowdFund.sol\":1024:1093  constructor(address _token) {... */\n  callvalue\n  dup1\n  iszero\n  tag_1\n  jumpi\n  0x00\n  dup1\n  revert\ntag_1:\n  pop\n  mload(0x40)\n  sub(codesize, bytecodeSize)\n  dup1\n  bytecodeSize\n  dup4\n  codecopy\n  dup2\n  dup2\n  add\n  0x40\n  mstore\n  dup2\n  add\n  swap1\n  tag_2\n  swap2\n  swap1\n  tag_3\n  jump\t// in\ntag_2:\n    /* \"solidity-study-demo/secondPart/CrowdFund.sol\":1078:1084  _token */\n  dup1\n    /* \"solidity-study-demo/secondPart/CrowdFund.sol\":1063:1085  token = IERC20(_token) */\n  0xffffffffffffffffffffffffffffffffffffffff\n  and\n  0x80\n  dup2\n  0xffffffffffffffffffffffffffffffffffffffff\n  and\n  dup2\n  mstore\n  pop\n  pop\n    /* \"solidity-study-demo/secondPart/CrowdFund.sol\":1024:1093  constructor(address _token) {... */\n  pop\n    /* \"solidity-study-demo/secondPart/CrowdFund.sol\":231:3760  contract CrowdFund {... */\n  jump(tag_6)\n    /* \"#utility.yul\":88:205   */\ntag_8:\n    /* \"#utility.yul\":197:198   */\n  0x00\n    /* \"#utility.yul\":194:195   */\n  dup1\n    /* \"#utility.yul\":187:199   */\n  revert\n    /* \"#utility.yul\":334:460   */\ntag_10:\n    /* \"#utility.yul\":371:378   */\n  0x00\n    /* \"#utility.yul\":411:453   */\n  0xffffffffffffffffffffffffffffffffffffffff\n    /* \"#utility.yul\":404:409   */\n  dup3\n    /* \"#utility.yul\":400:454   */\n  and\n    /* \"#utility.yul\":389:454   */\n  swap1\n  pop\n    /* \"#utility.yul\":334:460   */\n  swap2\n  swap1\n  pop\n  jump\t// out\n    /* \"#utility.yul\":466:562   */\ntag_11:\n    /* \"#utility.yul\":503:510   */\n  0x00\n    /* \"#utility.yul\":532:556   */\n  tag_20\n    /* \"#utility.yul\":550:555   */\n  dup3\n    /* \"#utility.yul\":532:556   */\n  tag_10\n  jump\t// in\ntag_20:\n    /* \"#utility.yul\":521:556   */\n  swap1\n  pop\n    /* \"#utility.yul\":466:562   */\n  swap2\n  swap1\n  pop\n  jump\t// out\n    /* \"#utility.yul\":568:690   */\ntag_12:\n    /* \"#utility.yul\":641:665   */\n  tag_22\n    /* \"#utility.yul\":659:664   */\n  dup2\n    /* \"#utility.yul\":641:665   */\n  tag_11\n  jump\t// in\ntag_22:\n    /* \"#utility.yul\":634:639   */\n  dup2\n    /* \"#utility.yul\":631:666   */\n  eq\n    /* \"#utility.yul\":621:684   */\n  tag_23\n  jumpi\n    /* \"#utility.yul\":680:681   */\n  0x00\n    /* \"#utility.yul\":677:678   */\n  dup1\n    /* \"#utility.yul\":670:682   */\n  revert\n    /* \"#utility.yul\":621:684   */\ntag_23:\n    /* \"#utility.yul\":568:690   */\n  pop\n  jump\t// out\n    /* \"#utility.yul\":696:839   */\ntag_13:\n    /* \"#utility.yul\":753:758   */\n  0x00\n    /* \"#utility.yul\":784:790   */\n  dup2\n    /* \"#utility.yul\":778:791   */\n  mload\n    /* \"#utility.yul\":769:791   */\n  swap1\n  pop\n    /* \"#utility.yul\":800:833   */\n  tag_25\n    /* \"#utility.yul\":827:832   */\n  dup2\n    /* \"#utility.yul\":800:833   */\n  tag_12\n  jump\t// in\ntag_25:\n    /* \"#utility.yul\":696:839   */\n  swap3\n  swap2\n  pop\n  pop\n  jump\t// out\n    /* \"#utility.yul\":845:1196   */\ntag_3:\n    /* \"#utility.yul\":915:921   */\n  0x00\n    /* \"#utility.yul\":964:966   */\n  0x20\n    /* \"#utility.yul\":952:961   */\n  dup3\n    /* \"#utility.yul\":943:950   */\n  dup5\n    /* \"#utility.yul\":939:962   */\n  sub\n    /* \"#utility.yul\":935:967   */\n  slt\n    /* \"#utility.yul\":932:1051   */\n  iszero\n  tag_27\n  jumpi\n    /* \"#utility.yul\":970:1049   */\n  tag_28\n  tag_8\n  jump\t// in\ntag_28:\n    /* \"#utility.yul\":932:1051   */\ntag_27:\n    /* \"#utility.yul\":1090:1091   */\n  0x00\n    /* \"#utility.yul\":1115:1179   */\n  tag_29\n    /* \"#utility.yul\":1171:1178   */\n  dup5\n    /* \"#utility.yul\":1162:1168   */\n  dup3\n    /* \"#utility.yul\":1151:1160   */\n  dup6\n    /* \"#utility.yul\":1147:1169   */\n  add\n    /* \"#utility.yul\":1115:1179   */\n  tag_13\n  jump\t// in\ntag_29:\n    /* \"#utility.yul\":1105:1179   */\n  swap2\n  pop\n    /* \"#utility.yul\":1061:1189   */\n  pop\n    /* \"#utility.yul\":845:1196   */\n  swap3\n  swap2\n  pop\n  pop\n  jump\t// out\n    /* \"solidity-study-demo/secondPart/CrowdFund.sol\":231:3760  contract CrowdFund {... */\ntag_6:\n  mload(0x80)\n  codecopy(0x00, dataOffset(sub_0), dataSize(sub_0))\n  0x00\n  assignImmutable(\"0x5392f7a671cdf89487ccf8e3646ea8f7570009490584962db6fa064c6e4ad499\")\n  return(0x00, dataSize(sub_0))\nstop\n\nsub_0: assembly {\n        /* \"solidity-study-demo/secondPart/CrowdFund.sol\":231:3760  contract CrowdFund {... */\n      mstore(0x40, 0x80)\n      callvalue\n      dup1\n      iszero\n      tag_1\n      jumpi\n      0x00\n      dup1\n      revert\n    tag_1:\n      pop\n      jumpi(tag_2, lt(calldatasize, 0x04))\n      shr(0xe0, calldataload(0x00))\n      dup1\n      0x40e58ee5\n      gt\n      tag_13\n      jumpi\n      dup1\n      0x40e58ee5\n      eq\n      tag_8\n      jumpi\n      dup1\n      0x711853ab\n      eq\n      tag_9\n      jumpi\n      dup1\n      0xfc0c546a\n      eq\n      tag_10\n      jumpi\n      dup1\n      0xfde327be\n      eq\n      tag_11\n      jumpi\n      dup1\n      0xfe9d561b\n      eq\n      tag_12\n      jumpi\n      jump(tag_2)\n    tag_13:\n      dup1\n      0x06661abd\n      eq\n      tag_3\n      jumpi\n      dup1\n      0x141961bc\n      eq\n      tag_4\n      jumpi\n      dup1\n      0x278ecde1\n      eq\n      tag_5\n      jumpi\n      dup1\n      0x2c63f146\n      eq\n      tag_6\n      jumpi\n      dup1\n      0x379607f5\n      eq\n      tag_7\n      jumpi\n    tag_2:\n      0x00\n      dup1\n      revert\n        /* \"solidity-study-demo/secondPart/CrowdFund.sol\":879:896  uint public count */\n    tag_3:\n      tag_14\n      tag_15\n      jump\t// in\n    tag_14:\n      mload(0x40)\n      tag_16\n      swap2\n      swap1\n      tag_17\n      jump\t// in\n    tag_16:\n      mload(0x40)\n      dup1\n      swap2\n      sub\n      swap1\n      return\n        /* \"solidity-study-demo/secondPart/CrowdFund.sol\":903:945  mapping(uint => Campaign) public campaigns */\n    tag_4:\n      tag_18\n      0x04\n      dup1\n      calldatasize\n      sub\n      dup2\n      add\n      swap1\n      tag_19\n      swap2\n      swap1\n      tag_20\n      jump\t// in\n    tag_19:\n      tag_21\n      jump\t// in\n    tag_18:\n      mload(0x40)\n      tag_22\n      swap7\n      swap6\n      swap5\n      swap4\n      swap3\n      swap2\n      swap1\n      tag_23\n      jump\t// in\n    tag_22:\n      mload(0x40)\n      dup1\n      swap2\n      sub\n      swap1\n      return\n        /* \"solidity-study-demo/secondPart/CrowdFund.sol\":3339:3757  function refund(uint _id) external {... */\n    tag_5:\n      tag_24\n      0x04\n      dup1\n      calldatasize\n      sub\n      dup2\n      add\n      swap1\n      tag_25\n      swap2\n      swap1\n      tag_20\n      jump\t// in\n    tag_25:\n      tag_26\n      jump\t// in\n    tag_24:\n      stop\n        /* \"solidity-study-demo/secondPart/CrowdFund.sol\":1101:1734  function launch(... */\n    tag_6:\n      tag_27\n      0x04\n      dup1\n      calldatasize\n      sub\n      dup2\n      add\n      swap1\n      tag_28\n      swap2\n      swap1\n      tag_29\n      jump\t// in\n    tag_28:\n      tag_30\n      jump\t// in\n    tag_27:\n      stop\n        /* \"solidity-study-demo/secondPart/CrowdFund.sol\":2863:3331  function claim(uint _id) external {... */\n    tag_7:\n      tag_31\n      0x04\n      dup1\n      calldatasize\n      sub\n      dup2\n      add\n      swap1\n      tag_32\n      swap2\n      swap1\n      tag_20\n      jump\t// in\n    tag_32:\n      tag_33\n      jump\t// in\n    tag_31:\n      stop\n        /* \"solidity-study-demo/secondPart/CrowdFund.sol\":1742:2028  function cancel(uint _id) external {... */\n    tag_8:\n      tag_34\n      0x04\n      dup1\n      calldatasize\n      sub\n      dup2\n      add\n      swap1\n      tag_35\n      swap2\n      swap1\n      tag_20\n      jump\t// in\n    tag_35:\n      tag_36\n      jump\t// in\n    tag_34:\n      stop\n        /* \"solidity-study-demo/secondPart/CrowdFund.sol\":2492:2855  function unpledge(uint _id, uint _amount) external {... */\n    tag_9:\n      tag_37\n      0x04\n      dup1\n      calldatasize\n      sub\n      dup2\n      add\n      swap1\n      tag_38\n      swap2\n      swap1\n      tag_39\n      jump\t// in\n    tag_38:\n      tag_40\n      jump\t// in\n    tag_37:\n      stop\n        /* \"solidity-study-demo/secondPart/CrowdFund.sol\":843:872  IERC20 public immutable token */\n    tag_10:\n      tag_41\n      tag_42\n      jump\t// in\n    tag_41:\n      mload(0x40)\n      tag_43\n      swap2\n      swap1\n      tag_44\n      jump\t// in\n    tag_43:\n      mload(0x40)\n      dup1\n      swap2\n      sub\n      swap1\n      return\n        /* \"solidity-study-demo/secondPart/CrowdFund.sol\":2036:2484  function pledge(uint _id, uint _amount) external {... */\n    tag_11:\n      tag_45\n      0x04\n      dup1\n      calldatasize\n      sub\n      dup2\n      add\n      swap1\n      tag_46\n      swap2\n      swap1\n      tag_39\n      jump\t// in\n    tag_46:\n      tag_47\n      jump\t// in\n    tag_45:\n      stop\n        /* \"solidity-study-demo/secondPart/CrowdFund.sol\":952:1015  mapping(uint => mapping(address => uint)) public pledagedAmount */\n    tag_12:\n      tag_48\n      0x04\n      dup1\n      calldatasize\n      sub\n      dup2\n      add\n      swap1\n      tag_49\n      swap2\n      swap1\n      tag_50\n      jump\t// in\n    tag_49:\n      tag_51\n      jump\t// in\n    tag_48:\n      mload(0x40)\n      tag_52\n      swap2\n      swap1\n      tag_17\n      jump\t// in\n    tag_52:\n      mload(0x40)\n      dup1\n      swap2\n      sub\n      swap1\n      return\n        /* \"solidity-study-demo/secondPart/CrowdFund.sol\":879:896  uint public count */\n    tag_15:\n      sload(0x00)\n      dup2\n      jump\t// out\n        /* \"solidity-study-demo/secondPart/CrowdFund.sol\":903:945  mapping(uint => Campaign) public campaigns */\n    tag_21:\n      mstore(0x20, 0x01)\n      dup1\n      0x00\n      mstore\n      keccak256(0x00, 0x40)\n      0x00\n      swap2\n      pop\n      swap1\n      pop\n      dup1\n      0x00\n      add\n      0x00\n      swap1\n      sload\n      swap1\n      0x0100\n      exp\n      swap1\n      div\n      0xffffffffffffffffffffffffffffffffffffffff\n      and\n      swap1\n      dup1\n      0x01\n      add\n      sload\n      swap1\n      dup1\n      0x02\n      add\n      sload\n      swap1\n      dup1\n      0x03\n      add\n      0x00\n      swap1\n      sload\n      swap1\n      0x0100\n      exp\n      swap1\n      div\n      0xffffffff\n      and\n      swap1\n      dup1\n      0x03\n      add\n      0x04\n      swap1\n      sload\n      swap1\n      0x0100\n      exp\n      swap1\n      div\n      0xffffffff\n      and\n      swap1\n      dup1\n      0x03\n      add\n      0x08\n      swap1\n      sload\n      swap1\n      0x0100\n      exp\n      swap1\n      div\n      0xff\n      and\n      swap1\n      pop\n      dup7\n      jump\t// out\n        /* \"solidity-study-demo/secondPart/CrowdFund.sol\":3339:3757  function refund(uint _id) external {... */\n    tag_26:\n        /* \"solidity-study-demo/secondPart/CrowdFund.sol\":3385:3409  Campaign memory campaign */\n      0x00\n        /* \"solidity-study-demo/secondPart/CrowdFund.sol\":3412:3421  campaigns */\n      0x01\n        /* \"solidity-study-demo/secondPart/CrowdFund.sol\":3412:3426  campaigns[_id] */\n      0x00\n        /* \"solidity-study-demo/secondPart/CrowdFund.sol\":3422:3425  _id */\n      dup4\n        /* \"solidity-study-demo/secondPart/CrowdFund.sol\":3412:3426  campaigns[_id] */\n      dup2\n      mstore\n      0x20\n      add\n      swap1\n      dup2\n      mstore\n      0x20\n      add\n      0x00\n      keccak256\n        /* \"solidity-study-demo/secondPart/CrowdFund.sol\":3385:3426  Campaign memory campaign = campaigns[_id] */\n      mload(0x40)\n      dup1\n      0xc0\n      add\n      0x40\n      mstore\n      swap1\n      dup2\n      0x00\n      dup3\n      add\n      0x00\n      swap1\n      sload\n      swap1\n      0x0100\n      exp\n      swap1\n      div\n      0xffffffffffffffffffffffffffffffffffffffff\n      and\n      0xffffffffffffffffffffffffffffffffffffffff\n      and\n      0xffffffffffffffffffffffffffffffffffffffff\n      and\n      dup2\n      mstore\n      0x20\n      add\n      0x01\n      dup3\n      add\n      sload\n      dup2\n      mstore\n      0x20\n      add\n      0x02\n      dup3\n      add\n      sload\n      dup2\n      mstore\n      0x20\n      add\n      0x03\n      dup3\n      add\n      0x00\n      swap1\n      sload\n      swap1\n      0x0100\n      exp\n      swap1\n      div\n      0xffffffff\n      and\n      0xffffffff\n      and\n      0xffffffff\n      and\n      dup2\n      mstore\n      0x20\n      add\n      0x03\n      dup3\n      add\n      0x04\n      swap1\n      sload\n      swap1\n      0x0100\n      exp\n      swap1\n      div\n      0xffffffff\n      and\n      0xffffffff\n      and\n      0xffffffff\n      and\n      dup2\n      mstore\n      0x20\n      add\n      0x03\n      dup3\n      add\n      0x08\n      swap1\n      sload\n      swap1\n      0x0100\n      exp\n      swap1\n      div\n      0xff\n      and\n      iszero\n      iszero\n      iszero\n      iszero\n      dup2\n      mstore\n      pop\n      pop\n      swap1\n      pop\n        /* \"solidity-study-demo/secondPart/CrowdFund.sol\":3463:3471  campaign */\n      dup1\n        /* \"solidity-study-demo/secondPart/CrowdFund.sol\":3463:3477  campaign.endAt */\n      0x80\n      add\n      mload\n        /* \"solidity-study-demo/secondPart/CrowdFund.sol\":3445:3477  block.timestamp > campaign.endAt */\n      0xffffffff\n      and\n        /* \"solidity-study-demo/secondPart/CrowdFund.sol\":3445:3460  block.timestamp */\n      timestamp\n        /* \"solidity-study-demo/secondPart/CrowdFund.sol\":3445:3477  block.timestamp > campaign.endAt */\n      gt\n        /* \"solidity-study-demo/secondPart/CrowdFund.sol\":3437:3491  require(block.timestamp > campaign.endAt, \"not ended\") */\n      tag_54\n      jumpi\n      mload(0x40)\n      0x08c379a000000000000000000000000000000000000000000000000000000000\n      dup2\n      mstore\n      0x04\n      add\n      tag_55\n      swap1\n      tag_56\n      jump\t// in\n    tag_55:\n      mload(0x40)\n      dup1\n      swap2\n      sub\n      swap1\n      revert\n    tag_54:\n        /* \"solidity-study-demo/secondPart/CrowdFund.sol\":3529:3537  campaign */\n      dup1\n        /* \"solidity-study-demo/secondPart/CrowdFund.sol\":3529:3542  campaign.goal */\n      0x20\n      add\n      mload\n        /* \"solidity-study-demo/secondPart/CrowdFund.sol\":3510:3518  campaign */\n      dup2\n        /* \"solidity-study-demo/secondPart/CrowdFund.sol\":3510:3526  campaign.pledged */\n      0x40\n      add\n      mload\n        /* \"solidity-study-demo/secondPart/CrowdFund.sol\":3510:3542  campaign.pledged < campaign.goal */\n      lt\n        /* \"solidity-study-demo/secondPart/CrowdFund.sol\":3502:3562  require(campaign.pledged < campaign.goal, \"pledged >= goal\") */\n      tag_57\n      jumpi\n      mload(0x40)\n      0x08c379a000000000000000000000000000000000000000000000000000000000\n      dup2\n      mstore\n      0x04\n      add\n      tag_58\n      swap1\n      tag_59\n      jump\t// in\n    tag_58:\n      mload(0x40)\n      dup1\n      swap2\n      sub\n      swap1\n      revert\n    tag_57:\n        /* \"solidity-study-demo/secondPart/CrowdFund.sol\":3575:3583  uint bal */\n      0x00\n        /* \"solidity-study-demo/secondPart/CrowdFund.sol\":3586:3600  pledagedAmount */\n      0x02\n        /* \"solidity-study-demo/secondPart/CrowdFund.sol\":3586:3605  pledagedAmount[_id] */\n      0x00\n        /* \"solidity-study-demo/secondPart/CrowdFund.sol\":3601:3604  _id */\n      dup5\n        /* \"solidity-study-demo/secondPart/CrowdFund.sol\":3586:3605  pledagedAmount[_id] */\n      dup2\n      mstore\n      0x20\n      add\n      swap1\n      dup2\n      mstore\n      0x20\n      add\n      0x00\n      keccak256\n        /* \"solidity-study-demo/secondPart/CrowdFund.sol\":3586:3617  pledagedAmount[_id][msg.sender] */\n      0x00\n        /* \"solidity-study-demo/secondPart/CrowdFund.sol\":3606:3616  msg.sender */\n      caller\n        /* \"solidity-study-demo/secondPart/CrowdFund.sol\":3586:3617  pledagedAmount[_id][msg.sender] */\n      0xffffffffffffffffffffffffffffffffffffffff\n      and\n      0xffffffffffffffffffffffffffffffffffffffff\n      and\n      dup2\n      mstore\n      0x20\n      add\n      swap1\n      dup2\n      mstore\n      0x20\n      add\n      0x00\n      keccak256\n      sload\n        /* \"solidity-study-demo/secondPart/CrowdFund.sol\":3575:3617  uint bal = pledagedAmount[_id][msg.sender] */\n      swap1\n      pop\n        /* \"solidity-study-demo/secondPart/CrowdFund.sol\":3662:3663  0 */\n      0x00\n        /* \"solidity-study-demo/secondPart/CrowdFund.sol\":3628:3642  pledagedAmount */\n      0x02\n        /* \"solidity-study-demo/secondPart/CrowdFund.sol\":3628:3647  pledagedAmount[_id] */\n      0x00\n        /* \"solidity-study-demo/secondPart/CrowdFund.sol\":3643:3646  _id */\n      dup6\n        /* \"solidity-study-demo/secondPart/CrowdFund.sol\":3628:3647  pledagedAmount[_id] */\n      dup2\n      mstore\n      0x20\n      add\n      swap1\n      dup2\n      mstore\n      0x20\n      add\n      0x00\n      keccak256\n        /* \"solidity-study-demo/secondPart/CrowdFund.sol\":3628:3659  pledagedAmount[_id][msg.sender] */\n      0x00\n        /* \"solidity-study-demo/secondPart/CrowdFund.sol\":3648:3658  msg.sender */\n      caller\n        /* \"solidity-study-demo/secondPart/CrowdFund.sol\":3628:3659  pledagedAmount[_id][msg.sender] */\n      0xffffffffffffffffffffffffffffffffffffffff\n      and\n      0xffffffffffffffffffffffffffffffffffffffff\n      and\n      dup2\n      mstore\n      0x20\n      add\n      swap1\n      dup2\n      mstore\n      0x20\n      add\n      0x00\n      keccak256\n        /* \"solidity-study-demo/secondPart/CrowdFund.sol\":3628:3663  pledagedAmount[_id][msg.sender] = 0 */\n      dup2\n      swap1\n      sstore\n      pop\n        /* \"solidity-study-demo/secondPart/CrowdFund.sol\":3674:3679  token */\n      immutable(\"0x5392f7a671cdf89487ccf8e3646ea8f7570009490584962db6fa064c6e4ad499\")\n        /* \"solidity-study-demo/secondPart/CrowdFund.sol\":3674:3688  token.transfer */\n      0xffffffffffffffffffffffffffffffffffffffff\n      and\n      0xa9059cbb\n        /* \"solidity-study-demo/secondPart/CrowdFund.sol\":3689:3699  msg.sender */\n      caller\n        /* \"solidity-study-demo/secondPart/CrowdFund.sol\":3701:3704  bal */\n      dup4\n        /* \"solidity-study-demo/secondPart/CrowdFund.sol\":3674:3705  token.transfer(msg.sender, bal) */\n      mload(0x40)\n      dup4\n      0xffffffff\n      and\n      0xe0\n      shl\n      dup2\n      mstore\n      0x04\n      add\n      tag_60\n      swap3\n      swap2\n      swap1\n      tag_61\n      jump\t// in\n    tag_60:\n      0x20\n      mload(0x40)\n      dup1\n      dup4\n      sub\n      dup2\n      0x00\n      dup8\n      gas\n      call\n      iszero\n      dup1\n      iszero\n      tag_63\n      jumpi\n      returndatasize\n      0x00\n      dup1\n      returndatacopy\n      revert(0x00, returndatasize)\n    tag_63:\n      pop\n      pop\n      pop\n      pop\n      mload(0x40)\n      returndatasize\n      not(0x1f)\n      0x1f\n      dup3\n      add\n      and\n      dup3\n      add\n      dup1\n      0x40\n      mstore\n      pop\n      dup2\n      add\n      swap1\n      tag_64\n      swap2\n      swap1\n      tag_65\n      jump\t// in\n    tag_64:\n      pop\n        /* \"solidity-study-demo/secondPart/CrowdFund.sol\":3733:3743  msg.sender */\n      caller\n        /* \"solidity-study-demo/secondPart/CrowdFund.sol\":3721:3749  Refund(_id, msg.sender, bal) */\n      0xffffffffffffffffffffffffffffffffffffffff\n      and\n      0x21e12a7cad0da5928167e1084ea4d5fdf8d9af66657a2543a9ac76a0ca081477\n        /* \"solidity-study-demo/secondPart/CrowdFund.sol\":3728:3731  _id */\n      dup5\n        /* \"solidity-study-demo/secondPart/CrowdFund.sol\":3745:3748  bal */\n      dup4\n        /* \"solidity-study-demo/secondPart/CrowdFund.sol\":3721:3749  Refund(_id, msg.sender, bal) */\n      mload(0x40)\n      tag_66\n      swap3\n      swap2\n      swap1\n      tag_67\n      jump\t// in\n    tag_66:\n      mload(0x40)\n      dup1\n      swap2\n      sub\n      swap1\n      log2\n        /* \"solidity-study-demo/secondPart/CrowdFund.sol\":3374:3757  {... */\n      pop\n      pop\n        /* \"solidity-study-demo/secondPart/CrowdFund.sol\":3339:3757  function refund(uint _id) external {... */\n      pop\n      jump\t// out\n        /* \"solidity-study-demo/secondPart/CrowdFund.sol\":1101:1734  function launch(... */\n    tag_30:\n        /* \"solidity-study-demo/secondPart/CrowdFund.sol\":1235:1250  block.timestamp */\n      timestamp\n        /* \"solidity-study-demo/secondPart/CrowdFund.sol\":1223:1231  _startAt */\n      dup3\n        /* \"solidity-study-demo/secondPart/CrowdFund.sol\":1223:1250  _startAt >= block.timestamp */\n      0xffffffff\n      and\n      lt\n      iszero\n        /* \"solidity-study-demo/secondPart/CrowdFund.sol\":1215:1269  require(_startAt >= block.timestamp, \"start at < now\") */\n      tag_69\n      jumpi\n      mload(0x40)\n      0x08c379a000000000000000000000000000000000000000000000000000000000\n      dup2\n      mstore\n      0x04\n      add\n      tag_70\n      swap1\n      tag_71\n      jump\t// in\n    tag_70:\n      mload(0x40)\n      dup1\n      swap2\n      sub\n      swap1\n      revert\n    tag_69:\n        /* \"solidity-study-demo/secondPart/CrowdFund.sol\":1298:1306  _startAt */\n      dup2\n        /* \"solidity-study-demo/secondPart/CrowdFund.sol\":1288:1306  _endAt >= _startAt */\n      0xffffffff\n      and\n        /* \"solidity-study-demo/secondPart/CrowdFund.sol\":1288:1294  _endAt */\n      dup2\n        /* \"solidity-study-demo/secondPart/CrowdFund.sol\":1288:1306  _endAt >= _startAt */\n      0xffffffff\n      and\n      lt\n      iszero\n        /* \"solidity-study-demo/secondPart/CrowdFund.sol\":1280:1328  require(_endAt >= _startAt, \"end at < start at\") */\n      tag_72\n      jumpi\n      mload(0x40)\n      0x08c379a000000000000000000000000000000000000000000000000000000000\n      dup2\n      mstore\n      0x04\n      add\n      tag_73\n      swap1\n      tag_74\n      jump\t// in\n    tag_73:\n      mload(0x40)\n      dup1\n      swap2\n      sub\n      swap1\n      revert\n    tag_72:\n        /* \"solidity-study-demo/secondPart/CrowdFund.sol\":1375:1382  90 days */\n      0x76a700\n        /* \"solidity-study-demo/secondPart/CrowdFund.sol\":1357:1372  block.timestamp */\n      timestamp\n        /* \"solidity-study-demo/secondPart/CrowdFund.sol\":1357:1382  block.timestamp + 90 days */\n      tag_75\n      swap2\n      swap1\n      tag_76\n      jump\t// in\n    tag_75:\n        /* \"solidity-study-demo/secondPart/CrowdFund.sol\":1347:1353  _endAt */\n      dup2\n        /* \"solidity-study-demo/secondPart/CrowdFund.sol\":1347:1382  _endAt <= block.timestamp + 90 days */\n      0xffffffff\n      and\n      gt\n      iszero\n        /* \"solidity-study-demo/secondPart/CrowdFund.sol\":1339:1408  require(_endAt <= block.timestamp + 90 days, \"end at > max duration\") */\n      tag_77\n      jumpi\n      mload(0x40)\n      0x08c379a000000000000000000000000000000000000000000000000000000000\n      dup2\n      mstore\n      0x04\n      add\n      tag_78\n      swap1\n      tag_79\n      jump\t// in\n    tag_78:\n      mload(0x40)\n      dup1\n      swap2\n      sub\n      swap1\n      revert\n    tag_77:\n        /* \"solidity-study-demo/secondPart/CrowdFund.sol\":1428:1429  1 */\n      0x01\n        /* \"solidity-study-demo/secondPart/CrowdFund.sol\":1419:1424  count */\n      0x00\n      dup1\n        /* \"solidity-study-demo/secondPart/CrowdFund.sol\":1419:1429  count += 1 */\n      dup3\n      dup3\n      sload\n      tag_80\n      swap2\n      swap1\n      tag_76\n      jump\t// in\n    tag_80:\n      swap3\n      pop\n      pop\n      dup2\n      swap1\n      sstore\n      pop\n        /* \"solidity-study-demo/secondPart/CrowdFund.sol\":1459:1660  Campaign({... */\n      mload(0x40)\n      dup1\n      0xc0\n      add\n      0x40\n      mstore\n      dup1\n        /* \"solidity-study-demo/secondPart/CrowdFund.sol\":1493:1503  msg.sender */\n      caller\n        /* \"solidity-study-demo/secondPart/CrowdFund.sol\":1459:1660  Campaign({... */\n      0xffffffffffffffffffffffffffffffffffffffff\n      and\n      dup2\n      mstore\n      0x20\n      add\n        /* \"solidity-study-demo/secondPart/CrowdFund.sol\":1525:1530  _goal */\n      dup5\n        /* \"solidity-study-demo/secondPart/CrowdFund.sol\":1459:1660  Campaign({... */\n      dup2\n      mstore\n      0x20\n      add\n        /* \"solidity-study-demo/secondPart/CrowdFund.sol\":1555:1556  0 */\n      0x00\n        /* \"solidity-study-demo/secondPart/CrowdFund.sol\":1459:1660  Campaign({... */\n      dup2\n      mstore\n      0x20\n      add\n        /* \"solidity-study-demo/secondPart/CrowdFund.sol\":1581:1589  _startAt */\n      dup4\n        /* \"solidity-study-demo/secondPart/CrowdFund.sol\":1459:1660  Campaign({... */\n      0xffffffff\n      and\n      dup2\n      mstore\n      0x20\n      add\n        /* \"solidity-study-demo/secondPart/CrowdFund.sol\":1612:1618  _endAt */\n      dup3\n        /* \"solidity-study-demo/secondPart/CrowdFund.sol\":1459:1660  Campaign({... */\n      0xffffffff\n      and\n      dup2\n      mstore\n      0x20\n      add\n        /* \"solidity-study-demo/secondPart/CrowdFund.sol\":1643:1648  false */\n      0x00\n        /* \"solidity-study-demo/secondPart/CrowdFund.sol\":1459:1660  Campaign({... */\n      iszero\n      iszero\n      dup2\n      mstore\n      pop\n        /* \"solidity-study-demo/secondPart/CrowdFund.sol\":1440:1449  campaigns */\n      0x01\n        /* \"solidity-study-demo/secondPart/CrowdFund.sol\":1440:1456  campaigns[count] */\n      0x00\n        /* \"solidity-study-demo/secondPart/CrowdFund.sol\":1450:1455  count */\n      dup1\n      sload\n        /* \"solidity-study-demo/secondPart/CrowdFund.sol\":1440:1456  campaigns[count] */\n      dup2\n      mstore\n      0x20\n      add\n      swap1\n      dup2\n      mstore\n      0x20\n      add\n      0x00\n      keccak256\n        /* \"solidity-study-demo/secondPart/CrowdFund.sol\":1440:1660  campaigns[count] = Campaign({... */\n      0x00\n      dup3\n      add\n      mload\n      dup2\n      0x00\n      add\n      exp(0x0100, 0x00)\n      dup2\n      sload\n      dup2\n      0xffffffffffffffffffffffffffffffffffffffff\n      mul\n      not\n      and\n      swap1\n      dup4\n      0xffffffffffffffffffffffffffffffffffffffff\n      and\n      mul\n      or\n      swap1\n      sstore\n      pop\n      0x20\n      dup3\n      add\n      mload\n      dup2\n      0x01\n      add\n      sstore\n      0x40\n      dup3\n      add\n      mload\n      dup2\n      0x02\n      add\n      sstore\n      0x60\n      dup3\n      add\n      mload\n      dup2\n      0x03\n      add\n      exp(0x0100, 0x00)\n      dup2\n      sload\n      dup2\n      0xffffffff\n      mul\n      not\n      and\n      swap1\n      dup4\n      0xffffffff\n      and\n      mul\n      or\n      swap1\n      sstore\n      pop\n      0x80\n      dup3\n      add\n      mload\n      dup2\n      0x03\n      add\n      exp(0x0100, 0x04)\n      dup2\n      sload\n      dup2\n      0xffffffff\n      mul\n      not\n      and\n      swap1\n      dup4\n      0xffffffff\n      and\n      mul\n      or\n      swap1\n      sstore\n      pop\n      0xa0\n      dup3\n      add\n      mload\n      dup2\n      0x03\n      add\n      exp(0x0100, 0x08)\n      dup2\n      sload\n      dup2\n      0xff\n      mul\n      not\n      and\n      swap1\n      dup4\n      iszero\n      iszero\n      mul\n      or\n      swap1\n      sstore\n      pop\n      swap1\n      pop\n      pop\n        /* \"solidity-study-demo/secondPart/CrowdFund.sol\":1690:1700  msg.sender */\n      caller\n        /* \"solidity-study-demo/secondPart/CrowdFund.sol\":1676:1726  Launch(count, msg.sender, _goal, _startAt, _endAt) */\n      0xffffffffffffffffffffffffffffffffffffffff\n      and\n      0x0601cd0d650b473037e838a2696d41e654433d065b3f56b28d1d3302e44a304f\n        /* \"solidity-study-demo/secondPart/CrowdFund.sol\":1683:1688  count */\n      sload(0x00)\n        /* \"solidity-study-demo/secondPart/CrowdFund.sol\":1702:1707  _goal */\n      dup6\n        /* \"solidity-study-demo/secondPart/CrowdFund.sol\":1709:1717  _startAt */\n      dup6\n        /* \"solidity-study-demo/secondPart/CrowdFund.sol\":1719:1725  _endAt */\n      dup6\n        /* \"solidity-study-demo/secondPart/CrowdFund.sol\":1676:1726  Launch(count, msg.sender, _goal, _startAt, _endAt) */\n      mload(0x40)\n      tag_81\n      swap5\n      swap4\n      swap3\n      swap2\n      swap1\n      tag_82\n      jump\t// in\n    tag_81:\n      mload(0x40)\n      dup1\n      swap2\n      sub\n      swap1\n      log2\n        /* \"solidity-study-demo/secondPart/CrowdFund.sol\":1101:1734  function launch(... */\n      pop\n      pop\n      pop\n      jump\t// out\n        /* \"solidity-study-demo/secondPart/CrowdFund.sol\":2863:3331  function claim(uint _id) external {... */\n    tag_33:\n        /* \"solidity-study-demo/secondPart/CrowdFund.sol\":2908:2933  Campaign storage campaign */\n      0x00\n        /* \"solidity-study-demo/secondPart/CrowdFund.sol\":2936:2945  campaigns */\n      0x01\n        /* \"solidity-study-demo/secondPart/CrowdFund.sol\":2936:2950  campaigns[_id] */\n      0x00\n        /* \"solidity-study-demo/secondPart/CrowdFund.sol\":2946:2949  _id */\n      dup4\n        /* \"solidity-study-demo/secondPart/CrowdFund.sol\":2936:2950  campaigns[_id] */\n      dup2\n      mstore\n      0x20\n      add\n      swap1\n      dup2\n      mstore\n      0x20\n      add\n      0x00\n      keccak256\n        /* \"solidity-study-demo/secondPart/CrowdFund.sol\":2908:2950  Campaign storage campaign = campaigns[_id] */\n      swap1\n      pop\n        /* \"solidity-study-demo/secondPart/CrowdFund.sol\":2989:2999  msg.sender */\n      caller\n        /* \"solidity-study-demo/secondPart/CrowdFund.sol\":2969:2999  campaign.creator == msg.sender */\n      0xffffffffffffffffffffffffffffffffffffffff\n      and\n        /* \"solidity-study-demo/secondPart/CrowdFund.sol\":2969:2977  campaign */\n      dup2\n        /* \"solidity-study-demo/secondPart/CrowdFund.sol\":2969:2985  campaign.creator */\n      0x00\n      add\n      0x00\n      swap1\n      sload\n      swap1\n      0x0100\n      exp\n      swap1\n      div\n      0xffffffffffffffffffffffffffffffffffffffff\n      and\n        /* \"solidity-study-demo/secondPart/CrowdFund.sol\":2969:2999  campaign.creator == msg.sender */\n      0xffffffffffffffffffffffffffffffffffffffff\n      and\n      eq\n        /* \"solidity-study-demo/secondPart/CrowdFund.sol\":2961:3015  require(campaign.creator == msg.sender, \"not creator\") */\n      tag_84\n      jumpi\n      mload(0x40)\n      0x08c379a000000000000000000000000000000000000000000000000000000000\n      dup2\n      mstore\n      0x04\n      add\n      tag_85\n      swap1\n      tag_86\n      jump\t// in\n    tag_85:\n      mload(0x40)\n      dup1\n      swap2\n      sub\n      swap1\n      revert\n    tag_84:\n        /* \"solidity-study-demo/secondPart/CrowdFund.sol\":3052:3060  campaign */\n      dup1\n        /* \"solidity-study-demo/secondPart/CrowdFund.sol\":3052:3066  campaign.endAt */\n      0x03\n      add\n      0x04\n      swap1\n      sload\n      swap1\n      0x0100\n      exp\n      swap1\n      div\n      0xffffffff\n      and\n        /* \"solidity-study-demo/secondPart/CrowdFund.sol\":3034:3066  block.timestamp > campaign.endAt */\n      0xffffffff\n      and\n        /* \"solidity-study-demo/secondPart/CrowdFund.sol\":3034:3049  block.timestamp */\n      timestamp\n        /* \"solidity-study-demo/secondPart/CrowdFund.sol\":3034:3066  block.timestamp > campaign.endAt */\n      gt\n        /* \"solidity-study-demo/secondPart/CrowdFund.sol\":3026:3081  require(block.timestamp > campaign.endAt, \"not endede\") */\n      tag_87\n      jumpi\n      mload(0x40)\n      0x08c379a000000000000000000000000000000000000000000000000000000000\n      dup2\n      mstore\n      0x04\n      add\n      tag_88\n      swap1\n      tag_89\n      jump\t// in\n    tag_88:\n      mload(0x40)\n      dup1\n      swap2\n      sub\n      swap1\n      revert\n    tag_87:\n        /* \"solidity-study-demo/secondPart/CrowdFund.sol\":3120:3128  campaign */\n      dup1\n        /* \"solidity-study-demo/secondPart/CrowdFund.sol\":3120:3133  campaign.goal */\n      0x01\n      add\n      sload\n        /* \"solidity-study-demo/secondPart/CrowdFund.sol\":3100:3108  campaign */\n      dup2\n        /* \"solidity-study-demo/secondPart/CrowdFund.sol\":3100:3116  campaign.pledged */\n      0x02\n      add\n      sload\n        /* \"solidity-study-demo/secondPart/CrowdFund.sol\":3100:3133  campaign.pledged >= campaign.goal */\n      lt\n      iszero\n        /* \"solidity-study-demo/secondPart/CrowdFund.sol\":3092:3152  require(campaign.pledged >= campaign.goal, \"pledged < goal\") */\n      tag_90\n      jumpi\n      mload(0x40)\n      0x08c379a000000000000000000000000000000000000000000000000000000000\n      dup2\n      mstore\n      0x04\n      add\n      tag_91\n      swap1\n      tag_92\n      jump\t// in\n    tag_91:\n      mload(0x40)\n      dup1\n      swap2\n      sub\n      swap1\n      revert\n    tag_90:\n        /* \"solidity-study-demo/secondPart/CrowdFund.sol\":3172:3180  campaign */\n      dup1\n        /* \"solidity-study-demo/secondPart/CrowdFund.sol\":3172:3188  campaign.claimed */\n      0x03\n      add\n      0x08\n      swap1\n      sload\n      swap1\n      0x0100\n      exp\n      swap1\n      div\n      0xff\n      and\n        /* \"solidity-study-demo/secondPart/CrowdFund.sol\":3171:3188  !campaign.claimed */\n      iszero\n        /* \"solidity-study-demo/secondPart/CrowdFund.sol\":3163:3200  require(!campaign.claimed, \"claimed\") */\n      tag_93\n      jumpi\n      mload(0x40)\n      0x08c379a000000000000000000000000000000000000000000000000000000000\n      dup2\n      mstore\n      0x04\n      add\n      tag_94\n      swap1\n      tag_95\n      jump\t// in\n    tag_94:\n      mload(0x40)\n      dup1\n      swap2\n      sub\n      swap1\n      revert\n    tag_93:\n        /* \"solidity-study-demo/secondPart/CrowdFund.sol\":3232:3236  true */\n      0x01\n        /* \"solidity-study-demo/secondPart/CrowdFund.sol\":3213:3221  campaign */\n      dup2\n        /* \"solidity-study-demo/secondPart/CrowdFund.sol\":3213:3229  campaign.claimed */\n      0x03\n      add\n      0x08\n        /* \"solidity-study-demo/secondPart/CrowdFund.sol\":3213:3236  campaign.claimed = true */\n      0x0100\n      exp\n      dup2\n      sload\n      dup2\n      0xff\n      mul\n      not\n      and\n      swap1\n      dup4\n      iszero\n      iszero\n      mul\n      or\n      swap1\n      sstore\n      pop\n        /* \"solidity-study-demo/secondPart/CrowdFund.sol\":3247:3252  token */\n      immutable(\"0x5392f7a671cdf89487ccf8e3646ea8f7570009490584962db6fa064c6e4ad499\")\n        /* \"solidity-study-demo/secondPart/CrowdFund.sol\":3247:3261  token.transfer */\n      0xffffffffffffffffffffffffffffffffffffffff\n      and\n      0xa9059cbb\n        /* \"solidity-study-demo/secondPart/CrowdFund.sol\":3262:3270  campaign */\n      dup3\n        /* \"solidity-study-demo/secondPart/CrowdFund.sol\":3262:3278  campaign.creator */\n      0x00\n      add\n      0x00\n      swap1\n      sload\n      swap1\n      0x0100\n      exp\n      swap1\n      div\n      0xffffffffffffffffffffffffffffffffffffffff\n      and\n        /* \"solidity-study-demo/secondPart/CrowdFund.sol\":3280:3288  campaign */\n      dup4\n        /* \"solidity-study-demo/secondPart/CrowdFund.sol\":3280:3296  campaign.pledged */\n      0x02\n      add\n      sload\n        /* \"solidity-study-demo/secondPart/CrowdFund.sol\":3247:3297  token.transfer(campaign.creator, campaign.pledged) */\n      mload(0x40)\n      dup4\n      0xffffffff\n      and\n      0xe0\n      shl\n      dup2\n      mstore\n      0x04\n      add\n      tag_96\n      swap3\n      swap2\n      swap1\n      tag_61\n      jump\t// in\n    tag_96:\n      0x20\n      mload(0x40)\n      dup1\n      dup4\n      sub\n      dup2\n      0x00\n      dup8\n      gas\n      call\n      iszero\n      dup1\n      iszero\n      tag_98\n      jumpi\n      returndatasize\n      0x00\n      dup1\n      returndatacopy\n      revert(0x00, returndatasize)\n    tag_98:\n      pop\n      pop\n      pop\n      pop\n      mload(0x40)\n      returndatasize\n      not(0x1f)\n      0x1f\n      dup3\n      add\n      and\n      dup3\n      add\n      dup1\n      0x40\n      mstore\n      pop\n      dup2\n      add\n      swap1\n      tag_99\n      swap2\n      swap1\n      tag_65\n      jump\t// in\n    tag_99:\n      pop\n        /* \"solidity-study-demo/secondPart/CrowdFund.sol\":3313:3323  Claim(_id) */\n      0x7bb2b3c10797baccb6f8c4791f1edd6ca2f0d028ee0eda64b01a9a57e3a653f7\n        /* \"solidity-study-demo/secondPart/CrowdFund.sol\":3319:3322  _id */\n      dup3\n        /* \"solidity-study-demo/secondPart/CrowdFund.sol\":3313:3323  Claim(_id) */\n      mload(0x40)\n      tag_100\n      swap2\n      swap1\n      tag_17\n      jump\t// in\n    tag_100:\n      mload(0x40)\n      dup1\n      swap2\n      sub\n      swap1\n      log1\n        /* \"solidity-study-demo/secondPart/CrowdFund.sol\":2897:3331  {... */\n      pop\n        /* \"solidity-study-demo/secondPart/CrowdFund.sol\":2863:3331  function claim(uint _id) external {... */\n      pop\n      jump\t// out\n        /* \"solidity-study-demo/secondPart/CrowdFund.sol\":1742:2028  function cancel(uint _id) external {... */\n    tag_36:\n        /* \"solidity-study-demo/secondPart/CrowdFund.sol\":1788:1812  Campaign memory campaign */\n      0x00\n        /* \"solidity-study-demo/secondPart/CrowdFund.sol\":1815:1824  campaigns */\n      0x01\n        /* \"solidity-study-demo/secondPart/CrowdFund.sol\":1815:1829  campaigns[_id] */\n      0x00\n        /* \"solidity-study-demo/secondPart/CrowdFund.sol\":1825:1828  _id */\n      dup4\n        /* \"solidity-study-demo/secondPart/CrowdFund.sol\":1815:1829  campaigns[_id] */\n      dup2\n      mstore\n      0x20\n      add\n      swap1\n      dup2\n      mstore\n      0x20\n      add\n      0x00\n      keccak256\n        /* \"solidity-study-demo/secondPart/CrowdFund.sol\":1788:1829  Campaign memory campaign = campaigns[_id] */\n      mload(0x40)\n      dup1\n      0xc0\n      add\n      0x40\n      mstore\n      swap1\n      dup2\n      0x00\n      dup3\n      add\n      0x00\n      swap1\n      sload\n      swap1\n      0x0100\n      exp\n      swap1\n      div\n      0xffffffffffffffffffffffffffffffffffffffff\n      and\n      0xffffffffffffffffffffffffffffffffffffffff\n      and\n      0xffffffffffffffffffffffffffffffffffffffff\n      and\n      dup2\n      mstore\n      0x20\n      add\n      0x01\n      dup3\n      add\n      sload\n      dup2\n      mstore\n      0x20\n      add\n      0x02\n      dup3\n      add\n      sload\n      dup2\n      mstore\n      0x20\n      add\n      0x03\n      dup3\n      add\n      0x00\n      swap1\n      sload\n      swap1\n      0x0100\n      exp\n      swap1\n      div\n      0xffffffff\n      and\n      0xffffffff\n      and\n      0xffffffff\n      and\n      dup2\n      mstore\n      0x20\n      add\n      0x03\n      dup3\n      add\n      0x04\n      swap1\n      sload\n      swap1\n      0x0100\n      exp\n      swap1\n      div\n      0xffffffff\n      and\n      0xffffffff\n      and\n      0xffffffff\n      and\n      dup2\n      mstore\n      0x20\n      add\n      0x03\n      dup3\n      add\n      0x08\n      swap1\n      sload\n      swap1\n      0x0100\n      exp\n      swap1\n      div\n      0xff\n      and\n      iszero\n      iszero\n      iszero\n      iszero\n      dup2\n      mstore\n      pop\n      pop\n      swap1\n      pop\n        /* \"solidity-study-demo/secondPart/CrowdFund.sol\":1868:1878  msg.sender */\n      caller\n        /* \"solidity-study-demo/secondPart/CrowdFund.sol\":1848:1878  campaign.creator == msg.sender */\n      0xffffffffffffffffffffffffffffffffffffffff\n      and\n        /* \"solidity-study-demo/secondPart/CrowdFund.sol\":1848:1856  campaign */\n      dup2\n        /* \"solidity-study-demo/secondPart/CrowdFund.sol\":1848:1864  campaign.creator */\n      0x00\n      add\n      mload\n        /* \"solidity-study-demo/secondPart/CrowdFund.sol\":1848:1878  campaign.creator == msg.sender */\n      0xffffffffffffffffffffffffffffffffffffffff\n      and\n      eq\n        /* \"solidity-study-demo/secondPart/CrowdFund.sol\":1840:1894  require(campaign.creator == msg.sender, \"not creator\") */\n      tag_102\n      jumpi\n      mload(0x40)\n      0x08c379a000000000000000000000000000000000000000000000000000000000\n      dup2\n      mstore\n      0x04\n      add\n      tag_103\n      swap1\n      tag_86\n      jump\t// in\n    tag_103:\n      mload(0x40)\n      dup1\n      swap2\n      sub\n      swap1\n      revert\n    tag_102:\n        /* \"solidity-study-demo/secondPart/CrowdFund.sol\":1931:1939  campaign */\n      dup1\n        /* \"solidity-study-demo/secondPart/CrowdFund.sol\":1931:1947  campaign.startAt */\n      0x60\n      add\n      mload\n        /* \"solidity-study-demo/secondPart/CrowdFund.sol\":1913:1947  block.timestamp < campaign.startAt */\n      0xffffffff\n      and\n        /* \"solidity-study-demo/secondPart/CrowdFund.sol\":1913:1928  block.timestamp */\n      timestamp\n        /* \"solidity-study-demo/secondPart/CrowdFund.sol\":1913:1947  block.timestamp < campaign.startAt */\n      lt\n        /* \"solidity-study-demo/secondPart/CrowdFund.sol\":1905:1959  require(block.timestamp < campaign.startAt, \"started\") */\n      tag_104\n      jumpi\n      mload(0x40)\n      0x08c379a000000000000000000000000000000000000000000000000000000000\n      dup2\n      mstore\n      0x04\n      add\n      tag_105\n      swap1\n      tag_106\n      jump\t// in\n    tag_105:\n      mload(0x40)\n      dup1\n      swap2\n      sub\n      swap1\n      revert\n    tag_104:\n        /* \"solidity-study-demo/secondPart/CrowdFund.sol\":1979:1988  campaigns */\n      0x01\n        /* \"solidity-study-demo/secondPart/CrowdFund.sol\":1979:1993  campaigns[_id] */\n      0x00\n        /* \"solidity-study-demo/secondPart/CrowdFund.sol\":1989:1992  _id */\n      dup4\n        /* \"solidity-study-demo/secondPart/CrowdFund.sol\":1979:1993  campaigns[_id] */\n      dup2\n      mstore\n      0x20\n      add\n      swap1\n      dup2\n      mstore\n      0x20\n      add\n      0x00\n      keccak256\n      0x00\n        /* \"solidity-study-demo/secondPart/CrowdFund.sol\":1972:1993  delete campaigns[_id] */\n      dup1\n      dup3\n      add\n      exp(0x0100, 0x00)\n      dup2\n      sload\n      swap1\n      0xffffffffffffffffffffffffffffffffffffffff\n      mul\n      not\n      and\n      swap1\n      sstore\n      0x01\n      dup3\n      add\n      0x00\n      swap1\n      sstore\n      0x02\n      dup3\n      add\n      0x00\n      swap1\n      sstore\n      0x03\n      dup3\n      add\n      exp(0x0100, 0x00)\n      dup2\n      sload\n      swap1\n      0xffffffff\n      mul\n      not\n      and\n      swap1\n      sstore\n      0x03\n      dup3\n      add\n      exp(0x0100, 0x04)\n      dup2\n      sload\n      swap1\n      0xffffffff\n      mul\n      not\n      and\n      swap1\n      sstore\n      0x03\n      dup3\n      add\n      exp(0x0100, 0x08)\n      dup2\n      sload\n      swap1\n      0xff\n      mul\n      not\n      and\n      swap1\n      sstore\n      pop\n      pop\n        /* \"solidity-study-demo/secondPart/CrowdFund.sol\":2009:2020  Cancel(_id) */\n      0x8bf30e7ff26833413be5f69e1d373744864d600b664204b4a2f9844a8eedb9ed\n        /* \"solidity-study-demo/secondPart/CrowdFund.sol\":2016:2019  _id */\n      dup3\n        /* \"solidity-study-demo/secondPart/CrowdFund.sol\":2009:2020  Cancel(_id) */\n      mload(0x40)\n      tag_107\n      swap2\n      swap1\n      tag_17\n      jump\t// in\n    tag_107:\n      mload(0x40)\n      dup1\n      swap2\n      sub\n      swap1\n      log1\n        /* \"solidity-study-demo/secondPart/CrowdFund.sol\":1777:2028  {... */\n      pop\n        /* \"solidity-study-demo/secondPart/CrowdFund.sol\":1742:2028  function cancel(uint _id) external {... */\n      pop\n      jump\t// out\n        /* \"solidity-study-demo/secondPart/CrowdFund.sol\":2492:2855  function unpledge(uint _id, uint _amount) external {... */\n    tag_40:\n        /* \"solidity-study-demo/secondPart/CrowdFund.sol\":2554:2579  Campaign storage campaign */\n      0x00\n        /* \"solidity-study-demo/secondPart/CrowdFund.sol\":2582:2591  campaigns */\n      0x01\n        /* \"solidity-study-demo/secondPart/CrowdFund.sol\":2582:2596  campaigns[_id] */\n      0x00\n        /* \"solidity-study-demo/secondPart/CrowdFund.sol\":2592:2595  _id */\n      dup5\n        /* \"solidity-study-demo/secondPart/CrowdFund.sol\":2582:2596  campaigns[_id] */\n      dup2\n      mstore\n      0x20\n      add\n      swap1\n      dup2\n      mstore\n      0x20\n      add\n      0x00\n      keccak256\n        /* \"solidity-study-demo/secondPart/CrowdFund.sol\":2554:2596  Campaign storage campaign = campaigns[_id] */\n      swap1\n      pop\n        /* \"solidity-study-demo/secondPart/CrowdFund.sol\":2634:2642  campaign */\n      dup1\n        /* \"solidity-study-demo/secondPart/CrowdFund.sol\":2634:2648  campaign.endAt */\n      0x03\n      add\n      0x04\n      swap1\n      sload\n      swap1\n      0x0100\n      exp\n      swap1\n      div\n      0xffffffff\n      and\n        /* \"solidity-study-demo/secondPart/CrowdFund.sol\":2615:2648  block.timestamp <= campaign.endAt */\n      0xffffffff\n      and\n        /* \"solidity-study-demo/secondPart/CrowdFund.sol\":2615:2630  block.timestamp */\n      timestamp\n        /* \"solidity-study-demo/secondPart/CrowdFund.sol\":2615:2648  block.timestamp <= campaign.endAt */\n      gt\n      iszero\n        /* \"solidity-study-demo/secondPart/CrowdFund.sol\":2607:2658  require(block.timestamp <= campaign.endAt, \"ended\") */\n      tag_109\n      jumpi\n      mload(0x40)\n      0x08c379a000000000000000000000000000000000000000000000000000000000\n      dup2\n      mstore\n      0x04\n      add\n      tag_110\n      swap1\n      tag_111\n      jump\t// in\n    tag_110:\n      mload(0x40)\n      dup1\n      swap2\n      sub\n      swap1\n      revert\n    tag_109:\n        /* \"solidity-study-demo/secondPart/CrowdFund.sol\":2691:2698  _amount */\n      dup2\n        /* \"solidity-study-demo/secondPart/CrowdFund.sol\":2671:2679  campaign */\n      dup2\n        /* \"solidity-study-demo/secondPart/CrowdFund.sol\":2671:2687  campaign.pledged */\n      0x02\n      add\n      0x00\n        /* \"solidity-study-demo/secondPart/CrowdFund.sol\":2671:2698  campaign.pledged -= _amount */\n      dup3\n      dup3\n      sload\n      tag_112\n      swap2\n      swap1\n      tag_113\n      jump\t// in\n    tag_112:\n      swap3\n      pop\n      pop\n      dup2\n      swap1\n      sstore\n      pop\n        /* \"solidity-study-demo/secondPart/CrowdFund.sol\":2744:2751  _amount */\n      dup2\n        /* \"solidity-study-demo/secondPart/CrowdFund.sol\":2709:2723  pledagedAmount */\n      0x02\n        /* \"solidity-study-demo/secondPart/CrowdFund.sol\":2709:2728  pledagedAmount[_id] */\n      0x00\n        /* \"solidity-study-demo/secondPart/CrowdFund.sol\":2724:2727  _id */\n      dup6\n        /* \"solidity-study-demo/secondPart/CrowdFund.sol\":2709:2728  pledagedAmount[_id] */\n      dup2\n      mstore\n      0x20\n      add\n      swap1\n      dup2\n      mstore\n      0x20\n      add\n      0x00\n      keccak256\n        /* \"solidity-study-demo/secondPart/CrowdFund.sol\":2709:2740  pledagedAmount[_id][msg.sender] */\n      0x00\n        /* \"solidity-study-demo/secondPart/CrowdFund.sol\":2729:2739  msg.sender */\n      caller\n        /* \"solidity-study-demo/secondPart/CrowdFund.sol\":2709:2740  pledagedAmount[_id][msg.sender] */\n      0xffffffffffffffffffffffffffffffffffffffff\n      and\n      0xffffffffffffffffffffffffffffffffffffffff\n      and\n      dup2\n      mstore\n      0x20\n      add\n      swap1\n      dup2\n      mstore\n      0x20\n      add\n      0x00\n      keccak256\n      0x00\n        /* \"solidity-study-demo/secondPart/CrowdFund.sol\":2709:2751  pledagedAmount[_id][msg.sender] -= _amount */\n      dup3\n      dup3\n      sload\n      tag_114\n      swap2\n      swap1\n      tag_113\n      jump\t// in\n    tag_114:\n      swap3\n      pop\n      pop\n      dup2\n      swap1\n      sstore\n      pop\n        /* \"solidity-study-demo/secondPart/CrowdFund.sol\":2762:2767  token */\n      immutable(\"0x5392f7a671cdf89487ccf8e3646ea8f7570009490584962db6fa064c6e4ad499\")\n        /* \"solidity-study-demo/secondPart/CrowdFund.sol\":2762:2776  token.transfer */\n      0xffffffffffffffffffffffffffffffffffffffff\n      and\n      0xa9059cbb\n        /* \"solidity-study-demo/secondPart/CrowdFund.sol\":2777:2787  msg.sender */\n      caller\n        /* \"solidity-study-demo/secondPart/CrowdFund.sol\":2789:2796  _amount */\n      dup5\n        /* \"solidity-study-demo/secondPart/CrowdFund.sol\":2762:2797  token.transfer(msg.sender, _amount) */\n      mload(0x40)\n      dup4\n      0xffffffff\n      and\n      0xe0\n      shl\n      dup2\n      mstore\n      0x04\n      add\n      tag_115\n      swap3\n      swap2\n      swap1\n      tag_61\n      jump\t// in\n    tag_115:\n      0x20\n      mload(0x40)\n      dup1\n      dup4\n      sub\n      dup2\n      0x00\n      dup8\n      gas\n      call\n      iszero\n      dup1\n      iszero\n      tag_117\n      jumpi\n      returndatasize\n      0x00\n      dup1\n      returndatacopy\n      revert(0x00, returndatasize)\n    tag_117:\n      pop\n      pop\n      pop\n      pop\n      mload(0x40)\n      returndatasize\n      not(0x1f)\n      0x1f\n      dup3\n      add\n      and\n      dup3\n      add\n      dup1\n      0x40\n      mstore\n      pop\n      dup2\n      add\n      swap1\n      tag_118\n      swap2\n      swap1\n      tag_65\n      jump\t// in\n    tag_118:\n      pop\n        /* \"solidity-study-demo/secondPart/CrowdFund.sol\":2827:2837  msg.sender */\n      caller\n        /* \"solidity-study-demo/secondPart/CrowdFund.sol\":2813:2847  Unpledge(_id, msg.sender, _amount) */\n      0xffffffffffffffffffffffffffffffffffffffff\n      and\n        /* \"solidity-study-demo/secondPart/CrowdFund.sol\":2822:2825  _id */\n      dup4\n        /* \"solidity-study-demo/secondPart/CrowdFund.sol\":2813:2847  Unpledge(_id, msg.sender, _amount) */\n      0x2eeeab891b26a214d1b25749f88a406bdea852bd8c9bfda977e0ef8114c180ba\n        /* \"solidity-study-demo/secondPart/CrowdFund.sol\":2839:2846  _amount */\n      dup5\n        /* \"solidity-study-demo/secondPart/CrowdFund.sol\":2813:2847  Unpledge(_id, msg.sender, _amount) */\n      mload(0x40)\n      tag_119\n      swap2\n      swap1\n      tag_17\n      jump\t// in\n    tag_119:\n      mload(0x40)\n      dup1\n      swap2\n      sub\n      swap1\n      log3\n        /* \"solidity-study-demo/secondPart/CrowdFund.sol\":2543:2855  {... */\n      pop\n        /* \"solidity-study-demo/secondPart/CrowdFund.sol\":2492:2855  function unpledge(uint _id, uint _amount) external {... */\n      pop\n      pop\n      jump\t// out\n        /* \"solidity-study-demo/secondPart/CrowdFund.sol\":843:872  IERC20 public immutable token */\n    tag_42:\n      immutable(\"0x5392f7a671cdf89487ccf8e3646ea8f7570009490584962db6fa064c6e4ad499\")\n      dup2\n      jump\t// out\n        /* \"solidity-study-demo/secondPart/CrowdFund.sol\":2036:2484  function pledge(uint _id, uint _amount) external {... */\n    tag_47:\n        /* \"solidity-study-demo/secondPart/CrowdFund.sol\":2096:2121  Campaign storage campaign */\n      0x00\n        /* \"solidity-study-demo/secondPart/CrowdFund.sol\":2124:2133  campaigns */\n      0x01\n        /* \"solidity-study-demo/secondPart/CrowdFund.sol\":2124:2138  campaigns[_id] */\n      0x00\n        /* \"solidity-study-demo/secondPart/CrowdFund.sol\":2134:2137  _id */\n      dup5\n        /* \"solidity-study-demo/secondPart/CrowdFund.sol\":2124:2138  campaigns[_id] */\n      dup2\n      mstore\n      0x20\n      add\n      swap1\n      dup2\n      mstore\n      0x20\n      add\n      0x00\n      keccak256\n        /* \"solidity-study-demo/secondPart/CrowdFund.sol\":2096:2138  Campaign storage campaign = campaigns[_id] */\n      swap1\n      pop\n        /* \"solidity-study-demo/secondPart/CrowdFund.sol\":2176:2184  campaign */\n      dup1\n        /* \"solidity-study-demo/secondPart/CrowdFund.sol\":2176:2192  campaign.startAt */\n      0x03\n      add\n      0x00\n      swap1\n      sload\n      swap1\n      0x0100\n      exp\n      swap1\n      div\n      0xffffffff\n      and\n        /* \"solidity-study-demo/secondPart/CrowdFund.sol\":2157:2192  block.timestamp >= campaign.startAt */\n      0xffffffff\n      and\n        /* \"solidity-study-demo/secondPart/CrowdFund.sol\":2157:2172  block.timestamp */\n      timestamp\n        /* \"solidity-study-demo/secondPart/CrowdFund.sol\":2157:2192  block.timestamp >= campaign.startAt */\n      lt\n      iszero\n        /* \"solidity-study-demo/secondPart/CrowdFund.sol\":2149:2208  require(block.timestamp >= campaign.startAt, \"not started\") */\n      tag_121\n      jumpi\n      mload(0x40)\n      0x08c379a000000000000000000000000000000000000000000000000000000000\n      dup2\n      mstore\n      0x04\n      add\n      tag_122\n      swap1\n      tag_123\n      jump\t// in\n    tag_122:\n      mload(0x40)\n      dup1\n      swap2\n      sub\n      swap1\n      revert\n    tag_121:\n        /* \"solidity-study-demo/secondPart/CrowdFund.sol\":2246:2254  campaign */\n      dup1\n        /* \"solidity-study-demo/secondPart/CrowdFund.sol\":2246:2260  campaign.endAt */\n      0x03\n      add\n      0x04\n      swap1\n      sload\n      swap1\n      0x0100\n      exp\n      swap1\n      div\n      0xffffffff\n      and\n        /* \"solidity-study-demo/secondPart/CrowdFund.sol\":2227:2260  block.timestamp <= campaign.endAt */\n      0xffffffff\n      and\n        /* \"solidity-study-demo/secondPart/CrowdFund.sol\":2227:2242  block.timestamp */\n      timestamp\n        /* \"solidity-study-demo/secondPart/CrowdFund.sol\":2227:2260  block.timestamp <= campaign.endAt */\n      gt\n      iszero\n        /* \"solidity-study-demo/secondPart/CrowdFund.sol\":2219:2270  require(block.timestamp <= campaign.endAt, \"ended\") */\n      tag_124\n      jumpi\n      mload(0x40)\n      0x08c379a000000000000000000000000000000000000000000000000000000000\n      dup2\n      mstore\n      0x04\n      add\n      tag_125\n      swap1\n      tag_111\n      jump\t// in\n    tag_125:\n      mload(0x40)\n      dup1\n      swap2\n      sub\n      swap1\n      revert\n    tag_124:\n        /* \"solidity-study-demo/secondPart/CrowdFund.sol\":2303:2310  _amount */\n      dup2\n        /* \"solidity-study-demo/secondPart/CrowdFund.sol\":2283:2291  campaign */\n      dup2\n        /* \"solidity-study-demo/secondPart/CrowdFund.sol\":2283:2299  campaign.pledged */\n      0x02\n      add\n      0x00\n        /* \"solidity-study-demo/secondPart/CrowdFund.sol\":2283:2310  campaign.pledged += _amount */\n      dup3\n      dup3\n      sload\n      tag_126\n      swap2\n      swap1\n      tag_76\n      jump\t// in\n    tag_126:\n      swap3\n      pop\n      pop\n      dup2\n      swap1\n      sstore\n      pop\n        /* \"solidity-study-demo/secondPart/CrowdFund.sol\":2356:2363  _amount */\n      dup2\n        /* \"solidity-study-demo/secondPart/CrowdFund.sol\":2321:2335  pledagedAmount */\n      0x02\n        /* \"solidity-study-demo/secondPart/CrowdFund.sol\":2321:2340  pledagedAmount[_id] */\n      0x00\n        /* \"solidity-study-demo/secondPart/CrowdFund.sol\":2336:2339  _id */\n      dup6\n        /* \"solidity-study-demo/secondPart/CrowdFund.sol\":2321:2340  pledagedAmount[_id] */\n      dup2\n      mstore\n      0x20\n      add\n      swap1\n      dup2\n      mstore\n      0x20\n      add\n      0x00\n      keccak256\n        /* \"solidity-study-demo/secondPart/CrowdFund.sol\":2321:2352  pledagedAmount[_id][msg.sender] */\n      0x00\n        /* \"solidity-study-demo/secondPart/CrowdFund.sol\":2341:2351  msg.sender */\n      caller\n        /* \"solidity-study-demo/secondPart/CrowdFund.sol\":2321:2352  pledagedAmount[_id][msg.sender] */\n      0xffffffffffffffffffffffffffffffffffffffff\n      and\n      0xffffffffffffffffffffffffffffffffffffffff\n      and\n      dup2\n      mstore\n      0x20\n      add\n      swap1\n      dup2\n      mstore\n      0x20\n      add\n      0x00\n      keccak256\n      0x00\n        /* \"solidity-study-demo/secondPart/CrowdFund.sol\":2321:2363  pledagedAmount[_id][msg.sender] += _amount */\n      dup3\n      dup3\n      sload\n      tag_127\n      swap2\n      swap1\n      tag_76\n      jump\t// in\n    tag_127:\n      swap3\n      pop\n      pop\n      dup2\n      swap1\n      sstore\n      pop\n        /* \"solidity-study-demo/secondPart/CrowdFund.sol\":2374:2379  token */\n      immutable(\"0x5392f7a671cdf89487ccf8e3646ea8f7570009490584962db6fa064c6e4ad499\")\n        /* \"solidity-study-demo/secondPart/CrowdFund.sol\":2374:2392  token.transferFrom */\n      0xffffffffffffffffffffffffffffffffffffffff\n      and\n      0x23b872dd\n        /* \"solidity-study-demo/secondPart/CrowdFund.sol\":2393:2403  msg.sender */\n      caller\n        /* \"solidity-study-demo/secondPart/CrowdFund.sol\":2413:2417  this */\n      address\n        /* \"solidity-study-demo/secondPart/CrowdFund.sol\":2420:2427  _amount */\n      dup6\n        /* \"solidity-study-demo/secondPart/CrowdFund.sol\":2374:2428  token.transferFrom(msg.sender, address(this), _amount) */\n      mload(0x40)\n      dup5\n      0xffffffff\n      and\n      0xe0\n      shl\n      dup2\n      mstore\n      0x04\n      add\n      tag_128\n      swap4\n      swap3\n      swap2\n      swap1\n      tag_129\n      jump\t// in\n    tag_128:\n      0x20\n      mload(0x40)\n      dup1\n      dup4\n      sub\n      dup2\n      0x00\n      dup8\n      gas\n      call\n      iszero\n      dup1\n      iszero\n      tag_131\n      jumpi\n      returndatasize\n      0x00\n      dup1\n      returndatacopy\n      revert(0x00, returndatasize)\n    tag_131:\n      pop\n      pop\n      pop\n      pop\n      mload(0x40)\n      returndatasize\n      not(0x1f)\n      0x1f\n      dup3\n      add\n      and\n      dup3\n      add\n      dup1\n      0x40\n      mstore\n      pop\n      dup2\n      add\n      swap1\n      tag_132\n      swap2\n      swap1\n      tag_65\n      jump\t// in\n    tag_132:\n      pop\n        /* \"solidity-study-demo/secondPart/CrowdFund.sol\":2456:2466  msg.sender */\n      caller\n        /* \"solidity-study-demo/secondPart/CrowdFund.sol\":2444:2476  Pledge(_id, msg.sender, _amount) */\n      0xffffffffffffffffffffffffffffffffffffffff\n      and\n        /* \"solidity-study-demo/secondPart/CrowdFund.sol\":2451:2454  _id */\n      dup4\n        /* \"solidity-study-demo/secondPart/CrowdFund.sol\":2444:2476  Pledge(_id, msg.sender, _amount) */\n      0x06bdb975df800a73232998e71ed585d536222f1dfeaa622d7f62a23ada686c82\n        /* \"solidity-study-demo/secondPart/CrowdFund.sol\":2468:2475  _amount */\n      dup5\n        /* \"solidity-study-demo/secondPart/CrowdFund.sol\":2444:2476  Pledge(_id, msg.sender, _amount) */\n      mload(0x40)\n      tag_133\n      swap2\n      swap1\n      tag_17\n      jump\t// in\n    tag_133:\n      mload(0x40)\n      dup1\n      swap2\n      sub\n      swap1\n      log3\n        /* \"solidity-study-demo/secondPart/CrowdFund.sol\":2085:2484  {... */\n      pop\n        /* \"solidity-study-demo/secondPart/CrowdFund.sol\":2036:2484  function pledge(uint _id, uint _amount) external {... */\n      pop\n      pop\n      jump\t// out\n        /* \"solidity-study-demo/secondPart/CrowdFund.sol\":952:1015  mapping(uint => mapping(address => uint)) public pledagedAmount */\n    tag_51:\n      mstore(0x20, 0x02)\n      dup2\n      0x00\n      mstore\n      mstore(0x20, keccak256(0x00, 0x40))\n      dup1\n      0x00\n      mstore\n      keccak256(0x00, 0x40)\n      0x00\n      swap2\n      pop\n      swap2\n      pop\n      pop\n      sload\n      dup2\n      jump\t// out\n        /* \"#utility.yul\":7:84   */\n    tag_134:\n        /* \"#utility.yul\":44:51   */\n      0x00\n        /* \"#utility.yul\":73:78   */\n      dup2\n        /* \"#utility.yul\":62:78   */\n      swap1\n      pop\n        /* \"#utility.yul\":7:84   */\n      swap2\n      swap1\n      pop\n      jump\t// out\n        /* \"#utility.yul\":90:208   */\n    tag_135:\n        /* \"#utility.yul\":177:201   */\n      tag_188\n        /* \"#utility.yul\":195:200   */\n      dup2\n        /* \"#utility.yul\":177:201   */\n      tag_134\n      jump\t// in\n    tag_188:\n        /* \"#utility.yul\":172:175   */\n      dup3\n        /* \"#utility.yul\":165:202   */\n      mstore\n        /* \"#utility.yul\":90:208   */\n      pop\n      pop\n      jump\t// out\n        /* \"#utility.yul\":214:436   */\n    tag_17:\n        /* \"#utility.yul\":307:311   */\n      0x00\n        /* \"#utility.yul\":345:347   */\n      0x20\n        /* \"#utility.yul\":334:343   */\n      dup3\n        /* \"#utility.yul\":330:348   */\n      add\n        /* \"#utility.yul\":322:348   */\n      swap1\n      pop\n        /* \"#utility.yul\":358:429   */\n      tag_190\n        /* \"#utility.yul\":426:427   */\n      0x00\n        /* \"#utility.yul\":415:424   */\n      dup4\n        /* \"#utility.yul\":411:428   */\n      add\n        /* \"#utility.yul\":402:408   */\n      dup5\n        /* \"#utility.yul\":358:429   */\n      tag_135\n      jump\t// in\n    tag_190:\n        /* \"#utility.yul\":214:436   */\n      swap3\n      swap2\n      pop\n      pop\n      jump\t// out\n        /* \"#utility.yul\":523:640   */\n    tag_137:\n        /* \"#utility.yul\":632:633   */\n      0x00\n        /* \"#utility.yul\":629:630   */\n      dup1\n        /* \"#utility.yul\":622:634   */\n      revert\n        /* \"#utility.yul\":769:891   */\n    tag_139:\n        /* \"#utility.yul\":842:866   */\n      tag_195\n        /* \"#utility.yul\":860:865   */\n      dup2\n        /* \"#utility.yul\":842:866   */\n      tag_134\n      jump\t// in\n    tag_195:\n        /* \"#utility.yul\":835:840   */\n      dup2\n        /* \"#utility.yul\":832:867   */\n      eq\n        /* \"#utility.yul\":822:885   */\n      tag_196\n      jumpi\n        /* \"#utility.yul\":881:882   */\n      0x00\n        /* \"#utility.yul\":878:879   */\n      dup1\n        /* \"#utility.yul\":871:883   */\n      revert\n        /* \"#utility.yul\":822:885   */\n    tag_196:\n        /* \"#utility.yul\":769:891   */\n      pop\n      jump\t// out\n        /* \"#utility.yul\":897:1036   */\n    tag_140:\n        /* \"#utility.yul\":943:948   */\n      0x00\n        /* \"#utility.yul\":981:987   */\n      dup2\n        /* \"#utility.yul\":968:988   */\n      calldataload\n        /* \"#utility.yul\":959:988   */\n      swap1\n      pop\n        /* \"#utility.yul\":997:1030   */\n      tag_198\n        /* \"#utility.yul\":1024:1029   */\n      dup2\n        /* \"#utility.yul\":997:1030   */\n      tag_139\n      jump\t// in\n    tag_198:\n        /* \"#utility.yul\":897:1036   */\n      swap3\n      swap2\n      pop\n      pop\n      jump\t// out\n        /* \"#utility.yul\":1042:1371   */\n    tag_20:\n        /* \"#utility.yul\":1101:1107   */\n      0x00\n        /* \"#utility.yul\":1150:1152   */\n      0x20\n        /* \"#utility.yul\":1138:1147   */\n      dup3\n        /* \"#utility.yul\":1129:1136   */\n      dup5\n        /* \"#utility.yul\":1125:1148   */\n      sub\n        /* \"#utility.yul\":1121:1153   */\n      slt\n        /* \"#utility.yul\":1118:1237   */\n      iszero\n      tag_200\n      jumpi\n        /* \"#utility.yul\":1156:1235   */\n      tag_201\n      tag_137\n      jump\t// in\n    tag_201:\n        /* \"#utility.yul\":1118:1237   */\n    tag_200:\n        /* \"#utility.yul\":1276:1277   */\n      0x00\n        /* \"#utility.yul\":1301:1354   */\n      tag_202\n        /* \"#utility.yul\":1346:1353   */\n      dup5\n        /* \"#utility.yul\":1337:1343   */\n      dup3\n        /* \"#utility.yul\":1326:1335   */\n      dup6\n        /* \"#utility.yul\":1322:1344   */\n      add\n        /* \"#utility.yul\":1301:1354   */\n      tag_140\n      jump\t// in\n    tag_202:\n        /* \"#utility.yul\":1291:1354   */\n      swap2\n      pop\n        /* \"#utility.yul\":1247:1364   */\n      pop\n        /* \"#utility.yul\":1042:1371   */\n      swap3\n      swap2\n      pop\n      pop\n      jump\t// out\n        /* \"#utility.yul\":1377:1503   */\n    tag_141:\n        /* \"#utility.yul\":1414:1421   */\n      0x00\n        /* \"#utility.yul\":1454:1496   */\n      0xffffffffffffffffffffffffffffffffffffffff\n        /* \"#utility.yul\":1447:1452   */\n      dup3\n        /* \"#utility.yul\":1443:1497   */\n      and\n        /* \"#utility.yul\":1432:1497   */\n      swap1\n      pop\n        /* \"#utility.yul\":1377:1503   */\n      swap2\n      swap1\n      pop\n      jump\t// out\n        /* \"#utility.yul\":1509:1605   */\n    tag_142:\n        /* \"#utility.yul\":1546:1553   */\n      0x00\n        /* \"#utility.yul\":1575:1599   */\n      tag_205\n        /* \"#utility.yul\":1593:1598   */\n      dup3\n        /* \"#utility.yul\":1575:1599   */\n      tag_141\n      jump\t// in\n    tag_205:\n        /* \"#utility.yul\":1564:1599   */\n      swap1\n      pop\n        /* \"#utility.yul\":1509:1605   */\n      swap2\n      swap1\n      pop\n      jump\t// out\n        /* \"#utility.yul\":1611:1729   */\n    tag_143:\n        /* \"#utility.yul\":1698:1722   */\n      tag_207\n        /* \"#utility.yul\":1716:1721   */\n      dup2\n        /* \"#utility.yul\":1698:1722   */\n      tag_142\n      jump\t// in\n    tag_207:\n        /* \"#utility.yul\":1693:1696   */\n      dup3\n        /* \"#utility.yul\":1686:1723   */\n      mstore\n        /* \"#utility.yul\":1611:1729   */\n      pop\n      pop\n      jump\t// out\n        /* \"#utility.yul\":1735:1828   */\n    tag_144:\n        /* \"#utility.yul\":1771:1778   */\n      0x00\n        /* \"#utility.yul\":1811:1821   */\n      0xffffffff\n        /* \"#utility.yul\":1804:1809   */\n      dup3\n        /* \"#utility.yul\":1800:1822   */\n      and\n        /* \"#utility.yul\":1789:1822   */\n      swap1\n      pop\n        /* \"#utility.yul\":1735:1828   */\n      swap2\n      swap1\n      pop\n      jump\t// out\n        /* \"#utility.yul\":1834:1949   */\n    tag_145:\n        /* \"#utility.yul\":1919:1942   */\n      tag_210\n        /* \"#utility.yul\":1936:1941   */\n      dup2\n        /* \"#utility.yul\":1919:1942   */\n      tag_144\n      jump\t// in\n    tag_210:\n        /* \"#utility.yul\":1914:1917   */\n      dup3\n        /* \"#utility.yul\":1907:1943   */\n      mstore\n        /* \"#utility.yul\":1834:1949   */\n      pop\n      pop\n      jump\t// out\n        /* \"#utility.yul\":1955:2045   */\n    tag_146:\n        /* \"#utility.yul\":1989:1996   */\n      0x00\n        /* \"#utility.yul\":2032:2037   */\n      dup2\n        /* \"#utility.yul\":2025:2038   */\n      iszero\n        /* \"#utility.yul\":2018:2039   */\n      iszero\n        /* \"#utility.yul\":2007:2039   */\n      swap1\n      pop\n        /* \"#utility.yul\":1955:2045   */\n      swap2\n      swap1\n      pop\n      jump\t// out\n        /* \"#utility.yul\":2051:2160   */\n    tag_147:\n        /* \"#utility.yul\":2132:2153   */\n      tag_213\n        /* \"#utility.yul\":2147:2152   */\n      dup2\n        /* \"#utility.yul\":2132:2153   */\n      tag_146\n      jump\t// in\n    tag_213:\n        /* \"#utility.yul\":2127:2130   */\n      dup3\n        /* \"#utility.yul\":2120:2154   */\n      mstore\n        /* \"#utility.yul\":2051:2160   */\n      pop\n      pop\n      jump\t// out\n        /* \"#utility.yul\":2166:2921   */\n    tag_23:\n        /* \"#utility.yul\":2389:2393   */\n      0x00\n        /* \"#utility.yul\":2427:2430   */\n      0xc0\n        /* \"#utility.yul\":2416:2425   */\n      dup3\n        /* \"#utility.yul\":2412:2431   */\n      add\n        /* \"#utility.yul\":2404:2431   */\n      swap1\n      pop\n        /* \"#utility.yul\":2441:2512   */\n      tag_215\n        /* \"#utility.yul\":2509:2510   */\n      0x00\n        /* \"#utility.yul\":2498:2507   */\n      dup4\n        /* \"#utility.yul\":2494:2511   */\n      add\n        /* \"#utility.yul\":2485:2491   */\n      dup10\n        /* \"#utility.yul\":2441:2512   */\n      tag_143\n      jump\t// in\n    tag_215:\n        /* \"#utility.yul\":2522:2594   */\n      tag_216\n        /* \"#utility.yul\":2590:2592   */\n      0x20\n        /* \"#utility.yul\":2579:2588   */\n      dup4\n        /* \"#utility.yul\":2575:2593   */\n      add\n        /* \"#utility.yul\":2566:2572   */\n      dup9\n        /* \"#utility.yul\":2522:2594   */\n      tag_135\n      jump\t// in\n    tag_216:\n        /* \"#utility.yul\":2604:2676   */\n      tag_217\n        /* \"#utility.yul\":2672:2674   */\n      0x40\n        /* \"#utility.yul\":2661:2670   */\n      dup4\n        /* \"#utility.yul\":2657:2675   */\n      add\n        /* \"#utility.yul\":2648:2654   */\n      dup8\n        /* \"#utility.yul\":2604:2676   */\n      tag_135\n      jump\t// in\n    tag_217:\n        /* \"#utility.yul\":2686:2756   */\n      tag_218\n        /* \"#utility.yul\":2752:2754   */\n      0x60\n        /* \"#utility.yul\":2741:2750   */\n      dup4\n        /* \"#utility.yul\":2737:2755   */\n      add\n        /* \"#utility.yul\":2728:2734   */\n      dup7\n        /* \"#utility.yul\":2686:2756   */\n      tag_145\n      jump\t// in\n    tag_218:\n        /* \"#utility.yul\":2766:2837   */\n      tag_219\n        /* \"#utility.yul\":2832:2835   */\n      0x80\n        /* \"#utility.yul\":2821:2830   */\n      dup4\n        /* \"#utility.yul\":2817:2836   */\n      add\n        /* \"#utility.yul\":2808:2814   */\n      dup6\n        /* \"#utility.yul\":2766:2837   */\n      tag_145\n      jump\t// in\n    tag_219:\n        /* \"#utility.yul\":2847:2914   */\n      tag_220\n        /* \"#utility.yul\":2909:2912   */\n      0xa0\n        /* \"#utility.yul\":2898:2907   */\n      dup4\n        /* \"#utility.yul\":2894:2913   */\n      add\n        /* \"#utility.yul\":2885:2891   */\n      dup5\n        /* \"#utility.yul\":2847:2914   */\n      tag_147\n      jump\t// in\n    tag_220:\n        /* \"#utility.yul\":2166:2921   */\n      swap8\n      swap7\n      pop\n      pop\n      pop\n      pop\n      pop\n      pop\n      pop\n      jump\t// out\n        /* \"#utility.yul\":2927:3047   */\n    tag_148:\n        /* \"#utility.yul\":2999:3022   */\n      tag_222\n        /* \"#utility.yul\":3016:3021   */\n      dup2\n        /* \"#utility.yul\":2999:3022   */\n      tag_144\n      jump\t// in\n    tag_222:\n        /* \"#utility.yul\":2992:2997   */\n      dup2\n        /* \"#utility.yul\":2989:3023   */\n      eq\n        /* \"#utility.yul\":2979:3041   */\n      tag_223\n      jumpi\n        /* \"#utility.yul\":3037:3038   */\n      0x00\n        /* \"#utility.yul\":3034:3035   */\n      dup1\n        /* \"#utility.yul\":3027:3039   */\n      revert\n        /* \"#utility.yul\":2979:3041   */\n    tag_223:\n        /* \"#utility.yul\":2927:3047   */\n      pop\n      jump\t// out\n        /* \"#utility.yul\":3053:3190   */\n    tag_149:\n        /* \"#utility.yul\":3098:3103   */\n      0x00\n        /* \"#utility.yul\":3136:3142   */\n      dup2\n        /* \"#utility.yul\":3123:3143   */\n      calldataload\n        /* \"#utility.yul\":3114:3143   */\n      swap1\n      pop\n        /* \"#utility.yul\":3152:3184   */\n      tag_225\n        /* \"#utility.yul\":3178:3183   */\n      dup2\n        /* \"#utility.yul\":3152:3184   */\n      tag_148\n      jump\t// in\n    tag_225:\n        /* \"#utility.yul\":3053:3190   */\n      swap3\n      swap2\n      pop\n      pop\n      jump\t// out\n        /* \"#utility.yul\":3196:3811   */\n    tag_29:\n        /* \"#utility.yul\":3271:3277   */\n      0x00\n        /* \"#utility.yul\":3279:3285   */\n      dup1\n        /* \"#utility.yul\":3287:3293   */\n      0x00\n        /* \"#utility.yul\":3336:3338   */\n      0x60\n        /* \"#utility.yul\":3324:3333   */\n      dup5\n        /* \"#utility.yul\":3315:3322   */\n      dup7\n        /* \"#utility.yul\":3311:3334   */\n      sub\n        /* \"#utility.yul\":3307:3339   */\n      slt\n        /* \"#utility.yul\":3304:3423   */\n      iszero\n      tag_227\n      jumpi\n        /* \"#utility.yul\":3342:3421   */\n      tag_228\n      tag_137\n      jump\t// in\n    tag_228:\n        /* \"#utility.yul\":3304:3423   */\n    tag_227:\n        /* \"#utility.yul\":3462:3463   */\n      0x00\n        /* \"#utility.yul\":3487:3540   */\n      tag_229\n        /* \"#utility.yul\":3532:3539   */\n      dup7\n        /* \"#utility.yul\":3523:3529   */\n      dup3\n        /* \"#utility.yul\":3512:3521   */\n      dup8\n        /* \"#utility.yul\":3508:3530   */\n      add\n        /* \"#utility.yul\":3487:3540   */\n      tag_140\n      jump\t// in\n    tag_229:\n        /* \"#utility.yul\":3477:3540   */\n      swap4\n      pop\n        /* \"#utility.yul\":3433:3550   */\n      pop\n        /* \"#utility.yul\":3589:3591   */\n      0x20\n        /* \"#utility.yul\":3615:3667   */\n      tag_230\n        /* \"#utility.yul\":3659:3666   */\n      dup7\n        /* \"#utility.yul\":3650:3656   */\n      dup3\n        /* \"#utility.yul\":3639:3648   */\n      dup8\n        /* \"#utility.yul\":3635:3657   */\n      add\n        /* \"#utility.yul\":3615:3667   */\n      tag_149\n      jump\t// in\n    tag_230:\n        /* \"#utility.yul\":3605:3667   */\n      swap3\n      pop\n        /* \"#utility.yul\":3560:3677   */\n      pop\n        /* \"#utility.yul\":3716:3718   */\n      0x40\n        /* \"#utility.yul\":3742:3794   */\n      tag_231\n        /* \"#utility.yul\":3786:3793   */\n      dup7\n        /* \"#utility.yul\":3777:3783   */\n      dup3\n        /* \"#utility.yul\":3766:3775   */\n      dup8\n        /* \"#utility.yul\":3762:3784   */\n      add\n        /* \"#utility.yul\":3742:3794   */\n      tag_149\n      jump\t// in\n    tag_231:\n        /* \"#utility.yul\":3732:3794   */\n      swap2\n      pop\n        /* \"#utility.yul\":3687:3804   */\n      pop\n        /* \"#utility.yul\":3196:3811   */\n      swap3\n      pop\n      swap3\n      pop\n      swap3\n      jump\t// out\n        /* \"#utility.yul\":3817:4291   */\n    tag_39:\n        /* \"#utility.yul\":3885:3891   */\n      0x00\n        /* \"#utility.yul\":3893:3899   */\n      dup1\n        /* \"#utility.yul\":3942:3944   */\n      0x40\n        /* \"#utility.yul\":3930:3939   */\n      dup4\n        /* \"#utility.yul\":3921:3928   */\n      dup6\n        /* \"#utility.yul\":3917:3940   */\n      sub\n        /* \"#utility.yul\":3913:3945   */\n      slt\n        /* \"#utility.yul\":3910:4029   */\n      iszero\n      tag_233\n      jumpi\n        /* \"#utility.yul\":3948:4027   */\n      tag_234\n      tag_137\n      jump\t// in\n    tag_234:\n        /* \"#utility.yul\":3910:4029   */\n    tag_233:\n        /* \"#utility.yul\":4068:4069   */\n      0x00\n        /* \"#utility.yul\":4093:4146   */\n      tag_235\n        /* \"#utility.yul\":4138:4145   */\n      dup6\n        /* \"#utility.yul\":4129:4135   */\n      dup3\n        /* \"#utility.yul\":4118:4127   */\n      dup7\n        /* \"#utility.yul\":4114:4136   */\n      add\n        /* \"#utility.yul\":4093:4146   */\n      tag_140\n      jump\t// in\n    tag_235:\n        /* \"#utility.yul\":4083:4146   */\n      swap3\n      pop\n        /* \"#utility.yul\":4039:4156   */\n      pop\n        /* \"#utility.yul\":4195:4197   */\n      0x20\n        /* \"#utility.yul\":4221:4274   */\n      tag_236\n        /* \"#utility.yul\":4266:4273   */\n      dup6\n        /* \"#utility.yul\":4257:4263   */\n      dup3\n        /* \"#utility.yul\":4246:4255   */\n      dup7\n        /* \"#utility.yul\":4242:4264   */\n      add\n        /* \"#utility.yul\":4221:4274   */\n      tag_140\n      jump\t// in\n    tag_236:\n        /* \"#utility.yul\":4211:4274   */\n      swap2\n      pop\n        /* \"#utility.yul\":4166:4284   */\n      pop\n        /* \"#utility.yul\":3817:4291   */\n      swap3\n      pop\n      swap3\n      swap1\n      pop\n      jump\t// out\n        /* \"#utility.yul\":4297:4357   */\n    tag_150:\n        /* \"#utility.yul\":4325:4328   */\n      0x00\n        /* \"#utility.yul\":4346:4351   */\n      dup2\n        /* \"#utility.yul\":4339:4351   */\n      swap1\n      pop\n        /* \"#utility.yul\":4297:4357   */\n      swap2\n      swap1\n      pop\n      jump\t// out\n        /* \"#utility.yul\":4363:4505   */\n    tag_151:\n        /* \"#utility.yul\":4413:4422   */\n      0x00\n        /* \"#utility.yul\":4446:4499   */\n      tag_239\n        /* \"#utility.yul\":4464:4498   */\n      tag_240\n        /* \"#utility.yul\":4473:4497   */\n      tag_241\n        /* \"#utility.yul\":4491:4496   */\n      dup5\n        /* \"#utility.yul\":4473:4497   */\n      tag_141\n      jump\t// in\n    tag_241:\n        /* \"#utility.yul\":4464:4498   */\n      tag_150\n      jump\t// in\n    tag_240:\n        /* \"#utility.yul\":4446:4499   */\n      tag_141\n      jump\t// in\n    tag_239:\n        /* \"#utility.yul\":4433:4499   */\n      swap1\n      pop\n        /* \"#utility.yul\":4363:4505   */\n      swap2\n      swap1\n      pop\n      jump\t// out\n        /* \"#utility.yul\":4511:4637   */\n    tag_152:\n        /* \"#utility.yul\":4561:4570   */\n      0x00\n        /* \"#utility.yul\":4594:4631   */\n      tag_243\n        /* \"#utility.yul\":4625:4630   */\n      dup3\n        /* \"#utility.yul\":4594:4631   */\n      tag_151\n      jump\t// in\n    tag_243:\n        /* \"#utility.yul\":4581:4631   */\n      swap1\n      pop\n        /* \"#utility.yul\":4511:4637   */\n      swap2\n      swap1\n      pop\n      jump\t// out\n        /* \"#utility.yul\":4643:4782   */\n    tag_153:\n        /* \"#utility.yul\":4706:4715   */\n      0x00\n        /* \"#utility.yul\":4739:4776   */\n      tag_245\n        /* \"#utility.yul\":4770:4775   */\n      dup3\n        /* \"#utility.yul\":4739:4776   */\n      tag_152\n      jump\t// in\n    tag_245:\n        /* \"#utility.yul\":4726:4776   */\n      swap1\n      pop\n        /* \"#utility.yul\":4643:4782   */\n      swap2\n      swap1\n      pop\n      jump\t// out\n        /* \"#utility.yul\":4788:4945   */\n    tag_154:\n        /* \"#utility.yul\":4888:4938   */\n      tag_247\n        /* \"#utility.yul\":4932:4937   */\n      dup2\n        /* \"#utility.yul\":4888:4938   */\n      tag_153\n      jump\t// in\n    tag_247:\n        /* \"#utility.yul\":4883:4886   */\n      dup3\n        /* \"#utility.yul\":4876:4939   */\n      mstore\n        /* \"#utility.yul\":4788:4945   */\n      pop\n      pop\n      jump\t// out\n        /* \"#utility.yul\":4951:5199   */\n    tag_44:\n        /* \"#utility.yul\":5057:5061   */\n      0x00\n        /* \"#utility.yul\":5095:5097   */\n      0x20\n        /* \"#utility.yul\":5084:5093   */\n      dup3\n        /* \"#utility.yul\":5080:5098   */\n      add\n        /* \"#utility.yul\":5072:5098   */\n      swap1\n      pop\n        /* \"#utility.yul\":5108:5192   */\n      tag_249\n        /* \"#utility.yul\":5189:5190   */\n      0x00\n        /* \"#utility.yul\":5178:5187   */\n      dup4\n        /* \"#utility.yul\":5174:5191   */\n      add\n        /* \"#utility.yul\":5165:5171   */\n      dup5\n        /* \"#utility.yul\":5108:5192   */\n      tag_154\n      jump\t// in\n    tag_249:\n        /* \"#utility.yul\":4951:5199   */\n      swap3\n      swap2\n      pop\n      pop\n      jump\t// out\n        /* \"#utility.yul\":5205:5327   */\n    tag_155:\n        /* \"#utility.yul\":5278:5302   */\n      tag_251\n        /* \"#utility.yul\":5296:5301   */\n      dup2\n        /* \"#utility.yul\":5278:5302   */\n      tag_142\n      jump\t// in\n    tag_251:\n        /* \"#utility.yul\":5271:5276   */\n      dup2\n        /* \"#utility.yul\":5268:5303   */\n      eq\n        /* \"#utility.yul\":5258:5321   */\n      tag_252\n      jumpi\n        /* \"#utility.yul\":5317:5318   */\n      0x00\n        /* \"#utility.yul\":5314:5315   */\n      dup1\n        /* \"#utility.yul\":5307:5319   */\n      revert\n        /* \"#utility.yul\":5258:5321   */\n    tag_252:\n        /* \"#utility.yul\":5205:5327   */\n      pop\n      jump\t// out\n        /* \"#utility.yul\":5333:5472   */\n    tag_156:\n        /* \"#utility.yul\":5379:5384   */\n      0x00\n        /* \"#utility.yul\":5417:5423   */\n      dup2\n        /* \"#utility.yul\":5404:5424   */\n      calldataload\n        /* \"#utility.yul\":5395:5424   */\n      swap1\n      pop\n        /* \"#utility.yul\":5433:5466   */\n      tag_254\n        /* \"#utility.yul\":5460:5465   */\n      dup2\n        /* \"#utility.yul\":5433:5466   */\n      tag_155\n      jump\t// in\n    tag_254:\n        /* \"#utility.yul\":5333:5472   */\n      swap3\n      swap2\n      pop\n      pop\n      jump\t// out\n        /* \"#utility.yul\":5478:5952   */\n    tag_50:\n        /* \"#utility.yul\":5546:5552   */\n      0x00\n        /* \"#utility.yul\":5554:5560   */\n      dup1\n        /* \"#utility.yul\":5603:5605   */\n      0x40\n        /* \"#utility.yul\":5591:5600   */\n      dup4\n        /* \"#utility.yul\":5582:5589   */\n      dup6\n        /* \"#utility.yul\":5578:5601   */\n      sub\n        /* \"#utility.yul\":5574:5606   */\n      slt\n        /* \"#utility.yul\":5571:5690   */\n      iszero\n      tag_256\n      jumpi\n        /* \"#utility.yul\":5609:5688   */\n      tag_257\n      tag_137\n      jump\t// in\n    tag_257:\n        /* \"#utility.yul\":5571:5690   */\n    tag_256:\n        /* \"#utility.yul\":5729:5730   */\n      0x00\n        /* \"#utility.yul\":5754:5807   */\n      tag_258\n        /* \"#utility.yul\":5799:5806   */\n      dup6\n        /* \"#utility.yul\":5790:5796   */\n      dup3\n        /* \"#utility.yul\":5779:5788   */\n      dup7\n        /* \"#utility.yul\":5775:5797   */\n      add\n        /* \"#utility.yul\":5754:5807   */\n      tag_140\n      jump\t// in\n    tag_258:\n        /* \"#utility.yul\":5744:5807   */\n      swap3\n      pop\n        /* \"#utility.yul\":5700:5817   */\n      pop\n        /* \"#utility.yul\":5856:5858   */\n      0x20\n        /* \"#utility.yul\":5882:5935   */\n      tag_259\n        /* \"#utility.yul\":5927:5934   */\n      dup6\n        /* \"#utility.yul\":5918:5924   */\n      dup3\n        /* \"#utility.yul\":5907:5916   */\n      dup7\n        /* \"#utility.yul\":5903:5925   */\n      add\n        /* \"#utility.yul\":5882:5935   */\n      tag_156\n      jump\t// in\n    tag_259:\n        /* \"#utility.yul\":5872:5935   */\n      swap2\n      pop\n        /* \"#utility.yul\":5827:5945   */\n      pop\n        /* \"#utility.yul\":5478:5952   */\n      swap3\n      pop\n      swap3\n      swap1\n      pop\n      jump\t// out\n        /* \"#utility.yul\":5958:6127   */\n    tag_157:\n        /* \"#utility.yul\":6042:6053   */\n      0x00\n        /* \"#utility.yul\":6076:6082   */\n      dup3\n        /* \"#utility.yul\":6071:6074   */\n      dup3\n        /* \"#utility.yul\":6064:6083   */\n      mstore\n        /* \"#utility.yul\":6116:6120   */\n      0x20\n        /* \"#utility.yul\":6111:6114   */\n      dup3\n        /* \"#utility.yul\":6107:6121   */\n      add\n        /* \"#utility.yul\":6092:6121   */\n      swap1\n      pop\n        /* \"#utility.yul\":5958:6127   */\n      swap3\n      swap2\n      pop\n      pop\n      jump\t// out\n        /* \"#utility.yul\":6133:6292   */\n    tag_158:\n        /* \"#utility.yul\":6273:6284   */\n      0x6e6f7420656e6465640000000000000000000000000000000000000000000000\n        /* \"#utility.yul\":6269:6270   */\n      0x00\n        /* \"#utility.yul\":6261:6267   */\n      dup3\n        /* \"#utility.yul\":6257:6271   */\n      add\n        /* \"#utility.yul\":6250:6285   */\n      mstore\n        /* \"#utility.yul\":6133:6292   */\n      pop\n      jump\t// out\n        /* \"#utility.yul\":6298:6663   */\n    tag_159:\n        /* \"#utility.yul\":6440:6443   */\n      0x00\n        /* \"#utility.yul\":6461:6527   */\n      tag_263\n        /* \"#utility.yul\":6525:6526   */\n      0x09\n        /* \"#utility.yul\":6520:6523   */\n      dup4\n        /* \"#utility.yul\":6461:6527   */\n      tag_157\n      jump\t// in\n    tag_263:\n        /* \"#utility.yul\":6454:6527   */\n      swap2\n      pop\n        /* \"#utility.yul\":6536:6629   */\n      tag_264\n        /* \"#utility.yul\":6625:6628   */\n      dup3\n        /* \"#utility.yul\":6536:6629   */\n      tag_158\n      jump\t// in\n    tag_264:\n        /* \"#utility.yul\":6654:6656   */\n      0x20\n        /* \"#utility.yul\":6649:6652   */\n      dup3\n        /* \"#utility.yul\":6645:6657   */\n      add\n        /* \"#utility.yul\":6638:6657   */\n      swap1\n      pop\n        /* \"#utility.yul\":6298:6663   */\n      swap2\n      swap1\n      pop\n      jump\t// out\n        /* \"#utility.yul\":6669:7088   */\n    tag_56:\n        /* \"#utility.yul\":6835:6839   */\n      0x00\n        /* \"#utility.yul\":6873:6875   */\n      0x20\n        /* \"#utility.yul\":6862:6871   */\n      dup3\n        /* \"#utility.yul\":6858:6876   */\n      add\n        /* \"#utility.yul\":6850:6876   */\n      swap1\n      pop\n        /* \"#utility.yul\":6922:6931   */\n      dup2\n        /* \"#utility.yul\":6916:6920   */\n      dup2\n        /* \"#utility.yul\":6912:6932   */\n      sub\n        /* \"#utility.yul\":6908:6909   */\n      0x00\n        /* \"#utility.yul\":6897:6906   */\n      dup4\n        /* \"#utility.yul\":6893:6910   */\n      add\n        /* \"#utility.yul\":6886:6933   */\n      mstore\n        /* \"#utility.yul\":6950:7081   */\n      tag_266\n        /* \"#utility.yul\":7076:7080   */\n      dup2\n        /* \"#utility.yul\":6950:7081   */\n      tag_159\n      jump\t// in\n    tag_266:\n        /* \"#utility.yul\":6942:7081   */\n      swap1\n      pop\n        /* \"#utility.yul\":6669:7088   */\n      swap2\n      swap1\n      pop\n      jump\t// out\n        /* \"#utility.yul\":7094:7259   */\n    tag_160:\n        /* \"#utility.yul\":7234:7251   */\n      0x706c6564676564203e3d20676f616c0000000000000000000000000000000000\n        /* \"#utility.yul\":7230:7231   */\n      0x00\n        /* \"#utility.yul\":7222:7228   */\n      dup3\n        /* \"#utility.yul\":7218:7232   */\n      add\n        /* \"#utility.yul\":7211:7252   */\n      mstore\n        /* \"#utility.yul\":7094:7259   */\n      pop\n      jump\t// out\n        /* \"#utility.yul\":7265:7631   */\n    tag_161:\n        /* \"#utility.yul\":7407:7410   */\n      0x00\n        /* \"#utility.yul\":7428:7495   */\n      tag_269\n        /* \"#utility.yul\":7492:7494   */\n      0x0f\n        /* \"#utility.yul\":7487:7490   */\n      dup4\n        /* \"#utility.yul\":7428:7495   */\n      tag_157\n      jump\t// in\n    tag_269:\n        /* \"#utility.yul\":7421:7495   */\n      swap2\n      pop\n        /* \"#utility.yul\":7504:7597   */\n      tag_270\n        /* \"#utility.yul\":7593:7596   */\n      dup3\n        /* \"#utility.yul\":7504:7597   */\n      tag_160\n      jump\t// in\n    tag_270:\n        /* \"#utility.yul\":7622:7624   */\n      0x20\n        /* \"#utility.yul\":7617:7620   */\n      dup3\n        /* \"#utility.yul\":7613:7625   */\n      add\n        /* \"#utility.yul\":7606:7625   */\n      swap1\n      pop\n        /* \"#utility.yul\":7265:7631   */\n      swap2\n      swap1\n      pop\n      jump\t// out\n        /* \"#utility.yul\":7637:8056   */\n    tag_59:\n        /* \"#utility.yul\":7803:7807   */\n      0x00\n        /* \"#utility.yul\":7841:7843   */\n      0x20\n        /* \"#utility.yul\":7830:7839   */\n      dup3\n        /* \"#utility.yul\":7826:7844   */\n      add\n        /* \"#utility.yul\":7818:7844   */\n      swap1\n      pop\n        /* \"#utility.yul\":7890:7899   */\n      dup2\n        /* \"#utility.yul\":7884:7888   */\n      dup2\n        /* \"#utility.yul\":7880:7900   */\n      sub\n        /* \"#utility.yul\":7876:7877   */\n      0x00\n        /* \"#utility.yul\":7865:7874   */\n      dup4\n        /* \"#utility.yul\":7861:7878   */\n      add\n        /* \"#utility.yul\":7854:7901   */\n      mstore\n        /* \"#utility.yul\":7918:8049   */\n      tag_272\n        /* \"#utility.yul\":8044:8048   */\n      dup2\n        /* \"#utility.yul\":7918:8049   */\n      tag_161\n      jump\t// in\n    tag_272:\n        /* \"#utility.yul\":7910:8049   */\n      swap1\n      pop\n        /* \"#utility.yul\":7637:8056   */\n      swap2\n      swap1\n      pop\n      jump\t// out\n        /* \"#utility.yul\":8062:8394   */\n    tag_61:\n        /* \"#utility.yul\":8183:8187   */\n      0x00\n        /* \"#utility.yul\":8221:8223   */\n      0x40\n        /* \"#utility.yul\":8210:8219   */\n      dup3\n        /* \"#utility.yul\":8206:8224   */\n      add\n        /* \"#utility.yul\":8198:8224   */\n      swap1\n      pop\n        /* \"#utility.yul\":8234:8305   */\n      tag_274\n        /* \"#utility.yul\":8302:8303   */\n      0x00\n        /* \"#utility.yul\":8291:8300   */\n      dup4\n        /* \"#utility.yul\":8287:8304   */\n      add\n        /* \"#utility.yul\":8278:8284   */\n      dup6\n        /* \"#utility.yul\":8234:8305   */\n      tag_143\n      jump\t// in\n    tag_274:\n        /* \"#utility.yul\":8315:8387   */\n      tag_275\n        /* \"#utility.yul\":8383:8385   */\n      0x20\n        /* \"#utility.yul\":8372:8381   */\n      dup4\n        /* \"#utility.yul\":8368:8386   */\n      add\n        /* \"#utility.yul\":8359:8365   */\n      dup5\n        /* \"#utility.yul\":8315:8387   */\n      tag_135\n      jump\t// in\n    tag_275:\n        /* \"#utility.yul\":8062:8394   */\n      swap4\n      swap3\n      pop\n      pop\n      pop\n      jump\t// out\n        /* \"#utility.yul\":8400:8516   */\n    tag_162:\n        /* \"#utility.yul\":8470:8491   */\n      tag_277\n        /* \"#utility.yul\":8485:8490   */\n      dup2\n        /* \"#utility.yul\":8470:8491   */\n      tag_146\n      jump\t// in\n    tag_277:\n        /* \"#utility.yul\":8463:8468   */\n      dup2\n        /* \"#utility.yul\":8460:8492   */\n      eq\n        /* \"#utility.yul\":8450:8510   */\n      tag_278\n      jumpi\n        /* \"#utility.yul\":8506:8507   */\n      0x00\n        /* \"#utility.yul\":8503:8504   */\n      dup1\n        /* \"#utility.yul\":8496:8508   */\n      revert\n        /* \"#utility.yul\":8450:8510   */\n    tag_278:\n        /* \"#utility.yul\":8400:8516   */\n      pop\n      jump\t// out\n        /* \"#utility.yul\":8522:8659   */\n    tag_163:\n        /* \"#utility.yul\":8576:8581   */\n      0x00\n        /* \"#utility.yul\":8607:8613   */\n      dup2\n        /* \"#utility.yul\":8601:8614   */\n      mload\n        /* \"#utility.yul\":8592:8614   */\n      swap1\n      pop\n        /* \"#utility.yul\":8623:8653   */\n      tag_280\n        /* \"#utility.yul\":8647:8652   */\n      dup2\n        /* \"#utility.yul\":8623:8653   */\n      tag_162\n      jump\t// in\n    tag_280:\n        /* \"#utility.yul\":8522:8659   */\n      swap3\n      swap2\n      pop\n      pop\n      jump\t// out\n        /* \"#utility.yul\":8665:9010   */\n    tag_65:\n        /* \"#utility.yul\":8732:8738   */\n      0x00\n        /* \"#utility.yul\":8781:8783   */\n      0x20\n        /* \"#utility.yul\":8769:8778   */\n      dup3\n        /* \"#utility.yul\":8760:8767   */\n      dup5\n        /* \"#utility.yul\":8756:8779   */\n      sub\n        /* \"#utility.yul\":8752:8784   */\n      slt\n        /* \"#utility.yul\":8749:8868   */\n      iszero\n      tag_282\n      jumpi\n        /* \"#utility.yul\":8787:8866   */\n      tag_283\n      tag_137\n      jump\t// in\n    tag_283:\n        /* \"#utility.yul\":8749:8868   */\n    tag_282:\n        /* \"#utility.yul\":8907:8908   */\n      0x00\n        /* \"#utility.yul\":8932:8993   */\n      tag_284\n        /* \"#utility.yul\":8985:8992   */\n      dup5\n        /* \"#utility.yul\":8976:8982   */\n      dup3\n        /* \"#utility.yul\":8965:8974   */\n      dup6\n        /* \"#utility.yul\":8961:8983   */\n      add\n        /* \"#utility.yul\":8932:8993   */\n      tag_163\n      jump\t// in\n    tag_284:\n        /* \"#utility.yul\":8922:8993   */\n      swap2\n      pop\n        /* \"#utility.yul\":8878:9003   */\n      pop\n        /* \"#utility.yul\":8665:9010   */\n      swap3\n      swap2\n      pop\n      pop\n      jump\t// out\n        /* \"#utility.yul\":9016:9348   */\n    tag_67:\n        /* \"#utility.yul\":9137:9141   */\n      0x00\n        /* \"#utility.yul\":9175:9177   */\n      0x40\n        /* \"#utility.yul\":9164:9173   */\n      dup3\n        /* \"#utility.yul\":9160:9178   */\n      add\n        /* \"#utility.yul\":9152:9178   */\n      swap1\n      pop\n        /* \"#utility.yul\":9188:9259   */\n      tag_286\n        /* \"#utility.yul\":9256:9257   */\n      0x00\n        /* \"#utility.yul\":9245:9254   */\n      dup4\n        /* \"#utility.yul\":9241:9258   */\n      add\n        /* \"#utility.yul\":9232:9238   */\n      dup6\n        /* \"#utility.yul\":9188:9259   */\n      tag_135\n      jump\t// in\n    tag_286:\n        /* \"#utility.yul\":9269:9341   */\n      tag_287\n        /* \"#utility.yul\":9337:9339   */\n      0x20\n        /* \"#utility.yul\":9326:9335   */\n      dup4\n        /* \"#utility.yul\":9322:9340   */\n      add\n        /* \"#utility.yul\":9313:9319   */\n      dup5\n        /* \"#utility.yul\":9269:9341   */\n      tag_135\n      jump\t// in\n    tag_287:\n        /* \"#utility.yul\":9016:9348   */\n      swap4\n      swap3\n      pop\n      pop\n      pop\n      jump\t// out\n        /* \"#utility.yul\":9354:9518   */\n    tag_164:\n        /* \"#utility.yul\":9494:9510   */\n      0x7374617274206174203c206e6f77000000000000000000000000000000000000\n        /* \"#utility.yul\":9490:9491   */\n      0x00\n        /* \"#utility.yul\":9482:9488   */\n      dup3\n        /* \"#utility.yul\":9478:9492   */\n      add\n        /* \"#utility.yul\":9471:9511   */\n      mstore\n        /* \"#utility.yul\":9354:9518   */\n      pop\n      jump\t// out\n        /* \"#utility.yul\":9524:9890   */\n    tag_165:\n        /* \"#utility.yul\":9666:9669   */\n      0x00\n        /* \"#utility.yul\":9687:9754   */\n      tag_290\n        /* \"#utility.yul\":9751:9753   */\n      0x0e\n        /* \"#utility.yul\":9746:9749   */\n      dup4\n        /* \"#utility.yul\":9687:9754   */\n      tag_157\n      jump\t// in\n    tag_290:\n        /* \"#utility.yul\":9680:9754   */\n      swap2\n      pop\n        /* \"#utility.yul\":9763:9856   */\n      tag_291\n        /* \"#utility.yul\":9852:9855   */\n      dup3\n        /* \"#utility.yul\":9763:9856   */\n      tag_164\n      jump\t// in\n    tag_291:\n        /* \"#utility.yul\":9881:9883   */\n      0x20\n        /* \"#utility.yul\":9876:9879   */\n      dup3\n        /* \"#utility.yul\":9872:9884   */\n      add\n        /* \"#utility.yul\":9865:9884   */\n      swap1\n      pop\n        /* \"#utility.yul\":9524:9890   */\n      swap2\n      swap1\n      pop\n      jump\t// out\n        /* \"#utility.yul\":9896:10315   */\n    tag_71:\n        /* \"#utility.yul\":10062:10066   */\n      0x00\n        /* \"#utility.yul\":10100:10102   */\n      0x20\n        /* \"#utility.yul\":10089:10098   */\n      dup3\n        /* \"#utility.yul\":10085:10103   */\n      add\n        /* \"#utility.yul\":10077:10103   */\n      swap1\n      pop\n        /* \"#utility.yul\":10149:10158   */\n      dup2\n        /* \"#utility.yul\":10143:10147   */\n      dup2\n        /* \"#utility.yul\":10139:10159   */\n      sub\n        /* \"#utility.yul\":10135:10136   */\n      0x00\n        /* \"#utility.yul\":10124:10133   */\n      dup4\n        /* \"#utility.yul\":10120:10137   */\n      add\n        /* \"#utility.yul\":10113:10160   */\n      mstore\n        /* \"#utility.yul\":10177:10308   */\n      tag_293\n        /* \"#utility.yul\":10303:10307   */\n      dup2\n        /* \"#utility.yul\":10177:10308   */\n      tag_165\n      jump\t// in\n    tag_293:\n        /* \"#utility.yul\":10169:10308   */\n      swap1\n      pop\n        /* \"#utility.yul\":9896:10315   */\n      swap2\n      swap1\n      pop\n      jump\t// out\n        /* \"#utility.yul\":10321:10488   */\n    tag_166:\n        /* \"#utility.yul\":10461:10480   */\n      0x656e64206174203c207374617274206174000000000000000000000000000000\n        /* \"#utility.yul\":10457:10458   */\n      0x00\n        /* \"#utility.yul\":10449:10455   */\n      dup3\n        /* \"#utility.yul\":10445:10459   */\n      add\n        /* \"#utility.yul\":10438:10481   */\n      mstore\n        /* \"#utility.yul\":10321:10488   */\n      pop\n      jump\t// out\n        /* \"#utility.yul\":10494:10860   */\n    tag_167:\n        /* \"#utility.yul\":10636:10639   */\n      0x00\n        /* \"#utility.yul\":10657:10724   */\n      tag_296\n        /* \"#utility.yul\":10721:10723   */\n      0x11\n        /* \"#utility.yul\":10716:10719   */\n      dup4\n        /* \"#utility.yul\":10657:10724   */\n      tag_157\n      jump\t// in\n    tag_296:\n        /* \"#utility.yul\":10650:10724   */\n      swap2\n      pop\n        /* \"#utility.yul\":10733:10826   */\n      tag_297\n        /* \"#utility.yul\":10822:10825   */\n      dup3\n        /* \"#utility.yul\":10733:10826   */\n      tag_166\n      jump\t// in\n    tag_297:\n        /* \"#utility.yul\":10851:10853   */\n      0x20\n        /* \"#utility.yul\":10846:10849   */\n      dup3\n        /* \"#utility.yul\":10842:10854   */\n      add\n        /* \"#utility.yul\":10835:10854   */\n      swap1\n      pop\n        /* \"#utility.yul\":10494:10860   */\n      swap2\n      swap1\n      pop\n      jump\t// out\n        /* \"#utility.yul\":10866:11285   */\n    tag_74:\n        /* \"#utility.yul\":11032:11036   */\n      0x00\n        /* \"#utility.yul\":11070:11072   */\n      0x20\n        /* \"#utility.yul\":11059:11068   */\n      dup3\n        /* \"#utility.yul\":11055:11073   */\n      add\n        /* \"#utility.yul\":11047:11073   */\n      swap1\n      pop\n        /* \"#utility.yul\":11119:11128   */\n      dup2\n        /* \"#utility.yul\":11113:11117   */\n      dup2\n        /* \"#utility.yul\":11109:11129   */\n      sub\n        /* \"#utility.yul\":11105:11106   */\n      0x00\n        /* \"#utility.yul\":11094:11103   */\n      dup4\n        /* \"#utility.yul\":11090:11107   */\n      add\n        /* \"#utility.yul\":11083:11130   */\n      mstore\n        /* \"#utility.yul\":11147:11278   */\n      tag_299\n        /* \"#utility.yul\":11273:11277   */\n      dup2\n        /* \"#utility.yul\":11147:11278   */\n      tag_167\n      jump\t// in\n    tag_299:\n        /* \"#utility.yul\":11139:11278   */\n      swap1\n      pop\n        /* \"#utility.yul\":10866:11285   */\n      swap2\n      swap1\n      pop\n      jump\t// out\n        /* \"#utility.yul\":11291:11471   */\n    tag_168:\n        /* \"#utility.yul\":11339:11416   */\n      0x4e487b7100000000000000000000000000000000000000000000000000000000\n        /* \"#utility.yul\":11336:11337   */\n      0x00\n        /* \"#utility.yul\":11329:11417   */\n      mstore\n        /* \"#utility.yul\":11436:11440   */\n      0x11\n        /* \"#utility.yul\":11433:11434   */\n      0x04\n        /* \"#utility.yul\":11426:11441   */\n      mstore\n        /* \"#utility.yul\":11460:11464   */\n      0x24\n        /* \"#utility.yul\":11457:11458   */\n      0x00\n        /* \"#utility.yul\":11450:11465   */\n      revert\n        /* \"#utility.yul\":11477:11782   */\n    tag_76:\n        /* \"#utility.yul\":11517:11520   */\n      0x00\n        /* \"#utility.yul\":11536:11556   */\n      tag_302\n        /* \"#utility.yul\":11554:11555   */\n      dup3\n        /* \"#utility.yul\":11536:11556   */\n      tag_134\n      jump\t// in\n    tag_302:\n        /* \"#utility.yul\":11531:11556   */\n      swap2\n      pop\n        /* \"#utility.yul\":11570:11590   */\n      tag_303\n        /* \"#utility.yul\":11588:11589   */\n      dup4\n        /* \"#utility.yul\":11570:11590   */\n      tag_134\n      jump\t// in\n    tag_303:\n        /* \"#utility.yul\":11565:11590   */\n      swap3\n      pop\n        /* \"#utility.yul\":11724:11725   */\n      dup3\n        /* \"#utility.yul\":11656:11722   */\n      0xffffffffffffffffffffffffffffffffffffffffffffffffffffffffffffffff\n        /* \"#utility.yul\":11652:11726   */\n      sub\n        /* \"#utility.yul\":11649:11650   */\n      dup3\n        /* \"#utility.yul\":11646:11727   */\n      gt\n        /* \"#utility.yul\":11643:11750   */\n      iszero\n      tag_304\n      jumpi\n        /* \"#utility.yul\":11730:11748   */\n      tag_305\n      tag_168\n      jump\t// in\n    tag_305:\n        /* \"#utility.yul\":11643:11750   */\n    tag_304:\n        /* \"#utility.yul\":11774:11775   */\n      dup3\n        /* \"#utility.yul\":11771:11772   */\n      dup3\n        /* \"#utility.yul\":11767:11776   */\n      add\n        /* \"#utility.yul\":11760:11776   */\n      swap1\n      pop\n        /* \"#utility.yul\":11477:11782   */\n      swap3\n      swap2\n      pop\n      pop\n      jump\t// out\n        /* \"#utility.yul\":11788:11959   */\n    tag_169:\n        /* \"#utility.yul\":11928:11951   */\n      0x656e64206174203e206d6178206475726174696f6e0000000000000000000000\n        /* \"#utility.yul\":11924:11925   */\n      0x00\n        /* \"#utility.yul\":11916:11922   */\n      dup3\n        /* \"#utility.yul\":11912:11926   */\n      add\n        /* \"#utility.yul\":11905:11952   */\n      mstore\n        /* \"#utility.yul\":11788:11959   */\n      pop\n      jump\t// out\n        /* \"#utility.yul\":11965:12331   */\n    tag_170:\n        /* \"#utility.yul\":12107:12110   */\n      0x00\n        /* \"#utility.yul\":12128:12195   */\n      tag_308\n        /* \"#utility.yul\":12192:12194   */\n      0x15\n        /* \"#utility.yul\":12187:12190   */\n      dup4\n        /* \"#utility.yul\":12128:12195   */\n      tag_157\n      jump\t// in\n    tag_308:\n        /* \"#utility.yul\":12121:12195   */\n      swap2\n      pop\n        /* \"#utility.yul\":12204:12297   */\n      tag_309\n        /* \"#utility.yul\":12293:12296   */\n      dup3\n        /* \"#utility.yul\":12204:12297   */\n      tag_169\n      jump\t// in\n    tag_309:\n        /* \"#utility.yul\":12322:12324   */\n      0x20\n        /* \"#utility.yul\":12317:12320   */\n      dup3\n        /* \"#utility.yul\":12313:12325   */\n      add\n        /* \"#utility.yul\":12306:12325   */\n      swap1\n      pop\n        /* \"#utility.yul\":11965:12331   */\n      swap2\n      swap1\n      pop\n      jump\t// out\n        /* \"#utility.yul\":12337:12756   */\n    tag_79:\n        /* \"#utility.yul\":12503:12507   */\n      0x00\n        /* \"#utility.yul\":12541:12543   */\n      0x20\n        /* \"#utility.yul\":12530:12539   */\n      dup3\n        /* \"#utility.yul\":12526:12544   */\n      add\n        /* \"#utility.yul\":12518:12544   */\n      swap1\n      pop\n        /* \"#utility.yul\":12590:12599   */\n      dup2\n        /* \"#utility.yul\":12584:12588   */\n      dup2\n        /* \"#utility.yul\":12580:12600   */\n      sub\n        /* \"#utility.yul\":12576:12577   */\n      0x00\n        /* \"#utility.yul\":12565:12574   */\n      dup4\n        /* \"#utility.yul\":12561:12578   */\n      add\n        /* \"#utility.yul\":12554:12601   */\n      mstore\n        /* \"#utility.yul\":12618:12749   */\n      tag_311\n        /* \"#utility.yul\":12744:12748   */\n      dup2\n        /* \"#utility.yul\":12618:12749   */\n      tag_170\n      jump\t// in\n    tag_311:\n        /* \"#utility.yul\":12610:12749   */\n      swap1\n      pop\n        /* \"#utility.yul\":12337:12756   */\n      swap2\n      swap1\n      pop\n      jump\t// out\n        /* \"#utility.yul\":12762:13307   */\n    tag_82:\n        /* \"#utility.yul\":12935:12939   */\n      0x00\n        /* \"#utility.yul\":12973:12976   */\n      0x80\n        /* \"#utility.yul\":12962:12971   */\n      dup3\n        /* \"#utility.yul\":12958:12977   */\n      add\n        /* \"#utility.yul\":12950:12977   */\n      swap1\n      pop\n        /* \"#utility.yul\":12987:13058   */\n      tag_313\n        /* \"#utility.yul\":13055:13056   */\n      0x00\n        /* \"#utility.yul\":13044:13053   */\n      dup4\n        /* \"#utility.yul\":13040:13057   */\n      add\n        /* \"#utility.yul\":13031:13037   */\n      dup8\n        /* \"#utility.yul\":12987:13058   */\n      tag_135\n      jump\t// in\n    tag_313:\n        /* \"#utility.yul\":13068:13140   */\n      tag_314\n        /* \"#utility.yul\":13136:13138   */\n      0x20\n        /* \"#utility.yul\":13125:13134   */\n      dup4\n        /* \"#utility.yul\":13121:13139   */\n      add\n        /* \"#utility.yul\":13112:13118   */\n      dup7\n        /* \"#utility.yul\":13068:13140   */\n      tag_135\n      jump\t// in\n    tag_314:\n        /* \"#utility.yul\":13150:13220   */\n      tag_315\n        /* \"#utility.yul\":13216:13218   */\n      0x40\n        /* \"#utility.yul\":13205:13214   */\n      dup4\n        /* \"#utility.yul\":13201:13219   */\n      add\n        /* \"#utility.yul\":13192:13198   */\n      dup6\n        /* \"#utility.yul\":13150:13220   */\n      tag_145\n      jump\t// in\n    tag_315:\n        /* \"#utility.yul\":13230:13300   */\n      tag_316\n        /* \"#utility.yul\":13296:13298   */\n      0x60\n        /* \"#utility.yul\":13285:13294   */\n      dup4\n        /* \"#utility.yul\":13281:13299   */\n      add\n        /* \"#utility.yul\":13272:13278   */\n      dup5\n        /* \"#utility.yul\":13230:13300   */\n      tag_145\n      jump\t// in\n    tag_316:\n        /* \"#utility.yul\":12762:13307   */\n      swap6\n      swap5\n      pop\n      pop\n      pop\n      pop\n      pop\n      jump\t// out\n        /* \"#utility.yul\":13313:13474   */\n    tag_171:\n        /* \"#utility.yul\":13453:13466   */\n      0x6e6f742063726561746f72000000000000000000000000000000000000000000\n        /* \"#utility.yul\":13449:13450   */\n      0x00\n        /* \"#utility.yul\":13441:13447   */\n      dup3\n        /* \"#utility.yul\":13437:13451   */\n      add\n        /* \"#utility.yul\":13430:13467   */\n      mstore\n        /* \"#utility.yul\":13313:13474   */\n      pop\n      jump\t// out\n        /* \"#utility.yul\":13480:13846   */\n    tag_172:\n        /* \"#utility.yul\":13622:13625   */\n      0x00\n        /* \"#utility.yul\":13643:13710   */\n      tag_319\n        /* \"#utility.yul\":13707:13709   */\n      0x0b\n        /* \"#utility.yul\":13702:13705   */\n      dup4\n        /* \"#utility.yul\":13643:13710   */\n      tag_157\n      jump\t// in\n    tag_319:\n        /* \"#utility.yul\":13636:13710   */\n      swap2\n      pop\n        /* \"#utility.yul\":13719:13812   */\n      tag_320\n        /* \"#utility.yul\":13808:13811   */\n      dup3\n        /* \"#utility.yul\":13719:13812   */\n      tag_171\n      jump\t// in\n    tag_320:\n        /* \"#utility.yul\":13837:13839   */\n      0x20\n        /* \"#utility.yul\":13832:13835   */\n      dup3\n        /* \"#utility.yul\":13828:13840   */\n      add\n        /* \"#utility.yul\":13821:13840   */\n      swap1\n      pop\n        /* \"#utility.yul\":13480:13846   */\n      swap2\n      swap1\n      pop\n      jump\t// out\n        /* \"#utility.yul\":13852:14271   */\n    tag_86:\n        /* \"#utility.yul\":14018:14022   */\n      0x00\n        /* \"#utility.yul\":14056:14058   */\n      0x20\n        /* \"#utility.yul\":14045:14054   */\n      dup3\n        /* \"#utility.yul\":14041:14059   */\n      add\n        /* \"#utility.yul\":14033:14059   */\n      swap1\n      pop\n        /* \"#utility.yul\":14105:14114   */\n      dup2\n        /* \"#utility.yul\":14099:14103   */\n      dup2\n        /* \"#utility.yul\":14095:14115   */\n      sub\n        /* \"#utility.yul\":14091:14092   */\n      0x00\n        /* \"#utility.yul\":14080:14089   */\n      dup4\n        /* \"#utility.yul\":14076:14093   */\n      add\n        /* \"#utility.yul\":14069:14116   */\n      mstore\n        /* \"#utility.yul\":14133:14264   */\n      tag_322\n        /* \"#utility.yul\":14259:14263   */\n      dup2\n        /* \"#utility.yul\":14133:14264   */\n      tag_172\n      jump\t// in\n    tag_322:\n        /* \"#utility.yul\":14125:14264   */\n      swap1\n      pop\n        /* \"#utility.yul\":13852:14271   */\n      swap2\n      swap1\n      pop\n      jump\t// out\n        /* \"#utility.yul\":14277:14437   */\n    tag_173:\n        /* \"#utility.yul\":14417:14429   */\n      0x6e6f7420656e6465646500000000000000000000000000000000000000000000\n        /* \"#utility.yul\":14413:14414   */\n      0x00\n        /* \"#utility.yul\":14405:14411   */\n      dup3\n        /* \"#utility.yul\":14401:14415   */\n      add\n        /* \"#utility.yul\":14394:14430   */\n      mstore\n        /* \"#utility.yul\":14277:14437   */\n      pop\n      jump\t// out\n        /* \"#utility.yul\":14443:14809   */\n    tag_174:\n        /* \"#utility.yul\":14585:14588   */\n      0x00\n        /* \"#utility.yul\":14606:14673   */\n      tag_325\n        /* \"#utility.yul\":14670:14672   */\n      0x0a\n        /* \"#utility.yul\":14665:14668   */\n      dup4\n        /* \"#utility.yul\":14606:14673   */\n      tag_157\n      jump\t// in\n    tag_325:\n        /* \"#utility.yul\":14599:14673   */\n      swap2\n      pop\n        /* \"#utility.yul\":14682:14775   */\n      tag_326\n        /* \"#utility.yul\":14771:14774   */\n      dup3\n        /* \"#utility.yul\":14682:14775   */\n      tag_173\n      jump\t// in\n    tag_326:\n        /* \"#utility.yul\":14800:14802   */\n      0x20\n        /* \"#utility.yul\":14795:14798   */\n      dup3\n        /* \"#utility.yul\":14791:14803   */\n      add\n        /* \"#utility.yul\":14784:14803   */\n      swap1\n      pop\n        /* \"#utility.yul\":14443:14809   */\n      swap2\n      swap1\n      pop\n      jump\t// out\n        /* \"#utility.yul\":14815:15234   */\n    tag_89:\n        /* \"#utility.yul\":14981:14985   */\n      0x00\n        /* \"#utility.yul\":15019:15021   */\n      0x20\n        /* \"#utility.yul\":15008:15017   */\n      dup3\n        /* \"#utility.yul\":15004:15022   */\n      add\n        /* \"#utility.yul\":14996:15022   */\n      swap1\n      pop\n        /* \"#utility.yul\":15068:15077   */\n      dup2\n        /* \"#utility.yul\":15062:15066   */\n      dup2\n        /* \"#utility.yul\":15058:15078   */\n      sub\n        /* \"#utility.yul\":15054:15055   */\n      0x00\n        /* \"#utility.yul\":15043:15052   */\n      dup4\n        /* \"#utility.yul\":15039:15056   */\n      add\n        /* \"#utility.yul\":15032:15079   */\n      mstore\n        /* \"#utility.yul\":15096:15227   */\n      tag_328\n        /* \"#utility.yul\":15222:15226   */\n      dup2\n        /* \"#utility.yul\":15096:15227   */\n      tag_174\n      jump\t// in\n    tag_328:\n        /* \"#utility.yul\":15088:15227   */\n      swap1\n      pop\n        /* \"#utility.yul\":14815:15234   */\n      swap2\n      swap1\n      pop\n      jump\t// out\n        /* \"#utility.yul\":15240:15404   */\n    tag_175:\n        /* \"#utility.yul\":15380:15396   */\n      0x706c6564676564203c20676f616c000000000000000000000000000000000000\n        /* \"#utility.yul\":15376:15377   */\n      0x00\n        /* \"#utility.yul\":15368:15374   */\n      dup3\n        /* \"#utility.yul\":15364:15378   */\n      add\n        /* \"#utility.yul\":15357:15397   */\n      mstore\n        /* \"#utility.yul\":15240:15404   */\n      pop\n      jump\t// out\n        /* \"#utility.yul\":15410:15776   */\n    tag_176:\n        /* \"#utility.yul\":15552:15555   */\n      0x00\n        /* \"#utility.yul\":15573:15640   */\n      tag_331\n        /* \"#utility.yul\":15637:15639   */\n      0x0e\n        /* \"#utility.yul\":15632:15635   */\n      dup4\n        /* \"#utility.yul\":15573:15640   */\n      tag_157\n      jump\t// in\n    tag_331:\n        /* \"#utility.yul\":15566:15640   */\n      swap2\n      pop\n        /* \"#utility.yul\":15649:15742   */\n      tag_332\n        /* \"#utility.yul\":15738:15741   */\n      dup3\n        /* \"#utility.yul\":15649:15742   */\n      tag_175\n      jump\t// in\n    tag_332:\n        /* \"#utility.yul\":15767:15769   */\n      0x20\n        /* \"#utility.yul\":15762:15765   */\n      dup3\n        /* \"#utility.yul\":15758:15770   */\n      add\n        /* \"#utility.yul\":15751:15770   */\n      swap1\n      pop\n        /* \"#utility.yul\":15410:15776   */\n      swap2\n      swap1\n      pop\n      jump\t// out\n        /* \"#utility.yul\":15782:16201   */\n    tag_92:\n        /* \"#utility.yul\":15948:15952   */\n      0x00\n        /* \"#utility.yul\":15986:15988   */\n      0x20\n        /* \"#utility.yul\":15975:15984   */\n      dup3\n        /* \"#utility.yul\":15971:15989   */\n      add\n        /* \"#utility.yul\":15963:15989   */\n      swap1\n      pop\n        /* \"#utility.yul\":16035:16044   */\n      dup2\n        /* \"#utility.yul\":16029:16033   */\n      dup2\n        /* \"#utility.yul\":16025:16045   */\n      sub\n        /* \"#utility.yul\":16021:16022   */\n      0x00\n        /* \"#utility.yul\":16010:16019   */\n      dup4\n        /* \"#utility.yul\":16006:16023   */\n      add\n        /* \"#utility.yul\":15999:16046   */\n      mstore\n        /* \"#utility.yul\":16063:16194   */\n      tag_334\n        /* \"#utility.yul\":16189:16193   */\n      dup2\n        /* \"#utility.yul\":16063:16194   */\n      tag_176\n      jump\t// in\n    tag_334:\n        /* \"#utility.yul\":16055:16194   */\n      swap1\n      pop\n        /* \"#utility.yul\":15782:16201   */\n      swap2\n      swap1\n      pop\n      jump\t// out\n        /* \"#utility.yul\":16207:16364   */\n    tag_177:\n        /* \"#utility.yul\":16347:16356   */\n      0x636c61696d656400000000000000000000000000000000000000000000000000\n        /* \"#utility.yul\":16343:16344   */\n      0x00\n        /* \"#utility.yul\":16335:16341   */\n      dup3\n        /* \"#utility.yul\":16331:16345   */\n      add\n        /* \"#utility.yul\":16324:16357   */\n      mstore\n        /* \"#utility.yul\":16207:16364   */\n      pop\n      jump\t// out\n        /* \"#utility.yul\":16370:16735   */\n    tag_178:\n        /* \"#utility.yul\":16512:16515   */\n      0x00\n        /* \"#utility.yul\":16533:16599   */\n      tag_337\n        /* \"#utility.yul\":16597:16598   */\n      0x07\n        /* \"#utility.yul\":16592:16595   */\n      dup4\n        /* \"#utility.yul\":16533:16599   */\n      tag_157\n      jump\t// in\n    tag_337:\n        /* \"#utility.yul\":16526:16599   */\n      swap2\n      pop\n        /* \"#utility.yul\":16608:16701   */\n      tag_338\n        /* \"#utility.yul\":16697:16700   */\n      dup3\n        /* \"#utility.yul\":16608:16701   */\n      tag_177\n      jump\t// in\n    tag_338:\n        /* \"#utility.yul\":16726:16728   */\n      0x20\n        /* \"#utility.yul\":16721:16724   */\n      dup3\n        /* \"#utility.yul\":16717:16729   */\n      add\n        /* \"#utility.yul\":16710:16729   */\n      swap1\n      pop\n        /* \"#utility.yul\":16370:16735   */\n      swap2\n      swap1\n      pop\n      jump\t// out\n        /* \"#utility.yul\":16741:17160   */\n    tag_95:\n        /* \"#utility.yul\":16907:16911   */\n      0x00\n        /* \"#utility.yul\":16945:16947   */\n      0x20\n        /* \"#utility.yul\":16934:16943   */\n      dup3\n        /* \"#utility.yul\":16930:16948   */\n      add\n        /* \"#utility.yul\":16922:16948   */\n      swap1\n      pop\n        /* \"#utility.yul\":16994:17003   */\n      dup2\n        /* \"#utility.yul\":16988:16992   */\n      dup2\n        /* \"#utility.yul\":16984:17004   */\n      sub\n        /* \"#utility.yul\":16980:16981   */\n      0x00\n        /* \"#utility.yul\":16969:16978   */\n      dup4\n        /* \"#utility.yul\":16965:16982   */\n      add\n        /* \"#utility.yul\":16958:17005   */\n      mstore\n        /* \"#utility.yul\":17022:17153   */\n      tag_340\n        /* \"#utility.yul\":17148:17152   */\n      dup2\n        /* \"#utility.yul\":17022:17153   */\n      tag_178\n      jump\t// in\n    tag_340:\n        /* \"#utility.yul\":17014:17153   */\n      swap1\n      pop\n        /* \"#utility.yul\":16741:17160   */\n      swap2\n      swap1\n      pop\n      jump\t// out\n        /* \"#utility.yul\":17166:17323   */\n    tag_179:\n        /* \"#utility.yul\":17306:17315   */\n      0x7374617274656400000000000000000000000000000000000000000000000000\n        /* \"#utility.yul\":17302:17303   */\n      0x00\n        /* \"#utility.yul\":17294:17300   */\n      dup3\n        /* \"#utility.yul\":17290:17304   */\n      add\n        /* \"#utility.yul\":17283:17316   */\n      mstore\n        /* \"#utility.yul\":17166:17323   */\n      pop\n      jump\t// out\n        /* \"#utility.yul\":17329:17694   */\n    tag_180:\n        /* \"#utility.yul\":17471:17474   */\n      0x00\n        /* \"#utility.yul\":17492:17558   */\n      tag_343\n        /* \"#utility.yul\":17556:17557   */\n      0x07\n        /* \"#utility.yul\":17551:17554   */\n      dup4\n        /* \"#utility.yul\":17492:17558   */\n      tag_157\n      jump\t// in\n    tag_343:\n        /* \"#utility.yul\":17485:17558   */\n      swap2\n      pop\n        /* \"#utility.yul\":17567:17660   */\n      tag_344\n        /* \"#utility.yul\":17656:17659   */\n      dup3\n        /* \"#utility.yul\":17567:17660   */\n      tag_179\n      jump\t// in\n    tag_344:\n        /* \"#utility.yul\":17685:17687   */\n      0x20\n        /* \"#utility.yul\":17680:17683   */\n      dup3\n        /* \"#utility.yul\":17676:17688   */\n      add\n        /* \"#utility.yul\":17669:17688   */\n      swap1\n      pop\n        /* \"#utility.yul\":17329:17694   */\n      swap2\n      swap1\n      pop\n      jump\t// out\n        /* \"#utility.yul\":17700:18119   */\n    tag_106:\n        /* \"#utility.yul\":17866:17870   */\n      0x00\n        /* \"#utility.yul\":17904:17906   */\n      0x20\n        /* \"#utility.yul\":17893:17902   */\n      dup3\n        /* \"#utility.yul\":17889:17907   */\n      add\n        /* \"#utility.yul\":17881:17907   */\n      swap1\n      pop\n        /* \"#utility.yul\":17953:17962   */\n      dup2\n        /* \"#utility.yul\":17947:17951   */\n      dup2\n        /* \"#utility.yul\":17943:17963   */\n      sub\n        /* \"#utility.yul\":17939:17940   */\n      0x00\n        /* \"#utility.yul\":17928:17937   */\n      dup4\n        /* \"#utility.yul\":17924:17941   */\n      add\n        /* \"#utility.yul\":17917:17964   */\n      mstore\n        /* \"#utility.yul\":17981:18112   */\n      tag_346\n        /* \"#utility.yul\":18107:18111   */\n      dup2\n        /* \"#utility.yul\":17981:18112   */\n      tag_180\n      jump\t// in\n    tag_346:\n        /* \"#utility.yul\":17973:18112   */\n      swap1\n      pop\n        /* \"#utility.yul\":17700:18119   */\n      swap2\n      swap1\n      pop\n      jump\t// out\n        /* \"#utility.yul\":18125:18280   */\n    tag_181:\n        /* \"#utility.yul\":18265:18272   */\n      0x656e646564000000000000000000000000000000000000000000000000000000\n        /* \"#utility.yul\":18261:18262   */\n      0x00\n        /* \"#utility.yul\":18253:18259   */\n      dup3\n        /* \"#utility.yul\":18249:18263   */\n      add\n        /* \"#utility.yul\":18242:18273   */\n      mstore\n        /* \"#utility.yul\":18125:18280   */\n      pop\n      jump\t// out\n        /* \"#utility.yul\":18286:18651   */\n    tag_182:\n        /* \"#utility.yul\":18428:18431   */\n      0x00\n        /* \"#utility.yul\":18449:18515   */\n      tag_349\n        /* \"#utility.yul\":18513:18514   */\n      0x05\n        /* \"#utility.yul\":18508:18511   */\n      dup4\n        /* \"#utility.yul\":18449:18515   */\n      tag_157\n      jump\t// in\n    tag_349:\n        /* \"#utility.yul\":18442:18515   */\n      swap2\n      pop\n        /* \"#utility.yul\":18524:18617   */\n      tag_350\n        /* \"#utility.yul\":18613:18616   */\n      dup3\n        /* \"#utility.yul\":18524:18617   */\n      tag_181\n      jump\t// in\n    tag_350:\n        /* \"#utility.yul\":18642:18644   */\n      0x20\n        /* \"#utility.yul\":18637:18640   */\n      dup3\n        /* \"#utility.yul\":18633:18645   */\n      add\n        /* \"#utility.yul\":18626:18645   */\n      swap1\n      pop\n        /* \"#utility.yul\":18286:18651   */\n      swap2\n      swap1\n      pop\n      jump\t// out\n        /* \"#utility.yul\":18657:19076   */\n    tag_111:\n        /* \"#utility.yul\":18823:18827   */\n      0x00\n        /* \"#utility.yul\":18861:18863   */\n      0x20\n        /* \"#utility.yul\":18850:18859   */\n      dup3\n        /* \"#utility.yul\":18846:18864   */\n      add\n        /* \"#utility.yul\":18838:18864   */\n      swap1\n      pop\n        /* \"#utility.yul\":18910:18919   */\n      dup2\n        /* \"#utility.yul\":18904:18908   */\n      dup2\n        /* \"#utility.yul\":18900:18920   */\n      sub\n        /* \"#utility.yul\":18896:18897   */\n      0x00\n        /* \"#utility.yul\":18885:18894   */\n      dup4\n        /* \"#utility.yul\":18881:18898   */\n      add\n        /* \"#utility.yul\":18874:18921   */\n      mstore\n        /* \"#utility.yul\":18938:19069   */\n      tag_352\n        /* \"#utility.yul\":19064:19068   */\n      dup2\n        /* \"#utility.yul\":18938:19069   */\n      tag_182\n      jump\t// in\n    tag_352:\n        /* \"#utility.yul\":18930:19069   */\n      swap1\n      pop\n        /* \"#utility.yul\":18657:19076   */\n      swap2\n      swap1\n      pop\n      jump\t// out\n        /* \"#utility.yul\":19082:19273   */\n    tag_113:\n        /* \"#utility.yul\":19122:19126   */\n      0x00\n        /* \"#utility.yul\":19142:19162   */\n      tag_354\n        /* \"#utility.yul\":19160:19161   */\n      dup3\n        /* \"#utility.yul\":19142:19162   */\n      tag_134\n      jump\t// in\n    tag_354:\n        /* \"#utility.yul\":19137:19162   */\n      swap2\n      pop\n        /* \"#utility.yul\":19176:19196   */\n      tag_355\n        /* \"#utility.yul\":19194:19195   */\n      dup4\n        /* \"#utility.yul\":19176:19196   */\n      tag_134\n      jump\t// in\n    tag_355:\n        /* \"#utility.yul\":19171:19196   */\n      swap3\n      pop\n        /* \"#utility.yul\":19215:19216   */\n      dup3\n        /* \"#utility.yul\":19212:19213   */\n      dup3\n        /* \"#utility.yul\":19209:19217   */\n      lt\n        /* \"#utility.yul\":19206:19240   */\n      iszero\n      tag_356\n      jumpi\n        /* \"#utility.yul\":19220:19238   */\n      tag_357\n      tag_168\n      jump\t// in\n    tag_357:\n        /* \"#utility.yul\":19206:19240   */\n    tag_356:\n        /* \"#utility.yul\":19265:19266   */\n      dup3\n        /* \"#utility.yul\":19262:19263   */\n      dup3\n        /* \"#utility.yul\":19258:19267   */\n      sub\n        /* \"#utility.yul\":19250:19267   */\n      swap1\n      pop\n        /* \"#utility.yul\":19082:19273   */\n      swap3\n      swap2\n      pop\n      pop\n      jump\t// out\n        /* \"#utility.yul\":19279:19440   */\n    tag_183:\n        /* \"#utility.yul\":19419:19432   */\n      0x6e6f742073746172746564000000000000000000000000000000000000000000\n        /* \"#utility.yul\":19415:19416   */\n      0x00\n        /* \"#utility.yul\":19407:19413   */\n      dup3\n        /* \"#utility.yul\":19403:19417   */\n      add\n        /* \"#utility.yul\":19396:19433   */\n      mstore\n        /* \"#utility.yul\":19279:19440   */\n      pop\n      jump\t// out\n        /* \"#utility.yul\":19446:19812   */\n    tag_184:\n        /* \"#utility.yul\":19588:19591   */\n      0x00\n        /* \"#utility.yul\":19609:19676   */\n      tag_360\n        /* \"#utility.yul\":19673:19675   */\n      0x0b\n        /* \"#utility.yul\":19668:19671   */\n      dup4\n        /* \"#utility.yul\":19609:19676   */\n      tag_157\n      jump\t// in\n    tag_360:\n        /* \"#utility.yul\":19602:19676   */\n      swap2\n      pop\n        /* \"#utility.yul\":19685:19778   */\n      tag_361\n        /* \"#utility.yul\":19774:19777   */\n      dup3\n        /* \"#utility.yul\":19685:19778   */\n      tag_183\n      jump\t// in\n    tag_361:\n        /* \"#utility.yul\":19803:19805   */\n      0x20\n        /* \"#utility.yul\":19798:19801   */\n      dup3\n        /* \"#utility.yul\":19794:19806   */\n      add\n        /* \"#utility.yul\":19787:19806   */\n      swap1\n      pop\n        /* \"#utility.yul\":19446:19812   */\n      swap2\n      swap1\n      pop\n      jump\t// out\n        /* \"#utility.yul\":19818:20237   */\n    tag_123:\n        /* \"#utility.yul\":19984:19988   */\n      0x00\n        /* \"#utility.yul\":20022:20024   */\n      0x20\n        /* \"#utility.yul\":20011:20020   */\n      dup3\n        /* \"#utility.yul\":20007:20025   */\n      add\n        /* \"#utility.yul\":19999:20025   */\n      swap1\n      pop\n        /* \"#utility.yul\":20071:20080   */\n      dup2\n        /* \"#utility.yul\":20065:20069   */\n      dup2\n        /* \"#utility.yul\":20061:20081   */\n      sub\n        /* \"#utility.yul\":20057:20058   */\n      0x00\n        /* \"#utility.yul\":20046:20055   */\n      dup4\n        /* \"#utility.yul\":20042:20059   */\n      add\n        /* \"#utility.yul\":20035:20082   */\n      mstore\n        /* \"#utility.yul\":20099:20230   */\n      tag_363\n        /* \"#utility.yul\":20225:20229   */\n      dup2\n        /* \"#utility.yul\":20099:20230   */\n      tag_184\n      jump\t// in\n    tag_363:\n        /* \"#utility.yul\":20091:20230   */\n      swap1\n      pop\n        /* \"#utility.yul\":19818:20237   */\n      swap2\n      swap1\n      pop\n      jump\t// out\n        /* \"#utility.yul\":20243:20685   */\n    tag_129:\n        /* \"#utility.yul\":20392:20396   */\n      0x00\n        /* \"#utility.yul\":20430:20432   */\n      0x60\n        /* \"#utility.yul\":20419:20428   */\n      dup3\n        /* \"#utility.yul\":20415:20433   */\n      add\n        /* \"#utility.yul\":20407:20433   */\n      swap1\n      pop\n        /* \"#utility.yul\":20443:20514   */\n      tag_365\n        /* \"#utility.yul\":20511:20512   */\n      0x00\n        /* \"#utility.yul\":20500:20509   */\n      dup4\n        /* \"#utility.yul\":20496:20513   */\n      add\n        /* \"#utility.yul\":20487:20493   */\n      dup7\n        /* \"#utility.yul\":20443:20514   */\n      tag_143\n      jump\t// in\n    tag_365:\n        /* \"#utility.yul\":20524:20596   */\n      tag_366\n        /* \"#utility.yul\":20592:20594   */\n      0x20\n        /* \"#utility.yul\":20581:20590   */\n      dup4\n        /* \"#utility.yul\":20577:20595   */\n      add\n        /* \"#utility.yul\":20568:20574   */\n      dup6\n        /* \"#utility.yul\":20524:20596   */\n      tag_143\n      jump\t// in\n    tag_366:\n        /* \"#utility.yul\":20606:20678   */\n      tag_367\n        /* \"#utility.yul\":20674:20676   */\n      0x40\n        /* \"#utility.yul\":20663:20672   */\n      dup4\n        /* \"#utility.yul\":20659:20677   */\n      add\n        /* \"#utility.yul\":20650:20656   */\n      dup5\n        /* \"#utility.yul\":20606:20678   */\n      tag_135\n      jump\t// in\n    tag_367:\n        /* \"#utility.yul\":20243:20685   */\n      swap5\n      swap4\n      pop\n      pop\n      pop\n      pop\n      jump\t// out\n\n    auxdata: 0xa2646970667358221220446a4540259ca9eca2e19de9308bae579509634d0d32d871fe24b180aee45ce364736f6c634300080e0033\n}\n",
				"bytecode": {
					"linkReferences": {},
					"object": "60a06040523480156200001157600080fd5b5060405162001d7f38038062001d7f8339818101604052810190620000379190620000dc565b8073ffffffffffffffffffffffffffffffffffffffff1660808173ffffffffffffffffffffffffffffffffffffffff1681525050506200010e565b600080fd5b600073ffffffffffffffffffffffffffffffffffffffff82169050919050565b6000620000a48262000077565b9050919050565b620000b68162000097565b8114620000c257600080fd5b50565b600081519050620000d681620000ab565b92915050565b600060208284031215620000f557620000f462000072565b5b60006200010584828501620000c5565b91505092915050565b608051611c3962000146600039600081816104b1015281816109fa01528181610e6d01528181610f6001526110d70152611c396000f3fe608060405234801561001057600080fd5b506004361061009e5760003560e01c806340e58ee51161006657806340e58ee51461014a578063711853ab14610166578063fc0c546a14610182578063fde327be146101a0578063fe9d561b146101bc5761009e565b806306661abd146100a3578063141961bc146100c1578063278ecde1146100f65780632c63f14614610112578063379607f51461012e575b600080fd5b6100ab6101ec565b6040516100b89190611208565b60405180910390f35b6100db60048036038101906100d69190611254565b6101f2565b6040516100ed969594939291906112fc565b60405180910390f35b610110600480360381019061010b9190611254565b61027b565b005b61012c60048036038101906101279190611389565b6105a3565b005b61014860048036038101906101439190611254565b610839565b005b610164600480360381019061015f9190611254565b610afa565b005b610180600480360381019061017b91906113dc565b610d75565b005b61018a610f5e565b604051610197919061147b565b60405180910390f35b6101ba60048036038101906101b591906113dc565b610f82565b005b6101d660048036038101906101d191906114c2565b6111ca565b6040516101e39190611208565b60405180910390f35b60005481565b60016020528060005260406000206000915090508060000160009054906101000a900473ffffffffffffffffffffffffffffffffffffffff16908060010154908060020154908060030160009054906101000a900463ffffffff16908060030160049054906101000a900463ffffffff16908060030160089054906101000a900460ff16905086565b6000600160008381526020019081526020016000206040518060c00160405290816000820160009054906101000a900473ffffffffffffffffffffffffffffffffffffffff1673ffffffffffffffffffffffffffffffffffffffff1673ffffffffffffffffffffffffffffffffffffffff16815260200160018201548152602001600282015481526020016003820160009054906101000a900463ffffffff1663ffffffff1663ffffffff1681526020016003820160049054906101000a900463ffffffff1663ffffffff1663ffffffff1681526020016003820160089054906101000a900460ff1615151515815250509050806080015163ffffffff1642116103ba576040517f08c379a00000000000000000000000000000000000000000000000000000000081526004016103b19061155f565b60405180910390fd5b8060200151816040015110610404576040517f08c379a00000000000000000000000000000000000000000000000000000000081526004016103fb906115cb565b60405180910390fd5b60006002600084815260200190815260200160002060003373ffffffffffffffffffffffffffffffffffffffff1673ffffffffffffffffffffffffffffffffffffffff16815260200190815260200160002054905060006002600085815260200190815260200160002060003373ffffffffffffffffffffffffffffffffffffffff1673ffffffffffffffffffffffffffffffffffffffff168152602001908152602001600020819055507f000000000000000000000000000000000000000000000000000000000000000073ffffffffffffffffffffffffffffffffffffffff1663a9059cbb33836040518363ffffffff1660e01b815260040161050a9291906115eb565b6020604051808303816000875af1158015610529573d6000803e3d6000fd5b505050506040513d601f19601f8201168201806040525081019061054d9190611640565b503373ffffffffffffffffffffffffffffffffffffffff167f21e12a7cad0da5928167e1084ea4d5fdf8d9af66657a2543a9ac76a0ca081477848360405161059692919061166d565b60405180910390a2505050565b428263ffffffff1610156105ec576040517f08c379a00000000000000000000000000000000000000000000000000000000081526004016105e3906116e2565b60405180910390fd5b8163ffffffff168163ffffffff16101561063b576040517f08c379a00000000000000000000000000000000000000000000000000000000081526004016106329061174e565b60405180910390fd5b6276a7004261064a919061179d565b8163ffffffff161115610692576040517f08c379a00000000000000000000000000000000000000000000000000000000081526004016106899061183f565b60405180910390fd5b60016000808282546106a4919061179d565b925050819055506040518060c001604052803373ffffffffffffffffffffffffffffffffffffffff168152602001848152602001600081526020018363ffffffff1681526020018263ffffffff16815260200160001515815250600160008054815260200190815260200160002060008201518160000160006101000a81548173ffffffffffffffffffffffffffffffffffffffff021916908373ffffffffffffffffffffffffffffffffffffffff160217905550602082015181600101556040820151816002015560608201518160030160006101000a81548163ffffffff021916908363ffffffff16021790555060808201518160030160046101000a81548163ffffffff021916908363ffffffff16021790555060a08201518160030160086101000a81548160ff0219169083151502179055509050503373ffffffffffffffffffffffffffffffffffffffff167f0601cd0d650b473037e838a2696d41e654433d065b3f56b28d1d3302e44a304f60005485858560405161082c949392919061185f565b60405180910390a2505050565b60006001600083815260200190815260200160002090503373ffffffffffffffffffffffffffffffffffffffff168160000160009054906101000a900473ffffffffffffffffffffffffffffffffffffffff1673ffffffffffffffffffffffffffffffffffffffff16146108e2576040517f08c379a00000000000000000000000000000000000000000000000000000000081526004016108d9906118f0565b60405180910390fd5b8060030160049054906101000a900463ffffffff1663ffffffff16421161093e576040517f08c379a00000000000000000000000000000000000000000000000000000000081526004016109359061195c565b60405180910390fd5b806001015481600201541015610989576040517f08c379a0000000000000000000000000000000000000000000000000000000008152600401610980906119c8565b60405180910390fd5b8060030160089054906101000a900460ff16156109db576040517f08c379a00000000000000000000000000000000000000000000000000000000081526004016109d290611a34565b60405180910390fd5b60018160030160086101000a81548160ff0219169083151502179055507f000000000000000000000000000000000000000000000000000000000000000073ffffffffffffffffffffffffffffffffffffffff1663a9059cbb8260000160009054906101000a900473ffffffffffffffffffffffffffffffffffffffff1683600201546040518363ffffffff1660e01b8152600401610a7b9291906115eb565b6020604051808303816000875af1158015610a9a573d6000803e3d6000fd5b505050506040513d601f19601f82011682018060405250810190610abe9190611640565b507f7bb2b3c10797baccb6f8c4791f1edd6ca2f0d028ee0eda64b01a9a57e3a653f782604051610aee9190611208565b60405180910390a15050565b6000600160008381526020019081526020016000206040518060c00160405290816000820160009054906101000a900473ffffffffffffffffffffffffffffffffffffffff1673ffffffffffffffffffffffffffffffffffffffff1673ffffffffffffffffffffffffffffffffffffffff16815260200160018201548152602001600282015481526020016003820160009054906101000a900463ffffffff1663ffffffff1663ffffffff1681526020016003820160049054906101000a900463ffffffff1663ffffffff1663ffffffff1681526020016003820160089054906101000a900460ff16151515158152505090503373ffffffffffffffffffffffffffffffffffffffff16816000015173ffffffffffffffffffffffffffffffffffffffff1614610c5f576040517f08c379a0000000000000000000000000000000000000000000000000000000008152600401610c56906118f0565b60405180910390fd5b806060015163ffffffff164210610cab576040517f08c379a0000000000000000000000000000000000000000000000000000000008152600401610ca290611aa0565b60405180910390fd5b60016000838152602001908152602001600020600080820160006101000a81549073ffffffffffffffffffffffffffffffffffffffff0219169055600182016000905560028201600090556003820160006101000a81549063ffffffff02191690556003820160046101000a81549063ffffffff02191690556003820160086101000a81549060ff021916905550507f8bf30e7ff26833413be5f69e1d373744864d600b664204b4a2f9844a8eedb9ed82604051610d699190611208565b60405180910390a15050565b60006001600084815260200190815260200160002090508060030160049054906101000a900463ffffffff1663ffffffff16421115610de9576040517f08c379a0000000000000000000000000000000000000000000000000000000008152600401610de090611b0c565b60405180910390fd5b81816002016000828254610dfd9190611b2c565b92505081905550816002600085815260200190815260200160002060003373ffffffffffffffffffffffffffffffffffffffff1673ffffffffffffffffffffffffffffffffffffffff1681526020019081526020016000206000828254610e649190611b2c565b925050819055507f000000000000000000000000000000000000000000000000000000000000000073ffffffffffffffffffffffffffffffffffffffff1663a9059cbb33846040518363ffffffff1660e01b8152600401610ec69291906115eb565b6020604051808303816000875af1158015610ee5573d6000803e3d6000fd5b505050506040513d601f19601f82011682018060405250810190610f099190611640565b503373ffffffffffffffffffffffffffffffffffffffff16837f2eeeab891b26a214d1b25749f88a406bdea852bd8c9bfda977e0ef8114c180ba84604051610f519190611208565b60405180910390a3505050565b7f000000000000000000000000000000000000000000000000000000000000000081565b60006001600084815260200190815260200160002090508060030160009054906101000a900463ffffffff1663ffffffff16421015610ff6576040517f08c379a0000000000000000000000000000000000000000000000000000000008152600401610fed90611bac565b60405180910390fd5b8060030160049054906101000a900463ffffffff1663ffffffff16421115611053576040517f08c379a000000000000000000000000000000000000000000000000000000000815260040161104a90611b0c565b60405180910390fd5b81816002016000828254611067919061179d565b92505081905550816002600085815260200190815260200160002060003373ffffffffffffffffffffffffffffffffffffffff1673ffffffffffffffffffffffffffffffffffffffff16815260200190815260200160002060008282546110ce919061179d565b925050819055507f000000000000000000000000000000000000000000000000000000000000000073ffffffffffffffffffffffffffffffffffffffff166323b872dd3330856040518463ffffffff1660e01b815260040161113293929190611bcc565b6020604051808303816000875af1158015611151573d6000803e3d6000fd5b505050506040513d601f19601f820116820180604052508101906111759190611640565b503373ffffffffffffffffffffffffffffffffffffffff16837f06bdb975df800a73232998e71ed585d536222f1dfeaa622d7f62a23ada686c82846040516111bd9190611208565b60405180910390a3505050565b6002602052816000526040600020602052806000526040600020600091509150505481565b6000819050919050565b611202816111ef565b82525050565b600060208201905061121d60008301846111f9565b92915050565b600080fd5b611231816111ef565b811461123c57600080fd5b50565b60008135905061124e81611228565b92915050565b60006020828403121561126a57611269611223565b5b60006112788482850161123f565b91505092915050565b600073ffffffffffffffffffffffffffffffffffffffff82169050919050565b60006112ac82611281565b9050919050565b6112bc816112a1565b82525050565b600063ffffffff82169050919050565b6112db816112c2565b82525050565b60008115159050919050565b6112f6816112e1565b82525050565b600060c08201905061131160008301896112b3565b61131e60208301886111f9565b61132b60408301876111f9565b61133860608301866112d2565b61134560808301856112d2565b61135260a08301846112ed565b979650505050505050565b611366816112c2565b811461137157600080fd5b50565b6000813590506113838161135d565b92915050565b6000806000606084860312156113a2576113a1611223565b5b60006113b08682870161123f565b93505060206113c186828701611374565b92505060406113d286828701611374565b9150509250925092565b600080604083850312156113f3576113f2611223565b5b60006114018582860161123f565b92505060206114128582860161123f565b9150509250929050565b6000819050919050565b600061144161143c61143784611281565b61141c565b611281565b9050919050565b600061145382611426565b9050919050565b600061146582611448565b9050919050565b6114758161145a565b82525050565b6000602082019050611490600083018461146c565b92915050565b61149f816112a1565b81146114aa57600080fd5b50565b6000813590506114bc81611496565b92915050565b600080604083850312156114d9576114d8611223565b5b60006114e78582860161123f565b92505060206114f8858286016114ad565b9150509250929050565b600082825260208201905092915050565b7f6e6f7420656e6465640000000000000000000000000000000000000000000000600082015250565b6000611549600983611502565b915061155482611513565b602082019050919050565b600060208201905081810360008301526115788161153c565b9050919050565b7f706c6564676564203e3d20676f616c0000000000000000000000000000000000600082015250565b60006115b5600f83611502565b91506115c08261157f565b602082019050919050565b600060208201905081810360008301526115e4816115a8565b9050919050565b600060408201905061160060008301856112b3565b61160d60208301846111f9565b9392505050565b61161d816112e1565b811461162857600080fd5b50565b60008151905061163a81611614565b92915050565b60006020828403121561165657611655611223565b5b60006116648482850161162b565b91505092915050565b600060408201905061168260008301856111f9565b61168f60208301846111f9565b9392505050565b7f7374617274206174203c206e6f77000000000000000000000000000000000000600082015250565b60006116cc600e83611502565b91506116d782611696565b602082019050919050565b600060208201905081810360008301526116fb816116bf565b9050919050565b7f656e64206174203c207374617274206174000000000000000000000000000000600082015250565b6000611738601183611502565b915061174382611702565b602082019050919050565b600060208201905081810360008301526117678161172b565b9050919050565b7f4e487b7100000000000000000000000000000000000000000000000000000000600052601160045260246000fd5b60006117a8826111ef565b91506117b3836111ef565b9250827fffffffffffffffffffffffffffffffffffffffffffffffffffffffffffffffff038211156117e8576117e761176e565b5b828201905092915050565b7f656e64206174203e206d6178206475726174696f6e0000000000000000000000600082015250565b6000611829601583611502565b9150611834826117f3565b602082019050919050565b600060208201905081810360008301526118588161181c565b9050919050565b600060808201905061187460008301876111f9565b61188160208301866111f9565b61188e60408301856112d2565b61189b60608301846112d2565b95945050505050565b7f6e6f742063726561746f72000000000000000000000000000000000000000000600082015250565b60006118da600b83611502565b91506118e5826118a4565b602082019050919050565b60006020820190508181036000830152611909816118cd565b9050919050565b7f6e6f7420656e6465646500000000000000000000000000000000000000000000600082015250565b6000611946600a83611502565b915061195182611910565b602082019050919050565b6000602082019050818103600083015261197581611939565b9050919050565b7f706c6564676564203c20676f616c000000000000000000000000000000000000600082015250565b60006119b2600e83611502565b91506119bd8261197c565b602082019050919050565b600060208201905081810360008301526119e1816119a5565b9050919050565b7f636c61696d656400000000000000000000000000000000000000000000000000600082015250565b6000611a1e600783611502565b9150611a29826119e8565b602082019050919050565b60006020820190508181036000830152611a4d81611a11565b9050919050565b7f7374617274656400000000000000000000000000000000000000000000000000600082015250565b6000611a8a600783611502565b9150611a9582611a54565b602082019050919050565b60006020820190508181036000830152611ab981611a7d565b9050919050565b7f656e646564000000000000000000000000000000000000000000000000000000600082015250565b6000611af6600583611502565b9150611b0182611ac0565b602082019050919050565b60006020820190508181036000830152611b2581611ae9565b9050919050565b6000611b37826111ef565b9150611b42836111ef565b925082821015611b5557611b5461176e565b5b828203905092915050565b7f6e6f742073746172746564000000000000000000000000000000000000000000600082015250565b6000611b96600b83611502565b9150611ba182611b60565b602082019050919050565b60006020820190508181036000830152611bc581611b89565b9050919050565b6000606082019050611be160008301866112b3565b611bee60208301856112b3565b611bfb60408301846111f9565b94935050505056fea2646970667358221220446a4540259ca9eca2e19de9308bae579509634d0d32d871fe24b180aee45ce364736f6c634300080e0033",
					"opcodes": "PUSH1 0xA0 PUSH1 0x40 MSTORE CALLVALUE DUP1 ISZERO PUSH3 0x11 JUMPI PUSH1 0x0 DUP1 REVERT JUMPDEST POP PUSH1 0x40 MLOAD PUSH3 0x1D7F CODESIZE SUB DUP1 PUSH3 0x1D7F DUP4 CODECOPY DUP2 DUP2 ADD PUSH1 0x40 MSTORE DUP2 ADD SWAP1 PUSH3 0x37 SWAP2 SWAP1 PUSH3 0xDC JUMP JUMPDEST DUP1 PUSH20 0xFFFFFFFFFFFFFFFFFFFFFFFFFFFFFFFFFFFFFFFF AND PUSH1 0x80 DUP2 PUSH20 0xFFFFFFFFFFFFFFFFFFFFFFFFFFFFFFFFFFFFFFFF AND DUP2 MSTORE POP POP POP PUSH3 0x10E JUMP JUMPDEST PUSH1 0x0 DUP1 REVERT JUMPDEST PUSH1 0x0 PUSH20 0xFFFFFFFFFFFFFFFFFFFFFFFFFFFFFFFFFFFFFFFF DUP3 AND SWAP1 POP SWAP2 SWAP1 POP JUMP JUMPDEST PUSH1 0x0 PUSH3 0xA4 DUP3 PUSH3 0x77 JUMP JUMPDEST SWAP1 POP SWAP2 SWAP1 POP JUMP JUMPDEST PUSH3 0xB6 DUP2 PUSH3 0x97 JUMP JUMPDEST DUP2 EQ PUSH3 0xC2 JUMPI PUSH1 0x0 DUP1 REVERT JUMPDEST POP JUMP JUMPDEST PUSH1 0x0 DUP2 MLOAD SWAP1 POP PUSH3 0xD6 DUP2 PUSH3 0xAB JUMP JUMPDEST SWAP3 SWAP2 POP POP JUMP JUMPDEST PUSH1 0x0 PUSH1 0x20 DUP3 DUP5 SUB SLT ISZERO PUSH3 0xF5 JUMPI PUSH3 0xF4 PUSH3 0x72 JUMP JUMPDEST JUMPDEST PUSH1 0x0 PUSH3 0x105 DUP5 DUP3 DUP6 ADD PUSH3 0xC5 JUMP JUMPDEST SWAP2 POP POP SWAP3 SWAP2 POP POP JUMP JUMPDEST PUSH1 0x80 MLOAD PUSH2 0x1C39 PUSH3 0x146 PUSH1 0x0 CODECOPY PUSH1 0x0 DUP2 DUP2 PUSH2 0x4B1 ADD MSTORE DUP2 DUP2 PUSH2 0x9FA ADD MSTORE DUP2 DUP2 PUSH2 0xE6D ADD MSTORE DUP2 DUP2 PUSH2 0xF60 ADD MSTORE PUSH2 0x10D7 ADD MSTORE PUSH2 0x1C39 PUSH1 0x0 RETURN INVALID PUSH1 0x80 PUSH1 0x40 MSTORE CALLVALUE DUP1 ISZERO PUSH2 0x10 JUMPI PUSH1 0x0 DUP1 REVERT JUMPDEST POP PUSH1 0x4 CALLDATASIZE LT PUSH2 0x9E JUMPI PUSH1 0x0 CALLDATALOAD PUSH1 0xE0 SHR DUP1 PUSH4 0x40E58EE5 GT PUSH2 0x66 JUMPI DUP1 PUSH4 0x40E58EE5 EQ PUSH2 0x14A JUMPI DUP1 PUSH4 0x711853AB EQ PUSH2 0x166 JUMPI DUP1 PUSH4 0xFC0C546A EQ PUSH2 0x182 JUMPI DUP1 PUSH4 0xFDE327BE EQ PUSH2 0x1A0 JUMPI DUP1 PUSH4 0xFE9D561B EQ PUSH2 0x1BC JUMPI PUSH2 0x9E JUMP JUMPDEST DUP1 PUSH4 0x6661ABD EQ PUSH2 0xA3 JUMPI DUP1 PUSH4 0x141961BC EQ PUSH2 0xC1 JUMPI DUP1 PUSH4 0x278ECDE1 EQ PUSH2 0xF6 JUMPI DUP1 PUSH4 0x2C63F146 EQ PUSH2 0x112 JUMPI DUP1 PUSH4 0x379607F5 EQ PUSH2 0x12E JUMPI JUMPDEST PUSH1 0x0 DUP1 REVERT JUMPDEST PUSH2 0xAB PUSH2 0x1EC JUMP JUMPDEST PUSH1 0x40 MLOAD PUSH2 0xB8 SWAP2 SWAP1 PUSH2 0x1208 JUMP JUMPDEST PUSH1 0x40 MLOAD DUP1 SWAP2 SUB SWAP1 RETURN JUMPDEST PUSH2 0xDB PUSH1 0x4 DUP1 CALLDATASIZE SUB DUP2 ADD SWAP1 PUSH2 0xD6 SWAP2 SWAP1 PUSH2 0x1254 JUMP JUMPDEST PUSH2 0x1F2 JUMP JUMPDEST PUSH1 0x40 MLOAD PUSH2 0xED SWAP7 SWAP6 SWAP5 SWAP4 SWAP3 SWAP2 SWAP1 PUSH2 0x12FC JUMP JUMPDEST PUSH1 0x40 MLOAD DUP1 SWAP2 SUB SWAP1 RETURN JUMPDEST PUSH2 0x110 PUSH1 0x4 DUP1 CALLDATASIZE SUB DUP2 ADD SWAP1 PUSH2 0x10B SWAP2 SWAP1 PUSH2 0x1254 JUMP JUMPDEST PUSH2 0x27B JUMP JUMPDEST STOP JUMPDEST PUSH2 0x12C PUSH1 0x4 DUP1 CALLDATASIZE SUB DUP2 ADD SWAP1 PUSH2 0x127 SWAP2 SWAP1 PUSH2 0x1389 JUMP JUMPDEST PUSH2 0x5A3 JUMP JUMPDEST STOP JUMPDEST PUSH2 0x148 PUSH1 0x4 DUP1 CALLDATASIZE SUB DUP2 ADD SWAP1 PUSH2 0x143 SWAP2 SWAP1 PUSH2 0x1254 JUMP JUMPDEST PUSH2 0x839 JUMP JUMPDEST STOP JUMPDEST PUSH2 0x164 PUSH1 0x4 DUP1 CALLDATASIZE SUB DUP2 ADD SWAP1 PUSH2 0x15F SWAP2 SWAP1 PUSH2 0x1254 JUMP JUMPDEST PUSH2 0xAFA JUMP JUMPDEST STOP JUMPDEST PUSH2 0x180 PUSH1 0x4 DUP1 CALLDATASIZE SUB DUP2 ADD SWAP1 PUSH2 0x17B SWAP2 SWAP1 PUSH2 0x13DC JUMP JUMPDEST PUSH2 0xD75 JUMP JUMPDEST STOP JUMPDEST PUSH2 0x18A PUSH2 0xF5E JUMP JUMPDEST PUSH1 0x40 MLOAD PUSH2 0x197 SWAP2 SWAP1 PUSH2 0x147B JUMP JUMPDEST PUSH1 0x40 MLOAD DUP1 SWAP2 SUB SWAP1 RETURN JUMPDEST PUSH2 0x1BA PUSH1 0x4 DUP1 CALLDATASIZE SUB DUP2 ADD SWAP1 PUSH2 0x1B5 SWAP2 SWAP1 PUSH2 0x13DC JUMP JUMPDEST PUSH2 0xF82 JUMP JUMPDEST STOP JUMPDEST PUSH2 0x1D6 PUSH1 0x4 DUP1 CALLDATASIZE SUB DUP2 ADD SWAP1 PUSH2 0x1D1 SWAP2 SWAP1 PUSH2 0x14C2 JUMP JUMPDEST PUSH2 0x11CA JUMP JUMPDEST PUSH1 0x40 MLOAD PUSH2 0x1E3 SWAP2 SWAP1 PUSH2 0x1208 JUMP JUMPDEST PUSH1 0x40 MLOAD DUP1 SWAP2 SUB SWAP1 RETURN JUMPDEST PUSH1 0x0 SLOAD DUP2 JUMP JUMPDEST PUSH1 0x1 PUSH1 0x20 MSTORE DUP1 PUSH1 0x0 MSTORE PUSH1 0x40 PUSH1 0x0 KECCAK256 PUSH1 0x0 SWAP2 POP SWAP1 POP DUP1 PUSH1 0x0 ADD PUSH1 0x0 SWAP1 SLOAD SWAP1 PUSH2 0x100 EXP SWAP1 DIV PUSH20 0xFFFFFFFFFFFFFFFFFFFFFFFFFFFFFFFFFFFFFFFF AND SWAP1 DUP1 PUSH1 0x1 ADD SLOAD SWAP1 DUP1 PUSH1 0x2 ADD SLOAD SWAP1 DUP1 PUSH1 0x3 ADD PUSH1 0x0 SWAP1 SLOAD SWAP1 PUSH2 0x100 EXP SWAP1 DIV PUSH4 0xFFFFFFFF AND SWAP1 DUP1 PUSH1 0x3 ADD PUSH1 0x4 SWAP1 SLOAD SWAP1 PUSH2 0x100 EXP SWAP1 DIV PUSH4 0xFFFFFFFF AND SWAP1 DUP1 PUSH1 0x3 ADD PUSH1 0x8 SWAP1 SLOAD SWAP1 PUSH2 0x100 EXP SWAP1 DIV PUSH1 0xFF AND SWAP1 POP DUP7 JUMP JUMPDEST PUSH1 0x0 PUSH1 0x1 PUSH1 0x0 DUP4 DUP2 MSTORE PUSH1 0x20 ADD SWAP1 DUP2 MSTORE PUSH1 0x20 ADD PUSH1 0x0 KECCAK256 PUSH1 0x40 MLOAD DUP1 PUSH1 0xC0 ADD PUSH1 0x40 MSTORE SWAP1 DUP2 PUSH1 0x0 DUP3 ADD PUSH1 0x0 SWAP1 SLOAD SWAP1 PUSH2 0x100 EXP SWAP1 DIV PUSH20 0xFFFFFFFFFFFFFFFFFFFFFFFFFFFFFFFFFFFFFFFF AND PUSH20 0xFFFFFFFFFFFFFFFFFFFFFFFFFFFFFFFFFFFFFFFF AND PUSH20 0xFFFFFFFFFFFFFFFFFFFFFFFFFFFFFFFFFFFFFFFF AND DUP2 MSTORE PUSH1 0x20 ADD PUSH1 0x1 DUP3 ADD SLOAD DUP2 MSTORE PUSH1 0x20 ADD PUSH1 0x2 DUP3 ADD SLOAD DUP2 MSTORE PUSH1 0x20 ADD PUSH1 0x3 DUP3 ADD PUSH1 0x0 SWAP1 SLOAD SWAP1 PUSH2 0x100 EXP SWAP1 DIV PUSH4 0xFFFFFFFF AND PUSH4 0xFFFFFFFF AND PUSH4 0xFFFFFFFF AND DUP2 MSTORE PUSH1 0x20 ADD PUSH1 0x3 DUP3 ADD PUSH1 0x4 SWAP1 SLOAD SWAP1 PUSH2 0x100 EXP SWAP1 DIV PUSH4 0xFFFFFFFF AND PUSH4 0xFFFFFFFF AND PUSH4 0xFFFFFFFF AND DUP2 MSTORE PUSH1 0x20 ADD PUSH1 0x3 DUP3 ADD PUSH1 0x8 SWAP1 SLOAD SWAP1 PUSH2 0x100 EXP SWAP1 DIV PUSH1 0xFF AND ISZERO ISZERO ISZERO ISZERO DUP2 MSTORE POP POP SWAP1 POP DUP1 PUSH1 0x80 ADD MLOAD PUSH4 0xFFFFFFFF AND TIMESTAMP GT PUSH2 0x3BA JUMPI PUSH1 0x40 MLOAD PUSH32 0x8C379A000000000000000000000000000000000000000000000000000000000 DUP2 MSTORE PUSH1 0x4 ADD PUSH2 0x3B1 SWAP1 PUSH2 0x155F JUMP JUMPDEST PUSH1 0x40 MLOAD DUP1 SWAP2 SUB SWAP1 REVERT JUMPDEST DUP1 PUSH1 0x20 ADD MLOAD DUP2 PUSH1 0x40 ADD MLOAD LT PUSH2 0x404 JUMPI PUSH1 0x40 MLOAD PUSH32 0x8C379A000000000000000000000000000000000000000000000000000000000 DUP2 MSTORE PUSH1 0x4 ADD PUSH2 0x3FB SWAP1 PUSH2 0x15CB JUMP JUMPDEST PUSH1 0x40 MLOAD DUP1 SWAP2 SUB SWAP1 REVERT JUMPDEST PUSH1 0x0 PUSH1 0x2 PUSH1 0x0 DUP5 DUP2 MSTORE PUSH1 0x20 ADD SWAP1 DUP2 MSTORE PUSH1 0x20 ADD PUSH1 0x0 KECCAK256 PUSH1 0x0 CALLER PUSH20 0xFFFFFFFFFFFFFFFFFFFFFFFFFFFFFFFFFFFFFFFF AND PUSH20 0xFFFFFFFFFFFFFFFFFFFFFFFFFFFFFFFFFFFFFFFF AND DUP2 MSTORE PUSH1 0x20 ADD SWAP1 DUP2 MSTORE PUSH1 0x20 ADD PUSH1 0x0 KECCAK256 SLOAD SWAP1 POP PUSH1 0x0 PUSH1 0x2 PUSH1 0x0 DUP6 DUP2 MSTORE PUSH1 0x20 ADD SWAP1 DUP2 MSTORE PUSH1 0x20 ADD PUSH1 0x0 KECCAK256 PUSH1 0x0 CALLER PUSH20 0xFFFFFFFFFFFFFFFFFFFFFFFFFFFFFFFFFFFFFFFF AND PUSH20 0xFFFFFFFFFFFFFFFFFFFFFFFFFFFFFFFFFFFFFFFF AND DUP2 MSTORE PUSH1 0x20 ADD SWAP1 DUP2 MSTORE PUSH1 0x20 ADD PUSH1 0x0 KECCAK256 DUP2 SWAP1 SSTORE POP PUSH32 0x0 PUSH20 0xFFFFFFFFFFFFFFFFFFFFFFFFFFFFFFFFFFFFFFFF AND PUSH4 0xA9059CBB CALLER DUP4 PUSH1 0x40 MLOAD DUP4 PUSH4 0xFFFFFFFF AND PUSH1 0xE0 SHL DUP2 MSTORE PUSH1 0x4 ADD PUSH2 0x50A SWAP3 SWAP2 SWAP1 PUSH2 0x15EB JUMP JUMPDEST PUSH1 0x20 PUSH1 0x40 MLOAD DUP1 DUP4 SUB DUP2 PUSH1 0x0 DUP8 GAS CALL ISZERO DUP1 ISZERO PUSH2 0x529 JUMPI RETURNDATASIZE PUSH1 0x0 DUP1 RETURNDATACOPY RETURNDATASIZE PUSH1 0x0 REVERT JUMPDEST POP POP POP POP PUSH1 0x40 MLOAD RETURNDATASIZE PUSH1 0x1F NOT PUSH1 0x1F DUP3 ADD AND DUP3 ADD DUP1 PUSH1 0x40 MSTORE POP DUP2 ADD SWAP1 PUSH2 0x54D SWAP2 SWAP1 PUSH2 0x1640 JUMP JUMPDEST POP CALLER PUSH20 0xFFFFFFFFFFFFFFFFFFFFFFFFFFFFFFFFFFFFFFFF AND PUSH32 0x21E12A7CAD0DA5928167E1084EA4D5FDF8D9AF66657A2543A9AC76A0CA081477 DUP5 DUP4 PUSH1 0x40 MLOAD PUSH2 0x596 SWAP3 SWAP2 SWAP1 PUSH2 0x166D JUMP JUMPDEST PUSH1 0x40 MLOAD DUP1 SWAP2 SUB SWAP1 LOG2 POP POP POP JUMP JUMPDEST TIMESTAMP DUP3 PUSH4 0xFFFFFFFF AND LT ISZERO PUSH2 0x5EC JUMPI PUSH1 0x40 MLOAD PUSH32 0x8C379A000000000000000000000000000000000000000000000000000000000 DUP2 MSTORE PUSH1 0x4 ADD PUSH2 0x5E3 SWAP1 PUSH2 0x16E2 JUMP JUMPDEST PUSH1 0x40 MLOAD DUP1 SWAP2 SUB SWAP1 REVERT JUMPDEST DUP2 PUSH4 0xFFFFFFFF AND DUP2 PUSH4 0xFFFFFFFF AND LT ISZERO PUSH2 0x63B JUMPI PUSH1 0x40 MLOAD PUSH32 0x8C379A000000000000000000000000000000000000000000000000000000000 DUP2 MSTORE PUSH1 0x4 ADD PUSH2 0x632 SWAP1 PUSH2 0x174E JUMP JUMPDEST PUSH1 0x40 MLOAD DUP1 SWAP2 SUB SWAP1 REVERT JUMPDEST PUSH3 0x76A700 TIMESTAMP PUSH2 0x64A SWAP2 SWAP1 PUSH2 0x179D JUMP JUMPDEST DUP2 PUSH4 0xFFFFFFFF AND GT ISZERO PUSH2 0x692 JUMPI PUSH1 0x40 MLOAD PUSH32 0x8C379A000000000000000000000000000000000000000000000000000000000 DUP2 MSTORE PUSH1 0x4 ADD PUSH2 0x689 SWAP1 PUSH2 0x183F JUMP JUMPDEST PUSH1 0x40 MLOAD DUP1 SWAP2 SUB SWAP1 REVERT JUMPDEST PUSH1 0x1 PUSH1 0x0 DUP1 DUP3 DUP3 SLOAD PUSH2 0x6A4 SWAP2 SWAP1 PUSH2 0x179D JUMP JUMPDEST SWAP3 POP POP DUP2 SWAP1 SSTORE POP PUSH1 0x40 MLOAD DUP1 PUSH1 0xC0 ADD PUSH1 0x40 MSTORE DUP1 CALLER PUSH20 0xFFFFFFFFFFFFFFFFFFFFFFFFFFFFFFFFFFFFFFFF AND DUP2 MSTORE PUSH1 0x20 ADD DUP5 DUP2 MSTORE PUSH1 0x20 ADD PUSH1 0x0 DUP2 MSTORE PUSH1 0x20 ADD DUP4 PUSH4 0xFFFFFFFF AND DUP2 MSTORE PUSH1 0x20 ADD DUP3 PUSH4 0xFFFFFFFF AND DUP2 MSTORE PUSH1 0x20 ADD PUSH1 0x0 ISZERO ISZERO DUP2 MSTORE POP PUSH1 0x1 PUSH1 0x0 DUP1 SLOAD DUP2 MSTORE PUSH1 0x20 ADD SWAP1 DUP2 MSTORE PUSH1 0x20 ADD PUSH1 0x0 KECCAK256 PUSH1 0x0 DUP3 ADD MLOAD DUP2 PUSH1 0x0 ADD PUSH1 0x0 PUSH2 0x100 EXP DUP2 SLOAD DUP2 PUSH20 0xFFFFFFFFFFFFFFFFFFFFFFFFFFFFFFFFFFFFFFFF MUL NOT AND SWAP1 DUP4 PUSH20 0xFFFFFFFFFFFFFFFFFFFFFFFFFFFFFFFFFFFFFFFF AND MUL OR SWAP1 SSTORE POP PUSH1 0x20 DUP3 ADD MLOAD DUP2 PUSH1 0x1 ADD SSTORE PUSH1 0x40 DUP3 ADD MLOAD DUP2 PUSH1 0x2 ADD SSTORE PUSH1 0x60 DUP3 ADD MLOAD DUP2 PUSH1 0x3 ADD PUSH1 0x0 PUSH2 0x100 EXP DUP2 SLOAD DUP2 PUSH4 0xFFFFFFFF MUL NOT AND SWAP1 DUP4 PUSH4 0xFFFFFFFF AND MUL OR SWAP1 SSTORE POP PUSH1 0x80 DUP3 ADD MLOAD DUP2 PUSH1 0x3 ADD PUSH1 0x4 PUSH2 0x100 EXP DUP2 SLOAD DUP2 PUSH4 0xFFFFFFFF MUL NOT AND SWAP1 DUP4 PUSH4 0xFFFFFFFF AND MUL OR SWAP1 SSTORE POP PUSH1 0xA0 DUP3 ADD MLOAD DUP2 PUSH1 0x3 ADD PUSH1 0x8 PUSH2 0x100 EXP DUP2 SLOAD DUP2 PUSH1 0xFF MUL NOT AND SWAP1 DUP4 ISZERO ISZERO MUL OR SWAP1 SSTORE POP SWAP1 POP POP CALLER PUSH20 0xFFFFFFFFFFFFFFFFFFFFFFFFFFFFFFFFFFFFFFFF AND PUSH32 0x601CD0D650B473037E838A2696D41E654433D065B3F56B28D1D3302E44A304F PUSH1 0x0 SLOAD DUP6 DUP6 DUP6 PUSH1 0x40 MLOAD PUSH2 0x82C SWAP5 SWAP4 SWAP3 SWAP2 SWAP1 PUSH2 0x185F JUMP JUMPDEST PUSH1 0x40 MLOAD DUP1 SWAP2 SUB SWAP1 LOG2 POP POP POP JUMP JUMPDEST PUSH1 0x0 PUSH1 0x1 PUSH1 0x0 DUP4 DUP2 MSTORE PUSH1 0x20 ADD SWAP1 DUP2 MSTORE PUSH1 0x20 ADD PUSH1 0x0 KECCAK256 SWAP1 POP CALLER PUSH20 0xFFFFFFFFFFFFFFFFFFFFFFFFFFFFFFFFFFFFFFFF AND DUP2 PUSH1 0x0 ADD PUSH1 0x0 SWAP1 SLOAD SWAP1 PUSH2 0x100 EXP SWAP1 DIV PUSH20 0xFFFFFFFFFFFFFFFFFFFFFFFFFFFFFFFFFFFFFFFF AND PUSH20 0xFFFFFFFFFFFFFFFFFFFFFFFFFFFFFFFFFFFFFFFF AND EQ PUSH2 0x8E2 JUMPI PUSH1 0x40 MLOAD PUSH32 0x8C379A000000000000000000000000000000000000000000000000000000000 DUP2 MSTORE PUSH1 0x4 ADD PUSH2 0x8D9 SWAP1 PUSH2 0x18F0 JUMP JUMPDEST PUSH1 0x40 MLOAD DUP1 SWAP2 SUB SWAP1 REVERT JUMPDEST DUP1 PUSH1 0x3 ADD PUSH1 0x4 SWAP1 SLOAD SWAP1 PUSH2 0x100 EXP SWAP1 DIV PUSH4 0xFFFFFFFF AND PUSH4 0xFFFFFFFF AND TIMESTAMP GT PUSH2 0x93E JUMPI PUSH1 0x40 MLOAD PUSH32 0x8C379A000000000000000000000000000000000000000000000000000000000 DUP2 MSTORE PUSH1 0x4 ADD PUSH2 0x935 SWAP1 PUSH2 0x195C JUMP JUMPDEST PUSH1 0x40 MLOAD DUP1 SWAP2 SUB SWAP1 REVERT JUMPDEST DUP1 PUSH1 0x1 ADD SLOAD DUP2 PUSH1 0x2 ADD SLOAD LT ISZERO PUSH2 0x989 JUMPI PUSH1 0x40 MLOAD PUSH32 0x8C379A000000000000000000000000000000000000000000000000000000000 DUP2 MSTORE PUSH1 0x4 ADD PUSH2 0x980 SWAP1 PUSH2 0x19C8 JUMP JUMPDEST PUSH1 0x40 MLOAD DUP1 SWAP2 SUB SWAP1 REVERT JUMPDEST DUP1 PUSH1 0x3 ADD PUSH1 0x8 SWAP1 SLOAD SWAP1 PUSH2 0x100 EXP SWAP1 DIV PUSH1 0xFF AND ISZERO PUSH2 0x9DB JUMPI PUSH1 0x40 MLOAD PUSH32 0x8C379A000000000000000000000000000000000000000000000000000000000 DUP2 MSTORE PUSH1 0x4 ADD PUSH2 0x9D2 SWAP1 PUSH2 0x1A34 JUMP JUMPDEST PUSH1 0x40 MLOAD DUP1 SWAP2 SUB SWAP1 REVERT JUMPDEST PUSH1 0x1 DUP2 PUSH1 0x3 ADD PUSH1 0x8 PUSH2 0x100 EXP DUP2 SLOAD DUP2 PUSH1 0xFF MUL NOT AND SWAP1 DUP4 ISZERO ISZERO MUL OR SWAP1 SSTORE POP PUSH32 0x0 PUSH20 0xFFFFFFFFFFFFFFFFFFFFFFFFFFFFFFFFFFFFFFFF AND PUSH4 0xA9059CBB DUP3 PUSH1 0x0 ADD PUSH1 0x0 SWAP1 SLOAD SWAP1 PUSH2 0x100 EXP SWAP1 DIV PUSH20 0xFFFFFFFFFFFFFFFFFFFFFFFFFFFFFFFFFFFFFFFF AND DUP4 PUSH1 0x2 ADD SLOAD PUSH1 0x40 MLOAD DUP4 PUSH4 0xFFFFFFFF AND PUSH1 0xE0 SHL DUP2 MSTORE PUSH1 0x4 ADD PUSH2 0xA7B SWAP3 SWAP2 SWAP1 PUSH2 0x15EB JUMP JUMPDEST PUSH1 0x20 PUSH1 0x40 MLOAD DUP1 DUP4 SUB DUP2 PUSH1 0x0 DUP8 GAS CALL ISZERO DUP1 ISZERO PUSH2 0xA9A JUMPI RETURNDATASIZE PUSH1 0x0 DUP1 RETURNDATACOPY RETURNDATASIZE PUSH1 0x0 REVERT JUMPDEST POP POP POP POP PUSH1 0x40 MLOAD RETURNDATASIZE PUSH1 0x1F NOT PUSH1 0x1F DUP3 ADD AND DUP3 ADD DUP1 PUSH1 0x40 MSTORE POP DUP2 ADD SWAP1 PUSH2 0xABE SWAP2 SWAP1 PUSH2 0x1640 JUMP JUMPDEST POP PUSH32 0x7BB2B3C10797BACCB6F8C4791F1EDD6CA2F0D028EE0EDA64B01A9A57E3A653F7 DUP3 PUSH1 0x40 MLOAD PUSH2 0xAEE SWAP2 SWAP1 PUSH2 0x1208 JUMP JUMPDEST PUSH1 0x40 MLOAD DUP1 SWAP2 SUB SWAP1 LOG1 POP POP JUMP JUMPDEST PUSH1 0x0 PUSH1 0x1 PUSH1 0x0 DUP4 DUP2 MSTORE PUSH1 0x20 ADD SWAP1 DUP2 MSTORE PUSH1 0x20 ADD PUSH1 0x0 KECCAK256 PUSH1 0x40 MLOAD DUP1 PUSH1 0xC0 ADD PUSH1 0x40 MSTORE SWAP1 DUP2 PUSH1 0x0 DUP3 ADD PUSH1 0x0 SWAP1 SLOAD SWAP1 PUSH2 0x100 EXP SWAP1 DIV PUSH20 0xFFFFFFFFFFFFFFFFFFFFFFFFFFFFFFFFFFFFFFFF AND PUSH20 0xFFFFFFFFFFFFFFFFFFFFFFFFFFFFFFFFFFFFFFFF AND PUSH20 0xFFFFFFFFFFFFFFFFFFFFFFFFFFFFFFFFFFFFFFFF AND DUP2 MSTORE PUSH1 0x20 ADD PUSH1 0x1 DUP3 ADD SLOAD DUP2 MSTORE PUSH1 0x20 ADD PUSH1 0x2 DUP3 ADD SLOAD DUP2 MSTORE PUSH1 0x20 ADD PUSH1 0x3 DUP3 ADD PUSH1 0x0 SWAP1 SLOAD SWAP1 PUSH2 0x100 EXP SWAP1 DIV PUSH4 0xFFFFFFFF AND PUSH4 0xFFFFFFFF AND PUSH4 0xFFFFFFFF AND DUP2 MSTORE PUSH1 0x20 ADD PUSH1 0x3 DUP3 ADD PUSH1 0x4 SWAP1 SLOAD SWAP1 PUSH2 0x100 EXP SWAP1 DIV PUSH4 0xFFFFFFFF AND PUSH4 0xFFFFFFFF AND PUSH4 0xFFFFFFFF AND DUP2 MSTORE PUSH1 0x20 ADD PUSH1 0x3 DUP3 ADD PUSH1 0x8 SWAP1 SLOAD SWAP1 PUSH2 0x100 EXP SWAP1 DIV PUSH1 0xFF AND ISZERO ISZERO ISZERO ISZERO DUP2 MSTORE POP POP SWAP1 POP CALLER PUSH20 0xFFFFFFFFFFFFFFFFFFFFFFFFFFFFFFFFFFFFFFFF AND DUP2 PUSH1 0x0 ADD MLOAD PUSH20 0xFFFFFFFFFFFFFFFFFFFFFFFFFFFFFFFFFFFFFFFF AND EQ PUSH2 0xC5F JUMPI PUSH1 0x40 MLOAD PUSH32 0x8C379A000000000000000000000000000000000000000000000000000000000 DUP2 MSTORE PUSH1 0x4 ADD PUSH2 0xC56 SWAP1 PUSH2 0x18F0 JUMP JUMPDEST PUSH1 0x40 MLOAD DUP1 SWAP2 SUB SWAP1 REVERT JUMPDEST DUP1 PUSH1 0x60 ADD MLOAD PUSH4 0xFFFFFFFF AND TIMESTAMP LT PUSH2 0xCAB JUMPI PUSH1 0x40 MLOAD PUSH32 0x8C379A000000000000000000000000000000000000000000000000000000000 DUP2 MSTORE PUSH1 0x4 ADD PUSH2 0xCA2 SWAP1 PUSH2 0x1AA0 JUMP JUMPDEST PUSH1 0x40 MLOAD DUP1 SWAP2 SUB SWAP1 REVERT JUMPDEST PUSH1 0x1 PUSH1 0x0 DUP4 DUP2 MSTORE PUSH1 0x20 ADD SWAP1 DUP2 MSTORE PUSH1 0x20 ADD PUSH1 0x0 KECCAK256 PUSH1 0x0 DUP1 DUP3 ADD PUSH1 0x0 PUSH2 0x100 EXP DUP2 SLOAD SWAP1 PUSH20 0xFFFFFFFFFFFFFFFFFFFFFFFFFFFFFFFFFFFFFFFF MUL NOT AND SWAP1 SSTORE PUSH1 0x1 DUP3 ADD PUSH1 0x0 SWAP1 SSTORE PUSH1 0x2 DUP3 ADD PUSH1 0x0 SWAP1 SSTORE PUSH1 0x3 DUP3 ADD PUSH1 0x0 PUSH2 0x100 EXP DUP2 SLOAD SWAP1 PUSH4 0xFFFFFFFF MUL NOT AND SWAP1 SSTORE PUSH1 0x3 DUP3 ADD PUSH1 0x4 PUSH2 0x100 EXP DUP2 SLOAD SWAP1 PUSH4 0xFFFFFFFF MUL NOT AND SWAP1 SSTORE PUSH1 0x3 DUP3 ADD PUSH1 0x8 PUSH2 0x100 EXP DUP2 SLOAD SWAP1 PUSH1 0xFF MUL NOT AND SWAP1 SSTORE POP POP PUSH32 0x8BF30E7FF26833413BE5F69E1D373744864D600B664204B4A2F9844A8EEDB9ED DUP3 PUSH1 0x40 MLOAD PUSH2 0xD69 SWAP2 SWAP1 PUSH2 0x1208 JUMP JUMPDEST PUSH1 0x40 MLOAD DUP1 SWAP2 SUB SWAP1 LOG1 POP POP JUMP JUMPDEST PUSH1 0x0 PUSH1 0x1 PUSH1 0x0 DUP5 DUP2 MSTORE PUSH1 0x20 ADD SWAP1 DUP2 MSTORE PUSH1 0x20 ADD PUSH1 0x0 KECCAK256 SWAP1 POP DUP1 PUSH1 0x3 ADD PUSH1 0x4 SWAP1 SLOAD SWAP1 PUSH2 0x100 EXP SWAP1 DIV PUSH4 0xFFFFFFFF AND PUSH4 0xFFFFFFFF AND TIMESTAMP GT ISZERO PUSH2 0xDE9 JUMPI PUSH1 0x40 MLOAD PUSH32 0x8C379A000000000000000000000000000000000000000000000000000000000 DUP2 MSTORE PUSH1 0x4 ADD PUSH2 0xDE0 SWAP1 PUSH2 0x1B0C JUMP JUMPDEST PUSH1 0x40 MLOAD DUP1 SWAP2 SUB SWAP1 REVERT JUMPDEST DUP2 DUP2 PUSH1 0x2 ADD PUSH1 0x0 DUP3 DUP3 SLOAD PUSH2 0xDFD SWAP2 SWAP1 PUSH2 0x1B2C JUMP JUMPDEST SWAP3 POP POP DUP2 SWAP1 SSTORE POP DUP2 PUSH1 0x2 PUSH1 0x0 DUP6 DUP2 MSTORE PUSH1 0x20 ADD SWAP1 DUP2 MSTORE PUSH1 0x20 ADD PUSH1 0x0 KECCAK256 PUSH1 0x0 CALLER PUSH20 0xFFFFFFFFFFFFFFFFFFFFFFFFFFFFFFFFFFFFFFFF AND PUSH20 0xFFFFFFFFFFFFFFFFFFFFFFFFFFFFFFFFFFFFFFFF AND DUP2 MSTORE PUSH1 0x20 ADD SWAP1 DUP2 MSTORE PUSH1 0x20 ADD PUSH1 0x0 KECCAK256 PUSH1 0x0 DUP3 DUP3 SLOAD PUSH2 0xE64 SWAP2 SWAP1 PUSH2 0x1B2C JUMP JUMPDEST SWAP3 POP POP DUP2 SWAP1 SSTORE POP PUSH32 0x0 PUSH20 0xFFFFFFFFFFFFFFFFFFFFFFFFFFFFFFFFFFFFFFFF AND PUSH4 0xA9059CBB CALLER DUP5 PUSH1 0x40 MLOAD DUP4 PUSH4 0xFFFFFFFF AND PUSH1 0xE0 SHL DUP2 MSTORE PUSH1 0x4 ADD PUSH2 0xEC6 SWAP3 SWAP2 SWAP1 PUSH2 0x15EB JUMP JUMPDEST PUSH1 0x20 PUSH1 0x40 MLOAD DUP1 DUP4 SUB DUP2 PUSH1 0x0 DUP8 GAS CALL ISZERO DUP1 ISZERO PUSH2 0xEE5 JUMPI RETURNDATASIZE PUSH1 0x0 DUP1 RETURNDATACOPY RETURNDATASIZE PUSH1 0x0 REVERT JUMPDEST POP POP POP POP PUSH1 0x40 MLOAD RETURNDATASIZE PUSH1 0x1F NOT PUSH1 0x1F DUP3 ADD AND DUP3 ADD DUP1 PUSH1 0x40 MSTORE POP DUP2 ADD SWAP1 PUSH2 0xF09 SWAP2 SWAP1 PUSH2 0x1640 JUMP JUMPDEST POP CALLER PUSH20 0xFFFFFFFFFFFFFFFFFFFFFFFFFFFFFFFFFFFFFFFF AND DUP4 PUSH32 0x2EEEAB891B26A214D1B25749F88A406BDEA852BD8C9BFDA977E0EF8114C180BA DUP5 PUSH1 0x40 MLOAD PUSH2 0xF51 SWAP2 SWAP1 PUSH2 0x1208 JUMP JUMPDEST PUSH1 0x40 MLOAD DUP1 SWAP2 SUB SWAP1 LOG3 POP POP POP JUMP JUMPDEST PUSH32 0x0 DUP2 JUMP JUMPDEST PUSH1 0x0 PUSH1 0x1 PUSH1 0x0 DUP5 DUP2 MSTORE PUSH1 0x20 ADD SWAP1 DUP2 MSTORE PUSH1 0x20 ADD PUSH1 0x0 KECCAK256 SWAP1 POP DUP1 PUSH1 0x3 ADD PUSH1 0x0 SWAP1 SLOAD SWAP1 PUSH2 0x100 EXP SWAP1 DIV PUSH4 0xFFFFFFFF AND PUSH4 0xFFFFFFFF AND TIMESTAMP LT ISZERO PUSH2 0xFF6 JUMPI PUSH1 0x40 MLOAD PUSH32 0x8C379A000000000000000000000000000000000000000000000000000000000 DUP2 MSTORE PUSH1 0x4 ADD PUSH2 0xFED SWAP1 PUSH2 0x1BAC JUMP JUMPDEST PUSH1 0x40 MLOAD DUP1 SWAP2 SUB SWAP1 REVERT JUMPDEST DUP1 PUSH1 0x3 ADD PUSH1 0x4 SWAP1 SLOAD SWAP1 PUSH2 0x100 EXP SWAP1 DIV PUSH4 0xFFFFFFFF AND PUSH4 0xFFFFFFFF AND TIMESTAMP GT ISZERO PUSH2 0x1053 JUMPI PUSH1 0x40 MLOAD PUSH32 0x8C379A000000000000000000000000000000000000000000000000000000000 DUP2 MSTORE PUSH1 0x4 ADD PUSH2 0x104A SWAP1 PUSH2 0x1B0C JUMP JUMPDEST PUSH1 0x40 MLOAD DUP1 SWAP2 SUB SWAP1 REVERT JUMPDEST DUP2 DUP2 PUSH1 0x2 ADD PUSH1 0x0 DUP3 DUP3 SLOAD PUSH2 0x1067 SWAP2 SWAP1 PUSH2 0x179D JUMP JUMPDEST SWAP3 POP POP DUP2 SWAP1 SSTORE POP DUP2 PUSH1 0x2 PUSH1 0x0 DUP6 DUP2 MSTORE PUSH1 0x20 ADD SWAP1 DUP2 MSTORE PUSH1 0x20 ADD PUSH1 0x0 KECCAK256 PUSH1 0x0 CALLER PUSH20 0xFFFFFFFFFFFFFFFFFFFFFFFFFFFFFFFFFFFFFFFF AND PUSH20 0xFFFFFFFFFFFFFFFFFFFFFFFFFFFFFFFFFFFFFFFF AND DUP2 MSTORE PUSH1 0x20 ADD SWAP1 DUP2 MSTORE PUSH1 0x20 ADD PUSH1 0x0 KECCAK256 PUSH1 0x0 DUP3 DUP3 SLOAD PUSH2 0x10CE SWAP2 SWAP1 PUSH2 0x179D JUMP JUMPDEST SWAP3 POP POP DUP2 SWAP1 SSTORE POP PUSH32 0x0 PUSH20 0xFFFFFFFFFFFFFFFFFFFFFFFFFFFFFFFFFFFFFFFF AND PUSH4 0x23B872DD CALLER ADDRESS DUP6 PUSH1 0x40 MLOAD DUP5 PUSH4 0xFFFFFFFF AND PUSH1 0xE0 SHL DUP2 MSTORE PUSH1 0x4 ADD PUSH2 0x1132 SWAP4 SWAP3 SWAP2 SWAP1 PUSH2 0x1BCC JUMP JUMPDEST PUSH1 0x20 PUSH1 0x40 MLOAD DUP1 DUP4 SUB DUP2 PUSH1 0x0 DUP8 GAS CALL ISZERO DUP1 ISZERO PUSH2 0x1151 JUMPI RETURNDATASIZE PUSH1 0x0 DUP1 RETURNDATACOPY RETURNDATASIZE PUSH1 0x0 REVERT JUMPDEST POP POP POP POP PUSH1 0x40 MLOAD RETURNDATASIZE PUSH1 0x1F NOT PUSH1 0x1F DUP3 ADD AND DUP3 ADD DUP1 PUSH1 0x40 MSTORE POP DUP2 ADD SWAP1 PUSH2 0x1175 SWAP2 SWAP1 PUSH2 0x1640 JUMP JUMPDEST POP CALLER PUSH20 0xFFFFFFFFFFFFFFFFFFFFFFFFFFFFFFFFFFFFFFFF AND DUP4 PUSH32 0x6BDB975DF800A73232998E71ED585D536222F1DFEAA622D7F62A23ADA686C82 DUP5 PUSH1 0x40 MLOAD PUSH2 0x11BD SWAP2 SWAP1 PUSH2 0x1208 JUMP JUMPDEST PUSH1 0x40 MLOAD DUP1 SWAP2 SUB SWAP1 LOG3 POP POP POP JUMP JUMPDEST PUSH1 0x2 PUSH1 0x20 MSTORE DUP2 PUSH1 0x0 MSTORE PUSH1 0x40 PUSH1 0x0 KECCAK256 PUSH1 0x20 MSTORE DUP1 PUSH1 0x0 MSTORE PUSH1 0x40 PUSH1 0x0 KECCAK256 PUSH1 0x0 SWAP2 POP SWAP2 POP POP SLOAD DUP2 JUMP JUMPDEST PUSH1 0x0 DUP2 SWAP1 POP SWAP2 SWAP1 POP JUMP JUMPDEST PUSH2 0x1202 DUP2 PUSH2 0x11EF JUMP JUMPDEST DUP3 MSTORE POP POP JUMP JUMPDEST PUSH1 0x0 PUSH1 0x20 DUP3 ADD SWAP1 POP PUSH2 0x121D PUSH1 0x0 DUP4 ADD DUP5 PUSH2 0x11F9 JUMP JUMPDEST SWAP3 SWAP2 POP POP JUMP JUMPDEST PUSH1 0x0 DUP1 REVERT JUMPDEST PUSH2 0x1231 DUP2 PUSH2 0x11EF JUMP JUMPDEST DUP2 EQ PUSH2 0x123C JUMPI PUSH1 0x0 DUP1 REVERT JUMPDEST POP JUMP JUMPDEST PUSH1 0x0 DUP2 CALLDATALOAD SWAP1 POP PUSH2 0x124E DUP2 PUSH2 0x1228 JUMP JUMPDEST SWAP3 SWAP2 POP POP JUMP JUMPDEST PUSH1 0x0 PUSH1 0x20 DUP3 DUP5 SUB SLT ISZERO PUSH2 0x126A JUMPI PUSH2 0x1269 PUSH2 0x1223 JUMP JUMPDEST JUMPDEST PUSH1 0x0 PUSH2 0x1278 DUP5 DUP3 DUP6 ADD PUSH2 0x123F JUMP JUMPDEST SWAP2 POP POP SWAP3 SWAP2 POP POP JUMP JUMPDEST PUSH1 0x0 PUSH20 0xFFFFFFFFFFFFFFFFFFFFFFFFFFFFFFFFFFFFFFFF DUP3 AND SWAP1 POP SWAP2 SWAP1 POP JUMP JUMPDEST PUSH1 0x0 PUSH2 0x12AC DUP3 PUSH2 0x1281 JUMP JUMPDEST SWAP1 POP SWAP2 SWAP1 POP JUMP JUMPDEST PUSH2 0x12BC DUP2 PUSH2 0x12A1 JUMP JUMPDEST DUP3 MSTORE POP POP JUMP JUMPDEST PUSH1 0x0 PUSH4 0xFFFFFFFF DUP3 AND SWAP1 POP SWAP2 SWAP1 POP JUMP JUMPDEST PUSH2 0x12DB DUP2 PUSH2 0x12C2 JUMP JUMPDEST DUP3 MSTORE POP POP JUMP JUMPDEST PUSH1 0x0 DUP2 ISZERO ISZERO SWAP1 POP SWAP2 SWAP1 POP JUMP JUMPDEST PUSH2 0x12F6 DUP2 PUSH2 0x12E1 JUMP JUMPDEST DUP3 MSTORE POP POP JUMP JUMPDEST PUSH1 0x0 PUSH1 0xC0 DUP3 ADD SWAP1 POP PUSH2 0x1311 PUSH1 0x0 DUP4 ADD DUP10 PUSH2 0x12B3 JUMP JUMPDEST PUSH2 0x131E PUSH1 0x20 DUP4 ADD DUP9 PUSH2 0x11F9 JUMP JUMPDEST PUSH2 0x132B PUSH1 0x40 DUP4 ADD DUP8 PUSH2 0x11F9 JUMP JUMPDEST PUSH2 0x1338 PUSH1 0x60 DUP4 ADD DUP7 PUSH2 0x12D2 JUMP JUMPDEST PUSH2 0x1345 PUSH1 0x80 DUP4 ADD DUP6 PUSH2 0x12D2 JUMP JUMPDEST PUSH2 0x1352 PUSH1 0xA0 DUP4 ADD DUP5 PUSH2 0x12ED JUMP JUMPDEST SWAP8 SWAP7 POP POP POP POP POP POP POP JUMP JUMPDEST PUSH2 0x1366 DUP2 PUSH2 0x12C2 JUMP JUMPDEST DUP2 EQ PUSH2 0x1371 JUMPI PUSH1 0x0 DUP1 REVERT JUMPDEST POP JUMP JUMPDEST PUSH1 0x0 DUP2 CALLDATALOAD SWAP1 POP PUSH2 0x1383 DUP2 PUSH2 0x135D JUMP JUMPDEST SWAP3 SWAP2 POP POP JUMP JUMPDEST PUSH1 0x0 DUP1 PUSH1 0x0 PUSH1 0x60 DUP5 DUP7 SUB SLT ISZERO PUSH2 0x13A2 JUMPI PUSH2 0x13A1 PUSH2 0x1223 JUMP JUMPDEST JUMPDEST PUSH1 0x0 PUSH2 0x13B0 DUP7 DUP3 DUP8 ADD PUSH2 0x123F JUMP JUMPDEST SWAP4 POP POP PUSH1 0x20 PUSH2 0x13C1 DUP7 DUP3 DUP8 ADD PUSH2 0x1374 JUMP JUMPDEST SWAP3 POP POP PUSH1 0x40 PUSH2 0x13D2 DUP7 DUP3 DUP8 ADD PUSH2 0x1374 JUMP JUMPDEST SWAP2 POP POP SWAP3 POP SWAP3 POP SWAP3 JUMP JUMPDEST PUSH1 0x0 DUP1 PUSH1 0x40 DUP4 DUP6 SUB SLT ISZERO PUSH2 0x13F3 JUMPI PUSH2 0x13F2 PUSH2 0x1223 JUMP JUMPDEST JUMPDEST PUSH1 0x0 PUSH2 0x1401 DUP6 DUP3 DUP7 ADD PUSH2 0x123F JUMP JUMPDEST SWAP3 POP POP PUSH1 0x20 PUSH2 0x1412 DUP6 DUP3 DUP7 ADD PUSH2 0x123F JUMP JUMPDEST SWAP2 POP POP SWAP3 POP SWAP3 SWAP1 POP JUMP JUMPDEST PUSH1 0x0 DUP2 SWAP1 POP SWAP2 SWAP1 POP JUMP JUMPDEST PUSH1 0x0 PUSH2 0x1441 PUSH2 0x143C PUSH2 0x1437 DUP5 PUSH2 0x1281 JUMP JUMPDEST PUSH2 0x141C JUMP JUMPDEST PUSH2 0x1281 JUMP JUMPDEST SWAP1 POP SWAP2 SWAP1 POP JUMP JUMPDEST PUSH1 0x0 PUSH2 0x1453 DUP3 PUSH2 0x1426 JUMP JUMPDEST SWAP1 POP SWAP2 SWAP1 POP JUMP JUMPDEST PUSH1 0x0 PUSH2 0x1465 DUP3 PUSH2 0x1448 JUMP JUMPDEST SWAP1 POP SWAP2 SWAP1 POP JUMP JUMPDEST PUSH2 0x1475 DUP2 PUSH2 0x145A JUMP JUMPDEST DUP3 MSTORE POP POP JUMP JUMPDEST PUSH1 0x0 PUSH1 0x20 DUP3 ADD SWAP1 POP PUSH2 0x1490 PUSH1 0x0 DUP4 ADD DUP5 PUSH2 0x146C JUMP JUMPDEST SWAP3 SWAP2 POP POP JUMP JUMPDEST PUSH2 0x149F DUP2 PUSH2 0x12A1 JUMP JUMPDEST DUP2 EQ PUSH2 0x14AA JUMPI PUSH1 0x0 DUP1 REVERT JUMPDEST POP JUMP JUMPDEST PUSH1 0x0 DUP2 CALLDATALOAD SWAP1 POP PUSH2 0x14BC DUP2 PUSH2 0x1496 JUMP JUMPDEST SWAP3 SWAP2 POP POP JUMP JUMPDEST PUSH1 0x0 DUP1 PUSH1 0x40 DUP4 DUP6 SUB SLT ISZERO PUSH2 0x14D9 JUMPI PUSH2 0x14D8 PUSH2 0x1223 JUMP JUMPDEST JUMPDEST PUSH1 0x0 PUSH2 0x14E7 DUP6 DUP3 DUP7 ADD PUSH2 0x123F JUMP JUMPDEST SWAP3 POP POP PUSH1 0x20 PUSH2 0x14F8 DUP6 DUP3 DUP7 ADD PUSH2 0x14AD JUMP JUMPDEST SWAP2 POP POP SWAP3 POP SWAP3 SWAP1 POP JUMP JUMPDEST PUSH1 0x0 DUP3 DUP3 MSTORE PUSH1 0x20 DUP3 ADD SWAP1 POP SWAP3 SWAP2 POP POP JUMP JUMPDEST PUSH32 0x6E6F7420656E6465640000000000000000000000000000000000000000000000 PUSH1 0x0 DUP3 ADD MSTORE POP JUMP JUMPDEST PUSH1 0x0 PUSH2 0x1549 PUSH1 0x9 DUP4 PUSH2 0x1502 JUMP JUMPDEST SWAP2 POP PUSH2 0x1554 DUP3 PUSH2 0x1513 JUMP JUMPDEST PUSH1 0x20 DUP3 ADD SWAP1 POP SWAP2 SWAP1 POP JUMP JUMPDEST PUSH1 0x0 PUSH1 0x20 DUP3 ADD SWAP1 POP DUP2 DUP2 SUB PUSH1 0x0 DUP4 ADD MSTORE PUSH2 0x1578 DUP2 PUSH2 0x153C JUMP JUMPDEST SWAP1 POP SWAP2 SWAP1 POP JUMP JUMPDEST PUSH32 0x706C6564676564203E3D20676F616C0000000000000000000000000000000000 PUSH1 0x0 DUP3 ADD MSTORE POP JUMP JUMPDEST PUSH1 0x0 PUSH2 0x15B5 PUSH1 0xF DUP4 PUSH2 0x1502 JUMP JUMPDEST SWAP2 POP PUSH2 0x15C0 DUP3 PUSH2 0x157F JUMP JUMPDEST PUSH1 0x20 DUP3 ADD SWAP1 POP SWAP2 SWAP1 POP JUMP JUMPDEST PUSH1 0x0 PUSH1 0x20 DUP3 ADD SWAP1 POP DUP2 DUP2 SUB PUSH1 0x0 DUP4 ADD MSTORE PUSH2 0x15E4 DUP2 PUSH2 0x15A8 JUMP JUMPDEST SWAP1 POP SWAP2 SWAP1 POP JUMP JUMPDEST PUSH1 0x0 PUSH1 0x40 DUP3 ADD SWAP1 POP PUSH2 0x1600 PUSH1 0x0 DUP4 ADD DUP6 PUSH2 0x12B3 JUMP JUMPDEST PUSH2 0x160D PUSH1 0x20 DUP4 ADD DUP5 PUSH2 0x11F9 JUMP JUMPDEST SWAP4 SWAP3 POP POP POP JUMP JUMPDEST PUSH2 0x161D DUP2 PUSH2 0x12E1 JUMP JUMPDEST DUP2 EQ PUSH2 0x1628 JUMPI PUSH1 0x0 DUP1 REVERT JUMPDEST POP JUMP JUMPDEST PUSH1 0x0 DUP2 MLOAD SWAP1 POP PUSH2 0x163A DUP2 PUSH2 0x1614 JUMP JUMPDEST SWAP3 SWAP2 POP POP JUMP JUMPDEST PUSH1 0x0 PUSH1 0x20 DUP3 DUP5 SUB SLT ISZERO PUSH2 0x1656 JUMPI PUSH2 0x1655 PUSH2 0x1223 JUMP JUMPDEST JUMPDEST PUSH1 0x0 PUSH2 0x1664 DUP5 DUP3 DUP6 ADD PUSH2 0x162B JUMP JUMPDEST SWAP2 POP POP SWAP3 SWAP2 POP POP JUMP JUMPDEST PUSH1 0x0 PUSH1 0x40 DUP3 ADD SWAP1 POP PUSH2 0x1682 PUSH1 0x0 DUP4 ADD DUP6 PUSH2 0x11F9 JUMP JUMPDEST PUSH2 0x168F PUSH1 0x20 DUP4 ADD DUP5 PUSH2 0x11F9 JUMP JUMPDEST SWAP4 SWAP3 POP POP POP JUMP JUMPDEST PUSH32 0x7374617274206174203C206E6F77000000000000000000000000000000000000 PUSH1 0x0 DUP3 ADD MSTORE POP JUMP JUMPDEST PUSH1 0x0 PUSH2 0x16CC PUSH1 0xE DUP4 PUSH2 0x1502 JUMP JUMPDEST SWAP2 POP PUSH2 0x16D7 DUP3 PUSH2 0x1696 JUMP JUMPDEST PUSH1 0x20 DUP3 ADD SWAP1 POP SWAP2 SWAP1 POP JUMP JUMPDEST PUSH1 0x0 PUSH1 0x20 DUP3 ADD SWAP1 POP DUP2 DUP2 SUB PUSH1 0x0 DUP4 ADD MSTORE PUSH2 0x16FB DUP2 PUSH2 0x16BF JUMP JUMPDEST SWAP1 POP SWAP2 SWAP1 POP JUMP JUMPDEST PUSH32 0x656E64206174203C207374617274206174000000000000000000000000000000 PUSH1 0x0 DUP3 ADD MSTORE POP JUMP JUMPDEST PUSH1 0x0 PUSH2 0x1738 PUSH1 0x11 DUP4 PUSH2 0x1502 JUMP JUMPDEST SWAP2 POP PUSH2 0x1743 DUP3 PUSH2 0x1702 JUMP JUMPDEST PUSH1 0x20 DUP3 ADD SWAP1 POP SWAP2 SWAP1 POP JUMP JUMPDEST PUSH1 0x0 PUSH1 0x20 DUP3 ADD SWAP1 POP DUP2 DUP2 SUB PUSH1 0x0 DUP4 ADD MSTORE PUSH2 0x1767 DUP2 PUSH2 0x172B JUMP JUMPDEST SWAP1 POP SWAP2 SWAP1 POP JUMP JUMPDEST PUSH32 0x4E487B7100000000000000000000000000000000000000000000000000000000 PUSH1 0x0 MSTORE PUSH1 0x11 PUSH1 0x4 MSTORE PUSH1 0x24 PUSH1 0x0 REVERT JUMPDEST PUSH1 0x0 PUSH2 0x17A8 DUP3 PUSH2 0x11EF JUMP JUMPDEST SWAP2 POP PUSH2 0x17B3 DUP4 PUSH2 0x11EF JUMP JUMPDEST SWAP3 POP DUP3 PUSH32 0xFFFFFFFFFFFFFFFFFFFFFFFFFFFFFFFFFFFFFFFFFFFFFFFFFFFFFFFFFFFFFFFF SUB DUP3 GT ISZERO PUSH2 0x17E8 JUMPI PUSH2 0x17E7 PUSH2 0x176E JUMP JUMPDEST JUMPDEST DUP3 DUP3 ADD SWAP1 POP SWAP3 SWAP2 POP POP JUMP JUMPDEST PUSH32 0x656E64206174203E206D6178206475726174696F6E0000000000000000000000 PUSH1 0x0 DUP3 ADD MSTORE POP JUMP JUMPDEST PUSH1 0x0 PUSH2 0x1829 PUSH1 0x15 DUP4 PUSH2 0x1502 JUMP JUMPDEST SWAP2 POP PUSH2 0x1834 DUP3 PUSH2 0x17F3 JUMP JUMPDEST PUSH1 0x20 DUP3 ADD SWAP1 POP SWAP2 SWAP1 POP JUMP JUMPDEST PUSH1 0x0 PUSH1 0x20 DUP3 ADD SWAP1 POP DUP2 DUP2 SUB PUSH1 0x0 DUP4 ADD MSTORE PUSH2 0x1858 DUP2 PUSH2 0x181C JUMP JUMPDEST SWAP1 POP SWAP2 SWAP1 POP JUMP JUMPDEST PUSH1 0x0 PUSH1 0x80 DUP3 ADD SWAP1 POP PUSH2 0x1874 PUSH1 0x0 DUP4 ADD DUP8 PUSH2 0x11F9 JUMP JUMPDEST PUSH2 0x1881 PUSH1 0x20 DUP4 ADD DUP7 PUSH2 0x11F9 JUMP JUMPDEST PUSH2 0x188E PUSH1 0x40 DUP4 ADD DUP6 PUSH2 0x12D2 JUMP JUMPDEST PUSH2 0x189B PUSH1 0x60 DUP4 ADD DUP5 PUSH2 0x12D2 JUMP JUMPDEST SWAP6 SWAP5 POP POP POP POP POP JUMP JUMPDEST PUSH32 0x6E6F742063726561746F72000000000000000000000000000000000000000000 PUSH1 0x0 DUP3 ADD MSTORE POP JUMP JUMPDEST PUSH1 0x0 PUSH2 0x18DA PUSH1 0xB DUP4 PUSH2 0x1502 JUMP JUMPDEST SWAP2 POP PUSH2 0x18E5 DUP3 PUSH2 0x18A4 JUMP JUMPDEST PUSH1 0x20 DUP3 ADD SWAP1 POP SWAP2 SWAP1 POP JUMP JUMPDEST PUSH1 0x0 PUSH1 0x20 DUP3 ADD SWAP1 POP DUP2 DUP2 SUB PUSH1 0x0 DUP4 ADD MSTORE PUSH2 0x1909 DUP2 PUSH2 0x18CD JUMP JUMPDEST SWAP1 POP SWAP2 SWAP1 POP JUMP JUMPDEST PUSH32 0x6E6F7420656E6465646500000000000000000000000000000000000000000000 PUSH1 0x0 DUP3 ADD MSTORE POP JUMP JUMPDEST PUSH1 0x0 PUSH2 0x1946 PUSH1 0xA DUP4 PUSH2 0x1502 JUMP JUMPDEST SWAP2 POP PUSH2 0x1951 DUP3 PUSH2 0x1910 JUMP JUMPDEST PUSH1 0x20 DUP3 ADD SWAP1 POP SWAP2 SWAP1 POP JUMP JUMPDEST PUSH1 0x0 PUSH1 0x20 DUP3 ADD SWAP1 POP DUP2 DUP2 SUB PUSH1 0x0 DUP4 ADD MSTORE PUSH2 0x1975 DUP2 PUSH2 0x1939 JUMP JUMPDEST SWAP1 POP SWAP2 SWAP1 POP JUMP JUMPDEST PUSH32 0x706C6564676564203C20676F616C000000000000000000000000000000000000 PUSH1 0x0 DUP3 ADD MSTORE POP JUMP JUMPDEST PUSH1 0x0 PUSH2 0x19B2 PUSH1 0xE DUP4 PUSH2 0x1502 JUMP JUMPDEST SWAP2 POP PUSH2 0x19BD DUP3 PUSH2 0x197C JUMP JUMPDEST PUSH1 0x20 DUP3 ADD SWAP1 POP SWAP2 SWAP1 POP JUMP JUMPDEST PUSH1 0x0 PUSH1 0x20 DUP3 ADD SWAP1 POP DUP2 DUP2 SUB PUSH1 0x0 DUP4 ADD MSTORE PUSH2 0x19E1 DUP2 PUSH2 0x19A5 JUMP JUMPDEST SWAP1 POP SWAP2 SWAP1 POP JUMP JUMPDEST PUSH32 0x636C61696D656400000000000000000000000000000000000000000000000000 PUSH1 0x0 DUP3 ADD MSTORE POP JUMP JUMPDEST PUSH1 0x0 PUSH2 0x1A1E PUSH1 0x7 DUP4 PUSH2 0x1502 JUMP JUMPDEST SWAP2 POP PUSH2 0x1A29 DUP3 PUSH2 0x19E8 JUMP JUMPDEST PUSH1 0x20 DUP3 ADD SWAP1 POP SWAP2 SWAP1 POP JUMP JUMPDEST PUSH1 0x0 PUSH1 0x20 DUP3 ADD SWAP1 POP DUP2 DUP2 SUB PUSH1 0x0 DUP4 ADD MSTORE PUSH2 0x1A4D DUP2 PUSH2 0x1A11 JUMP JUMPDEST SWAP1 POP SWAP2 SWAP1 POP JUMP JUMPDEST PUSH32 0x7374617274656400000000000000000000000000000000000000000000000000 PUSH1 0x0 DUP3 ADD MSTORE POP JUMP JUMPDEST PUSH1 0x0 PUSH2 0x1A8A PUSH1 0x7 DUP4 PUSH2 0x1502 JUMP JUMPDEST SWAP2 POP PUSH2 0x1A95 DUP3 PUSH2 0x1A54 JUMP JUMPDEST PUSH1 0x20 DUP3 ADD SWAP1 POP SWAP2 SWAP1 POP JUMP JUMPDEST PUSH1 0x0 PUSH1 0x20 DUP3 ADD SWAP1 POP DUP2 DUP2 SUB PUSH1 0x0 DUP4 ADD MSTORE PUSH2 0x1AB9 DUP2 PUSH2 0x1A7D JUMP JUMPDEST SWAP1 POP SWAP2 SWAP1 POP JUMP JUMPDEST PUSH32 0x656E646564000000000000000000000000000000000000000000000000000000 PUSH1 0x0 DUP3 ADD MSTORE POP JUMP JUMPDEST PUSH1 0x0 PUSH2 0x1AF6 PUSH1 0x5 DUP4 PUSH2 0x1502 JUMP JUMPDEST SWAP2 POP PUSH2 0x1B01 DUP3 PUSH2 0x1AC0 JUMP JUMPDEST PUSH1 0x20 DUP3 ADD SWAP1 POP SWAP2 SWAP1 POP JUMP JUMPDEST PUSH1 0x0 PUSH1 0x20 DUP3 ADD SWAP1 POP DUP2 DUP2 SUB PUSH1 0x0 DUP4 ADD MSTORE PUSH2 0x1B25 DUP2 PUSH2 0x1AE9 JUMP JUMPDEST SWAP1 POP SWAP2 SWAP1 POP JUMP JUMPDEST PUSH1 0x0 PUSH2 0x1B37 DUP3 PUSH2 0x11EF JUMP JUMPDEST SWAP2 POP PUSH2 0x1B42 DUP4 PUSH2 0x11EF JUMP JUMPDEST SWAP3 POP DUP3 DUP3 LT ISZERO PUSH2 0x1B55 JUMPI PUSH2 0x1B54 PUSH2 0x176E JUMP JUMPDEST JUMPDEST DUP3 DUP3 SUB SWAP1 POP SWAP3 SWAP2 POP POP JUMP JUMPDEST PUSH32 0x6E6F742073746172746564000000000000000000000000000000000000000000 PUSH1 0x0 DUP3 ADD MSTORE POP JUMP JUMPDEST PUSH1 0x0 PUSH2 0x1B96 PUSH1 0xB DUP4 PUSH2 0x1502 JUMP JUMPDEST SWAP2 POP PUSH2 0x1BA1 DUP3 PUSH2 0x1B60 JUMP JUMPDEST PUSH1 0x20 DUP3 ADD SWAP1 POP SWAP2 SWAP1 POP JUMP JUMPDEST PUSH1 0x0 PUSH1 0x20 DUP3 ADD SWAP1 POP DUP2 DUP2 SUB PUSH1 0x0 DUP4 ADD MSTORE PUSH2 0x1BC5 DUP2 PUSH2 0x1B89 JUMP JUMPDEST SWAP1 POP SWAP2 SWAP1 POP JUMP JUMPDEST PUSH1 0x0 PUSH1 0x60 DUP3 ADD SWAP1 POP PUSH2 0x1BE1 PUSH1 0x0 DUP4 ADD DUP7 PUSH2 0x12B3 JUMP JUMPDEST PUSH2 0x1BEE PUSH1 0x20 DUP4 ADD DUP6 PUSH2 0x12B3 JUMP JUMPDEST PUSH2 0x1BFB PUSH1 0x40 DUP4 ADD DUP5 PUSH2 0x11F9 JUMP JUMPDEST SWAP5 SWAP4 POP POP POP POP JUMP INVALID LOG2 PUSH5 0x6970667358 0x22 SLT KECCAK256 DIFFICULTY PUSH11 0x4540259CA9ECA2E19DE930 DUP12 0xAE JUMPI SWAP6 MULMOD PUSH4 0x4D0D32D8 PUSH18 0xFE24B180AEE45CE364736F6C634300080E00 CALLER "
				},
				"gasEstimates": {
					"creation": {
						"codeDepositCost": "1445000",
						"executionCost": "infinite",
						"totalCost": "infinite"
					},
					"external": {
						"campaigns(uint256)": "infinite",
						"cancel(uint256)": "infinite",
						"claim(uint256)": "infinite",
						"count()": "2430",
						"launch(uint256,uint32,uint32)": "infinite",
						"pledagedAmount(uint256,address)": "infinite",
						"pledge(uint256,uint256)": "infinite",
						"refund(uint256)": "infinite",
						"token()": "infinite",
						"unpledge(uint256,uint256)": "infinite"
					}
				},
				"methodIdentifiers": {
					"campaigns(uint256)": "141961bc",
					"cancel(uint256)": "40e58ee5",
					"claim(uint256)": "379607f5",
					"count()": "06661abd",
					"launch(uint256,uint32,uint32)": "2c63f146",
					"pledagedAmount(uint256,address)": "fe9d561b",
					"pledge(uint256,uint256)": "fde327be",
					"refund(uint256)": "278ecde1",
					"token()": "fc0c546a",
					"unpledge(uint256,uint256)": "711853ab"
				}
			},
			"storageLayout": {
				"storage": [
					{
						"astId": 84,
						"contract": "solidity-study-demo/secondPart/CrowdFund.sol:CrowdFund",
						"label": "count",
						"offset": 0,
						"slot": "0",
						"type": "t_uint256"
					},
					{
						"astId": 89,
						"contract": "solidity-study-demo/secondPart/CrowdFund.sol:CrowdFund",
						"label": "campaigns",
						"offset": 0,
						"slot": "1",
						"type": "t_mapping(t_uint256,t_struct(Campaign)79_storage)"
					},
					{
						"astId": 95,
						"contract": "solidity-study-demo/secondPart/CrowdFund.sol:CrowdFund",
						"label": "pledagedAmount",
						"offset": 0,
						"slot": "2",
						"type": "t_mapping(t_uint256,t_mapping(t_address,t_uint256))"
					}
				],
				"types": {
					"t_address": {
						"encoding": "inplace",
						"label": "address",
						"numberOfBytes": "20"
					},
					"t_bool": {
						"encoding": "inplace",
						"label": "bool",
						"numberOfBytes": "1"
					},
					"t_mapping(t_address,t_uint256)": {
						"encoding": "mapping",
						"key": "t_address",
						"label": "mapping(address => uint256)",
						"numberOfBytes": "32",
						"value": "t_uint256"
					},
					"t_mapping(t_uint256,t_mapping(t_address,t_uint256))": {
						"encoding": "mapping",
						"key": "t_uint256",
						"label": "mapping(uint256 => mapping(address => uint256))",
						"numberOfBytes": "32",
						"value": "t_mapping(t_address,t_uint256)"
					},
					"t_mapping(t_uint256,t_struct(Campaign)79_storage)": {
						"encoding": "mapping",
						"key": "t_uint256",
						"label": "mapping(uint256 => struct CrowdFund.Campaign)",
						"numberOfBytes": "32",
						"value": "t_struct(Campaign)79_storage"
					},
					"t_struct(Campaign)79_storage": {
						"encoding": "inplace",
						"label": "struct CrowdFund.Campaign",
						"members": [
							{
								"astId": 68,
								"contract": "solidity-study-demo/secondPart/CrowdFund.sol:CrowdFund",
								"label": "creator",
								"offset": 0,
								"slot": "0",
								"type": "t_address"
							},
							{
								"astId": 70,
								"contract": "solidity-study-demo/secondPart/CrowdFund.sol:CrowdFund",
								"label": "goal",
								"offset": 0,
								"slot": "1",
								"type": "t_uint256"
							},
							{
								"astId": 72,
								"contract": "solidity-study-demo/secondPart/CrowdFund.sol:CrowdFund",
								"label": "pledged",
								"offset": 0,
								"slot": "2",
								"type": "t_uint256"
							},
							{
								"astId": 74,
								"contract": "solidity-study-demo/secondPart/CrowdFund.sol:CrowdFund",
								"label": "startAt",
								"offset": 0,
								"slot": "3",
								"type": "t_uint32"
							},
							{
								"astId": 76,
								"contract": "solidity-study-demo/secondPart/CrowdFund.sol:CrowdFund",
								"label": "endAt",
								"offset": 4,
								"slot": "3",
								"type": "t_uint32"
							},
							{
								"astId": 78,
								"contract": "solidity-study-demo/secondPart/CrowdFund.sol:CrowdFund",
								"label": "claimed",
								"offset": 8,
								"slot": "3",
								"type": "t_bool"
							}
						],
						"numberOfBytes": "128"
					},
					"t_uint256": {
						"encoding": "inplace",
						"label": "uint256",
						"numberOfBytes": "32"
					},
					"t_uint32": {
						"encoding": "inplace",
						"label": "uint32",
						"numberOfBytes": "4"
					}
				}
			},
			"userdoc": {
				"kind": "user",
				"methods": {},
				"version": 1
			}
		}
	}
}