{
	"solidity-study-demo/secondPart/Factory.sol": {
		"Factory": {
			"abi": [
				{
					"inputs": [
						{
							"internalType": "address",
							"name": "_owner",
							"type": "address"
						},
						{
							"internalType": "uint256",
							"name": "_foo",
							"type": "uint256"
						},
						{
							"internalType": "bytes32",
							"name": "_salt",
							"type": "bytes32"
						}
					],
					"name": "deploy",
					"outputs": [
						{
							"internalType": "address",
							"name": "",
							"type": "address"
						}
					],
					"stateMutability": "payable",
					"type": "function"
				}
			],
			"devdoc": {
				"kind": "dev",
				"methods": {},
				"version": 1
			},
			"evm": {
				"assembly": "    /* \"solidity-study-demo/secondPart/Factory.sol\":28:259  contract Factory {... */\n  mstore(0x40, 0x80)\n  callvalue\n  dup1\n  iszero\n  tag_1\n  jumpi\n  0x00\n  dup1\n  revert\ntag_1:\n  pop\n  dataSize(sub_0)\n  dup1\n  dataOffset(sub_0)\n  0x00\n  codecopy\n  0x00\n  return\nstop\n\nsub_0: assembly {\n        /* \"solidity-study-demo/secondPart/Factory.sol\":28:259  contract Factory {... */\n      mstore(0x40, 0x80)\n      jumpi(tag_1, lt(calldatasize, 0x04))\n      shr(0xe0, calldataload(0x00))\n      dup1\n      0xe7008afa\n      eq\n      tag_2\n      jumpi\n    tag_1:\n      0x00\n      dup1\n      revert\n        /* \"solidity-study-demo/secondPart/Factory.sol\":52:256  function deploy(... */\n    tag_2:\n      tag_3\n      0x04\n      dup1\n      calldatasize\n      sub\n      dup2\n      add\n      swap1\n      tag_4\n      swap2\n      swap1\n      tag_5\n      jump\t// in\n    tag_4:\n      tag_6\n      jump\t// in\n    tag_3:\n      mload(0x40)\n      tag_7\n      swap2\n      swap1\n      tag_8\n      jump\t// in\n    tag_7:\n      mload(0x40)\n      dup1\n      swap2\n      sub\n      swap1\n      return\n    tag_6:\n        /* \"solidity-study-demo/secondPart/Factory.sol\":168:175  address */\n      0x00\n        /* \"solidity-study-demo/secondPart/Factory.sol\":227:232  _salt */\n      dup2\n        /* \"solidity-study-demo/secondPart/Factory.sol\":234:240  _owner */\n      dup5\n        /* \"solidity-study-demo/secondPart/Factory.sol\":242:246  _foo */\n      dup5\n        /* \"solidity-study-demo/secondPart/Factory.sol\":203:247  new TestContract{salt : _salt}(_owner, _foo) */\n      mload(0x40)\n      tag_10\n      swap1\n      tag_11\n      jump\t// in\n    tag_10:\n      tag_12\n      swap3\n      swap2\n      swap1\n      tag_13\n      jump\t// in\n    tag_12:\n      dup2\n      swap1\n      mload(0x40)\n      dup1\n      swap2\n      sub\n      swap1\n      0x00\n      create2\n      swap1\n      pop\n      dup1\n      iszero\n      dup1\n      iszero\n      tag_14\n      jumpi\n      returndatasize\n      0x00\n      dup1\n      returndatacopy\n      revert(0x00, returndatasize)\n    tag_14:\n      pop\n        /* \"solidity-study-demo/secondPart/Factory.sol\":188:248  return address(new TestContract{salt : _salt}(_owner, _foo)) */\n      swap1\n      pop\n        /* \"solidity-study-demo/secondPart/Factory.sol\":52:256  function deploy(... */\n      swap4\n      swap3\n      pop\n      pop\n      pop\n      jump\t// out\n    tag_11:\n      dataSize(sub_0)\n      dup1\n      dataOffset(sub_0)\n      dup4\n      codecopy\n      add\n      swap1\n      jump\t// out\n        /* \"#utility.yul\":88:205   */\n    tag_16:\n        /* \"#utility.yul\":197:198   */\n      0x00\n        /* \"#utility.yul\":194:195   */\n      dup1\n        /* \"#utility.yul\":187:199   */\n      revert\n        /* \"#utility.yul\":334:460   */\n    tag_18:\n        /* \"#utility.yul\":371:378   */\n      0x00\n        /* \"#utility.yul\":411:453   */\n      0xffffffffffffffffffffffffffffffffffffffff\n        /* \"#utility.yul\":404:409   */\n      dup3\n        /* \"#utility.yul\":400:454   */\n      and\n        /* \"#utility.yul\":389:454   */\n      swap1\n      pop\n        /* \"#utility.yul\":334:460   */\n      swap2\n      swap1\n      pop\n      jump\t// out\n        /* \"#utility.yul\":466:562   */\n    tag_19:\n        /* \"#utility.yul\":503:510   */\n      0x00\n        /* \"#utility.yul\":532:556   */\n      tag_36\n        /* \"#utility.yul\":550:555   */\n      dup3\n        /* \"#utility.yul\":532:556   */\n      tag_18\n      jump\t// in\n    tag_36:\n        /* \"#utility.yul\":521:556   */\n      swap1\n      pop\n        /* \"#utility.yul\":466:562   */\n      swap2\n      swap1\n      pop\n      jump\t// out\n        /* \"#utility.yul\":568:690   */\n    tag_20:\n        /* \"#utility.yul\":641:665   */\n      tag_38\n        /* \"#utility.yul\":659:664   */\n      dup2\n        /* \"#utility.yul\":641:665   */\n      tag_19\n      jump\t// in\n    tag_38:\n        /* \"#utility.yul\":634:639   */\n      dup2\n        /* \"#utility.yul\":631:666   */\n      eq\n        /* \"#utility.yul\":621:684   */\n      tag_39\n      jumpi\n        /* \"#utility.yul\":680:681   */\n      0x00\n        /* \"#utility.yul\":677:678   */\n      dup1\n        /* \"#utility.yul\":670:682   */\n      revert\n        /* \"#utility.yul\":621:684   */\n    tag_39:\n        /* \"#utility.yul\":568:690   */\n      pop\n      jump\t// out\n        /* \"#utility.yul\":696:835   */\n    tag_21:\n        /* \"#utility.yul\":742:747   */\n      0x00\n        /* \"#utility.yul\":780:786   */\n      dup2\n        /* \"#utility.yul\":767:787   */\n      calldataload\n        /* \"#utility.yul\":758:787   */\n      swap1\n      pop\n        /* \"#utility.yul\":796:829   */\n      tag_41\n        /* \"#utility.yul\":823:828   */\n      dup2\n        /* \"#utility.yul\":796:829   */\n      tag_20\n      jump\t// in\n    tag_41:\n        /* \"#utility.yul\":696:835   */\n      swap3\n      swap2\n      pop\n      pop\n      jump\t// out\n        /* \"#utility.yul\":841:918   */\n    tag_22:\n        /* \"#utility.yul\":878:885   */\n      0x00\n        /* \"#utility.yul\":907:912   */\n      dup2\n        /* \"#utility.yul\":896:912   */\n      swap1\n      pop\n        /* \"#utility.yul\":841:918   */\n      swap2\n      swap1\n      pop\n      jump\t// out\n        /* \"#utility.yul\":924:1046   */\n    tag_23:\n        /* \"#utility.yul\":997:1021   */\n      tag_44\n        /* \"#utility.yul\":1015:1020   */\n      dup2\n        /* \"#utility.yul\":997:1021   */\n      tag_22\n      jump\t// in\n    tag_44:\n        /* \"#utility.yul\":990:995   */\n      dup2\n        /* \"#utility.yul\":987:1022   */\n      eq\n        /* \"#utility.yul\":977:1040   */\n      tag_45\n      jumpi\n        /* \"#utility.yul\":1036:1037   */\n      0x00\n        /* \"#utility.yul\":1033:1034   */\n      dup1\n        /* \"#utility.yul\":1026:1038   */\n      revert\n        /* \"#utility.yul\":977:1040   */\n    tag_45:\n        /* \"#utility.yul\":924:1046   */\n      pop\n      jump\t// out\n        /* \"#utility.yul\":1052:1191   */\n    tag_24:\n        /* \"#utility.yul\":1098:1103   */\n      0x00\n        /* \"#utility.yul\":1136:1142   */\n      dup2\n        /* \"#utility.yul\":1123:1143   */\n      calldataload\n        /* \"#utility.yul\":1114:1143   */\n      swap1\n      pop\n        /* \"#utility.yul\":1152:1185   */\n      tag_47\n        /* \"#utility.yul\":1179:1184   */\n      dup2\n        /* \"#utility.yul\":1152:1185   */\n      tag_23\n      jump\t// in\n    tag_47:\n        /* \"#utility.yul\":1052:1191   */\n      swap3\n      swap2\n      pop\n      pop\n      jump\t// out\n        /* \"#utility.yul\":1197:1274   */\n    tag_25:\n        /* \"#utility.yul\":1234:1241   */\n      0x00\n        /* \"#utility.yul\":1263:1268   */\n      dup2\n        /* \"#utility.yul\":1252:1268   */\n      swap1\n      pop\n        /* \"#utility.yul\":1197:1274   */\n      swap2\n      swap1\n      pop\n      jump\t// out\n        /* \"#utility.yul\":1280:1402   */\n    tag_26:\n        /* \"#utility.yul\":1353:1377   */\n      tag_50\n        /* \"#utility.yul\":1371:1376   */\n      dup2\n        /* \"#utility.yul\":1353:1377   */\n      tag_25\n      jump\t// in\n    tag_50:\n        /* \"#utility.yul\":1346:1351   */\n      dup2\n        /* \"#utility.yul\":1343:1378   */\n      eq\n        /* \"#utility.yul\":1333:1396   */\n      tag_51\n      jumpi\n        /* \"#utility.yul\":1392:1393   */\n      0x00\n        /* \"#utility.yul\":1389:1390   */\n      dup1\n        /* \"#utility.yul\":1382:1394   */\n      revert\n        /* \"#utility.yul\":1333:1396   */\n    tag_51:\n        /* \"#utility.yul\":1280:1402   */\n      pop\n      jump\t// out\n        /* \"#utility.yul\":1408:1547   */\n    tag_27:\n        /* \"#utility.yul\":1454:1459   */\n      0x00\n        /* \"#utility.yul\":1492:1498   */\n      dup2\n        /* \"#utility.yul\":1479:1499   */\n      calldataload\n        /* \"#utility.yul\":1470:1499   */\n      swap1\n      pop\n        /* \"#utility.yul\":1508:1541   */\n      tag_53\n        /* \"#utility.yul\":1535:1540   */\n      dup2\n        /* \"#utility.yul\":1508:1541   */\n      tag_26\n      jump\t// in\n    tag_53:\n        /* \"#utility.yul\":1408:1547   */\n      swap3\n      swap2\n      pop\n      pop\n      jump\t// out\n        /* \"#utility.yul\":1553:2172   */\n    tag_5:\n        /* \"#utility.yul\":1630:1636   */\n      0x00\n        /* \"#utility.yul\":1638:1644   */\n      dup1\n        /* \"#utility.yul\":1646:1652   */\n      0x00\n        /* \"#utility.yul\":1695:1697   */\n      0x60\n        /* \"#utility.yul\":1683:1692   */\n      dup5\n        /* \"#utility.yul\":1674:1681   */\n      dup7\n        /* \"#utility.yul\":1670:1693   */\n      sub\n        /* \"#utility.yul\":1666:1698   */\n      slt\n        /* \"#utility.yul\":1663:1782   */\n      iszero\n      tag_55\n      jumpi\n        /* \"#utility.yul\":1701:1780   */\n      tag_56\n      tag_16\n      jump\t// in\n    tag_56:\n        /* \"#utility.yul\":1663:1782   */\n    tag_55:\n        /* \"#utility.yul\":1821:1822   */\n      0x00\n        /* \"#utility.yul\":1846:1899   */\n      tag_57\n        /* \"#utility.yul\":1891:1898   */\n      dup7\n        /* \"#utility.yul\":1882:1888   */\n      dup3\n        /* \"#utility.yul\":1871:1880   */\n      dup8\n        /* \"#utility.yul\":1867:1889   */\n      add\n        /* \"#utility.yul\":1846:1899   */\n      tag_21\n      jump\t// in\n    tag_57:\n        /* \"#utility.yul\":1836:1899   */\n      swap4\n      pop\n        /* \"#utility.yul\":1792:1909   */\n      pop\n        /* \"#utility.yul\":1948:1950   */\n      0x20\n        /* \"#utility.yul\":1974:2027   */\n      tag_58\n        /* \"#utility.yul\":2019:2026   */\n      dup7\n        /* \"#utility.yul\":2010:2016   */\n      dup3\n        /* \"#utility.yul\":1999:2008   */\n      dup8\n        /* \"#utility.yul\":1995:2017   */\n      add\n        /* \"#utility.yul\":1974:2027   */\n      tag_24\n      jump\t// in\n    tag_58:\n        /* \"#utility.yul\":1964:2027   */\n      swap3\n      pop\n        /* \"#utility.yul\":1919:2037   */\n      pop\n        /* \"#utility.yul\":2076:2078   */\n      0x40\n        /* \"#utility.yul\":2102:2155   */\n      tag_59\n        /* \"#utility.yul\":2147:2154   */\n      dup7\n        /* \"#utility.yul\":2138:2144   */\n      dup3\n        /* \"#utility.yul\":2127:2136   */\n      dup8\n        /* \"#utility.yul\":2123:2145   */\n      add\n        /* \"#utility.yul\":2102:2155   */\n      tag_27\n      jump\t// in\n    tag_59:\n        /* \"#utility.yul\":2092:2155   */\n      swap2\n      pop\n        /* \"#utility.yul\":2047:2165   */\n      pop\n        /* \"#utility.yul\":1553:2172   */\n      swap3\n      pop\n      swap3\n      pop\n      swap3\n      jump\t// out\n        /* \"#utility.yul\":2178:2296   */\n    tag_28:\n        /* \"#utility.yul\":2265:2289   */\n      tag_61\n        /* \"#utility.yul\":2283:2288   */\n      dup2\n        /* \"#utility.yul\":2265:2289   */\n      tag_19\n      jump\t// in\n    tag_61:\n        /* \"#utility.yul\":2260:2263   */\n      dup3\n        /* \"#utility.yul\":2253:2290   */\n      mstore\n        /* \"#utility.yul\":2178:2296   */\n      pop\n      pop\n      jump\t// out\n        /* \"#utility.yul\":2302:2524   */\n    tag_8:\n        /* \"#utility.yul\":2395:2399   */\n      0x00\n        /* \"#utility.yul\":2433:2435   */\n      0x20\n        /* \"#utility.yul\":2422:2431   */\n      dup3\n        /* \"#utility.yul\":2418:2436   */\n      add\n        /* \"#utility.yul\":2410:2436   */\n      swap1\n      pop\n        /* \"#utility.yul\":2446:2517   */\n      tag_63\n        /* \"#utility.yul\":2514:2515   */\n      0x00\n        /* \"#utility.yul\":2503:2512   */\n      dup4\n        /* \"#utility.yul\":2499:2516   */\n      add\n        /* \"#utility.yul\":2490:2496   */\n      dup5\n        /* \"#utility.yul\":2446:2517   */\n      tag_28\n      jump\t// in\n    tag_63:\n        /* \"#utility.yul\":2302:2524   */\n      swap3\n      swap2\n      pop\n      pop\n      jump\t// out\n        /* \"#utility.yul\":2530:2648   */\n    tag_29:\n        /* \"#utility.yul\":2617:2641   */\n      tag_65\n        /* \"#utility.yul\":2635:2640   */\n      dup2\n        /* \"#utility.yul\":2617:2641   */\n      tag_22\n      jump\t// in\n    tag_65:\n        /* \"#utility.yul\":2612:2615   */\n      dup3\n        /* \"#utility.yul\":2605:2642   */\n      mstore\n        /* \"#utility.yul\":2530:2648   */\n      pop\n      pop\n      jump\t// out\n        /* \"#utility.yul\":2654:2986   */\n    tag_13:\n        /* \"#utility.yul\":2775:2779   */\n      0x00\n        /* \"#utility.yul\":2813:2815   */\n      0x40\n        /* \"#utility.yul\":2802:2811   */\n      dup3\n        /* \"#utility.yul\":2798:2816   */\n      add\n        /* \"#utility.yul\":2790:2816   */\n      swap1\n      pop\n        /* \"#utility.yul\":2826:2897   */\n      tag_67\n        /* \"#utility.yul\":2894:2895   */\n      0x00\n        /* \"#utility.yul\":2883:2892   */\n      dup4\n        /* \"#utility.yul\":2879:2896   */\n      add\n        /* \"#utility.yul\":2870:2876   */\n      dup6\n        /* \"#utility.yul\":2826:2897   */\n      tag_28\n      jump\t// in\n    tag_67:\n        /* \"#utility.yul\":2907:2979   */\n      tag_68\n        /* \"#utility.yul\":2975:2977   */\n      0x20\n        /* \"#utility.yul\":2964:2973   */\n      dup4\n        /* \"#utility.yul\":2960:2978   */\n      add\n        /* \"#utility.yul\":2951:2957   */\n      dup5\n        /* \"#utility.yul\":2907:2979   */\n      tag_29\n      jump\t// in\n    tag_68:\n        /* \"#utility.yul\":2654:2986   */\n      swap4\n      swap3\n      pop\n      pop\n      pop\n      jump\t// out\n    stop\n\n    sub_0: assembly {\n            /* \"solidity-study-demo/secondPart/Factory.sol\":1290:1578  contract TestContract {... */\n          mstore(0x40, 0x80)\n            /* \"solidity-study-demo/secondPart/Factory.sol\":1370:1471  constructor(address _owner, uint _foo) payable {... */\n          mload(0x40)\n          sub(codesize, bytecodeSize)\n          dup1\n          bytecodeSize\n          dup4\n          codecopy\n          dup2\n          dup2\n          add\n          0x40\n          mstore\n          dup2\n          add\n          swap1\n          tag_1\n          swap2\n          swap1\n          tag_2\n          jump\t// in\n        tag_1:\n            /* \"solidity-study-demo/secondPart/Factory.sol\":1436:1442  _owner */\n          dup2\n            /* \"solidity-study-demo/secondPart/Factory.sol\":1428:1433  owner */\n          0x00\n          dup1\n            /* \"solidity-study-demo/secondPart/Factory.sol\":1428:1442  owner = _owner */\n          0x0100\n          exp\n          dup2\n          sload\n          dup2\n          0xffffffffffffffffffffffffffffffffffffffff\n          mul\n          not\n          and\n          swap1\n          dup4\n          0xffffffffffffffffffffffffffffffffffffffff\n          and\n          mul\n          or\n          swap1\n          sstore\n          pop\n            /* \"solidity-study-demo/secondPart/Factory.sol\":1459:1463  _foo */\n          dup1\n            /* \"solidity-study-demo/secondPart/Factory.sol\":1453:1456  foo */\n          0x01\n            /* \"solidity-study-demo/secondPart/Factory.sol\":1453:1463  foo = _foo */\n          dup2\n          swap1\n          sstore\n          pop\n            /* \"solidity-study-demo/secondPart/Factory.sol\":1370:1471  constructor(address _owner, uint _foo) payable {... */\n          pop\n          pop\n            /* \"solidity-study-demo/secondPart/Factory.sol\":1290:1578  contract TestContract {... */\n          jump(tag_5)\n            /* \"#utility.yul\":88:205   */\n        tag_7:\n            /* \"#utility.yul\":197:198   */\n          0x00\n            /* \"#utility.yul\":194:195   */\n          dup1\n            /* \"#utility.yul\":187:199   */\n          revert\n            /* \"#utility.yul\":334:460   */\n        tag_9:\n            /* \"#utility.yul\":371:378   */\n          0x00\n            /* \"#utility.yul\":411:453   */\n          0xffffffffffffffffffffffffffffffffffffffff\n            /* \"#utility.yul\":404:409   */\n          dup3\n            /* \"#utility.yul\":400:454   */\n          and\n            /* \"#utility.yul\":389:454   */\n          swap1\n          pop\n            /* \"#utility.yul\":334:460   */\n          swap2\n          swap1\n          pop\n          jump\t// out\n            /* \"#utility.yul\":466:562   */\n        tag_10:\n            /* \"#utility.yul\":503:510   */\n          0x00\n            /* \"#utility.yul\":532:556   */\n          tag_22\n            /* \"#utility.yul\":550:555   */\n          dup3\n            /* \"#utility.yul\":532:556   */\n          tag_9\n          jump\t// in\n        tag_22:\n            /* \"#utility.yul\":521:556   */\n          swap1\n          pop\n            /* \"#utility.yul\":466:562   */\n          swap2\n          swap1\n          pop\n          jump\t// out\n            /* \"#utility.yul\":568:690   */\n        tag_11:\n            /* \"#utility.yul\":641:665   */\n          tag_24\n            /* \"#utility.yul\":659:664   */\n          dup2\n            /* \"#utility.yul\":641:665   */\n          tag_10\n          jump\t// in\n        tag_24:\n            /* \"#utility.yul\":634:639   */\n          dup2\n            /* \"#utility.yul\":631:666   */\n          eq\n            /* \"#utility.yul\":621:684   */\n          tag_25\n          jumpi\n            /* \"#utility.yul\":680:681   */\n          0x00\n            /* \"#utility.yul\":677:678   */\n          dup1\n            /* \"#utility.yul\":670:682   */\n          revert\n            /* \"#utility.yul\":621:684   */\n        tag_25:\n            /* \"#utility.yul\":568:690   */\n          pop\n          jump\t// out\n            /* \"#utility.yul\":696:839   */\n        tag_12:\n            /* \"#utility.yul\":753:758   */\n          0x00\n            /* \"#utility.yul\":784:790   */\n          dup2\n            /* \"#utility.yul\":778:791   */\n          mload\n            /* \"#utility.yul\":769:791   */\n          swap1\n          pop\n            /* \"#utility.yul\":800:833   */\n          tag_27\n            /* \"#utility.yul\":827:832   */\n          dup2\n            /* \"#utility.yul\":800:833   */\n          tag_11\n          jump\t// in\n        tag_27:\n            /* \"#utility.yul\":696:839   */\n          swap3\n          swap2\n          pop\n          pop\n          jump\t// out\n            /* \"#utility.yul\":845:922   */\n        tag_13:\n            /* \"#utility.yul\":882:889   */\n          0x00\n            /* \"#utility.yul\":911:916   */\n          dup2\n            /* \"#utility.yul\":900:916   */\n          swap1\n          pop\n            /* \"#utility.yul\":845:922   */\n          swap2\n          swap1\n          pop\n          jump\t// out\n            /* \"#utility.yul\":928:1050   */\n        tag_14:\n            /* \"#utility.yul\":1001:1025   */\n          tag_30\n            /* \"#utility.yul\":1019:1024   */\n          dup2\n            /* \"#utility.yul\":1001:1025   */\n          tag_13\n          jump\t// in\n        tag_30:\n            /* \"#utility.yul\":994:999   */\n          dup2\n            /* \"#utility.yul\":991:1026   */\n          eq\n            /* \"#utility.yul\":981:1044   */\n          tag_31\n          jumpi\n            /* \"#utility.yul\":1040:1041   */\n          0x00\n            /* \"#utility.yul\":1037:1038   */\n          dup1\n            /* \"#utility.yul\":1030:1042   */\n          revert\n            /* \"#utility.yul\":981:1044   */\n        tag_31:\n            /* \"#utility.yul\":928:1050   */\n          pop\n          jump\t// out\n            /* \"#utility.yul\":1056:1199   */\n        tag_15:\n            /* \"#utility.yul\":1113:1118   */\n          0x00\n            /* \"#utility.yul\":1144:1150   */\n          dup2\n            /* \"#utility.yul\":1138:1151   */\n          mload\n            /* \"#utility.yul\":1129:1151   */\n          swap1\n          pop\n            /* \"#utility.yul\":1160:1193   */\n          tag_33\n            /* \"#utility.yul\":1187:1192   */\n          dup2\n            /* \"#utility.yul\":1160:1193   */\n          tag_14\n          jump\t// in\n        tag_33:\n            /* \"#utility.yul\":1056:1199   */\n          swap3\n          swap2\n          pop\n          pop\n          jump\t// out\n            /* \"#utility.yul\":1205:1712   */\n        tag_2:\n            /* \"#utility.yul\":1284:1290   */\n          0x00\n            /* \"#utility.yul\":1292:1298   */\n          dup1\n            /* \"#utility.yul\":1341:1343   */\n          0x40\n            /* \"#utility.yul\":1329:1338   */\n          dup4\n            /* \"#utility.yul\":1320:1327   */\n          dup6\n            /* \"#utility.yul\":1316:1339   */\n          sub\n            /* \"#utility.yul\":1312:1344   */\n          slt\n            /* \"#utility.yul\":1309:1428   */\n          iszero\n          tag_35\n          jumpi\n            /* \"#utility.yul\":1347:1426   */\n          tag_36\n          tag_7\n          jump\t// in\n        tag_36:\n            /* \"#utility.yul\":1309:1428   */\n        tag_35:\n            /* \"#utility.yul\":1467:1468   */\n          0x00\n            /* \"#utility.yul\":1492:1556   */\n          tag_37\n            /* \"#utility.yul\":1548:1555   */\n          dup6\n            /* \"#utility.yul\":1539:1545   */\n          dup3\n            /* \"#utility.yul\":1528:1537   */\n          dup7\n            /* \"#utility.yul\":1524:1546   */\n          add\n            /* \"#utility.yul\":1492:1556   */\n          tag_12\n          jump\t// in\n        tag_37:\n            /* \"#utility.yul\":1482:1556   */\n          swap3\n          pop\n            /* \"#utility.yul\":1438:1566   */\n          pop\n            /* \"#utility.yul\":1605:1607   */\n          0x20\n            /* \"#utility.yul\":1631:1695   */\n          tag_38\n            /* \"#utility.yul\":1687:1694   */\n          dup6\n            /* \"#utility.yul\":1678:1684   */\n          dup3\n            /* \"#utility.yul\":1667:1676   */\n          dup7\n            /* \"#utility.yul\":1663:1685   */\n          add\n            /* \"#utility.yul\":1631:1695   */\n          tag_15\n          jump\t// in\n        tag_38:\n            /* \"#utility.yul\":1621:1695   */\n          swap2\n          pop\n            /* \"#utility.yul\":1576:1705   */\n          pop\n            /* \"#utility.yul\":1205:1712   */\n          swap3\n          pop\n          swap3\n          swap1\n          pop\n          jump\t// out\n            /* \"solidity-study-demo/secondPart/Factory.sol\":1290:1578  contract TestContract {... */\n        tag_5:\n          dataSize(sub_0)\n          dup1\n          dataOffset(sub_0)\n          0x00\n          codecopy\n          0x00\n          return\n        stop\n\n        sub_0: assembly {\n                /* \"solidity-study-demo/secondPart/Factory.sol\":1290:1578  contract TestContract {... */\n              mstore(0x40, 0x80)\n              callvalue\n              dup1\n              iszero\n              tag_1\n              jumpi\n              0x00\n              dup1\n              revert\n            tag_1:\n              pop\n              jumpi(tag_2, lt(calldatasize, 0x04))\n              shr(0xe0, calldataload(0x00))\n              dup1\n              0x12065fe0\n              eq\n              tag_3\n              jumpi\n              dup1\n              0x8da5cb5b\n              eq\n              tag_4\n              jumpi\n              dup1\n              0xc2985578\n              eq\n              tag_5\n              jumpi\n            tag_2:\n              0x00\n              dup1\n              revert\n                /* \"solidity-study-demo/secondPart/Factory.sol\":1479:1575  function getBalance() public view returns (uint) {... */\n            tag_3:\n              tag_6\n              tag_7\n              jump\t// in\n            tag_6:\n              mload(0x40)\n              tag_8\n              swap2\n              swap1\n              tag_9\n              jump\t// in\n            tag_8:\n              mload(0x40)\n              dup1\n              swap2\n              sub\n              swap1\n              return\n                /* \"solidity-study-demo/secondPart/Factory.sol\":1319:1339  address public owner */\n            tag_4:\n              tag_10\n              tag_11\n              jump\t// in\n            tag_10:\n              mload(0x40)\n              tag_12\n              swap2\n              swap1\n              tag_13\n              jump\t// in\n            tag_12:\n              mload(0x40)\n              dup1\n              swap2\n              sub\n              swap1\n              return\n                /* \"solidity-study-demo/secondPart/Factory.sol\":1346:1361  uint public foo */\n            tag_5:\n              tag_14\n              tag_15\n              jump\t// in\n            tag_14:\n              mload(0x40)\n              tag_16\n              swap2\n              swap1\n              tag_9\n              jump\t// in\n            tag_16:\n              mload(0x40)\n              dup1\n              swap2\n              sub\n              swap1\n              return\n                /* \"solidity-study-demo/secondPart/Factory.sol\":1479:1575  function getBalance() public view returns (uint) {... */\n            tag_7:\n                /* \"solidity-study-demo/secondPart/Factory.sol\":1522:1526  uint */\n              0x00\n                /* \"solidity-study-demo/secondPart/Factory.sol\":1546:1567  address(this).balance */\n              selfbalance\n                /* \"solidity-study-demo/secondPart/Factory.sol\":1539:1567  return address(this).balance */\n              swap1\n              pop\n                /* \"solidity-study-demo/secondPart/Factory.sol\":1479:1575  function getBalance() public view returns (uint) {... */\n              swap1\n              jump\t// out\n                /* \"solidity-study-demo/secondPart/Factory.sol\":1319:1339  address public owner */\n            tag_11:\n              0x00\n              dup1\n              sload\n              swap1\n              0x0100\n              exp\n              swap1\n              div\n              0xffffffffffffffffffffffffffffffffffffffff\n              and\n              dup2\n              jump\t// out\n                /* \"solidity-study-demo/secondPart/Factory.sol\":1346:1361  uint public foo */\n            tag_15:\n              sload(0x01)\n              dup2\n              jump\t// out\n                /* \"#utility.yul\":7:84   */\n            tag_18:\n                /* \"#utility.yul\":44:51   */\n              0x00\n                /* \"#utility.yul\":73:78   */\n              dup2\n                /* \"#utility.yul\":62:78   */\n              swap1\n              pop\n                /* \"#utility.yul\":7:84   */\n              swap2\n              swap1\n              pop\n              jump\t// out\n                /* \"#utility.yul\":90:208   */\n            tag_19:\n                /* \"#utility.yul\":177:201   */\n              tag_26\n                /* \"#utility.yul\":195:200   */\n              dup2\n                /* \"#utility.yul\":177:201   */\n              tag_18\n              jump\t// in\n            tag_26:\n                /* \"#utility.yul\":172:175   */\n              dup3\n                /* \"#utility.yul\":165:202   */\n              mstore\n                /* \"#utility.yul\":90:208   */\n              pop\n              pop\n              jump\t// out\n                /* \"#utility.yul\":214:436   */\n            tag_9:\n                /* \"#utility.yul\":307:311   */\n              0x00\n                /* \"#utility.yul\":345:347   */\n              0x20\n                /* \"#utility.yul\":334:343   */\n              dup3\n                /* \"#utility.yul\":330:348   */\n              add\n                /* \"#utility.yul\":322:348   */\n              swap1\n              pop\n                /* \"#utility.yul\":358:429   */\n              tag_28\n                /* \"#utility.yul\":426:427   */\n              0x00\n                /* \"#utility.yul\":415:424   */\n              dup4\n                /* \"#utility.yul\":411:428   */\n              add\n                /* \"#utility.yul\":402:408   */\n              dup5\n                /* \"#utility.yul\":358:429   */\n              tag_19\n              jump\t// in\n            tag_28:\n                /* \"#utility.yul\":214:436   */\n              swap3\n              swap2\n              pop\n              pop\n              jump\t// out\n                /* \"#utility.yul\":442:568   */\n            tag_20:\n                /* \"#utility.yul\":479:486   */\n              0x00\n                /* \"#utility.yul\":519:561   */\n              0xffffffffffffffffffffffffffffffffffffffff\n                /* \"#utility.yul\":512:517   */\n              dup3\n                /* \"#utility.yul\":508:562   */\n              and\n                /* \"#utility.yul\":497:562   */\n              swap1\n              pop\n                /* \"#utility.yul\":442:568   */\n              swap2\n              swap1\n              pop\n              jump\t// out\n                /* \"#utility.yul\":574:670   */\n            tag_21:\n                /* \"#utility.yul\":611:618   */\n              0x00\n                /* \"#utility.yul\":640:664   */\n              tag_31\n                /* \"#utility.yul\":658:663   */\n              dup3\n                /* \"#utility.yul\":640:664   */\n              tag_20\n              jump\t// in\n            tag_31:\n                /* \"#utility.yul\":629:664   */\n              swap1\n              pop\n                /* \"#utility.yul\":574:670   */\n              swap2\n              swap1\n              pop\n              jump\t// out\n                /* \"#utility.yul\":676:794   */\n            tag_22:\n                /* \"#utility.yul\":763:787   */\n              tag_33\n                /* \"#utility.yul\":781:786   */\n              dup2\n                /* \"#utility.yul\":763:787   */\n              tag_21\n              jump\t// in\n            tag_33:\n                /* \"#utility.yul\":758:761   */\n              dup3\n                /* \"#utility.yul\":751:788   */\n              mstore\n                /* \"#utility.yul\":676:794   */\n              pop\n              pop\n              jump\t// out\n                /* \"#utility.yul\":800:1022   */\n            tag_13:\n                /* \"#utility.yul\":893:897   */\n              0x00\n                /* \"#utility.yul\":931:933   */\n              0x20\n                /* \"#utility.yul\":920:929   */\n              dup3\n                /* \"#utility.yul\":916:934   */\n              add\n                /* \"#utility.yul\":908:934   */\n              swap1\n              pop\n                /* \"#utility.yul\":944:1015   */\n              tag_35\n                /* \"#utility.yul\":1012:1013   */\n              0x00\n                /* \"#utility.yul\":1001:1010   */\n              dup4\n                /* \"#utility.yul\":997:1014   */\n              add\n                /* \"#utility.yul\":988:994   */\n              dup5\n                /* \"#utility.yul\":944:1015   */\n              tag_22\n              jump\t// in\n            tag_35:\n                /* \"#utility.yul\":800:1022   */\n              swap3\n              swap2\n              pop\n              pop\n              jump\t// out\n\n            auxdata: 0xa2646970667358221220d0b12e6a505550672752dac3f0821415fb5cc15b4ec66369cdae66e622cecddb64736f6c634300080e0033\n        }\n    }\n\n    auxdata: 0xa264697066735822122030de16c4ab12646cb6ce7bc480d28e32883c5a0e05fd4f2f3f170b9a1ddb087964736f6c634300080e0033\n}\n",
				"bytecode": {
					"linkReferences": {},
					"object": "608060405234801561001057600080fd5b50610553806100206000396000f3fe60806040526004361061001e5760003560e01c8063e7008afa14610023575b600080fd5b61003d60048036038101906100389190610175565b610053565b60405161004a91906101d7565b60405180910390f35b600081848460405161006490610099565b61006f929190610201565b8190604051809103906000f590508015801561008f573d6000803e3d6000fd5b5090509392505050565b6102f38061022b83390190565b600080fd5b600073ffffffffffffffffffffffffffffffffffffffff82169050919050565b60006100d6826100ab565b9050919050565b6100e6816100cb565b81146100f157600080fd5b50565b600081359050610103816100dd565b92915050565b6000819050919050565b61011c81610109565b811461012757600080fd5b50565b60008135905061013981610113565b92915050565b6000819050919050565b6101528161013f565b811461015d57600080fd5b50565b60008135905061016f81610149565b92915050565b60008060006060848603121561018e5761018d6100a6565b5b600061019c868287016100f4565b93505060206101ad8682870161012a565b92505060406101be86828701610160565b9150509250925092565b6101d1816100cb565b82525050565b60006020820190506101ec60008301846101c8565b92915050565b6101fb81610109565b82525050565b600060408201905061021660008301856101c8565b61022360208301846101f2565b939250505056fe60806040526040516102f33803806102f38339818101604052810190610025919061010c565b816000806101000a81548173ffffffffffffffffffffffffffffffffffffffff021916908373ffffffffffffffffffffffffffffffffffffffff16021790555080600181905550505061014c565b600080fd5b600073ffffffffffffffffffffffffffffffffffffffff82169050919050565b60006100a382610078565b9050919050565b6100b381610098565b81146100be57600080fd5b50565b6000815190506100d0816100aa565b92915050565b6000819050919050565b6100e9816100d6565b81146100f457600080fd5b50565b600081519050610106816100e0565b92915050565b6000806040838503121561012357610122610073565b5b6000610131858286016100c1565b9250506020610142858286016100f7565b9150509250929050565b6101988061015b6000396000f3fe608060405234801561001057600080fd5b50600436106100415760003560e01c806312065fe0146100465780638da5cb5b14610064578063c298557814610082575b600080fd5b61004e6100a0565b60405161005b91906100eb565b60405180910390f35b61006c6100a8565b6040516100799190610147565b60405180910390f35b61008a6100cc565b60405161009791906100eb565b60405180910390f35b600047905090565b60008054906101000a900473ffffffffffffffffffffffffffffffffffffffff1681565b60015481565b6000819050919050565b6100e5816100d2565b82525050565b600060208201905061010060008301846100dc565b92915050565b600073ffffffffffffffffffffffffffffffffffffffff82169050919050565b600061013182610106565b9050919050565b61014181610126565b82525050565b600060208201905061015c6000830184610138565b9291505056fea2646970667358221220d0b12e6a505550672752dac3f0821415fb5cc15b4ec66369cdae66e622cecddb64736f6c634300080e0033a264697066735822122030de16c4ab12646cb6ce7bc480d28e32883c5a0e05fd4f2f3f170b9a1ddb087964736f6c634300080e0033",
					"opcodes": "PUSH1 0x80 PUSH1 0x40 MSTORE CALLVALUE DUP1 ISZERO PUSH2 0x10 JUMPI PUSH1 0x0 DUP1 REVERT JUMPDEST POP PUSH2 0x553 DUP1 PUSH2 0x20 PUSH1 0x0 CODECOPY PUSH1 0x0 RETURN INVALID PUSH1 0x80 PUSH1 0x40 MSTORE PUSH1 0x4 CALLDATASIZE LT PUSH2 0x1E JUMPI PUSH1 0x0 CALLDATALOAD PUSH1 0xE0 SHR DUP1 PUSH4 0xE7008AFA EQ PUSH2 0x23 JUMPI JUMPDEST PUSH1 0x0 DUP1 REVERT JUMPDEST PUSH2 0x3D PUSH1 0x4 DUP1 CALLDATASIZE SUB DUP2 ADD SWAP1 PUSH2 0x38 SWAP2 SWAP1 PUSH2 0x175 JUMP JUMPDEST PUSH2 0x53 JUMP JUMPDEST PUSH1 0x40 MLOAD PUSH2 0x4A SWAP2 SWAP1 PUSH2 0x1D7 JUMP JUMPDEST PUSH1 0x40 MLOAD DUP1 SWAP2 SUB SWAP1 RETURN JUMPDEST PUSH1 0x0 DUP2 DUP5 DUP5 PUSH1 0x40 MLOAD PUSH2 0x64 SWAP1 PUSH2 0x99 JUMP JUMPDEST PUSH2 0x6F SWAP3 SWAP2 SWAP1 PUSH2 0x201 JUMP JUMPDEST DUP2 SWAP1 PUSH1 0x40 MLOAD DUP1 SWAP2 SUB SWAP1 PUSH1 0x0 CREATE2 SWAP1 POP DUP1 ISZERO DUP1 ISZERO PUSH2 0x8F JUMPI RETURNDATASIZE PUSH1 0x0 DUP1 RETURNDATACOPY RETURNDATASIZE PUSH1 0x0 REVERT JUMPDEST POP SWAP1 POP SWAP4 SWAP3 POP POP POP JUMP JUMPDEST PUSH2 0x2F3 DUP1 PUSH2 0x22B DUP4 CODECOPY ADD SWAP1 JUMP JUMPDEST PUSH1 0x0 DUP1 REVERT JUMPDEST PUSH1 0x0 PUSH20 0xFFFFFFFFFFFFFFFFFFFFFFFFFFFFFFFFFFFFFFFF DUP3 AND SWAP1 POP SWAP2 SWAP1 POP JUMP JUMPDEST PUSH1 0x0 PUSH2 0xD6 DUP3 PUSH2 0xAB JUMP JUMPDEST SWAP1 POP SWAP2 SWAP1 POP JUMP JUMPDEST PUSH2 0xE6 DUP2 PUSH2 0xCB JUMP JUMPDEST DUP2 EQ PUSH2 0xF1 JUMPI PUSH1 0x0 DUP1 REVERT JUMPDEST POP JUMP JUMPDEST PUSH1 0x0 DUP2 CALLDATALOAD SWAP1 POP PUSH2 0x103 DUP2 PUSH2 0xDD JUMP JUMPDEST SWAP3 SWAP2 POP POP JUMP JUMPDEST PUSH1 0x0 DUP2 SWAP1 POP SWAP2 SWAP1 POP JUMP JUMPDEST PUSH2 0x11C DUP2 PUSH2 0x109 JUMP JUMPDEST DUP2 EQ PUSH2 0x127 JUMPI PUSH1 0x0 DUP1 REVERT JUMPDEST POP JUMP JUMPDEST PUSH1 0x0 DUP2 CALLDATALOAD SWAP1 POP PUSH2 0x139 DUP2 PUSH2 0x113 JUMP JUMPDEST SWAP3 SWAP2 POP POP JUMP JUMPDEST PUSH1 0x0 DUP2 SWAP1 POP SWAP2 SWAP1 POP JUMP JUMPDEST PUSH2 0x152 DUP2 PUSH2 0x13F JUMP JUMPDEST DUP2 EQ PUSH2 0x15D JUMPI PUSH1 0x0 DUP1 REVERT JUMPDEST POP JUMP JUMPDEST PUSH1 0x0 DUP2 CALLDATALOAD SWAP1 POP PUSH2 0x16F DUP2 PUSH2 0x149 JUMP JUMPDEST SWAP3 SWAP2 POP POP JUMP JUMPDEST PUSH1 0x0 DUP1 PUSH1 0x0 PUSH1 0x60 DUP5 DUP7 SUB SLT ISZERO PUSH2 0x18E JUMPI PUSH2 0x18D PUSH2 0xA6 JUMP JUMPDEST JUMPDEST PUSH1 0x0 PUSH2 0x19C DUP7 DUP3 DUP8 ADD PUSH2 0xF4 JUMP JUMPDEST SWAP4 POP POP PUSH1 0x20 PUSH2 0x1AD DUP7 DUP3 DUP8 ADD PUSH2 0x12A JUMP JUMPDEST SWAP3 POP POP PUSH1 0x40 PUSH2 0x1BE DUP7 DUP3 DUP8 ADD PUSH2 0x160 JUMP JUMPDEST SWAP2 POP POP SWAP3 POP SWAP3 POP SWAP3 JUMP JUMPDEST PUSH2 0x1D1 DUP2 PUSH2 0xCB JUMP JUMPDEST DUP3 MSTORE POP POP JUMP JUMPDEST PUSH1 0x0 PUSH1 0x20 DUP3 ADD SWAP1 POP PUSH2 0x1EC PUSH1 0x0 DUP4 ADD DUP5 PUSH2 0x1C8 JUMP JUMPDEST SWAP3 SWAP2 POP POP JUMP JUMPDEST PUSH2 0x1FB DUP2 PUSH2 0x109 JUMP JUMPDEST DUP3 MSTORE POP POP JUMP JUMPDEST PUSH1 0x0 PUSH1 0x40 DUP3 ADD SWAP1 POP PUSH2 0x216 PUSH1 0x0 DUP4 ADD DUP6 PUSH2 0x1C8 JUMP JUMPDEST PUSH2 0x223 PUSH1 0x20 DUP4 ADD DUP5 PUSH2 0x1F2 JUMP JUMPDEST SWAP4 SWAP3 POP POP POP JUMP INVALID PUSH1 0x80 PUSH1 0x40 MSTORE PUSH1 0x40 MLOAD PUSH2 0x2F3 CODESIZE SUB DUP1 PUSH2 0x2F3 DUP4 CODECOPY DUP2 DUP2 ADD PUSH1 0x40 MSTORE DUP2 ADD SWAP1 PUSH2 0x25 SWAP2 SWAP1 PUSH2 0x10C JUMP JUMPDEST DUP2 PUSH1 0x0 DUP1 PUSH2 0x100 EXP DUP2 SLOAD DUP2 PUSH20 0xFFFFFFFFFFFFFFFFFFFFFFFFFFFFFFFFFFFFFFFF MUL NOT AND SWAP1 DUP4 PUSH20 0xFFFFFFFFFFFFFFFFFFFFFFFFFFFFFFFFFFFFFFFF AND MUL OR SWAP1 SSTORE POP DUP1 PUSH1 0x1 DUP2 SWAP1 SSTORE POP POP POP PUSH2 0x14C JUMP JUMPDEST PUSH1 0x0 DUP1 REVERT JUMPDEST PUSH1 0x0 PUSH20 0xFFFFFFFFFFFFFFFFFFFFFFFFFFFFFFFFFFFFFFFF DUP3 AND SWAP1 POP SWAP2 SWAP1 POP JUMP JUMPDEST PUSH1 0x0 PUSH2 0xA3 DUP3 PUSH2 0x78 JUMP JUMPDEST SWAP1 POP SWAP2 SWAP1 POP JUMP JUMPDEST PUSH2 0xB3 DUP2 PUSH2 0x98 JUMP JUMPDEST DUP2 EQ PUSH2 0xBE JUMPI PUSH1 0x0 DUP1 REVERT JUMPDEST POP JUMP JUMPDEST PUSH1 0x0 DUP2 MLOAD SWAP1 POP PUSH2 0xD0 DUP2 PUSH2 0xAA JUMP JUMPDEST SWAP3 SWAP2 POP POP JUMP JUMPDEST PUSH1 0x0 DUP2 SWAP1 POP SWAP2 SWAP1 POP JUMP JUMPDEST PUSH2 0xE9 DUP2 PUSH2 0xD6 JUMP JUMPDEST DUP2 EQ PUSH2 0xF4 JUMPI PUSH1 0x0 DUP1 REVERT JUMPDEST POP JUMP JUMPDEST PUSH1 0x0 DUP2 MLOAD SWAP1 POP PUSH2 0x106 DUP2 PUSH2 0xE0 JUMP JUMPDEST SWAP3 SWAP2 POP POP JUMP JUMPDEST PUSH1 0x0 DUP1 PUSH1 0x40 DUP4 DUP6 SUB SLT ISZERO PUSH2 0x123 JUMPI PUSH2 0x122 PUSH2 0x73 JUMP JUMPDEST JUMPDEST PUSH1 0x0 PUSH2 0x131 DUP6 DUP3 DUP7 ADD PUSH2 0xC1 JUMP JUMPDEST SWAP3 POP POP PUSH1 0x20 PUSH2 0x142 DUP6 DUP3 DUP7 ADD PUSH2 0xF7 JUMP JUMPDEST SWAP2 POP POP SWAP3 POP SWAP3 SWAP1 POP JUMP JUMPDEST PUSH2 0x198 DUP1 PUSH2 0x15B PUSH1 0x0 CODECOPY PUSH1 0x0 RETURN INVALID PUSH1 0x80 PUSH1 0x40 MSTORE CALLVALUE DUP1 ISZERO PUSH2 0x10 JUMPI PUSH1 0x0 DUP1 REVERT JUMPDEST POP PUSH1 0x4 CALLDATASIZE LT PUSH2 0x41 JUMPI PUSH1 0x0 CALLDATALOAD PUSH1 0xE0 SHR DUP1 PUSH4 0x12065FE0 EQ PUSH2 0x46 JUMPI DUP1 PUSH4 0x8DA5CB5B EQ PUSH2 0x64 JUMPI DUP1 PUSH4 0xC2985578 EQ PUSH2 0x82 JUMPI JUMPDEST PUSH1 0x0 DUP1 REVERT JUMPDEST PUSH2 0x4E PUSH2 0xA0 JUMP JUMPDEST PUSH1 0x40 MLOAD PUSH2 0x5B SWAP2 SWAP1 PUSH2 0xEB JUMP JUMPDEST PUSH1 0x40 MLOAD DUP1 SWAP2 SUB SWAP1 RETURN JUMPDEST PUSH2 0x6C PUSH2 0xA8 JUMP JUMPDEST PUSH1 0x40 MLOAD PUSH2 0x79 SWAP2 SWAP1 PUSH2 0x147 JUMP JUMPDEST PUSH1 0x40 MLOAD DUP1 SWAP2 SUB SWAP1 RETURN JUMPDEST PUSH2 0x8A PUSH2 0xCC JUMP JUMPDEST PUSH1 0x40 MLOAD PUSH2 0x97 SWAP2 SWAP1 PUSH2 0xEB JUMP JUMPDEST PUSH1 0x40 MLOAD DUP1 SWAP2 SUB SWAP1 RETURN JUMPDEST PUSH1 0x0 SELFBALANCE SWAP1 POP SWAP1 JUMP JUMPDEST PUSH1 0x0 DUP1 SLOAD SWAP1 PUSH2 0x100 EXP SWAP1 DIV PUSH20 0xFFFFFFFFFFFFFFFFFFFFFFFFFFFFFFFFFFFFFFFF AND DUP2 JUMP JUMPDEST PUSH1 0x1 SLOAD DUP2 JUMP JUMPDEST PUSH1 0x0 DUP2 SWAP1 POP SWAP2 SWAP1 POP JUMP JUMPDEST PUSH2 0xE5 DUP2 PUSH2 0xD2 JUMP JUMPDEST DUP3 MSTORE POP POP JUMP JUMPDEST PUSH1 0x0 PUSH1 0x20 DUP3 ADD SWAP1 POP PUSH2 0x100 PUSH1 0x0 DUP4 ADD DUP5 PUSH2 0xDC JUMP JUMPDEST SWAP3 SWAP2 POP POP JUMP JUMPDEST PUSH1 0x0 PUSH20 0xFFFFFFFFFFFFFFFFFFFFFFFFFFFFFFFFFFFFFFFF DUP3 AND SWAP1 POP SWAP2 SWAP1 POP JUMP JUMPDEST PUSH1 0x0 PUSH2 0x131 DUP3 PUSH2 0x106 JUMP JUMPDEST SWAP1 POP SWAP2 SWAP1 POP JUMP JUMPDEST PUSH2 0x141 DUP2 PUSH2 0x126 JUMP JUMPDEST DUP3 MSTORE POP POP JUMP JUMPDEST PUSH1 0x0 PUSH1 0x20 DUP3 ADD SWAP1 POP PUSH2 0x15C PUSH1 0x0 DUP4 ADD DUP5 PUSH2 0x138 JUMP JUMPDEST SWAP3 SWAP2 POP POP JUMP INVALID LOG2 PUSH5 0x6970667358 0x22 SLT KECCAK256 0xD0 0xB1 0x2E PUSH11 0x505550672752DAC3F08214 ISZERO 0xFB 0x5C 0xC1 JUMPDEST 0x4E 0xC6 PUSH4 0x69CDAE66 0xE6 0x22 0xCE 0xCD 0xDB PUSH5 0x736F6C6343 STOP ADDMOD 0xE STOP CALLER LOG2 PUSH5 0x6970667358 0x22 SLT KECCAK256 ADDRESS 0xDE AND 0xC4 0xAB SLT PUSH5 0x6CB6CE7BC4 DUP1 0xD2 DUP15 ORIGIN DUP9 EXTCODECOPY GAS 0xE SDIV REVERT 0x4F 0x2F EXTCODEHASH OR SIGNEXTEND SWAP11 SAR 0xDB ADDMOD PUSH26 0x64736F6C634300080E0033000000000000000000000000000000 "
				},
				"gasEstimates": {
					"creation": {
						"codeDepositCost": "272600",
						"executionCost": "312",
						"totalCost": "272912"
					},
					"external": {
						"deploy(address,uint256,bytes32)": "infinite"
					}
				},
				"methodIdentifiers": {
					"deploy(address,uint256,bytes32)": "e7008afa"
				}
			},
			"storageLayout": {
				"storage": [],
				"types": null
			},
			"userdoc": {
				"kind": "user",
				"methods": {},
				"version": 1
			}
		}
	}
}