{
	"solidity-study-demo/secondPart/IterableMapping.sol": {
		"TestIterableMap": {
			"abi": [
				{
					"inputs": [],
					"name": "testIterableMap",
					"outputs": [],
					"stateMutability": "nonpayable",
					"type": "function"
				}
			],
			"devdoc": {
				"kind": "dev",
				"methods": {},
				"version": 1
			},
			"evm": {
				"assembly": "    /* \"solidity-study-demo/secondPart/IterableMapping.sol\":1453:2185  contract TestIterableMap {... */\n  mstore(0x40, 0x80)\n  callvalue\n  dup1\n  iszero\n  tag_1\n  jumpi\n  0x00\n  dup1\n  revert\ntag_1:\n  pop\n  dataSize(sub_0)\n  dup1\n  dataOffset(sub_0)\n  0x00\n  codecopy\n  0x00\n  return\nstop\n\nsub_0: assembly {\n        /* \"solidity-study-demo/secondPart/IterableMapping.sol\":1453:2185  contract TestIterableMap {... */\n      mstore(0x40, 0x80)\n      callvalue\n      dup1\n      iszero\n      tag_1\n      jumpi\n      0x00\n      dup1\n      revert\n    tag_1:\n      pop\n      jumpi(tag_2, lt(calldatasize, 0x04))\n      shr(0xe0, calldataload(0x00))\n      dup1\n      0xd230a0d5\n      eq\n      tag_3\n      jumpi\n    tag_2:\n      0x00\n      dup1\n      revert\n        /* \"solidity-study-demo/secondPart/IterableMapping.sol\":1577:2182  function testIterableMap() public {... */\n    tag_3:\n      tag_4\n      tag_5\n      jump\t// in\n    tag_4:\n      stop\n    tag_5:\n        /* \"solidity-study-demo/secondPart/IterableMapping.sol\":1622:1625  map */\n      0x00\n        /* \"solidity-study-demo/secondPart/IterableMapping.sol\":1622:1629  map.set */\n      linkerSymbol(\"1becc360afbdffd5d5a80805c6f5227d05293490b73b25ee504556b65e8aa0dd\")\n      0xbc2b405c\n      swap1\n      swap2\n        /* \"solidity-study-demo/secondPart/IterableMapping.sol\":1638:1639  0 */\n      0x00\n        /* \"solidity-study-demo/secondPart/IterableMapping.sol\":1642:1643  0 */\n      dup1\n        /* \"solidity-study-demo/secondPart/IterableMapping.sol\":1622:1644  map.set(address(0), 0) */\n      mload(0x40)\n      dup5\n      0xffffffff\n      and\n      0xe0\n      shl\n      dup2\n      mstore\n      0x04\n      add\n      tag_7\n      swap4\n      swap3\n      swap2\n      swap1\n      tag_8\n      jump\t// in\n    tag_7:\n      0x00\n      mload(0x40)\n      dup1\n      dup4\n      sub\n      dup2\n      dup7\n      dup1\n      extcodesize\n      iszero\n      dup1\n      iszero\n      tag_9\n      jumpi\n      0x00\n      dup1\n      revert\n    tag_9:\n      pop\n      gas\n      delegatecall\n      iszero\n      dup1\n      iszero\n      tag_11\n      jumpi\n      returndatasize\n      0x00\n      dup1\n      returndatacopy\n      revert(0x00, returndatasize)\n    tag_11:\n      pop\n      pop\n      pop\n      pop\n        /* \"solidity-study-demo/secondPart/IterableMapping.sol\":1655:1658  map */\n      0x00\n        /* \"solidity-study-demo/secondPart/IterableMapping.sol\":1655:1662  map.set */\n      linkerSymbol(\"1becc360afbdffd5d5a80805c6f5227d05293490b73b25ee504556b65e8aa0dd\")\n      0xbc2b405c\n      swap1\n      swap2\n        /* \"solidity-study-demo/secondPart/IterableMapping.sol\":1671:1672  1 */\n      0x01\n        /* \"solidity-study-demo/secondPart/IterableMapping.sol\":1675:1678  100 */\n      0x64\n        /* \"solidity-study-demo/secondPart/IterableMapping.sol\":1655:1679  map.set(address(1), 100) */\n      mload(0x40)\n      dup5\n      0xffffffff\n      and\n      0xe0\n      shl\n      dup2\n      mstore\n      0x04\n      add\n      tag_12\n      swap4\n      swap3\n      swap2\n      swap1\n      tag_13\n      jump\t// in\n    tag_12:\n      0x00\n      mload(0x40)\n      dup1\n      dup4\n      sub\n      dup2\n      dup7\n      dup1\n      extcodesize\n      iszero\n      dup1\n      iszero\n      tag_14\n      jumpi\n      0x00\n      dup1\n      revert\n    tag_14:\n      pop\n      gas\n      delegatecall\n      iszero\n      dup1\n      iszero\n      tag_16\n      jumpi\n      returndatasize\n      0x00\n      dup1\n      returndatacopy\n      revert(0x00, returndatasize)\n    tag_16:\n      pop\n      pop\n      pop\n      pop\n        /* \"solidity-study-demo/secondPart/IterableMapping.sol\":1690:1693  map */\n      0x00\n        /* \"solidity-study-demo/secondPart/IterableMapping.sol\":1690:1697  map.set */\n      linkerSymbol(\"1becc360afbdffd5d5a80805c6f5227d05293490b73b25ee504556b65e8aa0dd\")\n      0xbc2b405c\n      swap1\n      swap2\n        /* \"solidity-study-demo/secondPart/IterableMapping.sol\":1706:1707  2 */\n      0x02\n        /* \"solidity-study-demo/secondPart/IterableMapping.sol\":1710:1713  200 */\n      0xc8\n        /* \"solidity-study-demo/secondPart/IterableMapping.sol\":1690:1714  map.set(address(2), 200) */\n      mload(0x40)\n      dup5\n      0xffffffff\n      and\n      0xe0\n      shl\n      dup2\n      mstore\n      0x04\n      add\n      tag_17\n      swap4\n      swap3\n      swap2\n      swap1\n      tag_18\n      jump\t// in\n    tag_17:\n      0x00\n      mload(0x40)\n      dup1\n      dup4\n      sub\n      dup2\n      dup7\n      dup1\n      extcodesize\n      iszero\n      dup1\n      iszero\n      tag_19\n      jumpi\n      0x00\n      dup1\n      revert\n    tag_19:\n      pop\n      gas\n      delegatecall\n      iszero\n      dup1\n      iszero\n      tag_21\n      jumpi\n      returndatasize\n      0x00\n      dup1\n      returndatacopy\n      revert(0x00, returndatasize)\n    tag_21:\n      pop\n      pop\n      pop\n      pop\n        /* \"solidity-study-demo/secondPart/IterableMapping.sol\":1728:1731  map */\n      0x00\n        /* \"solidity-study-demo/secondPart/IterableMapping.sol\":1728:1735  map.set */\n      linkerSymbol(\"1becc360afbdffd5d5a80805c6f5227d05293490b73b25ee504556b65e8aa0dd\")\n      0xbc2b405c\n      swap1\n      swap2\n        /* \"solidity-study-demo/secondPart/IterableMapping.sol\":1744:1745  2 */\n      0x02\n        /* \"solidity-study-demo/secondPart/IterableMapping.sol\":1748:1751  200 */\n      0xc8\n        /* \"solidity-study-demo/secondPart/IterableMapping.sol\":1728:1752  map.set(address(2), 200) */\n      mload(0x40)\n      dup5\n      0xffffffff\n      and\n      0xe0\n      shl\n      dup2\n      mstore\n      0x04\n      add\n      tag_22\n      swap4\n      swap3\n      swap2\n      swap1\n      tag_18\n      jump\t// in\n    tag_22:\n      0x00\n      mload(0x40)\n      dup1\n      dup4\n      sub\n      dup2\n      dup7\n      dup1\n      extcodesize\n      iszero\n      dup1\n      iszero\n      tag_23\n      jumpi\n      0x00\n      dup1\n      revert\n    tag_23:\n      pop\n      gas\n      delegatecall\n      iszero\n      dup1\n      iszero\n      tag_25\n      jumpi\n      returndatasize\n      0x00\n      dup1\n      returndatacopy\n      revert(0x00, returndatasize)\n    tag_25:\n      pop\n      pop\n      pop\n      pop\n        /* \"solidity-study-demo/secondPart/IterableMapping.sol\":1763:1766  map */\n      0x00\n        /* \"solidity-study-demo/secondPart/IterableMapping.sol\":1763:1770  map.set */\n      linkerSymbol(\"1becc360afbdffd5d5a80805c6f5227d05293490b73b25ee504556b65e8aa0dd\")\n      0xbc2b405c\n      swap1\n      swap2\n        /* \"solidity-study-demo/secondPart/IterableMapping.sol\":1779:1780  3 */\n      0x03\n        /* \"solidity-study-demo/secondPart/IterableMapping.sol\":1783:1786  300 */\n      0x012c\n        /* \"solidity-study-demo/secondPart/IterableMapping.sol\":1763:1787  map.set(address(3), 300) */\n      mload(0x40)\n      dup5\n      0xffffffff\n      and\n      0xe0\n      shl\n      dup2\n      mstore\n      0x04\n      add\n      tag_26\n      swap4\n      swap3\n      swap2\n      swap1\n      tag_27\n      jump\t// in\n    tag_26:\n      0x00\n      mload(0x40)\n      dup1\n      dup4\n      sub\n      dup2\n      dup7\n      dup1\n      extcodesize\n      iszero\n      dup1\n      iszero\n      tag_28\n      jumpi\n      0x00\n      dup1\n      revert\n    tag_28:\n      pop\n      gas\n      delegatecall\n      iszero\n      dup1\n      iszero\n      tag_30\n      jumpi\n      returndatasize\n      0x00\n      dup1\n      returndatacopy\n      revert(0x00, returndatasize)\n    tag_30:\n      pop\n      pop\n      pop\n      pop\n        /* \"solidity-study-demo/secondPart/IterableMapping.sol\":1805:1811  uint i */\n      0x00\n        /* \"solidity-study-demo/secondPart/IterableMapping.sol\":1800:1945  for (uint i = 0; i < map.size(); i++) {... */\n    tag_31:\n        /* \"solidity-study-demo/secondPart/IterableMapping.sol\":1821:1824  map */\n      0x00\n        /* \"solidity-study-demo/secondPart/IterableMapping.sol\":1821:1829  map.size */\n      linkerSymbol(\"1becc360afbdffd5d5a80805c6f5227d05293490b73b25ee504556b65e8aa0dd\")\n      0xdeb3d896\n      swap1\n      swap2\n        /* \"solidity-study-demo/secondPart/IterableMapping.sol\":1821:1831  map.size() */\n      mload(0x40)\n      dup3\n      0xffffffff\n      and\n      0xe0\n      shl\n      dup2\n      mstore\n      0x04\n      add\n      tag_34\n      swap2\n      swap1\n      tag_35\n      jump\t// in\n    tag_34:\n      0x20\n      mload(0x40)\n      dup1\n      dup4\n      sub\n      dup2\n      dup7\n      gas\n      delegatecall\n      iszero\n      dup1\n      iszero\n      tag_37\n      jumpi\n      returndatasize\n      0x00\n      dup1\n      returndatacopy\n      revert(0x00, returndatasize)\n    tag_37:\n      pop\n      pop\n      pop\n      pop\n      mload(0x40)\n      returndatasize\n      not(0x1f)\n      0x1f\n      dup3\n      add\n      and\n      dup3\n      add\n      dup1\n      0x40\n      mstore\n      pop\n      dup2\n      add\n      swap1\n      tag_38\n      swap2\n      swap1\n      tag_39\n      jump\t// in\n    tag_38:\n        /* \"solidity-study-demo/secondPart/IterableMapping.sol\":1817:1818  i */\n      dup2\n        /* \"solidity-study-demo/secondPart/IterableMapping.sol\":1817:1831  i < map.size() */\n      lt\n        /* \"solidity-study-demo/secondPart/IterableMapping.sol\":1800:1945  for (uint i = 0; i < map.size(); i++) {... */\n      iszero\n      tag_32\n      jumpi\n        /* \"solidity-study-demo/secondPart/IterableMapping.sol\":1853:1864  address key */\n      0x00\n        /* \"solidity-study-demo/secondPart/IterableMapping.sol\":1867:1870  map */\n      dup1\n        /* \"solidity-study-demo/secondPart/IterableMapping.sol\":1867:1884  map.getKeyAtIndex */\n      linkerSymbol(\"1becc360afbdffd5d5a80805c6f5227d05293490b73b25ee504556b65e8aa0dd\")\n      0xd1aa9e7e\n      swap1\n      swap2\n        /* \"solidity-study-demo/secondPart/IterableMapping.sol\":1885:1886  i */\n      dup5\n        /* \"solidity-study-demo/secondPart/IterableMapping.sol\":1867:1887  map.getKeyAtIndex(i) */\n      mload(0x40)\n      dup4\n      0xffffffff\n      and\n      0xe0\n      shl\n      dup2\n      mstore\n      0x04\n      add\n      tag_40\n      swap3\n      swap2\n      swap1\n      tag_41\n      jump\t// in\n    tag_40:\n      0x20\n      mload(0x40)\n      dup1\n      dup4\n      sub\n      dup2\n      dup7\n      gas\n      delegatecall\n      iszero\n      dup1\n      iszero\n      tag_43\n      jumpi\n      returndatasize\n      0x00\n      dup1\n      returndatacopy\n      revert(0x00, returndatasize)\n    tag_43:\n      pop\n      pop\n      pop\n      pop\n      mload(0x40)\n      returndatasize\n      not(0x1f)\n      0x1f\n      dup3\n      add\n      and\n      dup3\n      add\n      dup1\n      0x40\n      mstore\n      pop\n      dup2\n      add\n      swap1\n      tag_44\n      swap2\n      swap1\n      tag_45\n      jump\t// in\n    tag_44:\n        /* \"solidity-study-demo/secondPart/IterableMapping.sol\":1853:1887  address key = map.getKeyAtIndex(i) */\n      swap1\n      pop\n        /* \"solidity-study-demo/secondPart/IterableMapping.sol\":1929:1932  100 */\n      0x64\n        /* \"solidity-study-demo/secondPart/IterableMapping.sol\":1925:1926  i */\n      dup3\n        /* \"solidity-study-demo/secondPart/IterableMapping.sol\":1925:1932  i * 100 */\n      tag_46\n      swap2\n      swap1\n      tag_47\n      jump\t// in\n    tag_46:\n        /* \"solidity-study-demo/secondPart/IterableMapping.sol\":1909:1912  map */\n      0x00\n        /* \"solidity-study-demo/secondPart/IterableMapping.sol\":1909:1916  map.get */\n      linkerSymbol(\"1becc360afbdffd5d5a80805c6f5227d05293490b73b25ee504556b65e8aa0dd\")\n      0x732a2ccf\n      swap1\n      swap2\n        /* \"solidity-study-demo/secondPart/IterableMapping.sol\":1917:1920  key */\n      dup5\n        /* \"solidity-study-demo/secondPart/IterableMapping.sol\":1909:1921  map.get(key) */\n      mload(0x40)\n      dup4\n      0xffffffff\n      and\n      0xe0\n      shl\n      dup2\n      mstore\n      0x04\n      add\n      tag_48\n      swap3\n      swap2\n      swap1\n      tag_49\n      jump\t// in\n    tag_48:\n      0x20\n      mload(0x40)\n      dup1\n      dup4\n      sub\n      dup2\n      dup7\n      gas\n      delegatecall\n      iszero\n      dup1\n      iszero\n      tag_51\n      jumpi\n      returndatasize\n      0x00\n      dup1\n      returndatacopy\n      revert(0x00, returndatasize)\n    tag_51:\n      pop\n      pop\n      pop\n      pop\n      mload(0x40)\n      returndatasize\n      not(0x1f)\n      0x1f\n      dup3\n      add\n      and\n      dup3\n      add\n      dup1\n      0x40\n      mstore\n      pop\n      dup2\n      add\n      swap1\n      tag_52\n      swap2\n      swap1\n      tag_39\n      jump\t// in\n    tag_52:\n        /* \"solidity-study-demo/secondPart/IterableMapping.sol\":1909:1932  map.get(key) == i * 100 */\n      eq\n        /* \"solidity-study-demo/secondPart/IterableMapping.sol\":1902:1933  assert(map.get(key) == i * 100) */\n      tag_53\n      jumpi\n      tag_54\n      tag_55\n      jump\t// in\n    tag_54:\n    tag_53:\n        /* \"solidity-study-demo/secondPart/IterableMapping.sol\":1838:1945  {... */\n      pop\n        /* \"solidity-study-demo/secondPart/IterableMapping.sol\":1833:1836  i++ */\n      dup1\n      dup1\n      tag_56\n      swap1\n      tag_57\n      jump\t// in\n    tag_56:\n      swap2\n      pop\n      pop\n        /* \"solidity-study-demo/secondPart/IterableMapping.sol\":1800:1945  for (uint i = 0; i < map.size(); i++) {... */\n      jump(tag_31)\n    tag_32:\n      pop\n        /* \"solidity-study-demo/secondPart/IterableMapping.sol\":1957:1960  map */\n      0x00\n        /* \"solidity-study-demo/secondPart/IterableMapping.sol\":1957:1967  map.remove */\n      linkerSymbol(\"1becc360afbdffd5d5a80805c6f5227d05293490b73b25ee504556b65e8aa0dd\")\n      0x4c60db9c\n      swap1\n      swap2\n        /* \"solidity-study-demo/secondPart/IterableMapping.sol\":1976:1977  1 */\n      0x01\n        /* \"solidity-study-demo/secondPart/IterableMapping.sol\":1957:1979  map.remove(address(1)) */\n      mload(0x40)\n      dup4\n      0xffffffff\n      and\n      0xe0\n      shl\n      dup2\n      mstore\n      0x04\n      add\n      tag_58\n      swap3\n      swap2\n      swap1\n      tag_49\n      jump\t// in\n    tag_58:\n      0x00\n      mload(0x40)\n      dup1\n      dup4\n      sub\n      dup2\n      dup7\n      dup1\n      extcodesize\n      iszero\n      dup1\n      iszero\n      tag_59\n      jumpi\n      0x00\n      dup1\n      revert\n    tag_59:\n      pop\n      gas\n      delegatecall\n      iszero\n      dup1\n      iszero\n      tag_61\n      jumpi\n      returndatasize\n      0x00\n      dup1\n      returndatacopy\n      revert(0x00, returndatasize)\n    tag_61:\n      pop\n      pop\n      pop\n      pop\n        /* \"solidity-study-demo/secondPart/IterableMapping.sol\":2013:2014  3 */\n      0x03\n        /* \"solidity-study-demo/secondPart/IterableMapping.sol\":1999:2002  map */\n      0x00\n        /* \"solidity-study-demo/secondPart/IterableMapping.sol\":1999:2007  map.size */\n      linkerSymbol(\"1becc360afbdffd5d5a80805c6f5227d05293490b73b25ee504556b65e8aa0dd\")\n      0xdeb3d896\n      swap1\n      swap2\n        /* \"solidity-study-demo/secondPart/IterableMapping.sol\":1999:2009  map.size() */\n      mload(0x40)\n      dup3\n      0xffffffff\n      and\n      0xe0\n      shl\n      dup2\n      mstore\n      0x04\n      add\n      tag_62\n      swap2\n      swap1\n      tag_35\n      jump\t// in\n    tag_62:\n      0x20\n      mload(0x40)\n      dup1\n      dup4\n      sub\n      dup2\n      dup7\n      gas\n      delegatecall\n      iszero\n      dup1\n      iszero\n      tag_64\n      jumpi\n      returndatasize\n      0x00\n      dup1\n      returndatacopy\n      revert(0x00, returndatasize)\n    tag_64:\n      pop\n      pop\n      pop\n      pop\n      mload(0x40)\n      returndatasize\n      not(0x1f)\n      0x1f\n      dup3\n      add\n      and\n      dup3\n      add\n      dup1\n      0x40\n      mstore\n      pop\n      dup2\n      add\n      swap1\n      tag_65\n      swap2\n      swap1\n      tag_39\n      jump\t// in\n    tag_65:\n        /* \"solidity-study-demo/secondPart/IterableMapping.sol\":1999:2014  map.size() == 3 */\n      eq\n        /* \"solidity-study-demo/secondPart/IterableMapping.sol\":1992:2015  assert(map.size() == 3) */\n      tag_66\n      jumpi\n      tag_67\n      tag_55\n      jump\t// in\n    tag_67:\n    tag_66:\n        /* \"solidity-study-demo/secondPart/IterableMapping.sol\":2065:2066  0 */\n      0x00\n        /* \"solidity-study-demo/secondPart/IterableMapping.sol\":2033:2067  map.getKeyAtIndex(0) == address(0) */\n      0xffffffffffffffffffffffffffffffffffffffff\n      and\n        /* \"solidity-study-demo/secondPart/IterableMapping.sol\":2033:2036  map */\n      0x00\n        /* \"solidity-study-demo/secondPart/IterableMapping.sol\":2033:2050  map.getKeyAtIndex */\n      linkerSymbol(\"1becc360afbdffd5d5a80805c6f5227d05293490b73b25ee504556b65e8aa0dd\")\n      0xd1aa9e7e\n      swap1\n      swap2\n        /* \"solidity-study-demo/secondPart/IterableMapping.sol\":2051:2052  0 */\n      0x00\n        /* \"solidity-study-demo/secondPart/IterableMapping.sol\":2033:2053  map.getKeyAtIndex(0) */\n      mload(0x40)\n      dup4\n      0xffffffff\n      and\n      0xe0\n      shl\n      dup2\n      mstore\n      0x04\n      add\n      tag_68\n      swap3\n      swap2\n      swap1\n      tag_69\n      jump\t// in\n    tag_68:\n      0x20\n      mload(0x40)\n      dup1\n      dup4\n      sub\n      dup2\n      dup7\n      gas\n      delegatecall\n      iszero\n      dup1\n      iszero\n      tag_71\n      jumpi\n      returndatasize\n      0x00\n      dup1\n      returndatacopy\n      revert(0x00, returndatasize)\n    tag_71:\n      pop\n      pop\n      pop\n      pop\n      mload(0x40)\n      returndatasize\n      not(0x1f)\n      0x1f\n      dup3\n      add\n      and\n      dup3\n      add\n      dup1\n      0x40\n      mstore\n      pop\n      dup2\n      add\n      swap1\n      tag_72\n      swap2\n      swap1\n      tag_45\n      jump\t// in\n    tag_72:\n        /* \"solidity-study-demo/secondPart/IterableMapping.sol\":2033:2067  map.getKeyAtIndex(0) == address(0) */\n      0xffffffffffffffffffffffffffffffffffffffff\n      and\n      eq\n        /* \"solidity-study-demo/secondPart/IterableMapping.sol\":2026:2068  assert(map.getKeyAtIndex(0) == address(0)) */\n      tag_73\n      jumpi\n      tag_74\n      tag_55\n      jump\t// in\n    tag_74:\n    tag_73:\n        /* \"solidity-study-demo/secondPart/IterableMapping.sol\":2118:2119  3 */\n      0x03\n        /* \"solidity-study-demo/secondPart/IterableMapping.sol\":2086:2120  map.getKeyAtIndex(1) == address(3) */\n      0xffffffffffffffffffffffffffffffffffffffff\n      and\n        /* \"solidity-study-demo/secondPart/IterableMapping.sol\":2086:2089  map */\n      0x00\n        /* \"solidity-study-demo/secondPart/IterableMapping.sol\":2086:2103  map.getKeyAtIndex */\n      linkerSymbol(\"1becc360afbdffd5d5a80805c6f5227d05293490b73b25ee504556b65e8aa0dd\")\n      0xd1aa9e7e\n      swap1\n      swap2\n        /* \"solidity-study-demo/secondPart/IterableMapping.sol\":2104:2105  1 */\n      0x01\n        /* \"solidity-study-demo/secondPart/IterableMapping.sol\":2086:2106  map.getKeyAtIndex(1) */\n      mload(0x40)\n      dup4\n      0xffffffff\n      and\n      0xe0\n      shl\n      dup2\n      mstore\n      0x04\n      add\n      tag_75\n      swap3\n      swap2\n      swap1\n      tag_76\n      jump\t// in\n    tag_75:\n      0x20\n      mload(0x40)\n      dup1\n      dup4\n      sub\n      dup2\n      dup7\n      gas\n      delegatecall\n      iszero\n      dup1\n      iszero\n      tag_78\n      jumpi\n      returndatasize\n      0x00\n      dup1\n      returndatacopy\n      revert(0x00, returndatasize)\n    tag_78:\n      pop\n      pop\n      pop\n      pop\n      mload(0x40)\n      returndatasize\n      not(0x1f)\n      0x1f\n      dup3\n      add\n      and\n      dup3\n      add\n      dup1\n      0x40\n      mstore\n      pop\n      dup2\n      add\n      swap1\n      tag_79\n      swap2\n      swap1\n      tag_45\n      jump\t// in\n    tag_79:\n        /* \"solidity-study-demo/secondPart/IterableMapping.sol\":2086:2120  map.getKeyAtIndex(1) == address(3) */\n      0xffffffffffffffffffffffffffffffffffffffff\n      and\n      eq\n        /* \"solidity-study-demo/secondPart/IterableMapping.sol\":2079:2121  assert(map.getKeyAtIndex(1) == address(3)) */\n      tag_80\n      jumpi\n      tag_81\n      tag_55\n      jump\t// in\n    tag_81:\n    tag_80:\n        /* \"solidity-study-demo/secondPart/IterableMapping.sol\":2171:2172  2 */\n      0x02\n        /* \"solidity-study-demo/secondPart/IterableMapping.sol\":2139:2173  map.getKeyAtIndex(2) == address(2) */\n      0xffffffffffffffffffffffffffffffffffffffff\n      and\n        /* \"solidity-study-demo/secondPart/IterableMapping.sol\":2139:2142  map */\n      0x00\n        /* \"solidity-study-demo/secondPart/IterableMapping.sol\":2139:2156  map.getKeyAtIndex */\n      linkerSymbol(\"1becc360afbdffd5d5a80805c6f5227d05293490b73b25ee504556b65e8aa0dd\")\n      0xd1aa9e7e\n      swap1\n      swap2\n        /* \"solidity-study-demo/secondPart/IterableMapping.sol\":2157:2158  2 */\n      0x02\n        /* \"solidity-study-demo/secondPart/IterableMapping.sol\":2139:2159  map.getKeyAtIndex(2) */\n      mload(0x40)\n      dup4\n      0xffffffff\n      and\n      0xe0\n      shl\n      dup2\n      mstore\n      0x04\n      add\n      tag_82\n      swap3\n      swap2\n      swap1\n      tag_83\n      jump\t// in\n    tag_82:\n      0x20\n      mload(0x40)\n      dup1\n      dup4\n      sub\n      dup2\n      dup7\n      gas\n      delegatecall\n      iszero\n      dup1\n      iszero\n      tag_85\n      jumpi\n      returndatasize\n      0x00\n      dup1\n      returndatacopy\n      revert(0x00, returndatasize)\n    tag_85:\n      pop\n      pop\n      pop\n      pop\n      mload(0x40)\n      returndatasize\n      not(0x1f)\n      0x1f\n      dup3\n      add\n      and\n      dup3\n      add\n      dup1\n      0x40\n      mstore\n      pop\n      dup2\n      add\n      swap1\n      tag_86\n      swap2\n      swap1\n      tag_45\n      jump\t// in\n    tag_86:\n        /* \"solidity-study-demo/secondPart/IterableMapping.sol\":2139:2173  map.getKeyAtIndex(2) == address(2) */\n      0xffffffffffffffffffffffffffffffffffffffff\n      and\n      eq\n        /* \"solidity-study-demo/secondPart/IterableMapping.sol\":2132:2174  assert(map.getKeyAtIndex(2) == address(2)) */\n      tag_87\n      jumpi\n      tag_88\n      tag_55\n      jump\t// in\n    tag_88:\n    tag_87:\n        /* \"solidity-study-demo/secondPart/IterableMapping.sol\":1577:2182  function testIterableMap() public {... */\n      jump\t// out\n        /* \"#utility.yul\":7:134   */\n    tag_89:\n        /* \"#utility.yul\":122:127   */\n      dup1\n        /* \"#utility.yul\":117:120   */\n      dup3\n        /* \"#utility.yul\":110:128   */\n      mstore\n        /* \"#utility.yul\":7:134   */\n      pop\n      pop\n      jump\t// out\n        /* \"#utility.yul\":140:266   */\n    tag_90:\n        /* \"#utility.yul\":177:184   */\n      0x00\n        /* \"#utility.yul\":217:259   */\n      0xffffffffffffffffffffffffffffffffffffffff\n        /* \"#utility.yul\":210:215   */\n      dup3\n        /* \"#utility.yul\":206:260   */\n      and\n        /* \"#utility.yul\":195:260   */\n      swap1\n      pop\n        /* \"#utility.yul\":140:266   */\n      swap2\n      swap1\n      pop\n      jump\t// out\n        /* \"#utility.yul\":272:368   */\n    tag_91:\n        /* \"#utility.yul\":309:316   */\n      0x00\n        /* \"#utility.yul\":338:362   */\n      tag_126\n        /* \"#utility.yul\":356:361   */\n      dup3\n        /* \"#utility.yul\":338:362   */\n      tag_90\n      jump\t// in\n    tag_126:\n        /* \"#utility.yul\":327:362   */\n      swap1\n      pop\n        /* \"#utility.yul\":272:368   */\n      swap2\n      swap1\n      pop\n      jump\t// out\n        /* \"#utility.yul\":374:500   */\n    tag_92:\n        /* \"#utility.yul\":469:493   */\n      tag_128\n        /* \"#utility.yul\":487:492   */\n      dup2\n        /* \"#utility.yul\":469:493   */\n      tag_91\n      jump\t// in\n    tag_128:\n        /* \"#utility.yul\":464:467   */\n      dup3\n        /* \"#utility.yul\":457:494   */\n      mstore\n        /* \"#utility.yul\":374:500   */\n      pop\n      pop\n      jump\t// out\n        /* \"#utility.yul\":506:591   */\n    tag_93:\n        /* \"#utility.yul\":551:558   */\n      0x00\n        /* \"#utility.yul\":580:585   */\n      dup2\n        /* \"#utility.yul\":569:585   */\n      swap1\n      pop\n        /* \"#utility.yul\":506:591   */\n      swap2\n      swap1\n      pop\n      jump\t// out\n        /* \"#utility.yul\":597:674   */\n    tag_94:\n        /* \"#utility.yul\":634:641   */\n      0x00\n        /* \"#utility.yul\":663:668   */\n      dup2\n        /* \"#utility.yul\":652:668   */\n      swap1\n      pop\n        /* \"#utility.yul\":597:674   */\n      swap2\n      swap1\n      pop\n      jump\t// out\n        /* \"#utility.yul\":680:740   */\n    tag_95:\n        /* \"#utility.yul\":708:711   */\n      0x00\n        /* \"#utility.yul\":729:734   */\n      dup2\n        /* \"#utility.yul\":722:734   */\n      swap1\n      pop\n        /* \"#utility.yul\":680:740   */\n      swap2\n      swap1\n      pop\n      jump\t// out\n        /* \"#utility.yul\":746:904   */\n    tag_96:\n        /* \"#utility.yul\":804:813   */\n      0x00\n        /* \"#utility.yul\":837:898   */\n      tag_133\n        /* \"#utility.yul\":855:897   */\n      tag_134\n        /* \"#utility.yul\":864:896   */\n      tag_135\n        /* \"#utility.yul\":890:895   */\n      dup5\n        /* \"#utility.yul\":864:896   */\n      tag_93\n      jump\t// in\n    tag_135:\n        /* \"#utility.yul\":855:897   */\n      tag_95\n      jump\t// in\n    tag_134:\n        /* \"#utility.yul\":837:898   */\n      tag_94\n      jump\t// in\n    tag_133:\n        /* \"#utility.yul\":824:898   */\n      swap1\n      pop\n        /* \"#utility.yul\":746:904   */\n      swap2\n      swap1\n      pop\n      jump\t// out\n        /* \"#utility.yul\":910:1065   */\n    tag_97:\n        /* \"#utility.yul\":1013:1058   */\n      tag_137\n        /* \"#utility.yul\":1052:1057   */\n      dup2\n        /* \"#utility.yul\":1013:1058   */\n      tag_96\n      jump\t// in\n    tag_137:\n        /* \"#utility.yul\":1008:1011   */\n      dup3\n        /* \"#utility.yul\":1001:1059   */\n      mstore\n        /* \"#utility.yul\":910:1065   */\n      pop\n      pop\n      jump\t// out\n        /* \"#utility.yul\":1071:1601   */\n    tag_8:\n        /* \"#utility.yul\":1256:1260   */\n      0x00\n        /* \"#utility.yul\":1294:1296   */\n      0x60\n        /* \"#utility.yul\":1283:1292   */\n      dup3\n        /* \"#utility.yul\":1279:1297   */\n      add\n        /* \"#utility.yul\":1271:1297   */\n      swap1\n      pop\n        /* \"#utility.yul\":1307:1406   */\n      tag_139\n        /* \"#utility.yul\":1403:1404   */\n      0x00\n        /* \"#utility.yul\":1392:1401   */\n      dup4\n        /* \"#utility.yul\":1388:1405   */\n      add\n        /* \"#utility.yul\":1379:1385   */\n      dup7\n        /* \"#utility.yul\":1307:1406   */\n      tag_89\n      jump\t// in\n    tag_139:\n        /* \"#utility.yul\":1416:1496   */\n      tag_140\n        /* \"#utility.yul\":1492:1494   */\n      0x20\n        /* \"#utility.yul\":1481:1490   */\n      dup4\n        /* \"#utility.yul\":1477:1495   */\n      add\n        /* \"#utility.yul\":1468:1474   */\n      dup6\n        /* \"#utility.yul\":1416:1496   */\n      tag_92\n      jump\t// in\n    tag_140:\n        /* \"#utility.yul\":1506:1594   */\n      tag_141\n        /* \"#utility.yul\":1590:1592   */\n      0x40\n        /* \"#utility.yul\":1579:1588   */\n      dup4\n        /* \"#utility.yul\":1575:1593   */\n      add\n        /* \"#utility.yul\":1566:1572   */\n      dup5\n        /* \"#utility.yul\":1506:1594   */\n      tag_97\n      jump\t// in\n    tag_141:\n        /* \"#utility.yul\":1071:1601   */\n      swap5\n      swap4\n      pop\n      pop\n      pop\n      pop\n      jump\t// out\n        /* \"#utility.yul\":1607:1694   */\n    tag_98:\n        /* \"#utility.yul\":1654:1661   */\n      0x00\n        /* \"#utility.yul\":1683:1688   */\n      dup2\n        /* \"#utility.yul\":1672:1688   */\n      swap1\n      pop\n        /* \"#utility.yul\":1607:1694   */\n      swap2\n      swap1\n      pop\n      jump\t// out\n        /* \"#utility.yul\":1700:1862   */\n    tag_99:\n        /* \"#utility.yul\":1760:1769   */\n      0x00\n        /* \"#utility.yul\":1793:1856   */\n      tag_144\n        /* \"#utility.yul\":1811:1855   */\n      tag_145\n        /* \"#utility.yul\":1820:1854   */\n      tag_146\n        /* \"#utility.yul\":1848:1853   */\n      dup5\n        /* \"#utility.yul\":1820:1854   */\n      tag_98\n      jump\t// in\n    tag_146:\n        /* \"#utility.yul\":1811:1855   */\n      tag_95\n      jump\t// in\n    tag_145:\n        /* \"#utility.yul\":1793:1856   */\n      tag_94\n      jump\t// in\n    tag_144:\n        /* \"#utility.yul\":1780:1856   */\n      swap1\n      pop\n        /* \"#utility.yul\":1700:1862   */\n      swap2\n      swap1\n      pop\n      jump\t// out\n        /* \"#utility.yul\":1868:2027   */\n    tag_100:\n        /* \"#utility.yul\":1973:2020   */\n      tag_148\n        /* \"#utility.yul\":2014:2019   */\n      dup2\n        /* \"#utility.yul\":1973:2020   */\n      tag_99\n      jump\t// in\n    tag_148:\n        /* \"#utility.yul\":1968:1971   */\n      dup3\n        /* \"#utility.yul\":1961:2021   */\n      mstore\n        /* \"#utility.yul\":1868:2027   */\n      pop\n      pop\n      jump\t// out\n        /* \"#utility.yul\":2033:2567   */\n    tag_13:\n        /* \"#utility.yul\":2220:2224   */\n      0x00\n        /* \"#utility.yul\":2258:2260   */\n      0x60\n        /* \"#utility.yul\":2247:2256   */\n      dup3\n        /* \"#utility.yul\":2243:2261   */\n      add\n        /* \"#utility.yul\":2235:2261   */\n      swap1\n      pop\n        /* \"#utility.yul\":2271:2370   */\n      tag_150\n        /* \"#utility.yul\":2367:2368   */\n      0x00\n        /* \"#utility.yul\":2356:2365   */\n      dup4\n        /* \"#utility.yul\":2352:2369   */\n      add\n        /* \"#utility.yul\":2343:2349   */\n      dup7\n        /* \"#utility.yul\":2271:2370   */\n      tag_89\n      jump\t// in\n    tag_150:\n        /* \"#utility.yul\":2380:2460   */\n      tag_151\n        /* \"#utility.yul\":2456:2458   */\n      0x20\n        /* \"#utility.yul\":2445:2454   */\n      dup4\n        /* \"#utility.yul\":2441:2459   */\n      add\n        /* \"#utility.yul\":2432:2438   */\n      dup6\n        /* \"#utility.yul\":2380:2460   */\n      tag_92\n      jump\t// in\n    tag_151:\n        /* \"#utility.yul\":2470:2560   */\n      tag_152\n        /* \"#utility.yul\":2556:2558   */\n      0x40\n        /* \"#utility.yul\":2545:2554   */\n      dup4\n        /* \"#utility.yul\":2541:2559   */\n      add\n        /* \"#utility.yul\":2532:2538   */\n      dup5\n        /* \"#utility.yul\":2470:2560   */\n      tag_100\n      jump\t// in\n    tag_152:\n        /* \"#utility.yul\":2033:2567   */\n      swap5\n      swap4\n      pop\n      pop\n      pop\n      pop\n      jump\t// out\n        /* \"#utility.yul\":2573:2660   */\n    tag_101:\n        /* \"#utility.yul\":2620:2627   */\n      0x00\n        /* \"#utility.yul\":2649:2654   */\n      dup2\n        /* \"#utility.yul\":2638:2654   */\n      swap1\n      pop\n        /* \"#utility.yul\":2573:2660   */\n      swap2\n      swap1\n      pop\n      jump\t// out\n        /* \"#utility.yul\":2666:2828   */\n    tag_102:\n        /* \"#utility.yul\":2726:2735   */\n      0x00\n        /* \"#utility.yul\":2759:2822   */\n      tag_155\n        /* \"#utility.yul\":2777:2821   */\n      tag_156\n        /* \"#utility.yul\":2786:2820   */\n      tag_157\n        /* \"#utility.yul\":2814:2819   */\n      dup5\n        /* \"#utility.yul\":2786:2820   */\n      tag_101\n      jump\t// in\n    tag_157:\n        /* \"#utility.yul\":2777:2821   */\n      tag_95\n      jump\t// in\n    tag_156:\n        /* \"#utility.yul\":2759:2822   */\n      tag_94\n      jump\t// in\n    tag_155:\n        /* \"#utility.yul\":2746:2822   */\n      swap1\n      pop\n        /* \"#utility.yul\":2666:2828   */\n      swap2\n      swap1\n      pop\n      jump\t// out\n        /* \"#utility.yul\":2834:2993   */\n    tag_103:\n        /* \"#utility.yul\":2939:2986   */\n      tag_159\n        /* \"#utility.yul\":2980:2985   */\n      dup2\n        /* \"#utility.yul\":2939:2986   */\n      tag_102\n      jump\t// in\n    tag_159:\n        /* \"#utility.yul\":2934:2937   */\n      dup3\n        /* \"#utility.yul\":2927:2987   */\n      mstore\n        /* \"#utility.yul\":2834:2993   */\n      pop\n      pop\n      jump\t// out\n        /* \"#utility.yul\":2999:3533   */\n    tag_18:\n        /* \"#utility.yul\":3186:3190   */\n      0x00\n        /* \"#utility.yul\":3224:3226   */\n      0x60\n        /* \"#utility.yul\":3213:3222   */\n      dup3\n        /* \"#utility.yul\":3209:3227   */\n      add\n        /* \"#utility.yul\":3201:3227   */\n      swap1\n      pop\n        /* \"#utility.yul\":3237:3336   */\n      tag_161\n        /* \"#utility.yul\":3333:3334   */\n      0x00\n        /* \"#utility.yul\":3322:3331   */\n      dup4\n        /* \"#utility.yul\":3318:3335   */\n      add\n        /* \"#utility.yul\":3309:3315   */\n      dup7\n        /* \"#utility.yul\":3237:3336   */\n      tag_89\n      jump\t// in\n    tag_161:\n        /* \"#utility.yul\":3346:3426   */\n      tag_162\n        /* \"#utility.yul\":3422:3424   */\n      0x20\n        /* \"#utility.yul\":3411:3420   */\n      dup4\n        /* \"#utility.yul\":3407:3425   */\n      add\n        /* \"#utility.yul\":3398:3404   */\n      dup6\n        /* \"#utility.yul\":3346:3426   */\n      tag_92\n      jump\t// in\n    tag_162:\n        /* \"#utility.yul\":3436:3526   */\n      tag_163\n        /* \"#utility.yul\":3522:3524   */\n      0x40\n        /* \"#utility.yul\":3511:3520   */\n      dup4\n        /* \"#utility.yul\":3507:3525   */\n      add\n        /* \"#utility.yul\":3498:3504   */\n      dup5\n        /* \"#utility.yul\":3436:3526   */\n      tag_103\n      jump\t// in\n    tag_163:\n        /* \"#utility.yul\":2999:3533   */\n      swap5\n      swap4\n      pop\n      pop\n      pop\n      pop\n      jump\t// out\n        /* \"#utility.yul\":3539:3626   */\n    tag_104:\n        /* \"#utility.yul\":3586:3593   */\n      0x00\n        /* \"#utility.yul\":3615:3620   */\n      dup2\n        /* \"#utility.yul\":3604:3620   */\n      swap1\n      pop\n        /* \"#utility.yul\":3539:3626   */\n      swap2\n      swap1\n      pop\n      jump\t// out\n        /* \"#utility.yul\":3632:3794   */\n    tag_105:\n        /* \"#utility.yul\":3692:3701   */\n      0x00\n        /* \"#utility.yul\":3725:3788   */\n      tag_166\n        /* \"#utility.yul\":3743:3787   */\n      tag_167\n        /* \"#utility.yul\":3752:3786   */\n      tag_168\n        /* \"#utility.yul\":3780:3785   */\n      dup5\n        /* \"#utility.yul\":3752:3786   */\n      tag_104\n      jump\t// in\n    tag_168:\n        /* \"#utility.yul\":3743:3787   */\n      tag_95\n      jump\t// in\n    tag_167:\n        /* \"#utility.yul\":3725:3788   */\n      tag_94\n      jump\t// in\n    tag_166:\n        /* \"#utility.yul\":3712:3788   */\n      swap1\n      pop\n        /* \"#utility.yul\":3632:3794   */\n      swap2\n      swap1\n      pop\n      jump\t// out\n        /* \"#utility.yul\":3800:3959   */\n    tag_106:\n        /* \"#utility.yul\":3905:3952   */\n      tag_170\n        /* \"#utility.yul\":3946:3951   */\n      dup2\n        /* \"#utility.yul\":3905:3952   */\n      tag_105\n      jump\t// in\n    tag_170:\n        /* \"#utility.yul\":3900:3903   */\n      dup3\n        /* \"#utility.yul\":3893:3953   */\n      mstore\n        /* \"#utility.yul\":3800:3959   */\n      pop\n      pop\n      jump\t// out\n        /* \"#utility.yul\":3965:4499   */\n    tag_27:\n        /* \"#utility.yul\":4152:4156   */\n      0x00\n        /* \"#utility.yul\":4190:4192   */\n      0x60\n        /* \"#utility.yul\":4179:4188   */\n      dup3\n        /* \"#utility.yul\":4175:4193   */\n      add\n        /* \"#utility.yul\":4167:4193   */\n      swap1\n      pop\n        /* \"#utility.yul\":4203:4302   */\n      tag_172\n        /* \"#utility.yul\":4299:4300   */\n      0x00\n        /* \"#utility.yul\":4288:4297   */\n      dup4\n        /* \"#utility.yul\":4284:4301   */\n      add\n        /* \"#utility.yul\":4275:4281   */\n      dup7\n        /* \"#utility.yul\":4203:4302   */\n      tag_89\n      jump\t// in\n    tag_172:\n        /* \"#utility.yul\":4312:4392   */\n      tag_173\n        /* \"#utility.yul\":4388:4390   */\n      0x20\n        /* \"#utility.yul\":4377:4386   */\n      dup4\n        /* \"#utility.yul\":4373:4391   */\n      add\n        /* \"#utility.yul\":4364:4370   */\n      dup6\n        /* \"#utility.yul\":4312:4392   */\n      tag_92\n      jump\t// in\n    tag_173:\n        /* \"#utility.yul\":4402:4492   */\n      tag_174\n        /* \"#utility.yul\":4488:4490   */\n      0x40\n        /* \"#utility.yul\":4477:4486   */\n      dup4\n        /* \"#utility.yul\":4473:4491   */\n      add\n        /* \"#utility.yul\":4464:4470   */\n      dup5\n        /* \"#utility.yul\":4402:4492   */\n      tag_106\n      jump\t// in\n    tag_174:\n        /* \"#utility.yul\":3965:4499   */\n      swap5\n      swap4\n      pop\n      pop\n      pop\n      pop\n      jump\t// out\n        /* \"#utility.yul\":4505:4783   */\n    tag_35:\n        /* \"#utility.yul\":4626:4630   */\n      0x00\n        /* \"#utility.yul\":4664:4666   */\n      0x20\n        /* \"#utility.yul\":4653:4662   */\n      dup3\n        /* \"#utility.yul\":4649:4667   */\n      add\n        /* \"#utility.yul\":4641:4667   */\n      swap1\n      pop\n        /* \"#utility.yul\":4677:4776   */\n      tag_176\n        /* \"#utility.yul\":4773:4774   */\n      0x00\n        /* \"#utility.yul\":4762:4771   */\n      dup4\n        /* \"#utility.yul\":4758:4775   */\n      add\n        /* \"#utility.yul\":4749:4755   */\n      dup5\n        /* \"#utility.yul\":4677:4776   */\n      tag_89\n      jump\t// in\n    tag_176:\n        /* \"#utility.yul\":4505:4783   */\n      swap3\n      swap2\n      pop\n      pop\n      jump\t// out\n        /* \"#utility.yul\":4870:4987   */\n    tag_108:\n        /* \"#utility.yul\":4979:4980   */\n      0x00\n        /* \"#utility.yul\":4976:4977   */\n      dup1\n        /* \"#utility.yul\":4969:4981   */\n      revert\n        /* \"#utility.yul\":5116:5238   */\n    tag_110:\n        /* \"#utility.yul\":5189:5213   */\n      tag_181\n        /* \"#utility.yul\":5207:5212   */\n      dup2\n        /* \"#utility.yul\":5189:5213   */\n      tag_94\n      jump\t// in\n    tag_181:\n        /* \"#utility.yul\":5182:5187   */\n      dup2\n        /* \"#utility.yul\":5179:5214   */\n      eq\n        /* \"#utility.yul\":5169:5232   */\n      tag_182\n      jumpi\n        /* \"#utility.yul\":5228:5229   */\n      0x00\n        /* \"#utility.yul\":5225:5226   */\n      dup1\n        /* \"#utility.yul\":5218:5230   */\n      revert\n        /* \"#utility.yul\":5169:5232   */\n    tag_182:\n        /* \"#utility.yul\":5116:5238   */\n      pop\n      jump\t// out\n        /* \"#utility.yul\":5244:5387   */\n    tag_111:\n        /* \"#utility.yul\":5301:5306   */\n      0x00\n        /* \"#utility.yul\":5332:5338   */\n      dup2\n        /* \"#utility.yul\":5326:5339   */\n      mload\n        /* \"#utility.yul\":5317:5339   */\n      swap1\n      pop\n        /* \"#utility.yul\":5348:5381   */\n      tag_184\n        /* \"#utility.yul\":5375:5380   */\n      dup2\n        /* \"#utility.yul\":5348:5381   */\n      tag_110\n      jump\t// in\n    tag_184:\n        /* \"#utility.yul\":5244:5387   */\n      swap3\n      swap2\n      pop\n      pop\n      jump\t// out\n        /* \"#utility.yul\":5393:5744   */\n    tag_39:\n        /* \"#utility.yul\":5463:5469   */\n      0x00\n        /* \"#utility.yul\":5512:5514   */\n      0x20\n        /* \"#utility.yul\":5500:5509   */\n      dup3\n        /* \"#utility.yul\":5491:5498   */\n      dup5\n        /* \"#utility.yul\":5487:5510   */\n      sub\n        /* \"#utility.yul\":5483:5515   */\n      slt\n        /* \"#utility.yul\":5480:5599   */\n      iszero\n      tag_186\n      jumpi\n        /* \"#utility.yul\":5518:5597   */\n      tag_187\n      tag_108\n      jump\t// in\n    tag_187:\n        /* \"#utility.yul\":5480:5599   */\n    tag_186:\n        /* \"#utility.yul\":5638:5639   */\n      0x00\n        /* \"#utility.yul\":5663:5727   */\n      tag_188\n        /* \"#utility.yul\":5719:5726   */\n      dup5\n        /* \"#utility.yul\":5710:5716   */\n      dup3\n        /* \"#utility.yul\":5699:5708   */\n      dup6\n        /* \"#utility.yul\":5695:5717   */\n      add\n        /* \"#utility.yul\":5663:5727   */\n      tag_111\n      jump\t// in\n    tag_188:\n        /* \"#utility.yul\":5653:5727   */\n      swap2\n      pop\n        /* \"#utility.yul\":5609:5737   */\n      pop\n        /* \"#utility.yul\":5393:5744   */\n      swap3\n      swap2\n      pop\n      pop\n      jump\t// out\n        /* \"#utility.yul\":5750:5876   */\n    tag_112:\n        /* \"#utility.yul\":5845:5869   */\n      tag_190\n        /* \"#utility.yul\":5863:5868   */\n      dup2\n        /* \"#utility.yul\":5845:5869   */\n      tag_94\n      jump\t// in\n    tag_190:\n        /* \"#utility.yul\":5840:5843   */\n      dup3\n        /* \"#utility.yul\":5833:5870   */\n      mstore\n        /* \"#utility.yul\":5750:5876   */\n      pop\n      pop\n      jump\t// out\n        /* \"#utility.yul\":5882:6278   */\n    tag_41:\n        /* \"#utility.yul\":6031:6035   */\n      0x00\n        /* \"#utility.yul\":6069:6071   */\n      0x40\n        /* \"#utility.yul\":6058:6067   */\n      dup3\n        /* \"#utility.yul\":6054:6072   */\n      add\n        /* \"#utility.yul\":6046:6072   */\n      swap1\n      pop\n        /* \"#utility.yul\":6082:6181   */\n      tag_192\n        /* \"#utility.yul\":6178:6179   */\n      0x00\n        /* \"#utility.yul\":6167:6176   */\n      dup4\n        /* \"#utility.yul\":6163:6180   */\n      add\n        /* \"#utility.yul\":6154:6160   */\n      dup6\n        /* \"#utility.yul\":6082:6181   */\n      tag_89\n      jump\t// in\n    tag_192:\n        /* \"#utility.yul\":6191:6271   */\n      tag_193\n        /* \"#utility.yul\":6267:6269   */\n      0x20\n        /* \"#utility.yul\":6256:6265   */\n      dup4\n        /* \"#utility.yul\":6252:6270   */\n      add\n        /* \"#utility.yul\":6243:6249   */\n      dup5\n        /* \"#utility.yul\":6191:6271   */\n      tag_112\n      jump\t// in\n    tag_193:\n        /* \"#utility.yul\":5882:6278   */\n      swap4\n      swap3\n      pop\n      pop\n      pop\n      jump\t// out\n        /* \"#utility.yul\":6284:6406   */\n    tag_113:\n        /* \"#utility.yul\":6357:6381   */\n      tag_195\n        /* \"#utility.yul\":6375:6380   */\n      dup2\n        /* \"#utility.yul\":6357:6381   */\n      tag_91\n      jump\t// in\n    tag_195:\n        /* \"#utility.yul\":6350:6355   */\n      dup2\n        /* \"#utility.yul\":6347:6382   */\n      eq\n        /* \"#utility.yul\":6337:6400   */\n      tag_196\n      jumpi\n        /* \"#utility.yul\":6396:6397   */\n      0x00\n        /* \"#utility.yul\":6393:6394   */\n      dup1\n        /* \"#utility.yul\":6386:6398   */\n      revert\n        /* \"#utility.yul\":6337:6400   */\n    tag_196:\n        /* \"#utility.yul\":6284:6406   */\n      pop\n      jump\t// out\n        /* \"#utility.yul\":6412:6555   */\n    tag_114:\n        /* \"#utility.yul\":6469:6474   */\n      0x00\n        /* \"#utility.yul\":6500:6506   */\n      dup2\n        /* \"#utility.yul\":6494:6507   */\n      mload\n        /* \"#utility.yul\":6485:6507   */\n      swap1\n      pop\n        /* \"#utility.yul\":6516:6549   */\n      tag_198\n        /* \"#utility.yul\":6543:6548   */\n      dup2\n        /* \"#utility.yul\":6516:6549   */\n      tag_113\n      jump\t// in\n    tag_198:\n        /* \"#utility.yul\":6412:6555   */\n      swap3\n      swap2\n      pop\n      pop\n      jump\t// out\n        /* \"#utility.yul\":6561:6912   */\n    tag_45:\n        /* \"#utility.yul\":6631:6637   */\n      0x00\n        /* \"#utility.yul\":6680:6682   */\n      0x20\n        /* \"#utility.yul\":6668:6677   */\n      dup3\n        /* \"#utility.yul\":6659:6666   */\n      dup5\n        /* \"#utility.yul\":6655:6678   */\n      sub\n        /* \"#utility.yul\":6651:6683   */\n      slt\n        /* \"#utility.yul\":6648:6767   */\n      iszero\n      tag_200\n      jumpi\n        /* \"#utility.yul\":6686:6765   */\n      tag_201\n      tag_108\n      jump\t// in\n    tag_201:\n        /* \"#utility.yul\":6648:6767   */\n    tag_200:\n        /* \"#utility.yul\":6806:6807   */\n      0x00\n        /* \"#utility.yul\":6831:6895   */\n      tag_202\n        /* \"#utility.yul\":6887:6894   */\n      dup5\n        /* \"#utility.yul\":6878:6884   */\n      dup3\n        /* \"#utility.yul\":6867:6876   */\n      dup6\n        /* \"#utility.yul\":6863:6885   */\n      add\n        /* \"#utility.yul\":6831:6895   */\n      tag_114\n      jump\t// in\n    tag_202:\n        /* \"#utility.yul\":6821:6895   */\n      swap2\n      pop\n        /* \"#utility.yul\":6777:6905   */\n      pop\n        /* \"#utility.yul\":6561:6912   */\n      swap3\n      swap2\n      pop\n      pop\n      jump\t// out\n        /* \"#utility.yul\":6918:7098   */\n    tag_115:\n        /* \"#utility.yul\":6966:7043   */\n      0x4e487b7100000000000000000000000000000000000000000000000000000000\n        /* \"#utility.yul\":6963:6964   */\n      0x00\n        /* \"#utility.yul\":6956:7044   */\n      mstore\n        /* \"#utility.yul\":7063:7067   */\n      0x11\n        /* \"#utility.yul\":7060:7061   */\n      0x04\n        /* \"#utility.yul\":7053:7068   */\n      mstore\n        /* \"#utility.yul\":7087:7091   */\n      0x24\n        /* \"#utility.yul\":7084:7085   */\n      0x00\n        /* \"#utility.yul\":7077:7092   */\n      revert\n        /* \"#utility.yul\":7104:7452   */\n    tag_47:\n        /* \"#utility.yul\":7144:7151   */\n      0x00\n        /* \"#utility.yul\":7167:7187   */\n      tag_205\n        /* \"#utility.yul\":7185:7186   */\n      dup3\n        /* \"#utility.yul\":7167:7187   */\n      tag_94\n      jump\t// in\n    tag_205:\n        /* \"#utility.yul\":7162:7187   */\n      swap2\n      pop\n        /* \"#utility.yul\":7201:7221   */\n      tag_206\n        /* \"#utility.yul\":7219:7220   */\n      dup4\n        /* \"#utility.yul\":7201:7221   */\n      tag_94\n      jump\t// in\n    tag_206:\n        /* \"#utility.yul\":7196:7221   */\n      swap3\n      pop\n        /* \"#utility.yul\":7389:7390   */\n      dup2\n        /* \"#utility.yul\":7321:7387   */\n      0xffffffffffffffffffffffffffffffffffffffffffffffffffffffffffffffff\n        /* \"#utility.yul\":7317:7391   */\n      div\n        /* \"#utility.yul\":7314:7315   */\n      dup4\n        /* \"#utility.yul\":7311:7392   */\n      gt\n        /* \"#utility.yul\":7306:7307   */\n      dup3\n        /* \"#utility.yul\":7299:7308   */\n      iszero\n        /* \"#utility.yul\":7292:7309   */\n      iszero\n        /* \"#utility.yul\":7288:7393   */\n      and\n        /* \"#utility.yul\":7285:7416   */\n      iszero\n      tag_207\n      jumpi\n        /* \"#utility.yul\":7396:7414   */\n      tag_208\n      tag_115\n      jump\t// in\n    tag_208:\n        /* \"#utility.yul\":7285:7416   */\n    tag_207:\n        /* \"#utility.yul\":7444:7445   */\n      dup3\n        /* \"#utility.yul\":7441:7442   */\n      dup3\n        /* \"#utility.yul\":7437:7446   */\n      mul\n        /* \"#utility.yul\":7426:7446   */\n      swap1\n      pop\n        /* \"#utility.yul\":7104:7452   */\n      swap3\n      swap2\n      pop\n      pop\n      jump\t// out\n        /* \"#utility.yul\":7458:7854   */\n    tag_49:\n        /* \"#utility.yul\":7607:7611   */\n      0x00\n        /* \"#utility.yul\":7645:7647   */\n      0x40\n        /* \"#utility.yul\":7634:7643   */\n      dup3\n        /* \"#utility.yul\":7630:7648   */\n      add\n        /* \"#utility.yul\":7622:7648   */\n      swap1\n      pop\n        /* \"#utility.yul\":7658:7757   */\n      tag_210\n        /* \"#utility.yul\":7754:7755   */\n      0x00\n        /* \"#utility.yul\":7743:7752   */\n      dup4\n        /* \"#utility.yul\":7739:7756   */\n      add\n        /* \"#utility.yul\":7730:7736   */\n      dup6\n        /* \"#utility.yul\":7658:7757   */\n      tag_89\n      jump\t// in\n    tag_210:\n        /* \"#utility.yul\":7767:7847   */\n      tag_211\n        /* \"#utility.yul\":7843:7845   */\n      0x20\n        /* \"#utility.yul\":7832:7841   */\n      dup4\n        /* \"#utility.yul\":7828:7846   */\n      add\n        /* \"#utility.yul\":7819:7825   */\n      dup5\n        /* \"#utility.yul\":7767:7847   */\n      tag_92\n      jump\t// in\n    tag_211:\n        /* \"#utility.yul\":7458:7854   */\n      swap4\n      swap3\n      pop\n      pop\n      pop\n      jump\t// out\n        /* \"#utility.yul\":7860:8040   */\n    tag_55:\n        /* \"#utility.yul\":7908:7985   */\n      0x4e487b7100000000000000000000000000000000000000000000000000000000\n        /* \"#utility.yul\":7905:7906   */\n      0x00\n        /* \"#utility.yul\":7898:7986   */\n      mstore\n        /* \"#utility.yul\":8005:8009   */\n      0x01\n        /* \"#utility.yul\":8002:8003   */\n      0x04\n        /* \"#utility.yul\":7995:8010   */\n      mstore\n        /* \"#utility.yul\":8029:8033   */\n      0x24\n        /* \"#utility.yul\":8026:8027   */\n      0x00\n        /* \"#utility.yul\":8019:8034   */\n      revert\n        /* \"#utility.yul\":8046:8279   */\n    tag_57:\n        /* \"#utility.yul\":8085:8088   */\n      0x00\n        /* \"#utility.yul\":8108:8132   */\n      tag_214\n        /* \"#utility.yul\":8126:8131   */\n      dup3\n        /* \"#utility.yul\":8108:8132   */\n      tag_94\n      jump\t// in\n    tag_214:\n        /* \"#utility.yul\":8099:8132   */\n      swap2\n      pop\n        /* \"#utility.yul\":8154:8220   */\n      0xffffffffffffffffffffffffffffffffffffffffffffffffffffffffffffffff\n        /* \"#utility.yul\":8147:8152   */\n      dup3\n        /* \"#utility.yul\":8144:8221   */\n      sub\n        /* \"#utility.yul\":8141:8244   */\n      tag_215\n      jumpi\n        /* \"#utility.yul\":8224:8242   */\n      tag_216\n      tag_115\n      jump\t// in\n    tag_216:\n        /* \"#utility.yul\":8141:8244   */\n    tag_215:\n        /* \"#utility.yul\":8271:8272   */\n      0x01\n        /* \"#utility.yul\":8264:8269   */\n      dup3\n        /* \"#utility.yul\":8260:8273   */\n      add\n        /* \"#utility.yul\":8253:8273   */\n      swap1\n      pop\n        /* \"#utility.yul\":8046:8279   */\n      swap2\n      swap1\n      pop\n      jump\t// out\n        /* \"#utility.yul\":8285:8697   */\n    tag_69:\n        /* \"#utility.yul\":8442:8446   */\n      0x00\n        /* \"#utility.yul\":8480:8482   */\n      0x40\n        /* \"#utility.yul\":8469:8478   */\n      dup3\n        /* \"#utility.yul\":8465:8483   */\n      add\n        /* \"#utility.yul\":8457:8483   */\n      swap1\n      pop\n        /* \"#utility.yul\":8493:8592   */\n      tag_218\n        /* \"#utility.yul\":8589:8590   */\n      0x00\n        /* \"#utility.yul\":8578:8587   */\n      dup4\n        /* \"#utility.yul\":8574:8591   */\n      add\n        /* \"#utility.yul\":8565:8571   */\n      dup6\n        /* \"#utility.yul\":8493:8592   */\n      tag_89\n      jump\t// in\n    tag_218:\n        /* \"#utility.yul\":8602:8690   */\n      tag_219\n        /* \"#utility.yul\":8686:8688   */\n      0x20\n        /* \"#utility.yul\":8675:8684   */\n      dup4\n        /* \"#utility.yul\":8671:8689   */\n      add\n        /* \"#utility.yul\":8662:8668   */\n      dup5\n        /* \"#utility.yul\":8602:8690   */\n      tag_97\n      jump\t// in\n    tag_219:\n        /* \"#utility.yul\":8285:8697   */\n      swap4\n      swap3\n      pop\n      pop\n      pop\n      jump\t// out\n        /* \"#utility.yul\":8703:8788   */\n    tag_116:\n        /* \"#utility.yul\":8748:8755   */\n      0x00\n        /* \"#utility.yul\":8777:8782   */\n      dup2\n        /* \"#utility.yul\":8766:8782   */\n      swap1\n      pop\n        /* \"#utility.yul\":8703:8788   */\n      swap2\n      swap1\n      pop\n      jump\t// out\n        /* \"#utility.yul\":8794:8952   */\n    tag_117:\n        /* \"#utility.yul\":8852:8861   */\n      0x00\n        /* \"#utility.yul\":8885:8946   */\n      tag_222\n        /* \"#utility.yul\":8903:8945   */\n      tag_223\n        /* \"#utility.yul\":8912:8944   */\n      tag_224\n        /* \"#utility.yul\":8938:8943   */\n      dup5\n        /* \"#utility.yul\":8912:8944   */\n      tag_116\n      jump\t// in\n    tag_224:\n        /* \"#utility.yul\":8903:8945   */\n      tag_95\n      jump\t// in\n    tag_223:\n        /* \"#utility.yul\":8885:8946   */\n      tag_94\n      jump\t// in\n    tag_222:\n        /* \"#utility.yul\":8872:8946   */\n      swap1\n      pop\n        /* \"#utility.yul\":8794:8952   */\n      swap2\n      swap1\n      pop\n      jump\t// out\n        /* \"#utility.yul\":8958:9113   */\n    tag_118:\n        /* \"#utility.yul\":9061:9106   */\n      tag_226\n        /* \"#utility.yul\":9100:9105   */\n      dup2\n        /* \"#utility.yul\":9061:9106   */\n      tag_117\n      jump\t// in\n    tag_226:\n        /* \"#utility.yul\":9056:9059   */\n      dup3\n        /* \"#utility.yul\":9049:9107   */\n      mstore\n        /* \"#utility.yul\":8958:9113   */\n      pop\n      pop\n      jump\t// out\n        /* \"#utility.yul\":9119:9531   */\n    tag_76:\n        /* \"#utility.yul\":9276:9280   */\n      0x00\n        /* \"#utility.yul\":9314:9316   */\n      0x40\n        /* \"#utility.yul\":9303:9312   */\n      dup3\n        /* \"#utility.yul\":9299:9317   */\n      add\n        /* \"#utility.yul\":9291:9317   */\n      swap1\n      pop\n        /* \"#utility.yul\":9327:9426   */\n      tag_228\n        /* \"#utility.yul\":9423:9424   */\n      0x00\n        /* \"#utility.yul\":9412:9421   */\n      dup4\n        /* \"#utility.yul\":9408:9425   */\n      add\n        /* \"#utility.yul\":9399:9405   */\n      dup6\n        /* \"#utility.yul\":9327:9426   */\n      tag_89\n      jump\t// in\n    tag_228:\n        /* \"#utility.yul\":9436:9524   */\n      tag_229\n        /* \"#utility.yul\":9520:9522   */\n      0x20\n        /* \"#utility.yul\":9509:9518   */\n      dup4\n        /* \"#utility.yul\":9505:9523   */\n      add\n        /* \"#utility.yul\":9496:9502   */\n      dup5\n        /* \"#utility.yul\":9436:9524   */\n      tag_118\n      jump\t// in\n    tag_229:\n        /* \"#utility.yul\":9119:9531   */\n      swap4\n      swap3\n      pop\n      pop\n      pop\n      jump\t// out\n        /* \"#utility.yul\":9537:9622   */\n    tag_119:\n        /* \"#utility.yul\":9582:9589   */\n      0x00\n        /* \"#utility.yul\":9611:9616   */\n      dup2\n        /* \"#utility.yul\":9600:9616   */\n      swap1\n      pop\n        /* \"#utility.yul\":9537:9622   */\n      swap2\n      swap1\n      pop\n      jump\t// out\n        /* \"#utility.yul\":9628:9786   */\n    tag_120:\n        /* \"#utility.yul\":9686:9695   */\n      0x00\n        /* \"#utility.yul\":9719:9780   */\n      tag_232\n        /* \"#utility.yul\":9737:9779   */\n      tag_233\n        /* \"#utility.yul\":9746:9778   */\n      tag_234\n        /* \"#utility.yul\":9772:9777   */\n      dup5\n        /* \"#utility.yul\":9746:9778   */\n      tag_119\n      jump\t// in\n    tag_234:\n        /* \"#utility.yul\":9737:9779   */\n      tag_95\n      jump\t// in\n    tag_233:\n        /* \"#utility.yul\":9719:9780   */\n      tag_94\n      jump\t// in\n    tag_232:\n        /* \"#utility.yul\":9706:9780   */\n      swap1\n      pop\n        /* \"#utility.yul\":9628:9786   */\n      swap2\n      swap1\n      pop\n      jump\t// out\n        /* \"#utility.yul\":9792:9947   */\n    tag_121:\n        /* \"#utility.yul\":9895:9940   */\n      tag_236\n        /* \"#utility.yul\":9934:9939   */\n      dup2\n        /* \"#utility.yul\":9895:9940   */\n      tag_120\n      jump\t// in\n    tag_236:\n        /* \"#utility.yul\":9890:9893   */\n      dup3\n        /* \"#utility.yul\":9883:9941   */\n      mstore\n        /* \"#utility.yul\":9792:9947   */\n      pop\n      pop\n      jump\t// out\n        /* \"#utility.yul\":9953:10365   */\n    tag_83:\n        /* \"#utility.yul\":10110:10114   */\n      0x00\n        /* \"#utility.yul\":10148:10150   */\n      0x40\n        /* \"#utility.yul\":10137:10146   */\n      dup3\n        /* \"#utility.yul\":10133:10151   */\n      add\n        /* \"#utility.yul\":10125:10151   */\n      swap1\n      pop\n        /* \"#utility.yul\":10161:10260   */\n      tag_238\n        /* \"#utility.yul\":10257:10258   */\n      0x00\n        /* \"#utility.yul\":10246:10255   */\n      dup4\n        /* \"#utility.yul\":10242:10259   */\n      add\n        /* \"#utility.yul\":10233:10239   */\n      dup6\n        /* \"#utility.yul\":10161:10260   */\n      tag_89\n      jump\t// in\n    tag_238:\n        /* \"#utility.yul\":10270:10358   */\n      tag_239\n        /* \"#utility.yul\":10354:10356   */\n      0x20\n        /* \"#utility.yul\":10343:10352   */\n      dup4\n        /* \"#utility.yul\":10339:10357   */\n      add\n        /* \"#utility.yul\":10330:10336   */\n      dup5\n        /* \"#utility.yul\":10270:10358   */\n      tag_121\n      jump\t// in\n    tag_239:\n        /* \"#utility.yul\":9953:10365   */\n      swap4\n      swap3\n      pop\n      pop\n      pop\n      jump\t// out\n\n    auxdata: 0xa264697066735822122081f1b4585b5bdcd90a07da3ce243b09a5c4882d062cc0500ee0dbcbea7b3ced164736f6c634300080e0033\n}\n",
				"bytecode": {
					"linkReferences": {
						"solidity-study-demo/secondPart/IterableMapping.sol": {
							"IterableMapping": [
								{
									"length": 20,
									"start": 94
								},
								{
									"length": 20,
									"start": 205
								},
								{
									"length": 20,
									"start": 317
								},
								{
									"length": 20,
									"start": 429
								},
								{
									"length": 20,
									"start": 541
								},
								{
									"length": 20,
									"start": 657
								},
								{
									"length": 20,
									"start": 788
								},
								{
									"length": 20,
									"start": 928
								},
								{
									"length": 20,
									"start": 1088
								},
								{
									"length": 20,
									"start": 1199
								},
								{
									"length": 20,
									"start": 1360
								},
								{
									"length": 20,
									"start": 1546
								},
								{
									"length": 20,
									"start": 1732
								}
							]
						}
					},
					"object": "608060405234801561001057600080fd5b50610cc2806100206000396000f3fe608060405234801561001057600080fd5b506004361061002b5760003560e01c8063d230a0d514610030575b600080fd5b61003861003a565b005b600073__$1becc360afbdffd5d5a80805c6f5227d05$__63bc2b405c90916000806040518463ffffffff1660e01b8152600401610079939291906107db565b60006040518083038186803b15801561009157600080fd5b505af41580156100a5573d6000803e3d6000fd5b50505050600073__$1becc360afbdffd5d5a80805c6f5227d05$__63bc2b405c9091600160646040518463ffffffff1660e01b81526004016100e99392919061084d565b60006040518083038186803b15801561010157600080fd5b505af4158015610115573d6000803e3d6000fd5b50505050600073__$1becc360afbdffd5d5a80805c6f5227d05$__63bc2b405c9091600260c86040518463ffffffff1660e01b8152600401610159939291906108bf565b60006040518083038186803b15801561017157600080fd5b505af4158015610185573d6000803e3d6000fd5b50505050600073__$1becc360afbdffd5d5a80805c6f5227d05$__63bc2b405c9091600260c86040518463ffffffff1660e01b81526004016101c9939291906108bf565b60006040518083038186803b1580156101e157600080fd5b505af41580156101f5573d6000803e3d6000fd5b50505050600073__$1becc360afbdffd5d5a80805c6f5227d05$__63bc2b405c9091600361012c6040518463ffffffff1660e01b815260040161023a93929190610931565b60006040518083038186803b15801561025257600080fd5b505af4158015610266573d6000803e3d6000fd5b5050505060005b600073__$1becc360afbdffd5d5a80805c6f5227d05$__63deb3d89690916040518263ffffffff1660e01b81526004016102a79190610968565b602060405180830381865af41580156102c4573d6000803e3d6000fd5b505050506040513d601f19601f820116820180604052508101906102e891906109b4565b81101561041b5760008073__$1becc360afbdffd5d5a80805c6f5227d05$__63d1aa9e7e9091846040518363ffffffff1660e01b815260040161032c9291906109f0565b602060405180830381865af4158015610349573d6000803e3d6000fd5b505050506040513d601f19601f8201168201806040525081019061036d9190610a45565b905060648261037c9190610aa1565b600073__$1becc360afbdffd5d5a80805c6f5227d05$__63732a2ccf9091846040518363ffffffff1660e01b81526004016103b8929190610afb565b602060405180830381865af41580156103d5573d6000803e3d6000fd5b505050506040513d601f19601f820116820180604052508101906103f991906109b4565b1461040757610406610b24565b5b50808061041390610b53565b91505061026d565b50600073__$1becc360afbdffd5d5a80805c6f5227d05$__634c60db9c909160016040518363ffffffff1660e01b8152600401610459929190610afb565b60006040518083038186803b15801561047157600080fd5b505af4158015610485573d6000803e3d6000fd5b505050506003600073__$1becc360afbdffd5d5a80805c6f5227d05$__63deb3d89690916040518263ffffffff1660e01b81526004016104c59190610968565b602060405180830381865af41580156104e2573d6000803e3d6000fd5b505050506040513d601f19601f8201168201806040525081019061050691906109b4565b1461051457610513610b24565b5b600073ffffffffffffffffffffffffffffffffffffffff16600073__$1becc360afbdffd5d5a80805c6f5227d05$__63d1aa9e7e909160006040518363ffffffff1660e01b8152600401610569929190610b9b565b602060405180830381865af4158015610586573d6000803e3d6000fd5b505050506040513d601f19601f820116820180604052508101906105aa9190610a45565b73ffffffffffffffffffffffffffffffffffffffff16146105ce576105cd610b24565b5b600373ffffffffffffffffffffffffffffffffffffffff16600073__$1becc360afbdffd5d5a80805c6f5227d05$__63d1aa9e7e909160016040518363ffffffff1660e01b8152600401610623929190610bff565b602060405180830381865af4158015610640573d6000803e3d6000fd5b505050506040513d601f19601f820116820180604052508101906106649190610a45565b73ffffffffffffffffffffffffffffffffffffffff161461068857610687610b24565b5b600273ffffffffffffffffffffffffffffffffffffffff16600073__$1becc360afbdffd5d5a80805c6f5227d05$__63d1aa9e7e909160026040518363ffffffff1660e01b81526004016106dd929190610c63565b602060405180830381865af41580156106fa573d6000803e3d6000fd5b505050506040513d601f19601f8201168201806040525081019061071e9190610a45565b73ffffffffffffffffffffffffffffffffffffffff161461074257610741610b24565b5b565b8082525050565b600073ffffffffffffffffffffffffffffffffffffffff82169050919050565b60006107768261074b565b9050919050565b6107868161076b565b82525050565b6000819050919050565b6000819050919050565b6000819050919050565b60006107c56107c06107bb8461078c565b6107a0565b610796565b9050919050565b6107d5816107aa565b82525050565b60006060820190506107f06000830186610744565b6107fd602083018561077d565b61080a60408301846107cc565b949350505050565b6000819050919050565b600061083761083261082d84610812565b6107a0565b610796565b9050919050565b6108478161081c565b82525050565b60006060820190506108626000830186610744565b61086f602083018561077d565b61087c604083018461083e565b949350505050565b6000819050919050565b60006108a96108a461089f84610884565b6107a0565b610796565b9050919050565b6108b98161088e565b82525050565b60006060820190506108d46000830186610744565b6108e1602083018561077d565b6108ee60408301846108b0565b949350505050565b6000819050919050565b600061091b610916610911846108f6565b6107a0565b610796565b9050919050565b61092b81610900565b82525050565b60006060820190506109466000830186610744565b610953602083018561077d565b6109606040830184610922565b949350505050565b600060208201905061097d6000830184610744565b92915050565b600080fd5b61099181610796565b811461099c57600080fd5b50565b6000815190506109ae81610988565b92915050565b6000602082840312156109ca576109c9610983565b5b60006109d88482850161099f565b91505092915050565b6109ea81610796565b82525050565b6000604082019050610a056000830185610744565b610a1260208301846109e1565b9392505050565b610a228161076b565b8114610a2d57600080fd5b50565b600081519050610a3f81610a19565b92915050565b600060208284031215610a5b57610a5a610983565b5b6000610a6984828501610a30565b91505092915050565b7f4e487b7100000000000000000000000000000000000000000000000000000000600052601160045260246000fd5b6000610aac82610796565b9150610ab783610796565b9250817fffffffffffffffffffffffffffffffffffffffffffffffffffffffffffffffff0483118215151615610af057610aef610a72565b5b828202905092915050565b6000604082019050610b106000830185610744565b610b1d602083018461077d565b9392505050565b7f4e487b7100000000000000000000000000000000000000000000000000000000600052600160045260246000fd5b6000610b5e82610796565b91507fffffffffffffffffffffffffffffffffffffffffffffffffffffffffffffffff8203610b9057610b8f610a72565b5b600182019050919050565b6000604082019050610bb06000830185610744565b610bbd60208301846107cc565b9392505050565b6000819050919050565b6000610be9610be4610bdf84610bc4565b6107a0565b610796565b9050919050565b610bf981610bce565b82525050565b6000604082019050610c146000830185610744565b610c216020830184610bf0565b9392505050565b6000819050919050565b6000610c4d610c48610c4384610c28565b6107a0565b610796565b9050919050565b610c5d81610c32565b82525050565b6000604082019050610c786000830185610744565b610c856020830184610c54565b939250505056fea264697066735822122081f1b4585b5bdcd90a07da3ce243b09a5c4882d062cc0500ee0dbcbea7b3ced164736f6c634300080e0033",
					"opcodes": "PUSH1 0x80 PUSH1 0x40 MSTORE CALLVALUE DUP1 ISZERO PUSH2 0x10 JUMPI PUSH1 0x0 DUP1 REVERT JUMPDEST POP PUSH2 0xCC2 DUP1 PUSH2 0x20 PUSH1 0x0 CODECOPY PUSH1 0x0 RETURN INVALID PUSH1 0x80 PUSH1 0x40 MSTORE CALLVALUE DUP1 ISZERO PUSH2 0x10 JUMPI PUSH1 0x0 DUP1 REVERT JUMPDEST POP PUSH1 0x4 CALLDATASIZE LT PUSH2 0x2B JUMPI PUSH1 0x0 CALLDATALOAD PUSH1 0xE0 SHR DUP1 PUSH4 0xD230A0D5 EQ PUSH2 0x30 JUMPI JUMPDEST PUSH1 0x0 DUP1 REVERT JUMPDEST PUSH2 0x38 PUSH2 0x3A JUMP JUMPDEST STOP JUMPDEST PUSH1 0x0 PUSH20 0x0 PUSH4 0xBC2B405C SWAP1 SWAP2 PUSH1 0x0 DUP1 PUSH1 0x40 MLOAD DUP5 PUSH4 0xFFFFFFFF AND PUSH1 0xE0 SHL DUP2 MSTORE PUSH1 0x4 ADD PUSH2 0x79 SWAP4 SWAP3 SWAP2 SWAP1 PUSH2 0x7DB JUMP JUMPDEST PUSH1 0x0 PUSH1 0x40 MLOAD DUP1 DUP4 SUB DUP2 DUP7 DUP1 EXTCODESIZE ISZERO DUP1 ISZERO PUSH2 0x91 JUMPI PUSH1 0x0 DUP1 REVERT JUMPDEST POP GAS DELEGATECALL ISZERO DUP1 ISZERO PUSH2 0xA5 JUMPI RETURNDATASIZE PUSH1 0x0 DUP1 RETURNDATACOPY RETURNDATASIZE PUSH1 0x0 REVERT JUMPDEST POP POP POP POP PUSH1 0x0 PUSH20 0x0 PUSH4 0xBC2B405C SWAP1 SWAP2 PUSH1 0x1 PUSH1 0x64 PUSH1 0x40 MLOAD DUP5 PUSH4 0xFFFFFFFF AND PUSH1 0xE0 SHL DUP2 MSTORE PUSH1 0x4 ADD PUSH2 0xE9 SWAP4 SWAP3 SWAP2 SWAP1 PUSH2 0x84D JUMP JUMPDEST PUSH1 0x0 PUSH1 0x40 MLOAD DUP1 DUP4 SUB DUP2 DUP7 DUP1 EXTCODESIZE ISZERO DUP1 ISZERO PUSH2 0x101 JUMPI PUSH1 0x0 DUP1 REVERT JUMPDEST POP GAS DELEGATECALL ISZERO DUP1 ISZERO PUSH2 0x115 JUMPI RETURNDATASIZE PUSH1 0x0 DUP1 RETURNDATACOPY RETURNDATASIZE PUSH1 0x0 REVERT JUMPDEST POP POP POP POP PUSH1 0x0 PUSH20 0x0 PUSH4 0xBC2B405C SWAP1 SWAP2 PUSH1 0x2 PUSH1 0xC8 PUSH1 0x40 MLOAD DUP5 PUSH4 0xFFFFFFFF AND PUSH1 0xE0 SHL DUP2 MSTORE PUSH1 0x4 ADD PUSH2 0x159 SWAP4 SWAP3 SWAP2 SWAP1 PUSH2 0x8BF JUMP JUMPDEST PUSH1 0x0 PUSH1 0x40 MLOAD DUP1 DUP4 SUB DUP2 DUP7 DUP1 EXTCODESIZE ISZERO DUP1 ISZERO PUSH2 0x171 JUMPI PUSH1 0x0 DUP1 REVERT JUMPDEST POP GAS DELEGATECALL ISZERO DUP1 ISZERO PUSH2 0x185 JUMPI RETURNDATASIZE PUSH1 0x0 DUP1 RETURNDATACOPY RETURNDATASIZE PUSH1 0x0 REVERT JUMPDEST POP POP POP POP PUSH1 0x0 PUSH20 0x0 PUSH4 0xBC2B405C SWAP1 SWAP2 PUSH1 0x2 PUSH1 0xC8 PUSH1 0x40 MLOAD DUP5 PUSH4 0xFFFFFFFF AND PUSH1 0xE0 SHL DUP2 MSTORE PUSH1 0x4 ADD PUSH2 0x1C9 SWAP4 SWAP3 SWAP2 SWAP1 PUSH2 0x8BF JUMP JUMPDEST PUSH1 0x0 PUSH1 0x40 MLOAD DUP1 DUP4 SUB DUP2 DUP7 DUP1 EXTCODESIZE ISZERO DUP1 ISZERO PUSH2 0x1E1 JUMPI PUSH1 0x0 DUP1 REVERT JUMPDEST POP GAS DELEGATECALL ISZERO DUP1 ISZERO PUSH2 0x1F5 JUMPI RETURNDATASIZE PUSH1 0x0 DUP1 RETURNDATACOPY RETURNDATASIZE PUSH1 0x0 REVERT JUMPDEST POP POP POP POP PUSH1 0x0 PUSH20 0x0 PUSH4 0xBC2B405C SWAP1 SWAP2 PUSH1 0x3 PUSH2 0x12C PUSH1 0x40 MLOAD DUP5 PUSH4 0xFFFFFFFF AND PUSH1 0xE0 SHL DUP2 MSTORE PUSH1 0x4 ADD PUSH2 0x23A SWAP4 SWAP3 SWAP2 SWAP1 PUSH2 0x931 JUMP JUMPDEST PUSH1 0x0 PUSH1 0x40 MLOAD DUP1 DUP4 SUB DUP2 DUP7 DUP1 EXTCODESIZE ISZERO DUP1 ISZERO PUSH2 0x252 JUMPI PUSH1 0x0 DUP1 REVERT JUMPDEST POP GAS DELEGATECALL ISZERO DUP1 ISZERO PUSH2 0x266 JUMPI RETURNDATASIZE PUSH1 0x0 DUP1 RETURNDATACOPY RETURNDATASIZE PUSH1 0x0 REVERT JUMPDEST POP POP POP POP PUSH1 0x0 JUMPDEST PUSH1 0x0 PUSH20 0x0 PUSH4 0xDEB3D896 SWAP1 SWAP2 PUSH1 0x40 MLOAD DUP3 PUSH4 0xFFFFFFFF AND PUSH1 0xE0 SHL DUP2 MSTORE PUSH1 0x4 ADD PUSH2 0x2A7 SWAP2 SWAP1 PUSH2 0x968 JUMP JUMPDEST PUSH1 0x20 PUSH1 0x40 MLOAD DUP1 DUP4 SUB DUP2 DUP7 GAS DELEGATECALL ISZERO DUP1 ISZERO PUSH2 0x2C4 JUMPI RETURNDATASIZE PUSH1 0x0 DUP1 RETURNDATACOPY RETURNDATASIZE PUSH1 0x0 REVERT JUMPDEST POP POP POP POP PUSH1 0x40 MLOAD RETURNDATASIZE PUSH1 0x1F NOT PUSH1 0x1F DUP3 ADD AND DUP3 ADD DUP1 PUSH1 0x40 MSTORE POP DUP2 ADD SWAP1 PUSH2 0x2E8 SWAP2 SWAP1 PUSH2 0x9B4 JUMP JUMPDEST DUP2 LT ISZERO PUSH2 0x41B JUMPI PUSH1 0x0 DUP1 PUSH20 0x0 PUSH4 0xD1AA9E7E SWAP1 SWAP2 DUP5 PUSH1 0x40 MLOAD DUP4 PUSH4 0xFFFFFFFF AND PUSH1 0xE0 SHL DUP2 MSTORE PUSH1 0x4 ADD PUSH2 0x32C SWAP3 SWAP2 SWAP1 PUSH2 0x9F0 JUMP JUMPDEST PUSH1 0x20 PUSH1 0x40 MLOAD DUP1 DUP4 SUB DUP2 DUP7 GAS DELEGATECALL ISZERO DUP1 ISZERO PUSH2 0x349 JUMPI RETURNDATASIZE PUSH1 0x0 DUP1 RETURNDATACOPY RETURNDATASIZE PUSH1 0x0 REVERT JUMPDEST POP POP POP POP PUSH1 0x40 MLOAD RETURNDATASIZE PUSH1 0x1F NOT PUSH1 0x1F DUP3 ADD AND DUP3 ADD DUP1 PUSH1 0x40 MSTORE POP DUP2 ADD SWAP1 PUSH2 0x36D SWAP2 SWAP1 PUSH2 0xA45 JUMP JUMPDEST SWAP1 POP PUSH1 0x64 DUP3 PUSH2 0x37C SWAP2 SWAP1 PUSH2 0xAA1 JUMP JUMPDEST PUSH1 0x0 PUSH20 0x0 PUSH4 0x732A2CCF SWAP1 SWAP2 DUP5 PUSH1 0x40 MLOAD DUP4 PUSH4 0xFFFFFFFF AND PUSH1 0xE0 SHL DUP2 MSTORE PUSH1 0x4 ADD PUSH2 0x3B8 SWAP3 SWAP2 SWAP1 PUSH2 0xAFB JUMP JUMPDEST PUSH1 0x20 PUSH1 0x40 MLOAD DUP1 DUP4 SUB DUP2 DUP7 GAS DELEGATECALL ISZERO DUP1 ISZERO PUSH2 0x3D5 JUMPI RETURNDATASIZE PUSH1 0x0 DUP1 RETURNDATACOPY RETURNDATASIZE PUSH1 0x0 REVERT JUMPDEST POP POP POP POP PUSH1 0x40 MLOAD RETURNDATASIZE PUSH1 0x1F NOT PUSH1 0x1F DUP3 ADD AND DUP3 ADD DUP1 PUSH1 0x40 MSTORE POP DUP2 ADD SWAP1 PUSH2 0x3F9 SWAP2 SWAP1 PUSH2 0x9B4 JUMP JUMPDEST EQ PUSH2 0x407 JUMPI PUSH2 0x406 PUSH2 0xB24 JUMP JUMPDEST JUMPDEST POP DUP1 DUP1 PUSH2 0x413 SWAP1 PUSH2 0xB53 JUMP JUMPDEST SWAP2 POP POP PUSH2 0x26D JUMP JUMPDEST POP PUSH1 0x0 PUSH20 0x0 PUSH4 0x4C60DB9C SWAP1 SWAP2 PUSH1 0x1 PUSH1 0x40 MLOAD DUP4 PUSH4 0xFFFFFFFF AND PUSH1 0xE0 SHL DUP2 MSTORE PUSH1 0x4 ADD PUSH2 0x459 SWAP3 SWAP2 SWAP1 PUSH2 0xAFB JUMP JUMPDEST PUSH1 0x0 PUSH1 0x40 MLOAD DUP1 DUP4 SUB DUP2 DUP7 DUP1 EXTCODESIZE ISZERO DUP1 ISZERO PUSH2 0x471 JUMPI PUSH1 0x0 DUP1 REVERT JUMPDEST POP GAS DELEGATECALL ISZERO DUP1 ISZERO PUSH2 0x485 JUMPI RETURNDATASIZE PUSH1 0x0 DUP1 RETURNDATACOPY RETURNDATASIZE PUSH1 0x0 REVERT JUMPDEST POP POP POP POP PUSH1 0x3 PUSH1 0x0 PUSH20 0x0 PUSH4 0xDEB3D896 SWAP1 SWAP2 PUSH1 0x40 MLOAD DUP3 PUSH4 0xFFFFFFFF AND PUSH1 0xE0 SHL DUP2 MSTORE PUSH1 0x4 ADD PUSH2 0x4C5 SWAP2 SWAP1 PUSH2 0x968 JUMP JUMPDEST PUSH1 0x20 PUSH1 0x40 MLOAD DUP1 DUP4 SUB DUP2 DUP7 GAS DELEGATECALL ISZERO DUP1 ISZERO PUSH2 0x4E2 JUMPI RETURNDATASIZE PUSH1 0x0 DUP1 RETURNDATACOPY RETURNDATASIZE PUSH1 0x0 REVERT JUMPDEST POP POP POP POP PUSH1 0x40 MLOAD RETURNDATASIZE PUSH1 0x1F NOT PUSH1 0x1F DUP3 ADD AND DUP3 ADD DUP1 PUSH1 0x40 MSTORE POP DUP2 ADD SWAP1 PUSH2 0x506 SWAP2 SWAP1 PUSH2 0x9B4 JUMP JUMPDEST EQ PUSH2 0x514 JUMPI PUSH2 0x513 PUSH2 0xB24 JUMP JUMPDEST JUMPDEST PUSH1 0x0 PUSH20 0xFFFFFFFFFFFFFFFFFFFFFFFFFFFFFFFFFFFFFFFF AND PUSH1 0x0 PUSH20 0x0 PUSH4 0xD1AA9E7E SWAP1 SWAP2 PUSH1 0x0 PUSH1 0x40 MLOAD DUP4 PUSH4 0xFFFFFFFF AND PUSH1 0xE0 SHL DUP2 MSTORE PUSH1 0x4 ADD PUSH2 0x569 SWAP3 SWAP2 SWAP1 PUSH2 0xB9B JUMP JUMPDEST PUSH1 0x20 PUSH1 0x40 MLOAD DUP1 DUP4 SUB DUP2 DUP7 GAS DELEGATECALL ISZERO DUP1 ISZERO PUSH2 0x586 JUMPI RETURNDATASIZE PUSH1 0x0 DUP1 RETURNDATACOPY RETURNDATASIZE PUSH1 0x0 REVERT JUMPDEST POP POP POP POP PUSH1 0x40 MLOAD RETURNDATASIZE PUSH1 0x1F NOT PUSH1 0x1F DUP3 ADD AND DUP3 ADD DUP1 PUSH1 0x40 MSTORE POP DUP2 ADD SWAP1 PUSH2 0x5AA SWAP2 SWAP1 PUSH2 0xA45 JUMP JUMPDEST PUSH20 0xFFFFFFFFFFFFFFFFFFFFFFFFFFFFFFFFFFFFFFFF AND EQ PUSH2 0x5CE JUMPI PUSH2 0x5CD PUSH2 0xB24 JUMP JUMPDEST JUMPDEST PUSH1 0x3 PUSH20 0xFFFFFFFFFFFFFFFFFFFFFFFFFFFFFFFFFFFFFFFF AND PUSH1 0x0 PUSH20 0x0 PUSH4 0xD1AA9E7E SWAP1 SWAP2 PUSH1 0x1 PUSH1 0x40 MLOAD DUP4 PUSH4 0xFFFFFFFF AND PUSH1 0xE0 SHL DUP2 MSTORE PUSH1 0x4 ADD PUSH2 0x623 SWAP3 SWAP2 SWAP1 PUSH2 0xBFF JUMP JUMPDEST PUSH1 0x20 PUSH1 0x40 MLOAD DUP1 DUP4 SUB DUP2 DUP7 GAS DELEGATECALL ISZERO DUP1 ISZERO PUSH2 0x640 JUMPI RETURNDATASIZE PUSH1 0x0 DUP1 RETURNDATACOPY RETURNDATASIZE PUSH1 0x0 REVERT JUMPDEST POP POP POP POP PUSH1 0x40 MLOAD RETURNDATASIZE PUSH1 0x1F NOT PUSH1 0x1F DUP3 ADD AND DUP3 ADD DUP1 PUSH1 0x40 MSTORE POP DUP2 ADD SWAP1 PUSH2 0x664 SWAP2 SWAP1 PUSH2 0xA45 JUMP JUMPDEST PUSH20 0xFFFFFFFFFFFFFFFFFFFFFFFFFFFFFFFFFFFFFFFF AND EQ PUSH2 0x688 JUMPI PUSH2 0x687 PUSH2 0xB24 JUMP JUMPDEST JUMPDEST PUSH1 0x2 PUSH20 0xFFFFFFFFFFFFFFFFFFFFFFFFFFFFFFFFFFFFFFFF AND PUSH1 0x0 PUSH20 0x0 PUSH4 0xD1AA9E7E SWAP1 SWAP2 PUSH1 0x2 PUSH1 0x40 MLOAD DUP4 PUSH4 0xFFFFFFFF AND PUSH1 0xE0 SHL DUP2 MSTORE PUSH1 0x4 ADD PUSH2 0x6DD SWAP3 SWAP2 SWAP1 PUSH2 0xC63 JUMP JUMPDEST PUSH1 0x20 PUSH1 0x40 MLOAD DUP1 DUP4 SUB DUP2 DUP7 GAS DELEGATECALL ISZERO DUP1 ISZERO PUSH2 0x6FA JUMPI RETURNDATASIZE PUSH1 0x0 DUP1 RETURNDATACOPY RETURNDATASIZE PUSH1 0x0 REVERT JUMPDEST POP POP POP POP PUSH1 0x40 MLOAD RETURNDATASIZE PUSH1 0x1F NOT PUSH1 0x1F DUP3 ADD AND DUP3 ADD DUP1 PUSH1 0x40 MSTORE POP DUP2 ADD SWAP1 PUSH2 0x71E SWAP2 SWAP1 PUSH2 0xA45 JUMP JUMPDEST PUSH20 0xFFFFFFFFFFFFFFFFFFFFFFFFFFFFFFFFFFFFFFFF AND EQ PUSH2 0x742 JUMPI PUSH2 0x741 PUSH2 0xB24 JUMP JUMPDEST JUMPDEST JUMP JUMPDEST DUP1 DUP3 MSTORE POP POP JUMP JUMPDEST PUSH1 0x0 PUSH20 0xFFFFFFFFFFFFFFFFFFFFFFFFFFFFFFFFFFFFFFFF DUP3 AND SWAP1 POP SWAP2 SWAP1 POP JUMP JUMPDEST PUSH1 0x0 PUSH2 0x776 DUP3 PUSH2 0x74B JUMP JUMPDEST SWAP1 POP SWAP2 SWAP1 POP JUMP JUMPDEST PUSH2 0x786 DUP2 PUSH2 0x76B JUMP JUMPDEST DUP3 MSTORE POP POP JUMP JUMPDEST PUSH1 0x0 DUP2 SWAP1 POP SWAP2 SWAP1 POP JUMP JUMPDEST PUSH1 0x0 DUP2 SWAP1 POP SWAP2 SWAP1 POP JUMP JUMPDEST PUSH1 0x0 DUP2 SWAP1 POP SWAP2 SWAP1 POP JUMP JUMPDEST PUSH1 0x0 PUSH2 0x7C5 PUSH2 0x7C0 PUSH2 0x7BB DUP5 PUSH2 0x78C JUMP JUMPDEST PUSH2 0x7A0 JUMP JUMPDEST PUSH2 0x796 JUMP JUMPDEST SWAP1 POP SWAP2 SWAP1 POP JUMP JUMPDEST PUSH2 0x7D5 DUP2 PUSH2 0x7AA JUMP JUMPDEST DUP3 MSTORE POP POP JUMP JUMPDEST PUSH1 0x0 PUSH1 0x60 DUP3 ADD SWAP1 POP PUSH2 0x7F0 PUSH1 0x0 DUP4 ADD DUP7 PUSH2 0x744 JUMP JUMPDEST PUSH2 0x7FD PUSH1 0x20 DUP4 ADD DUP6 PUSH2 0x77D JUMP JUMPDEST PUSH2 0x80A PUSH1 0x40 DUP4 ADD DUP5 PUSH2 0x7CC JUMP JUMPDEST SWAP5 SWAP4 POP POP POP POP JUMP JUMPDEST PUSH1 0x0 DUP2 SWAP1 POP SWAP2 SWAP1 POP JUMP JUMPDEST PUSH1 0x0 PUSH2 0x837 PUSH2 0x832 PUSH2 0x82D DUP5 PUSH2 0x812 JUMP JUMPDEST PUSH2 0x7A0 JUMP JUMPDEST PUSH2 0x796 JUMP JUMPDEST SWAP1 POP SWAP2 SWAP1 POP JUMP JUMPDEST PUSH2 0x847 DUP2 PUSH2 0x81C JUMP JUMPDEST DUP3 MSTORE POP POP JUMP JUMPDEST PUSH1 0x0 PUSH1 0x60 DUP3 ADD SWAP1 POP PUSH2 0x862 PUSH1 0x0 DUP4 ADD DUP7 PUSH2 0x744 JUMP JUMPDEST PUSH2 0x86F PUSH1 0x20 DUP4 ADD DUP6 PUSH2 0x77D JUMP JUMPDEST PUSH2 0x87C PUSH1 0x40 DUP4 ADD DUP5 PUSH2 0x83E JUMP JUMPDEST SWAP5 SWAP4 POP POP POP POP JUMP JUMPDEST PUSH1 0x0 DUP2 SWAP1 POP SWAP2 SWAP1 POP JUMP JUMPDEST PUSH1 0x0 PUSH2 0x8A9 PUSH2 0x8A4 PUSH2 0x89F DUP5 PUSH2 0x884 JUMP JUMPDEST PUSH2 0x7A0 JUMP JUMPDEST PUSH2 0x796 JUMP JUMPDEST SWAP1 POP SWAP2 SWAP1 POP JUMP JUMPDEST PUSH2 0x8B9 DUP2 PUSH2 0x88E JUMP JUMPDEST DUP3 MSTORE POP POP JUMP JUMPDEST PUSH1 0x0 PUSH1 0x60 DUP3 ADD SWAP1 POP PUSH2 0x8D4 PUSH1 0x0 DUP4 ADD DUP7 PUSH2 0x744 JUMP JUMPDEST PUSH2 0x8E1 PUSH1 0x20 DUP4 ADD DUP6 PUSH2 0x77D JUMP JUMPDEST PUSH2 0x8EE PUSH1 0x40 DUP4 ADD DUP5 PUSH2 0x8B0 JUMP JUMPDEST SWAP5 SWAP4 POP POP POP POP JUMP JUMPDEST PUSH1 0x0 DUP2 SWAP1 POP SWAP2 SWAP1 POP JUMP JUMPDEST PUSH1 0x0 PUSH2 0x91B PUSH2 0x916 PUSH2 0x911 DUP5 PUSH2 0x8F6 JUMP JUMPDEST PUSH2 0x7A0 JUMP JUMPDEST PUSH2 0x796 JUMP JUMPDEST SWAP1 POP SWAP2 SWAP1 POP JUMP JUMPDEST PUSH2 0x92B DUP2 PUSH2 0x900 JUMP JUMPDEST DUP3 MSTORE POP POP JUMP JUMPDEST PUSH1 0x0 PUSH1 0x60 DUP3 ADD SWAP1 POP PUSH2 0x946 PUSH1 0x0 DUP4 ADD DUP7 PUSH2 0x744 JUMP JUMPDEST PUSH2 0x953 PUSH1 0x20 DUP4 ADD DUP6 PUSH2 0x77D JUMP JUMPDEST PUSH2 0x960 PUSH1 0x40 DUP4 ADD DUP5 PUSH2 0x922 JUMP JUMPDEST SWAP5 SWAP4 POP POP POP POP JUMP JUMPDEST PUSH1 0x0 PUSH1 0x20 DUP3 ADD SWAP1 POP PUSH2 0x97D PUSH1 0x0 DUP4 ADD DUP5 PUSH2 0x744 JUMP JUMPDEST SWAP3 SWAP2 POP POP JUMP JUMPDEST PUSH1 0x0 DUP1 REVERT JUMPDEST PUSH2 0x991 DUP2 PUSH2 0x796 JUMP JUMPDEST DUP2 EQ PUSH2 0x99C JUMPI PUSH1 0x0 DUP1 REVERT JUMPDEST POP JUMP JUMPDEST PUSH1 0x0 DUP2 MLOAD SWAP1 POP PUSH2 0x9AE DUP2 PUSH2 0x988 JUMP JUMPDEST SWAP3 SWAP2 POP POP JUMP JUMPDEST PUSH1 0x0 PUSH1 0x20 DUP3 DUP5 SUB SLT ISZERO PUSH2 0x9CA JUMPI PUSH2 0x9C9 PUSH2 0x983 JUMP JUMPDEST JUMPDEST PUSH1 0x0 PUSH2 0x9D8 DUP5 DUP3 DUP6 ADD PUSH2 0x99F JUMP JUMPDEST SWAP2 POP POP SWAP3 SWAP2 POP POP JUMP JUMPDEST PUSH2 0x9EA DUP2 PUSH2 0x796 JUMP JUMPDEST DUP3 MSTORE POP POP JUMP JUMPDEST PUSH1 0x0 PUSH1 0x40 DUP3 ADD SWAP1 POP PUSH2 0xA05 PUSH1 0x0 DUP4 ADD DUP6 PUSH2 0x744 JUMP JUMPDEST PUSH2 0xA12 PUSH1 0x20 DUP4 ADD DUP5 PUSH2 0x9E1 JUMP JUMPDEST SWAP4 SWAP3 POP POP POP JUMP JUMPDEST PUSH2 0xA22 DUP2 PUSH2 0x76B JUMP JUMPDEST DUP2 EQ PUSH2 0xA2D JUMPI PUSH1 0x0 DUP1 REVERT JUMPDEST POP JUMP JUMPDEST PUSH1 0x0 DUP2 MLOAD SWAP1 POP PUSH2 0xA3F DUP2 PUSH2 0xA19 JUMP JUMPDEST SWAP3 SWAP2 POP POP JUMP JUMPDEST PUSH1 0x0 PUSH1 0x20 DUP3 DUP5 SUB SLT ISZERO PUSH2 0xA5B JUMPI PUSH2 0xA5A PUSH2 0x983 JUMP JUMPDEST JUMPDEST PUSH1 0x0 PUSH2 0xA69 DUP5 DUP3 DUP6 ADD PUSH2 0xA30 JUMP JUMPDEST SWAP2 POP POP SWAP3 SWAP2 POP POP JUMP JUMPDEST PUSH32 0x4E487B7100000000000000000000000000000000000000000000000000000000 PUSH1 0x0 MSTORE PUSH1 0x11 PUSH1 0x4 MSTORE PUSH1 0x24 PUSH1 0x0 REVERT JUMPDEST PUSH1 0x0 PUSH2 0xAAC DUP3 PUSH2 0x796 JUMP JUMPDEST SWAP2 POP PUSH2 0xAB7 DUP4 PUSH2 0x796 JUMP JUMPDEST SWAP3 POP DUP2 PUSH32 0xFFFFFFFFFFFFFFFFFFFFFFFFFFFFFFFFFFFFFFFFFFFFFFFFFFFFFFFFFFFFFFFF DIV DUP4 GT DUP3 ISZERO ISZERO AND ISZERO PUSH2 0xAF0 JUMPI PUSH2 0xAEF PUSH2 0xA72 JUMP JUMPDEST JUMPDEST DUP3 DUP3 MUL SWAP1 POP SWAP3 SWAP2 POP POP JUMP JUMPDEST PUSH1 0x0 PUSH1 0x40 DUP3 ADD SWAP1 POP PUSH2 0xB10 PUSH1 0x0 DUP4 ADD DUP6 PUSH2 0x744 JUMP JUMPDEST PUSH2 0xB1D PUSH1 0x20 DUP4 ADD DUP5 PUSH2 0x77D JUMP JUMPDEST SWAP4 SWAP3 POP POP POP JUMP JUMPDEST PUSH32 0x4E487B7100000000000000000000000000000000000000000000000000000000 PUSH1 0x0 MSTORE PUSH1 0x1 PUSH1 0x4 MSTORE PUSH1 0x24 PUSH1 0x0 REVERT JUMPDEST PUSH1 0x0 PUSH2 0xB5E DUP3 PUSH2 0x796 JUMP JUMPDEST SWAP2 POP PUSH32 0xFFFFFFFFFFFFFFFFFFFFFFFFFFFFFFFFFFFFFFFFFFFFFFFFFFFFFFFFFFFFFFFF DUP3 SUB PUSH2 0xB90 JUMPI PUSH2 0xB8F PUSH2 0xA72 JUMP JUMPDEST JUMPDEST PUSH1 0x1 DUP3 ADD SWAP1 POP SWAP2 SWAP1 POP JUMP JUMPDEST PUSH1 0x0 PUSH1 0x40 DUP3 ADD SWAP1 POP PUSH2 0xBB0 PUSH1 0x0 DUP4 ADD DUP6 PUSH2 0x744 JUMP JUMPDEST PUSH2 0xBBD PUSH1 0x20 DUP4 ADD DUP5 PUSH2 0x7CC JUMP JUMPDEST SWAP4 SWAP3 POP POP POP JUMP JUMPDEST PUSH1 0x0 DUP2 SWAP1 POP SWAP2 SWAP1 POP JUMP JUMPDEST PUSH1 0x0 PUSH2 0xBE9 PUSH2 0xBE4 PUSH2 0xBDF DUP5 PUSH2 0xBC4 JUMP JUMPDEST PUSH2 0x7A0 JUMP JUMPDEST PUSH2 0x796 JUMP JUMPDEST SWAP1 POP SWAP2 SWAP1 POP JUMP JUMPDEST PUSH2 0xBF9 DUP2 PUSH2 0xBCE JUMP JUMPDEST DUP3 MSTORE POP POP JUMP JUMPDEST PUSH1 0x0 PUSH1 0x40 DUP3 ADD SWAP1 POP PUSH2 0xC14 PUSH1 0x0 DUP4 ADD DUP6 PUSH2 0x744 JUMP JUMPDEST PUSH2 0xC21 PUSH1 0x20 DUP4 ADD DUP5 PUSH2 0xBF0 JUMP JUMPDEST SWAP4 SWAP3 POP POP POP JUMP JUMPDEST PUSH1 0x0 DUP2 SWAP1 POP SWAP2 SWAP1 POP JUMP JUMPDEST PUSH1 0x0 PUSH2 0xC4D PUSH2 0xC48 PUSH2 0xC43 DUP5 PUSH2 0xC28 JUMP JUMPDEST PUSH2 0x7A0 JUMP JUMPDEST PUSH2 0x796 JUMP JUMPDEST SWAP1 POP SWAP2 SWAP1 POP JUMP JUMPDEST PUSH2 0xC5D DUP2 PUSH2 0xC32 JUMP JUMPDEST DUP3 MSTORE POP POP JUMP JUMPDEST PUSH1 0x0 PUSH1 0x40 DUP3 ADD SWAP1 POP PUSH2 0xC78 PUSH1 0x0 DUP4 ADD DUP6 PUSH2 0x744 JUMP JUMPDEST PUSH2 0xC85 PUSH1 0x20 DUP4 ADD DUP5 PUSH2 0xC54 JUMP JUMPDEST SWAP4 SWAP3 POP POP POP JUMP INVALID LOG2 PUSH5 0x6970667358 0x22 SLT KECCAK256 DUP2 CALL 0xB4 PC JUMPDEST JUMPDEST 0xDC 0xD9 EXP SMOD 0xDA EXTCODECOPY 0xE2 NUMBER 0xB0 SWAP11 0x5C BASEFEE DUP3 0xD0 PUSH3 0xCC0500 0xEE 0xD 0xBC 0xBE 0xA7 0xB3 0xCE 0xD1 PUSH5 0x736F6C6343 STOP ADDMOD 0xE STOP CALLER "
				},
				"gasEstimates": {
					"creation": {
						"codeDepositCost": "653200",
						"executionCost": "689",
						"totalCost": "653889"
					},
					"external": {
						"testIterableMap()": "infinite"
					}
				},
				"methodIdentifiers": {
					"testIterableMap()": "d230a0d5"
				}
			},
			"storageLayout": {
				"storage": [
					{
						"astId": 210,
						"contract": "solidity-study-demo/secondPart/IterableMapping.sol:TestIterableMap",
						"label": "map",
						"offset": 0,
						"slot": "0",
						"type": "t_struct(Map)17_storage"
					}
				],
				"types": {
					"t_address": {
						"encoding": "inplace",
						"label": "address",
						"numberOfBytes": "20"
					},
					"t_array(t_address)dyn_storage": {
						"base": "t_address",
						"encoding": "dynamic_array",
						"label": "address[]",
						"numberOfBytes": "32"
					},
					"t_bool": {
						"encoding": "inplace",
						"label": "bool",
						"numberOfBytes": "1"
					},
					"t_mapping(t_address,t_bool)": {
						"encoding": "mapping",
						"key": "t_address",
						"label": "mapping(address => bool)",
						"numberOfBytes": "32",
						"value": "t_bool"
					},
					"t_mapping(t_address,t_uint256)": {
						"encoding": "mapping",
						"key": "t_address",
						"label": "mapping(address => uint256)",
						"numberOfBytes": "32",
						"value": "t_uint256"
					},
					"t_struct(Map)17_storage": {
						"encoding": "inplace",
						"label": "struct IterableMapping.Map",
						"members": [
							{
								"astId": 4,
								"contract": "solidity-study-demo/secondPart/IterableMapping.sol:TestIterableMap",
								"label": "keys",
								"offset": 0,
								"slot": "0",
								"type": "t_array(t_address)dyn_storage"
							},
							{
								"astId": 8,
								"contract": "solidity-study-demo/secondPart/IterableMapping.sol:TestIterableMap",
								"label": "values",
								"offset": 0,
								"slot": "1",
								"type": "t_mapping(t_address,t_uint256)"
							},
							{
								"astId": 12,
								"contract": "solidity-study-demo/secondPart/IterableMapping.sol:TestIterableMap",
								"label": "indexOf",
								"offset": 0,
								"slot": "2",
								"type": "t_mapping(t_address,t_uint256)"
							},
							{
								"astId": 16,
								"contract": "solidity-study-demo/secondPart/IterableMapping.sol:TestIterableMap",
								"label": "inserted",
								"offset": 0,
								"slot": "3",
								"type": "t_mapping(t_address,t_bool)"
							}
						],
						"numberOfBytes": "128"
					},
					"t_uint256": {
						"encoding": "inplace",
						"label": "uint256",
						"numberOfBytes": "32"
					}
				}
			},
			"userdoc": {
				"kind": "user",
				"methods": {},
				"version": 1
			}
		}
	}
}