{
	"solidity-study-demo/secondPart/MultSigWallet.sol": {
		"MultSigWallet": {
			"abi": [
				{
					"inputs": [
						{
							"internalType": "address[]",
							"name": "_owners",
							"type": "address[]"
						},
						{
							"internalType": "uint256",
							"name": "_numConfirmationsRequired",
							"type": "uint256"
						}
					],
					"stateMutability": "nonpayable",
					"type": "constructor"
				},
				{
					"anonymous": false,
					"inputs": [
						{
							"indexed": true,
							"internalType": "address",
							"name": "owner",
							"type": "address"
						},
						{
							"indexed": true,
							"internalType": "uint256",
							"name": "txIndex",
							"type": "uint256"
						}
					],
					"name": "ConfirmTransaction",
					"type": "event"
				},
				{
					"anonymous": false,
					"inputs": [
						{
							"indexed": true,
							"internalType": "address",
							"name": "sender",
							"type": "address"
						},
						{
							"indexed": false,
							"internalType": "uint256",
							"name": "amount",
							"type": "uint256"
						},
						{
							"indexed": false,
							"internalType": "uint256",
							"name": "balance",
							"type": "uint256"
						}
					],
					"name": "Deposit",
					"type": "event"
				},
				{
					"anonymous": false,
					"inputs": [
						{
							"indexed": true,
							"internalType": "address",
							"name": "owner",
							"type": "address"
						},
						{
							"indexed": true,
							"internalType": "uint256",
							"name": "txIndex",
							"type": "uint256"
						}
					],
					"name": "ExecuteTransaction",
					"type": "event"
				},
				{
					"anonymous": false,
					"inputs": [
						{
							"indexed": true,
							"internalType": "address",
							"name": "owner",
							"type": "address"
						},
						{
							"indexed": true,
							"internalType": "uint256",
							"name": "txIndex",
							"type": "uint256"
						}
					],
					"name": "RevokeConfirmation",
					"type": "event"
				},
				{
					"anonymous": false,
					"inputs": [
						{
							"indexed": true,
							"internalType": "address",
							"name": "owner",
							"type": "address"
						},
						{
							"indexed": true,
							"internalType": "uint256",
							"name": "txIndex",
							"type": "uint256"
						},
						{
							"indexed": true,
							"internalType": "address",
							"name": "to",
							"type": "address"
						},
						{
							"indexed": false,
							"internalType": "uint256",
							"name": "value",
							"type": "uint256"
						},
						{
							"indexed": false,
							"internalType": "bytes",
							"name": "data",
							"type": "bytes"
						}
					],
					"name": "SubmitTransaction",
					"type": "event"
				},
				{
					"inputs": [
						{
							"internalType": "uint256",
							"name": "_txIndex",
							"type": "uint256"
						}
					],
					"name": "confirmTransaction",
					"outputs": [],
					"stateMutability": "nonpayable",
					"type": "function"
				},
				{
					"inputs": [],
					"name": "getOwners",
					"outputs": [
						{
							"internalType": "address[]",
							"name": "",
							"type": "address[]"
						}
					],
					"stateMutability": "view",
					"type": "function"
				},
				{
					"inputs": [
						{
							"internalType": "uint256",
							"name": "_txIndex",
							"type": "uint256"
						}
					],
					"name": "getTransaction",
					"outputs": [
						{
							"internalType": "address",
							"name": "to",
							"type": "address"
						},
						{
							"internalType": "uint256",
							"name": "value",
							"type": "uint256"
						},
						{
							"internalType": "bytes",
							"name": "data",
							"type": "bytes"
						},
						{
							"internalType": "bool",
							"name": "executed",
							"type": "bool"
						},
						{
							"internalType": "uint256",
							"name": "numConfirmations",
							"type": "uint256"
						}
					],
					"stateMutability": "view",
					"type": "function"
				},
				{
					"inputs": [
						{
							"internalType": "uint256",
							"name": "",
							"type": "uint256"
						},
						{
							"internalType": "address",
							"name": "",
							"type": "address"
						}
					],
					"name": "isConfirmed",
					"outputs": [
						{
							"internalType": "bool",
							"name": "",
							"type": "bool"
						}
					],
					"stateMutability": "view",
					"type": "function"
				},
				{
					"inputs": [
						{
							"internalType": "address",
							"name": "",
							"type": "address"
						}
					],
					"name": "isOwner",
					"outputs": [
						{
							"internalType": "bool",
							"name": "",
							"type": "bool"
						}
					],
					"stateMutability": "view",
					"type": "function"
				},
				{
					"inputs": [],
					"name": "numConfirmationsRequired",
					"outputs": [
						{
							"internalType": "uint256",
							"name": "",
							"type": "uint256"
						}
					],
					"stateMutability": "view",
					"type": "function"
				},
				{
					"inputs": [
						{
							"internalType": "uint256",
							"name": "",
							"type": "uint256"
						}
					],
					"name": "owners",
					"outputs": [
						{
							"internalType": "address",
							"name": "",
							"type": "address"
						}
					],
					"stateMutability": "view",
					"type": "function"
				},
				{
					"inputs": [
						{
							"internalType": "uint256",
							"name": "_txIndex",
							"type": "uint256"
						}
					],
					"name": "revokeConfirmation",
					"outputs": [],
					"stateMutability": "nonpayable",
					"type": "function"
				},
				{
					"inputs": [
						{
							"internalType": "address",
							"name": "_to",
							"type": "address"
						},
						{
							"internalType": "uint256",
							"name": "_value",
							"type": "uint256"
						},
						{
							"internalType": "bytes",
							"name": "_data",
							"type": "bytes"
						}
					],
					"name": "submitTransaction",
					"outputs": [],
					"stateMutability": "nonpayable",
					"type": "function"
				},
				{
					"inputs": [
						{
							"internalType": "uint256",
							"name": "",
							"type": "uint256"
						}
					],
					"name": "transactions",
					"outputs": [
						{
							"internalType": "address",
							"name": "to",
							"type": "address"
						},
						{
							"internalType": "uint256",
							"name": "value",
							"type": "uint256"
						},
						{
							"internalType": "bytes",
							"name": "data",
							"type": "bytes"
						},
						{
							"internalType": "bool",
							"name": "executed",
							"type": "bool"
						},
						{
							"internalType": "uint256",
							"name": "numConfirmations",
							"type": "uint256"
						}
					],
					"stateMutability": "view",
					"type": "function"
				},
				{
					"stateMutability": "payable",
					"type": "receive"
				}
			],
			"devdoc": {
				"kind": "dev",
				"methods": {},
				"version": 1
			},
			"evm": {
				"assembly": "    /* \"solidity-study-demo/secondPart/MultSigWallet.sol\":28:4454  contract MultSigWallet {... */\n  mstore(0x40, 0x80)\n    /* \"solidity-study-demo/secondPart/MultSigWallet.sol\":1429:2118  constructor(address[] memory _owners, uint _numConfirmationsRequired) {... */\n  callvalue\n  dup1\n  iszero\n  tag_1\n  jumpi\n  0x00\n  dup1\n  revert\ntag_1:\n  pop\n  mload(0x40)\n  sub(codesize, bytecodeSize)\n  dup1\n  bytecodeSize\n  dup4\n  codecopy\n  dup2\n  dup2\n  add\n  0x40\n  mstore\n  dup2\n  add\n  swap1\n  tag_2\n  swap2\n  swap1\n  tag_3\n  jump\t// in\ntag_2:\n    /* \"solidity-study-demo/secondPart/MultSigWallet.sol\":1535:1536  0 */\n  0x00\n    /* \"solidity-study-demo/secondPart/MultSigWallet.sol\":1518:1525  _owners */\n  dup3\n    /* \"solidity-study-demo/secondPart/MultSigWallet.sol\":1518:1532  _owners.length */\n  mload\n    /* \"solidity-study-demo/secondPart/MultSigWallet.sol\":1518:1536  _owners.length > 0 */\n  gt\n    /* \"solidity-study-demo/secondPart/MultSigWallet.sol\":1510:1555  require(_owners.length > 0, \"owner required\") */\n  tag_6\n  jumpi\n  mload(0x40)\n  0x08c379a000000000000000000000000000000000000000000000000000000000\n  dup2\n  mstore\n  0x04\n  add\n  tag_7\n  swap1\n  tag_8\n  jump\t// in\ntag_7:\n  mload(0x40)\n  dup1\n  swap2\n  sub\n  swap1\n  revert\ntag_6:\n    /* \"solidity-study-demo/secondPart/MultSigWallet.sol\":1616:1617  0 */\n  0x00\n    /* \"solidity-study-demo/secondPart/MultSigWallet.sol\":1588:1613  _numConfirmationsRequired */\n  dup2\n    /* \"solidity-study-demo/secondPart/MultSigWallet.sol\":1588:1617  _numConfirmationsRequired > 0 */\n  gt\n    /* \"solidity-study-demo/secondPart/MultSigWallet.sol\":1588:1682  _numConfirmationsRequired > 0 && ... */\n  dup1\n  iszero\n  tag_9\n  jumpi\n  pop\n    /* \"solidity-study-demo/secondPart/MultSigWallet.sol\":1668:1675  _owners */\n  dup2\n    /* \"solidity-study-demo/secondPart/MultSigWallet.sol\":1668:1682  _owners.length */\n  mload\n    /* \"solidity-study-demo/secondPart/MultSigWallet.sol\":1639:1664  _numConfirmationsRequired */\n  dup2\n    /* \"solidity-study-demo/secondPart/MultSigWallet.sol\":1639:1682  _numConfirmationsRequired <= _owners.length */\n  gt\n  iszero\n    /* \"solidity-study-demo/secondPart/MultSigWallet.sol\":1588:1682  _numConfirmationsRequired > 0 && ... */\ntag_9:\n    /* \"solidity-study-demo/secondPart/MultSigWallet.sol\":1566:1754  require(... */\n  tag_10\n  jumpi\n  mload(0x40)\n  0x08c379a000000000000000000000000000000000000000000000000000000000\n  dup2\n  mstore\n  0x04\n  add\n  tag_11\n  swap1\n  tag_12\n  jump\t// in\ntag_11:\n  mload(0x40)\n  dup1\n  swap2\n  sub\n  swap1\n  revert\ntag_10:\n    /* \"solidity-study-demo/secondPart/MultSigWallet.sol\":1770:1776  uint i */\n  0x00\n    /* \"solidity-study-demo/secondPart/MultSigWallet.sol\":1765:2048  for (uint i = 0;i < _owners.length; i++) {... */\ntag_13:\n    /* \"solidity-study-demo/secondPart/MultSigWallet.sol\":1785:1792  _owners */\n  dup3\n    /* \"solidity-study-demo/secondPart/MultSigWallet.sol\":1785:1799  _owners.length */\n  mload\n    /* \"solidity-study-demo/secondPart/MultSigWallet.sol\":1781:1782  i */\n  dup2\n    /* \"solidity-study-demo/secondPart/MultSigWallet.sol\":1781:1799  i < _owners.length */\n  lt\n    /* \"solidity-study-demo/secondPart/MultSigWallet.sol\":1765:2048  for (uint i = 0;i < _owners.length; i++) {... */\n  iszero\n  tag_14\n  jumpi\n    /* \"solidity-study-demo/secondPart/MultSigWallet.sol\":1821:1834  address owner */\n  0x00\n    /* \"solidity-study-demo/secondPart/MultSigWallet.sol\":1837:1844  _owners */\n  dup4\n    /* \"solidity-study-demo/secondPart/MultSigWallet.sol\":1845:1846  i */\n  dup3\n    /* \"solidity-study-demo/secondPart/MultSigWallet.sol\":1837:1847  _owners[i] */\n  dup2\n  mload\n  dup2\n  lt\n  tag_16\n  jumpi\n  tag_17\n  tag_18\n  jump\t// in\ntag_17:\ntag_16:\n  0x20\n  mul\n  0x20\n  add\n  add\n  mload\n    /* \"solidity-study-demo/secondPart/MultSigWallet.sol\":1821:1847  address owner = _owners[i] */\n  swap1\n  pop\n    /* \"solidity-study-demo/secondPart/MultSigWallet.sol\":1887:1888  0 */\n  0x00\n    /* \"solidity-study-demo/secondPart/MultSigWallet.sol\":1870:1889  owner != address(0) */\n  0xffffffffffffffffffffffffffffffffffffffff\n  and\n    /* \"solidity-study-demo/secondPart/MultSigWallet.sol\":1870:1875  owner */\n  dup2\n    /* \"solidity-study-demo/secondPart/MultSigWallet.sol\":1870:1889  owner != address(0) */\n  0xffffffffffffffffffffffffffffffffffffffff\n  and\n  sub\n    /* \"solidity-study-demo/secondPart/MultSigWallet.sol\":1862:1907  require(owner != address(0), \"invalid owner\") */\n  tag_19\n  jumpi\n  mload(0x40)\n  0x08c379a000000000000000000000000000000000000000000000000000000000\n  dup2\n  mstore\n  0x04\n  add\n  tag_20\n  swap1\n  tag_21\n  jump\t// in\ntag_20:\n  mload(0x40)\n  dup1\n  swap2\n  sub\n  swap1\n  revert\ntag_19:\n    /* \"solidity-study-demo/secondPart/MultSigWallet.sol\":1931:1938  isOwner */\n  0x01\n    /* \"solidity-study-demo/secondPart/MultSigWallet.sol\":1931:1945  isOwner[owner] */\n  0x00\n    /* \"solidity-study-demo/secondPart/MultSigWallet.sol\":1939:1944  owner */\n  dup3\n    /* \"solidity-study-demo/secondPart/MultSigWallet.sol\":1931:1945  isOwner[owner] */\n  0xffffffffffffffffffffffffffffffffffffffff\n  and\n  0xffffffffffffffffffffffffffffffffffffffff\n  and\n  dup2\n  mstore\n  0x20\n  add\n  swap1\n  dup2\n  mstore\n  0x20\n  add\n  0x00\n  keccak256\n  0x00\n  swap1\n  sload\n  swap1\n  0x0100\n  exp\n  swap1\n  div\n  0xff\n  and\n    /* \"solidity-study-demo/secondPart/MultSigWallet.sol\":1930:1945  !isOwner[owner] */\n  iszero\n    /* \"solidity-study-demo/secondPart/MultSigWallet.sol\":1922:1967  require(!isOwner[owner], \"owner not uniqure\") */\n  tag_22\n  jumpi\n  mload(0x40)\n  0x08c379a000000000000000000000000000000000000000000000000000000000\n  dup2\n  mstore\n  0x04\n  add\n  tag_23\n  swap1\n  tag_24\n  jump\t// in\ntag_23:\n  mload(0x40)\n  dup1\n  swap2\n  sub\n  swap1\n  revert\ntag_22:\n    /* \"solidity-study-demo/secondPart/MultSigWallet.sol\":1999:2003  true */\n  0x01\n    /* \"solidity-study-demo/secondPart/MultSigWallet.sol\":1982:1989  isOwner */\n  dup1\n    /* \"solidity-study-demo/secondPart/MultSigWallet.sol\":1982:1996  isOwner[owner] */\n  0x00\n    /* \"solidity-study-demo/secondPart/MultSigWallet.sol\":1990:1995  owner */\n  dup4\n    /* \"solidity-study-demo/secondPart/MultSigWallet.sol\":1982:1996  isOwner[owner] */\n  0xffffffffffffffffffffffffffffffffffffffff\n  and\n  0xffffffffffffffffffffffffffffffffffffffff\n  and\n  dup2\n  mstore\n  0x20\n  add\n  swap1\n  dup2\n  mstore\n  0x20\n  add\n  0x00\n  keccak256\n  0x00\n    /* \"solidity-study-demo/secondPart/MultSigWallet.sol\":1982:2003  isOwner[owner] = true */\n  0x0100\n  exp\n  dup2\n  sload\n  dup2\n  0xff\n  mul\n  not\n  and\n  swap1\n  dup4\n  iszero\n  iszero\n  mul\n  or\n  swap1\n  sstore\n  pop\n    /* \"solidity-study-demo/secondPart/MultSigWallet.sol\":2018:2024  owners */\n  0x00\n    /* \"solidity-study-demo/secondPart/MultSigWallet.sol\":2030:2035  owner */\n  dup2\n    /* \"solidity-study-demo/secondPart/MultSigWallet.sol\":2018:2036  owners.push(owner) */\n  swap1\n  dup1\n  0x01\n  dup2\n  sload\n  add\n  dup1\n  dup3\n  sstore\n  dup1\n  swap2\n  pop\n  pop\n  0x01\n  swap1\n  sub\n  swap1\n  0x00\n  mstore\n  keccak256(0x00, 0x20)\n  add\n  0x00\n  swap1\n  swap2\n  swap1\n  swap2\n  swap1\n  swap2\n  0x0100\n  exp\n  dup2\n  sload\n  dup2\n  0xffffffffffffffffffffffffffffffffffffffff\n  mul\n  not\n  and\n  swap1\n  dup4\n  0xffffffffffffffffffffffffffffffffffffffff\n  and\n  mul\n  or\n  swap1\n  sstore\n  pop\n    /* \"solidity-study-demo/secondPart/MultSigWallet.sol\":1806:2048  {... */\n  pop\n    /* \"solidity-study-demo/secondPart/MultSigWallet.sol\":1801:1804  i++ */\n  dup1\n  dup1\n  tag_26\n  swap1\n  tag_27\n  jump\t// in\ntag_26:\n  swap2\n  pop\n  pop\n    /* \"solidity-study-demo/secondPart/MultSigWallet.sol\":1765:2048  for (uint i = 0;i < _owners.length; i++) {... */\n  jump(tag_13)\ntag_14:\n  pop\n    /* \"solidity-study-demo/secondPart/MultSigWallet.sol\":2085:2110  _numConfirmationsRequired */\n  dup1\n    /* \"solidity-study-demo/secondPart/MultSigWallet.sol\":2058:2082  numConfirmationsRequired */\n  0x02\n    /* \"solidity-study-demo/secondPart/MultSigWallet.sol\":2058:2110  numConfirmationsRequired = _numConfirmationsRequired */\n  dup2\n  swap1\n  sstore\n  pop\n    /* \"solidity-study-demo/secondPart/MultSigWallet.sol\":1429:2118  constructor(address[] memory _owners, uint _numConfirmationsRequired) {... */\n  pop\n  pop\n    /* \"solidity-study-demo/secondPart/MultSigWallet.sol\":28:4454  contract MultSigWallet {... */\n  jump(tag_28)\n    /* \"#utility.yul\":7:82   */\ntag_29:\n    /* \"#utility.yul\":40:46   */\n  0x00\n    /* \"#utility.yul\":73:75   */\n  0x40\n    /* \"#utility.yul\":67:76   */\n  mload\n    /* \"#utility.yul\":57:76   */\n  swap1\n  pop\n    /* \"#utility.yul\":7:82   */\n  swap1\n  jump\t// out\n    /* \"#utility.yul\":88:205   */\ntag_30:\n    /* \"#utility.yul\":197:198   */\n  0x00\n    /* \"#utility.yul\":194:195   */\n  dup1\n    /* \"#utility.yul\":187:199   */\n  revert\n    /* \"#utility.yul\":211:328   */\ntag_31:\n    /* \"#utility.yul\":320:321   */\n  0x00\n    /* \"#utility.yul\":317:318   */\n  dup1\n    /* \"#utility.yul\":310:322   */\n  revert\n    /* \"#utility.yul\":334:451   */\ntag_32:\n    /* \"#utility.yul\":443:444   */\n  0x00\n    /* \"#utility.yul\":440:441   */\n  dup1\n    /* \"#utility.yul\":433:445   */\n  revert\n    /* \"#utility.yul\":457:559   */\ntag_33:\n    /* \"#utility.yul\":498:504   */\n  0x00\n    /* \"#utility.yul\":549:551   */\n  0x1f\n    /* \"#utility.yul\":545:552   */\n  not\n    /* \"#utility.yul\":540:542   */\n  0x1f\n    /* \"#utility.yul\":533:538   */\n  dup4\n    /* \"#utility.yul\":529:543   */\n  add\n    /* \"#utility.yul\":525:553   */\n  and\n    /* \"#utility.yul\":515:553   */\n  swap1\n  pop\n    /* \"#utility.yul\":457:559   */\n  swap2\n  swap1\n  pop\n  jump\t// out\n    /* \"#utility.yul\":565:745   */\ntag_34:\n    /* \"#utility.yul\":613:690   */\n  0x4e487b7100000000000000000000000000000000000000000000000000000000\n    /* \"#utility.yul\":610:611   */\n  0x00\n    /* \"#utility.yul\":603:691   */\n  mstore\n    /* \"#utility.yul\":710:714   */\n  0x41\n    /* \"#utility.yul\":707:708   */\n  0x04\n    /* \"#utility.yul\":700:715   */\n  mstore\n    /* \"#utility.yul\":734:738   */\n  0x24\n    /* \"#utility.yul\":731:732   */\n  0x00\n    /* \"#utility.yul\":724:739   */\n  revert\n    /* \"#utility.yul\":751:1032   */\ntag_35:\n    /* \"#utility.yul\":834:861   */\n  tag_66\n    /* \"#utility.yul\":856:860   */\n  dup3\n    /* \"#utility.yul\":834:861   */\n  tag_33\n  jump\t// in\ntag_66:\n    /* \"#utility.yul\":826:832   */\n  dup2\n    /* \"#utility.yul\":822:862   */\n  add\n    /* \"#utility.yul\":964:970   */\n  dup2\n    /* \"#utility.yul\":952:962   */\n  dup2\n    /* \"#utility.yul\":949:971   */\n  lt\n    /* \"#utility.yul\":928:946   */\n  0xffffffffffffffff\n    /* \"#utility.yul\":916:926   */\n  dup3\n    /* \"#utility.yul\":913:947   */\n  gt\n    /* \"#utility.yul\":910:972   */\n  or\n    /* \"#utility.yul\":907:995   */\n  iszero\n  tag_67\n  jumpi\n    /* \"#utility.yul\":975:993   */\n  tag_68\n  tag_34\n  jump\t// in\ntag_68:\n    /* \"#utility.yul\":907:995   */\ntag_67:\n    /* \"#utility.yul\":1015:1025   */\n  dup1\n    /* \"#utility.yul\":1011:1013   */\n  0x40\n    /* \"#utility.yul\":1004:1026   */\n  mstore\n    /* \"#utility.yul\":794:1032   */\n  pop\n    /* \"#utility.yul\":751:1032   */\n  pop\n  pop\n  jump\t// out\n    /* \"#utility.yul\":1038:1167   */\ntag_36:\n    /* \"#utility.yul\":1072:1078   */\n  0x00\n    /* \"#utility.yul\":1099:1119   */\n  tag_70\n  tag_29\n  jump\t// in\ntag_70:\n    /* \"#utility.yul\":1089:1119   */\n  swap1\n  pop\n    /* \"#utility.yul\":1128:1161   */\n  tag_71\n    /* \"#utility.yul\":1156:1160   */\n  dup3\n    /* \"#utility.yul\":1148:1154   */\n  dup3\n    /* \"#utility.yul\":1128:1161   */\n  tag_35\n  jump\t// in\ntag_71:\n    /* \"#utility.yul\":1038:1167   */\n  swap2\n  swap1\n  pop\n  jump\t// out\n    /* \"#utility.yul\":1173:1484   */\ntag_37:\n    /* \"#utility.yul\":1250:1254   */\n  0x00\n    /* \"#utility.yul\":1340:1358   */\n  0xffffffffffffffff\n    /* \"#utility.yul\":1332:1338   */\n  dup3\n    /* \"#utility.yul\":1329:1359   */\n  gt\n    /* \"#utility.yul\":1326:1382   */\n  iszero\n  tag_73\n  jumpi\n    /* \"#utility.yul\":1362:1380   */\n  tag_74\n  tag_34\n  jump\t// in\ntag_74:\n    /* \"#utility.yul\":1326:1382   */\ntag_73:\n    /* \"#utility.yul\":1412:1416   */\n  0x20\n    /* \"#utility.yul\":1404:1410   */\n  dup3\n    /* \"#utility.yul\":1400:1417   */\n  mul\n    /* \"#utility.yul\":1392:1417   */\n  swap1\n  pop\n    /* \"#utility.yul\":1472:1476   */\n  0x20\n    /* \"#utility.yul\":1466:1470   */\n  dup2\n    /* \"#utility.yul\":1462:1477   */\n  add\n    /* \"#utility.yul\":1454:1477   */\n  swap1\n  pop\n    /* \"#utility.yul\":1173:1484   */\n  swap2\n  swap1\n  pop\n  jump\t// out\n    /* \"#utility.yul\":1490:1607   */\ntag_38:\n    /* \"#utility.yul\":1599:1600   */\n  0x00\n    /* \"#utility.yul\":1596:1597   */\n  dup1\n    /* \"#utility.yul\":1589:1601   */\n  revert\n    /* \"#utility.yul\":1613:1739   */\ntag_39:\n    /* \"#utility.yul\":1650:1657   */\n  0x00\n    /* \"#utility.yul\":1690:1732   */\n  0xffffffffffffffffffffffffffffffffffffffff\n    /* \"#utility.yul\":1683:1688   */\n  dup3\n    /* \"#utility.yul\":1679:1733   */\n  and\n    /* \"#utility.yul\":1668:1733   */\n  swap1\n  pop\n    /* \"#utility.yul\":1613:1739   */\n  swap2\n  swap1\n  pop\n  jump\t// out\n    /* \"#utility.yul\":1745:1841   */\ntag_40:\n    /* \"#utility.yul\":1782:1789   */\n  0x00\n    /* \"#utility.yul\":1811:1835   */\n  tag_78\n    /* \"#utility.yul\":1829:1834   */\n  dup3\n    /* \"#utility.yul\":1811:1835   */\n  tag_39\n  jump\t// in\ntag_78:\n    /* \"#utility.yul\":1800:1835   */\n  swap1\n  pop\n    /* \"#utility.yul\":1745:1841   */\n  swap2\n  swap1\n  pop\n  jump\t// out\n    /* \"#utility.yul\":1847:1969   */\ntag_41:\n    /* \"#utility.yul\":1920:1944   */\n  tag_80\n    /* \"#utility.yul\":1938:1943   */\n  dup2\n    /* \"#utility.yul\":1920:1944   */\n  tag_40\n  jump\t// in\ntag_80:\n    /* \"#utility.yul\":1913:1918   */\n  dup2\n    /* \"#utility.yul\":1910:1945   */\n  eq\n    /* \"#utility.yul\":1900:1963   */\n  tag_81\n  jumpi\n    /* \"#utility.yul\":1959:1960   */\n  0x00\n    /* \"#utility.yul\":1956:1957   */\n  dup1\n    /* \"#utility.yul\":1949:1961   */\n  revert\n    /* \"#utility.yul\":1900:1963   */\ntag_81:\n    /* \"#utility.yul\":1847:1969   */\n  pop\n  jump\t// out\n    /* \"#utility.yul\":1975:2118   */\ntag_42:\n    /* \"#utility.yul\":2032:2037   */\n  0x00\n    /* \"#utility.yul\":2063:2069   */\n  dup2\n    /* \"#utility.yul\":2057:2070   */\n  mload\n    /* \"#utility.yul\":2048:2070   */\n  swap1\n  pop\n    /* \"#utility.yul\":2079:2112   */\n  tag_83\n    /* \"#utility.yul\":2106:2111   */\n  dup2\n    /* \"#utility.yul\":2079:2112   */\n  tag_41\n  jump\t// in\ntag_83:\n    /* \"#utility.yul\":1975:2118   */\n  swap3\n  swap2\n  pop\n  pop\n  jump\t// out\n    /* \"#utility.yul\":2141:2873   */\ntag_43:\n    /* \"#utility.yul\":2248:2253   */\n  0x00\n    /* \"#utility.yul\":2273:2354   */\n  tag_85\n    /* \"#utility.yul\":2289:2353   */\n  tag_86\n    /* \"#utility.yul\":2346:2352   */\n  dup5\n    /* \"#utility.yul\":2289:2353   */\n  tag_37\n  jump\t// in\ntag_86:\n    /* \"#utility.yul\":2273:2354   */\n  tag_36\n  jump\t// in\ntag_85:\n    /* \"#utility.yul\":2264:2354   */\n  swap1\n  pop\n    /* \"#utility.yul\":2374:2379   */\n  dup1\n    /* \"#utility.yul\":2403:2409   */\n  dup4\n    /* \"#utility.yul\":2396:2401   */\n  dup3\n    /* \"#utility.yul\":2389:2410   */\n  mstore\n    /* \"#utility.yul\":2437:2441   */\n  0x20\n    /* \"#utility.yul\":2430:2435   */\n  dup3\n    /* \"#utility.yul\":2426:2442   */\n  add\n    /* \"#utility.yul\":2419:2442   */\n  swap1\n  pop\n    /* \"#utility.yul\":2490:2494   */\n  0x20\n    /* \"#utility.yul\":2482:2488   */\n  dup5\n    /* \"#utility.yul\":2478:2495   */\n  mul\n    /* \"#utility.yul\":2470:2476   */\n  dup4\n    /* \"#utility.yul\":2466:2496   */\n  add\n    /* \"#utility.yul\":2519:2522   */\n  dup6\n    /* \"#utility.yul\":2511:2517   */\n  dup2\n    /* \"#utility.yul\":2508:2523   */\n  gt\n    /* \"#utility.yul\":2505:2627   */\n  iszero\n  tag_87\n  jumpi\n    /* \"#utility.yul\":2538:2617   */\n  tag_88\n  tag_38\n  jump\t// in\ntag_88:\n    /* \"#utility.yul\":2505:2627   */\ntag_87:\n    /* \"#utility.yul\":2653:2659   */\n  dup4\n    /* \"#utility.yul\":2636:2867   */\ntag_89:\n    /* \"#utility.yul\":2670:2676   */\n  dup2\n    /* \"#utility.yul\":2665:2668   */\n  dup2\n    /* \"#utility.yul\":2662:2677   */\n  lt\n    /* \"#utility.yul\":2636:2867   */\n  iszero\n  tag_91\n  jumpi\n    /* \"#utility.yul\":2745:2748   */\n  dup1\n    /* \"#utility.yul\":2774:2822   */\n  tag_92\n    /* \"#utility.yul\":2818:2821   */\n  dup9\n    /* \"#utility.yul\":2806:2816   */\n  dup3\n    /* \"#utility.yul\":2774:2822   */\n  tag_42\n  jump\t// in\ntag_92:\n    /* \"#utility.yul\":2769:2772   */\n  dup5\n    /* \"#utility.yul\":2762:2823   */\n  mstore\n    /* \"#utility.yul\":2852:2856   */\n  0x20\n    /* \"#utility.yul\":2847:2850   */\n  dup5\n    /* \"#utility.yul\":2843:2857   */\n  add\n    /* \"#utility.yul\":2836:2857   */\n  swap4\n  pop\n    /* \"#utility.yul\":2712:2867   */\n  pop\n    /* \"#utility.yul\":2696:2700   */\n  0x20\n    /* \"#utility.yul\":2691:2694   */\n  dup2\n    /* \"#utility.yul\":2687:2701   */\n  add\n    /* \"#utility.yul\":2680:2701   */\n  swap1\n  pop\n    /* \"#utility.yul\":2636:2867   */\n  jump(tag_89)\ntag_91:\n    /* \"#utility.yul\":2640:2661   */\n  pop\n    /* \"#utility.yul\":2254:2873   */\n  pop\n  pop\n    /* \"#utility.yul\":2141:2873   */\n  swap4\n  swap3\n  pop\n  pop\n  pop\n  jump\t// out\n    /* \"#utility.yul\":2896:3281   */\ntag_44:\n    /* \"#utility.yul\":2978:2983   */\n  0x00\n    /* \"#utility.yul\":3027:3030   */\n  dup3\n    /* \"#utility.yul\":3020:3024   */\n  0x1f\n    /* \"#utility.yul\":3012:3018   */\n  dup4\n    /* \"#utility.yul\":3008:3025   */\n  add\n    /* \"#utility.yul\":3004:3031   */\n  slt\n    /* \"#utility.yul\":2994:3116   */\n  tag_94\n  jumpi\n    /* \"#utility.yul\":3035:3114   */\n  tag_95\n  tag_32\n  jump\t// in\ntag_95:\n    /* \"#utility.yul\":2994:3116   */\ntag_94:\n    /* \"#utility.yul\":3145:3151   */\n  dup2\n    /* \"#utility.yul\":3139:3152   */\n  mload\n    /* \"#utility.yul\":3170:3275   */\n  tag_96\n    /* \"#utility.yul\":3271:3274   */\n  dup5\n    /* \"#utility.yul\":3263:3269   */\n  dup3\n    /* \"#utility.yul\":3256:3260   */\n  0x20\n    /* \"#utility.yul\":3248:3254   */\n  dup7\n    /* \"#utility.yul\":3244:3261   */\n  add\n    /* \"#utility.yul\":3170:3275   */\n  tag_43\n  jump\t// in\ntag_96:\n    /* \"#utility.yul\":3161:3275   */\n  swap2\n  pop\n    /* \"#utility.yul\":2984:3281   */\n  pop\n    /* \"#utility.yul\":2896:3281   */\n  swap3\n  swap2\n  pop\n  pop\n  jump\t// out\n    /* \"#utility.yul\":3287:3364   */\ntag_45:\n    /* \"#utility.yul\":3324:3331   */\n  0x00\n    /* \"#utility.yul\":3353:3358   */\n  dup2\n    /* \"#utility.yul\":3342:3358   */\n  swap1\n  pop\n    /* \"#utility.yul\":3287:3364   */\n  swap2\n  swap1\n  pop\n  jump\t// out\n    /* \"#utility.yul\":3370:3492   */\ntag_46:\n    /* \"#utility.yul\":3443:3467   */\n  tag_99\n    /* \"#utility.yul\":3461:3466   */\n  dup2\n    /* \"#utility.yul\":3443:3467   */\n  tag_45\n  jump\t// in\ntag_99:\n    /* \"#utility.yul\":3436:3441   */\n  dup2\n    /* \"#utility.yul\":3433:3468   */\n  eq\n    /* \"#utility.yul\":3423:3486   */\n  tag_100\n  jumpi\n    /* \"#utility.yul\":3482:3483   */\n  0x00\n    /* \"#utility.yul\":3479:3480   */\n  dup1\n    /* \"#utility.yul\":3472:3484   */\n  revert\n    /* \"#utility.yul\":3423:3486   */\ntag_100:\n    /* \"#utility.yul\":3370:3492   */\n  pop\n  jump\t// out\n    /* \"#utility.yul\":3498:3641   */\ntag_47:\n    /* \"#utility.yul\":3555:3560   */\n  0x00\n    /* \"#utility.yul\":3586:3592   */\n  dup2\n    /* \"#utility.yul\":3580:3593   */\n  mload\n    /* \"#utility.yul\":3571:3593   */\n  swap1\n  pop\n    /* \"#utility.yul\":3602:3635   */\n  tag_102\n    /* \"#utility.yul\":3629:3634   */\n  dup2\n    /* \"#utility.yul\":3602:3635   */\n  tag_46\n  jump\t// in\ntag_102:\n    /* \"#utility.yul\":3498:3641   */\n  swap3\n  swap2\n  pop\n  pop\n  jump\t// out\n    /* \"#utility.yul\":3647:4357   */\ntag_3:\n    /* \"#utility.yul\":3751:3757   */\n  0x00\n    /* \"#utility.yul\":3759:3765   */\n  dup1\n    /* \"#utility.yul\":3808:3810   */\n  0x40\n    /* \"#utility.yul\":3796:3805   */\n  dup4\n    /* \"#utility.yul\":3787:3794   */\n  dup6\n    /* \"#utility.yul\":3783:3806   */\n  sub\n    /* \"#utility.yul\":3779:3811   */\n  slt\n    /* \"#utility.yul\":3776:3895   */\n  iszero\n  tag_104\n  jumpi\n    /* \"#utility.yul\":3814:3893   */\n  tag_105\n  tag_30\n  jump\t// in\ntag_105:\n    /* \"#utility.yul\":3776:3895   */\ntag_104:\n    /* \"#utility.yul\":3955:3956   */\n  0x00\n    /* \"#utility.yul\":3944:3953   */\n  dup4\n    /* \"#utility.yul\":3940:3957   */\n  add\n    /* \"#utility.yul\":3934:3958   */\n  mload\n    /* \"#utility.yul\":3985:4003   */\n  0xffffffffffffffff\n    /* \"#utility.yul\":3977:3983   */\n  dup2\n    /* \"#utility.yul\":3974:4004   */\n  gt\n    /* \"#utility.yul\":3971:4088   */\n  iszero\n  tag_106\n  jumpi\n    /* \"#utility.yul\":4007:4086   */\n  tag_107\n  tag_31\n  jump\t// in\ntag_107:\n    /* \"#utility.yul\":3971:4088   */\ntag_106:\n    /* \"#utility.yul\":4112:4201   */\n  tag_108\n    /* \"#utility.yul\":4193:4200   */\n  dup6\n    /* \"#utility.yul\":4184:4190   */\n  dup3\n    /* \"#utility.yul\":4173:4182   */\n  dup7\n    /* \"#utility.yul\":4169:4191   */\n  add\n    /* \"#utility.yul\":4112:4201   */\n  tag_44\n  jump\t// in\ntag_108:\n    /* \"#utility.yul\":4102:4201   */\n  swap3\n  pop\n    /* \"#utility.yul\":3905:4211   */\n  pop\n    /* \"#utility.yul\":4250:4252   */\n  0x20\n    /* \"#utility.yul\":4276:4340   */\n  tag_109\n    /* \"#utility.yul\":4332:4339   */\n  dup6\n    /* \"#utility.yul\":4323:4329   */\n  dup3\n    /* \"#utility.yul\":4312:4321   */\n  dup7\n    /* \"#utility.yul\":4308:4330   */\n  add\n    /* \"#utility.yul\":4276:4340   */\n  tag_47\n  jump\t// in\ntag_109:\n    /* \"#utility.yul\":4266:4340   */\n  swap2\n  pop\n    /* \"#utility.yul\":4221:4350   */\n  pop\n    /* \"#utility.yul\":3647:4357   */\n  swap3\n  pop\n  swap3\n  swap1\n  pop\n  jump\t// out\n    /* \"#utility.yul\":4363:4532   */\ntag_48:\n    /* \"#utility.yul\":4447:4458   */\n  0x00\n    /* \"#utility.yul\":4481:4487   */\n  dup3\n    /* \"#utility.yul\":4476:4479   */\n  dup3\n    /* \"#utility.yul\":4469:4488   */\n  mstore\n    /* \"#utility.yul\":4521:4525   */\n  0x20\n    /* \"#utility.yul\":4516:4519   */\n  dup3\n    /* \"#utility.yul\":4512:4526   */\n  add\n    /* \"#utility.yul\":4497:4526   */\n  swap1\n  pop\n    /* \"#utility.yul\":4363:4532   */\n  swap3\n  swap2\n  pop\n  pop\n  jump\t// out\n    /* \"#utility.yul\":4538:4702   */\ntag_49:\n    /* \"#utility.yul\":4678:4694   */\n  0x6f776e6572207265717569726564000000000000000000000000000000000000\n    /* \"#utility.yul\":4674:4675   */\n  0x00\n    /* \"#utility.yul\":4666:4672   */\n  dup3\n    /* \"#utility.yul\":4662:4676   */\n  add\n    /* \"#utility.yul\":4655:4695   */\n  mstore\n    /* \"#utility.yul\":4538:4702   */\n  pop\n  jump\t// out\n    /* \"#utility.yul\":4708:5074   */\ntag_50:\n    /* \"#utility.yul\":4850:4853   */\n  0x00\n    /* \"#utility.yul\":4871:4938   */\n  tag_113\n    /* \"#utility.yul\":4935:4937   */\n  0x0e\n    /* \"#utility.yul\":4930:4933   */\n  dup4\n    /* \"#utility.yul\":4871:4938   */\n  tag_48\n  jump\t// in\ntag_113:\n    /* \"#utility.yul\":4864:4938   */\n  swap2\n  pop\n    /* \"#utility.yul\":4947:5040   */\n  tag_114\n    /* \"#utility.yul\":5036:5039   */\n  dup3\n    /* \"#utility.yul\":4947:5040   */\n  tag_49\n  jump\t// in\ntag_114:\n    /* \"#utility.yul\":5065:5067   */\n  0x20\n    /* \"#utility.yul\":5060:5063   */\n  dup3\n    /* \"#utility.yul\":5056:5068   */\n  add\n    /* \"#utility.yul\":5049:5068   */\n  swap1\n  pop\n    /* \"#utility.yul\":4708:5074   */\n  swap2\n  swap1\n  pop\n  jump\t// out\n    /* \"#utility.yul\":5080:5499   */\ntag_8:\n    /* \"#utility.yul\":5246:5250   */\n  0x00\n    /* \"#utility.yul\":5284:5286   */\n  0x20\n    /* \"#utility.yul\":5273:5282   */\n  dup3\n    /* \"#utility.yul\":5269:5287   */\n  add\n    /* \"#utility.yul\":5261:5287   */\n  swap1\n  pop\n    /* \"#utility.yul\":5333:5342   */\n  dup2\n    /* \"#utility.yul\":5327:5331   */\n  dup2\n    /* \"#utility.yul\":5323:5343   */\n  sub\n    /* \"#utility.yul\":5319:5320   */\n  0x00\n    /* \"#utility.yul\":5308:5317   */\n  dup4\n    /* \"#utility.yul\":5304:5321   */\n  add\n    /* \"#utility.yul\":5297:5344   */\n  mstore\n    /* \"#utility.yul\":5361:5492   */\n  tag_116\n    /* \"#utility.yul\":5487:5491   */\n  dup2\n    /* \"#utility.yul\":5361:5492   */\n  tag_50\n  jump\t// in\ntag_116:\n    /* \"#utility.yul\":5353:5492   */\n  swap1\n  pop\n    /* \"#utility.yul\":5080:5499   */\n  swap2\n  swap1\n  pop\n  jump\t// out\n    /* \"#utility.yul\":5505:5732   */\ntag_51:\n    /* \"#utility.yul\":5645:5679   */\n  0x696e76616c6964206e756d626572206f6620726571756972656420636f6e6669\n    /* \"#utility.yul\":5641:5642   */\n  0x00\n    /* \"#utility.yul\":5633:5639   */\n  dup3\n    /* \"#utility.yul\":5629:5643   */\n  add\n    /* \"#utility.yul\":5622:5680   */\n  mstore\n    /* \"#utility.yul\":5714:5724   */\n  0x726d6174696f6e73000000000000000000000000000000000000000000000000\n    /* \"#utility.yul\":5709:5711   */\n  0x20\n    /* \"#utility.yul\":5701:5707   */\n  dup3\n    /* \"#utility.yul\":5697:5712   */\n  add\n    /* \"#utility.yul\":5690:5725   */\n  mstore\n    /* \"#utility.yul\":5505:5732   */\n  pop\n  jump\t// out\n    /* \"#utility.yul\":5738:6104   */\ntag_52:\n    /* \"#utility.yul\":5880:5883   */\n  0x00\n    /* \"#utility.yul\":5901:5968   */\n  tag_119\n    /* \"#utility.yul\":5965:5967   */\n  0x28\n    /* \"#utility.yul\":5960:5963   */\n  dup4\n    /* \"#utility.yul\":5901:5968   */\n  tag_48\n  jump\t// in\ntag_119:\n    /* \"#utility.yul\":5894:5968   */\n  swap2\n  pop\n    /* \"#utility.yul\":5977:6070   */\n  tag_120\n    /* \"#utility.yul\":6066:6069   */\n  dup3\n    /* \"#utility.yul\":5977:6070   */\n  tag_51\n  jump\t// in\ntag_120:\n    /* \"#utility.yul\":6095:6097   */\n  0x40\n    /* \"#utility.yul\":6090:6093   */\n  dup3\n    /* \"#utility.yul\":6086:6098   */\n  add\n    /* \"#utility.yul\":6079:6098   */\n  swap1\n  pop\n    /* \"#utility.yul\":5738:6104   */\n  swap2\n  swap1\n  pop\n  jump\t// out\n    /* \"#utility.yul\":6110:6529   */\ntag_12:\n    /* \"#utility.yul\":6276:6280   */\n  0x00\n    /* \"#utility.yul\":6314:6316   */\n  0x20\n    /* \"#utility.yul\":6303:6312   */\n  dup3\n    /* \"#utility.yul\":6299:6317   */\n  add\n    /* \"#utility.yul\":6291:6317   */\n  swap1\n  pop\n    /* \"#utility.yul\":6363:6372   */\n  dup2\n    /* \"#utility.yul\":6357:6361   */\n  dup2\n    /* \"#utility.yul\":6353:6373   */\n  sub\n    /* \"#utility.yul\":6349:6350   */\n  0x00\n    /* \"#utility.yul\":6338:6347   */\n  dup4\n    /* \"#utility.yul\":6334:6351   */\n  add\n    /* \"#utility.yul\":6327:6374   */\n  mstore\n    /* \"#utility.yul\":6391:6522   */\n  tag_122\n    /* \"#utility.yul\":6517:6521   */\n  dup2\n    /* \"#utility.yul\":6391:6522   */\n  tag_52\n  jump\t// in\ntag_122:\n    /* \"#utility.yul\":6383:6522   */\n  swap1\n  pop\n    /* \"#utility.yul\":6110:6529   */\n  swap2\n  swap1\n  pop\n  jump\t// out\n    /* \"#utility.yul\":6535:6715   */\ntag_18:\n    /* \"#utility.yul\":6583:6660   */\n  0x4e487b7100000000000000000000000000000000000000000000000000000000\n    /* \"#utility.yul\":6580:6581   */\n  0x00\n    /* \"#utility.yul\":6573:6661   */\n  mstore\n    /* \"#utility.yul\":6680:6684   */\n  0x32\n    /* \"#utility.yul\":6677:6678   */\n  0x04\n    /* \"#utility.yul\":6670:6685   */\n  mstore\n    /* \"#utility.yul\":6704:6708   */\n  0x24\n    /* \"#utility.yul\":6701:6702   */\n  0x00\n    /* \"#utility.yul\":6694:6709   */\n  revert\n    /* \"#utility.yul\":6721:6884   */\ntag_53:\n    /* \"#utility.yul\":6861:6876   */\n  0x696e76616c6964206f776e657200000000000000000000000000000000000000\n    /* \"#utility.yul\":6857:6858   */\n  0x00\n    /* \"#utility.yul\":6849:6855   */\n  dup3\n    /* \"#utility.yul\":6845:6859   */\n  add\n    /* \"#utility.yul\":6838:6877   */\n  mstore\n    /* \"#utility.yul\":6721:6884   */\n  pop\n  jump\t// out\n    /* \"#utility.yul\":6890:7256   */\ntag_54:\n    /* \"#utility.yul\":7032:7035   */\n  0x00\n    /* \"#utility.yul\":7053:7120   */\n  tag_126\n    /* \"#utility.yul\":7117:7119   */\n  0x0d\n    /* \"#utility.yul\":7112:7115   */\n  dup4\n    /* \"#utility.yul\":7053:7120   */\n  tag_48\n  jump\t// in\ntag_126:\n    /* \"#utility.yul\":7046:7120   */\n  swap2\n  pop\n    /* \"#utility.yul\":7129:7222   */\n  tag_127\n    /* \"#utility.yul\":7218:7221   */\n  dup3\n    /* \"#utility.yul\":7129:7222   */\n  tag_53\n  jump\t// in\ntag_127:\n    /* \"#utility.yul\":7247:7249   */\n  0x20\n    /* \"#utility.yul\":7242:7245   */\n  dup3\n    /* \"#utility.yul\":7238:7250   */\n  add\n    /* \"#utility.yul\":7231:7250   */\n  swap1\n  pop\n    /* \"#utility.yul\":6890:7256   */\n  swap2\n  swap1\n  pop\n  jump\t// out\n    /* \"#utility.yul\":7262:7681   */\ntag_21:\n    /* \"#utility.yul\":7428:7432   */\n  0x00\n    /* \"#utility.yul\":7466:7468   */\n  0x20\n    /* \"#utility.yul\":7455:7464   */\n  dup3\n    /* \"#utility.yul\":7451:7469   */\n  add\n    /* \"#utility.yul\":7443:7469   */\n  swap1\n  pop\n    /* \"#utility.yul\":7515:7524   */\n  dup2\n    /* \"#utility.yul\":7509:7513   */\n  dup2\n    /* \"#utility.yul\":7505:7525   */\n  sub\n    /* \"#utility.yul\":7501:7502   */\n  0x00\n    /* \"#utility.yul\":7490:7499   */\n  dup4\n    /* \"#utility.yul\":7486:7503   */\n  add\n    /* \"#utility.yul\":7479:7526   */\n  mstore\n    /* \"#utility.yul\":7543:7674   */\n  tag_129\n    /* \"#utility.yul\":7669:7673   */\n  dup2\n    /* \"#utility.yul\":7543:7674   */\n  tag_54\n  jump\t// in\ntag_129:\n    /* \"#utility.yul\":7535:7674   */\n  swap1\n  pop\n    /* \"#utility.yul\":7262:7681   */\n  swap2\n  swap1\n  pop\n  jump\t// out\n    /* \"#utility.yul\":7687:7854   */\ntag_55:\n    /* \"#utility.yul\":7827:7846   */\n  0x6f776e6572206e6f7420756e6971757265000000000000000000000000000000\n    /* \"#utility.yul\":7823:7824   */\n  0x00\n    /* \"#utility.yul\":7815:7821   */\n  dup3\n    /* \"#utility.yul\":7811:7825   */\n  add\n    /* \"#utility.yul\":7804:7847   */\n  mstore\n    /* \"#utility.yul\":7687:7854   */\n  pop\n  jump\t// out\n    /* \"#utility.yul\":7860:8226   */\ntag_56:\n    /* \"#utility.yul\":8002:8005   */\n  0x00\n    /* \"#utility.yul\":8023:8090   */\n  tag_132\n    /* \"#utility.yul\":8087:8089   */\n  0x11\n    /* \"#utility.yul\":8082:8085   */\n  dup4\n    /* \"#utility.yul\":8023:8090   */\n  tag_48\n  jump\t// in\ntag_132:\n    /* \"#utility.yul\":8016:8090   */\n  swap2\n  pop\n    /* \"#utility.yul\":8099:8192   */\n  tag_133\n    /* \"#utility.yul\":8188:8191   */\n  dup3\n    /* \"#utility.yul\":8099:8192   */\n  tag_55\n  jump\t// in\ntag_133:\n    /* \"#utility.yul\":8217:8219   */\n  0x20\n    /* \"#utility.yul\":8212:8215   */\n  dup3\n    /* \"#utility.yul\":8208:8220   */\n  add\n    /* \"#utility.yul\":8201:8220   */\n  swap1\n  pop\n    /* \"#utility.yul\":7860:8226   */\n  swap2\n  swap1\n  pop\n  jump\t// out\n    /* \"#utility.yul\":8232:8651   */\ntag_24:\n    /* \"#utility.yul\":8398:8402   */\n  0x00\n    /* \"#utility.yul\":8436:8438   */\n  0x20\n    /* \"#utility.yul\":8425:8434   */\n  dup3\n    /* \"#utility.yul\":8421:8439   */\n  add\n    /* \"#utility.yul\":8413:8439   */\n  swap1\n  pop\n    /* \"#utility.yul\":8485:8494   */\n  dup2\n    /* \"#utility.yul\":8479:8483   */\n  dup2\n    /* \"#utility.yul\":8475:8495   */\n  sub\n    /* \"#utility.yul\":8471:8472   */\n  0x00\n    /* \"#utility.yul\":8460:8469   */\n  dup4\n    /* \"#utility.yul\":8456:8473   */\n  add\n    /* \"#utility.yul\":8449:8496   */\n  mstore\n    /* \"#utility.yul\":8513:8644   */\n  tag_135\n    /* \"#utility.yul\":8639:8643   */\n  dup2\n    /* \"#utility.yul\":8513:8644   */\n  tag_56\n  jump\t// in\ntag_135:\n    /* \"#utility.yul\":8505:8644   */\n  swap1\n  pop\n    /* \"#utility.yul\":8232:8651   */\n  swap2\n  swap1\n  pop\n  jump\t// out\n    /* \"#utility.yul\":8657:8837   */\ntag_57:\n    /* \"#utility.yul\":8705:8782   */\n  0x4e487b7100000000000000000000000000000000000000000000000000000000\n    /* \"#utility.yul\":8702:8703   */\n  0x00\n    /* \"#utility.yul\":8695:8783   */\n  mstore\n    /* \"#utility.yul\":8802:8806   */\n  0x11\n    /* \"#utility.yul\":8799:8800   */\n  0x04\n    /* \"#utility.yul\":8792:8807   */\n  mstore\n    /* \"#utility.yul\":8826:8830   */\n  0x24\n    /* \"#utility.yul\":8823:8824   */\n  0x00\n    /* \"#utility.yul\":8816:8831   */\n  revert\n    /* \"#utility.yul\":8843:9076   */\ntag_27:\n    /* \"#utility.yul\":8882:8885   */\n  0x00\n    /* \"#utility.yul\":8905:8929   */\n  tag_138\n    /* \"#utility.yul\":8923:8928   */\n  dup3\n    /* \"#utility.yul\":8905:8929   */\n  tag_45\n  jump\t// in\ntag_138:\n    /* \"#utility.yul\":8896:8929   */\n  swap2\n  pop\n    /* \"#utility.yul\":8951:9017   */\n  0xffffffffffffffffffffffffffffffffffffffffffffffffffffffffffffffff\n    /* \"#utility.yul\":8944:8949   */\n  dup3\n    /* \"#utility.yul\":8941:9018   */\n  sub\n    /* \"#utility.yul\":8938:9041   */\n  tag_139\n  jumpi\n    /* \"#utility.yul\":9021:9039   */\n  tag_140\n  tag_57\n  jump\t// in\ntag_140:\n    /* \"#utility.yul\":8938:9041   */\ntag_139:\n    /* \"#utility.yul\":9068:9069   */\n  0x01\n    /* \"#utility.yul\":9061:9066   */\n  dup3\n    /* \"#utility.yul\":9057:9070   */\n  add\n    /* \"#utility.yul\":9050:9070   */\n  swap1\n  pop\n    /* \"#utility.yul\":8843:9076   */\n  swap2\n  swap1\n  pop\n  jump\t// out\n    /* \"solidity-study-demo/secondPart/MultSigWallet.sol\":28:4454  contract MultSigWallet {... */\ntag_28:\n  dataSize(sub_0)\n  dup1\n  dataOffset(sub_0)\n  0x00\n  codecopy\n  0x00\n  return\nstop\n\nsub_0: assembly {\n        /* \"solidity-study-demo/secondPart/MultSigWallet.sol\":28:4454  contract MultSigWallet {... */\n      mstore(0x40, 0x80)\n      jumpi(tag_1, lt(calldatasize, 0x04))\n      shr(0xe0, calldataload(0x00))\n      dup1\n      0x9ace38c2\n      gt\n      tag_13\n      jumpi\n      dup1\n      0x9ace38c2\n      eq\n      tag_8\n      jumpi\n      dup1\n      0xa0e67e2b\n      eq\n      tag_9\n      jumpi\n      dup1\n      0xc01a8c84\n      eq\n      tag_10\n      jumpi\n      dup1\n      0xc6427474\n      eq\n      tag_11\n      jumpi\n      dup1\n      0xd0549b85\n      eq\n      tag_12\n      jumpi\n      jump(tag_2)\n    tag_13:\n      dup1\n      0x025e7c27\n      eq\n      tag_3\n      jumpi\n      dup1\n      0x20ea8d86\n      eq\n      tag_4\n      jumpi\n      dup1\n      0x2f54bf6e\n      eq\n      tag_5\n      jumpi\n      dup1\n      0x33ea3dc8\n      eq\n      tag_6\n      jumpi\n      dup1\n      0x80f59a65\n      eq\n      tag_7\n      jumpi\n      jump(tag_2)\n    tag_1:\n      jumpi(tag_2, calldatasize)\n        /* \"solidity-study-demo/secondPart/MultSigWallet.sol\":2177:2187  msg.sender */\n      caller\n        /* \"solidity-study-demo/secondPart/MultSigWallet.sol\":2169:2222  Deposit(msg.sender, msg.value, address(this).balance) */\n      0xffffffffffffffffffffffffffffffffffffffff\n      and\n      0x90890809c654f11d6e72a28fa60149770a0d11ec6c92319d6ceb2bb0a4ea1a15\n        /* \"solidity-study-demo/secondPart/MultSigWallet.sol\":2189:2198  msg.value */\n      callvalue\n        /* \"solidity-study-demo/secondPart/MultSigWallet.sol\":2200:2221  address(this).balance */\n      selfbalance\n        /* \"solidity-study-demo/secondPart/MultSigWallet.sol\":2169:2222  Deposit(msg.sender, msg.value, address(this).balance) */\n      mload(0x40)\n      tag_16\n      swap3\n      swap2\n      swap1\n      tag_17\n      jump\t// in\n    tag_16:\n      mload(0x40)\n      dup1\n      swap2\n      sub\n      swap1\n      log2\n        /* \"solidity-study-demo/secondPart/MultSigWallet.sol\":28:4454  contract MultSigWallet {... */\n      stop\n    tag_2:\n      0x00\n      dup1\n      revert\n        /* \"solidity-study-demo/secondPart/MultSigWallet.sol\":530:553  address[] public owners */\n    tag_3:\n      callvalue\n      dup1\n      iszero\n      tag_18\n      jumpi\n      0x00\n      dup1\n      revert\n    tag_18:\n      pop\n      tag_19\n      0x04\n      dup1\n      calldatasize\n      sub\n      dup2\n      add\n      swap1\n      tag_20\n      swap2\n      swap1\n      tag_21\n      jump\t// in\n    tag_20:\n      tag_22\n      jump\t// in\n    tag_19:\n      mload(0x40)\n      tag_23\n      swap2\n      swap1\n      tag_24\n      jump\t// in\n    tag_23:\n      mload(0x40)\n      dup1\n      swap2\n      sub\n      swap1\n      return\n        /* \"solidity-study-demo/secondPart/MultSigWallet.sol\":3378:3820  function revokeConfirmation(uint _txIndex)... */\n    tag_4:\n      callvalue\n      dup1\n      iszero\n      tag_25\n      jumpi\n      0x00\n      dup1\n      revert\n    tag_25:\n      pop\n      tag_26\n      0x04\n      dup1\n      calldatasize\n      sub\n      dup2\n      add\n      swap1\n      tag_27\n      swap2\n      swap1\n      tag_21\n      jump\t// in\n    tag_27:\n      tag_28\n      jump\t// in\n    tag_26:\n      stop\n        /* \"solidity-study-demo/secondPart/MultSigWallet.sol\":560:599  mapping(address => bool) public isOwner */\n    tag_5:\n      callvalue\n      dup1\n      iszero\n      tag_29\n      jumpi\n      0x00\n      dup1\n      revert\n    tag_29:\n      pop\n      tag_30\n      0x04\n      dup1\n      calldatasize\n      sub\n      dup2\n      add\n      swap1\n      tag_31\n      swap2\n      swap1\n      tag_32\n      jump\t// in\n    tag_31:\n      tag_33\n      jump\t// in\n    tag_30:\n      mload(0x40)\n      tag_34\n      swap2\n      swap1\n      tag_35\n      jump\t// in\n    tag_34:\n      mload(0x40)\n      dup1\n      swap2\n      sub\n      swap1\n      return\n        /* \"solidity-study-demo/secondPart/MultSigWallet.sol\":3928:4451  function getTransaction(uint _txIndex)... */\n    tag_6:\n      callvalue\n      dup1\n      iszero\n      tag_36\n      jumpi\n      0x00\n      dup1\n      revert\n    tag_36:\n      pop\n      tag_37\n      0x04\n      dup1\n      calldatasize\n      sub\n      dup2\n      add\n      swap1\n      tag_38\n      swap2\n      swap1\n      tag_21\n      jump\t// in\n    tag_38:\n      tag_39\n      jump\t// in\n    tag_37:\n      mload(0x40)\n      tag_40\n      swap6\n      swap5\n      swap4\n      swap3\n      swap2\n      swap1\n      tag_41\n      jump\t// in\n    tag_40:\n      mload(0x40)\n      dup1\n      swap2\n      sub\n      swap1\n      return\n        /* \"solidity-study-demo/secondPart/MultSigWallet.sol\":805:865  mapping(uint => mapping(address => bool)) public isConfirmed */\n    tag_7:\n      callvalue\n      dup1\n      iszero\n      tag_42\n      jumpi\n      0x00\n      dup1\n      revert\n    tag_42:\n      pop\n      tag_43\n      0x04\n      dup1\n      calldatasize\n      sub\n      dup2\n      add\n      swap1\n      tag_44\n      swap2\n      swap1\n      tag_45\n      jump\t// in\n    tag_44:\n      tag_46\n      jump\t// in\n    tag_43:\n      mload(0x40)\n      tag_47\n      swap2\n      swap1\n      tag_35\n      jump\t// in\n    tag_47:\n      mload(0x40)\n      dup1\n      swap2\n      sub\n      swap1\n      return\n        /* \"solidity-study-demo/secondPart/MultSigWallet.sol\":872:905  Transaction[] public transactions */\n    tag_8:\n      callvalue\n      dup1\n      iszero\n      tag_48\n      jumpi\n      0x00\n      dup1\n      revert\n    tag_48:\n      pop\n      tag_49\n      0x04\n      dup1\n      calldatasize\n      sub\n      dup2\n      add\n      swap1\n      tag_50\n      swap2\n      swap1\n      tag_21\n      jump\t// in\n    tag_50:\n      tag_51\n      jump\t// in\n    tag_49:\n      mload(0x40)\n      tag_52\n      swap6\n      swap5\n      swap4\n      swap3\n      swap2\n      swap1\n      tag_41\n      jump\t// in\n    tag_52:\n      mload(0x40)\n      dup1\n      swap2\n      sub\n      swap1\n      return\n        /* \"solidity-study-demo/secondPart/MultSigWallet.sol\":3828:3920  function getOwners() public view returns (address[] memory) {... */\n    tag_9:\n      callvalue\n      dup1\n      iszero\n      tag_53\n      jumpi\n      0x00\n      dup1\n      revert\n    tag_53:\n      pop\n      tag_54\n      tag_55\n      jump\t// in\n    tag_54:\n      mload(0x40)\n      tag_56\n      swap2\n      swap1\n      tag_57\n      jump\t// in\n    tag_56:\n      mload(0x40)\n      dup1\n      swap2\n      sub\n      swap1\n      return\n        /* \"solidity-study-demo/secondPart/MultSigWallet.sol\":2767:3370  function confirmTransaction(uint _txIndex)... */\n    tag_10:\n      callvalue\n      dup1\n      iszero\n      tag_58\n      jumpi\n      0x00\n      dup1\n      revert\n    tag_58:\n      pop\n      tag_59\n      0x04\n      dup1\n      calldatasize\n      sub\n      dup2\n      add\n      swap1\n      tag_60\n      swap2\n      swap1\n      tag_21\n      jump\t// in\n    tag_60:\n      tag_61\n      jump\t// in\n    tag_59:\n      stop\n        /* \"solidity-study-demo/secondPart/MultSigWallet.sol\":2238:2759  function submitTransaction(... */\n    tag_11:\n      callvalue\n      dup1\n      iszero\n      tag_62\n      jumpi\n      0x00\n      dup1\n      revert\n    tag_62:\n      pop\n      tag_63\n      0x04\n      dup1\n      calldatasize\n      sub\n      dup2\n      add\n      swap1\n      tag_64\n      swap2\n      swap1\n      tag_65\n      jump\t// in\n    tag_64:\n      tag_66\n      jump\t// in\n    tag_63:\n      stop\n        /* \"solidity-study-demo/secondPart/MultSigWallet.sol\":606:642  uint public numConfirmationsRequired */\n    tag_12:\n      callvalue\n      dup1\n      iszero\n      tag_67\n      jumpi\n      0x00\n      dup1\n      revert\n    tag_67:\n      pop\n      tag_68\n      tag_69\n      jump\t// in\n    tag_68:\n      mload(0x40)\n      tag_70\n      swap2\n      swap1\n      tag_71\n      jump\t// in\n    tag_70:\n      mload(0x40)\n      dup1\n      swap2\n      sub\n      swap1\n      return\n        /* \"solidity-study-demo/secondPart/MultSigWallet.sol\":530:553  address[] public owners */\n    tag_22:\n      0x00\n      dup2\n      dup2\n      sload\n      dup2\n      lt\n      tag_72\n      jumpi\n      0x00\n      dup1\n      revert\n    tag_72:\n      swap1\n      0x00\n      mstore\n      keccak256(0x00, 0x20)\n      add\n      0x00\n      swap2\n      pop\n      sload\n      swap1\n      0x0100\n      exp\n      swap1\n      div\n      0xffffffffffffffffffffffffffffffffffffffff\n      and\n      dup2\n      jump\t// out\n        /* \"solidity-study-demo/secondPart/MultSigWallet.sol\":3378:3820  function revokeConfirmation(uint _txIndex)... */\n    tag_28:\n        /* \"solidity-study-demo/secondPart/MultSigWallet.sol\":954:961  isOwner */\n      0x01\n        /* \"solidity-study-demo/secondPart/MultSigWallet.sol\":954:973  isOwner[msg.sender] */\n      0x00\n        /* \"solidity-study-demo/secondPart/MultSigWallet.sol\":962:972  msg.sender */\n      caller\n        /* \"solidity-study-demo/secondPart/MultSigWallet.sol\":954:973  isOwner[msg.sender] */\n      0xffffffffffffffffffffffffffffffffffffffff\n      and\n      0xffffffffffffffffffffffffffffffffffffffff\n      and\n      dup2\n      mstore\n      0x20\n      add\n      swap1\n      dup2\n      mstore\n      0x20\n      add\n      0x00\n      keccak256\n      0x00\n      swap1\n      sload\n      swap1\n      0x0100\n      exp\n      swap1\n      div\n      0xff\n      and\n        /* \"solidity-study-demo/secondPart/MultSigWallet.sol\":946:987  require(isOwner[msg.sender], \"not owner\") */\n      tag_75\n      jumpi\n      mload(0x40)\n      0x08c379a000000000000000000000000000000000000000000000000000000000\n      dup2\n      mstore\n      0x04\n      add\n      tag_76\n      swap1\n      tag_77\n      jump\t// in\n    tag_76:\n      mload(0x40)\n      dup1\n      swap2\n      sub\n      swap1\n      revert\n    tag_75:\n        /* \"solidity-study-demo/secondPart/MultSigWallet.sol\":3474:3482  _txIndex */\n      dup1\n        /* \"solidity-study-demo/secondPart/MultSigWallet.sol\":1078:1090  transactions */\n      0x04\n        /* \"solidity-study-demo/secondPart/MultSigWallet.sol\":1078:1097  transactions.length */\n      dup1\n      sload\n      swap1\n      pop\n        /* \"solidity-study-demo/secondPart/MultSigWallet.sol\":1067:1075  _txIndex */\n      dup2\n        /* \"solidity-study-demo/secondPart/MultSigWallet.sol\":1067:1097  _txIndex < transactions.length */\n      lt\n        /* \"solidity-study-demo/secondPart/MultSigWallet.sol\":1059:1119  require(_txIndex < transactions.length, \"tx does not exist\") */\n      tag_79\n      jumpi\n      mload(0x40)\n      0x08c379a000000000000000000000000000000000000000000000000000000000\n      dup2\n      mstore\n      0x04\n      add\n      tag_80\n      swap1\n      tag_81\n      jump\t// in\n    tag_80:\n      mload(0x40)\n      dup1\n      swap2\n      sub\n      swap1\n      revert\n    tag_79:\n        /* \"solidity-study-demo/secondPart/MultSigWallet.sol\":3505:3513  _txIndex */\n      dup2\n        /* \"solidity-study-demo/secondPart/MultSigWallet.sol\":1203:1215  transactions */\n      0x04\n        /* \"solidity-study-demo/secondPart/MultSigWallet.sol\":1216:1224  _txIndex */\n      dup2\n        /* \"solidity-study-demo/secondPart/MultSigWallet.sol\":1203:1225  transactions[_txIndex] */\n      dup2\n      sload\n      dup2\n      lt\n      tag_83\n      jumpi\n      tag_84\n      tag_85\n      jump\t// in\n    tag_84:\n    tag_83:\n      swap1\n      0x00\n      mstore\n      keccak256(0x00, 0x20)\n      swap1\n      0x05\n      mul\n      add\n        /* \"solidity-study-demo/secondPart/MultSigWallet.sol\":1203:1234  transactions[_txIndex].executed */\n      0x03\n      add\n      0x00\n      swap1\n      sload\n      swap1\n      0x0100\n      exp\n      swap1\n      div\n      0xff\n      and\n        /* \"solidity-study-demo/secondPart/MultSigWallet.sol\":1202:1234  !transactions[_txIndex].executed */\n      iszero\n        /* \"solidity-study-demo/secondPart/MultSigWallet.sol\":1194:1258  require(!transactions[_txIndex].executed, \"tx already executed\") */\n      tag_87\n      jumpi\n      mload(0x40)\n      0x08c379a000000000000000000000000000000000000000000000000000000000\n      dup2\n      mstore\n      0x04\n      add\n      tag_88\n      swap1\n      tag_89\n      jump\t// in\n    tag_88:\n      mload(0x40)\n      dup1\n      swap2\n      sub\n      swap1\n      revert\n    tag_87:\n        /* \"solidity-study-demo/secondPart/MultSigWallet.sol\":3531:3562  Transaction storage transaction */\n      0x00\n        /* \"solidity-study-demo/secondPart/MultSigWallet.sol\":3565:3577  transactions */\n      0x04\n        /* \"solidity-study-demo/secondPart/MultSigWallet.sol\":3578:3586  _txIndex */\n      dup5\n        /* \"solidity-study-demo/secondPart/MultSigWallet.sol\":3565:3587  transactions[_txIndex] */\n      dup2\n      sload\n      dup2\n      lt\n      tag_91\n      jumpi\n      tag_92\n      tag_85\n      jump\t// in\n    tag_92:\n    tag_91:\n      swap1\n      0x00\n      mstore\n      keccak256(0x00, 0x20)\n      swap1\n      0x05\n      mul\n      add\n        /* \"solidity-study-demo/secondPart/MultSigWallet.sol\":3531:3587  Transaction storage transaction = transactions[_txIndex] */\n      swap1\n      pop\n        /* \"solidity-study-demo/secondPart/MultSigWallet.sol\":3606:3617  isConfirmed */\n      0x03\n        /* \"solidity-study-demo/secondPart/MultSigWallet.sol\":3606:3627  isConfirmed[_txIndex] */\n      0x00\n        /* \"solidity-study-demo/secondPart/MultSigWallet.sol\":3618:3626  _txIndex */\n      dup6\n        /* \"solidity-study-demo/secondPart/MultSigWallet.sol\":3606:3627  isConfirmed[_txIndex] */\n      dup2\n      mstore\n      0x20\n      add\n      swap1\n      dup2\n      mstore\n      0x20\n      add\n      0x00\n      keccak256\n        /* \"solidity-study-demo/secondPart/MultSigWallet.sol\":3606:3639  isConfirmed[_txIndex][msg.sender] */\n      0x00\n        /* \"solidity-study-demo/secondPart/MultSigWallet.sol\":3628:3638  msg.sender */\n      caller\n        /* \"solidity-study-demo/secondPart/MultSigWallet.sol\":3606:3639  isConfirmed[_txIndex][msg.sender] */\n      0xffffffffffffffffffffffffffffffffffffffff\n      and\n      0xffffffffffffffffffffffffffffffffffffffff\n      and\n      dup2\n      mstore\n      0x20\n      add\n      swap1\n      dup2\n      mstore\n      0x20\n      add\n      0x00\n      keccak256\n      0x00\n      swap1\n      sload\n      swap1\n      0x0100\n      exp\n      swap1\n      div\n      0xff\n      and\n        /* \"solidity-study-demo/secondPart/MultSigWallet.sol\":3598:3660  require(isConfirmed[_txIndex][msg.sender], \"tx not confirmed\") */\n      tag_94\n      jumpi\n      mload(0x40)\n      0x08c379a000000000000000000000000000000000000000000000000000000000\n      dup2\n      mstore\n      0x04\n      add\n      tag_95\n      swap1\n      tag_96\n      jump\t// in\n    tag_95:\n      mload(0x40)\n      dup1\n      swap2\n      sub\n      swap1\n      revert\n    tag_94:\n        /* \"solidity-study-demo/secondPart/MultSigWallet.sol\":3703:3704  1 */\n      0x01\n        /* \"solidity-study-demo/secondPart/MultSigWallet.sol\":3671:3682  transaction */\n      dup2\n        /* \"solidity-study-demo/secondPart/MultSigWallet.sol\":3671:3699  transaction.numConfirmations */\n      0x04\n      add\n      0x00\n        /* \"solidity-study-demo/secondPart/MultSigWallet.sol\":3671:3704  transaction.numConfirmations -= 1 */\n      dup3\n      dup3\n      sload\n      tag_97\n      swap2\n      swap1\n      tag_98\n      jump\t// in\n    tag_97:\n      swap3\n      pop\n      pop\n      dup2\n      swap1\n      sstore\n      pop\n        /* \"solidity-study-demo/secondPart/MultSigWallet.sol\":3751:3756  false */\n      0x00\n        /* \"solidity-study-demo/secondPart/MultSigWallet.sol\":3715:3726  isConfirmed */\n      0x03\n        /* \"solidity-study-demo/secondPart/MultSigWallet.sol\":3715:3736  isConfirmed[_txIndex] */\n      0x00\n        /* \"solidity-study-demo/secondPart/MultSigWallet.sol\":3727:3735  _txIndex */\n      dup7\n        /* \"solidity-study-demo/secondPart/MultSigWallet.sol\":3715:3736  isConfirmed[_txIndex] */\n      dup2\n      mstore\n      0x20\n      add\n      swap1\n      dup2\n      mstore\n      0x20\n      add\n      0x00\n      keccak256\n        /* \"solidity-study-demo/secondPart/MultSigWallet.sol\":3715:3748  isConfirmed[_txIndex][msg.sender] */\n      0x00\n        /* \"solidity-study-demo/secondPart/MultSigWallet.sol\":3737:3747  msg.sender */\n      caller\n        /* \"solidity-study-demo/secondPart/MultSigWallet.sol\":3715:3748  isConfirmed[_txIndex][msg.sender] */\n      0xffffffffffffffffffffffffffffffffffffffff\n      and\n      0xffffffffffffffffffffffffffffffffffffffff\n      and\n      dup2\n      mstore\n      0x20\n      add\n      swap1\n      dup2\n      mstore\n      0x20\n      add\n      0x00\n      keccak256\n      0x00\n        /* \"solidity-study-demo/secondPart/MultSigWallet.sol\":3715:3756  isConfirmed[_txIndex][msg.sender] = false */\n      0x0100\n      exp\n      dup2\n      sload\n      dup2\n      0xff\n      mul\n      not\n      and\n      swap1\n      dup4\n      iszero\n      iszero\n      mul\n      or\n      swap1\n      sstore\n      pop\n        /* \"solidity-study-demo/secondPart/MultSigWallet.sol\":3803:3811  _txIndex */\n      dup4\n        /* \"solidity-study-demo/secondPart/MultSigWallet.sol\":3791:3801  msg.sender */\n      caller\n        /* \"solidity-study-demo/secondPart/MultSigWallet.sol\":3772:3812  RevokeConfirmation(msg.sender, _txIndex) */\n      0xffffffffffffffffffffffffffffffffffffffff\n      and\n      0xf0dca620e2e81f7841d07bcc105e1704fb01475b278a9d4c236e1c62945edd55\n      mload(0x40)\n      mload(0x40)\n      dup1\n      swap2\n      sub\n      swap1\n      log3\n        /* \"solidity-study-demo/secondPart/MultSigWallet.sol\":3520:3820  {... */\n      pop\n        /* \"solidity-study-demo/secondPart/MultSigWallet.sol\":1130:1131  _ */\n      pop\n        /* \"solidity-study-demo/secondPart/MultSigWallet.sol\":998:999  _ */\n      pop\n        /* \"solidity-study-demo/secondPart/MultSigWallet.sol\":3378:3820  function revokeConfirmation(uint _txIndex)... */\n      pop\n      jump\t// out\n        /* \"solidity-study-demo/secondPart/MultSigWallet.sol\":560:599  mapping(address => bool) public isOwner */\n    tag_33:\n      mstore(0x20, 0x01)\n      dup1\n      0x00\n      mstore\n      keccak256(0x00, 0x40)\n      0x00\n      swap2\n      pop\n      sload\n      swap1\n      0x0100\n      exp\n      swap1\n      div\n      0xff\n      and\n      dup2\n      jump\t// out\n        /* \"solidity-study-demo/secondPart/MultSigWallet.sol\":3928:4451  function getTransaction(uint _txIndex)... */\n    tag_39:\n        /* \"solidity-study-demo/secondPart/MultSigWallet.sol\":4029:4039  address to */\n      0x00\n        /* \"solidity-study-demo/secondPart/MultSigWallet.sol\":4054:4064  uint value */\n      dup1\n        /* \"solidity-study-demo/secondPart/MultSigWallet.sol\":4079:4096  bytes memory data */\n      0x60\n        /* \"solidity-study-demo/secondPart/MultSigWallet.sol\":4111:4124  bool executed */\n      0x00\n        /* \"solidity-study-demo/secondPart/MultSigWallet.sol\":4139:4160  uint numConfirmations */\n      dup1\n        /* \"solidity-study-demo/secondPart/MultSigWallet.sol\":4188:4219  Transaction storage transaction */\n      0x00\n        /* \"solidity-study-demo/secondPart/MultSigWallet.sol\":4222:4234  transactions */\n      0x04\n        /* \"solidity-study-demo/secondPart/MultSigWallet.sol\":4235:4243  _txIndex */\n      dup8\n        /* \"solidity-study-demo/secondPart/MultSigWallet.sol\":4222:4244  transactions[_txIndex] */\n      dup2\n      sload\n      dup2\n      lt\n      tag_100\n      jumpi\n      tag_101\n      tag_85\n      jump\t// in\n    tag_101:\n    tag_100:\n      swap1\n      0x00\n      mstore\n      keccak256(0x00, 0x20)\n      swap1\n      0x05\n      mul\n      add\n        /* \"solidity-study-demo/secondPart/MultSigWallet.sol\":4188:4244  Transaction storage transaction = transactions[_txIndex] */\n      swap1\n      pop\n        /* \"solidity-study-demo/secondPart/MultSigWallet.sol\":4277:4288  transaction */\n      dup1\n        /* \"solidity-study-demo/secondPart/MultSigWallet.sol\":4277:4291  transaction.to */\n      0x00\n      add\n      0x00\n      swap1\n      sload\n      swap1\n      0x0100\n      exp\n      swap1\n      div\n      0xffffffffffffffffffffffffffffffffffffffff\n      and\n        /* \"solidity-study-demo/secondPart/MultSigWallet.sol\":4306:4317  transaction */\n      dup2\n        /* \"solidity-study-demo/secondPart/MultSigWallet.sol\":4306:4323  transaction.value */\n      0x01\n      add\n      sload\n        /* \"solidity-study-demo/secondPart/MultSigWallet.sol\":4338:4349  transaction */\n      dup3\n        /* \"solidity-study-demo/secondPart/MultSigWallet.sol\":4338:4354  transaction.data */\n      0x02\n      add\n        /* \"solidity-study-demo/secondPart/MultSigWallet.sol\":4369:4380  transaction */\n      dup4\n        /* \"solidity-study-demo/secondPart/MultSigWallet.sol\":4369:4389  transaction.executed */\n      0x03\n      add\n      0x00\n      swap1\n      sload\n      swap1\n      0x0100\n      exp\n      swap1\n      div\n      0xff\n      and\n        /* \"solidity-study-demo/secondPart/MultSigWallet.sol\":4404:4415  transaction */\n      dup5\n        /* \"solidity-study-demo/secondPart/MultSigWallet.sol\":4404:4432  transaction.numConfirmations */\n      0x04\n      add\n      sload\n        /* \"solidity-study-demo/secondPart/MultSigWallet.sol\":4255:4443  return (... */\n      dup3\n      dup1\n      sload\n      tag_103\n      swap1\n      tag_104\n      jump\t// in\n    tag_103:\n      dup1\n      0x1f\n      add\n      0x20\n      dup1\n      swap2\n      div\n      mul\n      0x20\n      add\n      mload(0x40)\n      swap1\n      dup2\n      add\n      0x40\n      mstore\n      dup1\n      swap3\n      swap2\n      swap1\n      dup2\n      dup2\n      mstore\n      0x20\n      add\n      dup3\n      dup1\n      sload\n      tag_105\n      swap1\n      tag_104\n      jump\t// in\n    tag_105:\n      dup1\n      iszero\n      tag_106\n      jumpi\n      dup1\n      0x1f\n      lt\n      tag_107\n      jumpi\n      0x0100\n      dup1\n      dup4\n      sload\n      div\n      mul\n      dup4\n      mstore\n      swap2\n      0x20\n      add\n      swap2\n      jump(tag_106)\n    tag_107:\n      dup3\n      add\n      swap2\n      swap1\n      0x00\n      mstore\n      keccak256(0x00, 0x20)\n      swap1\n    tag_108:\n      dup2\n      sload\n      dup2\n      mstore\n      swap1\n      0x01\n      add\n      swap1\n      0x20\n      add\n      dup1\n      dup4\n      gt\n      tag_108\n      jumpi\n      dup3\n      swap1\n      sub\n      0x1f\n      and\n      dup3\n      add\n      swap2\n    tag_106:\n      pop\n      pop\n      pop\n      pop\n      pop\n      swap3\n      pop\n      swap6\n      pop\n      swap6\n      pop\n      swap6\n      pop\n      swap6\n      pop\n      swap6\n      pop\n      pop\n        /* \"solidity-study-demo/secondPart/MultSigWallet.sol\":3928:4451  function getTransaction(uint _txIndex)... */\n      swap2\n      swap4\n      swap6\n      swap1\n      swap3\n      swap5\n      pop\n      jump\t// out\n        /* \"solidity-study-demo/secondPart/MultSigWallet.sol\":805:865  mapping(uint => mapping(address => bool)) public isConfirmed */\n    tag_46:\n      mstore(0x20, 0x03)\n      dup2\n      0x00\n      mstore\n      mstore(0x20, keccak256(0x00, 0x40))\n      dup1\n      0x00\n      mstore\n      keccak256(0x00, 0x40)\n      0x00\n      swap2\n      pop\n      swap2\n      pop\n      swap1\n      sload\n      swap1\n      0x0100\n      exp\n      swap1\n      div\n      0xff\n      and\n      dup2\n      jump\t// out\n        /* \"solidity-study-demo/secondPart/MultSigWallet.sol\":872:905  Transaction[] public transactions */\n    tag_51:\n      0x04\n      dup2\n      dup2\n      sload\n      dup2\n      lt\n      tag_109\n      jumpi\n      0x00\n      dup1\n      revert\n    tag_109:\n      swap1\n      0x00\n      mstore\n      keccak256(0x00, 0x20)\n      swap1\n      0x05\n      mul\n      add\n      0x00\n      swap2\n      pop\n      swap1\n      pop\n      dup1\n      0x00\n      add\n      0x00\n      swap1\n      sload\n      swap1\n      0x0100\n      exp\n      swap1\n      div\n      0xffffffffffffffffffffffffffffffffffffffff\n      and\n      swap1\n      dup1\n      0x01\n      add\n      sload\n      swap1\n      dup1\n      0x02\n      add\n      dup1\n      sload\n      tag_111\n      swap1\n      tag_104\n      jump\t// in\n    tag_111:\n      dup1\n      0x1f\n      add\n      0x20\n      dup1\n      swap2\n      div\n      mul\n      0x20\n      add\n      mload(0x40)\n      swap1\n      dup2\n      add\n      0x40\n      mstore\n      dup1\n      swap3\n      swap2\n      swap1\n      dup2\n      dup2\n      mstore\n      0x20\n      add\n      dup3\n      dup1\n      sload\n      tag_112\n      swap1\n      tag_104\n      jump\t// in\n    tag_112:\n      dup1\n      iszero\n      tag_113\n      jumpi\n      dup1\n      0x1f\n      lt\n      tag_114\n      jumpi\n      0x0100\n      dup1\n      dup4\n      sload\n      div\n      mul\n      dup4\n      mstore\n      swap2\n      0x20\n      add\n      swap2\n      jump(tag_113)\n    tag_114:\n      dup3\n      add\n      swap2\n      swap1\n      0x00\n      mstore\n      keccak256(0x00, 0x20)\n      swap1\n    tag_115:\n      dup2\n      sload\n      dup2\n      mstore\n      swap1\n      0x01\n      add\n      swap1\n      0x20\n      add\n      dup1\n      dup4\n      gt\n      tag_115\n      jumpi\n      dup3\n      swap1\n      sub\n      0x1f\n      and\n      dup3\n      add\n      swap2\n    tag_113:\n      pop\n      pop\n      pop\n      pop\n      pop\n      swap1\n      dup1\n      0x03\n      add\n      0x00\n      swap1\n      sload\n      swap1\n      0x0100\n      exp\n      swap1\n      div\n      0xff\n      and\n      swap1\n      dup1\n      0x04\n      add\n      sload\n      swap1\n      pop\n      dup6\n      jump\t// out\n        /* \"solidity-study-demo/secondPart/MultSigWallet.sol\":3828:3920  function getOwners() public view returns (address[] memory) {... */\n    tag_55:\n        /* \"solidity-study-demo/secondPart/MultSigWallet.sol\":3870:3886  address[] memory */\n      0x60\n        /* \"solidity-study-demo/secondPart/MultSigWallet.sol\":3906:3912  owners */\n      0x00\n        /* \"solidity-study-demo/secondPart/MultSigWallet.sol\":3899:3912  return owners */\n      dup1\n      sload\n      dup1\n      0x20\n      mul\n      0x20\n      add\n      mload(0x40)\n      swap1\n      dup2\n      add\n      0x40\n      mstore\n      dup1\n      swap3\n      swap2\n      swap1\n      dup2\n      dup2\n      mstore\n      0x20\n      add\n      dup3\n      dup1\n      sload\n      dup1\n      iszero\n      tag_117\n      jumpi\n      0x20\n      mul\n      dup3\n      add\n      swap2\n      swap1\n      0x00\n      mstore\n      keccak256(0x00, 0x20)\n      swap1\n    tag_118:\n      dup2\n      0x00\n      swap1\n      sload\n      swap1\n      0x0100\n      exp\n      swap1\n      div\n      0xffffffffffffffffffffffffffffffffffffffff\n      and\n      0xffffffffffffffffffffffffffffffffffffffff\n      and\n      dup2\n      mstore\n      0x20\n      add\n      swap1\n      0x01\n      add\n      swap1\n      dup1\n      dup4\n      gt\n      tag_118\n      jumpi\n    tag_117:\n      pop\n      pop\n      pop\n      pop\n      pop\n      swap1\n      pop\n        /* \"solidity-study-demo/secondPart/MultSigWallet.sol\":3828:3920  function getOwners() public view returns (address[] memory) {... */\n      swap1\n      jump\t// out\n        /* \"solidity-study-demo/secondPart/MultSigWallet.sol\":2767:3370  function confirmTransaction(uint _txIndex)... */\n    tag_61:\n        /* \"solidity-study-demo/secondPart/MultSigWallet.sol\":954:961  isOwner */\n      0x01\n        /* \"solidity-study-demo/secondPart/MultSigWallet.sol\":954:973  isOwner[msg.sender] */\n      0x00\n        /* \"solidity-study-demo/secondPart/MultSigWallet.sol\":962:972  msg.sender */\n      caller\n        /* \"solidity-study-demo/secondPart/MultSigWallet.sol\":954:973  isOwner[msg.sender] */\n      0xffffffffffffffffffffffffffffffffffffffff\n      and\n      0xffffffffffffffffffffffffffffffffffffffff\n      and\n      dup2\n      mstore\n      0x20\n      add\n      swap1\n      dup2\n      mstore\n      0x20\n      add\n      0x00\n      keccak256\n      0x00\n      swap1\n      sload\n      swap1\n      0x0100\n      exp\n      swap1\n      div\n      0xff\n      and\n        /* \"solidity-study-demo/secondPart/MultSigWallet.sol\":946:987  require(isOwner[msg.sender], \"not owner\") */\n      tag_120\n      jumpi\n      mload(0x40)\n      0x08c379a000000000000000000000000000000000000000000000000000000000\n      dup2\n      mstore\n      0x04\n      add\n      tag_121\n      swap1\n      tag_77\n      jump\t// in\n    tag_121:\n      mload(0x40)\n      dup1\n      swap2\n      sub\n      swap1\n      revert\n    tag_120:\n        /* \"solidity-study-demo/secondPart/MultSigWallet.sol\":2863:2871  _txIndex */\n      dup1\n        /* \"solidity-study-demo/secondPart/MultSigWallet.sol\":1078:1090  transactions */\n      0x04\n        /* \"solidity-study-demo/secondPart/MultSigWallet.sol\":1078:1097  transactions.length */\n      dup1\n      sload\n      swap1\n      pop\n        /* \"solidity-study-demo/secondPart/MultSigWallet.sol\":1067:1075  _txIndex */\n      dup2\n        /* \"solidity-study-demo/secondPart/MultSigWallet.sol\":1067:1097  _txIndex < transactions.length */\n      lt\n        /* \"solidity-study-demo/secondPart/MultSigWallet.sol\":1059:1119  require(_txIndex < transactions.length, \"tx does not exist\") */\n      tag_123\n      jumpi\n      mload(0x40)\n      0x08c379a000000000000000000000000000000000000000000000000000000000\n      dup2\n      mstore\n      0x04\n      add\n      tag_124\n      swap1\n      tag_81\n      jump\t// in\n    tag_124:\n      mload(0x40)\n      dup1\n      swap2\n      sub\n      swap1\n      revert\n    tag_123:\n        /* \"solidity-study-demo/secondPart/MultSigWallet.sol\":2894:2902  _txIndex */\n      dup2\n        /* \"solidity-study-demo/secondPart/MultSigWallet.sol\":1203:1215  transactions */\n      0x04\n        /* \"solidity-study-demo/secondPart/MultSigWallet.sol\":1216:1224  _txIndex */\n      dup2\n        /* \"solidity-study-demo/secondPart/MultSigWallet.sol\":1203:1225  transactions[_txIndex] */\n      dup2\n      sload\n      dup2\n      lt\n      tag_126\n      jumpi\n      tag_127\n      tag_85\n      jump\t// in\n    tag_127:\n    tag_126:\n      swap1\n      0x00\n      mstore\n      keccak256(0x00, 0x20)\n      swap1\n      0x05\n      mul\n      add\n        /* \"solidity-study-demo/secondPart/MultSigWallet.sol\":1203:1234  transactions[_txIndex].executed */\n      0x03\n      add\n      0x00\n      swap1\n      sload\n      swap1\n      0x0100\n      exp\n      swap1\n      div\n      0xff\n      and\n        /* \"solidity-study-demo/secondPart/MultSigWallet.sol\":1202:1234  !transactions[_txIndex].executed */\n      iszero\n        /* \"solidity-study-demo/secondPart/MultSigWallet.sol\":1194:1258  require(!transactions[_txIndex].executed, \"tx already executed\") */\n      tag_129\n      jumpi\n      mload(0x40)\n      0x08c379a000000000000000000000000000000000000000000000000000000000\n      dup2\n      mstore\n      0x04\n      add\n      tag_130\n      swap1\n      tag_89\n      jump\t// in\n    tag_130:\n      mload(0x40)\n      dup1\n      swap2\n      sub\n      swap1\n      revert\n    tag_129:\n        /* \"solidity-study-demo/secondPart/MultSigWallet.sol\":2920:2951  Transaction storage transaction */\n      0x00\n        /* \"solidity-study-demo/secondPart/MultSigWallet.sol\":2954:2966  transactions */\n      0x04\n        /* \"solidity-study-demo/secondPart/MultSigWallet.sol\":2967:2975  _txIndex */\n      dup5\n        /* \"solidity-study-demo/secondPart/MultSigWallet.sol\":2954:2976  transactions[_txIndex] */\n      dup2\n      sload\n      dup2\n      lt\n      tag_132\n      jumpi\n      tag_133\n      tag_85\n      jump\t// in\n    tag_133:\n    tag_132:\n      swap1\n      0x00\n      mstore\n      keccak256(0x00, 0x20)\n      swap1\n      0x05\n      mul\n      add\n        /* \"solidity-study-demo/secondPart/MultSigWallet.sol\":2920:2976  Transaction storage transaction = transactions[_txIndex] */\n      swap1\n      pop\n        /* \"solidity-study-demo/secondPart/MultSigWallet.sol\":3041:3065  numConfirmationsRequired */\n      sload(0x02)\n        /* \"solidity-study-demo/secondPart/MultSigWallet.sol\":3009:3020  transaction */\n      dup2\n        /* \"solidity-study-demo/secondPart/MultSigWallet.sol\":3009:3037  transaction.numConfirmations */\n      0x04\n      add\n      sload\n        /* \"solidity-study-demo/secondPart/MultSigWallet.sol\":3009:3065  transaction.numConfirmations >= numConfirmationsRequired */\n      lt\n      iszero\n        /* \"solidity-study-demo/secondPart/MultSigWallet.sol\":2987:3110  require(... */\n      tag_135\n      jumpi\n      mload(0x40)\n      0x08c379a000000000000000000000000000000000000000000000000000000000\n      dup2\n      mstore\n      0x04\n      add\n      tag_136\n      swap1\n      tag_137\n      jump\t// in\n    tag_136:\n      mload(0x40)\n      dup1\n      swap2\n      sub\n      swap1\n      revert\n    tag_135:\n        /* \"solidity-study-demo/secondPart/MultSigWallet.sol\":3144:3148  true */\n      0x01\n        /* \"solidity-study-demo/secondPart/MultSigWallet.sol\":3121:3132  transaction */\n      dup2\n        /* \"solidity-study-demo/secondPart/MultSigWallet.sol\":3121:3141  transaction.executed */\n      0x03\n      add\n      0x00\n        /* \"solidity-study-demo/secondPart/MultSigWallet.sol\":3121:3148  transaction.executed = true */\n      0x0100\n      exp\n      dup2\n      sload\n      dup2\n      0xff\n      mul\n      not\n      and\n      swap1\n      dup4\n      iszero\n      iszero\n      mul\n      or\n      swap1\n      sstore\n      pop\n        /* \"solidity-study-demo/secondPart/MultSigWallet.sol\":3160:3172  bool success */\n      0x00\n        /* \"solidity-study-demo/secondPart/MultSigWallet.sol\":3178:3189  transaction */\n      dup2\n        /* \"solidity-study-demo/secondPart/MultSigWallet.sol\":3178:3192  transaction.to */\n      0x00\n      add\n      0x00\n      swap1\n      sload\n      swap1\n      0x0100\n      exp\n      swap1\n      div\n      0xffffffffffffffffffffffffffffffffffffffff\n      and\n        /* \"solidity-study-demo/secondPart/MultSigWallet.sol\":3178:3197  transaction.to.call */\n      0xffffffffffffffffffffffffffffffffffffffff\n      and\n        /* \"solidity-study-demo/secondPart/MultSigWallet.sol\":3206:3217  transaction */\n      dup3\n        /* \"solidity-study-demo/secondPart/MultSigWallet.sol\":3206:3223  transaction.value */\n      0x01\n      add\n      sload\n        /* \"solidity-study-demo/secondPart/MultSigWallet.sol\":3239:3250  transaction */\n      dup4\n        /* \"solidity-study-demo/secondPart/MultSigWallet.sol\":3239:3255  transaction.data */\n      0x02\n      add\n        /* \"solidity-study-demo/secondPart/MultSigWallet.sol\":3178:3266  transaction.to.call{value : transaction.value}(... */\n      mload(0x40)\n      tag_138\n      swap2\n      swap1\n      tag_139\n      jump\t// in\n    tag_138:\n      0x00\n      mload(0x40)\n      dup1\n      dup4\n      sub\n      dup2\n      dup6\n      dup8\n      gas\n      call\n      swap3\n      pop\n      pop\n      pop\n      returndatasize\n      dup1\n      0x00\n      dup2\n      eq\n      tag_142\n      jumpi\n      mload(0x40)\n      swap2\n      pop\n      and(add(returndatasize, 0x3f), not(0x1f))\n      dup3\n      add\n      0x40\n      mstore\n      returndatasize\n      dup3\n      mstore\n      returndatasize\n      0x00\n      0x20\n      dup5\n      add\n      returndatacopy\n      jump(tag_141)\n    tag_142:\n      0x60\n      swap2\n      pop\n    tag_141:\n      pop\n        /* \"solidity-study-demo/secondPart/MultSigWallet.sol\":3159:3266  (bool success, ) = transaction.to.call{value : transaction.value}(... */\n      pop\n      swap1\n      pop\n        /* \"solidity-study-demo/secondPart/MultSigWallet.sol\":3285:3292  success */\n      dup1\n        /* \"solidity-study-demo/secondPart/MultSigWallet.sol\":3277:3306  require(success, \"tx failed\") */\n      tag_143\n      jumpi\n      mload(0x40)\n      0x08c379a000000000000000000000000000000000000000000000000000000000\n      dup2\n      mstore\n      0x04\n      add\n      tag_144\n      swap1\n      tag_145\n      jump\t// in\n    tag_144:\n      mload(0x40)\n      dup1\n      swap2\n      sub\n      swap1\n      revert\n    tag_143:\n        /* \"solidity-study-demo/secondPart/MultSigWallet.sol\":3353:3361  _txIndex */\n      dup5\n        /* \"solidity-study-demo/secondPart/MultSigWallet.sol\":3341:3351  msg.sender */\n      caller\n        /* \"solidity-study-demo/secondPart/MultSigWallet.sol\":3322:3362  ExecuteTransaction(msg.sender, _txIndex) */\n      0xffffffffffffffffffffffffffffffffffffffff\n      and\n      0x5445f318f4f5fcfb66592e68e0cc5822aa15664039bd5f0ffde24c5a8142b1ac\n      mload(0x40)\n      mload(0x40)\n      dup1\n      swap2\n      sub\n      swap1\n      log3\n        /* \"solidity-study-demo/secondPart/MultSigWallet.sol\":2909:3370  {... */\n      pop\n      pop\n        /* \"solidity-study-demo/secondPart/MultSigWallet.sol\":1130:1131  _ */\n      pop\n        /* \"solidity-study-demo/secondPart/MultSigWallet.sol\":998:999  _ */\n      pop\n        /* \"solidity-study-demo/secondPart/MultSigWallet.sol\":2767:3370  function confirmTransaction(uint _txIndex)... */\n      pop\n      jump\t// out\n        /* \"solidity-study-demo/secondPart/MultSigWallet.sol\":2238:2759  function submitTransaction(... */\n    tag_66:\n        /* \"solidity-study-demo/secondPart/MultSigWallet.sol\":954:961  isOwner */\n      0x01\n        /* \"solidity-study-demo/secondPart/MultSigWallet.sol\":954:973  isOwner[msg.sender] */\n      0x00\n        /* \"solidity-study-demo/secondPart/MultSigWallet.sol\":962:972  msg.sender */\n      caller\n        /* \"solidity-study-demo/secondPart/MultSigWallet.sol\":954:973  isOwner[msg.sender] */\n      0xffffffffffffffffffffffffffffffffffffffff\n      and\n      0xffffffffffffffffffffffffffffffffffffffff\n      and\n      dup2\n      mstore\n      0x20\n      add\n      swap1\n      dup2\n      mstore\n      0x20\n      add\n      0x00\n      keccak256\n      0x00\n      swap1\n      sload\n      swap1\n      0x0100\n      exp\n      swap1\n      div\n      0xff\n      and\n        /* \"solidity-study-demo/secondPart/MultSigWallet.sol\":946:987  require(isOwner[msg.sender], \"not owner\") */\n      tag_147\n      jumpi\n      mload(0x40)\n      0x08c379a000000000000000000000000000000000000000000000000000000000\n      dup2\n      mstore\n      0x04\n      add\n      tag_148\n      swap1\n      tag_77\n      jump\t// in\n    tag_148:\n      mload(0x40)\n      dup1\n      swap2\n      sub\n      swap1\n      revert\n    tag_147:\n        /* \"solidity-study-demo/secondPart/MultSigWallet.sol\":2396:2408  uint txIndex */\n      0x00\n        /* \"solidity-study-demo/secondPart/MultSigWallet.sol\":2411:2423  transactions */\n      0x04\n        /* \"solidity-study-demo/secondPart/MultSigWallet.sol\":2411:2430  transactions.length */\n      dup1\n      sload\n      swap1\n      pop\n        /* \"solidity-study-demo/secondPart/MultSigWallet.sol\":2396:2430  uint txIndex = transactions.length */\n      swap1\n      pop\n        /* \"solidity-study-demo/secondPart/MultSigWallet.sol\":2441:2453  transactions */\n      0x04\n        /* \"solidity-study-demo/secondPart/MultSigWallet.sol\":2473:2666  Transaction({... */\n      mload(0x40)\n      dup1\n      0xa0\n      add\n      0x40\n      mstore\n      dup1\n        /* \"solidity-study-demo/secondPart/MultSigWallet.sol\":2509:2512  _to */\n      dup7\n        /* \"solidity-study-demo/secondPart/MultSigWallet.sol\":2473:2666  Transaction({... */\n      0xffffffffffffffffffffffffffffffffffffffff\n      and\n      dup2\n      mstore\n      0x20\n      add\n        /* \"solidity-study-demo/secondPart/MultSigWallet.sol\":2539:2545  _value */\n      dup6\n        /* \"solidity-study-demo/secondPart/MultSigWallet.sol\":2473:2666  Transaction({... */\n      dup2\n      mstore\n      0x20\n      add\n        /* \"solidity-study-demo/secondPart/MultSigWallet.sol\":2571:2576  _data */\n      dup5\n        /* \"solidity-study-demo/secondPart/MultSigWallet.sol\":2473:2666  Transaction({... */\n      dup2\n      mstore\n      0x20\n      add\n        /* \"solidity-study-demo/secondPart/MultSigWallet.sol\":2606:2611  false */\n      0x00\n        /* \"solidity-study-demo/secondPart/MultSigWallet.sol\":2473:2666  Transaction({... */\n      iszero\n      iszero\n      dup2\n      mstore\n      0x20\n      add\n        /* \"solidity-study-demo/secondPart/MultSigWallet.sol\":2649:2650  0 */\n      0x00\n        /* \"solidity-study-demo/secondPart/MultSigWallet.sol\":2473:2666  Transaction({... */\n      dup2\n      mstore\n      pop\n        /* \"solidity-study-demo/secondPart/MultSigWallet.sol\":2441:2677  transactions.push(... */\n      swap1\n      dup1\n      0x01\n      dup2\n      sload\n      add\n      dup1\n      dup3\n      sstore\n      dup1\n      swap2\n      pop\n      pop\n      0x01\n      swap1\n      sub\n      swap1\n      0x00\n      mstore\n      keccak256(0x00, 0x20)\n      swap1\n      0x05\n      mul\n      add\n      0x00\n      swap1\n      swap2\n      swap1\n      swap2\n      swap1\n      swap2\n      pop\n      0x00\n      dup3\n      add\n      mload\n      dup2\n      0x00\n      add\n      exp(0x0100, 0x00)\n      dup2\n      sload\n      dup2\n      0xffffffffffffffffffffffffffffffffffffffff\n      mul\n      not\n      and\n      swap1\n      dup4\n      0xffffffffffffffffffffffffffffffffffffffff\n      and\n      mul\n      or\n      swap1\n      sstore\n      pop\n      0x20\n      dup3\n      add\n      mload\n      dup2\n      0x01\n      add\n      sstore\n      0x40\n      dup3\n      add\n      mload\n      dup2\n      0x02\n      add\n      swap1\n      dup1\n      mload\n      swap1\n      0x20\n      add\n      swap1\n      tag_151\n      swap3\n      swap2\n      swap1\n      tag_152\n      jump\t// in\n    tag_151:\n      pop\n      0x60\n      dup3\n      add\n      mload\n      dup2\n      0x03\n      add\n      exp(0x0100, 0x00)\n      dup2\n      sload\n      dup2\n      0xff\n      mul\n      not\n      and\n      swap1\n      dup4\n      iszero\n      iszero\n      mul\n      or\n      swap1\n      sstore\n      pop\n      0x80\n      dup3\n      add\n      mload\n      dup2\n      0x04\n      add\n      sstore\n      pop\n      pop\n        /* \"solidity-study-demo/secondPart/MultSigWallet.sol\":2732:2735  _to */\n      dup4\n        /* \"solidity-study-demo/secondPart/MultSigWallet.sol\":2693:2751  SubmitTransaction(msg.sender, txIndex, _to, _value, _data) */\n      0xffffffffffffffffffffffffffffffffffffffff\n      and\n        /* \"solidity-study-demo/secondPart/MultSigWallet.sol\":2723:2730  txIndex */\n      dup2\n        /* \"solidity-study-demo/secondPart/MultSigWallet.sol\":2711:2721  msg.sender */\n      caller\n        /* \"solidity-study-demo/secondPart/MultSigWallet.sol\":2693:2751  SubmitTransaction(msg.sender, txIndex, _to, _value, _data) */\n      0xffffffffffffffffffffffffffffffffffffffff\n      and\n      0xd5a05bf70715ad82a09a756320284a1b54c9ff74cd0f8cce6219e79b563fe59d\n        /* \"solidity-study-demo/secondPart/MultSigWallet.sol\":2737:2743  _value */\n      dup7\n        /* \"solidity-study-demo/secondPart/MultSigWallet.sol\":2745:2750  _data */\n      dup7\n        /* \"solidity-study-demo/secondPart/MultSigWallet.sol\":2693:2751  SubmitTransaction(msg.sender, txIndex, _to, _value, _data) */\n      mload(0x40)\n      tag_153\n      swap3\n      swap2\n      swap1\n      tag_154\n      jump\t// in\n    tag_153:\n      mload(0x40)\n      dup1\n      swap2\n      sub\n      swap1\n      log4\n        /* \"solidity-study-demo/secondPart/MultSigWallet.sol\":2385:2759  {... */\n      pop\n        /* \"solidity-study-demo/secondPart/MultSigWallet.sol\":2238:2759  function submitTransaction(... */\n      pop\n      pop\n      pop\n      jump\t// out\n        /* \"solidity-study-demo/secondPart/MultSigWallet.sol\":606:642  uint public numConfirmationsRequired */\n    tag_69:\n      sload(0x02)\n      dup2\n      jump\t// out\n    tag_152:\n      dup3\n      dup1\n      sload\n      tag_155\n      swap1\n      tag_104\n      jump\t// in\n    tag_155:\n      swap1\n      0x00\n      mstore\n      keccak256(0x00, 0x20)\n      swap1\n      0x1f\n      add\n      0x20\n      swap1\n      div\n      dup2\n      add\n      swap3\n      dup3\n      tag_157\n      jumpi\n      0x00\n      dup6\n      sstore\n      jump(tag_156)\n    tag_157:\n      dup3\n      0x1f\n      lt\n      tag_158\n      jumpi\n      dup1\n      mload\n      not(0xff)\n      and\n      dup4\n      dup1\n      add\n      or\n      dup6\n      sstore\n      jump(tag_156)\n    tag_158:\n      dup3\n      dup1\n      add\n      0x01\n      add\n      dup6\n      sstore\n      dup3\n      iszero\n      tag_156\n      jumpi\n      swap2\n      dup3\n      add\n    tag_159:\n      dup3\n      dup2\n      gt\n      iszero\n      tag_160\n      jumpi\n      dup3\n      mload\n      dup3\n      sstore\n      swap2\n      0x20\n      add\n      swap2\n      swap1\n      0x01\n      add\n      swap1\n      jump(tag_159)\n    tag_160:\n    tag_156:\n      pop\n      swap1\n      pop\n      tag_161\n      swap2\n      swap1\n      tag_162\n      jump\t// in\n    tag_161:\n      pop\n      swap1\n      jump\t// out\n    tag_162:\n    tag_163:\n      dup1\n      dup3\n      gt\n      iszero\n      tag_164\n      jumpi\n      0x00\n      dup2\n      0x00\n      swap1\n      sstore\n      pop\n      0x01\n      add\n      jump(tag_163)\n    tag_164:\n      pop\n      swap1\n      jump\t// out\n        /* \"#utility.yul\":7:84   */\n    tag_165:\n        /* \"#utility.yul\":44:51   */\n      0x00\n        /* \"#utility.yul\":73:78   */\n      dup2\n        /* \"#utility.yul\":62:78   */\n      swap1\n      pop\n        /* \"#utility.yul\":7:84   */\n      swap2\n      swap1\n      pop\n      jump\t// out\n        /* \"#utility.yul\":90:208   */\n    tag_166:\n        /* \"#utility.yul\":177:201   */\n      tag_221\n        /* \"#utility.yul\":195:200   */\n      dup2\n        /* \"#utility.yul\":177:201   */\n      tag_165\n      jump\t// in\n    tag_221:\n        /* \"#utility.yul\":172:175   */\n      dup3\n        /* \"#utility.yul\":165:202   */\n      mstore\n        /* \"#utility.yul\":90:208   */\n      pop\n      pop\n      jump\t// out\n        /* \"#utility.yul\":214:546   */\n    tag_17:\n        /* \"#utility.yul\":335:339   */\n      0x00\n        /* \"#utility.yul\":373:375   */\n      0x40\n        /* \"#utility.yul\":362:371   */\n      dup3\n        /* \"#utility.yul\":358:376   */\n      add\n        /* \"#utility.yul\":350:376   */\n      swap1\n      pop\n        /* \"#utility.yul\":386:457   */\n      tag_223\n        /* \"#utility.yul\":454:455   */\n      0x00\n        /* \"#utility.yul\":443:452   */\n      dup4\n        /* \"#utility.yul\":439:456   */\n      add\n        /* \"#utility.yul\":430:436   */\n      dup6\n        /* \"#utility.yul\":386:457   */\n      tag_166\n      jump\t// in\n    tag_223:\n        /* \"#utility.yul\":467:539   */\n      tag_224\n        /* \"#utility.yul\":535:537   */\n      0x20\n        /* \"#utility.yul\":524:533   */\n      dup4\n        /* \"#utility.yul\":520:538   */\n      add\n        /* \"#utility.yul\":511:517   */\n      dup5\n        /* \"#utility.yul\":467:539   */\n      tag_166\n      jump\t// in\n    tag_224:\n        /* \"#utility.yul\":214:546   */\n      swap4\n      swap3\n      pop\n      pop\n      pop\n      jump\t// out\n        /* \"#utility.yul\":552:627   */\n    tag_167:\n        /* \"#utility.yul\":585:591   */\n      0x00\n        /* \"#utility.yul\":618:620   */\n      0x40\n        /* \"#utility.yul\":612:621   */\n      mload\n        /* \"#utility.yul\":602:621   */\n      swap1\n      pop\n        /* \"#utility.yul\":552:627   */\n      swap1\n      jump\t// out\n        /* \"#utility.yul\":633:750   */\n    tag_168:\n        /* \"#utility.yul\":742:743   */\n      0x00\n        /* \"#utility.yul\":739:740   */\n      dup1\n        /* \"#utility.yul\":732:744   */\n      revert\n        /* \"#utility.yul\":756:873   */\n    tag_169:\n        /* \"#utility.yul\":865:866   */\n      0x00\n        /* \"#utility.yul\":862:863   */\n      dup1\n        /* \"#utility.yul\":855:867   */\n      revert\n        /* \"#utility.yul\":879:1001   */\n    tag_170:\n        /* \"#utility.yul\":952:976   */\n      tag_229\n        /* \"#utility.yul\":970:975   */\n      dup2\n        /* \"#utility.yul\":952:976   */\n      tag_165\n      jump\t// in\n    tag_229:\n        /* \"#utility.yul\":945:950   */\n      dup2\n        /* \"#utility.yul\":942:977   */\n      eq\n        /* \"#utility.yul\":932:995   */\n      tag_230\n      jumpi\n        /* \"#utility.yul\":991:992   */\n      0x00\n        /* \"#utility.yul\":988:989   */\n      dup1\n        /* \"#utility.yul\":981:993   */\n      revert\n        /* \"#utility.yul\":932:995   */\n    tag_230:\n        /* \"#utility.yul\":879:1001   */\n      pop\n      jump\t// out\n        /* \"#utility.yul\":1007:1146   */\n    tag_171:\n        /* \"#utility.yul\":1053:1058   */\n      0x00\n        /* \"#utility.yul\":1091:1097   */\n      dup2\n        /* \"#utility.yul\":1078:1098   */\n      calldataload\n        /* \"#utility.yul\":1069:1098   */\n      swap1\n      pop\n        /* \"#utility.yul\":1107:1140   */\n      tag_232\n        /* \"#utility.yul\":1134:1139   */\n      dup2\n        /* \"#utility.yul\":1107:1140   */\n      tag_170\n      jump\t// in\n    tag_232:\n        /* \"#utility.yul\":1007:1146   */\n      swap3\n      swap2\n      pop\n      pop\n      jump\t// out\n        /* \"#utility.yul\":1152:1481   */\n    tag_21:\n        /* \"#utility.yul\":1211:1217   */\n      0x00\n        /* \"#utility.yul\":1260:1262   */\n      0x20\n        /* \"#utility.yul\":1248:1257   */\n      dup3\n        /* \"#utility.yul\":1239:1246   */\n      dup5\n        /* \"#utility.yul\":1235:1258   */\n      sub\n        /* \"#utility.yul\":1231:1263   */\n      slt\n        /* \"#utility.yul\":1228:1347   */\n      iszero\n      tag_234\n      jumpi\n        /* \"#utility.yul\":1266:1345   */\n      tag_235\n      tag_168\n      jump\t// in\n    tag_235:\n        /* \"#utility.yul\":1228:1347   */\n    tag_234:\n        /* \"#utility.yul\":1386:1387   */\n      0x00\n        /* \"#utility.yul\":1411:1464   */\n      tag_236\n        /* \"#utility.yul\":1456:1463   */\n      dup5\n        /* \"#utility.yul\":1447:1453   */\n      dup3\n        /* \"#utility.yul\":1436:1445   */\n      dup6\n        /* \"#utility.yul\":1432:1454   */\n      add\n        /* \"#utility.yul\":1411:1464   */\n      tag_171\n      jump\t// in\n    tag_236:\n        /* \"#utility.yul\":1401:1464   */\n      swap2\n      pop\n        /* \"#utility.yul\":1357:1474   */\n      pop\n        /* \"#utility.yul\":1152:1481   */\n      swap3\n      swap2\n      pop\n      pop\n      jump\t// out\n        /* \"#utility.yul\":1487:1613   */\n    tag_172:\n        /* \"#utility.yul\":1524:1531   */\n      0x00\n        /* \"#utility.yul\":1564:1606   */\n      0xffffffffffffffffffffffffffffffffffffffff\n        /* \"#utility.yul\":1557:1562   */\n      dup3\n        /* \"#utility.yul\":1553:1607   */\n      and\n        /* \"#utility.yul\":1542:1607   */\n      swap1\n      pop\n        /* \"#utility.yul\":1487:1613   */\n      swap2\n      swap1\n      pop\n      jump\t// out\n        /* \"#utility.yul\":1619:1715   */\n    tag_173:\n        /* \"#utility.yul\":1656:1663   */\n      0x00\n        /* \"#utility.yul\":1685:1709   */\n      tag_239\n        /* \"#utility.yul\":1703:1708   */\n      dup3\n        /* \"#utility.yul\":1685:1709   */\n      tag_172\n      jump\t// in\n    tag_239:\n        /* \"#utility.yul\":1674:1709   */\n      swap1\n      pop\n        /* \"#utility.yul\":1619:1715   */\n      swap2\n      swap1\n      pop\n      jump\t// out\n        /* \"#utility.yul\":1721:1839   */\n    tag_174:\n        /* \"#utility.yul\":1808:1832   */\n      tag_241\n        /* \"#utility.yul\":1826:1831   */\n      dup2\n        /* \"#utility.yul\":1808:1832   */\n      tag_173\n      jump\t// in\n    tag_241:\n        /* \"#utility.yul\":1803:1806   */\n      dup3\n        /* \"#utility.yul\":1796:1833   */\n      mstore\n        /* \"#utility.yul\":1721:1839   */\n      pop\n      pop\n      jump\t// out\n        /* \"#utility.yul\":1845:2067   */\n    tag_24:\n        /* \"#utility.yul\":1938:1942   */\n      0x00\n        /* \"#utility.yul\":1976:1978   */\n      0x20\n        /* \"#utility.yul\":1965:1974   */\n      dup3\n        /* \"#utility.yul\":1961:1979   */\n      add\n        /* \"#utility.yul\":1953:1979   */\n      swap1\n      pop\n        /* \"#utility.yul\":1989:2060   */\n      tag_243\n        /* \"#utility.yul\":2057:2058   */\n      0x00\n        /* \"#utility.yul\":2046:2055   */\n      dup4\n        /* \"#utility.yul\":2042:2059   */\n      add\n        /* \"#utility.yul\":2033:2039   */\n      dup5\n        /* \"#utility.yul\":1989:2060   */\n      tag_174\n      jump\t// in\n    tag_243:\n        /* \"#utility.yul\":1845:2067   */\n      swap3\n      swap2\n      pop\n      pop\n      jump\t// out\n        /* \"#utility.yul\":2073:2195   */\n    tag_175:\n        /* \"#utility.yul\":2146:2170   */\n      tag_245\n        /* \"#utility.yul\":2164:2169   */\n      dup2\n        /* \"#utility.yul\":2146:2170   */\n      tag_173\n      jump\t// in\n    tag_245:\n        /* \"#utility.yul\":2139:2144   */\n      dup2\n        /* \"#utility.yul\":2136:2171   */\n      eq\n        /* \"#utility.yul\":2126:2189   */\n      tag_246\n      jumpi\n        /* \"#utility.yul\":2185:2186   */\n      0x00\n        /* \"#utility.yul\":2182:2183   */\n      dup1\n        /* \"#utility.yul\":2175:2187   */\n      revert\n        /* \"#utility.yul\":2126:2189   */\n    tag_246:\n        /* \"#utility.yul\":2073:2195   */\n      pop\n      jump\t// out\n        /* \"#utility.yul\":2201:2340   */\n    tag_176:\n        /* \"#utility.yul\":2247:2252   */\n      0x00\n        /* \"#utility.yul\":2285:2291   */\n      dup2\n        /* \"#utility.yul\":2272:2292   */\n      calldataload\n        /* \"#utility.yul\":2263:2292   */\n      swap1\n      pop\n        /* \"#utility.yul\":2301:2334   */\n      tag_248\n        /* \"#utility.yul\":2328:2333   */\n      dup2\n        /* \"#utility.yul\":2301:2334   */\n      tag_175\n      jump\t// in\n    tag_248:\n        /* \"#utility.yul\":2201:2340   */\n      swap3\n      swap2\n      pop\n      pop\n      jump\t// out\n        /* \"#utility.yul\":2346:2675   */\n    tag_32:\n        /* \"#utility.yul\":2405:2411   */\n      0x00\n        /* \"#utility.yul\":2454:2456   */\n      0x20\n        /* \"#utility.yul\":2442:2451   */\n      dup3\n        /* \"#utility.yul\":2433:2440   */\n      dup5\n        /* \"#utility.yul\":2429:2452   */\n      sub\n        /* \"#utility.yul\":2425:2457   */\n      slt\n        /* \"#utility.yul\":2422:2541   */\n      iszero\n      tag_250\n      jumpi\n        /* \"#utility.yul\":2460:2539   */\n      tag_251\n      tag_168\n      jump\t// in\n    tag_251:\n        /* \"#utility.yul\":2422:2541   */\n    tag_250:\n        /* \"#utility.yul\":2580:2581   */\n      0x00\n        /* \"#utility.yul\":2605:2658   */\n      tag_252\n        /* \"#utility.yul\":2650:2657   */\n      dup5\n        /* \"#utility.yul\":2641:2647   */\n      dup3\n        /* \"#utility.yul\":2630:2639   */\n      dup6\n        /* \"#utility.yul\":2626:2648   */\n      add\n        /* \"#utility.yul\":2605:2658   */\n      tag_176\n      jump\t// in\n    tag_252:\n        /* \"#utility.yul\":2595:2658   */\n      swap2\n      pop\n        /* \"#utility.yul\":2551:2668   */\n      pop\n        /* \"#utility.yul\":2346:2675   */\n      swap3\n      swap2\n      pop\n      pop\n      jump\t// out\n        /* \"#utility.yul\":2681:2771   */\n    tag_177:\n        /* \"#utility.yul\":2715:2722   */\n      0x00\n        /* \"#utility.yul\":2758:2763   */\n      dup2\n        /* \"#utility.yul\":2751:2764   */\n      iszero\n        /* \"#utility.yul\":2744:2765   */\n      iszero\n        /* \"#utility.yul\":2733:2765   */\n      swap1\n      pop\n        /* \"#utility.yul\":2681:2771   */\n      swap2\n      swap1\n      pop\n      jump\t// out\n        /* \"#utility.yul\":2777:2886   */\n    tag_178:\n        /* \"#utility.yul\":2858:2879   */\n      tag_255\n        /* \"#utility.yul\":2873:2878   */\n      dup2\n        /* \"#utility.yul\":2858:2879   */\n      tag_177\n      jump\t// in\n    tag_255:\n        /* \"#utility.yul\":2853:2856   */\n      dup3\n        /* \"#utility.yul\":2846:2880   */\n      mstore\n        /* \"#utility.yul\":2777:2886   */\n      pop\n      pop\n      jump\t// out\n        /* \"#utility.yul\":2892:3102   */\n    tag_35:\n        /* \"#utility.yul\":2979:2983   */\n      0x00\n        /* \"#utility.yul\":3017:3019   */\n      0x20\n        /* \"#utility.yul\":3006:3015   */\n      dup3\n        /* \"#utility.yul\":3002:3020   */\n      add\n        /* \"#utility.yul\":2994:3020   */\n      swap1\n      pop\n        /* \"#utility.yul\":3030:3095   */\n      tag_257\n        /* \"#utility.yul\":3092:3093   */\n      0x00\n        /* \"#utility.yul\":3081:3090   */\n      dup4\n        /* \"#utility.yul\":3077:3094   */\n      add\n        /* \"#utility.yul\":3068:3074   */\n      dup5\n        /* \"#utility.yul\":3030:3095   */\n      tag_178\n      jump\t// in\n    tag_257:\n        /* \"#utility.yul\":2892:3102   */\n      swap3\n      swap2\n      pop\n      pop\n      jump\t// out\n        /* \"#utility.yul\":3108:3206   */\n    tag_179:\n        /* \"#utility.yul\":3159:3165   */\n      0x00\n        /* \"#utility.yul\":3193:3198   */\n      dup2\n        /* \"#utility.yul\":3187:3199   */\n      mload\n        /* \"#utility.yul\":3177:3199   */\n      swap1\n      pop\n        /* \"#utility.yul\":3108:3206   */\n      swap2\n      swap1\n      pop\n      jump\t// out\n        /* \"#utility.yul\":3212:3380   */\n    tag_180:\n        /* \"#utility.yul\":3295:3306   */\n      0x00\n        /* \"#utility.yul\":3329:3335   */\n      dup3\n        /* \"#utility.yul\":3324:3327   */\n      dup3\n        /* \"#utility.yul\":3317:3336   */\n      mstore\n        /* \"#utility.yul\":3369:3373   */\n      0x20\n        /* \"#utility.yul\":3364:3367   */\n      dup3\n        /* \"#utility.yul\":3360:3374   */\n      add\n        /* \"#utility.yul\":3345:3374   */\n      swap1\n      pop\n        /* \"#utility.yul\":3212:3380   */\n      swap3\n      swap2\n      pop\n      pop\n      jump\t// out\n        /* \"#utility.yul\":3386:3693   */\n    tag_181:\n        /* \"#utility.yul\":3454:3455   */\n      0x00\n        /* \"#utility.yul\":3464:3577   */\n    tag_261:\n        /* \"#utility.yul\":3478:3484   */\n      dup4\n        /* \"#utility.yul\":3475:3476   */\n      dup2\n        /* \"#utility.yul\":3472:3485   */\n      lt\n        /* \"#utility.yul\":3464:3577   */\n      iszero\n      tag_263\n      jumpi\n        /* \"#utility.yul\":3563:3564   */\n      dup1\n        /* \"#utility.yul\":3558:3561   */\n      dup3\n        /* \"#utility.yul\":3554:3565   */\n      add\n        /* \"#utility.yul\":3548:3566   */\n      mload\n        /* \"#utility.yul\":3544:3545   */\n      dup2\n        /* \"#utility.yul\":3539:3542   */\n      dup5\n        /* \"#utility.yul\":3535:3546   */\n      add\n        /* \"#utility.yul\":3528:3567   */\n      mstore\n        /* \"#utility.yul\":3500:3502   */\n      0x20\n        /* \"#utility.yul\":3497:3498   */\n      dup2\n        /* \"#utility.yul\":3493:3503   */\n      add\n        /* \"#utility.yul\":3488:3503   */\n      swap1\n      pop\n        /* \"#utility.yul\":3464:3577   */\n      jump(tag_261)\n    tag_263:\n        /* \"#utility.yul\":3595:3601   */\n      dup4\n        /* \"#utility.yul\":3592:3593   */\n      dup2\n        /* \"#utility.yul\":3589:3602   */\n      gt\n        /* \"#utility.yul\":3586:3687   */\n      iszero\n      tag_264\n      jumpi\n        /* \"#utility.yul\":3675:3676   */\n      0x00\n        /* \"#utility.yul\":3666:3672   */\n      dup5\n        /* \"#utility.yul\":3661:3664   */\n      dup5\n        /* \"#utility.yul\":3657:3673   */\n      add\n        /* \"#utility.yul\":3650:3677   */\n      mstore\n        /* \"#utility.yul\":3586:3687   */\n    tag_264:\n        /* \"#utility.yul\":3435:3693   */\n      pop\n        /* \"#utility.yul\":3386:3693   */\n      pop\n      pop\n      pop\n      jump\t// out\n        /* \"#utility.yul\":3699:3801   */\n    tag_182:\n        /* \"#utility.yul\":3740:3746   */\n      0x00\n        /* \"#utility.yul\":3791:3793   */\n      0x1f\n        /* \"#utility.yul\":3787:3794   */\n      not\n        /* \"#utility.yul\":3782:3784   */\n      0x1f\n        /* \"#utility.yul\":3775:3780   */\n      dup4\n        /* \"#utility.yul\":3771:3785   */\n      add\n        /* \"#utility.yul\":3767:3795   */\n      and\n        /* \"#utility.yul\":3757:3795   */\n      swap1\n      pop\n        /* \"#utility.yul\":3699:3801   */\n      swap2\n      swap1\n      pop\n      jump\t// out\n        /* \"#utility.yul\":3807:4167   */\n    tag_183:\n        /* \"#utility.yul\":3893:3896   */\n      0x00\n        /* \"#utility.yul\":3921:3959   */\n      tag_267\n        /* \"#utility.yul\":3953:3958   */\n      dup3\n        /* \"#utility.yul\":3921:3959   */\n      tag_179\n      jump\t// in\n    tag_267:\n        /* \"#utility.yul\":3975:4045   */\n      tag_268\n        /* \"#utility.yul\":4038:4044   */\n      dup2\n        /* \"#utility.yul\":4033:4036   */\n      dup6\n        /* \"#utility.yul\":3975:4045   */\n      tag_180\n      jump\t// in\n    tag_268:\n        /* \"#utility.yul\":3968:4045   */\n      swap4\n      pop\n        /* \"#utility.yul\":4054:4106   */\n      tag_269\n        /* \"#utility.yul\":4099:4105   */\n      dup2\n        /* \"#utility.yul\":4094:4097   */\n      dup6\n        /* \"#utility.yul\":4087:4091   */\n      0x20\n        /* \"#utility.yul\":4080:4085   */\n      dup7\n        /* \"#utility.yul\":4076:4092   */\n      add\n        /* \"#utility.yul\":4054:4106   */\n      tag_181\n      jump\t// in\n    tag_269:\n        /* \"#utility.yul\":4131:4160   */\n      tag_270\n        /* \"#utility.yul\":4153:4159   */\n      dup2\n        /* \"#utility.yul\":4131:4160   */\n      tag_182\n      jump\t// in\n    tag_270:\n        /* \"#utility.yul\":4126:4129   */\n      dup5\n        /* \"#utility.yul\":4122:4161   */\n      add\n        /* \"#utility.yul\":4115:4161   */\n      swap2\n      pop\n        /* \"#utility.yul\":3897:4167   */\n      pop\n        /* \"#utility.yul\":3807:4167   */\n      swap3\n      swap2\n      pop\n      pop\n      jump\t// out\n        /* \"#utility.yul\":4173:4912   */\n    tag_41:\n        /* \"#utility.yul\":4390:4394   */\n      0x00\n        /* \"#utility.yul\":4428:4431   */\n      0xa0\n        /* \"#utility.yul\":4417:4426   */\n      dup3\n        /* \"#utility.yul\":4413:4432   */\n      add\n        /* \"#utility.yul\":4405:4432   */\n      swap1\n      pop\n        /* \"#utility.yul\":4442:4513   */\n      tag_272\n        /* \"#utility.yul\":4510:4511   */\n      0x00\n        /* \"#utility.yul\":4499:4508   */\n      dup4\n        /* \"#utility.yul\":4495:4512   */\n      add\n        /* \"#utility.yul\":4486:4492   */\n      dup9\n        /* \"#utility.yul\":4442:4513   */\n      tag_174\n      jump\t// in\n    tag_272:\n        /* \"#utility.yul\":4523:4595   */\n      tag_273\n        /* \"#utility.yul\":4591:4593   */\n      0x20\n        /* \"#utility.yul\":4580:4589   */\n      dup4\n        /* \"#utility.yul\":4576:4594   */\n      add\n        /* \"#utility.yul\":4567:4573   */\n      dup8\n        /* \"#utility.yul\":4523:4595   */\n      tag_166\n      jump\t// in\n    tag_273:\n        /* \"#utility.yul\":4642:4651   */\n      dup2\n        /* \"#utility.yul\":4636:4640   */\n      dup2\n        /* \"#utility.yul\":4632:4652   */\n      sub\n        /* \"#utility.yul\":4627:4629   */\n      0x40\n        /* \"#utility.yul\":4616:4625   */\n      dup4\n        /* \"#utility.yul\":4612:4630   */\n      add\n        /* \"#utility.yul\":4605:4653   */\n      mstore\n        /* \"#utility.yul\":4670:4746   */\n      tag_274\n        /* \"#utility.yul\":4741:4745   */\n      dup2\n        /* \"#utility.yul\":4732:4738   */\n      dup7\n        /* \"#utility.yul\":4670:4746   */\n      tag_183\n      jump\t// in\n    tag_274:\n        /* \"#utility.yul\":4662:4746   */\n      swap1\n      pop\n        /* \"#utility.yul\":4756:4822   */\n      tag_275\n        /* \"#utility.yul\":4818:4820   */\n      0x60\n        /* \"#utility.yul\":4807:4816   */\n      dup4\n        /* \"#utility.yul\":4803:4821   */\n      add\n        /* \"#utility.yul\":4794:4800   */\n      dup6\n        /* \"#utility.yul\":4756:4822   */\n      tag_178\n      jump\t// in\n    tag_275:\n        /* \"#utility.yul\":4832:4905   */\n      tag_276\n        /* \"#utility.yul\":4900:4903   */\n      0x80\n        /* \"#utility.yul\":4889:4898   */\n      dup4\n        /* \"#utility.yul\":4885:4904   */\n      add\n        /* \"#utility.yul\":4876:4882   */\n      dup5\n        /* \"#utility.yul\":4832:4905   */\n      tag_166\n      jump\t// in\n    tag_276:\n        /* \"#utility.yul\":4173:4912   */\n      swap7\n      swap6\n      pop\n      pop\n      pop\n      pop\n      pop\n      pop\n      jump\t// out\n        /* \"#utility.yul\":4918:5392   */\n    tag_45:\n        /* \"#utility.yul\":4986:4992   */\n      0x00\n        /* \"#utility.yul\":4994:5000   */\n      dup1\n        /* \"#utility.yul\":5043:5045   */\n      0x40\n        /* \"#utility.yul\":5031:5040   */\n      dup4\n        /* \"#utility.yul\":5022:5029   */\n      dup6\n        /* \"#utility.yul\":5018:5041   */\n      sub\n        /* \"#utility.yul\":5014:5046   */\n      slt\n        /* \"#utility.yul\":5011:5130   */\n      iszero\n      tag_278\n      jumpi\n        /* \"#utility.yul\":5049:5128   */\n      tag_279\n      tag_168\n      jump\t// in\n    tag_279:\n        /* \"#utility.yul\":5011:5130   */\n    tag_278:\n        /* \"#utility.yul\":5169:5170   */\n      0x00\n        /* \"#utility.yul\":5194:5247   */\n      tag_280\n        /* \"#utility.yul\":5239:5246   */\n      dup6\n        /* \"#utility.yul\":5230:5236   */\n      dup3\n        /* \"#utility.yul\":5219:5228   */\n      dup7\n        /* \"#utility.yul\":5215:5237   */\n      add\n        /* \"#utility.yul\":5194:5247   */\n      tag_171\n      jump\t// in\n    tag_280:\n        /* \"#utility.yul\":5184:5247   */\n      swap3\n      pop\n        /* \"#utility.yul\":5140:5257   */\n      pop\n        /* \"#utility.yul\":5296:5298   */\n      0x20\n        /* \"#utility.yul\":5322:5375   */\n      tag_281\n        /* \"#utility.yul\":5367:5374   */\n      dup6\n        /* \"#utility.yul\":5358:5364   */\n      dup3\n        /* \"#utility.yul\":5347:5356   */\n      dup7\n        /* \"#utility.yul\":5343:5365   */\n      add\n        /* \"#utility.yul\":5322:5375   */\n      tag_176\n      jump\t// in\n    tag_281:\n        /* \"#utility.yul\":5312:5375   */\n      swap2\n      pop\n        /* \"#utility.yul\":5267:5385   */\n      pop\n        /* \"#utility.yul\":4918:5392   */\n      swap3\n      pop\n      swap3\n      swap1\n      pop\n      jump\t// out\n        /* \"#utility.yul\":5398:5512   */\n    tag_184:\n        /* \"#utility.yul\":5465:5471   */\n      0x00\n        /* \"#utility.yul\":5499:5504   */\n      dup2\n        /* \"#utility.yul\":5493:5505   */\n      mload\n        /* \"#utility.yul\":5483:5505   */\n      swap1\n      pop\n        /* \"#utility.yul\":5398:5512   */\n      swap2\n      swap1\n      pop\n      jump\t// out\n        /* \"#utility.yul\":5518:5702   */\n    tag_185:\n        /* \"#utility.yul\":5617:5628   */\n      0x00\n        /* \"#utility.yul\":5651:5657   */\n      dup3\n        /* \"#utility.yul\":5646:5649   */\n      dup3\n        /* \"#utility.yul\":5639:5658   */\n      mstore\n        /* \"#utility.yul\":5691:5695   */\n      0x20\n        /* \"#utility.yul\":5686:5689   */\n      dup3\n        /* \"#utility.yul\":5682:5696   */\n      add\n        /* \"#utility.yul\":5667:5696   */\n      swap1\n      pop\n        /* \"#utility.yul\":5518:5702   */\n      swap3\n      swap2\n      pop\n      pop\n      jump\t// out\n        /* \"#utility.yul\":5708:5840   */\n    tag_186:\n        /* \"#utility.yul\":5775:5779   */\n      0x00\n        /* \"#utility.yul\":5798:5801   */\n      dup2\n        /* \"#utility.yul\":5790:5801   */\n      swap1\n      pop\n        /* \"#utility.yul\":5828:5832   */\n      0x20\n        /* \"#utility.yul\":5823:5826   */\n      dup3\n        /* \"#utility.yul\":5819:5833   */\n      add\n        /* \"#utility.yul\":5811:5833   */\n      swap1\n      pop\n        /* \"#utility.yul\":5708:5840   */\n      swap2\n      swap1\n      pop\n      jump\t// out\n        /* \"#utility.yul\":5846:5954   */\n    tag_187:\n        /* \"#utility.yul\":5923:5947   */\n      tag_286\n        /* \"#utility.yul\":5941:5946   */\n      dup2\n        /* \"#utility.yul\":5923:5947   */\n      tag_173\n      jump\t// in\n    tag_286:\n        /* \"#utility.yul\":5918:5921   */\n      dup3\n        /* \"#utility.yul\":5911:5948   */\n      mstore\n        /* \"#utility.yul\":5846:5954   */\n      pop\n      pop\n      jump\t// out\n        /* \"#utility.yul\":5960:6139   */\n    tag_188:\n        /* \"#utility.yul\":6029:6039   */\n      0x00\n        /* \"#utility.yul\":6050:6096   */\n      tag_288\n        /* \"#utility.yul\":6092:6095   */\n      dup4\n        /* \"#utility.yul\":6084:6090   */\n      dup4\n        /* \"#utility.yul\":6050:6096   */\n      tag_187\n      jump\t// in\n    tag_288:\n        /* \"#utility.yul\":6128:6132   */\n      0x20\n        /* \"#utility.yul\":6123:6126   */\n      dup4\n        /* \"#utility.yul\":6119:6133   */\n      add\n        /* \"#utility.yul\":6105:6133   */\n      swap1\n      pop\n        /* \"#utility.yul\":5960:6139   */\n      swap3\n      swap2\n      pop\n      pop\n      jump\t// out\n        /* \"#utility.yul\":6145:6258   */\n    tag_189:\n        /* \"#utility.yul\":6215:6219   */\n      0x00\n        /* \"#utility.yul\":6247:6251   */\n      0x20\n        /* \"#utility.yul\":6242:6245   */\n      dup3\n        /* \"#utility.yul\":6238:6252   */\n      add\n        /* \"#utility.yul\":6230:6252   */\n      swap1\n      pop\n        /* \"#utility.yul\":6145:6258   */\n      swap2\n      swap1\n      pop\n      jump\t// out\n        /* \"#utility.yul\":6294:7026   */\n    tag_190:\n        /* \"#utility.yul\":6413:6416   */\n      0x00\n        /* \"#utility.yul\":6442:6496   */\n      tag_291\n        /* \"#utility.yul\":6490:6495   */\n      dup3\n        /* \"#utility.yul\":6442:6496   */\n      tag_184\n      jump\t// in\n    tag_291:\n        /* \"#utility.yul\":6512:6598   */\n      tag_292\n        /* \"#utility.yul\":6591:6597   */\n      dup2\n        /* \"#utility.yul\":6586:6589   */\n      dup6\n        /* \"#utility.yul\":6512:6598   */\n      tag_185\n      jump\t// in\n    tag_292:\n        /* \"#utility.yul\":6505:6598   */\n      swap4\n      pop\n        /* \"#utility.yul\":6622:6678   */\n      tag_293\n        /* \"#utility.yul\":6672:6677   */\n      dup4\n        /* \"#utility.yul\":6622:6678   */\n      tag_186\n      jump\t// in\n    tag_293:\n        /* \"#utility.yul\":6701:6708   */\n      dup1\n        /* \"#utility.yul\":6732:6733   */\n      0x00\n        /* \"#utility.yul\":6717:7001   */\n    tag_294:\n        /* \"#utility.yul\":6742:6748   */\n      dup4\n        /* \"#utility.yul\":6739:6740   */\n      dup2\n        /* \"#utility.yul\":6736:6749   */\n      lt\n        /* \"#utility.yul\":6717:7001   */\n      iszero\n      tag_296\n      jumpi\n        /* \"#utility.yul\":6818:6824   */\n      dup2\n        /* \"#utility.yul\":6812:6825   */\n      mload\n        /* \"#utility.yul\":6845:6908   */\n      tag_297\n        /* \"#utility.yul\":6904:6907   */\n      dup9\n        /* \"#utility.yul\":6889:6902   */\n      dup3\n        /* \"#utility.yul\":6845:6908   */\n      tag_188\n      jump\t// in\n    tag_297:\n        /* \"#utility.yul\":6838:6908   */\n      swap8\n      pop\n        /* \"#utility.yul\":6931:6991   */\n      tag_298\n        /* \"#utility.yul\":6984:6990   */\n      dup4\n        /* \"#utility.yul\":6931:6991   */\n      tag_189\n      jump\t// in\n    tag_298:\n        /* \"#utility.yul\":6921:6991   */\n      swap3\n      pop\n        /* \"#utility.yul\":6777:7001   */\n      pop\n        /* \"#utility.yul\":6764:6765   */\n      0x01\n        /* \"#utility.yul\":6761:6762   */\n      dup2\n        /* \"#utility.yul\":6757:6766   */\n      add\n        /* \"#utility.yul\":6752:6766   */\n      swap1\n      pop\n        /* \"#utility.yul\":6717:7001   */\n      jump(tag_294)\n    tag_296:\n        /* \"#utility.yul\":6721:6735   */\n      pop\n        /* \"#utility.yul\":7017:7020   */\n      dup6\n        /* \"#utility.yul\":7010:7020   */\n      swap4\n      pop\n        /* \"#utility.yul\":6418:7026   */\n      pop\n      pop\n      pop\n        /* \"#utility.yul\":6294:7026   */\n      swap3\n      swap2\n      pop\n      pop\n      jump\t// out\n        /* \"#utility.yul\":7032:7405   */\n    tag_57:\n        /* \"#utility.yul\":7175:7179   */\n      0x00\n        /* \"#utility.yul\":7213:7215   */\n      0x20\n        /* \"#utility.yul\":7202:7211   */\n      dup3\n        /* \"#utility.yul\":7198:7216   */\n      add\n        /* \"#utility.yul\":7190:7216   */\n      swap1\n      pop\n        /* \"#utility.yul\":7262:7271   */\n      dup2\n        /* \"#utility.yul\":7256:7260   */\n      dup2\n        /* \"#utility.yul\":7252:7272   */\n      sub\n        /* \"#utility.yul\":7248:7249   */\n      0x00\n        /* \"#utility.yul\":7237:7246   */\n      dup4\n        /* \"#utility.yul\":7233:7250   */\n      add\n        /* \"#utility.yul\":7226:7273   */\n      mstore\n        /* \"#utility.yul\":7290:7398   */\n      tag_300\n        /* \"#utility.yul\":7393:7397   */\n      dup2\n        /* \"#utility.yul\":7384:7390   */\n      dup5\n        /* \"#utility.yul\":7290:7398   */\n      tag_190\n      jump\t// in\n    tag_300:\n        /* \"#utility.yul\":7282:7398   */\n      swap1\n      pop\n        /* \"#utility.yul\":7032:7405   */\n      swap3\n      swap2\n      pop\n      pop\n      jump\t// out\n        /* \"#utility.yul\":7411:7528   */\n    tag_191:\n        /* \"#utility.yul\":7520:7521   */\n      0x00\n        /* \"#utility.yul\":7517:7518   */\n      dup1\n        /* \"#utility.yul\":7510:7522   */\n      revert\n        /* \"#utility.yul\":7534:7651   */\n    tag_192:\n        /* \"#utility.yul\":7643:7644   */\n      0x00\n        /* \"#utility.yul\":7640:7641   */\n      dup1\n        /* \"#utility.yul\":7633:7645   */\n      revert\n        /* \"#utility.yul\":7657:7837   */\n    tag_193:\n        /* \"#utility.yul\":7705:7782   */\n      0x4e487b7100000000000000000000000000000000000000000000000000000000\n        /* \"#utility.yul\":7702:7703   */\n      0x00\n        /* \"#utility.yul\":7695:7783   */\n      mstore\n        /* \"#utility.yul\":7802:7806   */\n      0x41\n        /* \"#utility.yul\":7799:7800   */\n      0x04\n        /* \"#utility.yul\":7792:7807   */\n      mstore\n        /* \"#utility.yul\":7826:7830   */\n      0x24\n        /* \"#utility.yul\":7823:7824   */\n      0x00\n        /* \"#utility.yul\":7816:7831   */\n      revert\n        /* \"#utility.yul\":7843:8124   */\n    tag_194:\n        /* \"#utility.yul\":7926:7953   */\n      tag_305\n        /* \"#utility.yul\":7948:7952   */\n      dup3\n        /* \"#utility.yul\":7926:7953   */\n      tag_182\n      jump\t// in\n    tag_305:\n        /* \"#utility.yul\":7918:7924   */\n      dup2\n        /* \"#utility.yul\":7914:7954   */\n      add\n        /* \"#utility.yul\":8056:8062   */\n      dup2\n        /* \"#utility.yul\":8044:8054   */\n      dup2\n        /* \"#utility.yul\":8041:8063   */\n      lt\n        /* \"#utility.yul\":8020:8038   */\n      0xffffffffffffffff\n        /* \"#utility.yul\":8008:8018   */\n      dup3\n        /* \"#utility.yul\":8005:8039   */\n      gt\n        /* \"#utility.yul\":8002:8064   */\n      or\n        /* \"#utility.yul\":7999:8087   */\n      iszero\n      tag_306\n      jumpi\n        /* \"#utility.yul\":8067:8085   */\n      tag_307\n      tag_193\n      jump\t// in\n    tag_307:\n        /* \"#utility.yul\":7999:8087   */\n    tag_306:\n        /* \"#utility.yul\":8107:8117   */\n      dup1\n        /* \"#utility.yul\":8103:8105   */\n      0x40\n        /* \"#utility.yul\":8096:8118   */\n      mstore\n        /* \"#utility.yul\":7886:8124   */\n      pop\n        /* \"#utility.yul\":7843:8124   */\n      pop\n      pop\n      jump\t// out\n        /* \"#utility.yul\":8130:8259   */\n    tag_195:\n        /* \"#utility.yul\":8164:8170   */\n      0x00\n        /* \"#utility.yul\":8191:8211   */\n      tag_309\n      tag_167\n      jump\t// in\n    tag_309:\n        /* \"#utility.yul\":8181:8211   */\n      swap1\n      pop\n        /* \"#utility.yul\":8220:8253   */\n      tag_310\n        /* \"#utility.yul\":8248:8252   */\n      dup3\n        /* \"#utility.yul\":8240:8246   */\n      dup3\n        /* \"#utility.yul\":8220:8253   */\n      tag_194\n      jump\t// in\n    tag_310:\n        /* \"#utility.yul\":8130:8259   */\n      swap2\n      swap1\n      pop\n      jump\t// out\n        /* \"#utility.yul\":8265:8572   */\n    tag_196:\n        /* \"#utility.yul\":8326:8330   */\n      0x00\n        /* \"#utility.yul\":8416:8434   */\n      0xffffffffffffffff\n        /* \"#utility.yul\":8408:8414   */\n      dup3\n        /* \"#utility.yul\":8405:8435   */\n      gt\n        /* \"#utility.yul\":8402:8458   */\n      iszero\n      tag_312\n      jumpi\n        /* \"#utility.yul\":8438:8456   */\n      tag_313\n      tag_193\n      jump\t// in\n    tag_313:\n        /* \"#utility.yul\":8402:8458   */\n    tag_312:\n        /* \"#utility.yul\":8476:8505   */\n      tag_314\n        /* \"#utility.yul\":8498:8504   */\n      dup3\n        /* \"#utility.yul\":8476:8505   */\n      tag_182\n      jump\t// in\n    tag_314:\n        /* \"#utility.yul\":8468:8505   */\n      swap1\n      pop\n        /* \"#utility.yul\":8560:8564   */\n      0x20\n        /* \"#utility.yul\":8554:8558   */\n      dup2\n        /* \"#utility.yul\":8550:8565   */\n      add\n        /* \"#utility.yul\":8542:8565   */\n      swap1\n      pop\n        /* \"#utility.yul\":8265:8572   */\n      swap2\n      swap1\n      pop\n      jump\t// out\n        /* \"#utility.yul\":8578:8732   */\n    tag_197:\n        /* \"#utility.yul\":8662:8668   */\n      dup3\n        /* \"#utility.yul\":8657:8660   */\n      dup2\n        /* \"#utility.yul\":8652:8655   */\n      dup4\n        /* \"#utility.yul\":8639:8669   */\n      calldatacopy\n        /* \"#utility.yul\":8724:8725   */\n      0x00\n        /* \"#utility.yul\":8715:8721   */\n      dup4\n        /* \"#utility.yul\":8710:8713   */\n      dup4\n        /* \"#utility.yul\":8706:8722   */\n      add\n        /* \"#utility.yul\":8699:8726   */\n      mstore\n        /* \"#utility.yul\":8578:8732   */\n      pop\n      pop\n      pop\n      jump\t// out\n        /* \"#utility.yul\":8738:9148   */\n    tag_198:\n        /* \"#utility.yul\":8815:8820   */\n      0x00\n        /* \"#utility.yul\":8840:8905   */\n      tag_317\n        /* \"#utility.yul\":8856:8904   */\n      tag_318\n        /* \"#utility.yul\":8897:8903   */\n      dup5\n        /* \"#utility.yul\":8856:8904   */\n      tag_196\n      jump\t// in\n    tag_318:\n        /* \"#utility.yul\":8840:8905   */\n      tag_195\n      jump\t// in\n    tag_317:\n        /* \"#utility.yul\":8831:8905   */\n      swap1\n      pop\n        /* \"#utility.yul\":8928:8934   */\n      dup3\n        /* \"#utility.yul\":8921:8926   */\n      dup2\n        /* \"#utility.yul\":8914:8935   */\n      mstore\n        /* \"#utility.yul\":8966:8970   */\n      0x20\n        /* \"#utility.yul\":8959:8964   */\n      dup2\n        /* \"#utility.yul\":8955:8971   */\n      add\n        /* \"#utility.yul\":9004:9007   */\n      dup5\n        /* \"#utility.yul\":8995:9001   */\n      dup5\n        /* \"#utility.yul\":8990:8993   */\n      dup5\n        /* \"#utility.yul\":8986:9002   */\n      add\n        /* \"#utility.yul\":8983:9008   */\n      gt\n        /* \"#utility.yul\":8980:9092   */\n      iszero\n      tag_319\n      jumpi\n        /* \"#utility.yul\":9011:9090   */\n      tag_320\n      tag_192\n      jump\t// in\n    tag_320:\n        /* \"#utility.yul\":8980:9092   */\n    tag_319:\n        /* \"#utility.yul\":9101:9142   */\n      tag_321\n        /* \"#utility.yul\":9135:9141   */\n      dup5\n        /* \"#utility.yul\":9130:9133   */\n      dup3\n        /* \"#utility.yul\":9125:9128   */\n      dup6\n        /* \"#utility.yul\":9101:9142   */\n      tag_197\n      jump\t// in\n    tag_321:\n        /* \"#utility.yul\":8821:9148   */\n      pop\n        /* \"#utility.yul\":8738:9148   */\n      swap4\n      swap3\n      pop\n      pop\n      pop\n      jump\t// out\n        /* \"#utility.yul\":9167:9505   */\n    tag_199:\n        /* \"#utility.yul\":9222:9227   */\n      0x00\n        /* \"#utility.yul\":9271:9274   */\n      dup3\n        /* \"#utility.yul\":9264:9268   */\n      0x1f\n        /* \"#utility.yul\":9256:9262   */\n      dup4\n        /* \"#utility.yul\":9252:9269   */\n      add\n        /* \"#utility.yul\":9248:9275   */\n      slt\n        /* \"#utility.yul\":9238:9360   */\n      tag_323\n      jumpi\n        /* \"#utility.yul\":9279:9358   */\n      tag_324\n      tag_191\n      jump\t// in\n    tag_324:\n        /* \"#utility.yul\":9238:9360   */\n    tag_323:\n        /* \"#utility.yul\":9396:9402   */\n      dup2\n        /* \"#utility.yul\":9383:9403   */\n      calldataload\n        /* \"#utility.yul\":9421:9499   */\n      tag_325\n        /* \"#utility.yul\":9495:9498   */\n      dup5\n        /* \"#utility.yul\":9487:9493   */\n      dup3\n        /* \"#utility.yul\":9480:9484   */\n      0x20\n        /* \"#utility.yul\":9472:9478   */\n      dup7\n        /* \"#utility.yul\":9468:9485   */\n      add\n        /* \"#utility.yul\":9421:9499   */\n      tag_198\n      jump\t// in\n    tag_325:\n        /* \"#utility.yul\":9412:9499   */\n      swap2\n      pop\n        /* \"#utility.yul\":9228:9505   */\n      pop\n        /* \"#utility.yul\":9167:9505   */\n      swap3\n      swap2\n      pop\n      pop\n      jump\t// out\n        /* \"#utility.yul\":9511:10308   */\n    tag_65:\n        /* \"#utility.yul\":9597:9603   */\n      0x00\n        /* \"#utility.yul\":9605:9611   */\n      dup1\n        /* \"#utility.yul\":9613:9619   */\n      0x00\n        /* \"#utility.yul\":9662:9664   */\n      0x60\n        /* \"#utility.yul\":9650:9659   */\n      dup5\n        /* \"#utility.yul\":9641:9648   */\n      dup7\n        /* \"#utility.yul\":9637:9660   */\n      sub\n        /* \"#utility.yul\":9633:9665   */\n      slt\n        /* \"#utility.yul\":9630:9749   */\n      iszero\n      tag_327\n      jumpi\n        /* \"#utility.yul\":9668:9747   */\n      tag_328\n      tag_168\n      jump\t// in\n    tag_328:\n        /* \"#utility.yul\":9630:9749   */\n    tag_327:\n        /* \"#utility.yul\":9788:9789   */\n      0x00\n        /* \"#utility.yul\":9813:9866   */\n      tag_329\n        /* \"#utility.yul\":9858:9865   */\n      dup7\n        /* \"#utility.yul\":9849:9855   */\n      dup3\n        /* \"#utility.yul\":9838:9847   */\n      dup8\n        /* \"#utility.yul\":9834:9856   */\n      add\n        /* \"#utility.yul\":9813:9866   */\n      tag_176\n      jump\t// in\n    tag_329:\n        /* \"#utility.yul\":9803:9866   */\n      swap4\n      pop\n        /* \"#utility.yul\":9759:9876   */\n      pop\n        /* \"#utility.yul\":9915:9917   */\n      0x20\n        /* \"#utility.yul\":9941:9994   */\n      tag_330\n        /* \"#utility.yul\":9986:9993   */\n      dup7\n        /* \"#utility.yul\":9977:9983   */\n      dup3\n        /* \"#utility.yul\":9966:9975   */\n      dup8\n        /* \"#utility.yul\":9962:9984   */\n      add\n        /* \"#utility.yul\":9941:9994   */\n      tag_171\n      jump\t// in\n    tag_330:\n        /* \"#utility.yul\":9931:9994   */\n      swap3\n      pop\n        /* \"#utility.yul\":9886:10004   */\n      pop\n        /* \"#utility.yul\":10071:10073   */\n      0x40\n        /* \"#utility.yul\":10060:10069   */\n      dup5\n        /* \"#utility.yul\":10056:10074   */\n      add\n        /* \"#utility.yul\":10043:10075   */\n      calldataload\n        /* \"#utility.yul\":10102:10120   */\n      0xffffffffffffffff\n        /* \"#utility.yul\":10094:10100   */\n      dup2\n        /* \"#utility.yul\":10091:10121   */\n      gt\n        /* \"#utility.yul\":10088:10205   */\n      iszero\n      tag_331\n      jumpi\n        /* \"#utility.yul\":10124:10203   */\n      tag_332\n      tag_169\n      jump\t// in\n    tag_332:\n        /* \"#utility.yul\":10088:10205   */\n    tag_331:\n        /* \"#utility.yul\":10229:10291   */\n      tag_333\n        /* \"#utility.yul\":10283:10290   */\n      dup7\n        /* \"#utility.yul\":10274:10280   */\n      dup3\n        /* \"#utility.yul\":10263:10272   */\n      dup8\n        /* \"#utility.yul\":10259:10281   */\n      add\n        /* \"#utility.yul\":10229:10291   */\n      tag_199\n      jump\t// in\n    tag_333:\n        /* \"#utility.yul\":10219:10291   */\n      swap2\n      pop\n        /* \"#utility.yul\":10014:10301   */\n      pop\n        /* \"#utility.yul\":9511:10308   */\n      swap3\n      pop\n      swap3\n      pop\n      swap3\n      jump\t// out\n        /* \"#utility.yul\":10314:10536   */\n    tag_71:\n        /* \"#utility.yul\":10407:10411   */\n      0x00\n        /* \"#utility.yul\":10445:10447   */\n      0x20\n        /* \"#utility.yul\":10434:10443   */\n      dup3\n        /* \"#utility.yul\":10430:10448   */\n      add\n        /* \"#utility.yul\":10422:10448   */\n      swap1\n      pop\n        /* \"#utility.yul\":10458:10529   */\n      tag_335\n        /* \"#utility.yul\":10526:10527   */\n      0x00\n        /* \"#utility.yul\":10515:10524   */\n      dup4\n        /* \"#utility.yul\":10511:10528   */\n      add\n        /* \"#utility.yul\":10502:10508   */\n      dup5\n        /* \"#utility.yul\":10458:10529   */\n      tag_166\n      jump\t// in\n    tag_335:\n        /* \"#utility.yul\":10314:10536   */\n      swap3\n      swap2\n      pop\n      pop\n      jump\t// out\n        /* \"#utility.yul\":10542:10711   */\n    tag_200:\n        /* \"#utility.yul\":10626:10637   */\n      0x00\n        /* \"#utility.yul\":10660:10666   */\n      dup3\n        /* \"#utility.yul\":10655:10658   */\n      dup3\n        /* \"#utility.yul\":10648:10667   */\n      mstore\n        /* \"#utility.yul\":10700:10704   */\n      0x20\n        /* \"#utility.yul\":10695:10698   */\n      dup3\n        /* \"#utility.yul\":10691:10705   */\n      add\n        /* \"#utility.yul\":10676:10705   */\n      swap1\n      pop\n        /* \"#utility.yul\":10542:10711   */\n      swap3\n      swap2\n      pop\n      pop\n      jump\t// out\n        /* \"#utility.yul\":10717:10876   */\n    tag_201:\n        /* \"#utility.yul\":10857:10868   */\n      0x6e6f74206f776e65720000000000000000000000000000000000000000000000\n        /* \"#utility.yul\":10853:10854   */\n      0x00\n        /* \"#utility.yul\":10845:10851   */\n      dup3\n        /* \"#utility.yul\":10841:10855   */\n      add\n        /* \"#utility.yul\":10834:10869   */\n      mstore\n        /* \"#utility.yul\":10717:10876   */\n      pop\n      jump\t// out\n        /* \"#utility.yul\":10882:11247   */\n    tag_202:\n        /* \"#utility.yul\":11024:11027   */\n      0x00\n        /* \"#utility.yul\":11045:11111   */\n      tag_339\n        /* \"#utility.yul\":11109:11110   */\n      0x09\n        /* \"#utility.yul\":11104:11107   */\n      dup4\n        /* \"#utility.yul\":11045:11111   */\n      tag_200\n      jump\t// in\n    tag_339:\n        /* \"#utility.yul\":11038:11111   */\n      swap2\n      pop\n        /* \"#utility.yul\":11120:11213   */\n      tag_340\n        /* \"#utility.yul\":11209:11212   */\n      dup3\n        /* \"#utility.yul\":11120:11213   */\n      tag_201\n      jump\t// in\n    tag_340:\n        /* \"#utility.yul\":11238:11240   */\n      0x20\n        /* \"#utility.yul\":11233:11236   */\n      dup3\n        /* \"#utility.yul\":11229:11241   */\n      add\n        /* \"#utility.yul\":11222:11241   */\n      swap1\n      pop\n        /* \"#utility.yul\":10882:11247   */\n      swap2\n      swap1\n      pop\n      jump\t// out\n        /* \"#utility.yul\":11253:11672   */\n    tag_77:\n        /* \"#utility.yul\":11419:11423   */\n      0x00\n        /* \"#utility.yul\":11457:11459   */\n      0x20\n        /* \"#utility.yul\":11446:11455   */\n      dup3\n        /* \"#utility.yul\":11442:11460   */\n      add\n        /* \"#utility.yul\":11434:11460   */\n      swap1\n      pop\n        /* \"#utility.yul\":11506:11515   */\n      dup2\n        /* \"#utility.yul\":11500:11504   */\n      dup2\n        /* \"#utility.yul\":11496:11516   */\n      sub\n        /* \"#utility.yul\":11492:11493   */\n      0x00\n        /* \"#utility.yul\":11481:11490   */\n      dup4\n        /* \"#utility.yul\":11477:11494   */\n      add\n        /* \"#utility.yul\":11470:11517   */\n      mstore\n        /* \"#utility.yul\":11534:11665   */\n      tag_342\n        /* \"#utility.yul\":11660:11664   */\n      dup2\n        /* \"#utility.yul\":11534:11665   */\n      tag_202\n      jump\t// in\n    tag_342:\n        /* \"#utility.yul\":11526:11665   */\n      swap1\n      pop\n        /* \"#utility.yul\":11253:11672   */\n      swap2\n      swap1\n      pop\n      jump\t// out\n        /* \"#utility.yul\":11678:11845   */\n    tag_203:\n        /* \"#utility.yul\":11818:11837   */\n      0x747820646f6573206e6f74206578697374000000000000000000000000000000\n        /* \"#utility.yul\":11814:11815   */\n      0x00\n        /* \"#utility.yul\":11806:11812   */\n      dup3\n        /* \"#utility.yul\":11802:11816   */\n      add\n        /* \"#utility.yul\":11795:11838   */\n      mstore\n        /* \"#utility.yul\":11678:11845   */\n      pop\n      jump\t// out\n        /* \"#utility.yul\":11851:12217   */\n    tag_204:\n        /* \"#utility.yul\":11993:11996   */\n      0x00\n        /* \"#utility.yul\":12014:12081   */\n      tag_345\n        /* \"#utility.yul\":12078:12080   */\n      0x11\n        /* \"#utility.yul\":12073:12076   */\n      dup4\n        /* \"#utility.yul\":12014:12081   */\n      tag_200\n      jump\t// in\n    tag_345:\n        /* \"#utility.yul\":12007:12081   */\n      swap2\n      pop\n        /* \"#utility.yul\":12090:12183   */\n      tag_346\n        /* \"#utility.yul\":12179:12182   */\n      dup3\n        /* \"#utility.yul\":12090:12183   */\n      tag_203\n      jump\t// in\n    tag_346:\n        /* \"#utility.yul\":12208:12210   */\n      0x20\n        /* \"#utility.yul\":12203:12206   */\n      dup3\n        /* \"#utility.yul\":12199:12211   */\n      add\n        /* \"#utility.yul\":12192:12211   */\n      swap1\n      pop\n        /* \"#utility.yul\":11851:12217   */\n      swap2\n      swap1\n      pop\n      jump\t// out\n        /* \"#utility.yul\":12223:12642   */\n    tag_81:\n        /* \"#utility.yul\":12389:12393   */\n      0x00\n        /* \"#utility.yul\":12427:12429   */\n      0x20\n        /* \"#utility.yul\":12416:12425   */\n      dup3\n        /* \"#utility.yul\":12412:12430   */\n      add\n        /* \"#utility.yul\":12404:12430   */\n      swap1\n      pop\n        /* \"#utility.yul\":12476:12485   */\n      dup2\n        /* \"#utility.yul\":12470:12474   */\n      dup2\n        /* \"#utility.yul\":12466:12486   */\n      sub\n        /* \"#utility.yul\":12462:12463   */\n      0x00\n        /* \"#utility.yul\":12451:12460   */\n      dup4\n        /* \"#utility.yul\":12447:12464   */\n      add\n        /* \"#utility.yul\":12440:12487   */\n      mstore\n        /* \"#utility.yul\":12504:12635   */\n      tag_348\n        /* \"#utility.yul\":12630:12634   */\n      dup2\n        /* \"#utility.yul\":12504:12635   */\n      tag_204\n      jump\t// in\n    tag_348:\n        /* \"#utility.yul\":12496:12635   */\n      swap1\n      pop\n        /* \"#utility.yul\":12223:12642   */\n      swap2\n      swap1\n      pop\n      jump\t// out\n        /* \"#utility.yul\":12648:12828   */\n    tag_85:\n        /* \"#utility.yul\":12696:12773   */\n      0x4e487b7100000000000000000000000000000000000000000000000000000000\n        /* \"#utility.yul\":12693:12694   */\n      0x00\n        /* \"#utility.yul\":12686:12774   */\n      mstore\n        /* \"#utility.yul\":12793:12797   */\n      0x32\n        /* \"#utility.yul\":12790:12791   */\n      0x04\n        /* \"#utility.yul\":12783:12798   */\n      mstore\n        /* \"#utility.yul\":12817:12821   */\n      0x24\n        /* \"#utility.yul\":12814:12815   */\n      0x00\n        /* \"#utility.yul\":12807:12822   */\n      revert\n        /* \"#utility.yul\":12834:13003   */\n    tag_205:\n        /* \"#utility.yul\":12974:12995   */\n      0x747820616c726561647920657865637574656400000000000000000000000000\n        /* \"#utility.yul\":12970:12971   */\n      0x00\n        /* \"#utility.yul\":12962:12968   */\n      dup3\n        /* \"#utility.yul\":12958:12972   */\n      add\n        /* \"#utility.yul\":12951:12996   */\n      mstore\n        /* \"#utility.yul\":12834:13003   */\n      pop\n      jump\t// out\n        /* \"#utility.yul\":13009:13375   */\n    tag_206:\n        /* \"#utility.yul\":13151:13154   */\n      0x00\n        /* \"#utility.yul\":13172:13239   */\n      tag_352\n        /* \"#utility.yul\":13236:13238   */\n      0x13\n        /* \"#utility.yul\":13231:13234   */\n      dup4\n        /* \"#utility.yul\":13172:13239   */\n      tag_200\n      jump\t// in\n    tag_352:\n        /* \"#utility.yul\":13165:13239   */\n      swap2\n      pop\n        /* \"#utility.yul\":13248:13341   */\n      tag_353\n        /* \"#utility.yul\":13337:13340   */\n      dup3\n        /* \"#utility.yul\":13248:13341   */\n      tag_205\n      jump\t// in\n    tag_353:\n        /* \"#utility.yul\":13366:13368   */\n      0x20\n        /* \"#utility.yul\":13361:13364   */\n      dup3\n        /* \"#utility.yul\":13357:13369   */\n      add\n        /* \"#utility.yul\":13350:13369   */\n      swap1\n      pop\n        /* \"#utility.yul\":13009:13375   */\n      swap2\n      swap1\n      pop\n      jump\t// out\n        /* \"#utility.yul\":13381:13800   */\n    tag_89:\n        /* \"#utility.yul\":13547:13551   */\n      0x00\n        /* \"#utility.yul\":13585:13587   */\n      0x20\n        /* \"#utility.yul\":13574:13583   */\n      dup3\n        /* \"#utility.yul\":13570:13588   */\n      add\n        /* \"#utility.yul\":13562:13588   */\n      swap1\n      pop\n        /* \"#utility.yul\":13634:13643   */\n      dup2\n        /* \"#utility.yul\":13628:13632   */\n      dup2\n        /* \"#utility.yul\":13624:13644   */\n      sub\n        /* \"#utility.yul\":13620:13621   */\n      0x00\n        /* \"#utility.yul\":13609:13618   */\n      dup4\n        /* \"#utility.yul\":13605:13622   */\n      add\n        /* \"#utility.yul\":13598:13645   */\n      mstore\n        /* \"#utility.yul\":13662:13793   */\n      tag_355\n        /* \"#utility.yul\":13788:13792   */\n      dup2\n        /* \"#utility.yul\":13662:13793   */\n      tag_206\n      jump\t// in\n    tag_355:\n        /* \"#utility.yul\":13654:13793   */\n      swap1\n      pop\n        /* \"#utility.yul\":13381:13800   */\n      swap2\n      swap1\n      pop\n      jump\t// out\n        /* \"#utility.yul\":13806:13972   */\n    tag_207:\n        /* \"#utility.yul\":13946:13964   */\n      0x7478206e6f7420636f6e6669726d656400000000000000000000000000000000\n        /* \"#utility.yul\":13942:13943   */\n      0x00\n        /* \"#utility.yul\":13934:13940   */\n      dup3\n        /* \"#utility.yul\":13930:13944   */\n      add\n        /* \"#utility.yul\":13923:13965   */\n      mstore\n        /* \"#utility.yul\":13806:13972   */\n      pop\n      jump\t// out\n        /* \"#utility.yul\":13978:14344   */\n    tag_208:\n        /* \"#utility.yul\":14120:14123   */\n      0x00\n        /* \"#utility.yul\":14141:14208   */\n      tag_358\n        /* \"#utility.yul\":14205:14207   */\n      0x10\n        /* \"#utility.yul\":14200:14203   */\n      dup4\n        /* \"#utility.yul\":14141:14208   */\n      tag_200\n      jump\t// in\n    tag_358:\n        /* \"#utility.yul\":14134:14208   */\n      swap2\n      pop\n        /* \"#utility.yul\":14217:14310   */\n      tag_359\n        /* \"#utility.yul\":14306:14309   */\n      dup3\n        /* \"#utility.yul\":14217:14310   */\n      tag_207\n      jump\t// in\n    tag_359:\n        /* \"#utility.yul\":14335:14337   */\n      0x20\n        /* \"#utility.yul\":14330:14333   */\n      dup3\n        /* \"#utility.yul\":14326:14338   */\n      add\n        /* \"#utility.yul\":14319:14338   */\n      swap1\n      pop\n        /* \"#utility.yul\":13978:14344   */\n      swap2\n      swap1\n      pop\n      jump\t// out\n        /* \"#utility.yul\":14350:14769   */\n    tag_96:\n        /* \"#utility.yul\":14516:14520   */\n      0x00\n        /* \"#utility.yul\":14554:14556   */\n      0x20\n        /* \"#utility.yul\":14543:14552   */\n      dup3\n        /* \"#utility.yul\":14539:14557   */\n      add\n        /* \"#utility.yul\":14531:14557   */\n      swap1\n      pop\n        /* \"#utility.yul\":14603:14612   */\n      dup2\n        /* \"#utility.yul\":14597:14601   */\n      dup2\n        /* \"#utility.yul\":14593:14613   */\n      sub\n        /* \"#utility.yul\":14589:14590   */\n      0x00\n        /* \"#utility.yul\":14578:14587   */\n      dup4\n        /* \"#utility.yul\":14574:14591   */\n      add\n        /* \"#utility.yul\":14567:14614   */\n      mstore\n        /* \"#utility.yul\":14631:14762   */\n      tag_361\n        /* \"#utility.yul\":14757:14761   */\n      dup2\n        /* \"#utility.yul\":14631:14762   */\n      tag_208\n      jump\t// in\n    tag_361:\n        /* \"#utility.yul\":14623:14762   */\n      swap1\n      pop\n        /* \"#utility.yul\":14350:14769   */\n      swap2\n      swap1\n      pop\n      jump\t// out\n        /* \"#utility.yul\":14775:14955   */\n    tag_209:\n        /* \"#utility.yul\":14823:14900   */\n      0x4e487b7100000000000000000000000000000000000000000000000000000000\n        /* \"#utility.yul\":14820:14821   */\n      0x00\n        /* \"#utility.yul\":14813:14901   */\n      mstore\n        /* \"#utility.yul\":14920:14924   */\n      0x11\n        /* \"#utility.yul\":14917:14918   */\n      0x04\n        /* \"#utility.yul\":14910:14925   */\n      mstore\n        /* \"#utility.yul\":14944:14948   */\n      0x24\n        /* \"#utility.yul\":14941:14942   */\n      0x00\n        /* \"#utility.yul\":14934:14949   */\n      revert\n        /* \"#utility.yul\":14961:15152   */\n    tag_98:\n        /* \"#utility.yul\":15001:15005   */\n      0x00\n        /* \"#utility.yul\":15021:15041   */\n      tag_364\n        /* \"#utility.yul\":15039:15040   */\n      dup3\n        /* \"#utility.yul\":15021:15041   */\n      tag_165\n      jump\t// in\n    tag_364:\n        /* \"#utility.yul\":15016:15041   */\n      swap2\n      pop\n        /* \"#utility.yul\":15055:15075   */\n      tag_365\n        /* \"#utility.yul\":15073:15074   */\n      dup4\n        /* \"#utility.yul\":15055:15075   */\n      tag_165\n      jump\t// in\n    tag_365:\n        /* \"#utility.yul\":15050:15075   */\n      swap3\n      pop\n        /* \"#utility.yul\":15094:15095   */\n      dup3\n        /* \"#utility.yul\":15091:15092   */\n      dup3\n        /* \"#utility.yul\":15088:15096   */\n      lt\n        /* \"#utility.yul\":15085:15119   */\n      iszero\n      tag_366\n      jumpi\n        /* \"#utility.yul\":15099:15117   */\n      tag_367\n      tag_209\n      jump\t// in\n    tag_367:\n        /* \"#utility.yul\":15085:15119   */\n    tag_366:\n        /* \"#utility.yul\":15144:15145   */\n      dup3\n        /* \"#utility.yul\":15141:15142   */\n      dup3\n        /* \"#utility.yul\":15137:15146   */\n      sub\n        /* \"#utility.yul\":15129:15146   */\n      swap1\n      pop\n        /* \"#utility.yul\":14961:15152   */\n      swap3\n      swap2\n      pop\n      pop\n      jump\t// out\n        /* \"#utility.yul\":15158:15338   */\n    tag_210:\n        /* \"#utility.yul\":15206:15283   */\n      0x4e487b7100000000000000000000000000000000000000000000000000000000\n        /* \"#utility.yul\":15203:15204   */\n      0x00\n        /* \"#utility.yul\":15196:15284   */\n      mstore\n        /* \"#utility.yul\":15303:15307   */\n      0x22\n        /* \"#utility.yul\":15300:15301   */\n      0x04\n        /* \"#utility.yul\":15293:15308   */\n      mstore\n        /* \"#utility.yul\":15327:15331   */\n      0x24\n        /* \"#utility.yul\":15324:15325   */\n      0x00\n        /* \"#utility.yul\":15317:15332   */\n      revert\n        /* \"#utility.yul\":15344:15664   */\n    tag_104:\n        /* \"#utility.yul\":15388:15394   */\n      0x00\n        /* \"#utility.yul\":15425:15426   */\n      0x02\n        /* \"#utility.yul\":15419:15423   */\n      dup3\n        /* \"#utility.yul\":15415:15427   */\n      div\n        /* \"#utility.yul\":15405:15427   */\n      swap1\n      pop\n        /* \"#utility.yul\":15472:15473   */\n      0x01\n        /* \"#utility.yul\":15466:15470   */\n      dup3\n        /* \"#utility.yul\":15462:15474   */\n      and\n        /* \"#utility.yul\":15493:15511   */\n      dup1\n        /* \"#utility.yul\":15483:15564   */\n      tag_370\n      jumpi\n        /* \"#utility.yul\":15549:15553   */\n      0x7f\n        /* \"#utility.yul\":15541:15547   */\n      dup3\n        /* \"#utility.yul\":15537:15554   */\n      and\n        /* \"#utility.yul\":15527:15554   */\n      swap2\n      pop\n        /* \"#utility.yul\":15483:15564   */\n    tag_370:\n        /* \"#utility.yul\":15611:15613   */\n      0x20\n        /* \"#utility.yul\":15603:15609   */\n      dup3\n        /* \"#utility.yul\":15600:15614   */\n      lt\n        /* \"#utility.yul\":15580:15598   */\n      dup2\n        /* \"#utility.yul\":15577:15615   */\n      sub\n        /* \"#utility.yul\":15574:15658   */\n      tag_371\n      jumpi\n        /* \"#utility.yul\":15630:15648   */\n      tag_372\n      tag_210\n      jump\t// in\n    tag_372:\n        /* \"#utility.yul\":15574:15658   */\n    tag_371:\n        /* \"#utility.yul\":15395:15664   */\n      pop\n        /* \"#utility.yul\":15344:15664   */\n      swap2\n      swap1\n      pop\n      jump\t// out\n        /* \"#utility.yul\":15670:15837   */\n    tag_211:\n        /* \"#utility.yul\":15810:15829   */\n      0x63616e6e6f742065786563757465207478000000000000000000000000000000\n        /* \"#utility.yul\":15806:15807   */\n      0x00\n        /* \"#utility.yul\":15798:15804   */\n      dup3\n        /* \"#utility.yul\":15794:15808   */\n      add\n        /* \"#utility.yul\":15787:15830   */\n      mstore\n        /* \"#utility.yul\":15670:15837   */\n      pop\n      jump\t// out\n        /* \"#utility.yul\":15843:16209   */\n    tag_212:\n        /* \"#utility.yul\":15985:15988   */\n      0x00\n        /* \"#utility.yul\":16006:16073   */\n      tag_375\n        /* \"#utility.yul\":16070:16072   */\n      0x11\n        /* \"#utility.yul\":16065:16068   */\n      dup4\n        /* \"#utility.yul\":16006:16073   */\n      tag_200\n      jump\t// in\n    tag_375:\n        /* \"#utility.yul\":15999:16073   */\n      swap2\n      pop\n        /* \"#utility.yul\":16082:16175   */\n      tag_376\n        /* \"#utility.yul\":16171:16174   */\n      dup3\n        /* \"#utility.yul\":16082:16175   */\n      tag_211\n      jump\t// in\n    tag_376:\n        /* \"#utility.yul\":16200:16202   */\n      0x20\n        /* \"#utility.yul\":16195:16198   */\n      dup3\n        /* \"#utility.yul\":16191:16203   */\n      add\n        /* \"#utility.yul\":16184:16203   */\n      swap1\n      pop\n        /* \"#utility.yul\":15843:16209   */\n      swap2\n      swap1\n      pop\n      jump\t// out\n        /* \"#utility.yul\":16215:16634   */\n    tag_137:\n        /* \"#utility.yul\":16381:16385   */\n      0x00\n        /* \"#utility.yul\":16419:16421   */\n      0x20\n        /* \"#utility.yul\":16408:16417   */\n      dup3\n        /* \"#utility.yul\":16404:16422   */\n      add\n        /* \"#utility.yul\":16396:16422   */\n      swap1\n      pop\n        /* \"#utility.yul\":16468:16477   */\n      dup2\n        /* \"#utility.yul\":16462:16466   */\n      dup2\n        /* \"#utility.yul\":16458:16478   */\n      sub\n        /* \"#utility.yul\":16454:16455   */\n      0x00\n        /* \"#utility.yul\":16443:16452   */\n      dup4\n        /* \"#utility.yul\":16439:16456   */\n      add\n        /* \"#utility.yul\":16432:16479   */\n      mstore\n        /* \"#utility.yul\":16496:16627   */\n      tag_378\n        /* \"#utility.yul\":16622:16626   */\n      dup2\n        /* \"#utility.yul\":16496:16627   */\n      tag_212\n      jump\t// in\n    tag_378:\n        /* \"#utility.yul\":16488:16627   */\n      swap1\n      pop\n        /* \"#utility.yul\":16215:16634   */\n      swap2\n      swap1\n      pop\n      jump\t// out\n        /* \"#utility.yul\":16640:16787   */\n    tag_213:\n        /* \"#utility.yul\":16741:16752   */\n      0x00\n        /* \"#utility.yul\":16778:16781   */\n      dup2\n        /* \"#utility.yul\":16763:16781   */\n      swap1\n      pop\n        /* \"#utility.yul\":16640:16787   */\n      swap3\n      swap2\n      pop\n      pop\n      jump\t// out\n        /* \"#utility.yul\":16793:16933   */\n    tag_214:\n        /* \"#utility.yul\":16841:16845   */\n      0x00\n        /* \"#utility.yul\":16864:16867   */\n      dup2\n        /* \"#utility.yul\":16856:16867   */\n      swap1\n      pop\n        /* \"#utility.yul\":16887:16890   */\n      dup2\n        /* \"#utility.yul\":16884:16885   */\n      0x00\n        /* \"#utility.yul\":16877:16891   */\n      mstore\n        /* \"#utility.yul\":16921:16925   */\n      0x20\n        /* \"#utility.yul\":16918:16919   */\n      0x00\n        /* \"#utility.yul\":16908:16926   */\n      keccak256\n        /* \"#utility.yul\":16900:16926   */\n      swap1\n      pop\n        /* \"#utility.yul\":16793:16933   */\n      swap2\n      swap1\n      pop\n      jump\t// out\n        /* \"#utility.yul\":16961:17802   */\n    tag_215:\n        /* \"#utility.yul\":17062:17065   */\n      0x00\n        /* \"#utility.yul\":17099:17104   */\n      dup2\n        /* \"#utility.yul\":17093:17105   */\n      sload\n        /* \"#utility.yul\":17128:17164   */\n      tag_382\n        /* \"#utility.yul\":17154:17163   */\n      dup2\n        /* \"#utility.yul\":17128:17164   */\n      tag_104\n      jump\t// in\n    tag_382:\n        /* \"#utility.yul\":17180:17268   */\n      tag_383\n        /* \"#utility.yul\":17261:17267   */\n      dup2\n        /* \"#utility.yul\":17256:17259   */\n      dup7\n        /* \"#utility.yul\":17180:17268   */\n      tag_213\n      jump\t// in\n    tag_383:\n        /* \"#utility.yul\":17173:17268   */\n      swap5\n      pop\n        /* \"#utility.yul\":17299:17300   */\n      0x01\n        /* \"#utility.yul\":17288:17297   */\n      dup3\n        /* \"#utility.yul\":17284:17301   */\n      and\n        /* \"#utility.yul\":17315:17316   */\n      0x00\n        /* \"#utility.yul\":17310:17447   */\n      dup2\n      eq\n      tag_385\n      jumpi\n        /* \"#utility.yul\":17461:17462   */\n      0x01\n        /* \"#utility.yul\":17456:17796   */\n      dup2\n      eq\n      tag_386\n      jumpi\n        /* \"#utility.yul\":17277:17796   */\n      jump(tag_384)\n        /* \"#utility.yul\":17310:17447   */\n    tag_385:\n        /* \"#utility.yul\":17394:17398   */\n      0xff\n        /* \"#utility.yul\":17390:17399   */\n      not\n        /* \"#utility.yul\":17379:17388   */\n      dup4\n        /* \"#utility.yul\":17375:17400   */\n      and\n        /* \"#utility.yul\":17370:17373   */\n      dup7\n        /* \"#utility.yul\":17363:17401   */\n      mstore\n        /* \"#utility.yul\":17430:17436   */\n      dup2\n        /* \"#utility.yul\":17425:17428   */\n      dup7\n        /* \"#utility.yul\":17421:17437   */\n      add\n        /* \"#utility.yul\":17414:17437   */\n      swap4\n      pop\n        /* \"#utility.yul\":17310:17447   */\n      jump(tag_384)\n        /* \"#utility.yul\":17456:17796   */\n    tag_386:\n        /* \"#utility.yul\":17523:17560   */\n      tag_387\n        /* \"#utility.yul\":17554:17559   */\n      dup6\n        /* \"#utility.yul\":17523:17560   */\n      tag_214\n      jump\t// in\n    tag_387:\n        /* \"#utility.yul\":17582:17583   */\n      0x00\n        /* \"#utility.yul\":17596:17750   */\n    tag_388:\n        /* \"#utility.yul\":17610:17616   */\n      dup4\n        /* \"#utility.yul\":17607:17608   */\n      dup2\n        /* \"#utility.yul\":17604:17617   */\n      lt\n        /* \"#utility.yul\":17596:17750   */\n      iszero\n      tag_390\n      jumpi\n        /* \"#utility.yul\":17684:17691   */\n      dup2\n        /* \"#utility.yul\":17678:17692   */\n      sload\n        /* \"#utility.yul\":17674:17675   */\n      dup2\n        /* \"#utility.yul\":17669:17672   */\n      dup10\n        /* \"#utility.yul\":17665:17676   */\n      add\n        /* \"#utility.yul\":17658:17693   */\n      mstore\n        /* \"#utility.yul\":17734:17735   */\n      0x01\n        /* \"#utility.yul\":17725:17732   */\n      dup3\n        /* \"#utility.yul\":17721:17736   */\n      add\n        /* \"#utility.yul\":17710:17736   */\n      swap2\n      pop\n        /* \"#utility.yul\":17632:17636   */\n      0x20\n        /* \"#utility.yul\":17629:17630   */\n      dup2\n        /* \"#utility.yul\":17625:17637   */\n      add\n        /* \"#utility.yul\":17620:17637   */\n      swap1\n      pop\n        /* \"#utility.yul\":17596:17750   */\n      jump(tag_388)\n    tag_390:\n        /* \"#utility.yul\":17779:17785   */\n      dup4\n        /* \"#utility.yul\":17774:17777   */\n      dup9\n        /* \"#utility.yul\":17770:17786   */\n      add\n        /* \"#utility.yul\":17763:17786   */\n      swap6\n      pop\n        /* \"#utility.yul\":17463:17796   */\n      pop\n      pop\n        /* \"#utility.yul\":17277:17796   */\n    tag_384:\n      pop\n        /* \"#utility.yul\":17066:17802   */\n      pop\n      pop\n        /* \"#utility.yul\":16961:17802   */\n      swap3\n      swap2\n      pop\n      pop\n      jump\t// out\n        /* \"#utility.yul\":17808:18073   */\n    tag_139:\n        /* \"#utility.yul\":17935:17938   */\n      0x00\n        /* \"#utility.yul\":17957:18047   */\n      tag_392\n        /* \"#utility.yul\":18043:18046   */\n      dup3\n        /* \"#utility.yul\":18034:18040   */\n      dup5\n        /* \"#utility.yul\":17957:18047   */\n      tag_215\n      jump\t// in\n    tag_392:\n        /* \"#utility.yul\":17950:18047   */\n      swap2\n      pop\n        /* \"#utility.yul\":18064:18067   */\n      dup2\n        /* \"#utility.yul\":18057:18067   */\n      swap1\n      pop\n        /* \"#utility.yul\":17808:18073   */\n      swap3\n      swap2\n      pop\n      pop\n      jump\t// out\n        /* \"#utility.yul\":18079:18238   */\n    tag_216:\n        /* \"#utility.yul\":18219:18230   */\n      0x7478206661696c65640000000000000000000000000000000000000000000000\n        /* \"#utility.yul\":18215:18216   */\n      0x00\n        /* \"#utility.yul\":18207:18213   */\n      dup3\n        /* \"#utility.yul\":18203:18217   */\n      add\n        /* \"#utility.yul\":18196:18231   */\n      mstore\n        /* \"#utility.yul\":18079:18238   */\n      pop\n      jump\t// out\n        /* \"#utility.yul\":18244:18609   */\n    tag_217:\n        /* \"#utility.yul\":18386:18389   */\n      0x00\n        /* \"#utility.yul\":18407:18473   */\n      tag_395\n        /* \"#utility.yul\":18471:18472   */\n      0x09\n        /* \"#utility.yul\":18466:18469   */\n      dup4\n        /* \"#utility.yul\":18407:18473   */\n      tag_200\n      jump\t// in\n    tag_395:\n        /* \"#utility.yul\":18400:18473   */\n      swap2\n      pop\n        /* \"#utility.yul\":18482:18575   */\n      tag_396\n        /* \"#utility.yul\":18571:18574   */\n      dup3\n        /* \"#utility.yul\":18482:18575   */\n      tag_216\n      jump\t// in\n    tag_396:\n        /* \"#utility.yul\":18600:18602   */\n      0x20\n        /* \"#utility.yul\":18595:18598   */\n      dup3\n        /* \"#utility.yul\":18591:18603   */\n      add\n        /* \"#utility.yul\":18584:18603   */\n      swap1\n      pop\n        /* \"#utility.yul\":18244:18609   */\n      swap2\n      swap1\n      pop\n      jump\t// out\n        /* \"#utility.yul\":18615:19034   */\n    tag_145:\n        /* \"#utility.yul\":18781:18785   */\n      0x00\n        /* \"#utility.yul\":18819:18821   */\n      0x20\n        /* \"#utility.yul\":18808:18817   */\n      dup3\n        /* \"#utility.yul\":18804:18822   */\n      add\n        /* \"#utility.yul\":18796:18822   */\n      swap1\n      pop\n        /* \"#utility.yul\":18868:18877   */\n      dup2\n        /* \"#utility.yul\":18862:18866   */\n      dup2\n        /* \"#utility.yul\":18858:18878   */\n      sub\n        /* \"#utility.yul\":18854:18855   */\n      0x00\n        /* \"#utility.yul\":18843:18852   */\n      dup4\n        /* \"#utility.yul\":18839:18856   */\n      add\n        /* \"#utility.yul\":18832:18879   */\n      mstore\n        /* \"#utility.yul\":18896:19027   */\n      tag_398\n        /* \"#utility.yul\":19022:19026   */\n      dup2\n        /* \"#utility.yul\":18896:19027   */\n      tag_217\n      jump\t// in\n    tag_398:\n        /* \"#utility.yul\":18888:19027   */\n      swap1\n      pop\n        /* \"#utility.yul\":18615:19034   */\n      swap2\n      swap1\n      pop\n      jump\t// out\n        /* \"#utility.yul\":19040:19459   */\n    tag_154:\n        /* \"#utility.yul\":19179:19183   */\n      0x00\n        /* \"#utility.yul\":19217:19219   */\n      0x40\n        /* \"#utility.yul\":19206:19215   */\n      dup3\n        /* \"#utility.yul\":19202:19220   */\n      add\n        /* \"#utility.yul\":19194:19220   */\n      swap1\n      pop\n        /* \"#utility.yul\":19230:19301   */\n      tag_400\n        /* \"#utility.yul\":19298:19299   */\n      0x00\n        /* \"#utility.yul\":19287:19296   */\n      dup4\n        /* \"#utility.yul\":19283:19300   */\n      add\n        /* \"#utility.yul\":19274:19280   */\n      dup6\n        /* \"#utility.yul\":19230:19301   */\n      tag_166\n      jump\t// in\n    tag_400:\n        /* \"#utility.yul\":19348:19357   */\n      dup2\n        /* \"#utility.yul\":19342:19346   */\n      dup2\n        /* \"#utility.yul\":19338:19358   */\n      sub\n        /* \"#utility.yul\":19333:19335   */\n      0x20\n        /* \"#utility.yul\":19322:19331   */\n      dup4\n        /* \"#utility.yul\":19318:19336   */\n      add\n        /* \"#utility.yul\":19311:19359   */\n      mstore\n        /* \"#utility.yul\":19376:19452   */\n      tag_401\n        /* \"#utility.yul\":19447:19451   */\n      dup2\n        /* \"#utility.yul\":19438:19444   */\n      dup5\n        /* \"#utility.yul\":19376:19452   */\n      tag_183\n      jump\t// in\n    tag_401:\n        /* \"#utility.yul\":19368:19452   */\n      swap1\n      pop\n        /* \"#utility.yul\":19040:19459   */\n      swap4\n      swap3\n      pop\n      pop\n      pop\n      jump\t// out\n\n    auxdata: 0xa2646970667358221220a9529ed6d3e3080c48a65323d66d05d99c02865b502ca934a80f7b4c3625c3e564736f6c634300080e0033\n}\n",
				"bytecode": {
					"linkReferences": {},
					"object": "60806040523480156200001157600080fd5b50604051620020ea380380620020ea83398181016040528101906200003791906200050d565b60008251116200007e576040517f08c379a00000000000000000000000000000000000000000000000000000000081526004016200007590620005d4565b60405180910390fd5b60008111801562000090575081518111155b620000d2576040517f08c379a0000000000000000000000000000000000000000000000000000000008152600401620000c9906200066c565b60405180910390fd5b60005b8251811015620002d4576000838281518110620000f757620000f66200068e565b5b60200260200101519050600073ffffffffffffffffffffffffffffffffffffffff168173ffffffffffffffffffffffffffffffffffffffff160362000173576040517f08c379a00000000000000000000000000000000000000000000000000000000081526004016200016a906200070d565b60405180910390fd5b600160008273ffffffffffffffffffffffffffffffffffffffff1673ffffffffffffffffffffffffffffffffffffffff16815260200190815260200160002060009054906101000a900460ff161562000203576040517f08c379a0000000000000000000000000000000000000000000000000000000008152600401620001fa906200077f565b60405180910390fd5b60018060008373ffffffffffffffffffffffffffffffffffffffff1673ffffffffffffffffffffffffffffffffffffffff16815260200190815260200160002060006101000a81548160ff0219169083151502179055506000819080600181540180825580915050600190039060005260206000200160009091909190916101000a81548173ffffffffffffffffffffffffffffffffffffffff021916908373ffffffffffffffffffffffffffffffffffffffff160217905550508080620002cb90620007d0565b915050620000d5565b508060028190555050506200081d565b6000604051905090565b600080fd5b600080fd5b600080fd5b6000601f19601f8301169050919050565b7f4e487b7100000000000000000000000000000000000000000000000000000000600052604160045260246000fd5b6200034882620002fd565b810181811067ffffffffffffffff821117156200036a57620003696200030e565b5b80604052505050565b60006200037f620002e4565b90506200038d82826200033d565b919050565b600067ffffffffffffffff821115620003b057620003af6200030e565b5b602082029050602081019050919050565b600080fd5b600073ffffffffffffffffffffffffffffffffffffffff82169050919050565b6000620003f382620003c6565b9050919050565b6200040581620003e6565b81146200041157600080fd5b50565b6000815190506200042581620003fa565b92915050565b6000620004426200043c8462000392565b62000373565b90508083825260208201905060208402830185811115620004685762000467620003c1565b5b835b8181101562000495578062000480888262000414565b8452602084019350506020810190506200046a565b5050509392505050565b600082601f830112620004b757620004b6620002f8565b5b8151620004c98482602086016200042b565b91505092915050565b6000819050919050565b620004e781620004d2565b8114620004f357600080fd5b50565b6000815190506200050781620004dc565b92915050565b60008060408385031215620005275762000526620002ee565b5b600083015167ffffffffffffffff811115620005485762000547620002f3565b5b62000556858286016200049f565b92505060206200056985828601620004f6565b9150509250929050565b600082825260208201905092915050565b7f6f776e6572207265717569726564000000000000000000000000000000000000600082015250565b6000620005bc600e8362000573565b9150620005c98262000584565b602082019050919050565b60006020820190508181036000830152620005ef81620005ad565b9050919050565b7f696e76616c6964206e756d626572206f6620726571756972656420636f6e666960008201527f726d6174696f6e73000000000000000000000000000000000000000000000000602082015250565b60006200065460288362000573565b91506200066182620005f6565b604082019050919050565b60006020820190508181036000830152620006878162000645565b9050919050565b7f4e487b7100000000000000000000000000000000000000000000000000000000600052603260045260246000fd5b7f696e76616c6964206f776e657200000000000000000000000000000000000000600082015250565b6000620006f5600d8362000573565b91506200070282620006bd565b602082019050919050565b600060208201905081810360008301526200072881620006e6565b9050919050565b7f6f776e6572206e6f7420756e6971757265000000000000000000000000000000600082015250565b60006200076760118362000573565b915062000774826200072f565b602082019050919050565b600060208201905081810360008301526200079a8162000758565b9050919050565b7f4e487b7100000000000000000000000000000000000000000000000000000000600052601160045260246000fd5b6000620007dd82620004d2565b91507fffffffffffffffffffffffffffffffffffffffffffffffffffffffffffffffff8203620008125762000811620007a1565b5b600182019050919050565b6118bd806200082d6000396000f3fe6080604052600436106100955760003560e01c80639ace38c2116100595780639ace38c214610212578063a0e67e2b14610253578063c01a8c841461027e578063c6427474146102a7578063d0549b85146102d0576100ec565b8063025e7c27146100f157806320ea8d861461012e5780632f54bf6e1461015757806333ea3dc81461019457806380f59a65146101d5576100ec565b366100ec573373ffffffffffffffffffffffffffffffffffffffff167f90890809c654f11d6e72a28fa60149770a0d11ec6c92319d6ceb2bb0a4ea1a1534476040516100e2929190610ec3565b60405180910390a2005b600080fd5b3480156100fd57600080fd5b5061011860048036038101906101139190610f2c565b6102fb565b6040516101259190610f9a565b60405180910390f35b34801561013a57600080fd5b5061015560048036038101906101509190610f2c565b61033a565b005b34801561016357600080fd5b5061017e60048036038101906101799190610fe1565b610614565b60405161018b9190611029565b60405180910390f35b3480156101a057600080fd5b506101bb60048036038101906101b69190610f2c565b610634565b6040516101cc9594939291906110dd565b60405180910390f35b3480156101e157600080fd5b506101fc60048036038101906101f79190611137565b610747565b6040516102099190611029565b60405180910390f35b34801561021e57600080fd5b5061023960048036038101906102349190610f2c565b610776565b60405161024a9594939291906110dd565b60405180910390f35b34801561025f57600080fd5b50610268610871565b6040516102759190611235565b60405180910390f35b34801561028a57600080fd5b506102a560048036038101906102a09190610f2c565b6108ff565b005b3480156102b357600080fd5b506102ce60048036038101906102c9919061138c565b610bf7565b005b3480156102dc57600080fd5b506102e5610e01565b6040516102f291906113fb565b60405180910390f35b6000818154811061030b57600080fd5b906000526020600020016000915054906101000a900473ffffffffffffffffffffffffffffffffffffffff1681565b600160003373ffffffffffffffffffffffffffffffffffffffff1673ffffffffffffffffffffffffffffffffffffffff16815260200190815260200160002060009054906101000a900460ff166103c6576040517f08c379a00000000000000000000000000000000000000000000000000000000081526004016103bd90611473565b60405180910390fd5b80600480549050811061040e576040517f08c379a0000000000000000000000000000000000000000000000000000000008152600401610405906114df565b60405180910390fd5b8160048181548110610423576104226114ff565b5b906000526020600020906005020160030160009054906101000a900460ff1615610482576040517f08c379a00000000000000000000000000000000000000000000000000000000081526004016104799061157a565b60405180910390fd5b600060048481548110610498576104976114ff565b5b906000526020600020906005020190506003600085815260200190815260200160002060003373ffffffffffffffffffffffffffffffffffffffff1673ffffffffffffffffffffffffffffffffffffffff16815260200190815260200160002060009054906101000a900460ff16610545576040517f08c379a000000000000000000000000000000000000000000000000000000000815260040161053c906115e6565b60405180910390fd5b600181600401600082825461055a9190611635565b9250508190555060006003600086815260200190815260200160002060003373ffffffffffffffffffffffffffffffffffffffff1673ffffffffffffffffffffffffffffffffffffffff16815260200190815260200160002060006101000a81548160ff021916908315150217905550833373ffffffffffffffffffffffffffffffffffffffff167ff0dca620e2e81f7841d07bcc105e1704fb01475b278a9d4c236e1c62945edd5560405160405180910390a350505050565b60016020528060005260406000206000915054906101000a900460ff1681565b6000806060600080600060048781548110610652576106516114ff565b5b906000526020600020906005020190508060000160009054906101000a900473ffffffffffffffffffffffffffffffffffffffff168160010154826002018360030160009054906101000a900460ff1684600401548280546106b390611698565b80601f01602080910402602001604051908101604052809291908181526020018280546106df90611698565b801561072c5780601f106107015761010080835404028352916020019161072c565b820191906000526020600020905b81548152906001019060200180831161070f57829003601f168201915b50505050509250955095509550955095505091939590929450565b60036020528160005260406000206020528060005260406000206000915091509054906101000a900460ff1681565b6004818154811061078657600080fd5b90600052602060002090600502016000915090508060000160009054906101000a900473ffffffffffffffffffffffffffffffffffffffff16908060010154908060020180546107d590611698565b80601f016020809104026020016040519081016040528092919081815260200182805461080190611698565b801561084e5780601f106108235761010080835404028352916020019161084e565b820191906000526020600020905b81548152906001019060200180831161083157829003601f168201915b5050505050908060030160009054906101000a900460ff16908060040154905085565b606060008054806020026020016040519081016040528092919081815260200182805480156108f557602002820191906000526020600020905b8160009054906101000a900473ffffffffffffffffffffffffffffffffffffffff1673ffffffffffffffffffffffffffffffffffffffff16815260200190600101908083116108ab575b5050505050905090565b600160003373ffffffffffffffffffffffffffffffffffffffff1673ffffffffffffffffffffffffffffffffffffffff16815260200190815260200160002060009054906101000a900460ff1661098b576040517f08c379a000000000000000000000000000000000000000000000000000000000815260040161098290611473565b60405180910390fd5b8060048054905081106109d3576040517f08c379a00000000000000000000000000000000000000000000000000000000081526004016109ca906114df565b60405180910390fd5b81600481815481106109e8576109e76114ff565b5b906000526020600020906005020160030160009054906101000a900460ff1615610a47576040517f08c379a0000000000000000000000000000000000000000000000000000000008152600401610a3e9061157a565b60405180910390fd5b600060048481548110610a5d57610a5c6114ff565b5b9060005260206000209060050201905060025481600401541015610ab6576040517f08c379a0000000000000000000000000000000000000000000000000000000008152600401610aad90611715565b60405180910390fd5b60018160030160006101000a81548160ff02191690831515021790555060008160000160009054906101000a900473ffffffffffffffffffffffffffffffffffffffff1673ffffffffffffffffffffffffffffffffffffffff16826001015483600201604051610b2691906117d4565b60006040518083038185875af1925050503d8060008114610b63576040519150601f19603f3d011682016040523d82523d6000602084013e610b68565b606091505b5050905080610bac576040517f08c379a0000000000000000000000000000000000000000000000000000000008152600401610ba390611837565b60405180910390fd5b843373ffffffffffffffffffffffffffffffffffffffff167f5445f318f4f5fcfb66592e68e0cc5822aa15664039bd5f0ffde24c5a8142b1ac60405160405180910390a35050505050565b600160003373ffffffffffffffffffffffffffffffffffffffff1673ffffffffffffffffffffffffffffffffffffffff16815260200190815260200160002060009054906101000a900460ff16610c83576040517f08c379a0000000000000000000000000000000000000000000000000000000008152600401610c7a90611473565b60405180910390fd5b6000600480549050905060046040518060a001604052808673ffffffffffffffffffffffffffffffffffffffff1681526020018581526020018481526020016000151581526020016000815250908060018154018082558091505060019003906000526020600020906005020160009091909190915060008201518160000160006101000a81548173ffffffffffffffffffffffffffffffffffffffff021916908373ffffffffffffffffffffffffffffffffffffffff160217905550602082015181600101556040820151816002019080519060200190610d66929190610e07565b5060608201518160030160006101000a81548160ff0219169083151502179055506080820151816004015550508373ffffffffffffffffffffffffffffffffffffffff16813373ffffffffffffffffffffffffffffffffffffffff167fd5a05bf70715ad82a09a756320284a1b54c9ff74cd0f8cce6219e79b563fe59d8686604051610df3929190611857565b60405180910390a450505050565b60025481565b828054610e1390611698565b90600052602060002090601f016020900481019282610e355760008555610e7c565b82601f10610e4e57805160ff1916838001178555610e7c565b82800160010185558215610e7c579182015b82811115610e7b578251825591602001919060010190610e60565b5b509050610e899190610e8d565b5090565b5b80821115610ea6576000816000905550600101610e8e565b5090565b6000819050919050565b610ebd81610eaa565b82525050565b6000604082019050610ed86000830185610eb4565b610ee56020830184610eb4565b9392505050565b6000604051905090565b600080fd5b600080fd5b610f0981610eaa565b8114610f1457600080fd5b50565b600081359050610f2681610f00565b92915050565b600060208284031215610f4257610f41610ef6565b5b6000610f5084828501610f17565b91505092915050565b600073ffffffffffffffffffffffffffffffffffffffff82169050919050565b6000610f8482610f59565b9050919050565b610f9481610f79565b82525050565b6000602082019050610faf6000830184610f8b565b92915050565b610fbe81610f79565b8114610fc957600080fd5b50565b600081359050610fdb81610fb5565b92915050565b600060208284031215610ff757610ff6610ef6565b5b600061100584828501610fcc565b91505092915050565b60008115159050919050565b6110238161100e565b82525050565b600060208201905061103e600083018461101a565b92915050565b600081519050919050565b600082825260208201905092915050565b60005b8381101561107e578082015181840152602081019050611063565b8381111561108d576000848401525b50505050565b6000601f19601f8301169050919050565b60006110af82611044565b6110b9818561104f565b93506110c9818560208601611060565b6110d281611093565b840191505092915050565b600060a0820190506110f26000830188610f8b565b6110ff6020830187610eb4565b818103604083015261111181866110a4565b9050611120606083018561101a565b61112d6080830184610eb4565b9695505050505050565b6000806040838503121561114e5761114d610ef6565b5b600061115c85828601610f17565b925050602061116d85828601610fcc565b9150509250929050565b600081519050919050565b600082825260208201905092915050565b6000819050602082019050919050565b6111ac81610f79565b82525050565b60006111be83836111a3565b60208301905092915050565b6000602082019050919050565b60006111e282611177565b6111ec8185611182565b93506111f783611193565b8060005b8381101561122857815161120f88826111b2565b975061121a836111ca565b9250506001810190506111fb565b5085935050505092915050565b6000602082019050818103600083015261124f81846111d7565b905092915050565b600080fd5b600080fd5b7f4e487b7100000000000000000000000000000000000000000000000000000000600052604160045260246000fd5b61129982611093565b810181811067ffffffffffffffff821117156112b8576112b7611261565b5b80604052505050565b60006112cb610eec565b90506112d78282611290565b919050565b600067ffffffffffffffff8211156112f7576112f6611261565b5b61130082611093565b9050602081019050919050565b82818337600083830152505050565b600061132f61132a846112dc565b6112c1565b90508281526020810184848401111561134b5761134a61125c565b5b61135684828561130d565b509392505050565b600082601f83011261137357611372611257565b5b813561138384826020860161131c565b91505092915050565b6000806000606084860312156113a5576113a4610ef6565b5b60006113b386828701610fcc565b93505060206113c486828701610f17565b925050604084013567ffffffffffffffff8111156113e5576113e4610efb565b5b6113f18682870161135e565b9150509250925092565b60006020820190506114106000830184610eb4565b92915050565b600082825260208201905092915050565b7f6e6f74206f776e65720000000000000000000000000000000000000000000000600082015250565b600061145d600983611416565b915061146882611427565b602082019050919050565b6000602082019050818103600083015261148c81611450565b9050919050565b7f747820646f6573206e6f74206578697374000000000000000000000000000000600082015250565b60006114c9601183611416565b91506114d482611493565b602082019050919050565b600060208201905081810360008301526114f8816114bc565b9050919050565b7f4e487b7100000000000000000000000000000000000000000000000000000000600052603260045260246000fd5b7f747820616c726561647920657865637574656400000000000000000000000000600082015250565b6000611564601383611416565b915061156f8261152e565b602082019050919050565b6000602082019050818103600083015261159381611557565b9050919050565b7f7478206e6f7420636f6e6669726d656400000000000000000000000000000000600082015250565b60006115d0601083611416565b91506115db8261159a565b602082019050919050565b600060208201905081810360008301526115ff816115c3565b9050919050565b7f4e487b7100000000000000000000000000000000000000000000000000000000600052601160045260246000fd5b600061164082610eaa565b915061164b83610eaa565b92508282101561165e5761165d611606565b5b828203905092915050565b7f4e487b7100000000000000000000000000000000000000000000000000000000600052602260045260246000fd5b600060028204905060018216806116b057607f821691505b6020821081036116c3576116c2611669565b5b50919050565b7f63616e6e6f742065786563757465207478000000000000000000000000000000600082015250565b60006116ff601183611416565b915061170a826116c9565b602082019050919050565b6000602082019050818103600083015261172e816116f2565b9050919050565b600081905092915050565b60008190508160005260206000209050919050565b6000815461176281611698565b61176c8186611735565b945060018216600081146117875760018114611798576117cb565b60ff198316865281860193506117cb565b6117a185611740565b60005b838110156117c3578154818901526001820191506020810190506117a4565b838801955050505b50505092915050565b60006117e08284611755565b915081905092915050565b7f7478206661696c65640000000000000000000000000000000000000000000000600082015250565b6000611821600983611416565b915061182c826117eb565b602082019050919050565b6000602082019050818103600083015261185081611814565b9050919050565b600060408201905061186c6000830185610eb4565b818103602083015261187e81846110a4565b9050939250505056fea2646970667358221220a9529ed6d3e3080c48a65323d66d05d99c02865b502ca934a80f7b4c3625c3e564736f6c634300080e0033",
					"opcodes": "PUSH1 0x80 PUSH1 0x40 MSTORE CALLVALUE DUP1 ISZERO PUSH3 0x11 JUMPI PUSH1 0x0 DUP1 REVERT JUMPDEST POP PUSH1 0x40 MLOAD PUSH3 0x20EA CODESIZE SUB DUP1 PUSH3 0x20EA DUP4 CODECOPY DUP2 DUP2 ADD PUSH1 0x40 MSTORE DUP2 ADD SWAP1 PUSH3 0x37 SWAP2 SWAP1 PUSH3 0x50D JUMP JUMPDEST PUSH1 0x0 DUP3 MLOAD GT PUSH3 0x7E JUMPI PUSH1 0x40 MLOAD PUSH32 0x8C379A000000000000000000000000000000000000000000000000000000000 DUP2 MSTORE PUSH1 0x4 ADD PUSH3 0x75 SWAP1 PUSH3 0x5D4 JUMP JUMPDEST PUSH1 0x40 MLOAD DUP1 SWAP2 SUB SWAP1 REVERT JUMPDEST PUSH1 0x0 DUP2 GT DUP1 ISZERO PUSH3 0x90 JUMPI POP DUP2 MLOAD DUP2 GT ISZERO JUMPDEST PUSH3 0xD2 JUMPI PUSH1 0x40 MLOAD PUSH32 0x8C379A000000000000000000000000000000000000000000000000000000000 DUP2 MSTORE PUSH1 0x4 ADD PUSH3 0xC9 SWAP1 PUSH3 0x66C JUMP JUMPDEST PUSH1 0x40 MLOAD DUP1 SWAP2 SUB SWAP1 REVERT JUMPDEST PUSH1 0x0 JUMPDEST DUP3 MLOAD DUP2 LT ISZERO PUSH3 0x2D4 JUMPI PUSH1 0x0 DUP4 DUP3 DUP2 MLOAD DUP2 LT PUSH3 0xF7 JUMPI PUSH3 0xF6 PUSH3 0x68E JUMP JUMPDEST JUMPDEST PUSH1 0x20 MUL PUSH1 0x20 ADD ADD MLOAD SWAP1 POP PUSH1 0x0 PUSH20 0xFFFFFFFFFFFFFFFFFFFFFFFFFFFFFFFFFFFFFFFF AND DUP2 PUSH20 0xFFFFFFFFFFFFFFFFFFFFFFFFFFFFFFFFFFFFFFFF AND SUB PUSH3 0x173 JUMPI PUSH1 0x40 MLOAD PUSH32 0x8C379A000000000000000000000000000000000000000000000000000000000 DUP2 MSTORE PUSH1 0x4 ADD PUSH3 0x16A SWAP1 PUSH3 0x70D JUMP JUMPDEST PUSH1 0x40 MLOAD DUP1 SWAP2 SUB SWAP1 REVERT JUMPDEST PUSH1 0x1 PUSH1 0x0 DUP3 PUSH20 0xFFFFFFFFFFFFFFFFFFFFFFFFFFFFFFFFFFFFFFFF AND PUSH20 0xFFFFFFFFFFFFFFFFFFFFFFFFFFFFFFFFFFFFFFFF AND DUP2 MSTORE PUSH1 0x20 ADD SWAP1 DUP2 MSTORE PUSH1 0x20 ADD PUSH1 0x0 KECCAK256 PUSH1 0x0 SWAP1 SLOAD SWAP1 PUSH2 0x100 EXP SWAP1 DIV PUSH1 0xFF AND ISZERO PUSH3 0x203 JUMPI PUSH1 0x40 MLOAD PUSH32 0x8C379A000000000000000000000000000000000000000000000000000000000 DUP2 MSTORE PUSH1 0x4 ADD PUSH3 0x1FA SWAP1 PUSH3 0x77F JUMP JUMPDEST PUSH1 0x40 MLOAD DUP1 SWAP2 SUB SWAP1 REVERT JUMPDEST PUSH1 0x1 DUP1 PUSH1 0x0 DUP4 PUSH20 0xFFFFFFFFFFFFFFFFFFFFFFFFFFFFFFFFFFFFFFFF AND PUSH20 0xFFFFFFFFFFFFFFFFFFFFFFFFFFFFFFFFFFFFFFFF AND DUP2 MSTORE PUSH1 0x20 ADD SWAP1 DUP2 MSTORE PUSH1 0x20 ADD PUSH1 0x0 KECCAK256 PUSH1 0x0 PUSH2 0x100 EXP DUP2 SLOAD DUP2 PUSH1 0xFF MUL NOT AND SWAP1 DUP4 ISZERO ISZERO MUL OR SWAP1 SSTORE POP PUSH1 0x0 DUP2 SWAP1 DUP1 PUSH1 0x1 DUP2 SLOAD ADD DUP1 DUP3 SSTORE DUP1 SWAP2 POP POP PUSH1 0x1 SWAP1 SUB SWAP1 PUSH1 0x0 MSTORE PUSH1 0x20 PUSH1 0x0 KECCAK256 ADD PUSH1 0x0 SWAP1 SWAP2 SWAP1 SWAP2 SWAP1 SWAP2 PUSH2 0x100 EXP DUP2 SLOAD DUP2 PUSH20 0xFFFFFFFFFFFFFFFFFFFFFFFFFFFFFFFFFFFFFFFF MUL NOT AND SWAP1 DUP4 PUSH20 0xFFFFFFFFFFFFFFFFFFFFFFFFFFFFFFFFFFFFFFFF AND MUL OR SWAP1 SSTORE POP POP DUP1 DUP1 PUSH3 0x2CB SWAP1 PUSH3 0x7D0 JUMP JUMPDEST SWAP2 POP POP PUSH3 0xD5 JUMP JUMPDEST POP DUP1 PUSH1 0x2 DUP2 SWAP1 SSTORE POP POP POP PUSH3 0x81D JUMP JUMPDEST PUSH1 0x0 PUSH1 0x40 MLOAD SWAP1 POP SWAP1 JUMP JUMPDEST PUSH1 0x0 DUP1 REVERT JUMPDEST PUSH1 0x0 DUP1 REVERT JUMPDEST PUSH1 0x0 DUP1 REVERT JUMPDEST PUSH1 0x0 PUSH1 0x1F NOT PUSH1 0x1F DUP4 ADD AND SWAP1 POP SWAP2 SWAP1 POP JUMP JUMPDEST PUSH32 0x4E487B7100000000000000000000000000000000000000000000000000000000 PUSH1 0x0 MSTORE PUSH1 0x41 PUSH1 0x4 MSTORE PUSH1 0x24 PUSH1 0x0 REVERT JUMPDEST PUSH3 0x348 DUP3 PUSH3 0x2FD JUMP JUMPDEST DUP2 ADD DUP2 DUP2 LT PUSH8 0xFFFFFFFFFFFFFFFF DUP3 GT OR ISZERO PUSH3 0x36A JUMPI PUSH3 0x369 PUSH3 0x30E JUMP JUMPDEST JUMPDEST DUP1 PUSH1 0x40 MSTORE POP POP POP JUMP JUMPDEST PUSH1 0x0 PUSH3 0x37F PUSH3 0x2E4 JUMP JUMPDEST SWAP1 POP PUSH3 0x38D DUP3 DUP3 PUSH3 0x33D JUMP JUMPDEST SWAP2 SWAP1 POP JUMP JUMPDEST PUSH1 0x0 PUSH8 0xFFFFFFFFFFFFFFFF DUP3 GT ISZERO PUSH3 0x3B0 JUMPI PUSH3 0x3AF PUSH3 0x30E JUMP JUMPDEST JUMPDEST PUSH1 0x20 DUP3 MUL SWAP1 POP PUSH1 0x20 DUP2 ADD SWAP1 POP SWAP2 SWAP1 POP JUMP JUMPDEST PUSH1 0x0 DUP1 REVERT JUMPDEST PUSH1 0x0 PUSH20 0xFFFFFFFFFFFFFFFFFFFFFFFFFFFFFFFFFFFFFFFF DUP3 AND SWAP1 POP SWAP2 SWAP1 POP JUMP JUMPDEST PUSH1 0x0 PUSH3 0x3F3 DUP3 PUSH3 0x3C6 JUMP JUMPDEST SWAP1 POP SWAP2 SWAP1 POP JUMP JUMPDEST PUSH3 0x405 DUP2 PUSH3 0x3E6 JUMP JUMPDEST DUP2 EQ PUSH3 0x411 JUMPI PUSH1 0x0 DUP1 REVERT JUMPDEST POP JUMP JUMPDEST PUSH1 0x0 DUP2 MLOAD SWAP1 POP PUSH3 0x425 DUP2 PUSH3 0x3FA JUMP JUMPDEST SWAP3 SWAP2 POP POP JUMP JUMPDEST PUSH1 0x0 PUSH3 0x442 PUSH3 0x43C DUP5 PUSH3 0x392 JUMP JUMPDEST PUSH3 0x373 JUMP JUMPDEST SWAP1 POP DUP1 DUP4 DUP3 MSTORE PUSH1 0x20 DUP3 ADD SWAP1 POP PUSH1 0x20 DUP5 MUL DUP4 ADD DUP6 DUP2 GT ISZERO PUSH3 0x468 JUMPI PUSH3 0x467 PUSH3 0x3C1 JUMP JUMPDEST JUMPDEST DUP4 JUMPDEST DUP2 DUP2 LT ISZERO PUSH3 0x495 JUMPI DUP1 PUSH3 0x480 DUP9 DUP3 PUSH3 0x414 JUMP JUMPDEST DUP5 MSTORE PUSH1 0x20 DUP5 ADD SWAP4 POP POP PUSH1 0x20 DUP2 ADD SWAP1 POP PUSH3 0x46A JUMP JUMPDEST POP POP POP SWAP4 SWAP3 POP POP POP JUMP JUMPDEST PUSH1 0x0 DUP3 PUSH1 0x1F DUP4 ADD SLT PUSH3 0x4B7 JUMPI PUSH3 0x4B6 PUSH3 0x2F8 JUMP JUMPDEST JUMPDEST DUP2 MLOAD PUSH3 0x4C9 DUP5 DUP3 PUSH1 0x20 DUP7 ADD PUSH3 0x42B JUMP JUMPDEST SWAP2 POP POP SWAP3 SWAP2 POP POP JUMP JUMPDEST PUSH1 0x0 DUP2 SWAP1 POP SWAP2 SWAP1 POP JUMP JUMPDEST PUSH3 0x4E7 DUP2 PUSH3 0x4D2 JUMP JUMPDEST DUP2 EQ PUSH3 0x4F3 JUMPI PUSH1 0x0 DUP1 REVERT JUMPDEST POP JUMP JUMPDEST PUSH1 0x0 DUP2 MLOAD SWAP1 POP PUSH3 0x507 DUP2 PUSH3 0x4DC JUMP JUMPDEST SWAP3 SWAP2 POP POP JUMP JUMPDEST PUSH1 0x0 DUP1 PUSH1 0x40 DUP4 DUP6 SUB SLT ISZERO PUSH3 0x527 JUMPI PUSH3 0x526 PUSH3 0x2EE JUMP JUMPDEST JUMPDEST PUSH1 0x0 DUP4 ADD MLOAD PUSH8 0xFFFFFFFFFFFFFFFF DUP2 GT ISZERO PUSH3 0x548 JUMPI PUSH3 0x547 PUSH3 0x2F3 JUMP JUMPDEST JUMPDEST PUSH3 0x556 DUP6 DUP3 DUP7 ADD PUSH3 0x49F JUMP JUMPDEST SWAP3 POP POP PUSH1 0x20 PUSH3 0x569 DUP6 DUP3 DUP7 ADD PUSH3 0x4F6 JUMP JUMPDEST SWAP2 POP POP SWAP3 POP SWAP3 SWAP1 POP JUMP JUMPDEST PUSH1 0x0 DUP3 DUP3 MSTORE PUSH1 0x20 DUP3 ADD SWAP1 POP SWAP3 SWAP2 POP POP JUMP JUMPDEST PUSH32 0x6F776E6572207265717569726564000000000000000000000000000000000000 PUSH1 0x0 DUP3 ADD MSTORE POP JUMP JUMPDEST PUSH1 0x0 PUSH3 0x5BC PUSH1 0xE DUP4 PUSH3 0x573 JUMP JUMPDEST SWAP2 POP PUSH3 0x5C9 DUP3 PUSH3 0x584 JUMP JUMPDEST PUSH1 0x20 DUP3 ADD SWAP1 POP SWAP2 SWAP1 POP JUMP JUMPDEST PUSH1 0x0 PUSH1 0x20 DUP3 ADD SWAP1 POP DUP2 DUP2 SUB PUSH1 0x0 DUP4 ADD MSTORE PUSH3 0x5EF DUP2 PUSH3 0x5AD JUMP JUMPDEST SWAP1 POP SWAP2 SWAP1 POP JUMP JUMPDEST PUSH32 0x696E76616C6964206E756D626572206F6620726571756972656420636F6E6669 PUSH1 0x0 DUP3 ADD MSTORE PUSH32 0x726D6174696F6E73000000000000000000000000000000000000000000000000 PUSH1 0x20 DUP3 ADD MSTORE POP JUMP JUMPDEST PUSH1 0x0 PUSH3 0x654 PUSH1 0x28 DUP4 PUSH3 0x573 JUMP JUMPDEST SWAP2 POP PUSH3 0x661 DUP3 PUSH3 0x5F6 JUMP JUMPDEST PUSH1 0x40 DUP3 ADD SWAP1 POP SWAP2 SWAP1 POP JUMP JUMPDEST PUSH1 0x0 PUSH1 0x20 DUP3 ADD SWAP1 POP DUP2 DUP2 SUB PUSH1 0x0 DUP4 ADD MSTORE PUSH3 0x687 DUP2 PUSH3 0x645 JUMP JUMPDEST SWAP1 POP SWAP2 SWAP1 POP JUMP JUMPDEST PUSH32 0x4E487B7100000000000000000000000000000000000000000000000000000000 PUSH1 0x0 MSTORE PUSH1 0x32 PUSH1 0x4 MSTORE PUSH1 0x24 PUSH1 0x0 REVERT JUMPDEST PUSH32 0x696E76616C6964206F776E657200000000000000000000000000000000000000 PUSH1 0x0 DUP3 ADD MSTORE POP JUMP JUMPDEST PUSH1 0x0 PUSH3 0x6F5 PUSH1 0xD DUP4 PUSH3 0x573 JUMP JUMPDEST SWAP2 POP PUSH3 0x702 DUP3 PUSH3 0x6BD JUMP JUMPDEST PUSH1 0x20 DUP3 ADD SWAP1 POP SWAP2 SWAP1 POP JUMP JUMPDEST PUSH1 0x0 PUSH1 0x20 DUP3 ADD SWAP1 POP DUP2 DUP2 SUB PUSH1 0x0 DUP4 ADD MSTORE PUSH3 0x728 DUP2 PUSH3 0x6E6 JUMP JUMPDEST SWAP1 POP SWAP2 SWAP1 POP JUMP JUMPDEST PUSH32 0x6F776E6572206E6F7420756E6971757265000000000000000000000000000000 PUSH1 0x0 DUP3 ADD MSTORE POP JUMP JUMPDEST PUSH1 0x0 PUSH3 0x767 PUSH1 0x11 DUP4 PUSH3 0x573 JUMP JUMPDEST SWAP2 POP PUSH3 0x774 DUP3 PUSH3 0x72F JUMP JUMPDEST PUSH1 0x20 DUP3 ADD SWAP1 POP SWAP2 SWAP1 POP JUMP JUMPDEST PUSH1 0x0 PUSH1 0x20 DUP3 ADD SWAP1 POP DUP2 DUP2 SUB PUSH1 0x0 DUP4 ADD MSTORE PUSH3 0x79A DUP2 PUSH3 0x758 JUMP JUMPDEST SWAP1 POP SWAP2 SWAP1 POP JUMP JUMPDEST PUSH32 0x4E487B7100000000000000000000000000000000000000000000000000000000 PUSH1 0x0 MSTORE PUSH1 0x11 PUSH1 0x4 MSTORE PUSH1 0x24 PUSH1 0x0 REVERT JUMPDEST PUSH1 0x0 PUSH3 0x7DD DUP3 PUSH3 0x4D2 JUMP JUMPDEST SWAP2 POP PUSH32 0xFFFFFFFFFFFFFFFFFFFFFFFFFFFFFFFFFFFFFFFFFFFFFFFFFFFFFFFFFFFFFFFF DUP3 SUB PUSH3 0x812 JUMPI PUSH3 0x811 PUSH3 0x7A1 JUMP JUMPDEST JUMPDEST PUSH1 0x1 DUP3 ADD SWAP1 POP SWAP2 SWAP1 POP JUMP JUMPDEST PUSH2 0x18BD DUP1 PUSH3 0x82D PUSH1 0x0 CODECOPY PUSH1 0x0 RETURN INVALID PUSH1 0x80 PUSH1 0x40 MSTORE PUSH1 0x4 CALLDATASIZE LT PUSH2 0x95 JUMPI PUSH1 0x0 CALLDATALOAD PUSH1 0xE0 SHR DUP1 PUSH4 0x9ACE38C2 GT PUSH2 0x59 JUMPI DUP1 PUSH4 0x9ACE38C2 EQ PUSH2 0x212 JUMPI DUP1 PUSH4 0xA0E67E2B EQ PUSH2 0x253 JUMPI DUP1 PUSH4 0xC01A8C84 EQ PUSH2 0x27E JUMPI DUP1 PUSH4 0xC6427474 EQ PUSH2 0x2A7 JUMPI DUP1 PUSH4 0xD0549B85 EQ PUSH2 0x2D0 JUMPI PUSH2 0xEC JUMP JUMPDEST DUP1 PUSH4 0x25E7C27 EQ PUSH2 0xF1 JUMPI DUP1 PUSH4 0x20EA8D86 EQ PUSH2 0x12E JUMPI DUP1 PUSH4 0x2F54BF6E EQ PUSH2 0x157 JUMPI DUP1 PUSH4 0x33EA3DC8 EQ PUSH2 0x194 JUMPI DUP1 PUSH4 0x80F59A65 EQ PUSH2 0x1D5 JUMPI PUSH2 0xEC JUMP JUMPDEST CALLDATASIZE PUSH2 0xEC JUMPI CALLER PUSH20 0xFFFFFFFFFFFFFFFFFFFFFFFFFFFFFFFFFFFFFFFF AND PUSH32 0x90890809C654F11D6E72A28FA60149770A0D11EC6C92319D6CEB2BB0A4EA1A15 CALLVALUE SELFBALANCE PUSH1 0x40 MLOAD PUSH2 0xE2 SWAP3 SWAP2 SWAP1 PUSH2 0xEC3 JUMP JUMPDEST PUSH1 0x40 MLOAD DUP1 SWAP2 SUB SWAP1 LOG2 STOP JUMPDEST PUSH1 0x0 DUP1 REVERT JUMPDEST CALLVALUE DUP1 ISZERO PUSH2 0xFD JUMPI PUSH1 0x0 DUP1 REVERT JUMPDEST POP PUSH2 0x118 PUSH1 0x4 DUP1 CALLDATASIZE SUB DUP2 ADD SWAP1 PUSH2 0x113 SWAP2 SWAP1 PUSH2 0xF2C JUMP JUMPDEST PUSH2 0x2FB JUMP JUMPDEST PUSH1 0x40 MLOAD PUSH2 0x125 SWAP2 SWAP1 PUSH2 0xF9A JUMP JUMPDEST PUSH1 0x40 MLOAD DUP1 SWAP2 SUB SWAP1 RETURN JUMPDEST CALLVALUE DUP1 ISZERO PUSH2 0x13A JUMPI PUSH1 0x0 DUP1 REVERT JUMPDEST POP PUSH2 0x155 PUSH1 0x4 DUP1 CALLDATASIZE SUB DUP2 ADD SWAP1 PUSH2 0x150 SWAP2 SWAP1 PUSH2 0xF2C JUMP JUMPDEST PUSH2 0x33A JUMP JUMPDEST STOP JUMPDEST CALLVALUE DUP1 ISZERO PUSH2 0x163 JUMPI PUSH1 0x0 DUP1 REVERT JUMPDEST POP PUSH2 0x17E PUSH1 0x4 DUP1 CALLDATASIZE SUB DUP2 ADD SWAP1 PUSH2 0x179 SWAP2 SWAP1 PUSH2 0xFE1 JUMP JUMPDEST PUSH2 0x614 JUMP JUMPDEST PUSH1 0x40 MLOAD PUSH2 0x18B SWAP2 SWAP1 PUSH2 0x1029 JUMP JUMPDEST PUSH1 0x40 MLOAD DUP1 SWAP2 SUB SWAP1 RETURN JUMPDEST CALLVALUE DUP1 ISZERO PUSH2 0x1A0 JUMPI PUSH1 0x0 DUP1 REVERT JUMPDEST POP PUSH2 0x1BB PUSH1 0x4 DUP1 CALLDATASIZE SUB DUP2 ADD SWAP1 PUSH2 0x1B6 SWAP2 SWAP1 PUSH2 0xF2C JUMP JUMPDEST PUSH2 0x634 JUMP JUMPDEST PUSH1 0x40 MLOAD PUSH2 0x1CC SWAP6 SWAP5 SWAP4 SWAP3 SWAP2 SWAP1 PUSH2 0x10DD JUMP JUMPDEST PUSH1 0x40 MLOAD DUP1 SWAP2 SUB SWAP1 RETURN JUMPDEST CALLVALUE DUP1 ISZERO PUSH2 0x1E1 JUMPI PUSH1 0x0 DUP1 REVERT JUMPDEST POP PUSH2 0x1FC PUSH1 0x4 DUP1 CALLDATASIZE SUB DUP2 ADD SWAP1 PUSH2 0x1F7 SWAP2 SWAP1 PUSH2 0x1137 JUMP JUMPDEST PUSH2 0x747 JUMP JUMPDEST PUSH1 0x40 MLOAD PUSH2 0x209 SWAP2 SWAP1 PUSH2 0x1029 JUMP JUMPDEST PUSH1 0x40 MLOAD DUP1 SWAP2 SUB SWAP1 RETURN JUMPDEST CALLVALUE DUP1 ISZERO PUSH2 0x21E JUMPI PUSH1 0x0 DUP1 REVERT JUMPDEST POP PUSH2 0x239 PUSH1 0x4 DUP1 CALLDATASIZE SUB DUP2 ADD SWAP1 PUSH2 0x234 SWAP2 SWAP1 PUSH2 0xF2C JUMP JUMPDEST PUSH2 0x776 JUMP JUMPDEST PUSH1 0x40 MLOAD PUSH2 0x24A SWAP6 SWAP5 SWAP4 SWAP3 SWAP2 SWAP1 PUSH2 0x10DD JUMP JUMPDEST PUSH1 0x40 MLOAD DUP1 SWAP2 SUB SWAP1 RETURN JUMPDEST CALLVALUE DUP1 ISZERO PUSH2 0x25F JUMPI PUSH1 0x0 DUP1 REVERT JUMPDEST POP PUSH2 0x268 PUSH2 0x871 JUMP JUMPDEST PUSH1 0x40 MLOAD PUSH2 0x275 SWAP2 SWAP1 PUSH2 0x1235 JUMP JUMPDEST PUSH1 0x40 MLOAD DUP1 SWAP2 SUB SWAP1 RETURN JUMPDEST CALLVALUE DUP1 ISZERO PUSH2 0x28A JUMPI PUSH1 0x0 DUP1 REVERT JUMPDEST POP PUSH2 0x2A5 PUSH1 0x4 DUP1 CALLDATASIZE SUB DUP2 ADD SWAP1 PUSH2 0x2A0 SWAP2 SWAP1 PUSH2 0xF2C JUMP JUMPDEST PUSH2 0x8FF JUMP JUMPDEST STOP JUMPDEST CALLVALUE DUP1 ISZERO PUSH2 0x2B3 JUMPI PUSH1 0x0 DUP1 REVERT JUMPDEST POP PUSH2 0x2CE PUSH1 0x4 DUP1 CALLDATASIZE SUB DUP2 ADD SWAP1 PUSH2 0x2C9 SWAP2 SWAP1 PUSH2 0x138C JUMP JUMPDEST PUSH2 0xBF7 JUMP JUMPDEST STOP JUMPDEST CALLVALUE DUP1 ISZERO PUSH2 0x2DC JUMPI PUSH1 0x0 DUP1 REVERT JUMPDEST POP PUSH2 0x2E5 PUSH2 0xE01 JUMP JUMPDEST PUSH1 0x40 MLOAD PUSH2 0x2F2 SWAP2 SWAP1 PUSH2 0x13FB JUMP JUMPDEST PUSH1 0x40 MLOAD DUP1 SWAP2 SUB SWAP1 RETURN JUMPDEST PUSH1 0x0 DUP2 DUP2 SLOAD DUP2 LT PUSH2 0x30B JUMPI PUSH1 0x0 DUP1 REVERT JUMPDEST SWAP1 PUSH1 0x0 MSTORE PUSH1 0x20 PUSH1 0x0 KECCAK256 ADD PUSH1 0x0 SWAP2 POP SLOAD SWAP1 PUSH2 0x100 EXP SWAP1 DIV PUSH20 0xFFFFFFFFFFFFFFFFFFFFFFFFFFFFFFFFFFFFFFFF AND DUP2 JUMP JUMPDEST PUSH1 0x1 PUSH1 0x0 CALLER PUSH20 0xFFFFFFFFFFFFFFFFFFFFFFFFFFFFFFFFFFFFFFFF AND PUSH20 0xFFFFFFFFFFFFFFFFFFFFFFFFFFFFFFFFFFFFFFFF AND DUP2 MSTORE PUSH1 0x20 ADD SWAP1 DUP2 MSTORE PUSH1 0x20 ADD PUSH1 0x0 KECCAK256 PUSH1 0x0 SWAP1 SLOAD SWAP1 PUSH2 0x100 EXP SWAP1 DIV PUSH1 0xFF AND PUSH2 0x3C6 JUMPI PUSH1 0x40 MLOAD PUSH32 0x8C379A000000000000000000000000000000000000000000000000000000000 DUP2 MSTORE PUSH1 0x4 ADD PUSH2 0x3BD SWAP1 PUSH2 0x1473 JUMP JUMPDEST PUSH1 0x40 MLOAD DUP1 SWAP2 SUB SWAP1 REVERT JUMPDEST DUP1 PUSH1 0x4 DUP1 SLOAD SWAP1 POP DUP2 LT PUSH2 0x40E JUMPI PUSH1 0x40 MLOAD PUSH32 0x8C379A000000000000000000000000000000000000000000000000000000000 DUP2 MSTORE PUSH1 0x4 ADD PUSH2 0x405 SWAP1 PUSH2 0x14DF JUMP JUMPDEST PUSH1 0x40 MLOAD DUP1 SWAP2 SUB SWAP1 REVERT JUMPDEST DUP2 PUSH1 0x4 DUP2 DUP2 SLOAD DUP2 LT PUSH2 0x423 JUMPI PUSH2 0x422 PUSH2 0x14FF JUMP JUMPDEST JUMPDEST SWAP1 PUSH1 0x0 MSTORE PUSH1 0x20 PUSH1 0x0 KECCAK256 SWAP1 PUSH1 0x5 MUL ADD PUSH1 0x3 ADD PUSH1 0x0 SWAP1 SLOAD SWAP1 PUSH2 0x100 EXP SWAP1 DIV PUSH1 0xFF AND ISZERO PUSH2 0x482 JUMPI PUSH1 0x40 MLOAD PUSH32 0x8C379A000000000000000000000000000000000000000000000000000000000 DUP2 MSTORE PUSH1 0x4 ADD PUSH2 0x479 SWAP1 PUSH2 0x157A JUMP JUMPDEST PUSH1 0x40 MLOAD DUP1 SWAP2 SUB SWAP1 REVERT JUMPDEST PUSH1 0x0 PUSH1 0x4 DUP5 DUP2 SLOAD DUP2 LT PUSH2 0x498 JUMPI PUSH2 0x497 PUSH2 0x14FF JUMP JUMPDEST JUMPDEST SWAP1 PUSH1 0x0 MSTORE PUSH1 0x20 PUSH1 0x0 KECCAK256 SWAP1 PUSH1 0x5 MUL ADD SWAP1 POP PUSH1 0x3 PUSH1 0x0 DUP6 DUP2 MSTORE PUSH1 0x20 ADD SWAP1 DUP2 MSTORE PUSH1 0x20 ADD PUSH1 0x0 KECCAK256 PUSH1 0x0 CALLER PUSH20 0xFFFFFFFFFFFFFFFFFFFFFFFFFFFFFFFFFFFFFFFF AND PUSH20 0xFFFFFFFFFFFFFFFFFFFFFFFFFFFFFFFFFFFFFFFF AND DUP2 MSTORE PUSH1 0x20 ADD SWAP1 DUP2 MSTORE PUSH1 0x20 ADD PUSH1 0x0 KECCAK256 PUSH1 0x0 SWAP1 SLOAD SWAP1 PUSH2 0x100 EXP SWAP1 DIV PUSH1 0xFF AND PUSH2 0x545 JUMPI PUSH1 0x40 MLOAD PUSH32 0x8C379A000000000000000000000000000000000000000000000000000000000 DUP2 MSTORE PUSH1 0x4 ADD PUSH2 0x53C SWAP1 PUSH2 0x15E6 JUMP JUMPDEST PUSH1 0x40 MLOAD DUP1 SWAP2 SUB SWAP1 REVERT JUMPDEST PUSH1 0x1 DUP2 PUSH1 0x4 ADD PUSH1 0x0 DUP3 DUP3 SLOAD PUSH2 0x55A SWAP2 SWAP1 PUSH2 0x1635 JUMP JUMPDEST SWAP3 POP POP DUP2 SWAP1 SSTORE POP PUSH1 0x0 PUSH1 0x3 PUSH1 0x0 DUP7 DUP2 MSTORE PUSH1 0x20 ADD SWAP1 DUP2 MSTORE PUSH1 0x20 ADD PUSH1 0x0 KECCAK256 PUSH1 0x0 CALLER PUSH20 0xFFFFFFFFFFFFFFFFFFFFFFFFFFFFFFFFFFFFFFFF AND PUSH20 0xFFFFFFFFFFFFFFFFFFFFFFFFFFFFFFFFFFFFFFFF AND DUP2 MSTORE PUSH1 0x20 ADD SWAP1 DUP2 MSTORE PUSH1 0x20 ADD PUSH1 0x0 KECCAK256 PUSH1 0x0 PUSH2 0x100 EXP DUP2 SLOAD DUP2 PUSH1 0xFF MUL NOT AND SWAP1 DUP4 ISZERO ISZERO MUL OR SWAP1 SSTORE POP DUP4 CALLER PUSH20 0xFFFFFFFFFFFFFFFFFFFFFFFFFFFFFFFFFFFFFFFF AND PUSH32 0xF0DCA620E2E81F7841D07BCC105E1704FB01475B278A9D4C236E1C62945EDD55 PUSH1 0x40 MLOAD PUSH1 0x40 MLOAD DUP1 SWAP2 SUB SWAP1 LOG3 POP POP POP POP JUMP JUMPDEST PUSH1 0x1 PUSH1 0x20 MSTORE DUP1 PUSH1 0x0 MSTORE PUSH1 0x40 PUSH1 0x0 KECCAK256 PUSH1 0x0 SWAP2 POP SLOAD SWAP1 PUSH2 0x100 EXP SWAP1 DIV PUSH1 0xFF AND DUP2 JUMP JUMPDEST PUSH1 0x0 DUP1 PUSH1 0x60 PUSH1 0x0 DUP1 PUSH1 0x0 PUSH1 0x4 DUP8 DUP2 SLOAD DUP2 LT PUSH2 0x652 JUMPI PUSH2 0x651 PUSH2 0x14FF JUMP JUMPDEST JUMPDEST SWAP1 PUSH1 0x0 MSTORE PUSH1 0x20 PUSH1 0x0 KECCAK256 SWAP1 PUSH1 0x5 MUL ADD SWAP1 POP DUP1 PUSH1 0x0 ADD PUSH1 0x0 SWAP1 SLOAD SWAP1 PUSH2 0x100 EXP SWAP1 DIV PUSH20 0xFFFFFFFFFFFFFFFFFFFFFFFFFFFFFFFFFFFFFFFF AND DUP2 PUSH1 0x1 ADD SLOAD DUP3 PUSH1 0x2 ADD DUP4 PUSH1 0x3 ADD PUSH1 0x0 SWAP1 SLOAD SWAP1 PUSH2 0x100 EXP SWAP1 DIV PUSH1 0xFF AND DUP5 PUSH1 0x4 ADD SLOAD DUP3 DUP1 SLOAD PUSH2 0x6B3 SWAP1 PUSH2 0x1698 JUMP JUMPDEST DUP1 PUSH1 0x1F ADD PUSH1 0x20 DUP1 SWAP2 DIV MUL PUSH1 0x20 ADD PUSH1 0x40 MLOAD SWAP1 DUP2 ADD PUSH1 0x40 MSTORE DUP1 SWAP3 SWAP2 SWAP1 DUP2 DUP2 MSTORE PUSH1 0x20 ADD DUP3 DUP1 SLOAD PUSH2 0x6DF SWAP1 PUSH2 0x1698 JUMP JUMPDEST DUP1 ISZERO PUSH2 0x72C JUMPI DUP1 PUSH1 0x1F LT PUSH2 0x701 JUMPI PUSH2 0x100 DUP1 DUP4 SLOAD DIV MUL DUP4 MSTORE SWAP2 PUSH1 0x20 ADD SWAP2 PUSH2 0x72C JUMP JUMPDEST DUP3 ADD SWAP2 SWAP1 PUSH1 0x0 MSTORE PUSH1 0x20 PUSH1 0x0 KECCAK256 SWAP1 JUMPDEST DUP2 SLOAD DUP2 MSTORE SWAP1 PUSH1 0x1 ADD SWAP1 PUSH1 0x20 ADD DUP1 DUP4 GT PUSH2 0x70F JUMPI DUP3 SWAP1 SUB PUSH1 0x1F AND DUP3 ADD SWAP2 JUMPDEST POP POP POP POP POP SWAP3 POP SWAP6 POP SWAP6 POP SWAP6 POP SWAP6 POP SWAP6 POP POP SWAP2 SWAP4 SWAP6 SWAP1 SWAP3 SWAP5 POP JUMP JUMPDEST PUSH1 0x3 PUSH1 0x20 MSTORE DUP2 PUSH1 0x0 MSTORE PUSH1 0x40 PUSH1 0x0 KECCAK256 PUSH1 0x20 MSTORE DUP1 PUSH1 0x0 MSTORE PUSH1 0x40 PUSH1 0x0 KECCAK256 PUSH1 0x0 SWAP2 POP SWAP2 POP SWAP1 SLOAD SWAP1 PUSH2 0x100 EXP SWAP1 DIV PUSH1 0xFF AND DUP2 JUMP JUMPDEST PUSH1 0x4 DUP2 DUP2 SLOAD DUP2 LT PUSH2 0x786 JUMPI PUSH1 0x0 DUP1 REVERT JUMPDEST SWAP1 PUSH1 0x0 MSTORE PUSH1 0x20 PUSH1 0x0 KECCAK256 SWAP1 PUSH1 0x5 MUL ADD PUSH1 0x0 SWAP2 POP SWAP1 POP DUP1 PUSH1 0x0 ADD PUSH1 0x0 SWAP1 SLOAD SWAP1 PUSH2 0x100 EXP SWAP1 DIV PUSH20 0xFFFFFFFFFFFFFFFFFFFFFFFFFFFFFFFFFFFFFFFF AND SWAP1 DUP1 PUSH1 0x1 ADD SLOAD SWAP1 DUP1 PUSH1 0x2 ADD DUP1 SLOAD PUSH2 0x7D5 SWAP1 PUSH2 0x1698 JUMP JUMPDEST DUP1 PUSH1 0x1F ADD PUSH1 0x20 DUP1 SWAP2 DIV MUL PUSH1 0x20 ADD PUSH1 0x40 MLOAD SWAP1 DUP2 ADD PUSH1 0x40 MSTORE DUP1 SWAP3 SWAP2 SWAP1 DUP2 DUP2 MSTORE PUSH1 0x20 ADD DUP3 DUP1 SLOAD PUSH2 0x801 SWAP1 PUSH2 0x1698 JUMP JUMPDEST DUP1 ISZERO PUSH2 0x84E JUMPI DUP1 PUSH1 0x1F LT PUSH2 0x823 JUMPI PUSH2 0x100 DUP1 DUP4 SLOAD DIV MUL DUP4 MSTORE SWAP2 PUSH1 0x20 ADD SWAP2 PUSH2 0x84E JUMP JUMPDEST DUP3 ADD SWAP2 SWAP1 PUSH1 0x0 MSTORE PUSH1 0x20 PUSH1 0x0 KECCAK256 SWAP1 JUMPDEST DUP2 SLOAD DUP2 MSTORE SWAP1 PUSH1 0x1 ADD SWAP1 PUSH1 0x20 ADD DUP1 DUP4 GT PUSH2 0x831 JUMPI DUP3 SWAP1 SUB PUSH1 0x1F AND DUP3 ADD SWAP2 JUMPDEST POP POP POP POP POP SWAP1 DUP1 PUSH1 0x3 ADD PUSH1 0x0 SWAP1 SLOAD SWAP1 PUSH2 0x100 EXP SWAP1 DIV PUSH1 0xFF AND SWAP1 DUP1 PUSH1 0x4 ADD SLOAD SWAP1 POP DUP6 JUMP JUMPDEST PUSH1 0x60 PUSH1 0x0 DUP1 SLOAD DUP1 PUSH1 0x20 MUL PUSH1 0x20 ADD PUSH1 0x40 MLOAD SWAP1 DUP2 ADD PUSH1 0x40 MSTORE DUP1 SWAP3 SWAP2 SWAP1 DUP2 DUP2 MSTORE PUSH1 0x20 ADD DUP3 DUP1 SLOAD DUP1 ISZERO PUSH2 0x8F5 JUMPI PUSH1 0x20 MUL DUP3 ADD SWAP2 SWAP1 PUSH1 0x0 MSTORE PUSH1 0x20 PUSH1 0x0 KECCAK256 SWAP1 JUMPDEST DUP2 PUSH1 0x0 SWAP1 SLOAD SWAP1 PUSH2 0x100 EXP SWAP1 DIV PUSH20 0xFFFFFFFFFFFFFFFFFFFFFFFFFFFFFFFFFFFFFFFF AND PUSH20 0xFFFFFFFFFFFFFFFFFFFFFFFFFFFFFFFFFFFFFFFF AND DUP2 MSTORE PUSH1 0x20 ADD SWAP1 PUSH1 0x1 ADD SWAP1 DUP1 DUP4 GT PUSH2 0x8AB JUMPI JUMPDEST POP POP POP POP POP SWAP1 POP SWAP1 JUMP JUMPDEST PUSH1 0x1 PUSH1 0x0 CALLER PUSH20 0xFFFFFFFFFFFFFFFFFFFFFFFFFFFFFFFFFFFFFFFF AND PUSH20 0xFFFFFFFFFFFFFFFFFFFFFFFFFFFFFFFFFFFFFFFF AND DUP2 MSTORE PUSH1 0x20 ADD SWAP1 DUP2 MSTORE PUSH1 0x20 ADD PUSH1 0x0 KECCAK256 PUSH1 0x0 SWAP1 SLOAD SWAP1 PUSH2 0x100 EXP SWAP1 DIV PUSH1 0xFF AND PUSH2 0x98B JUMPI PUSH1 0x40 MLOAD PUSH32 0x8C379A000000000000000000000000000000000000000000000000000000000 DUP2 MSTORE PUSH1 0x4 ADD PUSH2 0x982 SWAP1 PUSH2 0x1473 JUMP JUMPDEST PUSH1 0x40 MLOAD DUP1 SWAP2 SUB SWAP1 REVERT JUMPDEST DUP1 PUSH1 0x4 DUP1 SLOAD SWAP1 POP DUP2 LT PUSH2 0x9D3 JUMPI PUSH1 0x40 MLOAD PUSH32 0x8C379A000000000000000000000000000000000000000000000000000000000 DUP2 MSTORE PUSH1 0x4 ADD PUSH2 0x9CA SWAP1 PUSH2 0x14DF JUMP JUMPDEST PUSH1 0x40 MLOAD DUP1 SWAP2 SUB SWAP1 REVERT JUMPDEST DUP2 PUSH1 0x4 DUP2 DUP2 SLOAD DUP2 LT PUSH2 0x9E8 JUMPI PUSH2 0x9E7 PUSH2 0x14FF JUMP JUMPDEST JUMPDEST SWAP1 PUSH1 0x0 MSTORE PUSH1 0x20 PUSH1 0x0 KECCAK256 SWAP1 PUSH1 0x5 MUL ADD PUSH1 0x3 ADD PUSH1 0x0 SWAP1 SLOAD SWAP1 PUSH2 0x100 EXP SWAP1 DIV PUSH1 0xFF AND ISZERO PUSH2 0xA47 JUMPI PUSH1 0x40 MLOAD PUSH32 0x8C379A000000000000000000000000000000000000000000000000000000000 DUP2 MSTORE PUSH1 0x4 ADD PUSH2 0xA3E SWAP1 PUSH2 0x157A JUMP JUMPDEST PUSH1 0x40 MLOAD DUP1 SWAP2 SUB SWAP1 REVERT JUMPDEST PUSH1 0x0 PUSH1 0x4 DUP5 DUP2 SLOAD DUP2 LT PUSH2 0xA5D JUMPI PUSH2 0xA5C PUSH2 0x14FF JUMP JUMPDEST JUMPDEST SWAP1 PUSH1 0x0 MSTORE PUSH1 0x20 PUSH1 0x0 KECCAK256 SWAP1 PUSH1 0x5 MUL ADD SWAP1 POP PUSH1 0x2 SLOAD DUP2 PUSH1 0x4 ADD SLOAD LT ISZERO PUSH2 0xAB6 JUMPI PUSH1 0x40 MLOAD PUSH32 0x8C379A000000000000000000000000000000000000000000000000000000000 DUP2 MSTORE PUSH1 0x4 ADD PUSH2 0xAAD SWAP1 PUSH2 0x1715 JUMP JUMPDEST PUSH1 0x40 MLOAD DUP1 SWAP2 SUB SWAP1 REVERT JUMPDEST PUSH1 0x1 DUP2 PUSH1 0x3 ADD PUSH1 0x0 PUSH2 0x100 EXP DUP2 SLOAD DUP2 PUSH1 0xFF MUL NOT AND SWAP1 DUP4 ISZERO ISZERO MUL OR SWAP1 SSTORE POP PUSH1 0x0 DUP2 PUSH1 0x0 ADD PUSH1 0x0 SWAP1 SLOAD SWAP1 PUSH2 0x100 EXP SWAP1 DIV PUSH20 0xFFFFFFFFFFFFFFFFFFFFFFFFFFFFFFFFFFFFFFFF AND PUSH20 0xFFFFFFFFFFFFFFFFFFFFFFFFFFFFFFFFFFFFFFFF AND DUP3 PUSH1 0x1 ADD SLOAD DUP4 PUSH1 0x2 ADD PUSH1 0x40 MLOAD PUSH2 0xB26 SWAP2 SWAP1 PUSH2 0x17D4 JUMP JUMPDEST PUSH1 0x0 PUSH1 0x40 MLOAD DUP1 DUP4 SUB DUP2 DUP6 DUP8 GAS CALL SWAP3 POP POP POP RETURNDATASIZE DUP1 PUSH1 0x0 DUP2 EQ PUSH2 0xB63 JUMPI PUSH1 0x40 MLOAD SWAP2 POP PUSH1 0x1F NOT PUSH1 0x3F RETURNDATASIZE ADD AND DUP3 ADD PUSH1 0x40 MSTORE RETURNDATASIZE DUP3 MSTORE RETURNDATASIZE PUSH1 0x0 PUSH1 0x20 DUP5 ADD RETURNDATACOPY PUSH2 0xB68 JUMP JUMPDEST PUSH1 0x60 SWAP2 POP JUMPDEST POP POP SWAP1 POP DUP1 PUSH2 0xBAC JUMPI PUSH1 0x40 MLOAD PUSH32 0x8C379A000000000000000000000000000000000000000000000000000000000 DUP2 MSTORE PUSH1 0x4 ADD PUSH2 0xBA3 SWAP1 PUSH2 0x1837 JUMP JUMPDEST PUSH1 0x40 MLOAD DUP1 SWAP2 SUB SWAP1 REVERT JUMPDEST DUP5 CALLER PUSH20 0xFFFFFFFFFFFFFFFFFFFFFFFFFFFFFFFFFFFFFFFF AND PUSH32 0x5445F318F4F5FCFB66592E68E0CC5822AA15664039BD5F0FFDE24C5A8142B1AC PUSH1 0x40 MLOAD PUSH1 0x40 MLOAD DUP1 SWAP2 SUB SWAP1 LOG3 POP POP POP POP POP JUMP JUMPDEST PUSH1 0x1 PUSH1 0x0 CALLER PUSH20 0xFFFFFFFFFFFFFFFFFFFFFFFFFFFFFFFFFFFFFFFF AND PUSH20 0xFFFFFFFFFFFFFFFFFFFFFFFFFFFFFFFFFFFFFFFF AND DUP2 MSTORE PUSH1 0x20 ADD SWAP1 DUP2 MSTORE PUSH1 0x20 ADD PUSH1 0x0 KECCAK256 PUSH1 0x0 SWAP1 SLOAD SWAP1 PUSH2 0x100 EXP SWAP1 DIV PUSH1 0xFF AND PUSH2 0xC83 JUMPI PUSH1 0x40 MLOAD PUSH32 0x8C379A000000000000000000000000000000000000000000000000000000000 DUP2 MSTORE PUSH1 0x4 ADD PUSH2 0xC7A SWAP1 PUSH2 0x1473 JUMP JUMPDEST PUSH1 0x40 MLOAD DUP1 SWAP2 SUB SWAP1 REVERT JUMPDEST PUSH1 0x0 PUSH1 0x4 DUP1 SLOAD SWAP1 POP SWAP1 POP PUSH1 0x4 PUSH1 0x40 MLOAD DUP1 PUSH1 0xA0 ADD PUSH1 0x40 MSTORE DUP1 DUP7 PUSH20 0xFFFFFFFFFFFFFFFFFFFFFFFFFFFFFFFFFFFFFFFF AND DUP2 MSTORE PUSH1 0x20 ADD DUP6 DUP2 MSTORE PUSH1 0x20 ADD DUP5 DUP2 MSTORE PUSH1 0x20 ADD PUSH1 0x0 ISZERO ISZERO DUP2 MSTORE PUSH1 0x20 ADD PUSH1 0x0 DUP2 MSTORE POP SWAP1 DUP1 PUSH1 0x1 DUP2 SLOAD ADD DUP1 DUP3 SSTORE DUP1 SWAP2 POP POP PUSH1 0x1 SWAP1 SUB SWAP1 PUSH1 0x0 MSTORE PUSH1 0x20 PUSH1 0x0 KECCAK256 SWAP1 PUSH1 0x5 MUL ADD PUSH1 0x0 SWAP1 SWAP2 SWAP1 SWAP2 SWAP1 SWAP2 POP PUSH1 0x0 DUP3 ADD MLOAD DUP2 PUSH1 0x0 ADD PUSH1 0x0 PUSH2 0x100 EXP DUP2 SLOAD DUP2 PUSH20 0xFFFFFFFFFFFFFFFFFFFFFFFFFFFFFFFFFFFFFFFF MUL NOT AND SWAP1 DUP4 PUSH20 0xFFFFFFFFFFFFFFFFFFFFFFFFFFFFFFFFFFFFFFFF AND MUL OR SWAP1 SSTORE POP PUSH1 0x20 DUP3 ADD MLOAD DUP2 PUSH1 0x1 ADD SSTORE PUSH1 0x40 DUP3 ADD MLOAD DUP2 PUSH1 0x2 ADD SWAP1 DUP1 MLOAD SWAP1 PUSH1 0x20 ADD SWAP1 PUSH2 0xD66 SWAP3 SWAP2 SWAP1 PUSH2 0xE07 JUMP JUMPDEST POP PUSH1 0x60 DUP3 ADD MLOAD DUP2 PUSH1 0x3 ADD PUSH1 0x0 PUSH2 0x100 EXP DUP2 SLOAD DUP2 PUSH1 0xFF MUL NOT AND SWAP1 DUP4 ISZERO ISZERO MUL OR SWAP1 SSTORE POP PUSH1 0x80 DUP3 ADD MLOAD DUP2 PUSH1 0x4 ADD SSTORE POP POP DUP4 PUSH20 0xFFFFFFFFFFFFFFFFFFFFFFFFFFFFFFFFFFFFFFFF AND DUP2 CALLER PUSH20 0xFFFFFFFFFFFFFFFFFFFFFFFFFFFFFFFFFFFFFFFF AND PUSH32 0xD5A05BF70715AD82A09A756320284A1B54C9FF74CD0F8CCE6219E79B563FE59D DUP7 DUP7 PUSH1 0x40 MLOAD PUSH2 0xDF3 SWAP3 SWAP2 SWAP1 PUSH2 0x1857 JUMP JUMPDEST PUSH1 0x40 MLOAD DUP1 SWAP2 SUB SWAP1 LOG4 POP POP POP POP JUMP JUMPDEST PUSH1 0x2 SLOAD DUP2 JUMP JUMPDEST DUP3 DUP1 SLOAD PUSH2 0xE13 SWAP1 PUSH2 0x1698 JUMP JUMPDEST SWAP1 PUSH1 0x0 MSTORE PUSH1 0x20 PUSH1 0x0 KECCAK256 SWAP1 PUSH1 0x1F ADD PUSH1 0x20 SWAP1 DIV DUP2 ADD SWAP3 DUP3 PUSH2 0xE35 JUMPI PUSH1 0x0 DUP6 SSTORE PUSH2 0xE7C JUMP JUMPDEST DUP3 PUSH1 0x1F LT PUSH2 0xE4E JUMPI DUP1 MLOAD PUSH1 0xFF NOT AND DUP4 DUP1 ADD OR DUP6 SSTORE PUSH2 0xE7C JUMP JUMPDEST DUP3 DUP1 ADD PUSH1 0x1 ADD DUP6 SSTORE DUP3 ISZERO PUSH2 0xE7C JUMPI SWAP2 DUP3 ADD JUMPDEST DUP3 DUP2 GT ISZERO PUSH2 0xE7B JUMPI DUP3 MLOAD DUP3 SSTORE SWAP2 PUSH1 0x20 ADD SWAP2 SWAP1 PUSH1 0x1 ADD SWAP1 PUSH2 0xE60 JUMP JUMPDEST JUMPDEST POP SWAP1 POP PUSH2 0xE89 SWAP2 SWAP1 PUSH2 0xE8D JUMP JUMPDEST POP SWAP1 JUMP JUMPDEST JUMPDEST DUP1 DUP3 GT ISZERO PUSH2 0xEA6 JUMPI PUSH1 0x0 DUP2 PUSH1 0x0 SWAP1 SSTORE POP PUSH1 0x1 ADD PUSH2 0xE8E JUMP JUMPDEST POP SWAP1 JUMP JUMPDEST PUSH1 0x0 DUP2 SWAP1 POP SWAP2 SWAP1 POP JUMP JUMPDEST PUSH2 0xEBD DUP2 PUSH2 0xEAA JUMP JUMPDEST DUP3 MSTORE POP POP JUMP JUMPDEST PUSH1 0x0 PUSH1 0x40 DUP3 ADD SWAP1 POP PUSH2 0xED8 PUSH1 0x0 DUP4 ADD DUP6 PUSH2 0xEB4 JUMP JUMPDEST PUSH2 0xEE5 PUSH1 0x20 DUP4 ADD DUP5 PUSH2 0xEB4 JUMP JUMPDEST SWAP4 SWAP3 POP POP POP JUMP JUMPDEST PUSH1 0x0 PUSH1 0x40 MLOAD SWAP1 POP SWAP1 JUMP JUMPDEST PUSH1 0x0 DUP1 REVERT JUMPDEST PUSH1 0x0 DUP1 REVERT JUMPDEST PUSH2 0xF09 DUP2 PUSH2 0xEAA JUMP JUMPDEST DUP2 EQ PUSH2 0xF14 JUMPI PUSH1 0x0 DUP1 REVERT JUMPDEST POP JUMP JUMPDEST PUSH1 0x0 DUP2 CALLDATALOAD SWAP1 POP PUSH2 0xF26 DUP2 PUSH2 0xF00 JUMP JUMPDEST SWAP3 SWAP2 POP POP JUMP JUMPDEST PUSH1 0x0 PUSH1 0x20 DUP3 DUP5 SUB SLT ISZERO PUSH2 0xF42 JUMPI PUSH2 0xF41 PUSH2 0xEF6 JUMP JUMPDEST JUMPDEST PUSH1 0x0 PUSH2 0xF50 DUP5 DUP3 DUP6 ADD PUSH2 0xF17 JUMP JUMPDEST SWAP2 POP POP SWAP3 SWAP2 POP POP JUMP JUMPDEST PUSH1 0x0 PUSH20 0xFFFFFFFFFFFFFFFFFFFFFFFFFFFFFFFFFFFFFFFF DUP3 AND SWAP1 POP SWAP2 SWAP1 POP JUMP JUMPDEST PUSH1 0x0 PUSH2 0xF84 DUP3 PUSH2 0xF59 JUMP JUMPDEST SWAP1 POP SWAP2 SWAP1 POP JUMP JUMPDEST PUSH2 0xF94 DUP2 PUSH2 0xF79 JUMP JUMPDEST DUP3 MSTORE POP POP JUMP JUMPDEST PUSH1 0x0 PUSH1 0x20 DUP3 ADD SWAP1 POP PUSH2 0xFAF PUSH1 0x0 DUP4 ADD DUP5 PUSH2 0xF8B JUMP JUMPDEST SWAP3 SWAP2 POP POP JUMP JUMPDEST PUSH2 0xFBE DUP2 PUSH2 0xF79 JUMP JUMPDEST DUP2 EQ PUSH2 0xFC9 JUMPI PUSH1 0x0 DUP1 REVERT JUMPDEST POP JUMP JUMPDEST PUSH1 0x0 DUP2 CALLDATALOAD SWAP1 POP PUSH2 0xFDB DUP2 PUSH2 0xFB5 JUMP JUMPDEST SWAP3 SWAP2 POP POP JUMP JUMPDEST PUSH1 0x0 PUSH1 0x20 DUP3 DUP5 SUB SLT ISZERO PUSH2 0xFF7 JUMPI PUSH2 0xFF6 PUSH2 0xEF6 JUMP JUMPDEST JUMPDEST PUSH1 0x0 PUSH2 0x1005 DUP5 DUP3 DUP6 ADD PUSH2 0xFCC JUMP JUMPDEST SWAP2 POP POP SWAP3 SWAP2 POP POP JUMP JUMPDEST PUSH1 0x0 DUP2 ISZERO ISZERO SWAP1 POP SWAP2 SWAP1 POP JUMP JUMPDEST PUSH2 0x1023 DUP2 PUSH2 0x100E JUMP JUMPDEST DUP3 MSTORE POP POP JUMP JUMPDEST PUSH1 0x0 PUSH1 0x20 DUP3 ADD SWAP1 POP PUSH2 0x103E PUSH1 0x0 DUP4 ADD DUP5 PUSH2 0x101A JUMP JUMPDEST SWAP3 SWAP2 POP POP JUMP JUMPDEST PUSH1 0x0 DUP2 MLOAD SWAP1 POP SWAP2 SWAP1 POP JUMP JUMPDEST PUSH1 0x0 DUP3 DUP3 MSTORE PUSH1 0x20 DUP3 ADD SWAP1 POP SWAP3 SWAP2 POP POP JUMP JUMPDEST PUSH1 0x0 JUMPDEST DUP4 DUP2 LT ISZERO PUSH2 0x107E JUMPI DUP1 DUP3 ADD MLOAD DUP2 DUP5 ADD MSTORE PUSH1 0x20 DUP2 ADD SWAP1 POP PUSH2 0x1063 JUMP JUMPDEST DUP4 DUP2 GT ISZERO PUSH2 0x108D JUMPI PUSH1 0x0 DUP5 DUP5 ADD MSTORE JUMPDEST POP POP POP POP JUMP JUMPDEST PUSH1 0x0 PUSH1 0x1F NOT PUSH1 0x1F DUP4 ADD AND SWAP1 POP SWAP2 SWAP1 POP JUMP JUMPDEST PUSH1 0x0 PUSH2 0x10AF DUP3 PUSH2 0x1044 JUMP JUMPDEST PUSH2 0x10B9 DUP2 DUP6 PUSH2 0x104F JUMP JUMPDEST SWAP4 POP PUSH2 0x10C9 DUP2 DUP6 PUSH1 0x20 DUP7 ADD PUSH2 0x1060 JUMP JUMPDEST PUSH2 0x10D2 DUP2 PUSH2 0x1093 JUMP JUMPDEST DUP5 ADD SWAP2 POP POP SWAP3 SWAP2 POP POP JUMP JUMPDEST PUSH1 0x0 PUSH1 0xA0 DUP3 ADD SWAP1 POP PUSH2 0x10F2 PUSH1 0x0 DUP4 ADD DUP9 PUSH2 0xF8B JUMP JUMPDEST PUSH2 0x10FF PUSH1 0x20 DUP4 ADD DUP8 PUSH2 0xEB4 JUMP JUMPDEST DUP2 DUP2 SUB PUSH1 0x40 DUP4 ADD MSTORE PUSH2 0x1111 DUP2 DUP7 PUSH2 0x10A4 JUMP JUMPDEST SWAP1 POP PUSH2 0x1120 PUSH1 0x60 DUP4 ADD DUP6 PUSH2 0x101A JUMP JUMPDEST PUSH2 0x112D PUSH1 0x80 DUP4 ADD DUP5 PUSH2 0xEB4 JUMP JUMPDEST SWAP7 SWAP6 POP POP POP POP POP POP JUMP JUMPDEST PUSH1 0x0 DUP1 PUSH1 0x40 DUP4 DUP6 SUB SLT ISZERO PUSH2 0x114E JUMPI PUSH2 0x114D PUSH2 0xEF6 JUMP JUMPDEST JUMPDEST PUSH1 0x0 PUSH2 0x115C DUP6 DUP3 DUP7 ADD PUSH2 0xF17 JUMP JUMPDEST SWAP3 POP POP PUSH1 0x20 PUSH2 0x116D DUP6 DUP3 DUP7 ADD PUSH2 0xFCC JUMP JUMPDEST SWAP2 POP POP SWAP3 POP SWAP3 SWAP1 POP JUMP JUMPDEST PUSH1 0x0 DUP2 MLOAD SWAP1 POP SWAP2 SWAP1 POP JUMP JUMPDEST PUSH1 0x0 DUP3 DUP3 MSTORE PUSH1 0x20 DUP3 ADD SWAP1 POP SWAP3 SWAP2 POP POP JUMP JUMPDEST PUSH1 0x0 DUP2 SWAP1 POP PUSH1 0x20 DUP3 ADD SWAP1 POP SWAP2 SWAP1 POP JUMP JUMPDEST PUSH2 0x11AC DUP2 PUSH2 0xF79 JUMP JUMPDEST DUP3 MSTORE POP POP JUMP JUMPDEST PUSH1 0x0 PUSH2 0x11BE DUP4 DUP4 PUSH2 0x11A3 JUMP JUMPDEST PUSH1 0x20 DUP4 ADD SWAP1 POP SWAP3 SWAP2 POP POP JUMP JUMPDEST PUSH1 0x0 PUSH1 0x20 DUP3 ADD SWAP1 POP SWAP2 SWAP1 POP JUMP JUMPDEST PUSH1 0x0 PUSH2 0x11E2 DUP3 PUSH2 0x1177 JUMP JUMPDEST PUSH2 0x11EC DUP2 DUP6 PUSH2 0x1182 JUMP JUMPDEST SWAP4 POP PUSH2 0x11F7 DUP4 PUSH2 0x1193 JUMP JUMPDEST DUP1 PUSH1 0x0 JUMPDEST DUP4 DUP2 LT ISZERO PUSH2 0x1228 JUMPI DUP2 MLOAD PUSH2 0x120F DUP9 DUP3 PUSH2 0x11B2 JUMP JUMPDEST SWAP8 POP PUSH2 0x121A DUP4 PUSH2 0x11CA JUMP JUMPDEST SWAP3 POP POP PUSH1 0x1 DUP2 ADD SWAP1 POP PUSH2 0x11FB JUMP JUMPDEST POP DUP6 SWAP4 POP POP POP POP SWAP3 SWAP2 POP POP JUMP JUMPDEST PUSH1 0x0 PUSH1 0x20 DUP3 ADD SWAP1 POP DUP2 DUP2 SUB PUSH1 0x0 DUP4 ADD MSTORE PUSH2 0x124F DUP2 DUP5 PUSH2 0x11D7 JUMP JUMPDEST SWAP1 POP SWAP3 SWAP2 POP POP JUMP JUMPDEST PUSH1 0x0 DUP1 REVERT JUMPDEST PUSH1 0x0 DUP1 REVERT JUMPDEST PUSH32 0x4E487B7100000000000000000000000000000000000000000000000000000000 PUSH1 0x0 MSTORE PUSH1 0x41 PUSH1 0x4 MSTORE PUSH1 0x24 PUSH1 0x0 REVERT JUMPDEST PUSH2 0x1299 DUP3 PUSH2 0x1093 JUMP JUMPDEST DUP2 ADD DUP2 DUP2 LT PUSH8 0xFFFFFFFFFFFFFFFF DUP3 GT OR ISZERO PUSH2 0x12B8 JUMPI PUSH2 0x12B7 PUSH2 0x1261 JUMP JUMPDEST JUMPDEST DUP1 PUSH1 0x40 MSTORE POP POP POP JUMP JUMPDEST PUSH1 0x0 PUSH2 0x12CB PUSH2 0xEEC JUMP JUMPDEST SWAP1 POP PUSH2 0x12D7 DUP3 DUP3 PUSH2 0x1290 JUMP JUMPDEST SWAP2 SWAP1 POP JUMP JUMPDEST PUSH1 0x0 PUSH8 0xFFFFFFFFFFFFFFFF DUP3 GT ISZERO PUSH2 0x12F7 JUMPI PUSH2 0x12F6 PUSH2 0x1261 JUMP JUMPDEST JUMPDEST PUSH2 0x1300 DUP3 PUSH2 0x1093 JUMP JUMPDEST SWAP1 POP PUSH1 0x20 DUP2 ADD SWAP1 POP SWAP2 SWAP1 POP JUMP JUMPDEST DUP3 DUP2 DUP4 CALLDATACOPY PUSH1 0x0 DUP4 DUP4 ADD MSTORE POP POP POP JUMP JUMPDEST PUSH1 0x0 PUSH2 0x132F PUSH2 0x132A DUP5 PUSH2 0x12DC JUMP JUMPDEST PUSH2 0x12C1 JUMP JUMPDEST SWAP1 POP DUP3 DUP2 MSTORE PUSH1 0x20 DUP2 ADD DUP5 DUP5 DUP5 ADD GT ISZERO PUSH2 0x134B JUMPI PUSH2 0x134A PUSH2 0x125C JUMP JUMPDEST JUMPDEST PUSH2 0x1356 DUP5 DUP3 DUP6 PUSH2 0x130D JUMP JUMPDEST POP SWAP4 SWAP3 POP POP POP JUMP JUMPDEST PUSH1 0x0 DUP3 PUSH1 0x1F DUP4 ADD SLT PUSH2 0x1373 JUMPI PUSH2 0x1372 PUSH2 0x1257 JUMP JUMPDEST JUMPDEST DUP2 CALLDATALOAD PUSH2 0x1383 DUP5 DUP3 PUSH1 0x20 DUP7 ADD PUSH2 0x131C JUMP JUMPDEST SWAP2 POP POP SWAP3 SWAP2 POP POP JUMP JUMPDEST PUSH1 0x0 DUP1 PUSH1 0x0 PUSH1 0x60 DUP5 DUP7 SUB SLT ISZERO PUSH2 0x13A5 JUMPI PUSH2 0x13A4 PUSH2 0xEF6 JUMP JUMPDEST JUMPDEST PUSH1 0x0 PUSH2 0x13B3 DUP7 DUP3 DUP8 ADD PUSH2 0xFCC JUMP JUMPDEST SWAP4 POP POP PUSH1 0x20 PUSH2 0x13C4 DUP7 DUP3 DUP8 ADD PUSH2 0xF17 JUMP JUMPDEST SWAP3 POP POP PUSH1 0x40 DUP5 ADD CALLDATALOAD PUSH8 0xFFFFFFFFFFFFFFFF DUP2 GT ISZERO PUSH2 0x13E5 JUMPI PUSH2 0x13E4 PUSH2 0xEFB JUMP JUMPDEST JUMPDEST PUSH2 0x13F1 DUP7 DUP3 DUP8 ADD PUSH2 0x135E JUMP JUMPDEST SWAP2 POP POP SWAP3 POP SWAP3 POP SWAP3 JUMP JUMPDEST PUSH1 0x0 PUSH1 0x20 DUP3 ADD SWAP1 POP PUSH2 0x1410 PUSH1 0x0 DUP4 ADD DUP5 PUSH2 0xEB4 JUMP JUMPDEST SWAP3 SWAP2 POP POP JUMP JUMPDEST PUSH1 0x0 DUP3 DUP3 MSTORE PUSH1 0x20 DUP3 ADD SWAP1 POP SWAP3 SWAP2 POP POP JUMP JUMPDEST PUSH32 0x6E6F74206F776E65720000000000000000000000000000000000000000000000 PUSH1 0x0 DUP3 ADD MSTORE POP JUMP JUMPDEST PUSH1 0x0 PUSH2 0x145D PUSH1 0x9 DUP4 PUSH2 0x1416 JUMP JUMPDEST SWAP2 POP PUSH2 0x1468 DUP3 PUSH2 0x1427 JUMP JUMPDEST PUSH1 0x20 DUP3 ADD SWAP1 POP SWAP2 SWAP1 POP JUMP JUMPDEST PUSH1 0x0 PUSH1 0x20 DUP3 ADD SWAP1 POP DUP2 DUP2 SUB PUSH1 0x0 DUP4 ADD MSTORE PUSH2 0x148C DUP2 PUSH2 0x1450 JUMP JUMPDEST SWAP1 POP SWAP2 SWAP1 POP JUMP JUMPDEST PUSH32 0x747820646F6573206E6F74206578697374000000000000000000000000000000 PUSH1 0x0 DUP3 ADD MSTORE POP JUMP JUMPDEST PUSH1 0x0 PUSH2 0x14C9 PUSH1 0x11 DUP4 PUSH2 0x1416 JUMP JUMPDEST SWAP2 POP PUSH2 0x14D4 DUP3 PUSH2 0x1493 JUMP JUMPDEST PUSH1 0x20 DUP3 ADD SWAP1 POP SWAP2 SWAP1 POP JUMP JUMPDEST PUSH1 0x0 PUSH1 0x20 DUP3 ADD SWAP1 POP DUP2 DUP2 SUB PUSH1 0x0 DUP4 ADD MSTORE PUSH2 0x14F8 DUP2 PUSH2 0x14BC JUMP JUMPDEST SWAP1 POP SWAP2 SWAP1 POP JUMP JUMPDEST PUSH32 0x4E487B7100000000000000000000000000000000000000000000000000000000 PUSH1 0x0 MSTORE PUSH1 0x32 PUSH1 0x4 MSTORE PUSH1 0x24 PUSH1 0x0 REVERT JUMPDEST PUSH32 0x747820616C726561647920657865637574656400000000000000000000000000 PUSH1 0x0 DUP3 ADD MSTORE POP JUMP JUMPDEST PUSH1 0x0 PUSH2 0x1564 PUSH1 0x13 DUP4 PUSH2 0x1416 JUMP JUMPDEST SWAP2 POP PUSH2 0x156F DUP3 PUSH2 0x152E JUMP JUMPDEST PUSH1 0x20 DUP3 ADD SWAP1 POP SWAP2 SWAP1 POP JUMP JUMPDEST PUSH1 0x0 PUSH1 0x20 DUP3 ADD SWAP1 POP DUP2 DUP2 SUB PUSH1 0x0 DUP4 ADD MSTORE PUSH2 0x1593 DUP2 PUSH2 0x1557 JUMP JUMPDEST SWAP1 POP SWAP2 SWAP1 POP JUMP JUMPDEST PUSH32 0x7478206E6F7420636F6E6669726D656400000000000000000000000000000000 PUSH1 0x0 DUP3 ADD MSTORE POP JUMP JUMPDEST PUSH1 0x0 PUSH2 0x15D0 PUSH1 0x10 DUP4 PUSH2 0x1416 JUMP JUMPDEST SWAP2 POP PUSH2 0x15DB DUP3 PUSH2 0x159A JUMP JUMPDEST PUSH1 0x20 DUP3 ADD SWAP1 POP SWAP2 SWAP1 POP JUMP JUMPDEST PUSH1 0x0 PUSH1 0x20 DUP3 ADD SWAP1 POP DUP2 DUP2 SUB PUSH1 0x0 DUP4 ADD MSTORE PUSH2 0x15FF DUP2 PUSH2 0x15C3 JUMP JUMPDEST SWAP1 POP SWAP2 SWAP1 POP JUMP JUMPDEST PUSH32 0x4E487B7100000000000000000000000000000000000000000000000000000000 PUSH1 0x0 MSTORE PUSH1 0x11 PUSH1 0x4 MSTORE PUSH1 0x24 PUSH1 0x0 REVERT JUMPDEST PUSH1 0x0 PUSH2 0x1640 DUP3 PUSH2 0xEAA JUMP JUMPDEST SWAP2 POP PUSH2 0x164B DUP4 PUSH2 0xEAA JUMP JUMPDEST SWAP3 POP DUP3 DUP3 LT ISZERO PUSH2 0x165E JUMPI PUSH2 0x165D PUSH2 0x1606 JUMP JUMPDEST JUMPDEST DUP3 DUP3 SUB SWAP1 POP SWAP3 SWAP2 POP POP JUMP JUMPDEST PUSH32 0x4E487B7100000000000000000000000000000000000000000000000000000000 PUSH1 0x0 MSTORE PUSH1 0x22 PUSH1 0x4 MSTORE PUSH1 0x24 PUSH1 0x0 REVERT JUMPDEST PUSH1 0x0 PUSH1 0x2 DUP3 DIV SWAP1 POP PUSH1 0x1 DUP3 AND DUP1 PUSH2 0x16B0 JUMPI PUSH1 0x7F DUP3 AND SWAP2 POP JUMPDEST PUSH1 0x20 DUP3 LT DUP2 SUB PUSH2 0x16C3 JUMPI PUSH2 0x16C2 PUSH2 0x1669 JUMP JUMPDEST JUMPDEST POP SWAP2 SWAP1 POP JUMP JUMPDEST PUSH32 0x63616E6E6F742065786563757465207478000000000000000000000000000000 PUSH1 0x0 DUP3 ADD MSTORE POP JUMP JUMPDEST PUSH1 0x0 PUSH2 0x16FF PUSH1 0x11 DUP4 PUSH2 0x1416 JUMP JUMPDEST SWAP2 POP PUSH2 0x170A DUP3 PUSH2 0x16C9 JUMP JUMPDEST PUSH1 0x20 DUP3 ADD SWAP1 POP SWAP2 SWAP1 POP JUMP JUMPDEST PUSH1 0x0 PUSH1 0x20 DUP3 ADD SWAP1 POP DUP2 DUP2 SUB PUSH1 0x0 DUP4 ADD MSTORE PUSH2 0x172E DUP2 PUSH2 0x16F2 JUMP JUMPDEST SWAP1 POP SWAP2 SWAP1 POP JUMP JUMPDEST PUSH1 0x0 DUP2 SWAP1 POP SWAP3 SWAP2 POP POP JUMP JUMPDEST PUSH1 0x0 DUP2 SWAP1 POP DUP2 PUSH1 0x0 MSTORE PUSH1 0x20 PUSH1 0x0 KECCAK256 SWAP1 POP SWAP2 SWAP1 POP JUMP JUMPDEST PUSH1 0x0 DUP2 SLOAD PUSH2 0x1762 DUP2 PUSH2 0x1698 JUMP JUMPDEST PUSH2 0x176C DUP2 DUP7 PUSH2 0x1735 JUMP JUMPDEST SWAP5 POP PUSH1 0x1 DUP3 AND PUSH1 0x0 DUP2 EQ PUSH2 0x1787 JUMPI PUSH1 0x1 DUP2 EQ PUSH2 0x1798 JUMPI PUSH2 0x17CB JUMP JUMPDEST PUSH1 0xFF NOT DUP4 AND DUP7 MSTORE DUP2 DUP7 ADD SWAP4 POP PUSH2 0x17CB JUMP JUMPDEST PUSH2 0x17A1 DUP6 PUSH2 0x1740 JUMP JUMPDEST PUSH1 0x0 JUMPDEST DUP4 DUP2 LT ISZERO PUSH2 0x17C3 JUMPI DUP2 SLOAD DUP2 DUP10 ADD MSTORE PUSH1 0x1 DUP3 ADD SWAP2 POP PUSH1 0x20 DUP2 ADD SWAP1 POP PUSH2 0x17A4 JUMP JUMPDEST DUP4 DUP9 ADD SWAP6 POP POP POP JUMPDEST POP POP POP SWAP3 SWAP2 POP POP JUMP JUMPDEST PUSH1 0x0 PUSH2 0x17E0 DUP3 DUP5 PUSH2 0x1755 JUMP JUMPDEST SWAP2 POP DUP2 SWAP1 POP SWAP3 SWAP2 POP POP JUMP JUMPDEST PUSH32 0x7478206661696C65640000000000000000000000000000000000000000000000 PUSH1 0x0 DUP3 ADD MSTORE POP JUMP JUMPDEST PUSH1 0x0 PUSH2 0x1821 PUSH1 0x9 DUP4 PUSH2 0x1416 JUMP JUMPDEST SWAP2 POP PUSH2 0x182C DUP3 PUSH2 0x17EB JUMP JUMPDEST PUSH1 0x20 DUP3 ADD SWAP1 POP SWAP2 SWAP1 POP JUMP JUMPDEST PUSH1 0x0 PUSH1 0x20 DUP3 ADD SWAP1 POP DUP2 DUP2 SUB PUSH1 0x0 DUP4 ADD MSTORE PUSH2 0x1850 DUP2 PUSH2 0x1814 JUMP JUMPDEST SWAP1 POP SWAP2 SWAP1 POP JUMP JUMPDEST PUSH1 0x0 PUSH1 0x40 DUP3 ADD SWAP1 POP PUSH2 0x186C PUSH1 0x0 DUP4 ADD DUP6 PUSH2 0xEB4 JUMP JUMPDEST DUP2 DUP2 SUB PUSH1 0x20 DUP4 ADD MSTORE PUSH2 0x187E DUP2 DUP5 PUSH2 0x10A4 JUMP JUMPDEST SWAP1 POP SWAP4 SWAP3 POP POP POP JUMP INVALID LOG2 PUSH5 0x6970667358 0x22 SLT KECCAK256 0xA9 MSTORE SWAP15 0xD6 0xD3 0xE3 ADDMOD 0xC BASEFEE 0xA6 MSTORE8 0x23 0xD6 PUSH14 0x5D99C02865B502CA934A80F7B4C CALLDATASIZE 0x25 0xC3 0xE5 PUSH5 0x736F6C6343 STOP ADDMOD 0xE STOP CALLER "
				},
				"gasEstimates": {
					"creation": {
						"codeDepositCost": "1266600",
						"executionCost": "infinite",
						"totalCost": "infinite"
					},
					"external": {
						"confirmTransaction(uint256)": "infinite",
						"getOwners()": "infinite",
						"getTransaction(uint256)": "infinite",
						"isConfirmed(uint256,address)": "3176",
						"isOwner(address)": "2890",
						"numConfirmationsRequired()": "2517",
						"owners(uint256)": "4957",
						"revokeConfirmation(uint256)": "infinite",
						"submitTransaction(address,uint256,bytes)": "infinite",
						"transactions(uint256)": "infinite"
					}
				},
				"methodIdentifiers": {
					"confirmTransaction(uint256)": "c01a8c84",
					"getOwners()": "a0e67e2b",
					"getTransaction(uint256)": "33ea3dc8",
					"isConfirmed(uint256,address)": "80f59a65",
					"isOwner(address)": "2f54bf6e",
					"numConfirmationsRequired()": "d0549b85",
					"owners(uint256)": "025e7c27",
					"revokeConfirmation(uint256)": "20ea8d86",
					"submitTransaction(address,uint256,bytes)": "c6427474",
					"transactions(uint256)": "9ace38c2"
				}
			},
			"storageLayout": {
				"storage": [
					{
						"astId": 42,
						"contract": "solidity-study-demo/secondPart/MultSigWallet.sol:MultSigWallet",
						"label": "owners",
						"offset": 0,
						"slot": "0",
						"type": "t_array(t_address)dyn_storage"
					},
					{
						"astId": 46,
						"contract": "solidity-study-demo/secondPart/MultSigWallet.sol:MultSigWallet",
						"label": "isOwner",
						"offset": 0,
						"slot": "1",
						"type": "t_mapping(t_address,t_bool)"
					},
					{
						"astId": 48,
						"contract": "solidity-study-demo/secondPart/MultSigWallet.sol:MultSigWallet",
						"label": "numConfirmationsRequired",
						"offset": 0,
						"slot": "2",
						"type": "t_uint256"
					},
					{
						"astId": 65,
						"contract": "solidity-study-demo/secondPart/MultSigWallet.sol:MultSigWallet",
						"label": "isConfirmed",
						"offset": 0,
						"slot": "3",
						"type": "t_mapping(t_uint256,t_mapping(t_address,t_bool))"
					},
					{
						"astId": 69,
						"contract": "solidity-study-demo/secondPart/MultSigWallet.sol:MultSigWallet",
						"label": "transactions",
						"offset": 0,
						"slot": "4",
						"type": "t_array(t_struct(Transaction)59_storage)dyn_storage"
					}
				],
				"types": {
					"t_address": {
						"encoding": "inplace",
						"label": "address",
						"numberOfBytes": "20"
					},
					"t_array(t_address)dyn_storage": {
						"base": "t_address",
						"encoding": "dynamic_array",
						"label": "address[]",
						"numberOfBytes": "32"
					},
					"t_array(t_struct(Transaction)59_storage)dyn_storage": {
						"base": "t_struct(Transaction)59_storage",
						"encoding": "dynamic_array",
						"label": "struct MultSigWallet.Transaction[]",
						"numberOfBytes": "32"
					},
					"t_bool": {
						"encoding": "inplace",
						"label": "bool",
						"numberOfBytes": "1"
					},
					"t_bytes_storage": {
						"encoding": "bytes",
						"label": "bytes",
						"numberOfBytes": "32"
					},
					"t_mapping(t_address,t_bool)": {
						"encoding": "mapping",
						"key": "t_address",
						"label": "mapping(address => bool)",
						"numberOfBytes": "32",
						"value": "t_bool"
					},
					"t_mapping(t_uint256,t_mapping(t_address,t_bool))": {
						"encoding": "mapping",
						"key": "t_uint256",
						"label": "mapping(uint256 => mapping(address => bool))",
						"numberOfBytes": "32",
						"value": "t_mapping(t_address,t_bool)"
					},
					"t_struct(Transaction)59_storage": {
						"encoding": "inplace",
						"label": "struct MultSigWallet.Transaction",
						"members": [
							{
								"astId": 50,
								"contract": "solidity-study-demo/secondPart/MultSigWallet.sol:MultSigWallet",
								"label": "to",
								"offset": 0,
								"slot": "0",
								"type": "t_address"
							},
							{
								"astId": 52,
								"contract": "solidity-study-demo/secondPart/MultSigWallet.sol:MultSigWallet",
								"label": "value",
								"offset": 0,
								"slot": "1",
								"type": "t_uint256"
							},
							{
								"astId": 54,
								"contract": "solidity-study-demo/secondPart/MultSigWallet.sol:MultSigWallet",
								"label": "data",
								"offset": 0,
								"slot": "2",
								"type": "t_bytes_storage"
							},
							{
								"astId": 56,
								"contract": "solidity-study-demo/secondPart/MultSigWallet.sol:MultSigWallet",
								"label": "executed",
								"offset": 0,
								"slot": "3",
								"type": "t_bool"
							},
							{
								"astId": 58,
								"contract": "solidity-study-demo/secondPart/MultSigWallet.sol:MultSigWallet",
								"label": "numConfirmations",
								"offset": 0,
								"slot": "4",
								"type": "t_uint256"
							}
						],
						"numberOfBytes": "160"
					},
					"t_uint256": {
						"encoding": "inplace",
						"label": "uint256",
						"numberOfBytes": "32"
					}
				}
			},
			"userdoc": {
				"kind": "user",
				"methods": {},
				"version": 1
			}
		}
	}
}