{
	"data": {
		"bytecode": {
			"linkReferences": {},
			"object": "608060405234801561001057600080fd5b5061034b806100206000396000f3fe608060405234801561001057600080fd5b50600436106100365760003560e01c806311acfec41461003b5780632ddbd13a14610057575b600080fd5b61005560048036038101906100509190610180565b610075565b005b61005f6100fb565b60405161006c91906101e6565b60405180910390f35b600080549050600083839050905060005b818110156100ed5760008585838181106100a3576100a2610201565b5b90506020020135905060006002826100bb919061025f565b1480156100c85750606381105b156100dc5780846100d991906102bf565b93505b506100e681610101565b9050610086565b508160008190555050505050565b60005481565b6000816001019150819050919050565b600080fd5b600080fd5b600080fd5b600080fd5b600080fd5b60008083601f8401126101405761013f61011b565b5b8235905067ffffffffffffffff81111561015d5761015c610120565b5b60208301915083602082028301111561017957610178610125565b5b9250929050565b6000806020838503121561019757610196610111565b5b600083013567ffffffffffffffff8111156101b5576101b4610116565b5b6101c18582860161012a565b92509250509250929050565b6000819050919050565b6101e0816101cd565b82525050565b60006020820190506101fb60008301846101d7565b92915050565b7f4e487b7100000000000000000000000000000000000000000000000000000000600052603260045260246000fd5b7f4e487b7100000000000000000000000000000000000000000000000000000000600052601260045260246000fd5b600061026a826101cd565b9150610275836101cd565b92508261028557610284610230565b5b828206905092915050565b7f4e487b7100000000000000000000000000000000000000000000000000000000600052601160045260246000fd5b60006102ca826101cd565b91506102d5836101cd565b9250827fffffffffffffffffffffffffffffffffffffffffffffffffffffffffffffffff0382111561030a57610309610290565b5b82820190509291505056fea264697066735822122038dd7e821722313668b0aa8e29fbab29160125fa7e55d4035511adabbd57f77064736f6c634300080e0033",
			"opcodes": "PUSH1 0x80 PUSH1 0x40 MSTORE CALLVALUE DUP1 ISZERO PUSH2 0x10 JUMPI PUSH1 0x0 DUP1 REVERT JUMPDEST POP PUSH2 0x34B DUP1 PUSH2 0x20 PUSH1 0x0 CODECOPY PUSH1 0x0 RETURN INVALID PUSH1 0x80 PUSH1 0x40 MSTORE CALLVALUE DUP1 ISZERO PUSH2 0x10 JUMPI PUSH1 0x0 DUP1 REVERT JUMPDEST POP PUSH1 0x4 CALLDATASIZE LT PUSH2 0x36 JUMPI PUSH1 0x0 CALLDATALOAD PUSH1 0xE0 SHR DUP1 PUSH4 0x11ACFEC4 EQ PUSH2 0x3B JUMPI DUP1 PUSH4 0x2DDBD13A EQ PUSH2 0x57 JUMPI JUMPDEST PUSH1 0x0 DUP1 REVERT JUMPDEST PUSH2 0x55 PUSH1 0x4 DUP1 CALLDATASIZE SUB DUP2 ADD SWAP1 PUSH2 0x50 SWAP2 SWAP1 PUSH2 0x180 JUMP JUMPDEST PUSH2 0x75 JUMP JUMPDEST STOP JUMPDEST PUSH2 0x5F PUSH2 0xFB JUMP JUMPDEST PUSH1 0x40 MLOAD PUSH2 0x6C SWAP2 SWAP1 PUSH2 0x1E6 JUMP JUMPDEST PUSH1 0x40 MLOAD DUP1 SWAP2 SUB SWAP1 RETURN JUMPDEST PUSH1 0x0 DUP1 SLOAD SWAP1 POP PUSH1 0x0 DUP4 DUP4 SWAP1 POP SWAP1 POP PUSH1 0x0 JUMPDEST DUP2 DUP2 LT ISZERO PUSH2 0xED JUMPI PUSH1 0x0 DUP6 DUP6 DUP4 DUP2 DUP2 LT PUSH2 0xA3 JUMPI PUSH2 0xA2 PUSH2 0x201 JUMP JUMPDEST JUMPDEST SWAP1 POP PUSH1 0x20 MUL ADD CALLDATALOAD SWAP1 POP PUSH1 0x0 PUSH1 0x2 DUP3 PUSH2 0xBB SWAP2 SWAP1 PUSH2 0x25F JUMP JUMPDEST EQ DUP1 ISZERO PUSH2 0xC8 JUMPI POP PUSH1 0x63 DUP2 LT JUMPDEST ISZERO PUSH2 0xDC JUMPI DUP1 DUP5 PUSH2 0xD9 SWAP2 SWAP1 PUSH2 0x2BF JUMP JUMPDEST SWAP4 POP JUMPDEST POP PUSH2 0xE6 DUP2 PUSH2 0x101 JUMP JUMPDEST SWAP1 POP PUSH2 0x86 JUMP JUMPDEST POP DUP2 PUSH1 0x0 DUP2 SWAP1 SSTORE POP POP POP POP POP JUMP JUMPDEST PUSH1 0x0 SLOAD DUP2 JUMP JUMPDEST PUSH1 0x0 DUP2 PUSH1 0x1 ADD SWAP2 POP DUP2 SWAP1 POP SWAP2 SWAP1 POP JUMP JUMPDEST PUSH1 0x0 DUP1 REVERT JUMPDEST PUSH1 0x0 DUP1 REVERT JUMPDEST PUSH1 0x0 DUP1 REVERT JUMPDEST PUSH1 0x0 DUP1 REVERT JUMPDEST PUSH1 0x0 DUP1 REVERT JUMPDEST PUSH1 0x0 DUP1 DUP4 PUSH1 0x1F DUP5 ADD SLT PUSH2 0x140 JUMPI PUSH2 0x13F PUSH2 0x11B JUMP JUMPDEST JUMPDEST DUP3 CALLDATALOAD SWAP1 POP PUSH8 0xFFFFFFFFFFFFFFFF DUP2 GT ISZERO PUSH2 0x15D JUMPI PUSH2 0x15C PUSH2 0x120 JUMP JUMPDEST JUMPDEST PUSH1 0x20 DUP4 ADD SWAP2 POP DUP4 PUSH1 0x20 DUP3 MUL DUP4 ADD GT ISZERO PUSH2 0x179 JUMPI PUSH2 0x178 PUSH2 0x125 JUMP JUMPDEST JUMPDEST SWAP3 POP SWAP3 SWAP1 POP JUMP JUMPDEST PUSH1 0x0 DUP1 PUSH1 0x20 DUP4 DUP6 SUB SLT ISZERO PUSH2 0x197 JUMPI PUSH2 0x196 PUSH2 0x111 JUMP JUMPDEST JUMPDEST PUSH1 0x0 DUP4 ADD CALLDATALOAD PUSH8 0xFFFFFFFFFFFFFFFF DUP2 GT ISZERO PUSH2 0x1B5 JUMPI PUSH2 0x1B4 PUSH2 0x116 JUMP JUMPDEST JUMPDEST PUSH2 0x1C1 DUP6 DUP3 DUP7 ADD PUSH2 0x12A JUMP JUMPDEST SWAP3 POP SWAP3 POP POP SWAP3 POP SWAP3 SWAP1 POP JUMP JUMPDEST PUSH1 0x0 DUP2 SWAP1 POP SWAP2 SWAP1 POP JUMP JUMPDEST PUSH2 0x1E0 DUP2 PUSH2 0x1CD JUMP JUMPDEST DUP3 MSTORE POP POP JUMP JUMPDEST PUSH1 0x0 PUSH1 0x20 DUP3 ADD SWAP1 POP PUSH2 0x1FB PUSH1 0x0 DUP4 ADD DUP5 PUSH2 0x1D7 JUMP JUMPDEST SWAP3 SWAP2 POP POP JUMP JUMPDEST PUSH32 0x4E487B7100000000000000000000000000000000000000000000000000000000 PUSH1 0x0 MSTORE PUSH1 0x32 PUSH1 0x4 MSTORE PUSH1 0x24 PUSH1 0x0 REVERT JUMPDEST PUSH32 0x4E487B7100000000000000000000000000000000000000000000000000000000 PUSH1 0x0 MSTORE PUSH1 0x12 PUSH1 0x4 MSTORE PUSH1 0x24 PUSH1 0x0 REVERT JUMPDEST PUSH1 0x0 PUSH2 0x26A DUP3 PUSH2 0x1CD JUMP JUMPDEST SWAP2 POP PUSH2 0x275 DUP4 PUSH2 0x1CD JUMP JUMPDEST SWAP3 POP DUP3 PUSH2 0x285 JUMPI PUSH2 0x284 PUSH2 0x230 JUMP JUMPDEST JUMPDEST DUP3 DUP3 MOD SWAP1 POP SWAP3 SWAP2 POP POP JUMP JUMPDEST PUSH32 0x4E487B7100000000000000000000000000000000000000000000000000000000 PUSH1 0x0 MSTORE PUSH1 0x11 PUSH1 0x4 MSTORE PUSH1 0x24 PUSH1 0x0 REVERT JUMPDEST PUSH1 0x0 PUSH2 0x2CA DUP3 PUSH2 0x1CD JUMP JUMPDEST SWAP2 POP PUSH2 0x2D5 DUP4 PUSH2 0x1CD JUMP JUMPDEST SWAP3 POP DUP3 PUSH32 0xFFFFFFFFFFFFFFFFFFFFFFFFFFFFFFFFFFFFFFFFFFFFFFFFFFFFFFFFFFFFFFFF SUB DUP3 GT ISZERO PUSH2 0x30A JUMPI PUSH2 0x309 PUSH2 0x290 JUMP JUMPDEST JUMPDEST DUP3 DUP3 ADD SWAP1 POP SWAP3 SWAP2 POP POP JUMP INVALID LOG2 PUSH5 0x6970667358 0x22 SLT KECCAK256 CODESIZE 0xDD PUSH31 0x821722313668B0AA8E29FBAB29160125FA7E55D4035511ADABBD57F7706473 PUSH16 0x6C634300080E00330000000000000000 "
		},
		"gasEstimates": {
			"creation": {
				"codeDepositCost": "168600",
				"executionCost": "214",
				"totalCost": "168814"
			},
			"external": {
				"sumIfEventAndLessThan99(uint256[])": "infinite",
				"total()": "2429"
			},
			"internal": {
				"checked_inc(uint256)": "42"
			}
		},
		"methodIdentifiers": {
			"sumIfEventAndLessThan99(uint256[])": "11acfec4",
			"total()": "2ddbd13a"
		}
	},
	"abi": [
		{
			"inputs": [
				{
					"internalType": "uint256[]",
					"name": "nums",
					"type": "uint256[]"
				}
			],
			"name": "sumIfEventAndLessThan99",
			"outputs": [],
			"stateMutability": "nonpayable",
			"type": "function"
		},
		{
			"inputs": [],
			"name": "total",
			"outputs": [
				{
					"internalType": "uint256",
					"name": "",
					"type": "uint256"
				}
			],
			"stateMutability": "view",
			"type": "function"
		}
	]
}